:020000040800F2
:1000000000800020B1020008096D0008136D00088F
:1000100000000000000000000000000000000000E0
:10002000000000000000000000000000196D000842
:100030000000000000000000236D00082D6D000886
:100040000103000801030008010300080103000880
:10005000010300080103000801030008556D0008B2
:100060000103000801030008010300080103000860
:100070000103000801030008010300080103000850
:100080000103000801030008010300080103000840
:100090000103000801030008010300080103000830
:1000A0000103000801030008010300083D6D00087A
:0C00B00001030008010300080103000820
:1000BC0010B5064C2378002B07D1054B002B02D032
:1000CC00044800E000BF0123237010BD98010020FC
:1000DC0000000000783A0108044B10B5002B03D047
:1000EC000349044800E000BF10BDC04600000000FA
:1000FC009C010020783A0108402292029A1A9246FA
:10010C007047C046174B002B00D1134B9D46FFF791
:10011C00F3FF00218B460F461348144A121A13F0B2
:10012C009CFC0E4B002B00D098470D4B002B00D0A5
:10013C0098470020002104000D000D48002802D033
:10014C000C4800E000BF13F05BFC2000290001F01C
:10015C0067FF13F03FFCC0460000080000000000E1
:10016C00000000000000000098010020A002002008
:10017C000000000000000000E45501080000002011
:10018C009801002098010020A002002000224308C2
:10019C008B4274D303098B425FD3030A8B4244D343
:1001AC00030B8B4228D3030C8B420DD3FF22090285
:1001BC0012BA030C8B4202D31212090265D0030B44
:1001CC008B4219D300E0090AC30B8B4201D3CB033A
:1001DC00C01A5241830B8B4201D38B03C01A52417C
:1001EC00430B8B4201D34B03C01A5241030B8B427E
:1001FC0001D30B03C01A5241C30A8B4201D3CB0269
:10020C00C01A5241830A8B4201D38B02C01A52414D
:10021C00430A8B4201D34B02C01A5241030A8B4250
:10022C0001D30B02C01A5241CDD2C3098B4201D368
:10023C00CB01C01A524183098B4201D38B01C01AE6
:10024C00524143098B4201D34B01C01A524103095D
:10025C008B4201D30B01C01A5241C3088B4201D30C
:10026C00CB00C01A524183088B4201D38B00C01AB9
:10027C00524143088B4201D34B00C01A5241411AE0
:10028C0000D20146524110467047FFE701B50020ED
:10029C0000F006F802BDC0460029F7D076E770479B
:1002AC007047C0460D488546002103E00C4B5B5857
:1002BC00435004310B480C4B42189A42F6D30B4A6C
:1002CC0002E0002313600432094B9A42F9D307F081
:1002DC0077F913F095FB01F0A3FEFEE700800020F8
:1002EC00E45501080000002098010020980100202E
:1002FC00A0020020FEE780B582B000AF0200FB1D1B
:10030C001A70BB1D0A1C1A70FB1D1A78BB1D1B78BA
:10031C009A4013005AB2FB1D1978BB1D1B7808209C
:10032C00C31A19410B005BB213435BB2DBB218006A
:10033C00BD4602B080BD90B583B000AF0200FB1D7E
:10034C001A70FB1D1B7801211800FFF7D4FF030066
:10035C001C00FB1D1B7802211800FFF7CCFF0300CB
:10036C006340DCB2FB1D1B7807211800FFF7C3FFAD
:10037C0003006340DBB21800BD4603B090BD90B5DE
:10038C0083B000AF0200FB1D1A70FB1D1B7803210C
:10039C001800FFF7B0FF03001C00FB1D1B780421A5
:1003AC001800FFF7A8FF03006340DCB2FB1D1B78AD
:1003BC0006211800FFF79FFF03006340DBB2180013
:1003CC00BD4603B090BDF0B585B000AF78600C00B1
:1003DC0010001900FB1C221C1A70BB1C021C1A708A
:1003EC007B1C0A1C1A700F257B197A6892791A707B
:1003FC000E26BB197A68D2791A707B6807337A6833
:10040C0092791A707B6805331C787B6804331B78EF
:10041C001800FFF7B4FF03001A007B1C1B78534035
:10042C00DAB27B680633A218D2B21A707B68053335
:10043C007A6812791A707B6803331B785CB27B681C
:10044C0002331B781800FFF776FF03001A00BB1C61
:10045C001B78D318DBB25BB263405AB27B680433AF
:10046C00D2B21A707B6803337A6892781A707B6800
:10047C0001331C787B681B781800FFF780FF0300A2
:10048C001A00FB1C1B785340DAB27B680233A218AB
:10049C00D2B21A707B6801337A6812781A707B19A1
:1004AC001B781800FFF747FF03001A0020230821D0
:1004BC005B18DB191B78D318DBB25AB2BB191B784B
:1004CC005BB253405BB2DAB27B681A70C046BD4671
:1004DC0005B0F0BD80B586B000AF78603960002300
:1004EC007B610CE07B690C333A68D31819787A6815
:1004FC007B69D3180A1C1A707B6901337B617B6999
:10050C00032BEFDD04237B610CE07B69043B3A6831
:10051C00D31819787A687B69D3180A1C1A707B690E
:10052C0001337B617B69072BEFDD00237B613CE0B2
:10053C0000233B6133E03A697B69D31A07221340ED
:10054C00FB60FB683A68D31819787B691A013B6920
:10055C00D3181A4AD25C7B6918013B69C3188A18F4
:10056C00D1B27A68D3180A1C1A72FB6808333A683D
:10057C00D31819787B691A013B69D31808330F4AD1
:10058C00D25C7B6918013B69C31808338A18D1B255
:10059C007A68D3180A1C1A723B6901333B613B69B8
:1005AC00072BC8DD7B6901337B617B69072BBFDDC2
:1005BC00C046C046BD4606B080BDC046083B0108DB
:1005CC00F0B58BB002AFF860B9607A601E23FB18EF
:1005DC0000221A70BB681A78FB681B78D318DAB241
:1005EC0014217B181A70BB685A787B185A70BB6838
:1005FC0002331A78FB685B785340DAB27B189A7036
:10060C00BB68DA787B18DA70BB6804331A78FB683D
:10061C009B78D318DAB27B181A71BB685A797B189D
:10062C005A71BB6806331A78FB68DB785340DAB230
:10063C007B189A71BB68DA797B18DA711F23FB1867
:10064C0000221A7029E01E26BB191B78FA68D318F1
:10065C00197ABB191B780133FA68D3181C7ABB19A9
:10066C001B780233FA68D3181D7ABB191B78033335
:10067C00FA68D3181B7A1422B81800932B002200A6
:10068C00FFF7A1FEBB19BA19127804321A701F2198
:10069C007B181A787B1801321A701F23FB181B78F1
:1006AC001F2BD0D914203B185A78FB681B79D31810
:1006BC00DAB27B681A707B6801333A1892781A7038
:1006CC003B18D978FB685A797B6802334A40D2B21E
:1006DC001A707B6803333A1812791A703B185979DF
:1006EC00FB689A797B6804338A18D2B21A707B68DB
:1006FC0005333A1892791A703B18D979FB68DA7974
:10070C007B6806334A40D2B21A707B6807333A18BA
:10071C0012781A70C046BD4609B0F0BDF0B5ADB048
:10072C0000AF786039607B681B6C1B0EDAB2182145
:10073C007B181A707B681B6C1B0CDAB27B185A7016
:10074C007B681B6C1B0ADAB27B189A707B681B6C7B
:10075C00DAB27B18DA707B685B6C1B0EDAB27B1832
:10076C001A717B685B6C1B0CDAB27B185A717B6854
:10077C005B6C1B0ADAB27B189A717B685B6CDAB221
:10078C007B18DA717B689B6C1B0EDAB27B181A72C1
:10079C007B689B6C1B0CDAB27B185A727B689B6C67
:1007AC001B0ADAB27B189A727B689B6CDAB27B18E4
:1007BC00DA727B68DB6C1B0EDAB27B181A737B68FF
:1007CC00DB6C1B0CDAB27B185A737B68DB6C1B0A74
:1007DC00DAB27B189A737B68DB6CDAB27B18DA734B
:1007EC007B681B681B0EDAB210243B191A707B68ED
:1007FC001B681B0CDAB23B195A707B681B681B0A0E
:10080C00DAB23B199A707B681B68DAB23B19DA7062
:10081C007B685B681B0EDAB23B191A717B685B68EC
:10082C001B0CDAB23B195A717B685B681B0ADAB293
:10083C003B199A717B685B68DAB23B19DA717A18EA
:10084C002826BB1911001800FFF744FE08257A1959
:10085C003919BB191800FFF7B3FE29007B181B7858
:10086C001B061A007B185B781B0413437A189278CA
:10087C00120213437A18D2781A437B681A627B18D7
:10088C001B791B061A007B185B791B0413437A181F
:10089C009279120213437A18D2791A437B685A62FE
:1008AC007B6800229A627B680022DA62C046BD46F1
:1008BC002DB0F0BD90B589B000AF78602D4B1A68A3
:1008CC007B68D2182C4B1A600023FB610023BB61A0
:1008DC002CE0294B1A68BB690721CB1A9B00DA4024
:1008EC001300DAB213243B190F210A401A703B197A
:1008FC001A783B192148B969090141188A5C1A70A8
:10090C000023FB603B191B78FA681343FB60BB693F
:10091C000722D31A9B00FA689A401300FB60FA690D
:10092C00FB681343FB61BB690133BB61BB69072BDC
:10093C00CFDD134BFA691A60114B1B68DB027B612C
:10094C000F4B1B685A0D7B691A430D4B1A600C4BED
:10095C001A680C4B1B685A400B4B1A60054B1A68F3
:10096C00084B1A60084B1A68024B1A60C046BD4609
:10097C0009B090BDBC010020B4010020883B0108E7
:10098C00C4010020C0010020B8010020B0B58EB019
:10099C0000AFB861F9617A61BA69294B1A60FB69D9
:1009AC001B00BB600023FB60BA68264B1A60002357
:1009BC007B6313E000233B630AE03B6B9B007A698B
:1009CC00D3181B681800FFF775FF3B6B01333B63B3
:1009DC003B6B072BF1DD7B6B01337B637B6B022B5A
:1009EC00E8DD0723FB620AE0FB6A9B007A69D318F7
:1009FC001B681800FFF75EFFFB6A013BFB62FB6A9A
:100A0C00002BF1DA0E4B1B683B6200237B623B6AC6
:100A1C001D0000231C000B4B1B683B6000237B60FC
:100A2C0039687A680B0023433B6213002B437B62CB
:100A3C003A6A7B6A10001900BD460EB0B0BDC046C4
:100A4C00BC010020C0010020B0B58CB000AFF86034
:100A5C00B960F9680968B9620021F962F9684968F6
:100A6C00396200217962B96A0B0000210A00396AE7
:100A7C0011430C00796A19430D00BC61FD61FB68E0
:100A8C004033B869F9691A00FFF780FF02000B00C8
:100A9C003A617B617B691B003B6000237B603A6899
:100AAC00FB681A623A69FB685A62FB6800229A6218
:100ABC00FB680022DA62C046BD460CB0B0BD80B502
:100ACC0084B000AF0200BB1D1A803B1D0A1C1A80AB
:100ADC00BB1D1B88002B05D13B1D1B880122D31A83
:100AEC009BB21EE03B1D1B88002B05D1BB1D1B8838
:100AFC000122D31A9BB214E0BB1D1B883A1D12882D
:100B0C005343BB60BB681B041A0CBB681B0CD31A89
:100B1C00FB60FB68002B02DCFB680133FB60FB68AD
:100B2C009BB21800BD4604B080BD000080B584B0F7
:100B3C0000AF786039600023FB600CE0FB685B0061
:100B4C007A68D218FB685B003968CB1812881A8057
:100B5C00FB680133FB60FB68072BEFDD65E0FB688E
:100B6C0007221340062B1DD1FB68344A944663447C
:100B7C005B003A68D3181B885B021AB2FB683049D9
:100B8C008C4663445B003968CB181B88DB099BB22D
:100B9C001BB2534019B2FB685B003A68D3188AB297
:100BAC001A803FE0FB6807221340072B1DD1FB681E
:100BBC00244A944663445B003A68D3181B885B0252
:100BCC001AB2FB681E498C4663445B003968CB182B
:100BDC001B88DB099BB21BB2534019B2FB685B004C
:100BEC003A68D3188AB21A801CE0FB68134A944600
:100BFC0063445B003A68D3181B885B021AB2FB682B
:100C0C0011498C4663445B003968CB181B88DB099F
:100C1C009BB21BB2534019B2FB685B003A68D31805
:100C2C008AB21A80FB680133FB60FB68332B96DDBC
:100C3C00C046C046BD4604B080BDC046F9FFFF7F2C
:100C4C00F2FFFF7FF1FFFF7FFAFFFF7FF0B589B066
:100C5C0000AFF860B9607A601C23FB18FA68128840
:100C6C001A801A23FB18FA6852881A801823FB186A
:100C7C00FA6892881A801623FB18FA68D2881A80B0
:100C8C001E23FB1801221A808DE0BB689A1CBA60E7
:100C9C001A881C26BC19BB191B8819001000FFF7F9
:100CAC000EFF03002380BB689A1CBA6019881A24B3
:100CBC003B193A1912888A181A80BB689A1CBA60B8
:100CCC00198818257B197A1912888A181A80BB681A
:100CDC009A1CBA601A881623FC18FB181B8819007A
:100CEC001000FFF7ECFE03002380BB689A1CBA606F
:100CFC001888BA197B1912881B8853409BB214258B
:100D0C007C191900FFF7DBFE03002380BB689A1CDB
:100D1C00BA6018881A243A191623FB1812881B88F3
:100D2C0053409AB27B191B88D3189BB212217C18A2
:100D3C001900FFF7C4FE030023807B1928007919E2
:100D4C0012221500BA18098812888A181A80BB1941
:100D5C0029000D007918BA19098812884A401A809E
:100D6C001622BB183918BA18098812884A401A80FA
:100D7C003B1839181A243A19098812884A401A80E3
:100D8C003B192A00B91818257A19098812884A4083
:100D9C001A807B193A1812881A801E217B181A881F
:100DAC007B1801321A801E23FB181B88082B00D8D5
:100DBC006BE7BB689A1CBA601A881C23FB181B884B
:100DCC0019001000FFF77BFE03001A007B681A80E5
:100DDC00BB689A1CBA6019887B6802331822BA184F
:100DEC0012888A1892B21A80BB689A1CBA60198849
:100DFC007B6804331A22BA1812888A1892B21A80A5
:100E0C00BB689A1CBA601A887B689C1D1623FB1859
:100E1C001B8819001000FFF752FE03002380C04608
:100E2C00BD4609B0F0BD80B582B000AF78603960C6
:100E3C007A683B6811001800FFF778FEC046BD4683
:100E4C0002B080BD80B584B000AFF860B9607A6044
:100E5C00F9687A68BB681800FFF7F8FEC046BD4613
:100E6C0004B080BDF0B5A5B000AF786039607B6888
:100E7C001B681B0C9AB210243B191A807B681B68E8
:100E8C009AB23B195A807B685B681B0C9AB23B196F
:100E9C009A807B685B689AB23B19DA807B681B6C22
:100EAC009AB218217B181A807B685B6C9AB27B18FB
:100EBC005A807B689B6C9AB27B189A807B68DB6C3F
:100ECC009AB27B18DA807B681B6D9AB27B181A81F8
:100EDC007B685B6D9AB27B185A817B689B6D9AB26A
:100EEC007B189A817B68DB6D9AB27B18DA817A1851
:100EFC002826BB1911001800FFF795FF08257A1951
:100F0C003919BB191800FFF79DFF29007B181B88A6
:100F1C001B041A007B185B881A437B681A627B18C7
:100F2C009B881B041A007B18DB881A437B685A6267
:100F3C007B6800229A627B680022DA62C046BD465A
:100F4C0025B0F0BD80B582B000AF786039607B68A9
:100F5C001A683B681B685A407B681A607B680433CC
:100F6C0019683B6804331A687B6804334A401A607A
:100F7C007B68083319683B6808331A687B68083348
:100F8C004A401A607B680C3319683B680C331A684A
:100F9C007B680C334A401A60C046BD4602B080BD27
:100FAC0080B582B000AF786039603B681A687B68A6
:100FBC001A607B6804333A6852681A607B6808339D
:100FCC003A6892681A607B680C333A68D2681A6087
:100FDC00C046BD4602B080BD80B584B000AFF8609D
:100FEC00B9607A60BB681A687B689A40BB68043346
:100FFC0019687B682020C31AD9400B001A43FB6880
:10100C001A60BB6804331A687B689A401100BB688D
:10101C0008331A687B682020C31ADA40FB68043353
:10102C000A431A60BB6808331A687B689A4011003F
:10103C00BB680C331A687B682020C31ADA40FB6843
:10104C0008330A431A60BB680C331A687B689A40F1
:10105C001100BB681A687B682020C31ADA40FB6851
:10106C000C330A431A60C046BD4604B080BD80B53F
:10107C0084B000AFF860B9607A60BB680C331A6852
:10108C007B68DA401100BB6808331A687B68202043
:10109C00C31A9A40FB680C330A431A60BB680833C6
:1010AC001A687B68DA401100BB6804331A687B68E5
:1010BC002020C31A9A40FB6808330A431A60BB68A5
:1010CC0004331A687B68DA401100BB681A687B68C5
:1010DC002020C31A9A40FB6804330A431A60BB6889
:1010EC001A687B68DA40BB680C3319687B6820206F
:1010FC00C31A99400B001A43FB681A60C046BD46E0
:10110C0004B080BD80B582B000AF786039607B6878
:10111C001B681B0EDBB21A004D4B9B5C1A067B68DE
:10112C001B681B0CDBB219004A4B5B5C1B041A439B
:10113C007B681B681B0ADBB21900474B5B5C1B020C
:10114C001A437B681B68DBB21900444B5B5C13438E
:10115C001A003B681A607B6804331B681B0EDBB2F9
:10116C001A003B4B9B5C1A067B6804331B681B0CF8
:10117C00DBB21900374B5B5C1B041A437B680433EE
:10118C001B681B0ADBB21900334B5B5C1B021A4356
:10119C007B6804331B68DBB21900304B5B5C1A4371
:1011AC003B6804331A607B6808331B681B0EDBB288
:1011BC001A00274B9B5C1A067B6808331B681B0CB8
:1011CC00DBB21900234B5B5C1B041A437B680833AE
:1011DC001B681B0ADBB219001F4B5B5C1B021A431A
:1011EC007B6808331B68DBB219001C4B5B5C1A4331
:1011FC003B6808331A607B680C331B681B0EDBB230
:10120C001A00134B9B5C1A067B680C331B681B0C77
:10121C00DBB219000F4B5B5C1B041A437B680C336D
:10122C001B681B0ADBB219000B4B5B5C1B021A43DD
:10123C007B680C331B68DBB21900084B5B5C1A43F0
:10124C003B680C331A60C046BD4602B080BDC04638
:10125C00383C0108383D0108383E0108383F010888
:10126C0080B582B000AF786039607B681B681B0E5C
:10127C00DBB21A004D4B9B5C1A067B681B681B0C7F
:10128C00DBB219004A4B5B5C1B041A437B681B687E
:10129C001B0ADBB21900474B5B5C1B021A437B68D1
:1012AC001B68DBB21900444B5B5C13431A003B68B0
:1012BC001A607B6804331B681B0EDBB21A003B4BB5
:1012CC009B5C1A067B6804331B681B0CDBB2190091
:1012DC00374B5B5C1B041A437B6804331B681B0A8B
:1012EC00DBB21900334B5B5C1B021A437B68043383
:1012FC001B68DBB21900304B5B5C1A433B68043350
:10130C001A607B6808331B681B0EDBB21A00274B74
:10131C009B5C1A067B6808331B681B0CDBB219003C
:10132C00234B5B5C1B041A437B6808331B681B0A4A
:10133C00DBB219001F4B5B5C1B021A437B68083342
:10134C001B68DBB219001C4B5B5C1A433B6808330F
:10135C001A607B680C331B681B0EDBB21A00134B34
:10136C009B5C1A067B680C331B681B0CDBB21900E8
:10137C000F4B5B5C1B041A437B680C331B681B0A0A
:10138C00DBB219000B4B5B5C1B021A437B680C3302
:10139C001B68DBB21900084B5B5C1A433B680C33CF
:1013AC001A60C046BD4602B080BDC046383E01083A
:1013BC00383F0108383C0108383D0108F0B58BB0C6
:1013CC0000AF786039607B681B681A0E27203B18C9
:1013DC001A707B681B681A0C26243B191A707B68E0
:1013EC001B681A0A25257B191A707B681A68242633
:1013FC00BB191A707B6804331B681A0E23217B18E7
:10140C001A707B6804331B681A0C2223FB181A70A1
:10141C007B6804331B681A0A2123FB181A707B683B
:10142C0004331A682023FB181A707B6808331B6876
:10143C001A0E1F23FB181A707B6808331B681A0CD2
:10144C001E23FB181A707B6808331B681A0A1D23AD
:10145C00FB181A707B6808331A681C23FB181A7067
:10146C007B680C331B681A0E1B23FB181A707B68E5
:10147C000C331B681A0C1A23FB181A707B680C337C
:10148C001B681A0A1923FB181A707B680C331A682C
:10149C001823FB181A70BA197B1812781B78534052
:1014AC00DAB22123FB181B785340DAB21F217B18C8
:1014BC001B785340DAB21E23FB181B785340DAB268
:1014CC001A217B181B785340D9B21722BB1819224A
:1014DC00BA1812784A401A707A192223FB1812781B
:1014EC001B785340DAB220217B181B785340DAB2B8
:1014FC001F217B181B785340DAB21E23FB181B7874
:10150C005340DAB21B217B181B785340D9B21622F8
:10151C00BB181822BA1812784A401A703A192321AB
:10152C007B1812781B785340DAB22123FB181B78F6
:10153C005340DAB21D217B181B785340DAB21C23BE
:10154C00FB181B785340DAB21B217B181B785340D5
:10155C00D9B21522BB181822BA1812784A401A7040
:10156C003A182223FB1812781B785340DAB2202148
:10157C007B181B785340DAB21D217B181B78534023
:10158C00DAB21C23FB181B785340DAB21A23FB186F
:10159C001B785340D9B21422BB181922BA181278EE
:1015AC004A401A703A187B1912781B785340DAB2F9
:1015BC002223FB181B785340DAB21F217B181B78AF
:1015CC005340DAB21C23FB181B785340DAB21923B0
:1015DC00FB181B785340D9B21322BB181822BA1827
:1015EC0012784A401A703A19BB1912781B7853407A
:1015FC00DAB223217B181B785340DAB21E23FB1876
:10160C001B785340DAB21D217B181B785340DAB299
:10161C001923FB181B785340D9B21222BB1818227D
:10162C00BA1812784A401A703A187B1912781B783B
:10163C005340DAB220217B181B785340DAB21E23B8
:10164C00FB181B785340DAB21D23FB181B78534050
:10165C00DAB21B217B181B785340D9B21122BB186C
:10166C001A22BA1812784A401A703A19BB19127811
:10167C001B785340DAB22123FB181B785340DAB2A3
:10168C001F217B181B785340DAB21C217B181B7866
:10169C005340DAB21B217B181B785340D9B210226D
:1016AC00BB181A22BA1812784A401A703A183B1909
:1016BC0012781B785340DAB223217B181B785340E5
:1016CC00DAB220217B181B785340DAB21D23FB18A9
:1016DC001B785340DAB21A23FB181B785340D9B24B
:1016EC000F22BB181822BA1812784A401A703A18EE
:1016FC003B1912781B785340DAB22223FB181B7863
:10170C005340DAB22123FB181B785340DAB21C2168
:10171C007B181B785340DAB21B217B181B78534083
:10172C00D9B20E22BB181922BA1812784A401A7074
:10173C007A19BB1912781B785340DAB22223FB18A2
:10174C001B785340DAB22123FB181B785340DAB2D2
:10175C001F23FB181B785340DAB21A23FB181B7893
:10176C005340D9B20D23FB181822BA1812784A40EC
:10177C001A707A19BB1912781B785340DAB22321EC
:10178C007B181B785340DAB220217B181B7853400E
:10179C00DAB21E217B181B785340DAB21B217B185E
:1017AC001B785340D9B20C23FB181922BA181278A3
:1017BC004A401A703A197B1912781B785340DAB2E6
:1017CC002123FB181B785340DAB220217B181B789D
:1017DC005340DAB21E217B181B785340DAB21C211D
:1017EC007B181B785340D9B20B22BB181B22BA189A
:1017FC0012784A401A703A18BB1912781B78534069
:10180C00DAB22123FB181B785340DAB220217B1863
:10181C001B785340DAB21F23FB181B785340DAB203
:10182C001D23FB181B785340D9B20A23FB181A222C
:10183C00BA1812784A401A703A18BB1912781B78E9
:10184C005340DAB223203B181B785340DAB22226DD
:10185C00BB191B785340DAB21E217B181B785340FE
:10186C00DAB21C217B181B785340D9B20923FB1820
:10187C001922BA1812784A401A703A197B19127840
:10188C001B785340DAB23B181B785340DAB2BB19C1
:10189C001B785340DAB21F23FB181B785340DAB283
:1018AC001D23FB181B785340D9B208203B18182273
:1018BC00BA1812784A401A701722BB181B781A06ED
:1018CC001623FB181B781B041A431523FB181B78D3
:1018DC001B021A431423FB181B7813431A003B6892
:1018EC001A601322BB181B781A061223FB181B78DC
:1018FC001B041A431123FB181B781B021A431023D9
:10190C00FB181B781A433B6804331A600F22BB1870
:10191C001B781A060E23FB181B781B041A430D2385
:10192C00FB181B781B021A430C23FB181B781A4359
:10193C003B6808331A600B22BB181B781A060A2363
:10194C00FB181B781B041A430923FB181B781B027A
:10195C001A433B181B781A433B680C331A60C04679
:10196C00BD460BB0F0BD90B589B000AFF860B96062
:10197C007A60FA6810243B1911001800FFF710FB6D
:10198C00BA683B1911001800FFF7DCFA3A193B1939
:10199C0011001800FFF7B6FB7A683B19110018000C
:1019AC00FFF70CFDC046BD4609B090BD90B589B09F
:1019BC0000AFF860B9607A60FA6810243B19110026
:1019CC001800FFF7EDFABA683B1911001800FFF781
:1019DC00B9FA3A193B1911001800FFF741FC7A6863
:1019EC003B1911001800FFF7E9FCC046BD4609B0D1
:1019FC0090BD90B589B000AFF860B9607A603B607B
:101A0C00B9683B6B13221800FFF731FBFA683B6B8C
:101A1C0011001800FFF796FA3B6B1033796813220C
:101A2C001800FFF724FB3B6B1033BA681100180049
:101A3C00FFF788FA3B6B2033396813221800FFF745
:101A4C0016FB3B6B20337A6811001800FFF77AFA0B
:101A5C003B6B3033F96813221800FFF708FB3B6B24
:101A6C0030333A6811001800FFF76CFA3B6B4033C7
:101A7C00B9681F221800FFF7FAFA3B6B4033FA687B
:101A8C0011001800FFF75EFA3B6B503379681F2288
:101A9C001800FFF7ECFA3B6B5033BA6811001800D2
:101AAC00FFF750FA3B6B603339681F221800FFF7C1
:101ABC00DEFA3B6B60337A6811001800FFF742FACC
:101ACC003B6B7033F9681F221800FFF7D0FA3B6BA1
:101ADC0070333A6811001800FFF734FA3B6B80330F
:101AEC00B9681F221800FFF777FA3B6B8033190097
:101AFC0010243B191E221800FFF76EFA3B6B803343
:101B0C003A1911001800FFF74BFA3B6B8033FA6857
:101B1C0011001800FFF716FA3B6B903379681F22FF
:101B2C001800FFF759FA3B6B903319003B191E2232
:101B3C001800FFF751FA3B6B90333A19110018005B
:101B4C00FFF72EFA3B6B9033BA6811001800FFF7C1
:101B5C00F9F93B6BA03339681F221800FFF73CFAE8
:101B6C003B6BA03319003B191E221800FFF734FA07
:101B7C003B6BA0333A1911001800FFF711FA3B6BBD
:101B8C00A0337A6811001800FFF7DCF93B6BB03317
:101B9C00F9681F221800FFF71FFA3B6BB0331900CE
:101BAC003B191E221800FFF717FA3B6BB0333A199A
:101BBC0011001800FFF7F4F93B6BB0333A681100D1
:101BCC001800FFF7BFF93B6BC033B9681F22180030
:101BDC00FFF702FA3B6BC033FA6811001800FFF7ED
:101BEC00B1F93B6BD03379681F221800FFF7F4F979
:101BFC003B6BD033BA6811001800FFF7A3F93B6BAD
:101C0C00E03339681F221800FFF7E6F93B6BE0332D
:101C1C007A6811001800FFF795F93B6BF033F968FF
:101C2C001F221800FFF7D8F93B6BF0333A6811000C
:101C3C001800FFF787F93B6B0133FF33B9681322A8
:101C4C001800FFF7C9F93B6B0133FF33FA68110039
:101C5C001800FFF777F9C046BD4609B090BD0000EB
:101C6C00F0B5A7B002AFF860B9607A607B68802BE2
:101C7C0025D1FB680D221A6010217B1800221A60F6
:101C8C007B1800225A607B1800229A607B18002275
:101C9C00DA60564A4023FB1811001800FFF780F950
:101CAC00534A3023FB1811001800FFF779F9514AF9
:101CBC002023FB1811001800FFF772F953E07B6822
:101CCC00C02B27D1FB680F221A60BB681A69102140
:101CDC007B181A60BB685A697B185A607B18002203
:101CEC009A607B180022DA60414A4023FB181100ED
:101CFC001800FFF755F93F4A3023FB181100180064
:101D0C00FFF74EF9394A2023FB1811001800FFF792
:101D1C0047F928E0FB6811221A60BB681A69102188
:101D2C007B181A60BB685A697B185A60BB689A6941
:101D3C007B189A60BB68DA697B18DA602D4A4023FD
:101D4C00FB1811001800FFF72BF9284A3023FB1859
:101D5C0011001800FFF724F9254A2023FB18110065
:101D6C001800FFF71DF9BA688026BB19110018007E
:101D7C00FFF716F970243A194023F918BB1918000B
:101D8C00FFF7F1FD1023FA183B1911001800FFF7AB
:101D9C00D9F860257A193023F9183B191800FFF788
:101DAC0005FEBA197B1911001800FFF7CBF8502368
:101DBC00FA18202179187B191800FFF7D4FD25009B
:101DCC003A1950243B1911001800FFF7BBF8FB68B7
:101DDC0004333C196022BA187919B81900932300FE
:101DEC00FFF707FEC046BD4625B0F0BD083C010814
:101DFC00183C0108283C010890B589B000AFF86088
:101E0C00B9607A600023FB610023BB611023FB18CF
:101E1C00244A03CA03C3BA687B6811001800FFF791
:101E2C00BFF80123FB6114E0FB6901221A40102367
:101E3C00FB189200D458BB695A1CBA611B01FA6892
:101E4C00D318191D7A687B681800A047FB69013309
:101E5C00FB61FB681B68023BFA699A42E4D9BB69D7
:101E6C005A1CBA611B01FA68D3181A1D7B68110041
:101E7C001800FFF767F87A687B6811001800FFF705
:101E8C00EFF9BB695A1CBA611B01FA68D3181A1D09
:101E9C007B6811001800FFF755F8C046BD4609B025
:101EAC0090BDC046BC3A010890B5C9B000AF78608F
:101EBC0039607B68403319003A680C243B191800D0
:101ECC00FFF7CEFE79687B6820331A003B191800A7
:101EDC00FFF792FFC046BD4649B090BD90B5D3B058
:101EEC0018AF02003960FB1D1A700023E422BA18E7
:101EFC0013600023E022BA1813600C23D022BA1806
:101F0C0013600023DC22BA18136011E0414BDC2073
:101F1C003A1812689200D1586C23FB183A181268C0
:101F2C0010329200D1503B181B6801333A181360E1
:101F3C00DC23FB181B68072BE8DD0023D822BA181A
:101F4C00136017E0344BE4203A1812689200D15811
:101F5C006C23FB18D8243A19126804329200D15021
:101F6C003B181B6801333A1813603B191B6801338B
:101F7C003A191360D823FB181A683B689A42E1DBC4
:101F8C000023D422BA18136016E0244BE0203A1830
:101F9C0012689200D1586C23FB18D4243A19126899
:101FAC009200D1503B181B6801333A1813603B194F
:101FBC001B6801333A191360D423FB181A683B6869
:101FCC009A42E2DB6C23FC18E423FB181B68179382
:101FDC003B681693FB1D1B7815936B46180023006A
:101FEC0010335422190011F02FFD20686168A2688B
:101FFC00E36803F009FD0300012B01D1012305E087
:10200C00E423FB181B680B2B97DD00231800BD463F
:10201C003BB090BD64000020340000200400002080
:10202C0080B500AF0AF05EFA00F084F8002009F0E9
:10203C00FBFE344B344A1A60324B18000BF0F0FCA8
:10204C00304BE12252025A602E4B00229A602D4BEB
:10205C000022DA602B4B00221A612A4B00229A6173
:10206C00284B0C225A61274B00225A62254B180030
:10207C000BF036FB031E01D000F09EF8234B244AD4
:10208C001A60244B244A1A60244B00221A60244BF9
:10209C0000221A60234B1B789AB2FA239B00224928
:1020AC0018480BF007FD031E01D000F085F81F4BFC
:1020BC001B789AB2FA239B001D4912480BF0FAFCCC
:1020CC00031E01D000F078F8C046154B1B68002B9E
:1020DC00FBD0134B00221A600E4B1968FA239B009D
:1020EC0008480A220BF0E6FC031E01D000F064F84D
:1020FC00002009F023FFFA235B0018000AF0CAFA4B
:10210C00D5E7C046C801002000380140700200200D
:10211C004C0200206C0200205802002064020020B7
:10212C0068020020B800002084000020E800002095
:10213C00BC00002080B592B000AF3B1D20221A607D
:10214C003B1D01221A623B1D02225A623B1DC0221A
:10215C0052029A623B1D01221A633B1D0022DA6275
:10216C003B1D180010F018FA031E01D000F024F8E3
:10217C0038217B1807221A607B1802225A607B18C0
:10218C0000229A607B180022DA607B18012118006B
:10219C0010F088FD031E01D000F00EF8C046BD46BD
:1021AC0012B080BD80B582B000AF786000F004F84A
:1021BC00C046BD4602B080BD80B500AF002009F01E
:1021CC00BDFEFA239B0018000AF064FAF6E780B50E
:1021DC0000AFC046BD4680BD80B500AF01231800DE
:1021EC00BD4680BD80B582B000AF7860396011F01B
:1021FC00EBFB030016221A6001235B421800BD465C
:10220C0002B080BD80B582B000AF786001235A4225
:10221C007B6811001800FFF7E5FFFEE780B586B07C
:10222C0000AFF860B9607A6000237B610AE000E0DF
:10223C0000BF0100BB685A1CBA60CAB21A707B6935
:10224C0001337B617A697B689A42F0DB7B6818000A
:10225C00BD4606B080BD80B586B000AFF860B960F1
:10226C007A6000237B6109E0BB685A1CBA601B785A
:10227C00180000E000BF7B6901337B617A697B68E1
:10228C009A42F1DB7B681800BD4606B080BD80B574
:10229C0082B000AF786001235B421800BD4602B0EB
:1022AC0080BD80B582B000AF786039603B68802219
:1022BC0092015A6000231800BD4602B080BD80B563
:1022CC0082B000AF786001231800BD4602B080BD1B
:1022DC0080B584B000AFF860B9607A600023180054
:1022EC00BD4604B080BD0EB480B583B000AF78603D
:1022FC0001235B421800BD4603B080BC08BC03B090
:10230C00184780B582B000AF786011F05DFB030018
:10231C000A221A6001235B421800BD4602B080BD40
:10232C0080B582B000AF786011F04EFB0300022242
:10233C001A6001235B421800BD4602B080BD80B517
:10234C0082B000AF786001235B421800BD4602B03A
:10235C0080BD80B582B000AF786039603B68802268
:10236C0092015A6000231800BD4602B080BD80B5B2
:10237C0082B000AF7860396011F026FB03001F2299
:10238C001A6001235B421800BD4602B080BD80B5C7
:10239C0000AF11F019FB03000B221A6001235B4202
:1023AC001800BD4680BD80B584B000AFF860B96040
:1023BC007A6011F009FB03000C221A6001235B42C6
:1023CC001800BD4604B080BDF0B589B000AFB8614F
:1023DC00F9617A61BA69FB6979692039002903DBF3
:1023EC0010008840F8600CE079692020411A100038
:1023FC00C840010078691E008640FE60F8680843FA
:10240C00F860796910008840B860796949423F20CA
:10241C0001402039002903DB1800C84004000FE0FC
:10242C00796949423F2001402020411A1800884018
:10243C00796949423F2631401600CE4034000443AE
:10244C00796949423F200140CB401D00BA68FB68C6
:10245C001100214339602B437B603C687D6822006E
:10246C002B0010001900BD4609B0F0BDF0B589B0C5
:10247C0000AFB861F9617A61BA69FB697969203991
:10248C00002903DB1800C840B8600CE079692020F3
:10249C00411A18008840010078691600C640BE60D9
:1024AC00B8680843B86079691800C840F860796961
:1024BC0049423F2001402039002903DB10008840AD
:1024CC0005000FE0796949423F2001402020411A64
:1024DC001000C840796949423F2631401E008E40A9
:1024EC0035000543796949423F20014013008B4078
:1024FC001C00BA68FB681100214339602B437B60D8
:10250C003C687D6822002B0010001900BD4609B004
:10251C00F0BDB0B586B000AF3861796138697969C2
:10252C000122FFF751FFB860F96038697969082218
:10253C00FFF74AFF02000B001100B86808400400C6
:10254C00FA681A401500386979690222FFF73CFFD6
:10255C0002000B002100514039602900594079607C
:10256C003A687B6810001900BD4606B0B0BDF0B5E6
:10257C008BB000AF78623962BA61FB617B6A1A6812
:10258C005B6810001900FFF7C4FF3B6A1A685B68B0
:10259C00060056403E61594079613B6A39697A6957
:1025AC0019605A603B6A1A685B68B9695140B96036
:1025BC00F9695940F9603B6AB968FA6819605A6060
:1025CC003B6A1A685B6810001900FFF7A2FF7B6A70
:1025DC001A685B68060056403E60594079607B6A19
:1025EC0039687A6819605A607B6A1A685B68396C5A
:1025FC0051400C00796C59400D007B6A1C605D6089
:10260C00C046BD460BB0F0BDF0B5F9B000AFDE264C
:10261C0076000823F318DB191860DC20400008232F
:10262C00C318DB1919601300DB21490008228A1832
:10263C00D219138004225242D317E02464000825D7
:10264C006419E419226063600823CB18DB191B881A
:10265C00802B00D084E20823F318DB191A6844237A
:10266C001370154A154BE821490008240919C9199A
:10267C000A604B600823C318DB191B689A68DB6877
:10268C0008217118C91909688A60CB600823C3181E
:10269C00DB191B681A685B6808217118C91909686D
:1026AC000A614B6102220023E42149000820091829
:1026BC00C9190A604B600FE1F50E2C1985F8697386
:1026CC00E82676000823F318DB191A6801231A4050
:1026DC00CC2040000823C318DB191A60EA214900FA
:1026EC000823CB18DB191A6800231A40CE235B0091
:1026FC0008215B18DB191A60E0235B0008229B1889
:10270C00DB191B6808228218D2191168526808005C
:10271C005840C82464000823E318DB191860E2232E
:10272C005B0008201B18DB191B685A40CA235B008E
:10273C0008215B18DB191A60E42040000823C31839
:10274C00DB191868596802225242D31712184B41F0
:10275C00DE21490008200918CD192968531CDB001B
:10276C00CB181A685B6808216118CC19206861685D
:10277C0006005640C424640008256519ED192E6026
:10278C005940C62252000823D318DA191160E420EC
:10279C0040000823C318DA1910685168012252420C
:1027AC00D31712184B41DE21490008200918CD1906
:1027BC002968531CDB00CB18186859680322FFF7F3
:1027CC0055FE02000B0008216118CC1920686168C5
:1027DC0006005640C024640008256519ED192E60CA
:1027EC005940C22252000823D318DA191160E42090
:1027FC0040000823C318DA191068516801225242AC
:10280C00D31712184B41DE21490008200918CD19A5
:10281C002968531CDB00CB18186859680422FFF791
:10282C0025FE02000B0008216118CC192068616894
:10283C0006005640BC24640008256519ED192E606D
:10284C005940BE256D000823EB18DD192960DE23E5
:10285C005B0008229B18DB191A68E420400008234F
:10286C00C318DB191B680133DB00D31822000821C5
:10287C005218D2191168526819605A60EA2149003D
:10288C000823CB18DB191B68DA07E8267600082327
:10289C00F318DB191B685B083B603B6813433B6018
:1028AC000823CB18DB191B685B087B600823F31823
:1028BC00DB1939687A6819605A6006000823C31856
:1028CC00DB19186859680122002312184B410821A2
:1028DC007118C9190A604B60E62252000823D318FC
:1028EC00DB191B68002B0FD10823D318DB191B68CD
:1028FC00002B00D0E4E6E4235B0008229B18DB19D4
:10290C001B68412B00D8DBE6DE256D000823EB1895
:10291C00DB191A6882239B00D3181A685B68E021C4
:10292C00490008200918C81901685140B8246400EE
:10293C0008202018C0190160E226760008217118C1
:10294C00C81901685940BA235B0008229B18DB198F
:10295C001960DC235B00FB181D600823EB18DB19E6
:10296C001A6884239B00D318186859680322FFF750
:10297C007DFD02000B0008216118C8194168006830
:10298C0004005440B426760008257619F6193460F4
:10299C005940B6235B0008229B18DB191960DC2315
:1029AC005B00FB181D68DC235B00FB181D60082313
:1029BC00EB18DB191A6884239B00D3181868596824
:1029CC000422FFF753FD02000B00B4267600082109
:1029DC007118C8194168006804005440B02676008C
:1029EC0008257619F61934605940B2235B00082289
:1029FC009B18DB1919600123B022520008215218D0
:102A0C00D2191168526808005840AC24640008239D
:102A1C00E318DB19186000235A40AE235B00082131
:102A2C005B18DB191A60DC235B00FB181D6808239C
:102A3C00EB18DB191A6886239B00D3180822A218FE
:102A4C00D2191168526819605A600823EB18DB1907
:102A5C001A6884239B00D3181A685B68E02149002C
:102A6C0008200918C91909685140A82464000820D5
:102A7C002018C0190160E226760008217118C919C6
:102A8C0009685940AA235B0008229B18DB191960BE
:102A9C00DC235B00FB181D600823EB18DB191A689C
:102AAC0086239B00D318186859680322FFF7DEFCB5
:102ABC0002000B0008216118C91908684968040054
:102ACC005440A426760008257619F619346059402E
:102ADC00A6235B0008229B18DB191960DC235B0022
:102AEC00FB181D68DC235B00FB181D600823EB182A
:102AFC00DB191A6886239B00D318186859680422BE
:102B0C00FFF7B4FC02000B00A42676000821711814
:102B1C00C9190868496804005440A02676000825A5
:102B2C007619F61934605940A2235B0008229B18D1
:102B3C00DB191960DC235B00FB181D680823EB18FC
:102B4C00DB191A6888239B00D318A026760008226C
:102B5C00B218D2191168526819605A6000F0C0FEA0
:102B6C00DB235B0008229B18DB191B88C02B00D0D1
:102B7C0096E2DE2149000823CB18DB191A6845239D
:102B8C0013701D4A1D4BE820400008240019C01981
:102B9C0002604360DC2464000823E318DB191B6823
:102BAC001A695B69080008214118C91909688A600B
:102BBC00CB600823E318DB191B689A68DB680821D3
:102BCC004118C91909680A614B610823E318DB191C
:102BDC001B681A685B6808214118C91909688A6161
:102BEC00CB6103220023E421490008200918C919EC
:102BFC000A604B602FE1C046DB35A60712E52CFCC2
:102C0C00E8256D000823EB18DB191A6801231A401C
:102C1C009C2149000823CB18DB191A60EA246400B4
:102C2C000823E318DB191A6800231A409E235B0063
:102C3C0008201B18DB191A60E0235B0008229B1884
:102C4C00DB191B6808228A18D2191168526808000F
:102C5C00584098235B001C0008255B19DB19186091
:102C6C00E2235B0008201B18DB191B685A409A23CF
:102C7C005B0008215B18DB191A60E4256D00082342
:102C8C00EB18DB191868596803225242D317121833
:102C9C004B41DE26760008217118C9190968531CAE
:102CAC00DB00CB181A685B68210008200918C919C9
:102CBC0008684968386079603C6854409421490040
:102CCC0008200918C81904607968594096235B00DC
:102CDC0008229B18DB191960DC235B00FB181D60B4
:102CEC000823EB18DB191868596801225242D317D4
:102CFC0012184B4108217118C8190168531CDB00CC
:102D0C00CB18186859680322FFF7B0FB02000B00C0
:102D1C009421490008200918C91908684968040059
:102D2C0054409026760008257619F61934605940DF
:102D3C00922252000823D318DA191160DC235B00AD
:102D4C00FB181D680823EB18DA191068516801226A
:102D5C005242D31712184B41DE2676000821711807
:102D6C00C9190968531CDB00CB1818685968042270
:102D7C00FFF77CFB3860796090235B0008229B187E
:102D8C00DB191868596804003B685C408C225200BF
:102D9C000823D318DB191C607B6859408E235B0019
:102DAC0008229B18DB1919600823F318DB191A6821
:102DBC0028000823C318DB191B680133DB00D31868
:102DCC008C22520008215218D219116852681960CD
:102DDC005A60EA2464000823E318DB191B68DA073D
:102DEC00E8256D000823EB18DB191B685B08D42160
:102DFC00490008268E19F61933600823CB18DB1905
:102E0C001B6813430A0008215118C9190B600823C9
:102E1C00E318DB191B685B08D62149000824091943
:102E2C00C9190B600823D318DB195C681B680822CE
:102E3C00AA18D2191360546004000823C318DB19B4
:102E4C00186859680122002312184B410821611897
:102E5C00C9190A604B60E62252000823D318DB190B
:102E6C001B68002B0FD10823D318DB191B68002B10
:102E7C0000D0C5E6E4235B0008229B18DB191B6815
:102E8C00422B00D8BCE6DE2040000823C318DB1917
:102E9C001A6882239B00D3181A685B68E0214900EA
:102EAC0008240919CC19216851408824640008258C
:102EBC006519ED192960E226760008217118CD19E3
:102ECC00296859408A235B0008229B18DB1919607A
:102EDC00DC235B00FB1818600823C318DB191A6885
:102EEC0086239B00D318186859680322FFF7BEFA93
:102EFC0002000B0008216118C81941680068040021
:102F0C0054408426760008257619F6193460594009
:102F1C0086235B0008229B18DB191960DC235B00FD
:102F2C00FB181D680823EB18DB191A6886239B0015
:102F3C00D318186859680422FFF798FA02000B009E
:102F4C008420400008214118C81941680068040019
:102F5C00544084267600BE193460594086235B00A9
:102F6C00FB1819600823EB18DB191A6888239B00DF
:102F7C00D31884225200BA181168526819605A602A
:102F8C000823EB18DB191A6884239B00D3181A68E2
:102F9C005B68E021490008200918C91909685140EB
:102FAC00F82408202018C0190160E22676000821B8
:102FBC007118C91909685940FC2308229B18DB19A0
:102FCC001960DC235B00FB181D600823EB18DB1970
:102FDC001A6888239B00D318186859680322FFF7D6
:102FEC0045FA02000B0008216118C91908684968E4
:102FFC0004005440F02608257619F619346059401F
:10300C00F42308229B18DB191960DC235B00FB18E6
:10301C001D680823EB18DB191A6888239B00D3184A
:10302C00186859680422FFF721FA02000B00F026F9
:10303C0008217118C9190868496804005440E82629
:10304C0008257519ED192C605940EC2308229B18A2
:10305C00DB19196001230822B218D21911685268C1
:10306C0008005840E0240823E318DB1918600023FB
:10307C005A40E42308215B18DB191A60DE256D0029
:10308C000823EB18DB191A688A239B00D318082233
:10309C00A218D2191168526819605A6000F020FC0D
:1030AC00DE2149000823CB18DB191A68482313705A
:1030BC00224A234BE820400008240019C019026062
:1030CC004360DC2464000823E318DB191B689A694D
:1030DC00DB69080008214118C91909688A60CB60AE
:1030EC000823E318DB191B681A695B69082141186E
:1030FC00C91909680A614B610823E318DB191B68BD
:10310C009A68DB6808214118C91909688A61CB6182
:10311C000823E318DB191B681A685B68082141183F
:10312C00C91909680A624B6204220023E421490090
:10313C0008200918C9190A604B607FE18B676D0480
:10314C003A4CC9FDE8256D000823EB18DB191A6809
:10315C0001231A40D8210823CB18DB191A60EA2462
:10316C0064000823E318DB191A6800231A40DC23D7
:10317C0008201B18DB191A60E0235B0008229B183F
:10318C00DB191B6808228A18D219116852680800CA
:10319C005840D0231C0008255B19DB191860E2236A
:1031AC005B0008201B18DB191B685A40D42308212C
:1031BC005B18DB191A60E4256D000823EB18DB198A
:1031CC001868596804225242D31712184B41DE2654
:1031DC00760008217118C9190968531CDB00CB183B
:1031EC001A685B68210008200918C9190868496821
:1031FC00386079603C685440C82108200918C81907
:10320C00046079685940CC2308229B18DB1919609B
:10321C00DC235B00FB181D600823EB18DB19186816
:10322C00596801225242D31712184B4108217118C8
:10323C00C8190168531CDB00CB18186859680322A5
:10324C00FFF714F902000B00C82108200918C9194E
:10325C000868496804005440C02608257619F619F8
:10326C0034605940C42308229B18DB191960DC23F5
:10327C005B00FB181D680823EB18DB1918685968EC
:10328C0003225242D31712184B41DE267600082136
:10329C007118C8190168531CDB00CB181A685B68DD
:1032AC00C02108200918C919086849683860796074
:1032BC003C685440B82108200918C8190460796882
:1032CC005940BC2308229B18DB191960DC235B00D6
:1032DC00FB181D600823EB18DB19186859680122CC
:1032EC005242D31712184B4108217118C8190168A2
:1032FC00531CDB00CB18186859680422FFF7B6F88A
:10330C0002000B00B82108200918C919086849687F
:10331C0004005440B02608257619F619346059403B
:10332C00B4220823D318DA191160DC235B00FB18D4
:10333C001D680823EB18DA191068516803225242F1
:10334C00D31712184B41DE26760008217118C919C3
:10335C000968531CDB00CB18186859680122FFF769
:10336C0085F838607960B02308229B18DB1918683F
:10337C00596804003B685C40A8220823D318DB1969
:10338C001C607B685940AC2308229B18DB19196020
:10339C000823F318DB191A6828000823C318DB1953
:1033AC001B680133DB00D318A82208215218D2194C
:1033BC001168526819605A60EA2464000823E31803
:1033CC00DB191B68DA07E8256D000823EB18DB19FD
:1033DC001B685B08D021490008268E19F61933604A
:1033EC000823CB18DB191B6813430A00082151185A
:1033FC00C9190B600823E318DB191B685B08D22181
:10340C00490008240919C9190B600823D318DB19C2
:10341C005C681B680822AA18D21913605460040057
:10342C000823C318DB1918685968012200231218E5
:10343C004B4108216118C9190A604B60E622520001
:10344C000823D318DB191B68002B0FD10823D318C2
:10345C00DB191B68002B00D074E6E4235B00082208
:10346C009B18DB191B68432B00D86BE6DE20400051
:10347C000823C318DB191A6882239B00D3181A6817
:10348C005B68E021490008240919CC1921685140D6
:10349C00A02408256519ED192960E226760008217B
:1034AC007118CD1929685940A42308229B18DB19DF
:1034BC0019600500DC235B00FB181D600823EB186A
:1034CC00DB191A6888239B00D318186859680322E3
:1034DC00FEF7CCFF02000B0008216118C8194168E7
:1034EC00006804005440982608257619F6193460B3
:1034FC0059409C2308229B18DB191960DC235B00C4
:10350C00FB181D68DC235B00FB181D600823EB18FF
:10351C00DB191A6884239B00D3181A685B689826F9
:10352C0008217118C819416800680400544090269D
:10353C0008257619F61934605940942308229B18F3
:10354C00DB191960DC235B00FB181D68DC235B00B6
:10355C00FB181D600823EB18DB191A6888239B00E5
:10356C00D318186859680422FEF780FF02000B007C
:10357C00902608217118C81941680068040054404D
:10358C00882608257619F619346059408C230822B0
:10359C009B18DB191960DC235B00FB181D68DC230E
:1035AC005B00FB181D600823EB18DB191A688423D9
:1035BC009B00D318186859680122FEF757FF0200C8
:1035CC000B00882608217118C8194168006804008E
:1035DC005440802608257619F61934605940842306
:1035EC0008229B18DB191960DC235B00FB18186898
:1035FC000823C318DB191A688A239B00D31880226E
:10360C0008215218D2191168526819605A6008239F
:10361C00C318DB191A6884239B00D3181A685B68DB
:10362C00E021490008240919CC1921685140802453
:10363C003C192160E226760008217118CC1921680A
:10364C0059408423FB18196005000823EB18DB197B
:10365C001A688A239B00D318186859680322FEF74E
:10366C0005FF02000B0080217918086849680400E6
:10367C005440BC675940F9670823EB18DB191A68EA
:10368C0086239B00D3181A685B68B86FF96F040027
:10369C0054403C67594079670823EB18DB191A68CA
:1036AC008A239B00D318186859680422FEF7DEFEA3
:1036BC0002000B00386F796F04005440BC6659400F
:1036CC00F9660823EB18DB191A6886239B00D318BC
:1036DC00186859680122FEF7C9FE02000B00B86E8B
:1036EC00F96E040054403C66594079660123396EEA
:1036FC007A6E08005840B86500235A40FA652800D5
:10370C000823C318DB191A688C239B00D318B96DD6
:10371C00FA6D19605A600823C318DB191A688623DE
:10372C009B00D3181A685B68E0214900082409192A
:10373C00CC1921685140396508217118CC192168C0
:10374C005940796505000823EB18DB191A688C239E
:10375C009B00D318186859680322FEF787FE0200F5
:10376C000B00386D796D04005440BC645940F96409
:10377C000823EB18DB191A6888239B00D3181A68E6
:10378C005B68B86CF96C040054403C645940796433
:10379C000823EB18DB191A688C239B00D3181868C4
:1037AC0059680422FEF762FE02000B00386C796C3B
:1037BC0004005440BC635940F9630823EB18DB192F
:1037CC001A6888239B00D318186859680122FEF7E1
:1037DC004DFE02000B00B86BF96B040054403C63C7
:1037EC005940796328000823C318DB191A688E2303
:1037FC009B00D318396B7A6B19605A600823C31875
:10380C00DB191A6888239B00D3181A685B68E021BF
:10381C00490008240919C91909685140B9620821DD
:10382C007118C91909685940F96205000823EB1889
:10383C00DB191A688E239B00D31818685968032269
:10384C00FEF714FE02000B00B86AF96A040054403B
:10385C003C62594079620823EB18DB191A688A23F9
:10386C009B00D3181A685B68386A796A0400544064
:10387C00BC615940F9610823EB18DB191A688E23D7
:10388C009B00D318186859680422FEF7EFFD02005C
:10389C000B00B869F969040054403C6159407961E6
:1038AC000823EB18DB191A688A239B00D3181868B5
:1038BC0059680122FEF7DAFD02000B0038697969BC
:1038CC0004005440BC605940F9600823EB18DB1924
:1038DC001A6890239B00D318B968FA6819605A606B
:1038EC00C046BD4679B0F0BDF0B5DE4657464E46F3
:1038FC004546E0B597B002AFF862B9627A62BB6A2E
:10390C001A685B68BA63FB63BB6A9A68DB683A63E4
:10391C007B63FB6A1B78452B00D0B5E02F23082274
:10392C009B18082294460822904608229146B944D6
:10393C00C844C444634400221A7066E02F2608244D
:10394C003319082294460822904608229146B9441D
:10395C00C844C44463441B78FA6A0133DB00D318AF
:10396C001868596833190822944608229046082290
:10397C009146B944C844C44463441B780133FA6A81
:10398C000133DB00D3181A685B683A607B60102641
:10399C00B4460825A8460825A94608239A460823B4
:1039AC009B46BB44DA44D144C844C4441826351958
:1039BC0008260823F61808239846B8444644AE193E
:1039CC003A687B680092019302000B00614630005C
:1039DC00FEF7CDFD2F262200B31808218C460821B6
:1039EC00884608218946B944C844C4446344B21883
:1039FC0008218C460821884608218946B944C844C8
:103A0C00C4446244127802321A702F2308229B1885
:103A1C00082294460822904608229146B944C8448C
:103A2C00C44463441B78432B88D9BA6BFB6B1000DE
:103A3C001900FEF76EFD3A6B7B6B06005640BE61BB
:103A4C005940F961BA69FB693A637B63FA6A8A2364
:103A5C009B00D318186859683A6B7B6B060056406C
:103A6C003E61594079613B697C693B637C63BA6B0D
:103A7C00FB6B3A647B643A6B7B6BBA63FB633A6CAB
:103A8C007B6C3A637B6386E02F2308229B18082209
:103A9C0094460822904608229146B944C844C4442E
:103AAC00634400221A7064E02F260825731908223B
:103ABC0094460822904608229146B944C844C4440E
:103ACC0063441B78FA6A0133DB00D3181868596811
:103ADC007319082294460822904608229146B9444C
:103AEC00C844C44463441B780133FA6A0133DB00D5
:103AFC00D3185C681B68BB60FC6010246419A44676
:103B0C00082398460823994608239A46BA44D14478
:103B1C00C844C444182464190823984608239946B9
:103B2C0008239A46BA44D144C8444444BA68FB6852
:103B3C000092019302000B0061462000FEF717FD76
:103B4C007319082294460822904608229146B944DB
:103B5C00C844C4446344721908218C460821884621
:103B6C0008218946B944C844C444624412780232DC
:103B7C001A70FB6A1B782F220821521808218C46D8
:103B8C000821884608218946B944C844C444624483
:103B9C0012789A4288D3BA6BFB6B796A0A604B60D5
:103BAC007B6A083319003A6B7B6B0A604B60C0462A
:103BBC00BD4615B0F0BCBB46B246A946A046F0BD0A
:103BCC00F0B5CE46474680B5FD4CA54400AFBC25AC
:103BDC000823EB1808229446BC4463441860B820B0
:103BEC000823C31808229446BC4463441960082374
:103BFC00EB1808229446BC4463441B681B68BA2229
:103C0C009200121808218C4608218846B844C444F6
:103C1C00624413600023BB229200121808218C46C8
:103C2C0008218846B844C444624413600823EB1846
:103C3C0008229446BC4463441B685B68B821890025
:103C4C00796006000A1808218C4608218846B84479
:103C5C00C444624413600023B920800034008219EC
:103C6C0008218C4608218846B844C4446244136039
:103C7C000823EB1808229446BC4463441B689B68D9
:103C8C00B626B600321908218C4608218846B8445D
:103C9C00C444624413600023B72292001219082115
:103CAC008C4608218846B844C444624413600823F7
:103CBC00EB1808229446BC4463441B68DB68B422AE
:103CCC009200121908218C4608218846B844C44435
:103CDC00624413600023B5229200121908218C460D
:103CEC0008218846B844C444624413600823EB1886
:103CFC0008229446BC4463441B681B6CB22292009D
:103D0C00121908218C4608218846B844C4446244E0
:103D1C0013600023B3229200121908218C4608214B
:103D2C008846B844C444624413600823EB18082244
:103D3C009446BC4463441B685B6CB022920012191D
:103D4C0008218C4608218846B844C4446244136058
:103D5C000023B1229200121908218C4608218846B2
:103D6C00B844C444624413600823EB1808229446F8
:103D7C00BC4463441B689B6CAE2292001219082150
:103D8C008C4608218846B844C4446244136000231E
:103D9C00AF229200121908218C4608218846B8449B
:103DAC00C444624413600823EB1808229446BC44B4
:103DBC0063441B68DB6CAC229200121908218C4600
:103DCC0008218846B844C444624413600023AD22E1
:103DDC009200121908218C4608218846B844C44424
:103DEC00624413600823EB1808229446BC446344D5
:103DFC001B681B6DAA229200121908218C460821FF
:103E0C008846B844C444624413600023AB22920039
:103E1C00121908218C4608218846B844C4446244CF
:103E2C0013600823EB1808229446BC4463441B68B7
:103E3C005B6DA8229200121908218C460821884635
:103E4C00B844C444624413600023A922920012199E
:103E5C0008218C4608218846B844C4446244136047
:103E6C000823EB1808229446BC4463441B689B6DE2
:103E7C00A6229200121908218C4608218846B844C3
:103E8C00C444624413600023A72292001219082133
:103E9C008C4608218846B844C44462441360082305
:103EAC00EB180822BA189A181368DB6DA42292003A
:103EBC0012190825AC4608218846B844C44462440B
:103ECC0013600023A522920012190825AC46082184
:103EDC008846B844C44462441360BA22920023005A
:103EEC001D00D418082308229B18DB19E3181B6843
:103EFC001B00FB600023BB6079682A008B1808212B
:103F0C0008240919C91959180B68B9680B43B0244E
:103F1C00082161180825AC46BC4461440B60831829
:103F2C00082108200918C91959180B68F9680B439E
:103F3C00B4210820091808208446BC4461440B6055
:103F4C00204BBC208000191815000823EB18082200
:103F5C009446BC446344CB180822A21808218C4612
:103F6C00BC4462441168526819605A607319082283
:103F7C0008215218D21999180B681900AC23082281
:103F8C009B1808229446BC44634419600023A8245F
:103F9C000822A21808218C46BC4462441360B42247
:103FAC0092005319082208215218D21999180B683B
:103FBC000822A21808218C46BC44624404E0C04686
:103FCC0044FCFFFF28FDFFFF116852680C001C43E6
:103FDC00A0260823F3183B6008239C46BC443B688E
:103FEC0063441C60B5239B002C001B190825AC46B0
:103FFC000825A846B844C44463441B681A43A42348
:10400C0008215B1808218C46BC4463441A60964B0B
:10401C001B18B82294460822904608229146B944AF
:10402C00C844C44463440822B21808218C46BC44DA
:10403C006244116852689960DA600823E318082218
:10404C009446BC4463441A6880235B009A4200D1B6
:10405C00E9E10823E31808229446BC4463441A6837
:10406C0080235B009A4200DDD8E20823E318082283
:10407C009446BC4463441B68802B0AD00823E31885
:10408C0008229446BC4463441B68C02B00D1EFE06B
:10409C00C4E2B2239B00B8241B19082294460822C0
:1040AC009046B844C44463441B681B009C220821FE
:1040BC00521808218C46BC44624413600023982299
:1040CC000821511808208446BC4461440B60B0237D
:1040DC009B001B1908218C4608218846B844C4440F
:1040EC0063441B680821521808218C46BC44624466
:1040FC00116852680800184390250823EB1808260D
:10410C00B446BC4463441860B1239B001B190820BF
:10411C00844608208046B844C44463441B681A4350
:10412C00942308215B1808218C46BC4463441A6014
:10413C004E4BBC2080001B18B82294460822904697
:10414C0008229146B944C844C44463440822AA18BE
:10415C0008218C46BC4462441168526819605A604C
:10416C00AE239B001B190822944608229046B844A3
:10417C00C44463441B681B008C220821521808217C
:10418C008C46BC44624413600023882208215118D9
:10419C000825AC46BC4461440B60AC239B00250055
:1041AC001B1908218C4608218846B844C444634432
:1041BC001B680821521808218C46BC4462441168C3
:1041CC0052680C001C4380260823F3183B6008231C
:1041DC009C46BC443B6863441C60AD239B002C0094
:1041EC001B190825AC460825A846B844C4446344AA
:1041FC001B681A43842308215B1808218C46BC4495
:10420C0063441A60194B1B18B82294460822904636
:10421C0008229146B944C844C44463440822B218E5
:10422C0008218C46BC446244116852689960DA607B
:10423C000E4B1B180822A21808218C46BC44624461
:10424C009918002200230A614B61084B1B180822A5
:10425C00A21808218C46BC44624499180022002301
:10426C008A61CB61DBE1C04628FDFFFF38FDFFFF13
:10427C00B2239B00B8241B190822944608229046AE
:10428C00B844C44463441B681B00842208215218A0
:10429C00D21913600023802208215218D2191360FE
:1042AC00B0239B001B190822944608229046B84460
:1042BC00C44463441B68802208215218D219116827
:1042CC005268080018438023FB181860B1239B0028
:1042DC001B190820844608208046B844C444634413
:1042EC001B681A438423FB181A60CB4BBC2080003C
:1042FC001B18B82294460822904608229146B944CD
:10430C00C844C44463448022BA18116852681960C6
:10431C005A60AE239B001B19082294460822904633
:10432C00B844C44463441B681B00FB670023BB6791
:10433C00AC239B0025001B190822944608229046AA
:10434C00B844C44463441B68B96FFA6F0C001C4337
:10435C003C67AD239B002C001B190825AC46082597
:10436C00A846B844C44463441B681A437A67AA4BF2
:10437C001B18B82294460822904608229146B9444C
:10438C00C844C4446344396F7A6F9960DA60AA23D5
:10439C009B001B190822944608229046B844C4443A
:1043AC0063441B681B00FB660023BB66A8239B00B1
:1043BC0025001B190822944608229046B844C44490
:1043CC0063441B68B96EFA6E0C001C433C66A9234F
:1043DC009B002C001B190825AC460825A846B844A0
:1043EC00C44463441B681A437A668B4B1B18B8226F
:1043FC0094460822904608229146B944C844C444C5
:10440C006344396E7A6E19615A61834B1B1808220A
:10441C00A21808218C46BC4462449918002200233F
:10442C008A61CB61FBE0B2239B00B8241B190822E4
:10443C00944608229046B844C44463441B681B004D
:10444C00FB650023BB65B0239B001B190822944617
:10445C0008229046B844C44463441B68B96DFA6D95
:10446C00080018433865B1239B001B1908208446AB
:10447C0008208046B844C44463441B681A437A65D8
:10448C00654BBC2080001B18B8229446082290462D
:10449C0008229146B944C844C4446344396D7A6DCA
:1044AC0019605A60AE239B001B19082294460822FF
:1044BC009046B844C44463441B681B00FB6400234F
:1044CC00BB64AC239B0025001B19082294460822D0
:1044DC009046B844C44463441B68B96CFA6C0C0035
:1044EC001C433C64AD239B002C001B190825AC46D7
:1044FC000825A846B844C44463441B681A437A642C
:10450C00454B1B18B8229446082290460822914627
:10451C00B944C844C4446344396C7A6C9960DA6019
:10452C00AA239B001B190822944608229046B844E3
:10453C00C44463441B681B00FB630023BB63A823B8
:10454C009B0025001B190822944608229046B8446B
:10455C00C44463441B68B96BFA6B0C001C433C638A
:10456C00A9239B002C001B190825AC460825A8463E
:10457C00B844C44463441B681A437A63264B1B1823
:10458C00B82294460822904608229146B944C84461
:10459C00C4446344396B7A6B19615A61A6239B003E
:1045AC001B190822944608229046B844C44463441C
:1045BC001B681B00FB620023BB62A4239B0025002D
:1045CC001B190822944608229046B844C4446344FC
:1045DC001B68B96AFA6A0C001C433C62A5239B0059
:1045EC005B190824A4460824A046B844C444634478
:1045FC001B681A437A62084B1B18B822944608228F
:10460C00904608229146B944C844C4446344396A6C
:10461C007A6A9961DA6102E038FDFFFFC046B82181
:10462C000823CB1808229446BC4463441B689AB2F6
:10463C0028230D005B19082108200918C9195918DD
:10464C00482463190820844608208046B844C44492
:10465C0063441800FDF7D8FF082328001B18082214
:10466C0008215218D2199A1818231B18082108254A
:10467C004919C9195918231808208446082080465E
:10468C00B844C44463441800FFF72EF9364BBC21E0
:10469C0089005B18B822944608229046082291465D
:1046AC00B944C844C44463441A685B681B00BB61CA
:1046BC000023FB61BA69BC200823C3180824A44654
:1046CC00BC4463441B681A62274B5B18B82294469F
:1046DC000822904608229146B944C844C444634415
:1046EC001A685B680823C3180824A446BC446344B6
:1046FC001B685A621C4B5B18B822944608229046E1
:10470C0008229146B944C844C44463449A68DB689F
:10471C001B003B6100237B613A690823C318082402
:10472C00A446BC4463441B689A620F4B5B18B822C6
:10473C0094460822904608229146B944C844C44481
:10474C0063449A68DB680823C31808218C46BC4470
:10475C0063441B68DA62C046BD46EF239B009D4450
:10476C00C0BCB946B046F0BD18FDFFFFF0B589B02E
:10477C0000AFB861F9617A61BA69FB69796920396E
:10478C00002903DB10008840F8600CE079692020D8
:10479C00411A1000C840010078691E008640FE6076
:1047AC00F8680843F860796910008840B860796946
:1047BC0049423F2001402039002903DB1800C84042
:1047CC0004000FE0796949423F2001402020411A42
:1047DC0018008840796949423F2631401600CE4086
:1047EC0034000443796949423F200140CB401D000D
:1047FC00BA68FB681100214339602B437B603C682D
:10480C007D6822002B0010001900BD4609B0F0BDD8
:10481C00F0B589B000AFB861F9617A61BA69FB692A
:10482C0079692039002903DB1800C840B8600CE016
:10483C0079692020411A1800884001007869160017
:10484C00C640BE60B8680843B86079691800C840B3
:10485C00F860796949423F2001402039002903DB87
:10486C001000884005000FE0796949423F20014063
:10487C002020411A1000C840796949423F26314036
:10488C001E008E4035000543796949423F200140A6
:10489C0013008B401C00BA68FB681100214339607F
:1048AC002B437B603C687D6822002B0010001900B4
:1048BC00BD4609B0F0BDF0B587B000AF7861396185
:1048CC00BA60FB607B69186859680822FFF7A0FF83
:1048DC0002000B0079690A604B607B6918685968A3
:1048EC003B691A685B6812184B4179690A604B6026
:1048FC007B691A685B68B96851403960F96859403E
:10490C0079607B6939687A6819605A603B69186804
:10491C0059680322FFF72AFF02000B0039690A606D
:10492C004B603B69186859687B691A685B680600BC
:10493C005640340059400D003B691C605D60C04618
:10494C00BD4607B0F0BDB0B58EB000AFF860B96031
:10495C00BB1D1A80BB1D1B88802B36D1FB68202207
:10496C001A70BB689A68DB68BA62FB62BB681A682B
:10497C005B683A627B62002200233A637B6318E037
:10498C00BA6AFB6AF868396B0131C90041180A60D0
:10499C004B603A6B7B6B2821791820203818FFF775
:1049AC008AFF3A6B7B6B0120002112184B413A6352
:1049BC007B637B6B002B00D0DEE07B6B002BDFD1AD
:1049CC003B6B1F2B00D9D7E0DAE7BB1D1B88C02B34
:1049DC005AD1FB6821221A70BB681A695B69BA62EA
:1049EC00FB62BB689A68DB683A627B62BB681A68D8
:1049FC005B68BA61FB61002200233A637B6331E0A0
:104A0C00BA6AFB6AF868396B0131C90041180A604F
:104A1C004B603A6B7B6B2825791920203818FFF7EF
:104A2C004AFF3A6B7B6B0120002180185941BA6A0E
:104A3C00FB6AFC68411CC90061180A604B603A6B48
:104A4C007B6B0120002112184B4179191820381862
:104A5C00FFF731FF3A6B7B6B0220002112184B41A0
:104A6C003A637B637B6B002B05D17B6B002BC7D12F
:104A7C003B6B1F2BC4D9BA6AFB6AF86884214900C6
:104A8C0041180A604B6077E0FB6822221A70BB6801
:104A9C009A69DB69BA62FB62BB681A695B693A6244
:104AAC007B62BB689A68DB68BA61FB61BB681A6899
:104ABC005B683A617B61002200233A637B634AE0C6
:104ACC00BA6AFB6AF868396B0131C90041180A608F
:104ADC004B603A6B7B6B2825791920203818FFF72F
:104AEC00EAFE3A6B7B6B0120002180185941BA6AAF
:104AFC00FB6AFC68411CC90061180A604B603A6B88
:104B0C007B6B0120002112184B41791918203818A1
:104B1C00FFF7D1FE3A6B7B6B0220002180185941C4
:104B2C00BA6AFB6AFC68411CC90061180A604B60D8
:104B3C003A6B7B6B0220002112184B417919102023
:104B4C003818FFF7B8FE3A6B7B6B03200021121864
:104B5C004B413A637B637B6B002B05D17B6B002B4A
:104B6C00AED13B6B202BABD9BA6AFB6AF8688821B3
:104B7C00490041180A604B60C046BD460EB0B0BD3E
:104B8C0090B58BB000AFF860B9607A60BB681A68FA
:104B9C005B68BA61FB61BB689A68DB683A617B61F0
:104BAC002723FB1800221A7013E027243B191B78CB
:104BBC00FA680133DB00D3181A685B681021791886
:104BCC0018203818FFF777FE3B191A783B19013279
:104BDC001A70FB681B782722BA1812789A42E4D311
:104BEC00BA69FB6979680A604B607B680833190005
:104BFC003A697B690A604B60C046BD460BB090BDFC
:104C0C00F0B5CE46474680B5FD4CA54400AFBC255B
:104C1C000823EB1808229446BC4463441860B8205F
:104C2C000823C31808229446BC4463441960082323
:104C3C00EB1808229446BC4463441B681B68DC22B6
:104C4C005200121808218C4608218846B844C444E6
:104C5C00624413600023DE225200121808218C4695
:104C6C0008218846B844C444624413600823EB18F6
:104C7C0008229446BC4463441B685B68D8214900F5
:104C8C00796006000A1808218C4608218846B84429
:104C9C00C444624413600023DA20400034008219BB
:104CAC0008218C4608218846B844C44462441360E9
:104CBC000823EB1808229446BC4463441B689B6889
:104CCC00D4267600321908218C4608218846B8442F
:104CDC00C444624413600023D622520012190821E6
:104CEC008C4608218846B844C444624413600823A7
:104CFC00EB1808229446BC4463441B68DB68D02242
:104D0C005200121908218C4608218846B844C44424
:104D1C00624413600023D2225200121908218C46DF
:104D2C0008218846B844C444624413600823EB1835
:104D3C0008229446BC4463441B681B6CCC22520072
:104D4C00121908218C4608218846B844C444624490
:104D5C0013600023CE225200121908218C46082120
:104D6C008846B844C444624413600823EB180822F4
:104D7C009446BC4463441B685B6CC82252001219F5
:104D8C0008218C4608218846B844C4446244136008
:104D9C000023CA225200121908218C460821884689
:104DAC00B844C444624413600823EB1808229446A8
:104DBC00BC4463441B689B6CC4225200121908212A
:104DCC008C4608218846B844C444624413600023CE
:104DDC00C6225200121908218C4608218846B84474
:104DEC00C444624413600823EB1808229446BC4464
:104DFC0063441B68DB6CC0225200121908218C46DC
:104E0C0008218846B844C444624413600023C2227B
:104E1C005200121908218C4608218846B844C44413
:104E2C00624413600823EB1808229446BC44634484
:104E3C001B681B6DBC225200121908218C460821DC
:104E4C008846B844C444624413600023BE22520016
:104E5C00121908218C4608218846B844C44462447F
:104E6C0013600823EB1808229446BC4463441B6867
:104E7C005B6DB8225200121908218C460821884615
:104E8C00B844C444624413600023BA22520012197D
:104E9C0008218C4608218846B844C44462441360F7
:104EAC000823EB1808229446BC4463441B689B6D92
:104EBC00B4225200121908218C4608218846B844A5
:104ECC00C444624413600023B62252001219082114
:104EDC008C4608218846B844C444624413600823B5
:104EEC00EB180822BA189A181368DB6DB02252001E
:104EFC0012190825AC4608218846B844C4446244BB
:104F0C0013600023B222520012190825AC46082166
:104F1C008846B844C44462441360DC225200230027
:104F2C001D00D418082308229B18DB19E3181B68F2
:104F3C001B00FB600023BB6079682A008B180821DA
:104F4C0008240919C91959180B68B9680B43B024FE
:104F5C00082161180825AC46BC4461440B608318D9
:104F6C00082108200918C91959180B68F9680B434E
:104F7C00B4210820091808208446BC4461440B6005
:104F8C00204BE0204000191815000823EB180822CC
:104F9C009446BC446344CB180822A21808218C46C2
:104FAC00BC4462441168526819605A607319082233
:104FBC0008215218D21999180B681900AC23082231
:104FCC009B1808229446BC44634419600023A8240F
:104FDC000822A21808218C46BC4462441360D022DB
:104FEC0052005319082208215218D21999180B682B
:104FFC000822A21808218C46BC44624404E0C04636
:10500C0074FDFFFF58FEFFFF116852680C001C4333
:10501C00A0260823F3183B6008239C46BC443B683D
:10502C0063441C60D2235B002C001B190825AC4682
:10503C000825A846B844C44463441B681A43A423F7
:10504C0008215B1808218C46BC4463441A60964BBB
:10505C001B18B82294460822904608229146B9445F
:10506C00C844C44463440822B21808218C46BC448A
:10507C006244116852689960DA600823E3180822C8
:10508C009446BC4463441A6880235B009A4200D166
:10509C00E9E10823E31808229446BC4463441A68E7
:1050AC0080235B009A4200DDD8E20823E318082233
:1050BC009446BC4463441B68802B0AD00823E31835
:1050CC0008229446BC4463441B68C02B00D1EFE01B
:1050DC00C4E2CC235B00B8241B1908229446082296
:1050EC009046B844C44463441B681B009C220821AE
:1050FC00521808218C46BC44624413600023982249
:10510C000821511808208446BC4461440B60C82314
:10511C005B001B1908218C4608218846B844C444FE
:10512C0063441B680821521808218C46BC44624415
:10513C00116852680800184390250823EB180826BC
:10514C00B446BC4463441860CA235B001B19082096
:10515C00844608208046B844C44463441B681A4300
:10516C00942308215B1808218C46BC4463441A60C4
:10517C004E4BE02040001B18B82294460822904663
:10518C0008229146B944C844C44463440822AA186E
:10519C0008218C46BC4462441168526819605A60FC
:1051AC00C4235B001B190822944608229046B8447D
:1051BC00C44463441B681B008C220821521808212C
:1051CC008C46BC4462441360002388220821511889
:1051DC000825AC46BC4461440B60C0235B00250031
:1051EC001B1908218C4608218846B844C4446344E2
:1051FC001B680821521808218C46BC446244116873
:10520C0052680C001C4380260823F3183B600823CB
:10521C009C46BC443B6863441C60C2235B002C006E
:10522C001B190825AC460825A846B844C444634459
:10523C001B681A43842308215B1808218C46BC4444
:10524C0063441A60194B1B18B822944608229046E6
:10525C0008229146B944C844C44463440822B21895
:10526C0008218C46BC446244116852689960DA602B
:10527C000E4B1B180822A21808218C46BC44624411
:10528C009918002200230A614B61084B1B18082255
:10529C00A21808218C46BC446244991800220023B1
:1052AC008A61CB61DBE1C04658FEFFFF68FEFFFF61
:1052BC00CC235B00B8241B19082294460822904684
:1052CC00B844C44463441B681B0084220821521850
:1052DC00D21913600023802208215218D2191360AE
:1052EC00C8235B001B190822944608229046B84438
:1052FC00C44463441B68802208215218D2191168D7
:10530C005268080018438023FB181860CA235B00FE
:10531C001B190820844608208046B844C4446344C2
:10532C001B681A438423FB181A60CB4BE020400007
:10533C001B18B82294460822904608229146B9447C
:10534C00C844C44463448022BA1811685268196076
:10535C005A60C4235B001B1908229446082290460D
:10536C00B844C44463441B681B00FB670023BB6741
:10537C00C0235B0025001B19082294460822904686
:10538C00B844C44463441B68B96FFA6F0C001C43E7
:10539C003C67C2235B002C001B190825AC46082572
:1053AC00A846B844C44463441B681A437A67AA4BA2
:1053BC001B18B82294460822904608229146B944FC
:1053CC00C844C4446344396F7A6F9960DA60BC2373
:1053DC005B001B190822944608229046B844C4442A
:1053EC0063441B681B00FB660023BB66B8235B0091
:1053FC0025001B190822944608229046B844C44440
:10540C0063441B68B96EFA6E0C001C433C66BA23ED
:10541C005B002C001B190825AC460825A846B8448F
:10542C00C44463441B681A437A668B4B1B18B8221E
:10543C0094460822904608229146B944C844C44474
:10544C006344396E7A6E19615A61834B1B180822BA
:10545C00A21808218C46BC446244991800220023EF
:10546C008A61CB61FBE0CC235B00B8241B190822BA
:10547C00944608229046B844C44463441B681B00FD
:10548C00FB650023BB65C8235B001B1908229446EF
:10549C0008229046B844C44463441B68B96DFA6D45
:1054AC00080018433865CA235B001B190820844682
:1054BC0008208046B844C44463441B681A437A6588
:1054CC00654BE02040001B18B822944608229046F9
:1054DC0008229146B944C844C4446344396D7A6D7A
:1054EC0019605A60C4235B001B19082294460822D9
:1054FC009046B844C44463441B681B00FB640023FF
:10550C00BB64C0235B0025001B19082294460822AB
:10551C009046B844C44463441B68B96CFA6C0C00E4
:10552C001C433C64C2235B002C001B190825AC46B1
:10553C000825A846B844C44463441B681A437A64DB
:10554C00454B1B18B82294460822904608229146D7
:10555C00B944C844C4446344396C7A6C9960DA60C9
:10556C00BC235B001B190822944608229046B844C1
:10557C00C44463441B681B00FB630023BB63B82358
:10558C005B0025001B190822944608229046B8445B
:10559C00C44463441B68B96BFA6B0C001C433C633A
:1055AC00BA235B002C001B190825AC460825A8461D
:1055BC00B844C44463441B681A437A63264B1B18D3
:1055CC00B82294460822904608229146B944C84411
:1055DC00C4446344396B7A6B19615A61B4235B0020
:1055EC001B190822944608229046B844C4446344CC
:1055FC001B681B00FB620023BB62B0235B00250011
:10560C001B190822944608229046B844C4446344AB
:10561C001B68B96AFA6A0C001C433C62B2235B003B
:10562C005B190824A4460824A046B844C444634427
:10563C001B681A437A62084B1B18B822944608223E
:10564C00904608229146B944C844C4446344396A1C
:10565C007A6A9961DA6102E068FEFFFFC046B82100
:10566C000823CB1808229446BC4463441B689AB2A6
:10567C0028230D005B19082108200918C91959188D
:10568C00482463190820844608208046B844C44442
:10569C0063441800FFF757F9082328001B18082249
:1056AC0008215218D2199A1818231B1808210825FA
:1056BC004919C9195918231808208446082080460E
:1056CC00B844C44463441800FFF75AFA364BE0213F
:1056DC0049005B18B822944608229046082291464D
:1056EC00B944C844C44463441A685B681B00BB617A
:1056FC000023FB61BA69BC200823C3180824A44604
:10570C00BC4463441B681A62274B5B18B82294464E
:10571C000822904608229146B944C844C4446344C4
:10572C001A685B680823C3180824A446BC44634465
:10573C001B685A621C4B5B18B82294460822904690
:10574C0008229146B944C844C44463449A68DB684F
:10575C001B003B6100237B613A690823C3180824B2
:10576C00A446BC4463441B689A620F4B5B18B82276
:10577C0094460822904608229146B944C844C44431
:10578C0063449A68DB680823C31808218C46BC4420
:10579C0063441B68DA62C046BD46A3239B009D444C
:1057AC00C0BCB946B046F0BD48FEFFFF90B58BB00B
:1057BC0000AF78602E4B5A692D4B802189020A4329
:1057CC005A612B4B5A6980239B0213403B613B6906
:1057DC00274B5A69264B802189020A435A61244B74
:1057EC005A6980239B021340FB60FB68204B9A692B
:1057FC001F4B8021C9010A439A611D4B9A69802372
:10580C00DB011340BB60BB6814217B188022920023
:10581C001A600C003B1902225A603B1901229A6053
:10582C003B190322DA603B1901221A613A199023C1
:10583C00DB05110018000AF0E9FB21007B1880221F
:10584C00D2001A607B1801221A617A189023DB05AA
:10585C00110018000AF0DAFB012200211B2006F0CF
:10586C0093FD1B2006F0A5FDC046BD460BB090BDB8
:10587C000010024080B582B000AF7860104BDA683F
:10588C000F4B8021C9010A43DA600D4BDA680C4BCF
:10589C000C490A40DA6080239A009023DB05110042
:1058AC0018000AF02BFD8023DA009023DB05110091
:1058BC0018000AF023FDC046BD4602B080BDC046AC
:1058CC0000100240FFBFFFFF80B582B000AF7860D0
:1058DC00002006F007FBC046BD4602B080BD0000AC
:1058EC0080B582B000AF78600A00FB1C1A70FB1CFC
:1058FC001B78122B00D980E09A00424BD3181B68FE
:10590C009F467B6880211800FCF7CEFA76E07B6816
:10591C00C0211800FCF7C8FA70E080235A007B689D
:10592C0011001800FCF7C0FA68E07B6880211800B1
:10593C0005F09CFC62E07B68C021180005F096FC29
:10594C005CE080235A007B681100180005F08EFC87
:10595C0054E07B688021180001F0E2FD4EE07B688A
:10596C008021180001F061FB48E07B688021180061
:10597C00FEF726F942E07B68C0211800FEF720F9FB
:10598C003CE080235A007B6811001800FEF718F9E0
:10599C0034E07B6880211800FFF732F92EE07B6839
:1059AC00C0211800FFF72CF928E080235A007B68EF
:1059BC0011001800FFF724F920E07B688021180003
:1059CC00FBF750FA1AE07B685021180001F0FAF846
:1059DC0014E07B688021180001F0F4F80EE07B687D
:1059EC0080211800FAF79AFE08E080235A007B68A1
:1059FC0011001800FBF728F800E0C046C046BD4671
:105A0C0002B080BD3840010884B0B0B584B000AF9E
:105A1C0020257C1920606160A260E360642329006A
:105A2C005B18DB191A787B1811001800FFF758FF68
:105A3C000023FB6002E0FB680133FB60FB68032B77
:105A4C00F9DD20217B181A697B181B6A5A407B18D8
:105A5C001A637B185A697B185B6A5A407B185A6325
:105A6C008823FB181B68042B0ED17B189A697B18B2
:105A7C009B6A5A407B189A637B18DA697B18DB6A3D
:105A8C005A407B18DA6306E020217B1800229A63C7
:105A9C007B180022DA630023BB6002E0BB68013391
:105AAC00BB60BB68032BF9DD642320215B18DB1979
:105ABC001A780C007B1811001800FFF711FF210059
:105ACC007B181A6B7B181B6A5A407B181A627B185E
