:020000040810E2
:1000000000800410590610086D0710087B071008BF
:1000100081071008870710088D07100800000000EE
:10002000000000000000000000000000930710081E
:10003000A107100800000000AF071008BD07100856
:10004000A9061008A9061008A9061008A906100894
:10005000A9061008A9061008A9061008A906100884
:10006000A9061008A9061008A9061008A906100874
:10007000A9061008A9061008A9061008A906100864
:10008000A9061008A9061008A9061008A906100854
:10009000A9061008A9061008A9061008A906100844
:1000A000A9061008A9061008A9061008A906100834
:1000B000A9061008A9061008A9061008A906100824
:1000C000A9061008A9061008A9061008A906100814
:1000D000A9061008A9061008A9061008A906100804
:1000E000A9061008A906100800000000A9061008BB
:1000F000A9061008A9061008A9061008A9061008E4
:10010000A9061008A9061008A9061008A9061008D3
:10011000A9061008A9061008A9061008A9061008C3
:10012000A9061008A9061008A9061008A9061008B3
:10013000A9061008A9061008A9061008A9061008A3
:10014000A9061008A9061008000000000000000021
:10015000A9061008A9061008A9061008A906100883
:10016000A9061008A9061008A9061008A906100873
:10017000A9061008A9061008A9061008000000002A
:10018000A9061008A9061008A9061008A906100853
:10019000A9061008A9061008A9061008A906100843
:1001A000A9061008A9061008A9061008A906100833
:1001B000A9061008A9061008A9061008A906100823
:1001C000A9061008A9061008A9061008A906100813
:1001D000A9061008A9061008A9061008A906100803
:1001E000A9061008A9061008A9061008A9061008F3
:1001F000A9061008A9061008A9061008A9061008E3
:10020000A9061008A9061008A9061008A9061008D2
:10021000A9061008A9061008A9061008A9061008C2
:10022000A9061008A9061008A90610080000000079
:10023000A9061008A9061008A9061008A9061008A2
:10024000A9061008A9061008A9061008A906100892
:10025000A9061008A9061008A9061008A906100882
:10026000A9061008A9061008A9061008A906100872
:10027000A9061008A9061008A9061008A906100862
:10028000A9061008A9061008A90610080000000019
:08029000A9061008A9061008D8
:1002980010B5054C237833B9044B13B10448AFF3B8
:1002A80000800123237010BD98000010000000009A
:1002B800E8A2120808B5034B1BB103490348AFF382
:1002C800008008BD000000009C000010E8A2120891
:1002D800154B002B08BF134B9D46A3F5803A002110
:1002E8008B460F461348144A121A29F0F1FF0F4B98
:1002F800002B00D098470E4B002B00D098470020C9
:10030800002104000D000D48002802D00C48AFF36E
:10031800008029F0B9FF2000290000F0C3F929F076
:100328009FFF00BF00000800000000000000000060
:100338000000000098000010740100100000000088
:100348000000000008A51208000000109800001026
:10035800980000107401001053B94AB9002908BF69
:1003680000281CBF4FF0FF314FF0FF3000F06EB98E
:10037800ADF1080C6DE904CE00F006F8DDF804E0F4
:10038800DDE9022304B070472DE9F047089D0446D3
:100398008C46002B40F083808A42174647D9B2FA30
:1003A80082F242B1C2F1200024FA00F09140974055
:1003B80040EA010C94404FEA1748230CBCFBF8F6BE
:1003C8001FFA87FE08FB16C143EA014306FB0EF13C
:1003D800994209D9FB1806F1FF3080F0198199423A
:1003E80040F21681023E3B445B1AA4B2B3FBF8F01C
:1003F80008FB103344EA034400FB0EFEA64509D966
:100408003C1900F1FF3380F00581A64540F20281D6
:1004180002383C4440EA0640A4EB0E0400261DB115
:10042800D4400023C5E900433146BDE8F08702B94E
:10043800FFDEB2FA82F2002A50D1CB1B4FEA174EE8
:100448001FFA87F80126B3FBFEFC210C0EFB1C33B8
:1004580041EA034108FB0CF38B4207D979180CF1E8
:10046800FF3002D28B4200F2E9808446C91AA3B257
:10047800B1FBFEF00EFB101143EA014408FB00F843
:10048800A04507D93C1900F1FF3302D2A04500F27C
:10049800D9801846A4EB080440EA0C40BFE78B4219
:1004A80009D9002D00F0B1800026C5E900013046C9
:1004B8003146BDE8F087B3FA83F6002E4AD18B4265
:1004C80002D3824200F2B880841A61EB0301012052
:1004D8008C46002DA8D0C5E9004CA5E7C2F1200341
:1004E80020FA03F6974001FA02F04FEA174ED94076
:1004F8003043030CB1FBFEF61FFA87F80EFB16110A
:1005080043EA014306FB08F1994204FA02F409D9C7
:10051800FB1806F1FF3C80F08D80994240F28A80FA
:10052800023E3B445B1A81B2B3FBFEF00EFB103374
:1005380041EA034100FB08F38B4207D9791800F11F
:10054800FF3C73D28B4271D902383944CB1A40EA46
:10055800064678E7C6F1200C03FA06F422FA0CF3F3
:100568001C4320FA0CF701FA06F34FEA144E21FA5D
:100578000CF11F433B0CB1FBFEF91FFA84F80EFB8C
:10058800191143EA014109FB08FA8A4502FA06F201
:1005980000FA06F308D9611809F1FF3048D28A45F4
:1005A80046D9A9F102092144A1EB0A01BFB2B1FB66
:1005B800FEF00EFB101147EA014700FB08F8B845AA
:1005C80007D9E71900F1FF312ED2B8452CD90238E6
:1005D800274440EA0940A7EB0807A0FB02894F45DA
:1005E800C64649461AD317D05DB1B3EB0E0267EB86
:1005F800010707FA0CFCF2404CEA0202F740C5E991
:10060800002700263146BDE8F0872E4628460BE72E
:100618000646E9E61846FDE64345E5D2B8EB020E84
:1006280069EB04010138DFE70846D2E760468DE749
:100638008146B9E7664675E730464AE7ACF1020CF1
:10064800394413E702383C4424E700BF704700BF31
:10065800DFF834D0002103E00C4B5B5843500431E1
:100668000B480C4B42189A42F6D30B4A02E000237F
:1006780042F8043B094B9A42F9D300F029FD29F0CE
:1006880003FE00F00FF870470080041008A5120858
:10069800000000109800001098000010740100106D
:1006A800FEE7000080B582B000AF244BD3F8E030FD
:1006B800224A43F00073C2F8E030204BD3F8E03010
:1006C80003F000737B607B6801200EF015FE14F0C8
:1006D800C1FB01220221002014F042FB184B1B68C9
:1006E8001B0903F00F03072B08D1164BD3F804316D
:1006F800144A43F00103C2F8043107E0114BD3F860
:100708001431104A43F00103C2F8143106F09AF884
:10071800022000F05FF8012000F05CF8022000F0F1
:1007280007F94FF4FA7006F0EDF9022000F02AF903
:100738004FF4FA7006F0E6F9F0E700BF00440258FB
:1007480000ED00E00064025880B400AF00BFBD4671
:100758005DF8047B704780B400AF00BFBD465DF80C
:10076800047B704780B400AF00BFBD465DF8047BD2
:10077800704780B400AFFEE780B400AFFEE780B4F6
:1007880000AFFEE780B400AFFEE780B400AF00BF63
:10079800BD465DF8047B704780B400AF00BFBD461E
:1007A8005DF8047B704780B400AF00BFBD465DF8BC
:1007B800047B704780B500AF06F044F900BF80BDE8
:1007C80080B400AF024B1846BD465DF8047B704705
:1007D8000000030180B58CB000AF0346FB71002315
:1007E800FB62FB79002B09D0FB79012B06D0FB7942
:1007F800022B03D06FF00103FB6255E0FB79002B5D
:100808000FD12C4BD3F8E0302A4A43F00203C2F848
:10081800E030284BD3F8E03003F002037B617B69BA
:1008280021E0FB79012B0FD1224BD3F8E030214A8C
:1008380043F01003C2F8E0301E4BD3F8E03003F069
:1008480010033B613B690EE01A4BD3F8E030194ABC
:1008580043F00203C2F8E030164BD3F8E03003F05F
:100868000203FB60FB68FB79134A32F81330BB6163
:100878000123FB6100233B6203237B62FB790F4A60
:1008880052F8233007F11802114618460EF040F9C5
:10089800FB790A4A52F82300FB79074A32F81330E9
:1008A800002219460EF006FCFB6A18463037BD4692
:1008B80080BD00BF0044025804A3120808000010BD
:1008C80080B588B000AF0346FB710023FB61FB795C
:1008D800002B09D0FB79012B06D0FB79022B03D022
:1008E8006FF00103FB6119E0FB790F4A52F823000E
:1008F800FB790E4A32F81330002219460EF0DAFB63
:10090800FB790A4A32F81330BB60FB79064A52F881
:100918002330BA68114618460EF0AAFAFB69184641
:100928002037BD4680BD00BF0800001004A3120890
:1009380080B584B000AF0346FB710023FB60FB79F0
:10094800002B09D0FB79012B06D0FB79022B03D0B1
:100958006FF00103FB600BE0FB79084A52F82300B3
:10096800FB79074A32F81330012219460EF0A2FB30
:10097800FB6818461037BD4680BD00BF0800001050
:1009880004A3120880B584B000AF0346FB710023AE
:10099800FB60FB79002B09D0FB79012B06D0FB7992
:1009A800022B03D06FF00103FB600BE0FB79084AD0
:1009B80052F82300FB79074A32F81330002219460F
:1009C8000EF078FBFB6818461037BD4680BD00BFA7
:1009D8000800001004A3120880B584B000AF0346D5
:1009E800FB710023FB60FB79002B09D0FB79012BFD
:1009F80006D0FB79022B03D06FF00103FB600BE0FC
:100A0800FB79084A52F82320FB79074931F813305B
:100A1800194610460EF067FBFB6818461037BD46AE
:100A280080BD00BF0800001004A3120880B584B080
:100A380000AF0346FB71FB79002B09D0FB79012B32
:100A480006D0FB79022B03D06FF00103FB600DE0A9
:100A5800FB79094A52F82320FB79084931F8133009
:100A6800194610460EF00EFB0346FB60FB6818465D
:100A78001037BD4680BD00BF0800001004A312084F
:100A880080B588B000AF03460A46FB711346BB71B8
:100A98002D4BD3F8E0302C4A43F00403C2F8E03081
:100AA800294BD3F8E03003F00403BB60BB684FF474
:100AB8000053FB6002237B610223BB61BB79002BDF
:100AC8000CD100233B61FB79204A52F8233007F10F
:100AD8000C02114618460EF01BF830E01C4B3B6127
:100AE800FB791A4A52F8233007F10C0211461846CE
:100AF8000EF00EF8FB79DB00164A1A44FB7916490A
:100B080051F82330194610460CF059FAFB79DB00EE
:100B1800104A9818FB79114A52F823301A460021D6
:100B28000CF02EFA2820FB790D4A52F823300022C7
:100B3800194606F01AFF2823184606F030FF00234E
:100B480018462037BD4680BD0044025814000010E6
:100B580000001111BC00001014A3120818000010A6
:100B68001C00001080B588B000AF0346FB714FF43D
:100B78000053FB602823184606F01FFFFB79064A3E
:100B880052F82330FA68114618460EF071F900231E
:100B980018462037BD4680BD1400001080B582B0CD
:100BA80000AF0346FB71FB79064A52F823304FF435
:100BB8000052114618460EF065FA034618460837E3
:100BC800BD4680BD1400001080B582B000AF03465A
:100BD800FB71FB79DB00044A134418460CF003FA56
:100BE80000BF0837BD4680BDBC00001080B483B08C
:100BF80000AF0346FB7100BF0C37BD465DF8047BB0
:100C08007047000080B584B000AF03463960FB71BF
:100C18000023FB60FB79002B03D06FF00103FB601E
:100C28001AE0FA791346DB0013441B010D4A1344FA
:100C3800184600F091F8FA791346DB0013441B01BB
:100C4800084A13443968184600F04CF80346002B4C
:100C580002D06FF00303FB60FB6818461037BD46EF
:100C680080BD00BFC400001080B584B000AF03464B
:100C7800FB710023FB60FB79002B03D06FF00103AD
:100C8800FB6025E0FB79FA79144951F823101448E0
:100C98001346DB0013441B0103441960FA79134619
:100CA800DB0013441B010E4A1344184600F0ACF84D
:100CB800FA791346DB0013441B01094A134418460A
:100CC8001BF0BEFF0346002B02D06FF00303FB604E
:100CD800FB6818461037BD4680BD00BF04000010F1
:100CE800C400001080B582B000AF78603960154B41
:100CF8001A687B681A603B681A687B685A607B6868
:100D08000C225A613B685B891A467B681A613B680A
:100D18005A687B689A603B681B891A467B68DA6068
:100D28003B689B891A467B689A617B684FF400424E
:100D3800DA6178681BF000FE034618460837BD469E
:100D480080BD00BF0400001080B500AF0020FFF791
:100D58004DFF00BF80BD000080B58AB000AF78604D
:100D6800274BD3F8E030264A43F00803C2F8E030B6
:100D7800234BD3F8E03003F008033B613B69204B79
:100D8800D3F8E0301E4A43F00803C2F8E0301C4BA9
:100D9800D3F8E03003F00803FB60FB68184BD3F886
:100DA800E830174A43F48023C2F8E830144BD3F8EC
:100DB800E83003F48023BB60BB684FF480737B6129
:100DC8000223BB6102233B620123FB6107237B6291
:100DD80007F1140319460B480DF09AFE4FF40073FF
:100DE8007B610223BB6107237B6207F11403194669
:100DF80004480DF08DFE00BF2837BD4680BD00BFFA
:100E080000440258000C025880B588B000AF7860E2
:100E18004FF48073FB60FB6819460B480EF028F806
:100E28004FF40073FB60FB68194607480EF020F882
:100E3800064BD3F8E830054A23F48023C2F8E8309B
:100E480000BF2037BD4680BD000C02580044025840
:100E580080B400AF00BFBD465DF8047B704780B426
:100E680000AF01231846BD465DF8047B704780B586
:100E780082B000AF7860396029F0ECF90346162299
:100E88001A604FF0FF3318460837BD4680BD80B55D
:100E980082B000AF78604FF0FF317868FFF7E7FF66
:100EA800FEE780B586B000AFF860B9607A600023CD
:100EB8007B610AE0AFF300800146BB685A1CBA6048
:100EC800CAB21A707B6901337B617A697B689A427E
:100ED800F0DB7B6818461837BD4680BD80B586B004
:100EE80000AFF860B9607A6000237B6109E0BB68F5
:100EF8005A1CBA601B781846AFF300807B6901332F
:100F08007B617A697B689A42F1DB7B6818461837FF
:100F1800BD4680BD80B483B000AF78604FF0FF332A
:100F280018460C37BD465DF8047B704780B483B023
:100F380000AF786039603B684FF400525A60002374
:100F480018460C37BD465DF8047B704780B483B003
:100F580000AF7860012318460C37BD465DF8047B66
:100F6800704780B485B000AFF860B9607A6000233C
:100F780018461437BD465DF8047B70470EB480B43C
:100F880082B000AF78604FF0FF3318460837BD468F
:100F98005DF8047B03B0704780B582B000AF78601D
:100FA80029F058F903460A221A604FF0FF33184611
:100FB8000837BD4680BD80B582B000AF786029F0A3
:100FC80049F9034602221A604FF0FF3318460837E2
:100FD800BD4680BD80B483B000AF78604FF0FF336A
:100FE80018460C37BD465DF8047B704780B483B063
:100FF80000AF786039603B684FF400525A600023B4
:1010080018460C37BD465DF8047B704780B582B042
:1010180000AF7860396029F01DF903461F221A6075
:101028004FF0FF3318460837BD4680BD80B500AF86
:1010380029F010F903460B221A604FF0FF331846C7
:1010480080BD80B584B000AFF860B9607A6029F0DF
:1010580001F903460C221A604FF0FF331846103787
:10106800BD4680BD80B586B000AF7860144A154B88
:10107800D31A7B617B693B61134B1B68002B02D140
:10108800114B124A1A60104B1A687B6813443A696C
:101098009A4207D229F0DEF803460C221A604FF074
:1010A800FF3309E0084B1B68FB60074B1A687B6835
:1010B8001344054A1360FB6818461837BD4680BDBF
:1010C8000080041000040000B8000010780100102F
:1010D80080B400AF0B4BD3F888300A4A43F470034E
:1010E800C2F88830074B1B69064A43F010031361A6
:1010F800044B4FF001629A6000BFBD465DF8047B67
:10110800704700BF00ED00E080B48BB000AFA84B83
:101118001B6903F03803182B00F2228101A252F850
:1011280023F000BF91111008691310086913100803
:101138006913100869131008691310086913100857
:1011480069131008A511100869131008691310080D
:101158006913100869131008691310086913100837
:1011680069131008AB1110086913100869131008E7
:101178006913100869131008691310086913100817
:1011880069131008B1111008894B1B68DB0803F0BC
:101198000303884A22FA03F37B62E4E0864B7B620E
:1011A800E1E0864B7B62DEE0814B9B6A03F0030340
:1011B800FB617F4B9B6A1B0903F03F03BB617C4BC0
:1011C800DB6A03F001037B61794B5B6BDB08C3F3DC
:1011D8000C037A6902FB03F307EE903AF8EE677A9C
:1011E800C7ED047ABB69002B00F0B780FB69022BBE
:1011F80059D0FB69022B78D8FB69002B03D0FB6917
:10120800012B2ED071E06A4B1B68DB0803F0030347
:10121800684A22FA03F3FB60FB6807EE903AF8EE9F
:10122800676ABB6907EE903AF8EE677A86EEA77AA6
:101238005F4B1B6BC3F3080307EE903AF8EE676A3F
:1012480097ED046ADFED5E5AC6EE257A76EEA77A48
:10125800F7EE006A77EEA67A67EE277AC7ED087A86
:1012680065E0BB6907EE903AF8EE677ADFED556AFC
:1012780086EEA77A4E4B1B6BC3F3080307EE903A32
:10128800F8EE676A97ED046ADFED4D5AC6EE257AE7
:1012980076EEA77AF7EE006A77EEA67A67EE277AF7
:1012A800C7ED087A43E0BB6907EE903AF8EE677A33
:1012B800DFED456A86EEA77A3D4B1B6BC3F3080347
:1012C80007EE903AF8EE676A97ED046ADFED3C5A4C
:1012D800C6EE257A76EEA77AF7EE006A77EEA67A5A
:1012E80067EE277AC7ED087A21E0BB6907EE903AE6
:1012F800F8EE677ADFED336A86EEA77A2C4B1B6B24
:10130800C3F3080307EE903AF8EE676A97ED046AAC
:10131800DFED2B5AC6EE257A76EEA77AF7EE006A4D
:1013280077EEA67A67EE277AC7ED087A00BF204BDA
:101338001B6B5B0A03F07F030133BB60BB6807EEDE
:10134800903AB8EE677AD7ED086AC6EE877AFCEE6F
:10135800E77A17EE903A7B6205E000237B6202E0B1
:10136800154B7B6200BF124B9B691B0A03F00F03EE
:10137800164AD35C7B607A6A7B6822FA03F37B6245
:101388000B4B9B6903F00F03104AD35C03F01F0358
:101398007A6A22FA03F30E4A13600D4B1B680D4A52
:1013A800136000BF2C37BD465DF8047B704700BF53
:1013B800004402580090D00300093D0000127A0052
:1013C800000000460024744A0024F44A18A31208B6
:1013D800280000102400001080B483B000AF7860AB
:1013E80039607B689B6823F47C123B681A437B68EE
:1013F8009A6000BF0C37BD465DF8047B704780B427
:1014080083B000AF786039607B689B6823F0E07236
:101418003B681A437B689A6000BF0C37BD465DF88D
:10142800047B704780B483B000AF78607B689B68AA
:1014380003F0E07318460C37BD465DF8047B70472F
:1014480080B487B000AFF860B9607A603B60FB6831
:1014580060331A46BB689B0013447B617B691B6839
:1014680003F000427B6803F0F8413B680B431A43E2
:101478007B691A6000BF1C37BD465DF8047B704766
:1014880080B485B000AFF860B9607A60FB681B690A
:1014980023F4F042BB6803F01F03796801FA03F3F1
:1014A8001A43FB681A6100BF1437BD465DF8047B18
:1014B800704780B487B000AFF860B9607A60FB68A5
:1014C80060331A46BB689B0013447B617B691B68C9
:1014D80023F000427B681A437B691A6000BF1C37FF
:1014E800BD465DF8047B704780B483B000AF786078
:1014F8007B68DB6803F44063002B01D1012300E023
:10150800002318460C37BD465DF8047B704780B44D
:1015180087B000AFF860B9607A60FB6830331A466C
:10152800BB681B0A9B0003F00C0313447B617B69B7
:101538001A68BB6803F01F031F2101FA03F3DB439A
:101548001A407B689B0E03F01F01BB6803F01F0362
:1015580001FA03F31A437B691A6000BF1C37BD46C2
:101568005DF8047B704780B483B000AF7860396061
:101578007B68DB6823F003023B681A437B68DA6008
:1015880000BF0C37BD465DF8047B704780B483B05C
:1015980000AF78607B68DB6C03F4C073002B01D16B
:1015A800012300E0002318460C37BD465DF8047B94
:1015B800704780B487B000AFF860B9607A60FB68A4
:1015C80014331A46BB685B0E9B0003F004031344F4
:1015D8007B617B691A68BB681B0D03F01F03072139
:1015E80001FA03F3DB431A40BB681B0D03F01F032A
:1015F800796801FA03F31A437B691A6000BF1C3744
:10160800BD465DF8047B704780B485B000AFF860D4
:10161800B9607A60FB68D3F8C020BB68C3F31303D2
:10162800DB431A407B6803F018030849D940BB68BC
:101638000B40C3F313031A43FB68C3F8C02000BF71
:101648001437BD465DF8047B704700BFFFFF0F00ED
:1016580080B487B000AFF860B9607A60FB680C337B
:101668001846BB681B0D03F00301BB6803F00102B9
:101678001346DB0013449B000B449B0003447B612F
:101688007B691A68BB6823F0024323F44013DB43E9
:101698001A407968BB680B401A437B691A6000BF1F
:1016A8001C37BD465DF8047B704780B483B000AF3B
:1016B80078607B689B6803F01F0318460C37BD46AB
:1016C8005DF8047B704780B483B000AF78607B68B6
:1016D8009B6803F4404318460C37BD465DF8047B0D
:1016E800704780B483B000AF78607B689B6823F054
:1016F800204323F03F037A68936000BF0C37BD4650
:101708005DF8047B704780B483B000AF78607B6875
:101718009B6803F00053B3F1005F01D1012300E09F
:10172800002318460C37BD465DF8047B704780B42B
:1017380083B000AF78607B689B6823F0104323F088
:101748003F0343F080527B689A6000BF0C37BD4668
:101758005DF8047B704780B483B000AF78607B6825
:101768009B6803F08053B3F1805F01D1012300E04F
:10177800002318460C37BD465DF8047B704780B4DB
:1017880083B000AF78607B689B6823F0004323F048
:101798003F0343F001027B689A6000BF0C37BD46E7
:1017A8005DF8047B704780B483B000AF78607B68D5
:1017B8009B6823F0004323F03F0343F002027B6859
:1017C8009A6000BF0C37BD465DF8047B704780B453
:1017D80083B000AF78607B689B6803F00103012B3E
:1017E80001D1012300E0002318460C37BD465DF8FF
:1017F800047B704780B483B000AF78607B689B68D7
:1018080003F00203022B01D1012300E00023184654
:101818000C37BD465DF8047B704780B483B000AFD9
:1018280078607B689B6823F0004323F03F0343F014
:1018380004027B689A6000BF0C37BD465DF8047BE4
:10184800704780B483B000AF78607B689B6823F0F2
:10185800004323F03F0343F010027B689A6000BF07
:101868000C37BD465DF8047B704780B483B000AF89
:1018780078607B689B6803F00403042B01D1012383
:1018880000E0002318460C37BD465DF8047B70471E
:1018980080B483B000AF78607B689B6823F0004316
:1018A80023F03F0343F020027B689A6000BF0C37A7
:1018B800BD465DF8047B704780B483B000AF7860A4
:1018C8007B689B6803F00803082B01D1012300E023
:1018D800002318460C37BD465DF8047B704780B47A
:1018E80083B000AF78607B6880221A6000BF0C3735
:1018F800BD465DF8047B704780B483B000AF786064
:101908007B684FF480721A6000BF0C37BD465DF8E3
:10191800047B704780B483B000AF78607B684FF475
:1019280000721A6000BF0C37BD465DF8047B704733
:1019380080B483B000AF78607B685B6843F0800256
:101948007B685A6000BF0C37BD465DF8047B704762
:1019580080B483B000AF78607B685B6843F48072C2
:101968007B685A6000BF0C37BD465DF8047B704742
:1019780080B483B000AF78607B685B6843F4007222
:101988007B685A6000BF0C37BD465DF8047B704722
:1019980080B483B000AF78607B685B6823F0800216
:1019A8007B685A6000BF0C37BD465DF8047B704702
:1019B80080B483B000AF78607B685B6823F4807282
:1019C8007B685A6000BF0C37BD465DF8047B7047E2
:1019D80080B483B000AF78607B685B6823F40072E2
:1019E8007B685A6000BF0C37BD465DF8047B7047C2
:1019F80090B589B000AF78600023FB770023BB6007
:101A08007B68002B01D101238EE17B68DB68002B0A
:101A18007B685B6D002B09D1786800F005FB7B685B
:101A280000229A657B68002283F850207B681B6837
:101A38001846FFF768FE0346002B04D07B681B6836
:101A48001846FFF74EFE7B681B681846FFF783FEB3
:101A58000346002B14D17B681B681846FFF767FE06
:101A68009B4B1B689B099B4AA2FB03239B090133E1
:101A7800BB6002E0BB68013BBB60BB68002BF9D1CF
:101A88007B681B681846FFF766FE0346002B0DD1DE
:101A98007B685B6D43F010027B685A657B689B6DC1
:101AA80043F001027B689A650123FB777B681B681A
:101AB8001846FFF7DAFE78617B685B6D03F0100368
:101AC800002B40F028817B69002B40F024817B6843
:101AD8005B6D23F4817343F002027B685A657B686F
:101AE8001B681846FFF773FE0346002B36D17B6848
:101AF8001B68794A934204D07B681B68774A9342F3
:101B08000ED17548FFF763FE04467448FFF75FFE81
:101B180003462343002B0CBF01230023DBB208E05C
:101B28006F48FFF754FE0346002B0CBF0123002328
:101B3800DBB2002B12D07B681B68674A934204D043
:101B48007B681B68654A934201D1664A00E0664A91
:101B58007B685B6819461046FFF73EFC05F020F8E5
:101B6800034641F20302934214D97B689B68102B09
:101B780010D17B685B7D5A037B681B6B1A437B68BB
:101B88009B681A437B681B7F1B04134343F00C03B9
:101B9800BB610DE07B685B7D5A037B681B6B1A4356
:101BA8007B689B681A437B681B7F1B041343BB61DC
:101BB8007B681B7F012B06D17B681B6A013B5B049A
:101BC800BA691343BB617B685B6A002B09D07B68E9
:101BD8005B6A03F478727B689B6A1343BA691343A0
:101BE800BB617B681B68DA68404B13407A681268EF
:101BF800B9690B43D3607B681B681846FFF735FE4D
:101C080038617B681B681846FFF756FEF8603B6929
:101C1800002B4CD1FB68002B49D17B681B7D9A03B4
:101C28007B68DB6A1343BB617B681B68DB6823F452
:101C3800804323F003037A681268B9690B43D360C1
:101C48007B6893F83830012B1BD17B685B6A002BCB
:101C58007B681B681A69264B13407A68D26B013A75
:101C680011047A68126C11437A68526C11437A68CD
:101C7800926C0A431A437B681B6842F001021A619E
:101C880007E07B681B681A697B681B6822F0010201
:101C98001A617B681B681B6923F070417B685A6B6B
:101CA8007B681B680A431A61786802F047FA7B6808
:101CB800DB68012B1ED17B681B681B6B23F00F01AF
:101CC8007B689B695A1E7B681B680A431A6319E084
:101CD80024000010632D3E05002002400021024030
:101CE80000600258002302400063025803C0F0FF5E
:101CF8001EF800FC7B681B681A6B7B681B6822F067
:101D08000F021A637B685B6D23F0030343F0010243
:101D18007B685A6507E07B685B6D43F010027B685F
:101D28005A650123FB77FB7F18462437BD4690BDD3
:101D380090B585B000AF78607B68002B01D1012396
:101D48005CE17B685B6D43F002027B685A650321A6
:101D5800786801F0B9FF0346FB737B681B68DA6893
:101D68007B681B6842F40012DA60FB7B002B0AD107
:101D7800786802F0EFF80346FB73FB7B002B02D177
:101D88007B6801225A657B681B685B687A68126801
:101D980023F4FF6323F0070353607B681B6840F25A
:101DA800FF721A607B681B689A687B681B6822F060
:101DB800A0429A607B681B689A687B681B6842F03F
:101DC80000529A607B681B68DA687B681B6802F0BF
:101DD8008022DA607B681B68DA687B681B6842F0DF
:101DE8000042DA607B681B6819697B681A68854B52
:101DF8000B4013617B681B685A697B681B6802F09B
:101E080040425A617B681B689A697B681B6802F0CC
:101E180078429A617B681B681A6A7B681B6802F0C3
:101E28007C421A627B681B685A6A7B681B6802F0EE
:101E38007C425A627B681B68D3F8B0207B681B68B9
:101E480002F07C42C3F8B0207B681B68D3F8B4204A
:101E58007B681B6802F07C42C3F8B4207B681B686F
:101E6800D3F8B8207B681B6802F07C42C3F8B8201E
:101E78007B681B68D3F8BC207B681B6802F07C4237
:101E8800C3F8BC207B681B68196B7B681A685E4BBB
:101E98000B4013637B681B68596B7B681A685B4B44
:101EA8000B4053637B681B68996B7B681A68574BB8
:101EB8000B4093637B681B68DB6B7A68126823F4BA
:101EC800FB6323F00703D3637B681B681B6E7B6887
:101ED8001B6800221A667B681B685B6E7B681B6840
:101EE80000225A667B681B689B6E7B681B68002211
:101EF8009A667B681B68DB6E7B681B680022DA6663
:101F08007B681B68D3F8A0307A6812681B0D1B0524
:101F1800C2F8A0307B681B68D3F8A4307A681268CE
:101F28001B0D1B05C2F8A4307B681B68D3F8C030B2
:101F38007A6812681B0D1B05C2F8C0307B681B68E5
:101F4800D3F8C4207B681B6802F0F822C3F8C420C9
:101F58007B681B682E4A934204D07B681B682D4A15
:101F680093420ED12A48FFF732FC04462948FFF76E
:101F78002EFC03462343002B0CBF01230023DBB2B6
:101F880008E02548FFF723FC0346002B0CBF01237C
:101F98000023DBB2002B20D07B681B681C4A9342CD
:101FA80004D07B681B681B4A934201D11B4B00E09D
:101FB8001B4B99687B681B68154A934204D07B6861
:101FC8001B68144A934201D1144A00E0144A154B85
:101FD8000B409360786800F031F87B6800229A65BE
:101FE8007B680022DA657B6800221A667B6800221B
:101FF8005A657B68002283F85020FB7B184614370B
:10200800BD4690BD1CF800FC300882E0200882E044
:1020180000200240002102400060025800230240D4
:1020280000630258E03000FE80B483B000AF7860EF
:1020380000BF0C37BD465DF8047B704780B483B0A1
:1020480000AF786000BF0C37BD465DF8047B704771
:1020580080B586B000AF78607B681B685D4A9342A4
:1020680004D07B681B685C4A934201D15B4B00E05B
:102078005B4B1846FFF719FB38617B681B681846ED
:10208800FFF7F3FB0346002B40F09C807B6893F836
:102098005030012B01D1022397E07B68012283F89D
:1020A8005020786801F0CCFE0346FB75FB7D002BC1
:1020B80040F083807B685B6D23F4706323F0010339
:1020C80043F480727B685A657B681B68424A934276
:1020D80002D07B681B6800E03E4B7A681268934226
:1020E80002D03B69002B05D17B685B6D23F480121D
:1020F8007B685A657B685B6D03F48053B3F5805F3A
:1021080006D17B689B6D23F006027B689A6502E026
:102118007B6800229A657B681B681C221A607B68B2
:10212800002283F850207B681B682B4A934202D018
:102138007B681B6800E0274B7A681268934208D0D6
:102148003B69002B05D03B69052B02D03B69092B65
:1021580014D17B681B68DB6803F00073002B07D081
:102168007B685B6D23F4405343F480527B685A6567
:102178007B681B681846FFF750FB25E07B685B6DA2
:1021880043F480127B685A657B681B68124A934245
:1021980002D07B681B6800E00E4BFB60FB68DB68C5
:1021A80003F00073002B0FD07B685B6D23F4405362
:1021B80043F480527B685A6506E07B68002283F806
:1021C800502001E00223FB75FB7D18461837BD46F9
:1021D80080BD00BF002002400021024000230240D1
:1021E8000063025880B584B000AF78607B6893F8CC
:1021F8005030012B01D1022323E07B68012283F8B0
:1022080050200321786801F05FFD0346FB73FB7BD8
:10221800002B11D1786801F09DFE0346FB73FB7B10
:10222800002B09D17B685B6D23F4885323F00103ED
:1022380043F001027B685A657B68002283F85020CE
:10224800FB7B18461037BD4680BD000080B588B0BE
:1022580000AF786039607B681B68724A934204D08B
:102268007B681B68704A934201D1704B00E0704B49
:102278001846FFF71AFA78617B681B69082B02D1A8
:102288000823FB6137E07B69002B05D07B69052BB0
:1022980002D07B69092B11D17B681B68DB6803F0CE
:1022A8000103002B07D07B685B6D43F020027B683D
:1022B8005A650123B1E00423FB611CE07B681B68BD
:1022C800584A934204D07B681B68574A934201D10D
:1022D800564B00E0564B1846FFF7F5F90346002B1E
:1022E80007D07B685B6D43F020027B685A65012349
:1022F80093E00423FB6104F0B9FB386121E03B68FB
:10230800B3F1FF3F1DD004F0B1FB02463B69D31A7D
:102318003A689A4202D33B68002B12D17B681B684B
:102328001A68FB691340002B0BD17B685B6D43F087
:1023380004027B685A657B68002283F850200323D7
:102348006BE07B681B681A68FB691340002BD6D0CA
:102358007B685B6D43F400727B685A657B681B6819
:102368001846FFF7C1F80346002B1CD07B685B7D3D
:10237800002B18D17B681B681B6803F00803082B27
:1023880011D17B685B6D23F480727B685A657B682A
:102398005B6D03F48053002B05D17B685B6D43F0C4
:1023A80001027B685A657B681B681F4A934202D00A
:1023B8007B681B6800E01B4B7A681268934208D060
:1023C8007B69002B05D07B69052B02D07B69092B23
:1023D80004D17B681B68DB68BB610CE07B681B6809
:1023E800114A934202D07B681B6800E00D4BFB60EA
:1023F800FB68DB68BB61FB69082B04D17B681B6841
:1024080008221A6008E0BB6903F48043002B03D15B
:102418007B681B680C221A60002318462037BD46CB
:1024280080BD00BF0020024000210240002302407E
:102438000063025880B586B000AFF860B9607A6072
:1024480004F014FB786122E07B68B3F1FF3F1ED0F3
:1024580004F00CFB02467B69D31A7A689A4202D3CD
:102468007B68002B13D1FB681B681A68BB68134094
:10247800BA689A420BD0FB685B6D43F00402FB68B4
:102488005A65FB68002283F8502003237DE0FB682F
:102498001B681A68BB681340BA689A42D4D1BB68F3
:1024A800B3F5806F48D0BB68B3F5806F56D8BB686A
:1024B800B3F5007F34D0BB68B3F5007F4ED8BB6856
:1024C800B3F5807F20D0BB68B3F5807F46D8BB6862
:1024D800022B03D0BB68802B0BD03FE0FB685B6D01
:1024E80043F40062FB685A65FB681B6802221A60A5
:1024F8004AE0FB685B6D43F48032FB685A65FB6811
:102508001B6880221A603FE0FB685B6D43F4003271
:10251800FB685A65FB681B684FF480721A6033E0E9
:10252800FB685B6D43F48022FB685A65FB681B6897
:102538004FF400721A6027E0FB685B6D43F4804239
:10254800FB685A65FB689B6D43F00802FB689A6557
:10255800FB681B684FF480621A6015E0FB681B6B10
:10256800002B0CD1FB685B6D43F48062FB685A65F5
:10257800FB689B6D43F00202FB689A6503E0FB6809
:102588001B6810221A6000BF002318461837BD4682
:1025980080BD000080B586B000AF78607B681B689E
:1025A800984A934204D07B681B68974A934201D1AA
:1025B800964B00E0964B1846FFF777F838617B6832
:1025C8001B681846FFF751F90346002B40F01181AC
:1025D8007B6893F85030012B01D102230EE17B6810
:1025E800012283F85020786801F02AFC0346FB7525
:1025F800FB7D002B40F0F8807B685B6D23F47063F3
:1026080023F0010343F480727B685A657B681B687A
:102618007D4A934202D07B681B6800E0794B7A6858
:102628001268934202D03B69002B05D17B685B6D31
:1026380023F480127B685A657B685B6D03F48053D2
:10264800002B06D07B689B6D23F006027B689A6599
:1026580002E07B6800229A657B681B681C221A606E
:102668007B68002283F850207B681B685A687B6867
:102678001B6822F01C025A607B681B69082B08D172
:102688007B681B685A687B681B6842F008025A60BE
:1026980008E07B681B685A687B681B6842F0040284
:1026A8005A6000BF7B681B6B002B07D17B681B68D7
:1026B8005A687B681B6842F010025A607B681B6886
:1026C800514A934202D07B681B6800E04D4B7A6800
:1026D8001268934208D03B69002B05D03B69052B53
:1026E80002D03B69092B3BD17B681B68DB6803F090
:1026F8000073002B2DD07B685B6D23F4405343F4AB
:1027080080527B685A657B681B69082B10D17B68EF
:102718001B685A687B681B6822F020025A607B6835
:102728001B685A687B681B6842F040025A6011E0D7
:102738007B681B685A687B681B6822F040025A60F5
:102748007B681B685A687B681B6842F020025A60E5
:1027580000E000BF7B681B681846FFF75EF84CE096
:102768007B685B6D43F480127B685A657B681B68E5
:10277800254A934202D07B681B6800E0214BFB602E
:10278800FB68DB6803F00073002B35D07B685B6D5A
:1027980023F4405343F480527B685A657B681B6975
:1027A800082B10D17B681B685A687B681B6822F06D
:1027B80020025A607B681B685A687B681B6842F075
:1027C80040025A6019E07B681B685A687B681B687E
:1027D80022F040025A607B681B685A687B681B6855
:1027E80042F020025A6008E07B68002283F85020FB
:1027F80003E00223FB7500E000BFFB7D1846183795
:10280800BD4680BD00200240002102400023024056
:102818000063025880B584B000AF78607B6893F895
:102828005030012B01D102232BE07B68012283F871
:1028380050200321786801F047FA0346FB73FB7BBD
:10284800002B19D17B681B685A687B681B6822F0CB
:102858001C025A60786801F07DFB0346FB73FB7B22
:10286800002B09D17B685B6D23F4885323F00103A7
:1028780043F001027B685A657B68002283F8502088
:10288800FB7B18461037BD4680BD000080B586B07A
:1028980000AFF860B9607A60FB681B68564A9342DB
:1028A80004D0FB681B68554A934201D1544B00E0A1
:1028B800544B1846FEF7F9FE3861FB681B6818464A
:1028C800FEF7D3FF0346002B40F08E80FB6893F899
:1028D8005030012B01D1022389E0FB68012283F8E3
:1028E80050203B69002B05D03B69052B02D03B6982
:1028F800092B72D1F86801F0A3FA0346FB75FB7D3A
:10290800002B65D1FB685B6D23F4706323F0010332
:1029180043F48072FB685A65FB681B68374A934228
:1029280002D0FB681B6800E0334BFA6812689342D8
:1029380002D03B69002B05D1FB685B6D23F4801244
:10294800FB685A65FB685B6D03F48053002B06D067
:10295800FB689B6D23F00602FB689A6502E0FB6842
:1029680000229A65FB68DB6C274ADA63FB68DB6C3C
:10297800264A1A64FB68DB6C254ADA64FB681B6824
:102988001C221A60FB68002283F85020FB681B6831
:102998005A68FB681B6842F010025A60FB681A68A4
:1029A800FB68DB6A19461046FEF7DDFDFB68D86C4C
:1029B800FB681B6840331946BA687B6805F05EFF00
:1029C8000346FB75FB681B681846FEF726FF0DE0FB
:1029D800FB68002283F8502008E00123FB75FB68A0
:1029E800002283F8502001E00223FB75FB7D184686
:1029F8001837BD4680BD00BF0020024000210240BC
:102A080000230240006302581B401008F3401008DE
:102A18000F41100880B584B000AF78607B6893F8E8
:102A28005030012B01D1022351E07B68012283F849
:102A380050200321786801F047F90346FB73FB7BBC
:102A4800002B3FD17B681B68DA687B681B6822F023
:102A58000302DA607B68DB6C93F83530DBB2022B5B
:102A68000FD17B68DB6C184606F072F90346FB73DE
:102A7800FB7B002B05D07B685B6D43F040027B68D5
:102A88005A657B681B685A687B681B6822F01002CD
:102A98005A60FB7B002B05D1786801F05BFA03468E
:102AA800FB7302E0786801F055FAFB7B002B09D133
:102AB8007B685B6D23F4885323F0010343F0010224
:102AC8007B685A657B68002283F85020FB7B184698
:102AD8001037BD4680BD80B483B000AF78607B6896
:102AE8001B681B6C18460C37BD465DF8047B7047A5
:102AF80080B58AB000AF786000237B627B681B6872
:102B08001B68FB617B681B685B68BB617B681B6833
:102B1800874A934204D07B681B68864A934201D156
:102B2800854B00E0854B1846FEF7BFFD7861FB69D1
:102B380003F00203002B17D0BB6903F00203002B3C
:102B480012D07B685B6D03F01003002B05D17B6806
:102B58005B6D43F400627B685A65786802F094FD07
:102B68007B681B6802221A60FB6903F00403002BD0
:102B780004D0BB6903F00403002B0AD1FB6903F0FE
:102B88000803002B00F08380BB6903F00803002BC7
:102B98007DD07B685B6D03F01003002B05D17B684B
:102BA8005B6D43F400727B685A657B681B68184646
:102BB800FEF79AFC0346002B62D07B681B685D4ACF
:102BC800934202D07B681B6800E0594B7A68126810
:102BD800934208D07B69002B05D07B69052B02D076
:102BE8007B69092B04D17B681B68DB683B620CE0BE
:102BF8007B681B684F4A934202D07B681B6800E0E1
:102C08004B4B3B613B69DB683B623B6A03F4005317
:102C1800002B35D17B681B681B6803F00803082B61
:102C28002ED17B681B681846FEF71FFE0346002B53
:102C38001AD17B681B685A687B681B6822F00C02F3
:102C48005A607B685B6D23F480727B685A657B6889
:102C58005B6D03F48053002B12D17B685B6D43F0EE
:102C680001027B685A650BE07B685B6D43F01002DC
:102C78007B685A657B689B6D43F001027B689A65A7
:102C8800786800F06FF97B681B680C221A60FB6992
:102C980003F02003002B04D0BB6903F02003002BB2
:102CA8000BD1FB6903F04003002B00F0A080BB6947
:102CB80003F04003002B00F09A807B685B6D03F003
:102CC8001003002B05D17B685B6D43F400527B68D1
:102CD8005A657B681B681846FEF758FCF8607B68E5
:102CE8001B681846FEF700FCB8607B681B68114A31
:102CF800934202D07B681B6800E00D4B7A6812682B
:102D0800934208D07B69002B05D07B69062B02D043
:102D18007B69072B04D17B681B68DB683B6214E086
:102D28007B681B68034A93420AD07B681B6808E0EB
:102D380000200240002102400023024000630258A4
:102D4800844B3B613B69DB683B62FB68002B0CD121
:102D58003B6A03F00073002B42D1BB68002B3FD0C5
:102D68003B6A03F40053002B3AD17B681B681B684D
:102D780003F04003402B33D13B6A03F40013002BCC
:102D88002ED17B681B681846FEF796FD0346002B7C
:102D98001AD17B681B685A687B681B6822F060023E
:102DA8005A607B685B6D23F480527B685A657B6848
:102DB8005B6D03F48073002B12D17B685B6D43F06D
:102DC80001027B685A650BE07B685B6D43F010027B
:102DD8007B685A657B689B6D43F001027B689A6546
:102DE800786802F029FC7B681B6860221A60FB691E
:102DF80003F08003002B11D0BB6903F08003002B84
:102E08000CD07B685B6D43F480327B685A657868C8
:102E180000F0BCF87B681B6880221A60FB6903F429
:102E28008073002B12D0BB6903F48073002B0DD084
:102E38007B685B6D43F400327B685A65786802F002
:102E48000FFC7B681B684FF480721A60FB6903F4FF
:102E58000073002B12D0BB6903F40073002B0DD054
:102E68007B685B6D43F480227B685A65786802F062
:102E780001FC7B681B684FF400721A60FB6903F061
:102E88001003002B43D0BB6903F01003002B3ED086
:102E98007B681B6B002B02D101237B6221E07B69DD
:102EA800002B15D07B681B682A4A934204D07B68A4
:102EB8001B68294A934201D1284B00E0284B184649
:102EC800FEF701FC0346002B0BD001237B6208E0D0
:102ED8007B681B68DB6803F00303002B01D0012328
:102EE8007B627B6A012B0ED17B685B6D43F4806249
:102EF8007B685A657B689B6D43F002027B689A6524
:102F0800786800F04DF87B681B6810221A60FB692E
:102F180003F48063002B18D0BB6903F48063002B93
:102F280013D07B685B6D43F480427B685A657B688D
:102F38009B6D43F008027B689A657B681B684FF4B9
:102F480080621A60786802F081FB00BF2837BD46AE
:102F580080BD00BF00200240002102400023024043
:102F68000063025880B483B000AF786000BF0C37AC
:102F7800BD465DF8047B704780B483B000AF7860CD
:102F880000BF0C37BD465DF8047B704780B483B042
:102F980000AF786000BF0C37BD465DF8047B704712
:102FA80080B483B000AF786000BF0C37BD465DF8D1
:102FB800047B704790B5A1B000AF786039600023FA
:102FC80087F87F300023BB603B68DB689D4A9342EB
:102FD8007B6893F85030012B01D1022321E37B68F1
:102FE800012283F850207B681B681846FEF73DFCD9
:102FF8000346002B40F006833B681B68C3F31303AA
:10300800002B08D13B681B689B0E03F01F030122AD
:1030180002FA03F316E03B681B687B667B6E93FA43
:10302800A3F33B663B6EBB66BB6E002B01D120232E
:1030380003E0BB6EB3FA83F3DBB203F01F03012294
:1030480002FA03F37A681268D1697A6812680B4346
:10305800D3617B6818683B6859683B681B681A46E7
:10306800FEF755FA7B681B681846FEF7FEFBB86743
:103078007B681B681846FEF71FFC7867BB6F002B40
:1030880040F0B3807B6F002B40F0AF807B681868FE
:103098003B6819683B689B681A46FEF78AFA6A4BD0
:1030A8001B6803F07043B3F1805F0BD13B685A692A
:1030B8007B681B68DB689B0803F007035B0002FA68
:1030C80003F31DE07B681B68DB6803F01003002B2B
:1030D8000BD13B685A697B681B68DB689B0803F067
:1030E80007035B0002FA03F30AE03B685A697B684E
:1030F8001B68DB689B0803F004035B0002FA03F318
:103108003B673B681B69042B27D07B6818683B68C2
:1031180019693B681A683B6FFEF792F97B68186873
:103128003B6819693B685B7E012B02D14FF0004375
:1031380000E000231A46FEF7BCF97B6818683B6874
:1031480019693B681B7E012B02D14FF4006300E034
:1031580000231A46FEF794F947E07B681B681B6E4C
:1031680003F0F8423B681B689B069A4207D17B68CC
:103178001B681A6E7B681B6822F000421A667B681F
:103188001B685B6E03F0F8423B681B689B069A421B
:1031980007D17B681B685A6E7B681B6822F0004267
:1031A8005A667B681B689B6E03F0F8423B681B6895
:1031B8009B069A4207D17B681B689A6E7B681B68DE
:1031C80022F000429A667B681B68DB6E03F0F842C7
:1031D8003B681B689B069A4207D17B681B68DA6EBE
:1031E8007B681B6822F00042DA667B681B68184619
:1031F800FEF7EDFA0346002B40F00D827B68186855
:103208003B6819683B68DB681A46FEF7FDF93B68BE
:10321800DB680C4A934240F033817B6818683B684E
:103228001B68C3F31303002B10D13B681B689B0E6C
:10323800013303F01F03092B94BF01230023DBB2E2
:103248001EE000BF0000FF470010005C3B681B68E1
:10325800BB65BB6D93FAA3F37B657B6DFB65FB6D6B
:10326800002B01D1202303E0FB6DB3FA83F3DBB21B
:10327800013303F01F03092B94BF01230023DBB2A2
:10328800002B79D03B681B68C3F31303002B07D1CD
:103298003B681B689B0E01339B0603F0F84215E060
:1032A8003B681B68FB64FB6C93FAA3F3BB64BB6CC1
:1032B8003B653B6D002B01D1202303E03B6DB3FA46
:1032C80083F3DBB201339B0603F0F8423B681B68CB
:1032D800C3F31303002B09D13B681B689B0E013312
:1032E80003F01F03012101FA03F317E03B681B6891
:1032F8003B643B6C93FAA3F3FB63FB6B7B647B6CD3
:10330800002B01D1202303E07B6CB3FA83F3DBB2FB
:10331800013303F01F03012101FA03F342EA030119
:103328003B681B68C3F31303002B0AD13B681B6877
:103338009B0E013303F01F0213465B0013441B0569
:1033480018E03B681B687B637B6B93FAA3F33B63D2
:103358003B6BBB63BB6B002B01D1202303E0BB6B32
:10336800B3FA83F3DBB2013303F01F0213465B00A9
:1033780013441B050B437EE03B681B68C3F3130330
:10338800002B07D13B681B689B0E01339B0603F09B
:10339800F84215E03B681B68BB62BB6A93FAA3F36B
:1033A8007B627B6AFB62FB6A002B01D1202303E06E
:1033B800FB6AB3FA83F3DBB201339B0603F0F842EE
:1033C8003B681B68C3F31303002B09D13B681B68D8
:1033D8009B0E013303F01F03012101FA03F317E0E9
:1033E8003B681B68FB61FB6993FAA3F3BB61BB698C
:1033F8003B623B6A002B01D1202303E03B6AB3FA0E
:1034080083F3DBB2013303F01F03012101FA03F355
:1034180042EA03013B681B68C3F31303002B0DD179
:103428003B681B689B0E013303F01F0213465B00C9
:1034380013441E3B1B0543F000731BE03B681B68ED
:103448003B613B6993FAA3F3FB60FB687B617B6993
:10345800002B01D1202303E07B69B3FA83F3DBB2AD
:10346800013303F01F0213465B0013441E3B1B0588
:1034780043F000730B433A6892681946FEF799F8CF
:103488003B681B68002B80F2C6807B681B68674A14
:10349800934204D07B681B68654A934201D1654B0F
:1034A80000E0654B1846FDF7BDFFF8667B681B68B2
:1034B8005E4A934204D07B681B685D4A93420ED1F2
:1034C8005A48FEF784F904465948FEF780F903463E
:1034D8002343002B0CBF01230023DBB208E057482D
:1034E800FEF775F90346002B0CBF01230023DBB25E
:1034F800002B7DD03B681B68514A934230D1FB6E4C
:1035080003F40003002B2BD17B681B684B4A9342C2
:1035180040F081807B681B68444A934204D07B68F2
:103528001B68434A934201D1424A00E0424AFB6E7B
:1035380043F4000319461046FDF761FF414B1B6831
:103548009B09414AA2FB03239B0901335B00BB6033
:1035580002E0BB68013BBB60BB68002BF9D15AE0B5
:103568003B681B68394A93421ED1FB6E03F0807397
:10357800002B19D17B681B68304A93424BD17B687A
:103588001B682A4A934204D07B681B68284A9342E6
:1035980001D1284A00E0284AFB6E43F0807319469F
:1035A8001046FDF72CFF36E03B681B68284A93421B
:1035B80031D1FB6E03F48003002B2CD17B681B6890
:1035C8001E4A934227D17B681B68184A934204D04D
:1035D8007B681B68164A934201D1164A00E0164AD6
:1035E800FB6E43F4800319461046FDF708FF12E00E
:1035F8007B685B6D43F020027B685A65012387F87E
:103608007F3008E07B685B6D43F020027B685A6579
:10361800012387F87F307B68002283F8502097F8D1
:103628007F3018468437BD4690BD00BF0020024059
:103638000021024000230240006302580060025843
:10364800000084CB24000010632D3E05000052C703
:103658000000B8CF80B594B000AF7860396000231F
:1036680087F84F303B685B68B3F5400F03D03B6881
:103678005B68B3F1A07F7B6893F85030012B01D1D0
:10368800022301E37B68012283F850207B681B68D2
:103698001846FEF7EAF8B8647B681B681846FEF718
:1036A8000BF97864BB6C002B40F0DF827B6C002B3D
:1036B80040F0DB823B681B68AC4A934240F0FA80DA
:1036C8003B685B68B3F1E07F34D0B3F1E07F56D854
:1036D800B3F1C07F4BD0B3F1C07F50D8B3F1A07F16
:1036E8001BD0B3F1A07F4AD8B3F1807F37D0B3F1B4
:1036F800807F44D8B3F5000F29D0B3F5400F3ED1F1
:103708007B6818683B689B6823F07C7343F440032C
:103718001A469649FDF79CFF39E07B6818683B68B4
:103728009B6823F07C7343F0A0731A468F49FDF71A
:103738008FFF2CE07B6818683B689B6823F07C73DC
:1037480043F0E0731A468949FDF782FF1FE07B6862
:103758001B68874A85491846FDF77AFF17E07B689A
:103768001B68844A81491846FDF772FF0FE07B68A1
:103778001B68814A7D491846FDF76AFF07E07B68A8
:103788001B68002279491846FDF762FF00BF7B4B92
:103798001B6803F07043B3F1805F0BD13B681A6973
:1037A8007B681B68DB689B0803F007035B0002FA71
:1037B80003F31DE07B681B68DB6803F01003002B34
:1037C8000BD13B681A697B681B68DB689B0803F0B0
:1037D80007035B0002FA03F30AE03B681A697B6897
:1037E8001B68DB689B0803F004035B0002FA03F321
:1037F8003B64624B1B6803F07043B3F1805F0BD1ED
:103808003B685A697B681B68DB689B0803F0070301
:103818005B0002FA03F31DE07B681B68DB6803F0BA
:103828001003002B0BD13B685A697B681B68DB6867
:103838009B0803F007035B0002FA03F30AE03B6806
:103848005A697B681B68DB689B0803F004035B000C
:1038580002FA03F3FB637B681B681B6A03F07C4175
:103868007B681B68FA6B0A431A627B681B685B6A91
:1038780003F07C417B681B683A6C0A435A627B6898
:103888005B6D23F480327B685A657B681B68184639
:10389800FEF725F83B681B7B012B05D17B681B686D
:1038A8001846FEF745F8E9E17B681B681846FEF7FD
:1038B8006FF8E3E13B685B68B3F1E07F20D0B3F1D8
:1038C800E07F00F2F480B3F1C07F00F08B80B3F1A9
:1038D800C07F00F2EC80B3F1A07F11D0B3F1A07FDC
:1038E80000F2E580B3F1807F7CD0B3F1807F00F2F5
:1038F800DE80B3F5000F75D0B3F5400F40F0D780E8
:103908003B681B681E4A93423CD13B689B68C3F3E3
:103918001303002B08D13B689B689B0E03F01F0321
:10392800012202FA03F316E03B689B687B637B6B1A
:1039380093FAA3F33B633B6BBB63BB6B002B01D1D7
:10394800202303E0BB6BB3FA83F3DBB203F01F035E
:10395800012202FA03F37A681268D2F8A0107A6892
:1039680012680B43C2F8A030AAE000BF0000C07D77
:10397800FFFF8F00FFFF0F01FFFF8F010010005CAA
:10398800FFFF1F003B689B68C3F31303002B08D19C
:103998003B689B689B0E03F01F03012202FA03F3A6
:1039A80016E03B689B68BB62BB6A93FAA3F37B6231
:1039B8007B6AFB62FB6A002B01D1202303E0FB6AD0
:1039C800B3FA83F3DBB203F01F03012202FA03F315
:1039D8007A681268D2F8A4107A6812680B43C2F8A1
:1039E800A4306DE03B681B68A94A93422FD13B681D
:1039F8009B68C3F31303002B08D13B689B689B0E9D
:103A080003F01F03012202FA03F316E03B689B68E8
:103A1800FB61FB6993FAA3F3BB61BB693B623B6A39
:103A2800002B01D1202303E03B6AB3FA83F3DBB216
:103A380003F01F03012202FA03F37A681268D2F82E
:103A4800A0107A6812680B43C2F8A03038E03B68CF
:103A58009B68C3F31303002B08D13B689B689B0E3C
:103A680003F01F03012202FA03F316E03B689B6888
:103A78003B613B6993FAA3F3FB60FB687B617B695D
:103A8800002B01D1202303E07B69B3FA83F3DBB277
:103A980003F01F03012202FA03F37A681268D2F8CE
:103AA800A4107A6812680B43C2F8A43008E07B6857
:103AB80018683B681B6800221946FDF7C9FD00BF5E
:103AC800744B1B6803F07043B3F1805F0BD13B6804
:103AD8001A697B681B68DB689B0803F007035B00B7
:103AE80002FA03F31DE07B681B68DB6803F0100330
:103AF800002B0BD13B681A697B681B68DB689B0845
:103B080003F007035B0002FA03F30AE03B681A6953
:103B18007B681B68DB689B0803F004035B0002FA00
:103B280003F33B645B4B1B6803F07043B3F1805FA6
:103B38000BD13B685A697B681B68DB689B0803F0FC
:103B480007035B0002FA03F31DE07B681B68DB6870
:103B580003F01003002B0BD13B685A697B681B6884
:103B6800DB689B0803F007035B0002FA03F30AE033
:103B78003B685A697B681B68DB689B0803F0040391
:103B88005B0002FA03F3FB633B681B68404A9342FD
:103B980018D17B681B68D3F8B03003F07C417B6890
:103BA8001B68FA6B0A43C3F8B0207B681B68D3F81C
:103BB800B43003F07C417B681B683A6C0A43C3F855
:103BC800B42017E07B681B68D3F8B83003F07C4159
:103BD8007B681B68FA6B0A43C3F8B8207B681B68CC
:103BE800D3F8BC3003F07C417B681B683A6C0A430D
:103BF800C3F8BC203B681B68254A93421AD17B68EE
:103C08005B6D23F400327B685A657B681B68184635
:103C1800FDF772FE3B681B7B012B05D17B681B6897
:103C28001846FDF795FE29E07B681B681846FDF7E6
:103C3800BFFE23E07B685B6D23F480227B685A65B6
:103C48007B681B681846FDF765FE3B681B7B012BEC
:103C580005D17B681B681846FDF78AFE0EE07B6875
:103C68001B681846FDF7B4FE08E07B685B6D43F0FF
:103C780020027B685A65012387F84F307B68002251
:103C880083F8502097F84F3018465037BD4680BD0E
:103C9800FFFF1F000010005C80B483B000AF7860A5
:103CA8007B685B6D18460C37BD465DF8047B704732
:103CB80080B483B000AF78607B689B6D18460C3782
:103CC800BD465DF8047B704780B588B000AF78606A
:103CD80039600023FB613B68BB617B681B68184641
:103CE800FDF7C3FD38617B681B681846FDF7E4FDE6
:103CF800F8603B69002B03D1FB68002B00F098802B
:103D08007B681B68DB6803F00073002B2AD07B6894
:103D18005B7D012B26D17B681B7D012B22D10123E2
:103D2800BB6114E0FB69454A93420DD97B685B6D22
:103D380043F010027B685A657B689B6D43F0010273
:103D48007B689A65012374E0FB690133FB617B683A
:103D58001B681B6803F04003402BE3D17B681B689A
:103D680040221A60BB69022B14D07B681B68184676
:103D7800FDF77BFD0346002B0CD07B681B681846BB
:103D8800FDF738FD0346002B04D17B681B681846F5
:103D9800FDF757FDBB69012B14D07B681B681846DB
:103DA800FDF78AFD0346002B0CD07B681B6818467C
:103DB800FDF720FD0346002B04D17B681B681846DD
:103DC800FDF766FDBB69022B05D0BB69032B05D146
:103DD8000C237B6105E008237B6102E004237B61FF
:103DE80000BF02F043FEB8601BE002F03FFE02464F
:103DF800BB68D31A052B14D97B681B689A687B6942
:103E08001340002B0DD07B685B6D43F010027B687C
:103E18005A657B689B6D43F001027B689A650123B4
:103E280007E07B681B689A687B691340002BDCD12C
:103E3800002318462037BD4680BD00BFFFDB0C00BD
:103E480080B584B000AF78607B681B681846FDF7C2
:103E5800BEFC0346002B6ED17B681B689A68384B02
:103E68001340002B0DD07B685B6D43F010027B681C
:103E78005A657B689B6D43F001027B689A65012354
:103E88005AE07B681B681846FDF779FC02F0EEFDE6
:103E9800F8607B681B682B4A934204D07B681B68D8
:103EA800294A934201D1294B00E0294B1846FDF7D6
:103EB800FCFBB8607B681B68234A934202D07B688E
:103EC8001B6800E01F4B7A68126893422CD0BB68CD
:103ED800002B30D128E07B681B681846FDF777FC7B
:103EE8000346002B04D17B681B681846FDF747FC86
:103EF80002F0BCFD0246FB68D31A022B14D97B687A
:103F08001B681B6803F00103012B0DD07B685B6DF8
:103F180043F010027B685A657B689B6D43F0010291
:103F28007B689A65012307E07B681B681B6803F0C0
:103F38000103012BCFD1002318461037BD4680BDA1
:103F48003F00008000200240002102400023024080
:103F58000063025880B584B000AF78607B681B6846
:103F68001846FDF747FCF8607B681B681846FDF7A4
:103F78002EFC0346002B47D0FB68002B44D17B68FE
:103F88001B689B6803F00D03012B0CD17B681B6831
:103F98001846FDF708FC7B681B6803221A6002F0CC
:103FA80065FDB86029E07B685B6D43F010027B68B3
:103FB8005A657B689B6D43F001027B689A65012313
:103FC80023E002F053FD0246BB68D31A022B14D932
:103FD8007B681B689B6803F00103002B0DD07B688E
:103FE8005B6D43F010027B685A657B689B6D43F0FC
:103FF80001027B689A65012307E07B681B689B6860
:1040080003F00103002BDCD1002318461037BD460E
:1040180080BD80B584B000AF78607B689B6BFB6027
:10402800FB685B6D03F05003002B4BD1FB685B6DA5
:1040380043F40072FB685A65FB681B681B6803F051
:104048000803002B21D0FB681B681846FDF74CFAC3
:104058000346002B32D0FB681B68DB6803F400536F
:10406800002B2BD1FB685B6D23F48072FB685A65CB
:10407800FB685B6D03F48053002B1FD1FB685B6DFD
:1040880043F00102FB685A6518E0FB681B68DB68AF
:1040980003F00303002B11D1FB685B6D23F48072DE
:1040A800FB685A65FB685B6D03F48053002B05D1F0
:1040B800FB685B6D43F00102FB685A65F868FEF720
:1040C80051FF0EE0FB685B6D03F01003002B03D07B
:1040D800F868FEF765FF04E0FB68DB6CDB6C78686A
:1040E800984700BF1037BD4680BD80B584B000AF8B
:1040F80078607B689B6BFB60F868FEF73DFF00BF4C
:104108001037BD4680BD80B584B000AF78607B684D
:104118009B6BFB60FB685B6D43F04002FB685A6574
:10412800FB689B6D43F00402FB689A65F868FEF72C
:1041380037FF00BF1037BD4680BD000080B584B092
:1041480000AF78607B681B68794A934204D07B682B
:104158001B68784A934209D1774B9B6803F4403334
:10416800002B14BF01230023DBB208E0734B9B68CC
:1041780003F44033002B14BF01230023DBB2002BD0
:104188001CD012F0D3FBF8607B685B68B3F5403F46
:1041980010D0B3F5403F71D8B3F5803F02D0B3F5E6
:1041A800003F6BD17B685B681B0CFA68B2FBF3F3CA
:1041B800FB6066E0FB689B08FB6062E04FF4002050
:1041C80013F00AFEF8607B685B68B3F5301F51D0C6
:1041D800B3F5301F54D8B3F5201F47D0B3F5201FCF
:1041E8004ED8B3F5101F3DD0B3F5101F48D8B3F51E
:1041F800001F33D0B3F5001F42D8B3F5E01F29D014
:10420800B3F5E01F3CD8B3F5C01F1AD0B3F5C01FF3
:1042180036D8B3F5A01F14D0B3F5A01F30D8B3F526
:10422800801F0ED0B3F5801F2AD8B3F5402F08D0D1
:10423800B3F5402F24D8B3F5802F02D0B3F5002F63
:104248001ED17B685B689B0C5B00FA68B2FBF3F3DA
:10425800FB6016E0FB681B09FB6012E0FB685B096A
:10426800FB600EE0FB689B09FB600AE0FB68DB096A
:10427800FB6006E0FB681B0AFB6002E000BF00E091
:1042880000BF02F08DFC034641F20302934215D8A9
:10429800FB682B4A934208D97B681B689A687B683D
:1042A8001B6842F480729A603EE07B681B689A68DB
:1042B8007B681B6822F480729A6035E0FB685B08B3
:1042C800FB60FB681F4A934208D87B681B689A68A2
:1042D8007B681B6822F440729A6025E0FB681A4AE2
:1042E80093420AD87B681B689B6823F440727B68FA
:1042F8001B6842F480729A6016E0FB68134A934286
:104308000AD87B681B689B6823F440727B681B682B
:1043180042F400729A6007E07B681B689A687B68C1
:104328001B6842F440729A6000BF1037BD4680BDDA
:10433800002002400021024000230240006302588E
:10434800002D3101105E5F0020BCBE0040787D0169
:1043580080B483B000AF786039607B689B6823F0D5
:10436800E0723B681A437B689A6000BF0C37BD4611
:104378005DF8047B704780B483B000AF78607B68D9
:104388009B6803F0E07318460C37BD465DF8047B64
:10439800704780B485B000AFF860B9607A60FB6898
:1043A800D3F8C420BB6823F0F823DB431A40BB686A
:1043B800190BBB68C3F30A03DB430B4003F010037C
:1043C800796801FA03F31A43FB68C3F8C42000BFF5
:1043D8001437BD465DF8047B704780B483B000AFE6
:1043E800786039607B68D3F8C4203B68134023F0B9
:1043F800F8223B681B0B03F0100322FA03F318465C
:104408000C37BD465DF8047B7047000080B487B068
:1044180000AFF860B9607A60134B7B61FB68D3F832
:10442800C83003F040427B681A43FB68C3F8C820D1
:10443800FB689B6823F48032BB681A43FB689A6068
:1044480002E07B69013B7B61FB689A68BB681340AB
:10445800002B02D17B69002BF3D100BF1C37BD466E
:104468005DF8047B704700BF7000080080B485B019
:1044780000AF78603960104BFB607B689A683B68D6
:10448800DB431A407B689A6002E0FB68013BFB60F3
:104498007B689A683B681340002B02D0FB68002BAE
:1044A800F3D17B68D3F8C83023F04043184614375B
:1044B800BD465DF8047B70477000080080B487B083
:1044C80000AFF860B9607A603B60FB6860331A46F9
:1044D800BB689B0013447B617B691B6803F0004247
:1044E8007B6803F0F8413B680B431A437B691A6009
:1044F80000BF1C37BD465DF8047B704780B485B0AB
:1045080000AF786039607B6860331A463B689B006F
:104518001344FB60FB681B6803F0F8431846143724
:10452800BD465DF8047B704780B487B000AFF86083
:10453800B9607A60FB6860331A46BB689B00134415
:104548007B617B691B6823F000427B681A437B69A7
:104558001A6000BF1C37BD465DF8047B704780B405
:1045680083B000AF78607B68DB6803F44063002B9E
:1045780001D1012300E0002318460C37BD465DF841
:10458800047B704780B483B000AF78607B68DB6CD5
:1045980003F4C073002B01D1012300E00023184667
:1045A8000C37BD465DF8047B704780B483B000AF1C
:1045B80078607B68DB6803F0007318460C37BD46EB
:1045C8005DF8047B704780B483B000AF78603960D1
:1045D8007B68DB6823F0004323F400133A681A432E
:1045E8007B68DA6000BF0C37BD465DF8047B704716
:1045F80080B487B000AFF860B9607A60FB681433A4
:104608001A46BB685B0E9B0003F0040313447B61EE
:104618007B691A68BB681B0D03F01F03072101FAA9
:1046280003F3DB431A40BB681B0D03F01F037968D3
:1046380001FA03F31A437B691A6000BF1C37BD46B1
:104648005DF8047B7047000080B485B000AFF86067
:10465800B9607A60FB68D3F8C020BB68C3F3130362
:10466800DB431A407B6803F018030849D940BB684C
:104678000B40C3F313031A43FB68C3F8C02000BF01
:104688001437BD465DF8047B704700BFFFFF0F007D
:1046980080B483B000AF78607B689B6803F01F0329
:1046A80018460C37BD465DF8047B704780B483B06C
:1046B80000AF78607B689B6823F0204323F03F03BA
:1046C80043F000527B689A6000BF0C37BD465DF826
:1046D800047B704780B483B000AF78607B689B68C8
:1046E80023F0104323F03F037A68936000BF0C3730
:1046F800BD465DF8047B704780B483B000AF786036
:104708007B689B6803F00103012B01D1012300E0C2
:10471800002318460C37BD465DF8047B704700003F
:1047280080B485B000AFF860B9607A60FB689A68B9
:10473800094B1340BA6802F480317A6802F080426B
:104748000A43134343F00042FB689A6000BF1437E2
:10475800BD465DF8047B7047C0FFFE3F80B483B060
:1047680000AF78607B689B6803F00043B3F1004FAB
:1047780001D1012300E0002318460C37BD465DF83F
:10478800047B704780B483B000AF78607B689B6817
:1047980023F0004323F03F0343F004027B689A6050
:1047A80000BF0C37BD465DF8047B704780B483B00A
:1047B80000AF78607B689B6823F0004323F03F03D9
:1047C80043F010027B689A6000BF0C37BD465DF865
:1047D800047B704780B483B000AF78607B689B68C7
:1047E80003F00403042B01D1012300E00023184641
:1047F8000C37BD465DF8047B704780B483B000AFCA
:1048080078607B689B6823F0004323F03F0343F004
:1048180008027B689A6000BF0C37BD465DF8047BD0
:10482800704780B483B000AF78607B689B6803F002
:104838000803082B01D1012300E0002318460C3798
:10484800BD465DF8047B704780B586B000AFF86060
:10485800B9607A6000233B61FB6893F85030012B04
:1048680001D102234EE0FB68012283F85020F8684A
:10487800FFF770FB0346FB75FB7D002B37D1FB6808
:104888005B6D23F4885323F0020343F00202FB68B4
:104898005A65FB681B687A68B9681846FFF740FFD5
:1048A80014E03B6901333B613B69184A93420DD3DD
:1048B800FB685B6D23F0120343F01002FB685A6536
:1048C800FB68002283F8502001231BE0FB681B686B
:1048D8001846FFF743FF0346002BE2D1FB685B6DE8
:1048E80023F0030343F00102FB685A6505E0FB6807
:1048F8005B6D43F01002FB685A65FB68002283F881
:104908005020FB7D18461837BD4680BD00F8C325EA
:1049180080B582B000AF786039607B681B68396801
:104928001846FFF75AFD034618460837BD4680BDAE
:1049380090B587B000AF786039600023FB7400231E
:10494800FB607B681B681846FFF7D6FE0346002B02
:1049580004D17868FFF774FA0346FB74FB7C002BDC
:1049680033D17B681B681846FFF734FF0346002BDA
:1049780006D07B681B681846FFF718FF0123FB6009
:1049880006237B6116E07B6818687B69C3F1060320
:104998004FF0006222FA03F17B6903F18043013B87
:1049A8009B003A68D418FFF761FD034623607B69D2
:1049B800013B7B617B69002BE5D1FB68002B04D0B0
:1049C8007B681B681846FFF7DDFEFB7C18461C3722
:1049D800BD4690BD80B588B000AFF860B9607A6018
:1049E8000023FB77FB6893F85030012B01D1022399
:1049F80038E0FB68012283F85020FB681B681846E2
:104A0800FFF7E8FEB861FB681B681846FFF709FF67
:104A18007861FB681B681846FFF76EFE0346002B9B
:104A28000DD0BB69002B0AD17B69002B07D1FB682D
:104A38001B687A68B9681846FFF7ABFC0DE0FB689D
:104A48005B6D43F02002FB685A65FB689B6D43F081
:104A58000102FB689A650123FB77FB68002283F853
:104A68005020FB7F18462037BD4680BD80B586B0F4
:104A780000AF786039600023FB6000233B617B68EE
:104A88001B689B6803F00053B3F1005F07D17B6894
:104A98001B689A687B681B6822F000529A607B68E2
:104AA8001B689B6803F08053002B17D17B681B6839
:104AB8009A687B681B6842F080529A60474B1B6873
:104AC8009B09474AA2FB03239B090133FB6002E0D1
:104AD800FB68013BFB60FB68002BF9D17B681B6816
:104AE8009B6803F08053002B0DD17B685B6D43F00E
:104AF80010027B685A657B689B6D43F001027B68F6
:104B08009A65012365E07B681B681846FFF7F4FD8A
:104B18000346002B28D17868FFF792F90346002B4B
:104B280001D0012355E006237B6116E07B681868F5
:104B38007B69C3F106034FF0006222FA03F17B6937
:104B480003F18043013B9B003A6813441B681A46F3
:104B5800FFF75CFC7B69013B7B617B69002BE5D13E
:104B68007868FFF7F7F933E07B681B681846FFF7AA
:104B780031FE0346002B06D07B681B681846FFF7FA
:104B880015FE01233B6106237B6116E07B681868EC
:104B98007B69C3F106034FF0006222FA03F17B69D7
:104BA80003F18043013B9B003A6813441B681A4693
:104BB800FFF72CFC7B69013B7B617B69002BE5D10E
:104BC8003B69002B04D07B681B681846FFF7DAFDA9
:104BD800002318461837BD4680BD00BF24000010CA
:104BE800632D3E0580B58CB000AF7860002387F850
:104BF8002F307B681B681C4A934202D100237B62DA
:104C080009E07B681B68194A934202D108237B623A
:104C180001E010237B620023BB6210E07A6ABB6A62
:104C280013449A00124B13441A68BB6A9B0007F19D
:104C380030010B4443F8242CBB6A0133BB62BB6AC6
:104C4800052BEBD907F10C0319467868FFF70EFF1F
:104C58000346002B02D0012387F82F3097F82F3016
:104C680018463037BD4680BD002002400021024072
:104C780000ECF11F80B586B000AF78607B681B68D8
:104C8800574A934204D07B681B68564A934201D125
:104C9800554B00E0554B1846FFF7FAFC78617B68E6
:104CA8001B681846FFF7BDFD0346002B01D0022301
:104CB80092E07B681B68DB6803F000433B617B681C
:104CC8001B68DB6C03F4C073002B0AD13B69002B13
:104CD80007D17B685B6D43F020027B685A6501232E
:104CE8007AE07B6893F85030012B01D1022373E0FE
:104CF8007B68012283F850207868FFF7A1F8034603
:104D0800FB73FB7B002B62D17B685B6D03F48073C4
:104D1800002B06D07B689B6D23F008027B689A65A0
:104D280002E07B6800229A657B685B6D23F4405340
:104D380023F0010343F480527B685A657B681B6843
:104D4800284A934202D07B681B6800E0244B7A68AB
:104D58001268934202D07B69002B05D17B685B6D9A
:104D680023F480127B685A657B681B6860221A608E
:104D78007B68002283F850207B681B68194A93429D
:104D880002D07B681B6800E0154B7A681268934272
:104D980008D07B69002B05D07B69062B02D07B6984
:104DA800072B0DD17B681B681846FFF7FEFB0346EF
:104DB800002B10D17B681B681846FFF71EFD0AE020
:104DC8007B685B6D43F480127B685A6503E07B68FF
:104DD800002283F85020FB7B18461837BD4680BD5B
:104DE80000200240002102400023024000630258D4
:104DF80080B584B000AF78607B6893F85030012BA1
:104E080001D1022332E07B68012283F8502002217D
:104E18007868FEF759FF0346FB73FB7B002B20D114
:104E28007B681B681846FFF7D5FC0346002B12D198
:104E38007868FFF78FF80346FB73FB7B002B10D1D4
:104E48007B685B6D23F4885323F0010343F0010270
:104E58007B685A6505E07B685B6D23F480527B684C
:104E68005A657B68002283F85020FB7B1846103770
:104E7800BD4680BD80B58AB000AF786039607B6878
:104E88001B68614A934204D07B681B685F4A93425F
:104E980001D15F4B00E05F4B1846FFF7F9FBF86163
:104EA8007B681B69082B02D140237B6201E0202329
:104EB8007B6201F0DBFDB86121E03B68B3F1FF3FA5
:104EC8001DD001F0D3FD0246BB69D31A3A689A4255
:104ED80002D33B68002B12D17B681B681A687B6A77
:104EE8001340002B0BD17B685B6D43F004027B6899
:104EF8005A657B68002283F85020032380E07B6892
:104F08001B681A687B6A1340002BD6D07B681B6825
:104F18001846FFF737FB78617B681B681846FFF770
:104F28001EFB38617B681B68384A934202D07B6855
:104F38001B6800E0344B7A681268934208D0FB691A
:104F4800002B05D0FB69062B02D0FB69072B04D187
:104F58007B681B68DB683B620CE07B681B682B4A3C
:104F6800934202D07B681B6800E0274BFB60FB681C
:104F7800DB683B627B685B6D43F400527B685A6573
:104F88007B69002B0CD13B6A03F00073002B25D101
:104F98003B69002B22D03B6A03F40053002B1DD140
:104FA8007B681B681B6803F04003402B16D13B6AE3
:104FB80003F40013002B11D17B685B6D23F480523E
:104FC8007B685A657B685B6D03F48073002B05D1A1
:104FD8007B685B6D43F001027B685A657B6A402BF6
:104FE80009D13B6A03F48043002B08D17B681B6816
:104FF80060221A6003E07B681B6820221A60002385
:1050080018462837BD4680BD0020024000210240D6
:10501800002302400063025880B586B000AF786074
:105028007B681B68724A934204D07B681B68714A8C
:10503800934201D1704B00E0704B1846FFF728FBF4
:1050480078617B681B681846FFF7EBFB0346002B6B
:1050580001D00223C8E07B681B68DB6803F00043CB
:105068003B617B681B68DB6C03F4C073002B0AD1BF
:105078003B69002B07D17B685B6D43F020027B689E
:105088005A650123B0E07B6893F85030012B01D1B9
:105098000223A9E07B68012283F850207868FEF794
:1050A800CFFE0346FB73FB7B002B40F098807B68A8
:1050B8005B6D03F48073002B06D07B689B6D23F037
:1050C80008027B689A6502E07B6800229A657B6823
:1050D8005B6D23F4405323F0010343F480527B6853
:1050E8005A657B681B68434A934202D07B681B68F9
:1050F80000E03F4B7A681268934202D07B69002B2C
:1051080005D17B685B6D23F480127B685A657B68E8
:105118001B6860221A607B68002283F850207B6835
:105128001B68DB6803F40013002B07D07B681B683F
:105138005A687B681B6842F480625A607B681B6906
:10514800082B10D17B681B685A687B681B6822F0A3
:1051580020025A607B681B685A687B681B6842F0AB
:1051680040025A6010E07B681B685A687B681B68BD
:1051780022F040025A607B681B685A687B681B688B
:1051880042F020025A6000BF7B681B68194A9342AC
:1051980002D07B681B6800E0154B7A68126893425E
:1051A80008D07B69002B05D07B69062B02D07B6970
:1051B800072B0DD17B681B681846FFF7F6F90346E5
:1051C800002B10D17B681B681846FFF716FB0AE016
:1051D8007B685B6D43F480127B685A6503E07B68EB
:1051E800002283F85020FB7B18461837BD4680BD47
:1051F80000200240002102400023024000630258C0
:1052080080B584B000AF78607B6893F85030012B8C
:1052180001D102233AE07B68012283F85020022161
:105228007868FEF751FD0346FB73FB7B002B28D102
:105238007B681B685A687B681B6822F48C625A601A
:105248007B681B681846FFF7C5FA0346002B12D186
:105258007868FEF77FFE0346FB73FB7B002B10D1BB
:105268007B685B6D23F4885323F0010343F001024C
:105278007B685A6505E07B685B6D23F480527B6828
:105288005A657B68002283F85020FB7B184610374C
:10529800BD4680BD80B5A0B000AFF860B9607A6047
:1052A800FB681B681846FFF795FA0346002B01D0E8
:1052B80002238CE0FB6893F85030012B01D10223C4
:1052C80085E0FB68012283F850200023BB66002399
:1052D800FB66FB681B68404A934202D13F4B7B61E7
:1052E80001E000237B617B69002B0BD1FB685B6DC0
:1052F80043F02002FB685A65FB68002283F85020BF
:10530800012364E0F868FEF79BFD034687F87F30C9
:1053180097F87F30002B07D107F114031846FEF7E2
:105328008FFD034687F87F3097F87F30002B48D1F0
:10533800FB685B6D23F4706323F0010343F4807210
:10534800FB685A65FB6800229A65FB68DB6C244A97
:10535800DA63FB68DB6C234A1A64FB68DB6C224A5D
:10536800DA64FB681B681C4A934204D0FB681B681C
:105378001A4A934201D11D4B00E01D4BBB67FB68E5
:105388001B681C221A60FB68002283F85020FB6807
:105398001B685A68FB681B6842F010025A60FB6879
:1053A800D86CBB6F0C331946BA687B6803F066FA91
:1053B800034687F87F30FB681B681846FFF7E2F959
:1053C80003E0FB68002283F8502097F87F301846E6
:1053D8008037BD4680BD00BF00200240002102404A
:1053E8001B401008F34010080F411008002302402A
:1053F8000063025880B5A0B000AF78607B6893F86E
:105408005030012B01D10223B4E07B68012283F8DC
:10541800502003217868FEF757FC034687F87F3051
:1054280097F87F30002B40F09F8000233B660023D5
:105438007B667B681B68514A934202D1504BFB60E4
:1054480001E00023FB60FB68002B0BD17B685B6DE0
:1054580043F020027B685A657B68002283F850205D
:10546800012387E001F002FB7867FB681846FFF725
:10547800B1F9B86727E001F0F9FA02467B6FD31A51
:10548800052B1BD9FB681846FFF7A4F9B8677B689A
:105498001B681846FFF79EF90346012B02D0BB6F25
:1054A800012B0BD17B685B6D43F010027B685A655A
:1054B8007B68002283F8502001235BE0FB681846D4
:1054C800FFF788F9B8677B681B681846FFF782F909
:1054D8000346012BCFD0BB6F012BCCD07B68DB6C94
:1054E800184603F035FC034687F87F3097F87F307D
:1054F800012B05D17B685B6D43F040027B685A65E0
:105508007B681B685A687B681B6822F010025A6027
:1055180097F87F30002B15D107F10C031846FEF7DA
:1055280019FD034687F873307868FEF713FD0346C4
:10553800002B0FD197F87330002B0BD1002387F87D
:105548007F3007E07868FEF705FD07F10C03184681
:10555800FEF700FD7B685B6D23F4885323F001039D
:1055680043F001027B685A657B68002283F850206B
:1055780097F87F3018468037BD4680BD002002402E
:105588000021024080B485B000AF78607B681B685A
:10559800094A934204D07B681B68084A934201D1A8
:1055A800074B00E0074BFB60FB68DB6818461437C5
:1055B800BD465DF8047B7047002002400021024090
:1055C800002302400063025880B485B000AF7860C1
:1055D80039603B6840F21B3293420ED03B68B3F50A
:1055E800477F1CD23B6840F20F12934211D03B68B0
:1055F80040F21522934206D011E07B681B68D3F86D
:105608008C30FB6011E07B681B68D3F88830FB6046
:105618000BE07B681B68D3F88430FB6005E07B688F
:105628001B68D3F88030FB6000BFFB68184614374E
:10563800BD465DF8047B704780B483B000AF7860E6
:1056480000BF0C37BD465DF8047B704780B483B05B
:1056580000AF786000BF0C37BD465DF8047B70472B
:1056680080B483B000AF786000BF0C37BD465DF8EA
:10567800047B704780B483B000AF786000BF0C37FC
:10568800BD465DF8047B704780B483B000AF786096
:1056980000BF0C37BD465DF8047B704780B584B009
:1056A80000AF78607B6893F85030012B01D102235A
:1056B80038E07B68012283F8502001217868FEF7E2
:1056C80003FB0346FB73FB7B002B26D17B685B6DDA
:1056D80023F480727B685A657B681B681846FFF75D
:1056E800A0F80346002B12D17868FEF733FC034676
:1056F800FB73FB7B002B10D17B685B6D23F480531D
:1057080023F0010343F001027B685A6505E07B68DA
:105718005B6D43F480527B685A657B68002283F88E
:105728005020FB7B18461037BD4680BD80B584B03D
:1057380000AF78607B6893F85030012B01D10223C9
:1057480040E07B68012283F8502001217868FEF749
:10575800BBFA0346FB73FB7B002B2ED17B685B6D8A
:1057680023F480727B685A657B681B685A687B687B
:105778001B6822F01C025A607B681B681846FFF7FA
:1057880050F80346002B12D17868FEF7E3FB034676
:10579800FB73FB7B002B10D17B685B6D23F480537C
:1057A80023F0010343F001027B685A6505E07B683A
:1057B8005B6D43F480527B685A657B68002283F8EE
:1057C8005020FB7B18461037BD4680BD80B584B09D
:1057D80000AF78607B6893F85030012B01D1022329
:1057E8005FE07B68012283F8502001217868FEF78A
:1057F8006BFA0346FB73FB7B002B4DD17B685B6D1B
:1058080023F480727B685A657B681B68DA687B685A
:105818001B6822F00302DA607B68DB6C184603F031
:1058280097FA0346FB73FB7B002B05D07B685B6D07
:1058380043F040027B685A657B681B685A687B683E
:105848001B6822F010025A607B681B681846FEF736
:10585800E8FF0346002B19D1FB7B002B05D17868A4
:10586800FEF778FB0346FB7302E07868FEF772FBED
:10587800FB7B002B10D17B685B6D23F4805323F0F6
:10588800010343F001027B685A6505E07B685B6DA4
:1058980043F480527B685A657B68002283F8502065
:1058A800FB7B18461037BD4680BD000080B59EB012
:1058B80000AF78607B6893F85030012B01D1022348
:1058C800C1E07B68012283F8502001217868FEF747
:1058D800FBF9034687F8773097F87730002B40F0CC
:1058E800AC807B685B6D23F480727B685A6500230B
:1058F800FB6500233B667B681B68554A934202D1CF
:10590800544BBB6001E00023BB60BB68002B0BD18C
:105918007B685B6D43F020027B685A657B680022D8
:1059280083F8502001238EE001F0A0F8F866BB68E8
:105938001846FEF74FFF386727E001F097F8024650
:10594800FB6ED31A052B1BD9BB681846FEF742FF1E
:1059580038677B681B681846FEF73CFF0346012B37
:1059680002D03B6F012B0BD17B685B6D43F01002BB
:105978007B685A657B68002283F85020012362E027
:10598800BB681846FEF726FF38677B681B68184611
:10599800FEF720FF0346012BCFD03B6F012BCCD065
:1059A8007B68DB6C184603F0D3F9034687F8773039
:1059B80097F87730002B05D07B685B6D43F0400289
:1059C8007B685A657B681B685A687B681B6822F08D
:1059D80010025A6097F87730002B2ED17B681B682D
:1059E8001846FEF71EFF0346002B18D17868FEF70D
:1059F800B1FA034687F8773097F87730002B0ED145
:105A0800BB681846FEF70DFF0346002B07D107F1C8
:105A180008031846FEF79EFA034687F8773097F88A
:105A28007730002B09D17B685B6D23F4805323F01A
:105A3800010343F001027B685A657B68002283F802
:105A4800502097F8773018467837BD4680BD00BF9C
:105A5800002002400021024090B5BBB000AF786042
:105A68003960002387F8E7300023FB600023C7F87C
:105A7800E0303B68DB689D4A93427B6893F850307E
:105A8800012B02D1022300F057BD7B68012283F865
:105A980050207B68DB68002B03D03B681B6A012B16
:105AA80030D13B685B68092B79D13B689B6A002B36
:105AB80010D03B681B689B0E5B0203F478523B686E
:105AC8009B6A03F07C031A433B68DB6A1343C7F8FD
