:020000040810E2
:10000000008004101D0710084F0810085108100840
:100010005308100855081008570810080000000081
:100020000000000000000000000000005908100857
:100030005B081008000000005D0810085F08100849
:100040006D0710086D0710086D0710086D07100880
:100050006D0710086D0710086D0710086D07100870
:100060006D0710086D0710086D0710086D07100860
:100070006D0710086D0710086D0710086D07100850
:100080006D0710086D0710086D0710086D07100840
:100090006D0710086D0710086D0710086D07100830
:1000A0006D0710086D0710086D0710086D07100820
:1000B0006D0710086D0710086D0710086D07100810
:1000C0006D0710086D0710086D0710086D07100800
:1000D0006D0710086D0710086D0710086D071008F0
:1000E0006D0710086D071008000000006D0710086C
:1000F0006D0710086D0710086D0710086D071008D0
:100100006D0710086D0710086D0710086D071008BF
:100110006D0710086D0710086D0710086D071008AF
:100120006D0710086D0710086D0710086D0710089F
:100130006D0710086D0710086D0710086D0710088F
:100140006D0710086D071008000000000000000097
:100150006D0710086D0710086D0710086D0710086F
:100160006D0710086D0710086D0710086D0710085F
:100170006D0710086D0710086D07100800000000DB
:100180006D0710086D0710086D0710086D0710083F
:100190006D0710086D0710086D0710086D0710082F
:1001A0006D0710086D0710086D0710086D0710081F
:1001B0006D0710086D0710086D0710086D0710080F
:1001C0006D0710086D0710086D0710086D071008FF
:1001D0006D0710086D0710086D0710086D071008EF
:1001E0006D0710086D0710086D0710086D071008DF
:1001F0006D0710086D0710086D0710086D071008CF
:100200006D0710086D0710086D0710086D071008BE
:100210006D0710086D0710086D0710086D071008AE
:100220006D0710086D0710086D071008000000002A
:100230006D0710086D0710086D0710086D0710088E
:100240006D0710086D0710086D0710086D0710087E
:100250006D0710086D0710086D0710086D0710086E
:100260006D0710086D0710086D0710086D0710085E
:100270006D0710086D0710086D0710086D0710084E
:100280006D0710086D0710086D07100800000000CA
:080290006D0710086D0710084E
:1002980010B5054C237833B9044B13B10448AFF3B8
:1002A80000800123237010BD8000001000000000B2
:1002B8002437120808B5034B1BB103490348AFF3B1
:1002C800008008BD000000008400001024371208D8
:1002D800A3F5803A704700BF174B002B08BF134B9C
:1002E8009D46FFF7F5FF00218B460F461348144A39
:1002F800121A23F043F80E4B002B00D098470D4BF1
:10030800002B00D098470020002104000D000D4864
:10031800002802D00C48AFF3008022F0C3FF200071
:10032800290000F0BBFA22F0A9FF00BF0000080076
:100338000000000000000000000000008000001025
:10034800A00100100000000000000000F44D130898
:10035800000000108000001080000010A0010010B4
:100368007BB972B90029BEBF00204FF0004106E0FA
:1003780008BF00281CBF6FF000414FF0FF3000F0AD
:10038800BFB9ADF1080C6DE904CE002909DB002BDB
:100398001ADB00F04DF8DDF804E0DDE9022304B0D3
:1003A8007047404261EB4101002B1BDB00F040F835
:1003B800DDF804E0DDE9022304B0404261EB4101CD
:1003C800524263EB43037047524263EB430300F02E
:1003D8002FF8DDF804E0DDE9022304B0404261EBC8
:1003E80041017047524263EB430300F021F8DDF806
:1003F80004E0DDE9022304B0524263EB4303704793
:1004080053B94AB9002908BF00281CBF4FF0FF3173
:100418004FF0FF3000F074B9ADF1080C6DE904CE6F
:1004280000F006F8DDF804E0DDE9022304B07047C7
:100438002DE9F047089D04468E46002B4DD18A428F
:10044800944669D9B2FA82F252B101FA02F3C2F1C2
:10045800200120FA01F10CFA02FC41EA030E944053
:100468004FEA1C48210CBEFBF8F61FFA8CF708FB74
:1004780016E341EA034306FB07F199420AD91CEB4C
:10048800030306F1FF3080F01F81994240F21C817E
:10049800023E63445B1AA4B2B3FBF8F008FB1033C6
:1004A80044EA034400FB07F7A7420AD91CEB0404FB
:1004B80000F1FF3380F00A81A74240F207816444CB
:1004C800023840EA0640E41B00261DB1D440002350
:1004D800C5E900433146BDE8F0878B4209D9002DB4
:1004E80000F0EF800026C5E9000130463146BDE83E
:1004F800F087B3FA83F6002E4AD18B4202D38242A8
:1005080000F2F980841A61EB030301209E46002D56
:10051800E0D0C5E9004EDDE702B9FFDEB2FA82F2AB
:10052800002A40F09280A1EB0C014FEA1C471FFA09
:100538008CFE0126200CB1FBF7F307FB131140EAF0
:1005480001410EFB03F0884208D91CEB010103F1BD
:10055800FF3802D2884200F2CB804346091AA4B27F
:10056800B1FBF7F007FB101144EA01440EFB00FE53
:10057800A64508D91CEB040400F1FF3102D2A645B8
:1005880000F2BB800846A4EB0E0440EA03409CE757
:10059800C6F12007B34022FA07FC4CEA030C20FA04
:1005A80007F401FA06F31C43F9404FEA1C4900FA24
:1005B80006F3B1FBF9F8200C1FFA8CFE09FB1811A1
:1005C80040EA014108FB0EF0884202FA06F20BD914
:1005D8001CEB010108F1FF3A80F08880884240F264
:1005E8008580A8F102086144091AA4B2B1FBF9F0A8
:1005F80009FB101144EA014100FB0EFE8E4508D9A3
:100608001CEB010100F1FF346CD28E456AD9023827
:10061800614440EA0840A0FB0294A1EB0E01A1420C
:10062800C846A64656D353D05DB1B3EB080261EB7A
:100638000E0101FA07F722FA06F3F1401F43C5E954
:10064800007100263146BDE8F087C2F12003D8408A
:100658000CFA02FC21FA03F3914001434FEA1C47CC
:100668001FFA8CFEB3FBF7F007FB10360B0C43EABE
:10067800064300FB0EF69E4204FA02F408D91CEB6E
:10068800030300F1FF382FD29E422DD9023863446C
:100698009B1B89B2B3FBF7F607FB163341EA03410C
:1006A80006FB0EF38B4208D91CEB010106F1FF385B
:1006B80016D28B4214D9023E6144C91A46EA004652
:1006C80038E72E46284605E70646E3E61846F8E6E4
:1006D8004B45A9D2B9EB020864EB0C0E0138A3E72D
:1006E8004646EAE7204694E74046D1E7D0467BE70E
:1006F800023B614432E7304609E76444023842E786
:10070800704700BF034613F8012B002AFBD1181AC3
:1007180001387047DFF834D0002103E00C4B5B58F8
:10072800435004310B480C4B42189A42F6D30B4AFB
:1007380002E0002342F8043B094B9A42F9D300F047
:10074800E3F822F0AFFD00F0A9F87047008004102C
:10075800F44D130800000010800000108000001005
:10076800A0010010FEE770477047704701207047EE
:1007780008B522F07DFD162303604FF0FF3008BD59
:1007880008B522F075FD16230360FEE770B50D4627
:1007980014460E46731B9C4201DC204670BDAFF325
:1007A800008006F8010BF5E770B50D4614460E46B5
:1007B800731B9C4201DC204670BD16F8010BAFF399
:1007C8000080F5E74FF0FF3070474FF400534B605F
:1007D8000020704701207047002070470EB44FF08A
:1007E800FF3003B0704708B522F042FD0A230360CA
:1007F8004FF0FF3008BD08B522F03AFD0223036030
:100808004FF0FF3008BD4FF0FF3070474FF40053F2
:100818004B600020704708B522F02AFD1F230360B3
:100828004FF0FF3008BD08B522F022FD0B2303600E
:100838004FF0FF3008BD08B522F01AFD0C23036005
:100848004FF0FF3008BD7047FEE7FEE7FEE7FEE722
:100858007047704770470DF059BA00000B4A11688D
:1008680010B5034609B90A491160106809490A4CCC
:100878000344091B8B4206D922F0FAFC0C230360BF
:100888004FF0FF3010BD1360FCE700BFA000001060
:10089800A00100100080041000040000174B07B5E9
:1008A800D3F8E02042F00072C3F8E020D3F8E0303B
:1008B80003F0007301200193019B01F0AFFA09F0E6
:1008C800E7FA01220221002009F0A0FA0C4B1B686C
:1008D800C3F30313072B0B4B0BBFD3F80421D3F837
:1008E800142142F0010242F001020CBFC3F80421B6
:1008F800C3F814210DF0BCF9FEE700BF004402580C
:1009080000ED00E000640258074BD3F8882042F459
:100918007002C3F888201A6942F010021A614FF079
:1009280001629A60704700BF00ED00E0464A136913
:1009380003F03803102B30B500F08180182B19D044
:10094800002B7ED11268414BC2F3C102D3403E4A0C
:100958003F4891699269C1F3032102F00F02415C9B
:10096800825CCB4002F01F02D3403A4A13603A4AF5
:10097800136030BD906A956AD46A516B15F47C7F18
:10098800C5F30513E3D007EE903AC1F3CC0304F0A6
:1009980001014B43F8EEE76A00F0030007EE903AD6
:1009A8000128FAEEE97AF7EE005A3AD0022828D060
:1009B800B8BB1168136B254AC1F3C101CA4007EEE1
:1009C800102AB8EEC76AC3F3080386EE267A06EE45
:1009D800903AF8EEE66A76EEA77A77EEA57A1A4BA1
:1009E8001B6BC3F34623013367EE877A07EE103A91
:1009F800F8EEC76A87EEA67AFCEEC77A17EE903A49
:100A0800A5E7136B9FED156AC3F3080307EE103AC9
:100A1800B8EEC77A77EE277A77EEA57A86EE267A49
:100A2800DDE7136B9FED0E6AC3F3080307EE103A78
:100A3800B8EEC77A77EE277A77EEA57AEEE7094B14
:100A480085E7094B83E700BF004402580090D003B4
:100A5800883712080C000010080000100024F44A1F
:100A68000024744A00127A0000093D0000487047CB
:100A78000000030130B502288BB03ED8204BD3F8D4
:100A8800E02010BB42F00202C3F8E020D3F8E030C7
:100A980003F002030293029B1A4B002433F8105010
:100AA80005950123CDE9063403230893164B05A9C0
:100AB80053F8200001900CF059FD01982246294670
:100AC8000CF0E6FE20460BB030BD01280AD142F0FA
:100AD8001002C3F8E020D3F8E03003F010030393CA
:100AE800039BD9E742F00202C3F8E020D3F8E030D4
:100AF80003F002030493049BCEE76FF00100E2E7E2
:100B08000044025898371208A0371208022807B57F
:100B1800034612D80A4A52F820000A4A32F813103B
:100B28000022CDE900010CF0B3FEDDE900010CF074
:100B380007FE002003B05DF804FB6FF00100F9E741
:100B4800A037120898371208022808B50AD8074BA8
:100B580033F81010064B012253F820000CF098FED1
:100B6800002008BD6FF00100FBE700BF98371208AE
:100B7800A0371208022808B50AD8074B33F8101016
:100B8800064B002253F820000CF082FE002008BD1E
:100B98006FF00100FBE700BF98371208A037120872
:100BA800022808B509D8064B33F81010054B53F83E
:100BB80020000CF072FE002008BD6FF00100FBE77A
:100BC80098371208A0371208022808B508D8064B2B
:100BD80033F81010054B53F820000CF053FE08BDF5
:100BE8006FF00100FBE700BF98371208A037120822
:100BF8001C4B10B5D3F8E02042F00402C3F8E02003
:100C0800D3F8E03086B003F004030093009B4FF460
:100C1800005301930223CDE90333044639B9029105
:100C2800114801A90CF0A2FC002006B010BD0F4B22
:100C38000D48029301A90CF099FC0D4B0D4903EBEB
:100C4800C404204607F061FB0B4A0021204607F048
:100C580055FB00220F21282000F09AFE282000F0E2
:100C6800C9FEE1E7004402580008025800001111CB
:100C7800340100100D007016C70C100808B52820A4
:100C880000F0C6FE03484FF400510CF059FD002057
:100C980008BD00BF0008025808B54FF400510248CB
:100CA8000CF0F0FD08BD00BF00080258024B03EB32
:100CB800C00007F030BB00BF34010010704708B512
:100CC8000020FFF7FBFF08BD10B5E8B9104B114C29
:100CD8001B68114823604FF480710CF031FD0E48F9
:100CE8004FF400710CF02CFD0C4AD2F8E83023F4D4
:100CF8008023C2F8E830204610F097FB00280CBF8C
:100D080000206FF0030010BD6FF00100FBE700BF8B
:100D180010000010A4000010000C025800440258F3
:100D2800094A126802600A6842600C2242614A89D4
:100D380002614A6882600A89C2608A8982614FF4C6
:100D48000042C26111F0C3BE1000001070B50C461D
:100D580088B0002846D1254B2548D3F8E02042F03A
:100D68000802C3F8E020D3F8E02002F0080200925D
:100D7800009AD3F8E02042F00802C3F8E020D3F844
:100D8800E02002F008020192019AD3F8E82042F428
:100D98008022C3F8E820D3F8E83003F480230293D4
:100DA8000225029B06954FF48073CDE9033507268B
:100DB800012303A9059307960CF0D8FB4FF40073A1
:100DC8000B48079603A9CDE903350CF0CFFB09487A
:100DD8002146FFF7A5FF00280CBF00206FF0030095
:100DE80008B070BD6FF00100FAE700BF0044025878
:100DF800000C0258A400001030B50849C4B2C0F372
:100E08000425030E03FA05F26358C0F3074023EAEA
:100E18000203A8401843605030BD00BF4C4402583C
:100E28002A4B98420ED12A4BD3F8902042F40072F4
:100E3800C3F89020D3F8902022F40072C3F89020D1
:100E480000207047234B98420ED103F50833D3F89E
:100E58009C2042F40072C3F89C20D3F89C2022F412
:100E68000072C3F89C20EBE71B4B98420CD103F5AA
:100E78000733D3F89C2042F48062C3F89C20D3F84F
:100E88009C2022F48062ECE7144B98420CD103F5C5
:100E98000633D3F89C2042F40062C3F89C20D3F8B0
:100EA8009C2022F40062DCE70D4B98420CD103F53C
:100EB8000533D3F89C2042F48052C3F89C20D3F821
:100EC8009C2022F48052CCE7012070470024004087
:100ED800004402580024005800280058002C0058EC
:100EE800003000580023C0E90033C0E902337047DE
:100EF800026912F0010230B50DD1D1E900352B435A
:100F08008D68C968C4682B430B43044921400B43CF
:100F1800C360104630BD0120FCE700BFFEF1CFFFE3
:100F28002DE9F047044688B072B6534B98423FD03B
:100F380024D803F16843984231D00025A768D4F833
:100F48000C806669D4F818A0D4F824902046FFF7DE
:100F580067FF01A801F01AF9002E79D1BAF1000F44
:100F680030D1236923F001032361A760C4F80C8002
:100F7800C4F8249062B608B0BDE8F0873F4B9842A9
:100F880005D020F48062A3F500639A42D5D13C4B8A
:100F98003C4DD3F85834DB0003F4E02306E0384B2B
:100FA800394DD3F854341B0B03F4E0231D43C5E734
:100FB800334B364DD3F858349B0103F4E023F5E75F
:100FC800324808E02C4B9C42FAD036D803F16843EB
:100FD8009C4218D12C48FFF70FFF8EB1236943F0CC
:100FE80001032361019B66612268110703F1FF3346
:100FF80001D4002BF8D10193636843F008036360C0
:10100800BAF1000F15D0236943F00103236101A849
:10101800C4F818A001F0BAF8019B2268D20603F1BF
:10102800FF3301D4002BF8D10193636843F0100318
:1010380063602846FFF7E0FE93E7104B9C4205D01B
:1010480024F48062A3F500639A42DCD10D48C2E71C
:10105800094B9C42B4D004D803F168439C42B9D0F0
:10106800BCE7064B9C42F1D024F48062A3F50063F0
:101078009A42EBD0B2E700BF002400580030005875
:10108800004002580C0D0007081C00070C0A000756
:10109800084B98420CD1084BD3F8902042F00052EC
:1010A800C3F89020D3F8902022F00052C3F8902083
:1010B80000207047007400400044025830B501F029
:1010C80010010568012303FA01F4AC4324D0D2E9E6
:1010D80000350468D5B12B4395682B4340F6FC7561
:1010E8008D408B4024EA050423430360D2E903358D
:1010F8005269C46B2B43134307228B4002FA01F158
:1011080024EA01010B43C363002030BDFC258D4058
:1011180024EA05048B40E7E71846F6E70023C0E910
:101128000033C0E90233C0E90433704701F0030318
:10113800032B17D11D4BDA6822F03002DA60D3F89E
:101148000C2122F03002C3F80C21DA680243DA607D
:10115800D3F80C211043C3F80C019A6942F010022D
:101168009A617047CA070BD5104BDA6822F0300233
:10117800DA60DA680243DA60DA6842F08802DA6034
:101188008B0711D5094BD3F80C2122F03002C3F894
:101198000C21D3F80C211043C3F80C01D3F80C210F
:1011A80042F08802C3F80C21704700BF00200052AB
:1011B800F8B5AF4E337D012B044600F0568101216E
:1011C80000234CF250303175B36112F0E5FB18B1D1
:1011D800012000233375F8BD02214CF2503012F083
:1011E800DBFB0028F4D12768F9071AD56568E2699E
:1011F800A368012D02F0010102F0020240F02281F1
:1012080031B19C4DE96B5FFA83FC21EA0C01E9637B
:101218003AB19849D1F83C21DBB222EA0303C1F87C
:101228003C31BA0706D5934AE168136A23F47F4331
:101238000B4313627B0740F18380D4E9055115F015
:1012480001031ABF01F0100310221A4615F4007F9B
:101258001EBF01F0200C43EA0C0342F0200215F0F7
:10126800020F1EBF01F0400C43EA0C0342F040029B
:1012780015F0040F1EBF01F0800C43EA0C0342F086
:10128800800215F0080F1EBF01F4003C43EA0C036E
:1012980042F4003215F0100F1EBF01F4802C43EA0F
:1012A8000C0342F4802215F0200F1EBF01F4C01C6D
:1012B80043EA0C0342F4C01215F0400F1EBF01F4BC
:1012C800001C43EA0C0342F4001215F4806F1EBFA1
:1012D80001F4800C43EA0C0342F4800215F4006F19
:1012E8001EBF01F4000C43EA0C0342F4000215F49B
:1012F800805F1EBF01F0807C43EA0C0342F08072DD
:1013080015F4005F1EBF01F0007C43EA0C0342F0B5
:10131800007215F4807F1EBF01F0004C43EA0C03F5
:1013280042F000422D06534D44BF01F000510B43DB
:10133800296A48BF42F0005221EA020213432B6295
:101348003D0723D5D4F81CE0A16A1EF0010FD4E9AB
:1013580008250CD00B021B0C05F1784C42EA1C2C1A
:101368001B0443EA0C03DFF80CC1CCF82C301EF048
:10137800020F0BD0A1F10161A5F101653D4B090AEE
:1013880042EA152242EA0142C3F82C21F90606D5A1
:10139800384A2169136A23F00C030B4313627A0657
:1013A80013D5E56AD4F834C0EB0706D5314B618E06
:1013B8005A6C120C12040A435A64AD0705D52D4A1B
:1013C800536C9BB243EA0C035364390613D5A56BDF
:1013D800D4F840C0EA0706D5264BE18FDA6C120C28
:1013E80012040A43DA64AB0705D5224AD36C9BB2D0
:1013F80043EA0C03D364BD067FF5EBAEE569E26C06
:10140800D4E91137EC070BD503F0004407F1784114
:1014180044EA11211402240C24042143154C61636D
:10142800A9077FF5D6AEA7F1016103F00043A2F149
:101438000162120A43EA112343EA02430D4AC2F841
:101448003431C6E631B10B4DD5F83CC0D9B241EACA
:101458000C01E963002A3FF4E4AE064AD2F83C11D5
:10146800DBB20B43C2F83C31DBE60220B3E600BF37
:1014780040010010002000521623324A0360D3694D
:1014880003F47F43B3F52A4F30B504D0B3F54C4F7E
:1014980018BF4FF4AA43C360D369C46923F47F43D8
:1014A80023F00C038361D36903F00C030361631E0B
:1014B800012B35D83F230360012C0CBF936BD2F866
:1014C8003831DB43DBB28360003B18BF0123436044
:1014D8001C4B012C0CBF9A6AD3F8282102F0004358
:1014E8000362194B0CBF4FF000614FF0016103EA32
:1014F800022503EA12220A4482620D44114A456217
:10150800012C0CBF126BD2F8302102F00044446465
:1015180003EA022403EA12230C440B448464C364E0
:10152800084B1A6C1104016308490A4042630268B7
:1015380042F0C00202609B6C1A040B40C263036451
:1015480030BD00BF0020005200FF0F000000FFFF69
:10155800064BD86810F0010007D0054A5A6002F11E
:1015680088325A60D86800F00100704700200052A5
:1015780023016745034AD36843F00103D360002081
:10158800704700BF00200052084BD3F80C0110F040
:1015980001000AD0064AC3F8042102F18832C3F8D0
:1015A8000421D3F80C0100F001007047002000521C
:1015B80023016745044AD2F80C3143F00103C2F80D
:1015C8000C310020704700BF0020005238B5044697
:1015D8004CF250300D4612F0E7FA002833D1A368D8
:1015E800D4E90021012B42EA0100504B44D1D968CB
:1015F80041F40041D960596941F0C0515961196DF0
:10160800014341F40031B2F5807F196527D11A6D85
:1016180042F480621A65D4E903201044904213D83A
:10162800424C236D43F48033236501214CF2503042
:1016380012F0E2FAE36D2B60E36823F40043E36001
:101648004FF0C053636138BD196D21F0070119656A
:10165800196D114341F4007119650132DEE734490F
:101668008A4215BFD4E905121A6D596542F4800201
:101678000CBF1A659A65D3E7D3F80C1141F4004101
:10168800C3F80C11D3F8141141F0C051C3F8141168
:10169800D3F85011014341F40031B2F5807FC3F80B
:1016A800501132D1D3F8502142F48062C3F850214E
:1016B800D4E903201044904218D81C4CD4F8503177
:1016C80043F48033C4F8503102214CF2503012F008
:1016D80093FAE36D2B60D4F80C3123F40043C4F87B
:1016E8000C314FF0C053C4F81431ACE7D3F85011A3
:1016F80021F00701C3F85011D3F85011114341F4F8
:101708000071C3F850110132D5E709498A4215BF63
:10171800D4E90512D3F85021C3F8541142F48002D9
:101728000CBFC3F85021C3F85821C6E70020005267
:101738000001400010B5CC070BD50F4CE36823F42B
:10174800E663E360E36843EA0023134343F084035A
:10175800E3608B070FD50849D1F80C3123F4E66311
:10176800C1F80C31D1F80C3143EA0020024342F0B1
:101778008402C1F80C2110BD002000522DE9F04769
:10178800464E337D012B05460F4600F0848001212B
:101798003175446800230C40B36106D04CF25030D8
:1017A80012F0FAF8041E18BF01246B68980706D4D3
:1017B8006CB10124002333752046BDE8F08702216F
:1017C8004CF2503012F0E8F80028F1D0F1E7D5F8E3
:1017D8000080B8F1010F26D169682869FFF7A6FCD7
:1017E8006B68D9070CD541464CF2503012F0D4F84A
:1017F8002B4AD368041E23F0080318BF0124D360C2
:101808006B689A07D6D502214CF2503012F0C4F812
:10181800234AD2F80C31002823F0080318BF01240A
:10182800C2F80C31C6E74FF0FF333B60D5F808A08B
:10183800DFF86C80DFF86C90D5E902231344534538
:10184800B8D950462A696968FFF774FF686810F0CC
:1018580001000AD001214CF2503012F09DF8D8F85E
:101868000C3003EA0903C8F80C306B689B070AD5EB
:1018780002214CF2503012F08FF8D8F80C3103EAFC
:101888000903C8F80C3118B1C7F800A0044691E75D
:101898000AF1010AD0E702248EE700BF40010010D8
:1018A80000200052FBF8FFFF70B52A4D2B7D012B5D
:1018B80006464DD001212975446800230C40AB61D0
:1018C80006D04CF2503012F067F8041E18BF0124FD
:1018D800736899071CD414BB7168CA0741BF1E4AB4
:1018E800D36843F4DE03D3608B0741BF1A4AD2F8AA
:1018F8000C3143F4DE03C2F80C313368012B18D1E4
:10190800012911D102232B703069FFF70FFC09E080
:1019180002214CF2503012F03FF80028DBD00023AF
:101928002B750124204670BD02290CBF052307230F
:10193800E9E701291CBF04232B70B068F3683269FA
:1019480008BF29706B60E860AA60FFF7F3FEE9E75B
:101958000224E7E74001001000200052024B3F221A
:101968001A620020704700BF004802580749CA6839
:1019780022F4E0620302120403F4E063120C13433E
:1019880043F0BF6343F40033CB60704700ED00E0E1
:10199800164B30B5DC68C4F30224C4F10705231DD7
:1019A800042D28BF0425062B4FF0FF338CBF033CC2
:1019B800002403FA05F521EA0501A34022EA0302FF
:1019C800A140002841EA0203ACBF00F16040084A88
:1019D8004FEA0313B8BF00F00F00DBB2AABF00F54F
:1019E8006140135480F8003330BD00BF00ED00E0C3
:1019F80014ED00E0002808DB0123420900F01F0075
:101A080003FA00F0014B43F82200704700E100E0C0
:101A180000280DDB4309012200F01F0002FA00F044
:101A28002033044A42F82300BFF34F8FBFF36F8F70
:101A3800704700BF00E100E0BFF34F8F0549064B38
:101A4800CA6802F4E0621343CB60BFF34F8F00BF54
:101A5800FDE700BF00ED00E00400FA050138B0F131
:101A6800807F0BD24FF0E023054A5861F02182F8BD
:101A780023100020072298611A61704701207047DF
:101A880000ED00E0BFF35F8F044B5A6A22F4803206
:101A98005A620022C3F89420704700BF00ED00E0AE
:101AA800064B40F00100C3F894005A6A42F48032B1
:101AB8005A62BFF34F8FBFF36F8F704700ED00E09E
:101AC800144A437810B5C2F898300178E9B14368F0
:101AD800C2F89C30C37A047B1B0643EA04730B43A9
:101AE800817A43EAC143417B43EA8143817B43EAEC
:101AF8004143C17B43EA0143417A43EA0123017A26
:101B080043EA4103C2F8A03010BDC2F89C10C2F8E5
:101B1800A010F9E700ED00E0024BD868C0F30220FE
:101B2800704700BF00ED00E070B50028AEBF00F1BF
:101B38006040134C00F00F0001F00701AABF00F548
:101B48006140205C90F80003C1F107040D1D042CCE
:101B580028BF0424062D4FEA10108CBF033900213A
:101B68004FF0FF3520FA01F605FA04F405FA01F101
:101B780026EA040420EA01001460186070BD00BF62
:101B880014ED00E0002809DB4309012200F01F00E2
:101B980002FA00F04033024A42F82300704700BFBF
:101BA80000E100E00028A1BF43094033054A52F88C
:101BB8002330A3BF00F01F0023FA00F000F001005B
:101BC8000020704700E100E0002809DB43090122FA
:101BD80000F01F0002FA00F06033024A42F82300C6
:101BE800704700BF00E100E00028A1BF430980332F
:101BF800054A52F82330A3BF00F01F0023FA00F073
:101C080000F001000020704700E100E04FF0E02301
:101C180004281A690CBF42F0040222F004021A6177
:101C28007047704708B5FFF7FCFF08BD044B1B68F9
:101C3800C3F30313072B0CBF03200120704700BF19
:101C480000ED00E0214B98420ED1214BD3F89020B3
:101C580042F40012C3F89020D3F8902022F4001226
:101C6800C3F89020002070471A4B98420BD1184BAC
:101C7800D3F8902042F48002C3F89020D3F8902043
:101C880022F48002ECE7144B98420BD1104BD3F8A6
:101C9800902042F40002C3F89020D3F8902022F458
:101CA8000002DDE70D4B98420ED103F50A33D3F855
:101CB8009C2042F08002C3F89C20D3F89C2022F09C
:101CC8008002C3F89C20CDE70120704700540040F3
:101CD8000044025800580040005C0040001C0058B6
:101CE800036823F0010310B50360D1E902340268E8
:101CF80043EA042322F4F852134303604B68036158
:101D080003680C6943F001030360836823F400430C
:101D1800836082688B6922F4FF62234322F0070202
:101D2800134383601CB1836843F4004383600368F2
:101D38000A6823F440131343036043684A6923F491
:101D4800004313434360002010BD00234FF40042BA
:101D5800C0E90033C0E90233C0E9052303617047D5
:101D6800074BD3F8942042F00202C3F89420D3F82A
:101D7800942022F00202C3F894200020704700BF8C
:101D880000440258064B41F0004141F4807143F889
:101D9800201053F82000081A18BF0120704700BF10
:101DA80000640258044B203053F82000034BC01A3B
:101DB80018BF0120704700BF00640258000100806E
:101DC800024B53F82000C00F704700BF0064025850
:101DD800024B41F4807143F82010704700640258A8
:101DE800034B090241EA0040C3F84001704700BFB5
:101DF80000640258044AD2F844319BB243EA0040D6
:101E0800C2F84401704700BF00640258024BD3F87F
:101E18004401000C704700BF00640258024A13696D
:101E280018431061704700BF00650258024A1369E1
:101E380023EA0000106170470065025870470000EF
:101E480008B5054BD8691A6922EA00021A61586177
:101E5800FFF7F4FF08BD00BF00650258024B186881
:101E6800C0F34040704700BF00440258024B186856
:101E7800C0F38000704700BF00440258024B186846
:101E8800C0F30020704700BF00440258024B186F8F
:101E9800C0F34000704700BF00440258C2B202F1CC
:101EA800B04202F51032C0F30421D2F84C24030EDC
:101EB8008B401340CB4040EA03407047024B186800
:101EC800C0F34060704700BF00440258024B1868D6
:101ED800C0F3C060704700BF00440258024B186846
:101EE800C0F34070704700BF00440258044B054AD5
:101EF8009B6903F00F03D35C03F01F03D8407047BE
:101F080000440258AC371208044B054ADB69C3F396
:101F18000213D35C03F01F03D840704700440258F3
:101F2800AC371208044B054ADB69C3F30223D35CC0
:101F380003F01F03D840704700440258AC3712081A
:101F4800044B054A1B6AC3F30213D35C03F01F0357
:101F5800D840704700440258AC371208294A08B5DF
:101F6800136803F00F03062B9FBF136823F00F03BA
:101F780043F007031360244A136843F00103136016
:101F8800FFF774FF0028FBD00023136111681F4B73
:101F98000B401360FFF792FF0028FBD1FFF796FF75
:101FA8000028FBD1FFF79AFF0028FBD1164B184AEF
:101FB8009861D86118629A62164ADA62164A1A63F8
:101FC80058639A63D8631A6458641A6822F48022A2
:101FD8001A6018669A6E6FEAD2226FEAC2229A666F
:101FE800D3F8D02042F48032C3F8D020054A1368D1
:101FF8001B0741BF136823F00F0343F00703136067
:1020080008BD00BF002000520044025845EDF6EA22
:10201800000202020000FF018002010107EE900A9F
:10202800F8EE676A07EE901AF8EE677A9FED0D6A88
:1020380086EEA77A07EE903AF8EE676A07EE902ADE
:10204800F8EE677AE6EE867A67EE277A9DED007AF3
:10205800B8EE477AC7EE876AFCEEE67A17EE900A82
:10206800704700BF000000392F4A936A03F003034A
:10207800012B73B505464AD0022B4ED013B9FFF792
:10208800F5FE08B9002404E01368284CC3F3C10323
:10209800DC400023C5E900332348AB60816A026B4A
:1020A800C36A13F0010318BF436BC1F3051118BFCE
:1020B800C3F3CC0349B3C66AC2F30802F60302F1BC
:1020C800010208D5006BC0F346200130009020467D
:1020D800FFF7A4FF28601448C66AB60308D5006B4A
:1020E800C0F30640013000902046FFF797FF686074
:1020F8000D48C66A760308D5006BC0F30660013048
:1021080000902046FFF78AFFA86002B070BDFFF775
:10211800B5FE0028B6D0064CBBE7FFF79FFE0028A7
:10212800B0D0044CB5E700BF004402580090D0037B
:1021380000093D0000127A001FB5104A136903F028
:102148003803102B17D007D853B1082B0C4818BFE9
:10215800002005B05DF804FB182B07D00020F8E735
:1021680013680848C3F3C103D840F2E701A8FFF792
:102178007BFF0198EDE70448EBE700BF00440258F5
:1021880000093D000090D00300127A0010B5044603
:10219800FFF7D2FF2060FFF7A9FEA060FFF7B4FEAB
:1021A800E060A068FFF7BEFE084B20619B69084A03
:1021B800A068C3F30213D35C03F01F0320FA03F3F0
:1021C8006361FFF7BDFEA06110BD00BF0044025867
:1021D800AC3712082F4A936A03F00303012B73B537
:1021E80005464AD0022B4ED013B9FFF73FFE08B977
:1021F800002404E01368284CC3F3C103DC40002327
:10220800C5E900332348AB60816A826BC36A13F067
:10221800100318BFC36BC1F3053118BFC3F3CC0358
:1022280049B3C66AC2F30802360302F1010208D5AF
:10223800806BC0F34620013000902046FFF7EEFE89
:1022480028601448C66AF60208D5806BC0F30640B9
:10225800013000902046FFF7E1FE68600D48C66A2D
:10226800B60208D5806BC0F30660013000902046A6
:10227800FFF7D4FEA86002B070BDFFF7FFFD00288D
:10228800B6D0064CBBE7FFF7E9FD0028B0D0044CF8
:10229800B5E700BF004402580090D00300093D0094
:1022A80000127A00304A936A03F00303012B73B5D6
:1022B80005464CD0022B50D013B9FFF7D7FD08B90B
:1022C800002404E01368294CC3F3C103DC40002355
:1022D800C5E900332448AB60816A026CC36A13F411
:1022E800807318BF436CC1F3055118BFC3F3CC0307
:1022F80059B354B31C48C66AC2F30802760202F105
:10230800010208D5006CC0F3462001300090204639
:10231800FFF784FE28601448C66A360208D5006CA8
:10232800C0F30640013000902046FFF777FE686052
:102338000D48C66AF60108D5006CC0F30660013086
:1023480000902046FFF76AFEA86002B070BDFFF754
:1023580095FD0028B4D0064CB9E7FFF77FFD0028AB
:10236800AED0044CB3E700BF004402580090D0033D
:1023780000093D0000127A001FB5FFF78FFD404BA2
:1023880098426ED020D8A3F50033984245D007D89C
:10239800A3F54073984252D0002005B05DF804FBC5
:1023A800384B984207D003F57D43984259D0A3F59E
:1023B80080339842F0D1FFF789FD0028ECD001A8BE
:1023C800FFF708FF0298E8E72F4B984251D016D83C
:1023D800A3F58033984207D003F57D43984248D04F
:1023E800A3F580339842D7D1FFF740FD0028D3D01A
:1023F800264B27481B68C3F3C103D840CDE7254BBC
:10240800984203D003F540739842C5D1FFF73EFDCB
:102418000028C1D04FF40040BFE7FFF78DFE1B4BEB
:102428001D4A9B69C3F30323D35C03F01F03D84001
:10243800FFF75CFD05B05DF804EBFFF773BDFFF730
:102448007BFE124B144A9B69C3F30323D35C03F04E
:102458001F03D840FFF74AFD05B05DF804EBFFF70E
:1024680053BDFFF73BFD002896D001A8FFF71AFFE0
:10247800A8E7FFF703FD00288ED008488DE700BFC6
:102488000803020708030107080304070044025869
:102498000090D00308000507AC37120800093D007A
:1024A8001FB5234CA36D03F00703052B18D8DFE8ED
:1024B80003F003141F273137FFF73EFEA3691D4AB7
:1024C800C3F30323D35C03F01F03D840FFF70EFDCB
:1024D80004B0BDE81040FFF733BDFFF7F7FC08B9BB
:1024E800002003E001A8FFF775FE029804B010BDB4
:1024F800FFF7F4FC0028F3D001A8FFF7D3FEF4E7B8
:10250800FFF7B4FC0028EBD023680B48C3F3C103E2
:10251800D840EBE7FFF7B2FC0028E1D00748E5E731
:10252800FFF7B4FC0028DBD04FF40040DEE700BF23
:1025380000440258AC3712080090D00300093D004F
:102548001FB5FFF7ABFC314B984255D010D8A3F517
:10255800803398422CD003F57C43043398424BD007
:10256800A3F58033984235D0002005B05DF804FB10
:10257800274B984216D012D8A3F58033984203D03F
:1025880003F57F739842EFD1FFF770FC0028EBD07A
:10259800204B21481B68C3F3C103D840E5E71F4B14
:1025A8009842E1D1FFF76AFC0028DDD01C48DCE73F
:1025B800FFF7C2FD174B1B4A9B69C3F30323D35C88
:1025C80003F01F03D840FFF791FC05B05DF804EB5A
:1025D800FFF79ABCFFF7B0FD0E4B124A9B69C3F395
:1025E8000323D35C03F01F03D840FFF77FFC05B03B
:1025F8005DF804EBFFF7A4BCFFF770FC0028B3D02C
:1026080001A8FFF74FFE0398AFE700BF080C0103CE
:102618000C080303004402580090D003080C03037D
:1026280000093D00AC3712081FB50C4BDB6CDB030F
:102638000BD4FFF743FC18B9002005B05DF804FB84
:1026480001A8FFF711FD0298F7E7FFF73FFC002804
:10265800F2D001A8FFF7BEFD0398EEE70044025848
:102668001FB5174A536D03F44073B3F5007F1FD0AD
:1026780005D8C3B1B3F5807F0AD0002010E0B3F5C8
:10268800407FFAD1536F9B07F7D54FF4FA4007E024
:10269800FFF714FC0028F0D001A8FFF7E5FC02982A
:1026A80005B05DF804FB13689A04E6D50548F7E71A
:1026B800FFF7ECFB0028E0D04FF40040F0E700BF44
:1026C80000440258006CDC02104A08B5536D03F44C
:1026D8004003B3F5800F09D0B3F5000F0BD043B911
:1026E800FFF7D4FB28B14FF400400AE0536F9B0773
:1026F80008D4002005E0FFF7C1FB0028F9D048F214
:10270800120008BD4FF4FA40FBE700BF004402582E
:102718001FB5124A536D03F44013B3F5001F0FD0D1
:10272800B3F5401F13D0B3F5801F13D1FFF7C6FBD5
:1027380080B101A8FFF798FC029805B05DF804FB8A
:10274800FFF7CCFB30B101A8FFF7ACFDF4E7136845
:102758009B0401D40020F0E70148EEE7004402584A
:10276800006CDC0210B50C4C236DDB0103D5BDE811
:102778001040FFF7E1BCFFF7DFFCA369074AC3F38A
:102788000323D35C03F01F03D840FFF7AFFBBDE87A
:102798001040FFF7C7BB00BF00440258AC3712080F
:1027A8001FB51B4A136D03F44013B3F5001F27D060
:1027B80007D89BB1B3F5801F19D0002005B05DF88C
:1027C80004FBB3F5401FF8D1FFF750FB0028F4D005
:1027D80013681048C3F3C103D840EFE7FFF76EFB57
:1027E8000028EAD001A8FFF73FFC0298E6E7FFF7C8
:1027F8006DFB0028E1D001A8FFF7ECFC0398DDE7AA
:10280800FFF76CFB0028D8D001A8FFF74BFDF5E7D0
:10281800004402580090D00310B50E4C236D002BD5
:102828000FDBFFF789FCA3690B4AC3F30323D35CCF
:1028380003F01F03D840FFF759FBBDE81040FFF72E
:1028480063BBFFF713FB20B123680448C3F3C1033C
:10285800D84010BD00440258AC3712080090D0038D
:102868001FB5124B1B6D03F04053B3F1805F08D0C6
:10287800B3F1005F10D013B9FFF7F0FAA0B9002048
:1028880007E0FFF71BFB0028F9D001A8FFF7ECFBD6
:10289800029805B05DF804FBFFF718FB0028EED09E
:1028A80001A8FFF797FCF3E70148F2E70044025854
:1028B80000127A00114A08B5D36C03F04053B3F103
:1028C800805F0ED0B3F1005F11D013B9FFF7CEFAD5
:1028D80008B9002004E013680948C3F3C103D840CD
:1028E80008BDFFF7CBFA0028F3D00648F8E7FFF752
:1028F800B5FA0028EDD00448F2E700BF00440258BA
:102908000090D00300093D0000127A001FB5FFF7C0
:10291800C5FA4D4B98422BD033D8A3F5F833A3F51D
:10292800827398426BD008D8484B984279D003F507
:102938004073984275D0002014E0454B984209D066
:1029480013D8A3F58F531C3B984203D003F540736B
:102958009842F0D1FFF7BAFA0028ECD001A8FFF7A7
:1029680039FC019805B05DF804FB3A4B9842E2D176
:10297800FFF7B4FA0028DED001A8FFF793FC03980C
:10298800F0E7354B98421CD022D8A3F58033984203
:1029980008D00ED8314B9842EAD003F56E43043381
:1029A8009842C8D1FFF772FA0028C4D04FF400400B
:1029B800D8E72B4B9842F5D003F56E430433984281
:1029C800B9D1284B5B6F9B07B5D54FF4FA40C9E7DF
:1029D800254B98420AD010D8A3F57143043B98427E
:1029E800EFD003F56E4304339842A4D14FF0405022
:1029F80005B05DF804EBFFF75DBF1C4BF4E7FFF78C
:102A08009BFB184B1A4A9B69C3F30323D35C03F05F
:102A18001F03D840FFF76AFA05B05DF804EBFFF72B
:102A280073BAFFF789FB0F4B114A9B69C3F3032362
:102A3800D35C03F01F03D840FFF758FA05B05DF8E0
:102A480004EBFFF77DBA00BF0C0D02070C0A000764
:102A5800081C01070C0A02070C0D0407081C0207D2
:102A6800081C0307004402580C0D0507081C05073D
:102A7800AC3712081FB5FFF711FA3D4B984236D014
:102A88003DD8A3F58733A3F58473984217D01FD890
:102A9800A3F57043F83B98425FD008D8354B98426D
:102AA8005BD003F5C063984257D000233BE0324B1C
:102AB800984252D003F56743F8339842F5D1FFF7AF
:102AC80005FA0028F1D001A8FFF784FB019B2AE052
:102AD8002A4B98420BD007D8A3F56A43F83B984293
:102AE800EDD003F54073E8E7254B9842DDD1FFF7B9
:102AF800F5F90028D9D001A8FFF7D4FBE6E7214B68
:102B0800984233D015D8A3F59053083B98422DD05E
:102B18000DD8A3F56D43F83B9842E8D01A4A1B4BF1
:102B2800904218BF0023184605B05DF804FB184A08
:102B3800F5E7184B984207D00DD8174B984203D0A9
:102B480003F5C0639842B0D14FF0405005B05DF82E
:102B580004EBFFF7AFBE114BF4E7FFF7AFF900281E
:102B6800A3D001A8FFF780FA029BDCE7074BDAE75E
:102B78000C150207040000070C18000704000207E0
:102B8800040602070C180307040003070080BB00B3
:102B98000C1503070C150407040004070C18040798
:102BA8001FB5134B9B6D03F44033B3F5803F0FD033
:102BB800B3F5003F15D013B9FFF788F908B900201D
:102BC80003E001A8FFF706FB019805B05DF804FBD8
:102BD800FFF784F90028F2D001A8FFF763FB0398F8
:102BE800F3E74FF0405005B05DF804EBFFF762BE25
:102BF800004402581FB5FFF751F95C4B984238D092
:102C080029D8A3F58233984271D010D8A3F57C4314
:102C1800984200F0848003F60843984200F09180BF
:102C2800534B98425AD0002005B05DF804FB514B35
:102C3800984208D003F56F43F833984260D0A3F563
:102C48007C439842EFD1FFF741F90028EBD001A867
:102C5800FFF7C0FA49E0484B984259D023D8A3F56A
:102C6800803398427FD00CD8A3F56F43F83B984245
:102C7800D9D1FFF733F90028D5D001A8FFF712FB07
:102C880033E03E4B984203D003F608439842CAD13A
:102C9800FFF7ECF80028C6D0394B3A481B68C3F355
:102CA800C103D840C0E7384B984211D00DD8A3F5DE
:102CB8008033984203D003F608439842B3D1FFF714
:102CC800DDF80028AFD03148AEE7314B9842AAD1A1
:102CD800FFF7C4F80028A6D02E48A5E7FFF7EEF8BE
:102CE8000028A0D001A8FFF7BFF902989CE7FFF7DA
:102CF800EDF8002897D001A8FFF76CFA019893E740
:102D0800FFF7ECF800288ED001A8FFF7CBFAF5E71B
:102D18004FF0405005B05DF804EBFFF7CBBDFFF76F
:102D28000BFA174B1C4A9B69C3F30323D35C03F0CC
:102D38001F03D840FFF7DAF805B05DF804EBFFF79A
:102D4800F1B8FFF7F9F90E4B134A9B69C3F3032354
:102D5800D35C03F01F03D840FFF7C8F805B05DF84F
:102D680004EBFFF7EDB80D485EE700BF041002075B
:102D7800040C00070C1C0107040C040704100307CB
:102D8800004402580090D0030410050700093D00D4
:102D98000C1C050700127A00AC3712080080BB0033
:102DA8001FB51A4CE36C03F00303022B1DD0032B51
:102DB80024D0012B0ED0FFF7BFF9A369144AC3F33F
:102DC8000323D35C03F01F03D84004B0BDE81040D0
:102DD800FFF78CB8FFF772F810B9002004B010BDE7
:102DE80001A8FFF741F90298F8E7FFF76FF8002804
:102DF800F3D001A8FFF7EEF90398EFE74FF0405042
:102E080004B0BDE81040FFF755BD00BF00440258AC
:102E1800AC3712081FB51B4CE36C03F03003202BB2
:102E280027D005D86BB1102B1AD0002004B010BDE4
:102E3800302BFAD14FF0405004B0BDE81040FFF7F6
:102E480039BDFFF779F9A3690F4AC3F30323D35CAC
:102E580003F01F03D84004B0BDE81040FFF746B8A0
:102E6800FFF72CF80028E0D001A8FFF7FDF802983A
:102E7800DCE7FFF72BF80028D7D001A8FFF7AAF95D
:102E88000398D3E700440258AC371208436E30B5B4
:102E98001BB94FF00113836630BD03680A4D9A6869
:102EA80099680A4C490FC2F342626B5C615C1B0172
:102EB800B3FBF1F3A0F86A30AB5CA25C1B01B3FB77
:102EC800F2F3A0F86830E7E7C4371208BC371208F5
:102ED800F8B50F4616461D460446002835D0D0F8EA
:102EE80084301BB980F880300EF09DFA22682423C4
:102EF800C4F88430136823F00103136020460FF0F0
:102F08006DFA012821D0A36A13B120460FF036FCD0
:102F18002068836843F480438360836823F4004314
:102F28003B43836002682B0422F07F7243EA4655D4
:102F380022F4403215430560036843F0010303603F
:102F48002046BDE8F8400FF08DBD0120F8BD704760
:102F58007047704790B103682422C0F884201A682B
:102F680022F001021A605A6822F0100211435960D7
:102F78001A6842F001021A600FF074BD0120704710
:102F88001FB504AB03E9060090F88030012B044616
:102F98003AD0012380F880302423C0F884300368B5
:102FA8001A6822F001021A609A6822F440120A4351
:102FB8009A6071B95968BDF80C209DF80E0021F08F
:102FC8001001114359605A6822F07F4242EA0062B8
:102FD8005A601A6842F001021A600AF0A3FE6FF004
:102FE8007E42034600924FF48001002220460FF0F3
:102FF80019FC38B92023C4F88430002384F88030C1
:1030080004B010BD0320F8E70220F9E790F88030FB
:10301800012B1FBF0268136843F0020313601DBF32
:10302800002380F8803018460220704790F88030DE
:10303800012B1FBF0268136823F0020313601DBF32
:10304800002380F8803018460220704710B590F8A9
:103058008030012B04461AD0012380F880302423C5
:10306800C0F8843003681A68196821F001011960F2
:1030780042F000524FF0005141661A60FFF706FF18
:103088002023C0F88430002084F8800010BD02207E
:10309800FCE790F88030012B14D002682423C0F894
:1030A80084301168136823F00103136021F0005184
:1030B8000023436611602022C0F8842080F8803005
:1030C800184670470220704738B590F88030012BB9
:1030D80004461BD0012380F880302423C0F88430B4
:1030E80003681D681A6822F001021A609A6822F0C3
:1030F800604211439960FFF7C9FE03681D602023F1
:10310800C0F88430002084F8800038BD0220FCE735
:1031180038B590F88030012B04461BD0012380F885
:1031280080302423C0F8843003681D681A6822F0B0
:1031380001021A609A6822F0606211439960FFF7F1
:10314800A5FE03681D602023C0F88430002084F8A1
:10315800800038BD0220FCE72DE9F84F1E46D0F864
:103168008830DDF82880202B04460D46174640F0AD
:103178008F80002900F08A80002A00F0878090F86C
:103188008030012B00F08480012322224FF0000AB6
:10319800C0F88CA080F88030C0F88820C3660AF098
:1031A800C1FDA368A4F85C70B3F5805F8146A4F8FC
:1031B8005E7024D1226902BB40F2FF12A4F860209D
:1031C800B3F5805FB4F860A02AD1236943BB2F46CA
:1031D8001D46002384F880304FF0100B3380B4F87C
:1031E8005E2090B2F0B9B4F85E10B4F85C305B1AA7
:1031F80033802023C4F8883020E0FF22DEE723B99B
:103208002269002AF9D07F22D8E7B3F1805F04D180
:103218002269002AF7D03F22D0E7A4F860A0CFE7C0
:103228000027D6E72368DA69D10609D53288C3F8BA
:1032380020B02AB12023C4F888300020BDE8F88FD8
:10324800DA6992060ED55B6A0AEA0303DDB927F844
:10325800023B338801333380B4F85E30013B9BB2C4
:10326800A4F85E30B8F1FF3FB9D00AF05BFDA0EBDF
:103278000900404502D8B8F1000FB0D12023C4F8A6
:1032880088300320DAE705F8013BE2E70120D5E7BB
:103298000220D3E770B5D0F88860202E04461BD1F1
:1032A80009B9012070BD002AFBD090F88030012BAD
:1032B80012D0012380F88030C3660FF01BFD002870
:1032C800F0D1E36E012BECD1236810221A621A6840
:1032D80042F010021A60E5E70220E3E770B5D0F883
:1032E8008860202E04461BD109B9012070BD002A30
:1032F800FBD090F88030012B12D0012380F8803069
:10330800C3660FF089FD0028F0D1E36E012BECD1E4
:10331800236810221A621A6842F010021A60E5E760
:103328000220E3E7036873B559690F4C0F4D104E3F
:10333800002201F40041586900F4C040084301D15B
:1033480002B070BD186B01900432A3420198D2B24A
:1033580003D0AB4201D0B34203D1102AEBD90320EA
:10336800EEE7082AFAE700BF0030014000380040C5
:10337800003C004090F88030012B0BD090F8812061
:1033880001239A4280F8803006D080F881300023EB
:1033980080F880300220704703681A6812F0010F25
:1033A8001A681FBF22F001021A601A6842F48032BC
:1033B8001BBF1A601A6842F4803242F001021A6098
:1033C800012380F88130002380F880301846704748
:1033D80010B590F88030012B0DD090F88140012372
:1033E8009C4280F8803001D1446834B180F8813043
:1033F800002380F88030022014E003681C68E4078A
:1034080011D49C6824F4C05421439960996821F42C
:10341800C0610A439A60012380F88130002380F854
:103428008030184610BD1C6824F001041C609C689C
:1034380024F4C05421439960996821F4C0610A4377
:103448009A601A6842F001021A60E4E70A4B98424F
:103458000FD1A3F500630020D3F8882042F400229E
:10346800C3F88820D3F8882022F40022C3F88820E3
:1034780070470120704700BF004C02583F4B9842EC
:103488000DD13F4BD3F8982042F01002C3F8982092
:10349800D3F8982022F01002C3F898200FE0394B97
:1034A80098420ED1364BD3F8902042F40032C3F83C
:1034B8009020D3F8902022F40032C3F89020002006
:1034C8007047314B98420BD12D4BD3F8902042F4E2
:1034D8008022C3F89020D3F8902022F48022ECE7D1
:1034E8002A4B98420BD1264BD3F8902042F4002265
:1034F800C3F89020D3F8902022F40022DDE7244B73
:1035080098420BD11E4BD3F8902042F48012C3F896
:103518009020D3F8902022F48012CEE71D4B9842D9
:103528000BD1174BD3F8982042F02002C3F898200B
:10353800D3F8982022F02002AEE7174B98420BD11F
:103548000F4BD3F8902042F08042C3F89020D3F874
:10355800902022F08042B0E7104B98420BD1084BE4
:10356800D3F8902042F00042C3F89020D3F890207E
:1035780022F00042A1E70120704700BF001001407F
:10358800004402580044004000480040004C0040FD
:10359800005000400014014000780040007C0040CA
:1035A80038B50368DB0704460D4665D42A69AB685D
:1035B800016813436A691343EA6913432F4A0A40AF
:1035C800134303604368EA6823F44053134343609A
:1035D8008368AA6923F4407313438360284B984295
:1035E80021D12848FEF7C8FE002838D06A68B2B34F
:1035F8002B680B2B15D8244951F82330E969B0FB07
:10360800F3F0B1F5004F4FEA520330D103EB40001D
:103618004FF6F073B0FBF2F00340C0F342001843DA
:10362800E06000201CE0194B984201D11848D9E706
:10363800184B9842FAD003F580639842F6D003F508
:1036480080639842F2D003F544439842C9D0A3F569
:103658001C439842EAD003F580639842E6D00120E3
:10366800E26A2B8822F00F021343E36238BD184444
:10367800B0FBF2F080B2D3E70120F7E7F369FFEF80
:103688000010014008030007CC371208004400402E
:10369800080000070048004000234FF41652C0E914
:1036A80000320C22C0E90233C0E905230361C3617B
:1036B8007047026812F0010230B50DD1D1E900352A
:1036C8002B438D684468C9682B430B4324F470610D
:1036D8000B434360104630BD0120FCE70023C0E9DE
:1036E8000033C0E90233704770470000024A13688C
:1036F80043F480731360704700480258024A136805
:1037080023F480731360704700480258F8B1104AD8
:103718000168136823F0E0030B4313604FF0B043D4
:103728001A6822F480321A605A6822F480325A6089
:103738004168CA0742BF1A6842F480321A608B0790
:1037480041BF4FF0B042536843F480335360704731
:1037580000480258024A136843F010031360704788
:1037680000480258024A136823F010031360704798
:1037780000480258034A044B916A0B401843906270
:10378800704700BF00480258C0C000F0034A936A5F
:1037980000F03F0023EA0003936270470048025894
:1037A800054A1369012923F00403136101D130BFCD
:1037B800704720BF704700BF00ED00E038B5124CDD
:1037C800236823F00103184320600D46FEF72EFA04
:1037D800236903280CBF23F0050323F006032361A4
:1037E8000A4B1A6942F004021A61BFF34F8FBFF304
:1037F8006F8F012D05D130BF1A6922F004021A61BA
:1038080038BD20BFF8E700BF0048025800ED00E0CF
:1038180008B5FEF70BFA0E4B1A6903280BBF42F0E6
:10382800050242F006021A611A610BBF5A695A6909
:1038380042F0050242F006025A61064A136943F053
:1038480004031361BFF34F8FBFF36F8F30BF08BD01
:103858000048025800ED00E0024A136943F00203F1
:103868001361704700ED00E0024A136923F0020378
:103878001361704700ED00E0024A136943F010033A
:103888001361704700ED00E0024A136923F010034A
:103898001361704700ED00E0704708B5FEF7C6F900
:1038A80003284FF0B0430CD1D3F88820D10307D5B3
:1038B800D3F8882042F48032C3F88820FFF7ECFF61
:1038C80008BDD3F8C820D203FAD5D3F8C82042F4EB
:1038D8008032C3F8C820F1E703689A69910744BFAA
:1038E80000229A629A69D2075EBF9A6942F0010281
:1038F8009A61704730B5039D046845EA02421A434D
:10390800054B6068C1F3090143EA55530A4320EAAD
:1039180003000243626030BDFF63FF0310B5426BD2
:10392800164CA2420BB202D0154CA24211D1002B68
:103938000DDB10291ED020291ED00023402901D1DB
:1039480043F0400301680A6813430B6010BDB823B5
:10395800F4E7002BACBF0023B823CC0748BF43F0E3
:10396800F2038A0748BF43F0F4032029EAD143F061
:103978002003E7E79023E5E76023E3E7E96210081F
:103988006561100811F0010307D090F8413003F089
:103998002803282B0CBF4223F2238A0709D590F865
:1039A800412002F02802282A0CBF43F0440343F0C8
:1039B800F4030A0401680A6848BF43F0B80322EA1E
:1039C80003030B607047C36AAA2B02D10023C362AA
:1039D8007047C36AB3F52A4FFAD14FF00073F6E780
:1039E800036870B50446986910F010000D46164635
:1039F80016D170BD691C14D00AF094F9801B854259
:103A080000D36DB9636C43F020036364202384F80A
:103A18004130002384F8423084F840300120E8E740
:103A280023689A699206E5D510222025DA61204696
:103A3800DD61FFF751FF2268536823F0FF7323F419
:103A48008B3323F4FF7323F001035360636C43F05B
:103A580004036364002384F8415084F8403084F8F8
:103A68004230DBE770B504460D46164623689B696D
:103A78009B0701D5002070BD324629462046FFF736
:103A8800AFFFA0B96A1CF1D00AF04CF9801BA8421C
:103A980001D8002DEAD1636C43F02003636420232E
:103AA80084F84130002384F8423084F84030012003
:103AB800E1E770B504460D46164623689B695B0727
:103AC8000ED4324629462046FFF78AFFF0B923680C
:103AD8009A6991061CD59A69520703D5228D0AB1B5
:103AE800002070BD2021D9615A6822F0FF7222F4AB
:103AF8008B3222F4FF7222F001025A6000236364C1
:103B080084F8411084F8423084F840300120E8E716
:103B18000AF008F9801BA84201D8002DCDD1636CAA
:103B280043F020036364202384F841300023EBE74B
:103B38002DE9F041069F0446884616461D46226830
:103B4800936938EA03030CBF01230023B34201D071
:103B5800002015E06B1CF3D00AF0E4F8C01BA84263
:103B680001D8002DEBD1636C43F02003636420235C
:103B780084F84130002384F8423084F84030012032
:103B8800BDE8F0812DE9F341DDE908781E46174BC1
:103B98000093054614464FF08073F2B2FFF7AAFE71
:103BA800424639462846FFF75DFF18B1012002B0AA
:103BB800BDE8F081012E2B680DD1E4B29C62002291
:103BC800CDF800803B4680212846FFF7B1FF00383A
:103BD80018BF0120EBE7220A9A6239464246284676
:103BE800FFF740FF0028E1D12B68E6E700200080BE
:103BF8002DE9F341DDE908781E46174B0093054689
:103C080014460023F2B2FFF775FE424639462846AD
:103C1800FFF728FF18B1012002B0BDE8F081012E9E
:103C28002B680DD1E4B29C620022CDF800803B469F
:103C380040212846FFF77CFF003818BF0120EBE73A
:103C4800220A9A62394642462846FFF70BFF0028A7
:103C5800E1D12B68E6E700BF0020008070B504467C
:103C68000D46164623689B699B0601D5002070BD4A
:103C7800324629462046FFF7B3FE90B90AF052F8BB
:103C8800801BA84201D8002DECD1636C43F02003BF
:103C98006364202384F84130002384F8423084F898
:103CA80040300120E3E7704710B5044600284AD0A9
:103CB80090F8413003F0FF021BB980F84020FFF76D
:103CC800F2FF242384F8413023681A6822F00102A5
:103CD8001A60626822F070621A619A6822F40042DF
:103CE8009A60D4E90221012924D142F400429A6061
:103CF8005A6842F0007242F400425A60DA6822F4CC
:103D08000042DA60D4E904210A43A16942EA0122A7
:103D1800DA60D4E907210A431A601A6842F00102FE
:103D28001A6000202023606484F84130206384F8FE
:103D3800420010BD42F4044202299A6004BF4FF4C5
:103D480000625A60D4E70120F3E7704710B50446D3
:103D580098B10268242380F84130136823F00103E6
:103D68001360FFF7F2FF0020606484F8400084F8D5
:103D78004100206384F8420010BD0120FCE70000E8
:103D88002DE9F347984690F841300A9F202B0446C6
:103D98000E46914640F0868090F84030012B00F0A6
:103DA80081804FF0010A80F840A009F0BBFF192379
:103DB8000546009052464FF400412046FFF7B8FEF2
:103DC80018B1012002B0BDE8F087212384F8413002
:103DD800102384F842306064A4F82A80638DC4F804
:103DE80024909BB2FF2B60632F4B26D9FF2222859C
:103DF80000934FF0807331462046FFF77BFD638DBB
:103E08009BB22A4639462046FBB9FFF727FF002810
:103E1800D7D123682021D9615A6822F0FF7222F491
:103E28008B3222F4FF7222F001025A6084F84110AA
:103E380084F8400084F84200C4E7628D009392B28F
:103E480022854FF00073D2B2D5E7FFF70BFE0028AA
:103E5800B7D1636A226813F8011B91626362638DAC
:103E6800228D013B9BB26385638D013A92B29BB26E
:103E78002285002BC3D0002AC1D100953B46802162
:103E88002046FFF755FE00289BD1638D9BB2FF2B80
:103E980003D9FF2222850090ABE7628D009092B291
:103EA8002285CEE702208DE7002000802DE9F34728
:103EB800984690F841300A9F202B04460E469146BA
:103EC80040F0878090F84030012B00F082804FF05E
:103ED800010A80F840A009F025FF19230546009043
:103EE80052464FF400412046FFF722FE18B1012048
:103EF80002B0BDE8F087222384F84130102384F80B
:103F080042306064A4F82A80638DC4F824909BB280
:103F1800FF2B6063304B26D9FF22228500934FF098
:103F2800807331462046FFF7E5FC638D9BB22A4635
:103F380039462046FBB9FFF791FE0028D7D1236800
:103F48002021D9615A6822F0FF7222F48B3222F4C0
:103F5800FF7222F001025A6084F8411084F8400090
:103F680084F84200C4E7628D009392B222854FF034
:103F78000073D2B2D5E7FFF79CFD0028B7D12368BC
:103F88005A6A636A1A70636A228D01336362638DA9
:103F9800013B9BB26385638D013A92B29BB2228545
:103FA800002BC2D0002AC0D100953B468021204674
:103FB800FFF7BEFD00289AD1638D9BB2FF2B03D972
:103FC800FF2222850090AAE7628D009092B2228596
:103FD800CDE702208CE700BF002400802DE9F347DD
:103FE8001E4690F84130202B0446894690465FFAD9
:103FF80083FA40F08D8001B122B94FF400736364F5
:10400800012082E090F84030012B00F081800125EA
:1040180080F8405009F086FE2168C4F824900022F8
:10402800212384F8413084F842A06264A4F82A80ED
:104038004B68626323F400434B60074600903346A5
:1040480008212046FFF774FD2368024620B15A680C
:1040580042F400425A60D3E74FF00808C3F81C80C6
:10406800E368022B0AD13346009741462046FFF702
:104078005FFD23680028EAD1C3F81C800097334607
:1040880000224FF480312046FFF752FD98B1226894
:10409800536843F400435360B2E7FFF7E3FC226838
:1040A8000028F5D1636A13F8011B91626362638D7E
:1040B800013B9BB26385658DADB23A4631462046D9
:1040C800002DEAD1FFF7CAFD236838B15A6842F4D7
:1040D80000425A60626C042A92D165642025DD6131
:1040E8000122334600974FF400412046FFF720FD98
:1040F80023685A6842F400425A60002880D184F844
:10410800415084F8400084F8420002B0BDE8F087CE
:104118000220FAE72DE9F3471E4690F84130202B9C
:104128000446894690465FFA83FA40F0868001B1DA
:1041380022B94FF40073636401207BE090F84030AB
:10414800012B7AD0012580F8405009F0EBFD216859
:10415800C4F824900022222384F8413084F842A035
:104168006264A4F82A804B68626323F400434B60BE
:1041780007460090334608212046FFF7D9FC2368FC
:1041880020B15A6842F400425A60D5E70822DA6141
:104198004FF48031009733462A462046FFF7C8FC83
:1041A80028B32268536843F400435360C4E7FFF719
:1041B80080FC236888B15A6842F400425A609A69C0
:1041C8005207B9D55A6A636A1A70636A013363621F
:1041D800638D013B9BB26385AEE75A6A636A1A70C6
:1041E800636A01336362638D013B9BB26385638DB0
:1041F8009BB23A4631462046002BD8D1FFF72EFD18
:1042080023680028BDD12025DD61012233460097AF
:104218004FF400412046FFF78BFC23685A6842F4AC
:1042280000425A60002887D184F8415084F8400041
:1042380084F8420002B0BDE8F0870220FAE70000E7
:1042480037B5044690F84100202835D120688069A8
:1042580010F4004030D194F84050012D2CD00125A5
:1042680084F84050212584F84150102584F84250A4
:1042780060646385114BE362114B6363638D626213
:104288009BB2FF2B98BF628D0E48009095BF92B2EB
:10429800FF224FF000734FF0807322852046D2B280
:1042A8000025FFF727FB204684F840500121FFF73F
:1042B80035FB284603B030BD0220FBE70000FFFFB6
:1042C800416010080020008037B5044690F841008E
:1042D800202835D12068806910F4004030D194F846
:1042E8004050012D2CD0012584F84050222584F817
:1042F8004150102584F8425060646385114BE36295
:10430800114B6363638D62629BB2FF2B98BF628D12
:104318000E48009095BF92B2FF224FF000734FF005
:10432800807322852046D2B20025FFF7E3FA2046A3
:1043380084F840500221FFF7F1FA284603B030BD57
:104348000220FBE70000FFFF416010080024008006
:1043580070B590F84140202CE5B21FD190F840404C
:10436800012C1BD0212480F84140066880F8425077
:1043780000244464756825F4004575604285428DC3
:104388000285074AC262074A4162426380F8404098
:1043980048F20101FFF7C2FA204670BD0220FCE78F
:1043A8000000FFFF415E100870B590F84140202CD6
:1043B800E5B21FD190F84040012C1BD0222480F890
:1043C8004140066880F8425000244464756825F42A
:1043D800004575604285428D0285074AC262074AD8
:1043E8004162426380F8404048F20201FFF796FAC2
:1043F800204670BD0220FCE70000FFFF415E100868
:104408002DE9F3410E46114690F84120202A044632
:104418007ED10268906910F4004079D194F8405038
:10442800012D75D0012584F84050212584F841508C
:10443800102584F8425060646385364BE362364B3E
:104448006363638D61629BB2FF2B97BF658DFF2508
:10445800ADB24FF0007888BF4FF080782585002DE9
:1044680044D0A06B48B32D4BC36300272C4BC364C7
:1044780007642B46076528320BF094FE054648BBB7
:10448800284B94F828200093314643462046FFF7EE
:1044980031FA638D228D84F840509B1A9BB2638554
:1044A80010212046FFF73AFA2268136843F4804344
:1044B8001360284602B0BDE8F081202384F841301B
:1044C80084F84200636C84F8400043F0800363641E
:1044D8000125EEE7202384F8413084F84270636CAC
:1044E80084F8407043F010036364F1E70E4B636394
:1044F8000C4B0093314620464FF000732A46FFF7D5
:10450800F9F984F8405001212046FFF707FAD0E76F
:104518000225CEE70000FFFFE9621008C964100811
:10452800ED63100800200080416010082DE9F34178
:104538000E4690F84110202904467ED1016888690A
:1045480010F4004079D194F84050012D75D0012520
:1045580084F84050222584F84150102584F84250B0
:1045680060646385364BE362364B6363638D6262D6
:104578009BB2FF2B97BF658DFF25ADB24FF000783A
:1045880088BF4FF080782585002D44D0E06B48B374
:104598002D4BC36300272D4BC36407642B46076567
:1045A80024310BF0FFFD054648BB294B94F8282021
:1045B8000093314643462046FFF79CF9638D228DD0
:1045C80084F840509B1A9BB2638510212046FFF760
:1045D800A5F92268136843F400431360284602B023
:1045E800BDE8F081202384F8413084F84200636CF0
:1045F80084F8400043F0800363640125EEE720233C
:1046080084F8413084F84270636C84F8407043F059
:1046180010036364F1E70F4B63630D4B009331465E
:1046280020464FF000732A46FFF764F984F840509B
:1046380001212046FFF772F9D0E70225CEE700BF37
:104648000000FFFFE96210081B651008ED63100801
:104658000024008041601008F8B5044690F8410035
:104668002028C5B256D101B12AB94FF4007363644A
:1046780001252846F8BD94F8400001284AD0212099
:10468800002684F8410084F8425066646285638D90
:10469800214AA06BE2620127204A84F840709BB24D
:1046A800616223856263E8B11D4AC2631D4AC26420
:1046B80022680664066528320BF074FD0546E8B9E1
:1046C8002268536823F4004353604FF4004184F890
:1046D80040002046FFF722F92268136843F480431C
:1046E8001360C6E7282384F8413084F84200636CDD
:1046F80084F8400043F080036364B9E7282384F812
:10470800413084F84260636C84F8406043F01003E1
:104718006364ADE70225ACE70000FFFF65611008A0
:10472800235A1008ED631008F8B590F84130202B93
:104738000446D8B258D101B12AB94FF40073636462
:1047480001252846F8BD94F84030012B4CD022238F
:10475800002684F8413084F8420066646285638DDF
:10476800224AE06BE2620127214A84F840709BB23A
:10477800616223856263F8B125681E4AC2631E4AD6
:10478800C26406640A46066505F124010BF00AFDB9
:104798000546E8B92268536823F4004353604FF490
:1047A800004184F840002046FFF7B8F822681368F3
:1047B80043F400431360C4E7282384F8413084F8A5
:1047C8004200636C84F8400043F080036364B7E7F9
:1047D800282384F8413084F84260636C84F8406090
:1047E80043F010036364ABE70225AAE70000FFFF6C
:1047F800656110083D5A1008ED6310082DE9F04F67
:1048080085B09B46BDF83C30039390F84130DDF805
:104818004090202B04460F46924640F0A3800E9B02
:104828000BB1039B33B94FF400736364012005B0E7
:10483800BDE8F08F90F84030012B00F093800125FF
:1048480080F8405009F06EFA1923009006462A466F
:104858004FF400412046FFF76BF980460028E5D168
:10486800212384F84130402384F842300E9B636250
:10487800039B606460636385CDE900965B4652469E
:1048880039462046FFF77EF910B184F84080CDE71D
:10489800638D9BB2FF2B55D9FF22228500904FF0E4
:1048A800807339462046FFF725F8324649462046A8
:1048B800FFF7D8F80028B9D1636A226813F8011BFA
:1048C80091626362638D228D013B9BB26385638D28
:1048D800013A92B29BB22285ABB1A2B900964B467F
:1048E80080212046FFF724F900289FD1638D9BB2D1
:1048F800FF2B2FD9FF22228500904FF08073394675
:104908002046FEF7F7FF638D9BB2002BCDD13246D0
:1049180049462046FFF7A2F9002887D123682021BD
:10492800D9615A6822F0FF7222F48B3222F4FF72A6
:1049380022F001025A6084F8411084F8400084F89B
:10494800420074E7628D009092B222854FF00073A6
:10495800D2B2A6E7628D009092B222854FF0007322
:10496800D2B2CCE7022062E72DE9F04F85B09B4632
:10497800BDF83C30039390F84130DDF84090202B8F
:1049880004460F46924640F0A7800E9B0BB1039B4E
:1049980033B94FF400736364012005B0BDE8F08FAC
:1049A80090F84030012B00F09780012580F84050A6
:1049B80009F0B8F91923009006462A464FF4004139
:1049C8002046FFF7B5F880460028E5D1222384F871
:1049D8004130402384F842300E9B6362039B60643D
:1049E80060636385CDE900965B46524639462046AA
:1049F800FFF7FEF810B184F84080CDE7638D9BB2D5
:104A0800FF2B364B58D9FF22009322854FF0807335
:104A180039462046FEF76EFF00964B4600220421D9
:104A28002046FFF785F80028B6D123685A6A636ADA
:104A38001A70636A228D01336362638D013B9BB2F6
:104A48006385638D013A92B29BB22285ABB1A2B95C
:104A580000964B4680212046FFF76AF800289BD134
:104A6800638D9BB2FF2B2FD9FF22228500904FF038
:104A7800807339462046FEF73DFF638D9BB2002BBD
:104A8800CAD1324649462046FFF7E8F8002883D1C4
:104A980023682021D9615A6822F0FF7222F48B32F0
:104AA80022F4FF7222F001025A6084F8411084F85F
:104AB800400084F8420070E7628D009392B222852C
:104AC8004FF00073D2B2A3E7628D009092B22285B4
:104AD8004FF00073D2B2CCE702205EE700240080DA
:104AE800F0B5044690F8410087B020280C9EBDF828
:104AF800347056D106B137B94FF400736364012599
:104B0800284607B0F0BD20680391856915F4004573
:104B1800CDE9042345D194F84000012841D0012073
:104B280084F8400009F0FEF84FF0210C84F841C0E9
:104B38004FF0400C84F842C065641B4D6785E56200
:104B48001A4D6563658D0190ADB2FF2D98BF658DD7
:104B58006662DDE9031294BFADB2FF254FF019007C
:104B680025850090059B0391204694BF4FF0007661
:104B78004FF08076FFF706F80399054618B1002331
:104B880084F84030BBE7009094F82820204633464C
:104B9800FEF7B0FE84F8405001212046FEF7BEFE25
:104BA800AEE70225ACE700BF0000FFFF4160100838
:104BB800F0B5044690F8410087B020280C9EBDF857
:104BC800347057D106B137B94FF4007363640125C7
:104BD800284607B0F0BD20680391856915F40045A3
:104BE800CDE9042346D194F84000012842D00120A1
:104BF80084F8400009F096F84FF0220C84F841C080
:104C08004FF0400C84F842C065641B4D6785E5622F
:104C18001A4D6563658D0190ADB2FF2D98BF658D06
:104C28006662DDE9031294BFADB2FF254FF01900AB
:104C380025850090059B0391204694BF4FF0007690
:104C48004FF08076FEF7D4FF0399054618B100238C
:104C580084F84030BBE70A4B0093204694F828209C
:104C68003346FEF747FE84F8405002212046FEF7FF
:104C780055FEADE70225ABE70000FFFF41601008D5
:104C8800002400802DE9FF410F4690F841100A9D4D
:104C9800BDF82C802029044640F0898015B1B8F170
:104CA800000F04D14FF400736364012563E00168C9
:104CB8008E6916F40046CDE9022378D190F84010A9
:104CC800012974D0012180F8401009F02BF8212126
:104CD80084F84110402184F8421036496664A4F8EB
:104CE8002A80E16234496163618D019089B2FF29AC
:104CF80098BF618D656294BF89B2FF2121854FF00D
:104D080019010091DDE902233946204694BF4FF08E
:104D180000784FF08078FEF735FF064618B100237B
:104D280084F84030C1E7A06B48B3244B2268C363C2
:104D3800234BC3642946238D0664066528320BF08D
:104D480031FA054638BB94F8282000904346394686
:104D58002046FEF7CFFD638D228D84F840509B1AC4
:104D68009BB2638510212046FEF7D8FD22681368A0
:104D780043F480431360284604B0BDE8F081202343
:104D880084F8413084F84200636C84F8400043F0B2
:104D98008003636489E7202384F8413084F8426003
:104DA800636C84F8406043F0100363647DE7022578
:104DB800E1E700BF0000FFFFE9621008C9641008BE
:104DC800ED6310082DE9FF410F4690F841100A9D48
:104DD800BDF82C802029044640F08A8015B1B8F12E
:104DE800000F04D14FF400736364012564E0016887
:104DF8008E6916F40046CDE9022379D190F8401067
:104E0800012975D0012180F8401008F08BFF22217C
:104E180084F84110402184F8421036496664A4F8A9
:104E28002A80E16234496163618D019089B2FF296A
:104E380098BF618D656294BF89B2FF2121854FF0CB
:104E480019010091DDE902233946204694BF4FF04D
:104E580000784FF08078FEF7CBFE064618B10023A5
:104E680084F84030C1E7E06B50B3244B2168C3633A
:104E7800234BC3642A46238D0664066524310BF050
:104E880091F9054640BB1F4B94F8282000933946FA
:104E980043462046FEF72EFD638D228D84F8405050
:104EA8009B1A9BB2638510212046FEF737FD2268C6
:104EB800136843F400431360284604B0BDE8F0814A
:104EC800202384F8413084F84200636C84F8400061
:104ED80043F08003636488E7202384F8413084F832
:104EE8004260636C84F8406043F0100363647CE7BD
:104EF8000225E1E70000FFFFE96210081B651008C2
:104F0800ED631008002400802DE9F04F85B01E469F
:104F18000023039390F84130202B0446914640F03B
:104F28008E8003689B6913F4004340F0888090F8F2
:104F38004020012A00F083800122C1F3090780F88C
:104F4800402047F0007A242280F841204AF4005A91
:104F58004364E3682268012B0CBF534647F420538F
:104F6800536008F0DFFE804623689D699B69C5F39E
:104F78004015C3F300131D4315D023689A69CDF873
:104F8800008012F01002334626D120212046FEF779
:104F9800CFFDE8B922682023D361054684F8413063
:104FA80084F8400014E0731CDED008F0BBFEA0EBD0
:104FB8000800B04201D8002ED6D1202384F8413011
:104FC800636C43F020036364002384F840300125B8
:104FD800284605B0BDE8F08F002220212046FEF7C4
:104FE800A7FD0028F4D1236810224FF0200BDA61C6
:104FF800C3F81CB0039A4A4510D15A6842F480425B
:105008005A6059460246CDF8008033462046FEF7DE
:105018008FFD0028DCD12368C3F81CB0039B013343
:105028000393039B4B4594D3202384F84130636C4E
:1050380043F020036364002384F84030C8E7022566
:10504800C6E7000037B50446069894F84150202D6D
:1050580044D194F84050012D40D0012584F84050A7
:10506800212584F84150102584F8425000256564B4
:105078006385E0621A4B6363638D62629BB2FF2BA8
:105088009BBF638D2385FF23E26A88BF2385236B3B
:1050980088BF4FF08072112B04D1AA2802D0B0F536
:1050A8002A4F09D12046FEF78EFC638D9BB2FF2B59
:1050B80000D8E26A0B4B00E0002300932046134619
:1050C800002594F82820FEF715FC204684F8405067
:1050D8000121FEF723FC284603B030BD0220FBE780
:1050E80041601008002000802DE9F743044690F83D
:1050F800410020280E4611460A9A40F0948094F800
:105108004000012800F08F80012084F84000212011
:1051180084F84100102084F8420000206064638510
:10512800E262424B6363638D61629BB2FF2B9BBF5C
:10513800638D2385FF23D4F82C8088BF2385236BB8
:1051480088BF4FF08078112B04D1AA2A02D0B2F57B
:105158002A4F0BD12046FEF736FC638D9BB2FF2BFE
:1051680001D8D4F82C80DFF8D49001E04FF0000982
:10517800258D002D45D0A06B50B32D4B2268C363FD
:1051880000272C4BC36407642B46076528320BF0B5
:1051980009F8054648BB94F82820CDF80090434606
:1051A80031462046FEF7A6FB638D228D84F84050D9
:1051B8009B1A9BB2638510212046FEF7AFFB22683D
:1051C800136843F480431360284603B0BDE8F083B6
:1051D800202384F8413084F84200636C84F840004E
:1051E80043F0800363640125EEE7202384F841300F
:1051F80084F84270636C84F8407043F01003636471
:10520800F1E70D4B63630D4B0093314620464FF099
:1052180000732A46FEF76EFB84F8405001212046B1
:10522800FEF77CFBD0E70225CEE700BFE962100855
:10523800C9641008ED631008416010080020008060
:1052480037B50446069894F84150202D44D194F877
:105258004050012D40D0012584F84050222584F883
:105268004150102584F84250002565646385E0624A
:105278001A4B6363638D62629BB2FF2B9BBF638D86
:105288002385FF23E26A88BF2385236B88BF4FF0FD
:105298008072122B04D1AA2802D0B0F52A4F09D166
:1052A8002046FEF790FB638D9BB2FF2B00D8E26A85
:1052B8000B4B00E00023009320461346002594F88A
:1052C8002820FEF717FB204684F840500221FEF7FD
:1052D80025FB284603B030BD0220FBE741601008DB
:1052E800002400802DE9F743044690F84100202867
:1052F8000E460A9940F0948094F84000012800F086
:105308008F80012084F84000222084F8410010207A
:1053180084F84200002060646385E162414B636366
:10532800638D62629BB2FF2B9BBF638D2385FF2336
:10533800D4F82C8088BF2385236B88BF4FF08078F2
:10534800122B04D1AA2902D0B1F52A4F0BD120463D
:10535800FEF739FB638D9BB2FF2B01D8D4F82C8064
:10536800DFF8D09001E04FF00009258D002D45D0E1
:10537800E06B50B32C4B2168C36300272B4BC364ED
:1053880007642B46076524310AF00CFF054648BB25
:1053980094F82820CDF80090434631462046FEF781
:1053A800A9FA638D228D84F840509B1A9BB26385BD
:1053B80010212046FEF7B2FA2268136843F400432E
:1053C8001360284603B0BDE8F083202384F84130F9
:1053D80084F84200636C84F8400043F080036364FF
:1053E8000125EEE7202384F8413084F84270636C8D
:1053F80084F8407043F010036364F1E70C4B636377
:105408000C4B0093314620464FF000732A46FEF7B6
:1054180071FA84F8405001212046FEF77FFAD0E760
:105428000225CEE7E96210081B651008ED63100835
:105438004160100800240080F8B51F4690F84130FC
:1054480003F02803282B04460E46154604D101B163
:1054580022B94FF400736364012044E048F201016B
:10546800FEF790FA90F84030012B3DD0012380F8E8
:10547800403090F841302A2B14D10221FEF782FAED
:1054880003681A6812040DD51A68C06B22F400422A
:105498001A6038B1154B03650BF04CF910B1E06B8D
:1054A800036D9847292384F841302068002220237F
:1054B80084F842306264436823F40043436065859E
:1054C800638D2385E7620A4B636383696662DB0346
:1054D80044BF0823C36148F20101204684F84020F4
:1054E800FEF71CFA0020F8BD0220FCE7CD65100885
:1054F800415E10082DE9F041984690F8413003F0DC
:105508002803282B04460D46174604D101B122B9B9
:105518004FF40073636401258FE090F84030012B4D
:1055280000F09180012380F8403048F20101FEF735
:1055380029FA90F841302A2B45D10221FEF722FAA8
:1055480003681A6810040DD5E06B58B11A6822F484
:1055580000421A603D4B03650BF0ECF810B1E06BAC
:10556800036D9847292384F841302268A06B2023D3
:10557800002684F842306664536823F4004353607D
:105588006785618D65628BB231492385C4F82C80AB
:10559800616300282ED02F49C1632F49C164066476
:1055A8002946066528320AF0FDFD054670B3282312
:1055B80084F8413084F84260636C84F8406043F0BA
:1055C80010036364A7E790F84130292BCAD1036818
:1055D8001A685104C6D51A68806B22F480421A6092
:1055E8000028BFD0194B03650BF0A4F80028B9D0E8
:1055F800A06BB5E7282384F8413084F84200636C37
:1056080084F8400043F08003636484E7638D228D4F
:1056180020859B1A9BB2638523689A69D2030FD4AD
:10562800002384F840304FF400412046FEF776F915
:105638002268136843F4804313602846BDE8F0816C
:105648000822DA61ECE70225F7E700BFCD6510080C
:1056580065611008235A1008ED631008F8B51F4655
:1056680090F8413003F02803282B04460E461546CF
:1056780004D101B122B94FF400736364012043E0FF
:1056880048F20201FEF77EF990F84030012B3CD039
:1056980090F841300121292B80F8401013D1FEF7F2
:1056A80071F903681A6852040DD51A68806B22F4E0
:1056B80080421A6038B1164B03650BF03BF810B105
:1056C800A06B036D98472A2384F841302068002294
:1056D800202384F842306264436823F40043436023
:1056E8006585638D2385E7620A4B63638369666218
:1056F800DB035CBF0823C36148F20201204684F83B
:105708004020FEF70BF90020F8BD0220FCE700BF9F
:10571800CD651008415E10082DE9F041984690F8D3
:10572800413003F02803282B04460D46174604D1C0
:1057380001B122B94FF40073636401258EE048F289
:105748000201FEF71FF990F84030012B00F08C8021
:1057580090F841300121292B80F8401044D1FEF700
:1057680011F903681A6850040DD5A06B58B11A686E
:1057780022F480421A603D4B03650AF0DBFF10B14A
:10578800A06B036D98472A2384F841302168E06BA9
:105798002023002684F8423066644B6823F40043D3
:1057A8004B606785628D656293B2314A2385C4F880
:1057B8002C80626300282ED02E4AC2632E4AC2640F
:1057C80006642A46066524310AF0ECFC054670B3E7
:1057D800282384F8413084F84260636C84F8406080
:1057E80043F010036364A8E790F841302A2BCAD12C
:1057F80003681A681104C6D51A68C06B22F40042FF
:105808001A600028BFD0194B03650AF093FF0028DF
:10581800B9D0E06BB5E7282384F8413084F842001A
:10582800636C84F8400043F08003636485E7638D0C
:10583800228D20859B1A9BB2638523689A69D203BF
:105848000FD5002384F8403048F202012046FEF7C5
:1058580065F82268136843F4004313602846BDE8DE
:10586800F0810822DA61ECE70225F7E7CD65100838
:10587800656110083D5A1008ED63100808B590F8E6
:105888004120202A0AD1282280F84120044A426374
:105898004FF40041FEF742F8002008BD0220FCE763
:1058A800415E100810B590F84120282A14D190F8CC
:1058B800411090F8422001F003010A4302630024DA
:1058C800202280F84120446380F842404FF4004190
:1058D800FEF758F8204610BD0220FCE737B590F8CF
:1058E8004230102B04460D462DD190F84030012B44
:1058F8002BD090F841300121212B80F8401019D18C
:10590800FEF740F811232363602384F84130104BDD
:10591800009329464FF00073012220460025FDF729
:10592800E9FF204684F840502021FDF7F7FF28467C
:1059380003B030BD90F84130222BE5D10221FEF7AB
:1059480021F81223DFE70120F2E70220F0E700BF89
:10595800004000800268436B9169126803B11847E0
:1059680070477047704738B5002580F8425090F866
:105978004130212B4FF0200380F841300AD1112308
:10598800036345630121FDF7FDFF80F84050FFF7F1
:10599800E8FF38BD1223036345630221FDF7F2FFD8
:1059A80080F84050FFF7DEFFF3E77047704708B50F
:1059B80003681A68002180F84210510415D51A6846
:1059C80022F480421A6090F84130292B13D1282301
:1059D80080F84130212303630121FDF7D3FF002321
:1059E80080F84030FFF7E1FF08BD1204EBD51A68D4
:1059F80022F40042E6E790F841302A2BF4D128231C
:105A080080F84130222303630221FDF7BBFF002306
:105A180080F84030FFF7CAFFE6E7806BC36A33F0CF
:105A2800807306D10268136823F480431360FFF77C
:105A3800BEBF7047806B2249C36BC26A1B688B422A
:105A48002DD018318B422AD018318B4227D01831EB
:105A58008B4224D018318B4221D018318B421ED072
:105A680018318B421BD018318B4218D001F5567172
:105A78008B4214D018318B4211D018318B420ED082
:105A880018318B420BD018318B4208D018318B4219
:105A980005D018318B4202D018318B4202D15B6895
:105AA80013B170475B684BB912F5803F06D00268A6
:105AB800136823F400431360FFF779BF704700BFF2
:105AC80010000240704790F8412002F02802282A6E
