:020000040800F2
:1000000000000320E90500089B3D0008A93D000809
:10001000AF3D0008B53D0008BB3D000839060008AB
:10002000000000000000000000000000C13D0008CA
:10003000CF3D000800000000DD3D0008EB3D00085A
:100040003906000839060008390600083906000894
:100050003906000839060008390600083906000884
:100060003906000839060008390600083906000874
:100070003906000839060008390600083906000864
:100080003906000839060008390600083906000854
:100090003906000839060008390600083906000844
:1000A0003906000839060008390600083906000834
:1000B0003906000839060008390600083906000824
:1000C0003906000839060008390600083906000814
:1000D0003906000839060008390600083906000804
:1000E00039060008390600083906000839060008F4
:1000F00039060008390600083906000839060008E4
:1001000039060008390600083906000839060008D3
:1001100039060008390600083906000839060008C3
:1001200039060008390600083906000839060008B3
:1001300039060008390600083906000839060008A3
:100140003906000839060008F93D0008390600089C
:100150003906000839060008390600083906000883
:100160003906000839060008390600083906000873
:1001700039060008000000003906000800000000F1
:100180003906000839060008390600083906000853
:100190003906000839060008390600083906000843
:1001A0003906000839060008390600083906000833
:1001B000390600080000000039060008390600086A
:1001C000390600080000000039060008390600085A
:1001D0003906000839060008390600083906000803
:1001E00039060008390600083906000839060008F3
:0401F000000000000B
:1001F80010B5054C237833B9044B13B1044800E01B
:1002080000BF0123237010BDA403002000000000DC
:100218000C14020808B5034B1BB10349034800E05E
:1002280000BF08BD00000000A80300200C1402084D
:10023800A3F5803A704700BF174B002B08BF134B3C
:100248009D46FFF7F5FF00218B460F461348144AD9
:10025800121A20F054FB0E4B002B00D098470D4B80
:10026800002B00D098470020002104000D000D4805
:10027800002802D00C4800E000BF20F00FFB20004F
:10028800290004F0C9FD20F0F5FA00BF00000800BD
:10029800000000000000000000000000A40300208F
:1002A800BC04002000000000000000002C310208FF
:1002B80000000020A4030020A4030020BC040020A8
:1002C80053B94AB9002908BF00281CBF4FF0FF31B5
:1002D8004FF0FF3000F082B9ADF1080C6DE904CEA3
:1002E80000F006F8DDF804E0DDE9022304B0704709
:1002F8002DE9F04F099D04460F46002B48D18A424C
:10030800944661D9B2FA82F343B1C3F120019F4008
:1003180002FA03FC9C4020FA01F10F434FEA1C410A
:100328001FFA8CFE220CB7FBF1F601FB167706FBD1
:100338000EF042EA0742904208D91CEB020206F18D
:10034800FF3702D2904200F237813E46121AA4B219
:10035800B2FBF1F001FB102200FB0EFE44EA02445E
:10036800A64508D91CEB040400F1FF3202D2A645C9
:1003780000F21C81104640EA0640A4EB0E04002659
:100388001DB1DC400023C5E900433146BDE8F08FCC
:100398008B4209D9002D00F0FD800026C5E9000137
:1003A80030463146BDE8F08FB3FA83F6002E4BD1C4
:1003B8008B42C0F0F280824240F2EF803046002D3E
:1003C800E3D0C5E90047E0E702B9FFDEB2FA82F3FD
:1003D800002B40F09D80891A4FEA124E97B20126F1
:1003E800200CB1FBFEF20EFB121140EA014107FBA3
:1003F80002F088420FD91CEB010102F1FF382CBF33
:100408004FF001094FF00009884203D9B9F1000FF4
:1004180000F0CF804246091AA4B2B1FBFEF00EFBF1
:10042800101100FB07F744EA0144A74208D91CEB66
:10043800040400F1FF3102D2A74200F2B48008465A
:10044800E41B40EA02409BE7C6F12007B34001FAEB
:1004580006F422FA07FCF940B2404CEA030C20FAF1
:1004680007F34FEA1C491C431FFA8CFE00FA06F3F7
:10047800200CB1FBF9F809FB181140EA014108FB0F
:100488000EF088420FD91CEB010108F1FF3A2CBF8E
:100498004FF0010B4FF0000B884203D9BBF1000F5E
:1004A80000F08D80D046091AA4B2B1FBF9F009FB1F
:1004B800101100FB0EFE44EA01418E4507D91CEBE2
:1004C800010100F1FF3401D28E457FD8204640EA71
:1004D8000840A1EB0E01A0FB029841454C46C646D8
:1004E80002D306D14B4504D20138B9EB020468EBBC
:1004F8000C0E002D70D01A1B61EB0E0122FA06F3C8
:1005080001FA07F7F14000261F43C5E900713CE7EF
:1005180002FA03FCC3F1200001FA03F221FA00F603
:100528004FEA1C4E24FA00F11FFA8CF79C40114345
:10053800B6FBFEF00A0C0EFB106642EA064200FB10
:1005480007F696420ED91CEB020200F1FF382CBFC9
:100558004FF001094FF00009964202D9B9F1000F96
:1005680031D04046921B89B2B2FBFEF60EFB162232
:1005780041EA024106FB07F28A4207D91CEB010156
:1005880006F1FF3801D28A4223D84646891A46EA3C
:10059800004625E72E462846F7E6841A61EB030352
:1005A80001201F460BE76444023849E764440238D7
:1005B800E1E6023A61442EE7023E6244C6E6A8F14B
:1005C800020861446FE702386244CBE702386144AD
:1005D8007DE7023E6144D9E72E46D6E6704700BF64
:1005E800DFF834D004F0D4FD002103E00B4B5B5856
:1005F800435004310A480B4B42189A42F6D30A4A30
:1006080002E0002342F8043B084B9A42F9D320F059
:1006180045F904F001FCFEE7000003202C31020834
:1006280000000020A4030020A4030020BC04002034
:10063800FEE780B483B000AF03460A46FB71134659
:10064800BB71FA79BB7902FA03F35AB2F979BB792B
:10065800C3F1080341FA03F35BB213435BB2DBB2A5
:1006680018460C37BD465DF8047B704790B583B0DB
:1006780000AF0346FB71FB7901211846FFF7D9FF4C
:1006880003461C46FB7902211846FFF7D2FF0346B2
:100698006340DCB2FB7907211846FFF7CAFF03461F
:1006A8006340DBB218460C37BD4690BD90B583B0A9
:1006B80000AF0346FB71FB7903211846FFF7B9FF2A
:1006C80003461C46FB7904211846FFF7B2FF034690
:1006D8006340DCB2FB7906211846FFF7AAFF034600
:1006E8006340DBB218460C37BD4690BD90B585B067
:1006F80000AF7860084611461A460346FB700B4661
:10070800BB7013467B707B689B79FB737B68DB79D6
:10071800BB737B6807337A6892791A707B680533F4
:100728001C787B6804331B781846FFF7BFFF034625
:100738001A467B785340DAB27B6806332244D2B239
:100748001A707B6805337A6812791A707B680333EC
:100758001B785CB27B6802331B781846FFF786FF6C
:1007680003461A46BB781344DBB25BB263405AB205
:100778007B680433D2B21A707B6803337A68927844
:100788001A707B6801331C787B681B781846FFF762
:100798008DFF03461A46FB785340DAB27B68023372
:1007A8002244D2B21A707B6801337A6812781A70C0
:1007B800FB7B1846FFF75AFF03461A4697F8203086
:1007C8001344DBB25AB297F90E3053405BB2DAB237
:1007D8007B681A7000BF1437BD4690BD80B487B0DF
:1007E80000AF7860396000237B610CE07B690C33D3
:1007F8003A68134419787A687B6913440A461A7070
:100808007B6901337B617B69032BEFDD04237B610B
:100818000CE07B69043B3A68134419787A687B6971
:1008280013440A461A707B6901337B617B69072B85
:10083800EFDD00237B613CE000233B6133E03A6954
:100848007B69D31A03F00703FB60FB683A6813441B
:1008580019787B691A013B6913441B4AD25C7B698E
:1008680018013B6903440A44D1B27A6813440A4622
:100878001A72FB6808333A68134419787B691A01BD
:100888003B6913440833104AD25C7B6918013B6901
:10089800034408330A44D1B27A6813440A461A72E8
:1008A8003B6901333B613B69072BC8DD7B69013339
:1008B8007B617B69072BBFDD00BF00BF1C37BD46CE
:1008C8005DF8047B704700BF00150208B0B58AB018
:1008D80002AFF860B9607A600023BB77BB681A780A
:1008E800FB681B781344DBB23B75BB685B787B7590
:1008F800BB6802331A78FB685B785340DBB2BB7580
:10090800BB68DB78FB75BB6804331A78FB689B7897
:100918001344DBB23B76BB685B797B76BB680633F6
:100928001A78FB68DB785340DBB2BB76BB68DB79AF
:10093800FB760023FB771FE0BB7FFA681344197A24
:10094800BB7F0133FA6813441C7ABB7F0233FA6811
:1009580013441D7ABB7F0333FA6813441B7A07F1EB
:10096800140000932B462246FFF7C0FEBB7F0433DA
:10097800BB77FB7F0133FB77FB7F1F2BDCD97A7DAD
:10098800FB681B791344DAB27B681A707B68013301
:10099800BA7D1A70F97DFB685A797B6802334A4040
:1009A800D2B21A707B6803333A7E1A70797EFB687C
:1009B8009A797B6804330A44D2B21A707B6805338B
:1009C800BA7E1A70F97EFB68DA797B6806334A408A
:1009D800D2B21A707B6807333A7D1A7000BF20378D
:1009E800BD46B0BD80B5ACB000AF786039607B68FB
:1009F8001B6C1B0EDBB23B767B681B6C1B0CDBB2E3
:100A08007B767B681B6C1B0ADBB2BB767B681B6C36
:100A1800DBB2FB767B685B6C1B0EDBB23B777B68DB
:100A28005B6C1B0CDBB27B777B685B6C1B0ADBB2F5
:100A3800BB777B685B6CDBB2FB777B689B6C1B0EC0
:100A4800DBB287F820307B689B6C1B0CDBB287F825
:100A580021307B689B6C1B0ADBB287F822307B68ED
:100A68009B6CDBB287F823307B68DB6C1B0EDBB238
:100A780087F824307B68DB6C1B0CDBB287F82530E9
:100A88007B68DB6C1B0ADBB287F826307B68DB6C83
:100A9800DBB287F827307B681B681B0EDBB23B7420
:100AA8007B681B681B0CDBB27B747B681B681B0AAA
:100AB800DBB2BB747B681B68DBB2FB747B685B686A
:100AC8001B0EDBB23B757B685B681B0CDBB27B756E
:100AD8007B685B681B0ADBB2BB757B685B68DBB253
:100AE800FB7507F1180207F1280311461846FFF7AE
:100AF80075FE07F1080207F1100107F128031846EF
:100B0800FFF7E4FE3B7A1B061A467B7A1B04134365
:100B1800BA7A12021343FA7A1A437B681A623B7B49
:100B28001B061A467B7B1B041343BA7B1202134332
:100B3800FA7B1A437B685A627B6800229A627B6858
:100B48000022DA6200BFB037BD4680BD80B489B0EC
:100B580000AF78602C4B1A687B6813442B4A1360EB
:100B68000023FB610023BB6128E0284B1A68BB699E
:100B7800C3F107039B0022FA03F3DBB203F00F0370
:100B8800FB74FB7C2249BA6912010A4413441B789E
:100B9800FB740023FB60FB7CFA681343FB60BB69B2
:100BA800C3F107039B00FA6802FA03F3FB60FA69D2
:100BB800FB681343FB61BB690133BB61BB69072B4E
:100BC800D3DD144AFB691360124B1B68DB027B619F
:100BD800104B1B685A0D7B6913430E4A13600D4B6B
:100BE8001A680D4B1B6853400C4A1360064B1B6870
:100BF800094A1360094B1B68034A136000BF243776
:100C0800BD465DF8047B7047C8030020C003002080
:100C180080150208D0030020CC030020C403002064
:100C28002DE9B04F8AB000AFC7E902017A60BB680E
:100C38002C4A1360D7E902014FF000024FF000037D
:100C48000A000023284B1A6000237B6213E000236C
:100C58003B620AE03B6A9B007A6813441B681846AB
:100C6800FFF774FF3B6A01333B623B6A072BF1DDF8
:100C78007B6A01337B627B6A022BE8DD0723FB6119
:100C88000AE0FB699B007A6813441B681846FFF763
:100C98005DFFFB69013BFB61FB69002BF1DA114B3E
:100CA8001B6800229A469346C7E904ABD7E90401BA
:100CB8004FF000024FF00003030000220A490968C0
:100CC80000200C46054642EA040843EA0509C7E93C
:100CD8000489D7E90423104619462837BD46BDE8DC
:100CE800B08F00BFC8030020CC0300202DE9B0431B
:100CF8008AB000AF78603960796809680020884652
:100D08008146C7E908897968496800200A46034688
:100D1800C7E90623D7E908014FF000024FF00003A6
:100D280003000022D7E9060140EA020441EA03056C
:100D3800C7E904457B6840331A46D7E90401FFF741
:100D48006FFFC7E90201D7E902014FF000024FF037
:100D580000030A0000237B681A62BA687B685A623B
:100D68007B6800229A627B680022DA6200BF28371B
:100D7800BD46BDE8B08380B485B000AF03460A46DF
:100D8800FB801346BB80FB88002B04D1BB88C3F1D2
:100D980001039BB21AE0BB88002B04D1FB88C3F186
:100DA80001039BB212E0FB88BA8802FB03F3BB6025
:100DB800BB689AB2BB681B0CD31AFB60FB68002B9C
:100DC80002DCFB680133FB60FB689BB218461437F2
:100DD800BD465DF8047B704780B485B000AF78608D
:100DE80039600023FB600CE0FB685B007A681A44FA
:100DF800FB685B0039680B4412881A80FB68013372
:100E0800FB60FB68072BEFDD65E0FB6803F0070379
:100E1800062B1DD1FB6803F10043073B5B003A68D2
:100E280013441B885B021AB2FB6803F100430E3BB4
:100E38005B0039680B441B88DB099BB21BB253402B
:100E480019B2FB685B003A6813448AB21A803FE023
:100E5800FB6803F00703072B1DD1FB6803F1004370
:100E68000F3B5B003A6813441B885B021AB2FB68AD
:100E780003F100430E3B5B0039680B441B88DB0918
:100E88009BB21BB2534019B2FB685B003A6813442B
:100E98008AB21A801CE0FB6803F10043073B5B0041
:100EA8003A6813441B885B021AB2FB6803F10043DB
:100EB800063B5B0039680B441B88DB099BB21BB2FD
:100EC800534019B2FB685B003A6813448AB21A802F
:100ED800FB680133FB60FB68332B96DD00BF00BF66
:100EE8001437BD465DF8047B704790B589B000AFF4
:100EF800F860B9607A60FB681B88BB83FB685B8815
:100F08007B83FB689B883B83FB68DB88FB82012330
:100F1800FB8359E0BB689A1CBA601B88BA8B1146E0
:100F28001846FFF728FF0346BB83BB689A1CBA60C4
:100F38001A887B8B13447B83BB689A1CBA601A8817
:100F48003B8B13443B83BB689A1CBA601B88FA8AA4
:100F580011461846FFF70FFF0346FB82BB689A1C31
:100F6800BA601888BA8B3B8B53409BB21946FFF77F
:100F780002FF0346BB82BB689A1CBA6018887A8B4A
:100F8800FB8A53409AB2BB8A13449BB21946FFF7B7
:100F9800F2FE03467B82BA8A7B8A1344BB827A8A32
:100FA800BB8B5340BB83BA8AFB8A5340FB82BA8A05
:100FB8007B8B5340BB827A8A3B8B53407B83BB8AB3
:100FC8003B83FB8B0133FB83FB8B082BA2D9BB68CC
:100FD8009A1CBA601B88BA8B11461846FFF7CBFEDD
:100FE80003461A467B681A80BB689A1CBA6019883F
:100FF8007B6802333A8B0A4492B21A80BB689A1C07
:10100800BA6019887B6804337A8B0A4492B21A80D2
:10101800BB689A1CBA601A887B689C1DFB8A1946B3
:101028001046FFF7A8FE0346238000BF2437BD46BD
:1010380090BD80B582B000AF786039607B68194692
:101048003868FFF7C9FE00BF0837BD4680BD80B5C8
:1010580084B000AFF860B9607A60FB687A681946B6
:10106800B868FFF742FF00BF1037BD4680BD80B5A6
:10107800A4B000AF786039607B681B681B0C9BB21A
:101088003B827B681B689BB27B827B685B681B0C1E
:101098009BB2BB827B685B689BB2FB827B681B6CE4
:1010A8009BB23B837B685B6C9BB27B837B689B6C4E
:1010B8009BB2BB837B68DB6C9BB2FB837B681B6D3D
:1010C8009BB23B847B685B6D9BB27B847B689B6D2A
:1010D8009BB2BB847B68DB6D9BB2FB8407F1180273
:1010E80007F1280311461846FFF7A3FF07F1080286
:1010F80007F1100107F128031846FFF7A8FF3B89FD
:101108001B041A467B891A437B681A62BB891B0435
:101118001A46FB891A437B685A627B6800229A62E6
:101128007B680022DA6200BF9037BD4680BD80B47C
:1011380083B000AF786039607B681A683B681B68C9
:101148005A407B681A607B68043319683B6804332B
:101158001A687B6804334A401A607B680833196848
:101168003B6808331A687B6808334A401A607B6812
:101178000C3319683B680C331A687B680C334A4097
:101188001A6000BF0C37BD465DF8047B704780B419
:1011980083B000AF786039603B681A687B681A6072
:1011A8007B6804333A6852681A607B6808333A6887
:1011B80092681A607B680C333A68D2681A6000BF7C
:1011C8000C37BD465DF8047B704780B485B000AF2E
:1011D800F860B9607A60BB681A687B689A40BB6837
:1011E800043319687B68C3F1200321FA03F31A4317
:1011F800FB681A60BB6804331A687B6802FA03F15B
:10120800BB6808331A687B68C3F12003DA40FB68BF
:1012180004330A431A60BB6808331A687B6802FA09
:1012280003F1BB680C331A687B68C3F12003DA400A
:10123800FB6808330A431A60BB680C331A687B687A
:1012480002FA03F1BB681A687B68C3F12003DA402D
:10125800FB680C330A431A6000BF1437BD465DF8BB
:10126800047B704780B485B000AFF860B9607A60DD
:10127800BB680C331A687B6822FA03F1BB68083331
:101288001A687B68C3F120039A40FB680C330A4351
:101298001A60BB6808331A687B6822FA03F1BB68D6
:1012A80004331A687B68C3F120039A40FB6808334B
:1012B8000A431A60BB6804331A687B6822FA03F190
:1012C800BB681A687B68C3F120039A40FB68043343
:1012D8000A431A60BB681A687B68DA40BB680C333B
:1012E80019687B68C3F1200301FA03F31A43FB680A
:1012F8001A6000BF1437BD465DF8047B70470000D4
:1013080080B483B000AF786039607B681B681B0EBF
:10131800DBB21A464E4B9B5C1A067B681B681B0C9B
:10132800DBB219464B4B5B5C1B041A437B681B689A
:101338001B0ADBB21946484B5B5C1B0213437A68F5
:101348001268D2B21146454A525C13431A463B68AA
:101358001A607B6804331B681B0EDBB21A463C4BD1
:101368009B5C1A067B6804331B681B0CDBB21946AE
:10137800384B5B5C1B041A437B6804331B681B0AED
:10138800DBB21946344B5B5C1B0213437A680432A8
:101398001268D2B21146314A525C1A433B68043390
:1013A8001A607B6808331B681B0EDBB21A46284B91
:1013B8009B5C1A067B6808331B681B0CDBB219465A
:1013C800244B5B5C1B041A437B6808331B681B0AAD
:1013D800DBB21946204B5B5C1B0213437A68083268
:1013E8001268D2B211461D4A525C1A433B68083350
:1013F8001A607B680C331B681B0EDBB21A46144B51
:101408009B5C1A067B680C331B681B0CDBB2194605
:10141800104B5B5C1B041A437B680C331B681B0A6C
:10142800DBB219460C4B5B5C1B0213437A680C3227
:101438001268D2B21146094A525C1A433B680C330F
:101448001A6000BF0C37BD465DF8047B704700BFCB
:10145800301602083017020830180208301902083E
:1014680080B483B000AF786039607B681B681B0E5E
:10147800DBB21A464E4B9B5C1A067B681B681B0C3A
:10148800DBB219464B4B5B5C1B041A437B681B6839
:101498001B0ADBB21946484B5B5C1B0213437A6894
:1014A8001268D2B21146454A525C13431A463B6849
:1014B8001A607B6804331B681B0EDBB21A463C4B70
:1014C8009B5C1A067B6804331B681B0CDBB219464D
:1014D800384B5B5C1B041A437B6804331B681B0A8C
:1014E800DBB21946344B5B5C1B0213437A68043247
:1014F8001268D2B21146314A525C1A433B6804332F
:101508001A607B6808331B681B0EDBB21A46284B2F
:101518009B5C1A067B6808331B681B0CDBB21946F8
:10152800244B5B5C1B041A437B6808331B681B0A4B
:10153800DBB21946204B5B5C1B0213437A68083206
:101548001268D2B211461D4A525C1A433B680833EE
:101558001A607B680C331B681B0EDBB21A46144BEF
:101568009B5C1A067B680C331B681B0CDBB21946A4
:10157800104B5B5C1B041A437B680C331B681B0A0B
:10158800DBB219460C4B5B5C1B0213437A680C32C6
:101598001268D2B21146094A525C1A433B680C33AE
:1015A8001A6000BF0C37BD465DF8047B704700BF6A
:1015B80030180208301902083016020830170208DD
:1015C80080B48BB000AF786039607B681B681B0EF5
:1015D80087F827307B681B681B0C87F826307B68E8
:1015E8001B681B0A87F825307B681B6887F824303E
:1015F8007B6804331B681B0E87F823307B68043331
:101608001B681B0C87F822307B6804331B681B0A95
:1016180087F821307B6804331B6887F820307B68A3
:1016280008331B681B0EFB777B6808331B681B0C91
:10163800BB777B6808331B681B0A7B777B6808339A
:101648001B683B777B680C331B681B0EFB767B683B
:101658000C331B681B0CBB767B680C331B681B0A9E
:101668007B767B680C331B683B7697F8242097F8C9
:1016780023305340DAB297F821305340DAB2FB7F77
:101688005340DAB2BB7F5340DAB2BB7E5340DAB282
:101698007B7E5340FB7597F8252097F822305340FE
:1016A800DAB297F820305340DAB2FB7F5340DAB20F
:1016B800BB7F5340DAB2FB7E5340DAB23B7E5340E5
:1016C800BB7597F8262097F823305340DAB297F87D
:1016D80021305340DAB27B7F5340DAB23B7F53402C
:1016E800DAB2FB7E5340DAB23B7E53407B7597F803
:1016F800272097F822305340DAB297F82030534029
:10170800DAB27B7F5340DAB23B7F5340DAB2BB7E1A
:101718005340DAB27B7E53403B7597F8272097F801
:1017280025305340DAB297F822305340DAB2FB7FC3
:101738005340DAB23B7F5340DAB27B7E5340DAB291
:101748003B7E5340FB7497F8262097F8243053408B
:10175800DAB297F823305340DAB2BB7F5340DAB29B
:101768007B7F5340DAB27B7E5340DAB23B7E5340F4
:10177800BB7497F8272097F825305340DAB297F8CA
:1017880020305340DAB2BB7F5340DAB27B7F5340FC
:10179800DAB2FB7E5340DAB2BB7E53407B7497F8D3
:1017A800262097F824305340DAB297F82130534076
:1017B800DAB2FB7F5340DAB23B7F5340DAB2FB7EAA
:1017C8005340DAB2BB7E53403B7497F8272097F812
:1017D80026305340DAB297F823305340DAB297F8FC
:1017E80020305340DAB27B7F5340DAB2BB7E53409D
:1017F800DAB23B7E5340FB7397F8272097F82630E0
:101808005340DAB297F822305340DAB297F82130D1
:101818005340DAB23B7F5340DAB2FB7E5340DAB230
:101828007B7E5340BB7397F8252097F824305340AC
:10183800DAB297F822305340DAB297F821305340A1
:10184800DAB2FB7F5340DAB2BB7E5340DAB23B7E5A
:1018580053407B7397F8252097F824305340DAB229
:1018680097F823305340DAB297F820305340DAB271
:10187800BB7F5340DAB2FB7E5340DAB27B7E5340E3
:101888003B7397F8262097F825305340DAB297F83B
:1018980021305340DAB297F820305340DAB2BB7F98
:1018A8005340DAB23B7F5340DAB2FB7E5340FB72BF
:1018B80097F8272097F824305340DAB297F8213068
:1018C8005340DAB297F820305340DAB2FB7F5340E6
:1018D800DAB27B7F5340DAB2BB7E5340BB7297F8D3
:1018E800272097F824305340DAB297F82330534032
:1018F800DAB297F822305340DAB2BB7F5340DAB2FB
:101908003B7F5340DAB27B7E53407B7297F82620A8
:1019180097F825305340DAB297F823305340DAB2BB
:1019280097F822305340DAB2FB7F5340DAB27B7F1C
:101938005340DAB23B7E53403B72FB7D1A06BB7DB7
:101948001B041A437B7D1B021A433B7D13431A4633
:101958003B681A60FB7C1A06BB7C1B041A437B7C21
:101968001B021A433B7C1A433B6804331A60FB7B17
:101978001A06BB7B1B041A437B7B1B021A433B7B67
:101988001A433B6808331A60FB7A1A06BB7A1B04B1
:101998001A437B7A1B021A433B7A1A433B680C337F
:1019A8001A6000BF2C37BD465DF8047B704780B5D0
:1019B80088B000AFF860B9607A6007F11003F96881
:1019C8001846FFF7E4FB07F11003B9681846FFF75C
:1019D800AEFB07F1100207F1100311461846FFF796
:1019E8008FFC07F1100379681846FFF7E9FD00BF7F
:1019F8002037BD4680BD80B588B000AFF860B960BB
:101A08007A6007F11003F9681846FFF7C0FB07F181
:101A18001003B9681846FFF78AFB07F1100207F1AF
:101A2800100311461846FFF71BFD07F110037968EC
:101A38001846FFF7C5FD00BF2037BD4680BD80B5FD
:101A480088B000AFF860B9607A603B601322B9686B
:101A5800B86AFFF707FCF968B86AFFF768FBBB6A62
:101A68001033132279681846FFF7FCFBBB6A103362
:101A7800B9681846FFF75BFBBB6A20331322396845
:101A88001846FFF7EFFBBB6A203379681846FFF763
:101A98004EFBBB6A30331322F9681846FFF7E2FBA6
:101AA800BB6A303339681846FFF741FBBB6A4033DD
:101AB8001F22B9681846FFF7D5FBBB6A4033F9689F
:101AC8001846FFF734FBBB6A50331F227968184663
:101AD800FFF7C8FBBB6A5033B9681846FFF727FB06
:101AE800BB6A60331F2239681846FFF7BBFBBB6A25
:101AF800603379681846FFF71AFBBB6A70331F22F8
:101B0800F9681846FFF7AEFBBB6A703339681846A8
:101B1800FFF70DFBBB6A80331F22B9681846FFF731
:101B280054FBBB6A03F1800107F110031E2218461B
:101B3800FFF74BFBBB6A803307F1100211461846CA
:101B4800FFF725FBBB6A8033F9681846FFF7EFFA01
:101B5800BB6A90331F2279681846FFF736FBBB6AC9
:101B680003F1900107F110031E221846FFF72DFB21
:101B7800BB6A903307F1100211461846FFF707FBBE
:101B8800BB6A9033B9681846FFF7D1FABB6AA0332D
:101B98001F2239681846FFF718FBBB6A03F1A0013A
:101BA80007F110031E221846FFF70FFBBB6AA0338C
:101BB80007F1100211461846FFF7E9FABB6AA0338D
:101BC80079681846FFF7B3FABB6AB0331F22F96881
:101BD8001846FFF7FAFABB6A03F1B00107F11003E0
:101BE8001E221846FFF7F1FABB6AB03307F110025C
:101BF80011461846FFF7CBFABB6AB0333968184666
:101C0800FFF795FABB6AC0331F22B9681846FFF779
:101C1800DCFABB6AC033F9681846FFF788FABB6A72
:101C2800D0331F2279681846FFF7CFFABB6AD03342
:101C3800B9681846FFF77BFABB6AE0331F22396898
:101C48001846FFF7C2FABB6AE03379681846FFF70F
:101C58006EFABB6AF0331F22F9681846FFF7B5FA27
:101C6800BB6AF03339681846FFF761FABB6A03F5B7
:101C780080731322B9681846FFF7A7FABB6A03F501
:101C88008073F9681846FFF752FA00BF2037BD463F
:101C980080BD000090B5A7B002AFF860B9607A6067
:101CA8007B68802B1DD1FB680D221A6000233B61E5
:101CB80000237B610023BB610023FB6107F1400324
:101CC8004F491846FFF763FA07F130034D491846A4
:101CD800FFF75DFA07F120034B491846FFF757FA5B
:101CE80043E07B68C02B1FD1FB680F221A60BB68DA
:101CF8001B693B61BB685B697B610023BB61002397
:101D0800FB6107F140033F491846FFF740FA07F126
:101D180030033D491846FFF73AFA07F120033849DE
:101D28001846FFF734FA20E0FB6811221A60BB68F6
:101D38001B693B61BB685B697B61BB689B69BB6175
:101D4800BB68DB69FB6107F140032F491846FFF7C1
:101D58001EFA07F130032A491846FFF718FA07F167
:101D6800200328491846FFF712FA07F18003B968DB
:101D78001846FFF70CFA07F1700207F1400107F166
:101D880080031846FFF713FE07F1100207F17003EE
:101D980011461846FFF7CBF907F1600207F1300149
:101DA80007F170031846FFF726FE07F1800207F1D6
:101DB800600311461846FFF7BAF907F1500207F118
:101DC800200107F160031846FFF7F1FD07F17002E3
:101DD80007F1500311461846FFF7A9F9FB680433C9
:101DE80007F1500407F1600207F1700107F1800064
:101DF80000932346FFF723FE00BF9437BD4690BDEE
:101E080000160208101602082016020890B589B0BC
:101E180000AFF860B9607A600023FB610023BB6102
:101E2800234A07F1100392E8030083E80300B96826
:101E38007868FFF7ACF90123FB6115E0FB6903F053
:101E480001039B0020333B4453F8104CBB695A1CD8
:101E5800BA611B01FA68134404337A681946786832
:101E6800A047FB690133FB61FB681B68023BFA6909
:101E78009A42E3D9BB695A1CBA611B01FA68134438
:101E8800043319467868FFF752F979687868FFF7DC
:101E9800E7FABB695A1CBA611B01FA681344043398
:101EA80019467868FFF743F900BF2437BD4690BD4F
:101EB8004C14020880B5C8B000AF07F59073A3F5BD
:101EC8008E73186007F59073A3F59073196007F582
:101ED8009073A3F58E731B6803F1400107F59073A7
:101EE800A3F590731A6807F10C031846FFF7D2FEA2
:101EF80007F59073A3F58E73196807F59073A3F52A
:101F08008E731B6803F1200207F10C031846FFF7D4
:101F18007DFF00BF07F59077BD4680BD80B582B0D4
:101F280000AF0F4B1B6E0E4A43F0010313660C4BB8
:101F38001B6E03F001037B607B68094B9B6D084AAD
:101F480043F080539365064B9B6D03F080533B60D1
:101F58003B681DF067FD00BF0837BD4680BD00BF68
:101F68000010024080B5AEB000AF786007F1A4035E
:101F780000221A605A609A60DA601A6107F1100349
:101F88009422002118461EF0BAFC7B681B68274A79
:101F9800934246D120233B614FF40063BB6507F1B0
:101FA8001003184615F040FE0346002B01D003F03D
:101FB800E5F81F4BDB6D1E4A43F00103D3651C4B4C
:101FC800DB6D03F00103FB60FB68194BDB6C184AFF
:101FD80043F04003D364164BDB6C03F04003BB6053
:101FE800BB681CF007FF4FF4C073C7F8A430022386
:101FF800C7F8A8300023C7F8AC300023C7F8B030C2
:102008000823C7F8B43007F1A403194609481DF09E
:102018003BFE00220021422006F087F8422006F00D
:102028009EF800BFB837BD4680BD00BF00800040A5
:10203800001002400018024280B582B000AF7860FC
:102048007B681B680A4A93420DD10A4BDB6D094A2B
:1020580023F00103D3654FF4C07107481DF094FFC6
:10206800422006F08AF800BF0837BD4680BD00BF91
:1020780000800040001002400018024280B400AF07
:1020880000BFBD465DF8047B704780B400AF0123F4
:102098001846BD465DF8047B704780B582B000AF36
:1020A800786039601EF0E0FB034616221A604FF094
:1020B800FF3318460837BD4680BD80B582B000AFF3
:1020C80078604FF0FF317868FFF7E7FFFEE780B5EB
:1020D80086B000AFF860B9607A6000237B610AE0DF
:1020E80000E000BF0146BB685A1CBA60CAB21A7049
:1020F8007B6901337B617A697B689A42F0DB7B6894
:1021080018461837BD4680BD80B586B000AFF86068
:10211800B9607A6000237B6109E0BB685A1CBA6029
:102128001B78184600E000BF7B6901337B617A6940
:102138007B689A42F1DB7B6818461837BD4680BD3C
:1021480080B483B000AF78604FF0FF3318460C3787
:10215800BD465DF8047B704780B483B000AF7860FB
:1021680039603B684FF400525A60002318460C3718
:10217800BD465DF8047B704780B483B000AF7860DB
:10218800012318460C37BD465DF8047B704780B4C0
:1021980085B000AFF860B9607A600023184614373C
:1021A800BD465DF8047B70470EB480B482B000AFC2
:1021B80078604FF0FF3318460837BD465DF8047B5A
:1021C80003B0704780B582B000AF78601EF04CFB5A
:1021D80003460A221A604FF0FF3318460837BD46F7
:1021E80080BD80B582B000AF78601EF03DFB03462D
:1021F80002221A604FF0FF3318460837BD4680BDEB
:1022080080B483B000AF78604FF0FF3318460C37C6
:10221800BD465DF8047B704780B483B000AF78603A
:1022280039603B684FF400525A60002318460C3757
:10223800BD465DF8047B704780B582B000AF78601A
:1022480039601EF011FB03461F221A604FF0FF335E
:1022580018460837BD4680BD80B500AF1EF004FBA8
:1022680003460B221A604FF0FF33184680BD80B535
:1022780084B000AFF860B9607A601EF0F5FA0346E2
:102288000C221A604FF0FF3318461037BD4680BD48
:102298002DE9F00F84B000AFC7E902017A60D7E9F1
:1022A80002237968A1F12006C1F1200003FA01F99F
:1022B80002FA06F649EA060922FA00F049EA000994
:1022C80002FA01F87968494201F03F01C1F120069C
:1022D800A1F1200022FA01F403FA06F6344323FAA6
:1022E80000F0044323FA01F548EA040A49EA050B19
:1022F80054465D4622462B46104619461037BD46C1
:10230800BDE8F00F70472DE9F00F84B000AFC7E9C2
:1023180002017A60D7E902237968C1F12006A1F1A8
:10232800200022FA01F803FA06F648EA060823FA1A
:1023380000F048EA000823FA01F97968494201F0F7
:102348003F01A1F12006C1F1200003FA01F502FACC
:1023580006F6354322FA00F0054302FA01F448EA8A
:10236800040A49EA050B54465D4622462B461046A8
:1023780019461037BD46BDE8F00F70472DE9B04F3C
:1023880082B000AFC7E900010122D7E90001FFF7D9
:102398007FFF804689460822D7E90001FFF778FFCA
:1023A80002460B4608EA020409EA03050222D7E9B5
:1023B8000001FFF76DFF02460B4684EA020A85EA30
:1023C800030B52465B46104619460837BD46BDE822
:1023D800B08F2DE9F04F87B000AF78613961C7E958
:1023E80002237B69D3E9002310461946FFF7C6FF8D
:1023F8003B69D3E9002380EA02063E604B407B60DC
:102408003B69D7E90012C3E900123B69D3E900012F
:10241800D7E9022380EA020A81EA030B3B69C3E990
:1024280000AB3B69D3E9002310461946FFF7A6FF26
:102438007B69D3E9002380EA020881EA03097B6902
:10244800C3E900897B69D3E90001D7E9102380EA51
:10245800020481EA03057B69C3E9004500BF1C3714
:10246800BD46BDE8F08F00002DE9B04FADF5087D01
:1024780000AFC7F80402C7F800121346A7F8FE31E8
:102488006FF003024FF0FF33C7E98223B7F8FE313C
:10249800802B40F02981D7F80422442313700FF6CB
:1024A800A813D3E90023C7E98623D7F80032D3E974
:1024B8000201D7F80432C3E90201D7F80032D3E9A0
:1024C8000001D7F80432C3E904014FF002024FF0CB
:1024D8000003C7E9842394E0D7E9862302F00103C7
:1024E800C7F8F0310023C7F8F431D7E98223D7F8C9
:1024F800F0115140C7F8E811D7F8F4114B40C7F86C
:10250800EC31D7E98423911EC7F8D01143F1FF338A
:10251800C7F8D431D7F80422D7F8D0310133DB001B
:102528001344D3E90023D7F8E8115140C7F8E01164
:10253800D7F8EC114B40C7F8E431D7E98423511E92
:10254800C7F8C81143F1FF33C7F8CC31D7F80422D4
:10255800D7F8C8310133DB001344D3E90001032263
:10256800FFF7D1FE02460B46D7F8E0115140C7F8F5
:10257800D811D7F8E4114B40C7F8DC31D7E98423E8
:10258800511EC7F8C01143F1FF33C7F8C431D7F85B
:102598000422D7F8C0310133DB001344D3E900012A
:1025A8000422FFF7B0FE02460B46D7F8D811514077
:1025B800C7F8B811D7F8DC114B40C7F8BC31D7F8C9
:1025C8000422D7F810320133DB001344D7E96E1226
:1025D800C3E90012D7E986234FF000004FF000014D
:1025E800500840EAC3705908C7E98601D7E984232F
:1025F800511C396143F100037B61D7E90423C7E922
:102608008423D7E98423422A73F10003FFF464AFDB
:10261800D7F80432D3E98201D7E9822380EA020499
:1026280081EA0305D7F80432D3E984010322FFF7CE
:102638006AFE02460B4684EA0201C7F8B0116B40F5
:10264800C7F8B431D7F80432D3E984010422FFF77C
:102658005AFE02460B46D7E96C4521465140C7F859
:10266800A81129465940C7F8AC11D7E96A120B4698
:1026780083F00103C7F8A0311346C7F8A431D7F88F
:102688000432D7E96812C3E98612D7F80432D3E9CD
:102698008401D7E9822380EA020A81EA030BD7F88A
:1026A8000432D3E986010322FFF72DFE02460B46CA
:1026B8008AEA02088BEA0309D7F80432D3E98601CB
:1026C8000422FFF720FE02460B4688EA0201C7F8FB
:1026D800981189EA0303C7F89C31D7F80432D7E97F
:1026E8006612C3E98812A8E3B7F8FE31C02B40F0A0
:1026F8004281D7F80422452313700FF25473D3E9AB
:102708000023C7E98623D7F80032D3E90401D7F8B4
:102718000432C3E90201D7F80032D3E90201D7F83D
:102728000432C3E90401D7F80032D3E90001D7F82D
:102738000432C3E906014FF003024FF00003C7E972
:10274800842394E0D7E9862302F00103C7F8903187
:102758000023C7F89431D7E98223D7E96445214695
:102768005140C7F8881129464B40C7F88C31D7E942
:102778008423D11EC7F8801143F1FF33C7F8843191
:10278800D7F80422D7F880310133DB001344D3E9AA
:102798000023D7E9624521465140C7F878112946F8
:1027A8004B40C7F87C31D7E98423511EC7F8701114
:1027B80043F1FF33C7F87431D7F80422D7F87031E2
:1027C8000133DB001344D3E900010322FFF79BFD2B
:1027D80002460B46D7E95E4521465140C7F86811C5
:1027E80029464B40C7F86C31D7E98423511EC7F8F6
:1027F800601143F1FF33C7F86431D7F80422D7F8E2
:1028080060310133DB001344D3E900010422FFF7F0
:102818007AFD02460B46D7E95A4521465140C7F88A
:10282800581129464B40C7F85C31D7F80422D7F82D
:1028380010320133DB001344D7E95612C3E9001202
:10284800D7E986234FF000004FF00001500840EA16
:10285800C3705908C7E98601D7E98423511CB960B8
:1028680043F10003FB60D7E90234C7E98434D7E9B0
:102878008423432A73F10003FFF464AFD7F80432CA
:10288800D3E98201D7E9822380EA0204C7F85041DC
:102898004B40C7F85431D7F80432D3E986010322F4
:1028A800FFF731FD02460B46D7E954452146514012
:1028B800C7F8481129465940C7F84C11D7F80432CF
:1028C800D3E986010422FFF71EFD02460B46D7E92D
:1028D800524521465140C7F8401129465940C7F88A
:1028E8004411D7F80432D7E95012C3E98812D7F84F
:1028F8000432D3E98401D7E9822380EA0204C7F8C5
:1029080038414B40C7F83C31D7F80432D3E9880145
:102918000322FFF7F8FC02460B46D7E94E4521464D
:102928005140C7F8301129465940C7F83411D7F833
:102938000432D3E988010422FFF7E5FC02460B467E
:10294800D7E94C4521465140C7F828112946594036
:10295800C7F82C11D7E94A120B4683F00103C7F8D0
:1029680020311346C7F82431D7F80432D7E9481282
:10297800C3E98A1261E2D7F80422482313700FF2E0
:10298800D843D3E90023C7E98623D7F80032D3E92F
:102998000601D7F80432C3E90201D7F80032D3E9B7
:1029A8000401D7F80432C3E90401D7F80032D3E9A7
:1029B8000201D7F80432C3E90601D7F80032D3E997
:1029C8000001D7F80432C3E908014FF004024FF0C0
:1029D8000003C7E98423D1E0D7E9862302F0010385
:1029E800C7F818310023C7F81C31D7E98223D7E983
:1029F800464521465140C7F8101129464B40C7F8B3
:102A08001431D7E98423111FC7F8081143F1FF33A4
:102A1800C7F80C31D7F80422D7F808310133DB00A6
:102A28001344D3E90023D7E9444521465140C7F868
:102A3800001129464B40C7F80431D7E98423511EB9
:102A4800C7F8F81043F1FF33C7F8FC30D7F8042271
:102A5800D7F8F8300133DB001344D3E9000103222F
:102A6800FFF751FC02460B46D7E940452146514045
:102A7800C7F8F01029464B40C7F8F430D7E984234B
:102A8800D11EC7F8E81043F1FF33C7F8EC30D7F888
:102A98000422D7F8E8300133DB001344D3E90023DC
:102AA800D7E93C4521465140C7F8E01029464B403C
:102AB800C7F8E430D7E98423511EC7F8D81043F18A
:102AC800FF33C7F8DC30D7F80422D7F8D830013301
:102AD800DB001344D3E900010422FFF714FC02468B
:102AE8000B46D7E9384521465140C7F8D01029464A
:102AF8004B40C7F8D430D7E98423D11EC7F8C81093
:102B080043F1FF33C7F8CC30D7F80422D7F8C830E0
:102B18000133DB001344D3E900010122FFF7F3FB83
:102B280002460B46D7E9344521465140C7F8C01044
:102B380029464B40C7F8C430D7F80422D7F81032DA
:102B48000133DB001344D7E93012C3E90012D7E997
:102B580086234FF000004FF00001500840EAC37090
:102B68005908C7E98601D7E98423511C396043F124
:102B780000037B60D7E90034C7E98434D7E98423AC
:102B8800442A73F10003FFF427AFD7F80432D3E9DE
:102B98008201D7E9822380EA0204C7F8B8404B4093
:102BA800C7F8BC30D7F80432D3E988010322FFF70D
:102BB800AAFB02460B46D7E92E4521465140C7F8E5
:102BC800B01029465940C7F8B410D7F80432D3E9F1
:102BD8008423D7E92C4521465140C7F8A810294637
:102BE8005940C7F8AC10D7F80432D3E98801042259
:102BF800FFF789FB02460B46D7E92A452146514093
:102C0800C7F8A01029465940C7F8A410D7F80432CD
:102C1800D3E984010122FFF776FB02460B46D7E988
:102C2800284521465140C7F8981029465940C7F809
:102C38009C10D7F80432D7E92612C3E98A12D7F8CC
:102C48000432D3E98401D7E9822380EA0204C7F871
:102C580090404B40C7F89430D7F80432D3E98A0142
:102C68000322FFF750FB02460B46D7E924452146CD
:102C78005140C7F8881029465940C7F88C10D7F832
:102C88000432D3E98623D7E9224521465140C7F8C3
:102C9800801029465940C7F88410D7F80432D3E980
:102CA8008A010422FFF72FFB02460B46D7E920458D
:102CB80021465140B96729465940F967D7F8043287
:102CC800D3E986010122FFF71EFB02460B46D7E92E
:102CD8001E45214651403967294659407967D7E949
:102CE8001C120B4683F00103BB661346FB66D7F83C
:102CF8000432D7E91A12C3E98C12D7F80432D3E99F
:102D08008601D7E9822380EA02043C664B407B6651
:102D1800D7F80432D3E98C010322FFF7F4FA02460C
:102D28000B46D7E9184521465140B965294659400F
:102D3800F965D7F80432D3E98823D7E9164521463F
:102D480051403965294659407965D7F80432D3E9A5
:102D58008C010422FFF7D7FA02460B46D7E914453F
:102D680021465140B96429465940F964D7F80432DC
:102D7800D3E988010122FFF7C6FA02460B46D7E9D4
:102D88001245214651403964294659407964D7F89B
:102D98000432D7E91012C3E98E12D7F80432D3E906
:102DA8008801D7E9822380EA0204BC634B40FB63B5
:102DB800D7F80432D3E98E010322FFF7A4FA0246BA
:102DC8000B46D7E90E4521465140396329465940FB
:102DD8007963D7F80432D3E98A23D7E90C45214629
:102DE8005140B96229465940F962D7F80432D3E90B
:102DF8008E010422FFF787FA02460B46D7E90A45F7
:102E0800214651403962294659407962D7F804323F
:102E1800D3E98A010122FFF776FA02460B46D7E981
:102E2800084521465140B96129465940F961D7F80A
:102E38000432D7E90612C3E9901200BF07F50877F4
:102E4800BD46BDE8B08F00BFF50E2C1985F8697333
:102E5800DB35A60712E52CFC8B676D043A4CC9FDDF
:102E68002DE9F0438FB002AFF860B9607A60BB68B3
:102E7800D3E90023C7E90623BB68D3E90223C7E9DE
:102E88000423FB681B78452B4FD1002387F82F308C
:102E980021E097F82F30FA680133DB001344D3E9B7
:102EA800000197F82F300133FA680133DB0013442F
:102EB800D3E9002307F1100C07F11806CDE9002328
:102EC80002460B4661463046FFF783FA97F82F30E3
:102ED800023387F82F3097F82F30432BD9D9D7E909
:102EE800062310461946FFF749FAD7E9042380EA72
:102EF800020881EA0309C7E90489FB68D3E98A0162
:102F0800D7E9042380EA020481EA0305C7E90445F6
:102F1800D7E90623C7E90823D7E90423C7E9062325
:102F2800D7E90823C7E904232BE0002387F82F30CB
:102F380021E097F82F30FA680133DB001344D3E916
:102F4800000197F82F300133FA680133DB0013448E
:102F5800D3E9002307F1100507F11804CDE9002390
:102F680002460B4629462046FFF733FA97F82F30DA
:102F7800023387F82F30FB681B7897F82F209A4286
:102F8800D7D3D7E906237968C1E900237B6803F121
:102F98000801D7E90423C1E9002300BF3437BD463F
:102FA800BDE8F0832DE9B04FADF5647D00AF07F5BE
:102FB8006473A3F53B73186007F56473A3F53C735A
:102FC800196007F56473A3F53B731B681B6800223F
:102FD8001C461546C7E9E24507F56473A3F53B733C
:102FE8001B685B68002298469146C7E9E08907F5A7
:102FF8006473A3F53B731B689B6800229A4693464B
:10300800C7E9DEAB07F56473A3F53B731B68DB68A0
:1030180000223B647A64D7E91034C7E9DC3407F549
:103028006473A3F53B731B681B6C0022BB63FA63D4
:10303800D7E90E34C7E9DA3407F56473A3F53B73AF
:103048001B685B6C00223B637A63D7E90C34C7E9E1
:10305800D83407F56473A3F53B731B689B6C002297
:10306800BB62FA62D7E90A34C7E9D63407F5647354
:10307800A3F53B731B68DB6C00223B627A62D7E9DD
:103088000834C7E9D43407F56473A3F53B731B68A8
:103098001B6D0022BB61FA61D7E90634C7E9D23457
:1030A80007F56473A3F53B731B685B6D00223B61F6
:1030B8007A61D7E90434C7E9D03407F56473A3F516
:1030C8003B731B689B6D0022BB60FA60D7E9023432
:1030D800C7E9CE3407F56473A3F53B731B68DB6D52
:1030E80000223B607A60D7E90034C7E9CC34D7E9DD
:1030F800E2234FF000004FF0000111000020D7E953
:10310800E02340EA0204C7F898400B43C7F89C3014
:1031180007F56473A3F53673D7E92612C3E90012DD
:10312800D7E9DE234FF000004FF000011100002026
:10313800D7E9DC2340EA0204C7F890400B43C7F8FC
:10314800943007F56473A3F53673D7E92412C3E9FD
:10315800021207F56473A3F53C731B68B3F5807F0F
:1031680000F0AF8007F56473A3F53C731B68B3F5F3
:10317800807F00F3038107F56473A3F53C731B6834
:10318800802B07D007F56473A3F53C731B68C02B2D
:1031980047D0F3E0D7E9DA014FF000024FF000031F
:1031A80003000022D7E9D80142EA0004C7F88840A2
:1031B8000B43C7F88C3007F56473A3F53273D7E96E
:1031C8002212C3E90012D7E9D6014FF000024FF0EE
:1031D800000303000022D7E9D40142EA0004C7F83B
:1031E80080400B43C7F8843007F56473A3F5327346
:1031F800D7E92012C3E9021207F56473A3F5327107
:103208004FF000024FF00003C1E9042307F564738F
:10321800A3F532714FF000024FF00003C1E9062315
:10322800ADE0D7E9DA014FF000024FF000030300E8
:103238000022D7E9D80142EA0004BC670B43FB67C8
:1032480007F56473A3F53273D7E91E12C3E90012B8
:10325800D7E9D6014FF000024FF000030300002227
:10326800D7E9D40142EA00043C670B437B6707F5C2
:103278006473A3F53273D7E91C12C3E90212D7E9C4
:10328800D2014FF000024FF0000303000022D7E9FB
:10329800D00142EA0004BC660B43FB6607F5647381
:1032A800A3F53273D7E91A12C3E9041207F5647358
:1032B800A3F532714FF000024FF00003C1E9062375
:1032C8005DE0D7E9DA014FF000024FF00003030098
:1032D8000022D7E9D80142EA00043C660B437B662A
:1032E80007F56473A3F53273D7E91812C3E900121E
:1032F800D7E9D6014FF000024FF000030300002287
:10330800D7E9D40142EA0004BC650B43FB6507F525
:103318006473A3F53273D7E91612C3E90212D7E929
:10332800D2014FF000024FF0000303000022D7E95A
:10333800D00142EA00043C650B437B6507F56473E2
:10334800A3F53273D7E91412C3E90412D7E9CE0101
:103358004FF000024FF0000303000022D7E9CC0130
:1033680042EA0004BC640B43FB6407F56473A3F5ED
:103378003273D7E91212C3E9061200E000BF07F55D
:103388006473A3F53C731B689AB207F1C80107F18F
:10339800E8031846FFF768F807F1A80207F1B80133
:1033A80007F1E8031846FFF75BFD07F56473A3F51B
:1033B8003A73D3E900014FF000024FF000030A000E
:1033C800002307F56473A3F53B731B681A6207F5BE
:1033D8006473A3F53A73D3E9002307F56473A3F57F
:1033E8003B731B685A6207F56473A3F53A73D3E914
:1033F80002014FF000024FF000030A00002307F516
:103408006473A3F53B731B689A6207F56473A3F5AD
:103418003A73D3E9022307F56473A3F53B731B687A
:10342800DA6200BF07F56477BD46BDE8B08F2DE9C5
:10343800F00F84B000AFC7E902017A60D7E9022330
:103448007968A1F12006C1F1200003FA01F902FA16
:1034580006F649EA060922FA00F049EA000902FAE2
:1034680001F87968494201F03F01C1F12006A1F154
:10347800200022FA01F403FA06F6344323FA00F096
:10348800044323FA01F548EA040A49EA050B5446BD
:103498005D4622462B46104619461037BD46BDE804
:1034A800F00F70472DE9F00F84B000AFC7E90201B3
:1034B8007A60D7E902237968C1F12006A1F12000DA
:1034C80022FA01F803FA06F648EA060823FA00F099
:1034D80048EA000823FA01F97968494201F03F01F6
:1034E800A1F12006C1F1200003FA01F502FA06F65F
:1034F800354322FA00F0054302FA01F448EA040AC7
:1035080049EA050B54465D4622462B4610461946A5
:103518001037BD46BDE8F00F70472DE9B04F84B0B5
:1035280000AFF860B960C7E90023FB68D3E9000180
:103538000822FFF7B7FF02460B46F968C1E90023E6
:10354800FB68D3E90001BB68D3E9002310EB020A4A
:1035580041EB030BFB68C3E900ABFB68D3E900014F
:10356800D7E9002380EA020881EA0309FB68C3E976
:103578000089BB68D3E900010322FFF758FF024620
:103588000B46B968C1E90023BB68D3E90001FB68B1
:10359800D3E9002380EA020481EA0305BB68C3E992
:1035A800004500BF1037BD46BDE8B08F2DE9B04FCC
:1035B8009AB000AFF863B9631346FB86FB8E802B85
:1035C80032D1FB6B20221A70BB6BD3E90223C7E907
:1035D8001623BB6BD3E90023C7E914234FF000027D
:1035E8004FF00003C7E9182317E0D7E91623F86B53
:1035F800396E0131C9000144C1E9002307F15801BE
:1036080007F15000D7E91823FFF787FFD7E91823F8
:10361800541C43F10005C7E91845D7E91823202AA7
:1036280073F10003E1D3E1E0FB8EC02B5BD1FB6BB0
:1036380021221A70BB6BD3E90423C7E91623BB6B9D
:10364800D3E90223C7E91423BB6BD3E90023C7E9F5
:1036580012234FF000024FF00003C7E9182336E0A9
:10366800D7E91623F86B396E0131C9000144C1E965
:10367800002307F1580107F15000D7E91823FFF795
:103688004CFFD7E9182312F1010843F10009D7E9E3
:103698001623F86B08F10101C9000144C1E90023B0
:1036A800D7E91823511CB96243F10003FB6207F103
:1036B800580107F14800D7E90A23FFF72EFFD7E999
:1036C800182312F1020A43F1000BC7E918ABD7E936
:1036D8001823202A73F10003C2D3D7E91623F96B04
:1036E800C1E9422382E0FB6B22221A70BB6BD3E94B
:1036F8000623C7E91623BB6BD3E90423C7E91423C0
:10370800BB6BD3E90223C7E91223BB6BD3E90023C0
:10371800C7E910234FF000024FF00003C7E9182350
:1037280059E0D7E91601FA6B3B6E0133DB0013440D
:10373800C3E9000107F1580107F15000D7E9182340
:10374800FFF7EBFED7E91823511C396243F1000358
:103758007B62D7E91601FA6B3B6A0133DB0013443D
:10376800C3E90001D7E91823511CB96143F10003EB
:10377800FB6107F1580107F14800D7E90623FFF775
:10378800CCFED7E91823911C396143F100037B6112
:10379800D7E91601FA6B3B690133DB001344C3E92F
:1037A8000001D7E91823911CB96043F10003FB60BD
:1037B80007F1580107F14000D7E90223FFF7ADFEF2
:1037C800D7E91823D11C396043F100037B60D7E99E
:1037D8000034C7E91834D7E91823212A73F1000304
:1037E8009FD3D7E91623F96BC1E9442300BF683793
:1037F800BD46BDE8B08F80B58AB000AFF860B9604B
:103808007A60BB68D3E90023C7E90623BB68D3E91C
:103818000223C7E90423002387F8273012E097F82A
:103828002730FA680133DB001344D3E9002307F19A
:10383800100107F11800FFF770FE97F827300133E1
:1038480087F82730FB681B7897F827209A42E6D339
:10385800D7E906237968C1E900237B6803F10801E9
:10386800D7E90423C1E9002300BF2837BD4680BD3E
:103878002DE9B04FADF5187D00AF07F51873A3F526
:10388800DE73186007F51873A3F5E073196007F580
:103898001873A3F5DE731B681B6800221C461546C7
:1038A800C7E9964507F51873A3F5DE731B685B68CF
:1038B800002298469146C7E9948907F51873A3F53D
:1038C800DE731B689B6800229A469346C7E992AB51
:1038D80007F51873A3F5DE731B68DB6800223B64E9
:1038E8007A64D7E91034C7E9903407F51873A3F55B
:1038F800DE731B681B6C0022BB63FA63D7E90E34C6
:10390800C7E98E3407F51873A3F5DE731B685B6C83
:1039180000223B637A63D7E90C34C7E98C3407F596
:103928001873A3F5DE731B689B6C0022BB62FA62F6
:10393800D7E90A34C7E98A3407F51873A3F5DE73A3
:103948001B68DB6C00223B627A62D7E90834C7E95E
:10395800883407F51873A3F5DE731B681B6D002206
:10396800BB61FA61D7E90634C7E9863407F51873ED
:10397800A3F5DE731B685B6D00223B617A61D7E9B2
:103988000434C7E9843407F51873A3F5DE731B689C
:103998009B6D0022BB60FA60D7E90234C7E9823424
:1039A80007F51873A3F5DE731B68DB6D00223B6017
:1039B8007A60D7E90034C7E98034D7E996234FF015
:1039C80000004FF0000111000020D7E9942340EADD
:1039D8000204C7F898400B43C7F89C3007F51873E2
:1039E800A3F5D473D7E92612C3E90012D7E99223C5
:1039F8004FF000004FF0000111000020D7E990239C
:103A080040EA0204C7F890400B43C7F8943007F522
:103A18001873A3F5D473D7E92412C3E9021207F582
:103A28001873A3F5E0731B68B3F5807F00F0AF80CF
:103A380007F51873A3F5E0731B68B3F5807F00F3EF
:103A4800038107F51873A3F5E0731B68802B07D073
:103A580007F51873A3F5E0731B68C02B47D0F3E094
:103A6800D7E98E014FF000024FF000030300002257
:103A7800D7E98C0142EA0004C7F888400B43C7F82D
:103A88008C3007F51873A3F5CC73D7E92212C3E974
:103A98000012D7E98A014FF000024FF0000303003B
:103AA8000022D7E9880142EA0004C7F880400B43A6
:103AB800C7F8843007F51873A3F5CC73D7E920123B
:103AC800C3E9021207F51873A3F5CC714FF0000291
:103AD8004FF00003C1E9042307F51873A3F5CC716F
:103AE8004FF000024FF00003C1E90623ADE0D7E92B
:103AF8008E014FF000024FF0000303000022D7E9C7
:103B08008C0142EA0004BC670B43FB6707F5187396
:103B1800A3F5CC73D7E91E12C3E90012D7E98A01CD
:103B28004FF000024FF0000303000022D7E988019C
:103B380042EA00043C670B437B6707F51873A3F55B
:103B4800CC73D7E91C12C3E90212D7E986014FF0FA
:103B580000024FF0000303000022D7E9840142EA83
:103B68000004BC660B43FB6607F51873A3F5CC731A
:103B7800D7E91A12C3E9041207F51873A3F5CC7133
:103B88004FF000024FF00003C1E906235DE0D7E9DA
:103B98008E014FF000024FF0000303000022D7E926
:103BA8008C0142EA00043C660B437B6607F51873F8
:103BB800A3F5CC73D7E91812C3E90012D7E98A0133
:103BC8004FF000024FF0000303000022D7E98801FC
:103BD80042EA0004BC650B43FB6507F51873A3F5BF
:103BE800CC73D7E91612C3E90212D7E986014FF060
:103BF80000024FF0000303000022D7E9840142EAE3
:103C080000043C650B437B6507F51873A3F5CC737B
:103C1800D7E91412C3E90412D7E982014FF0000270
:103C28004FF0000303000022D7E9800142EA0004B4
:103C3800BC640B43FB6407F51873A3F5CC73D7E991
:103C48001212C3E9061200E000BF07F51873A3F5C6
:103C5800E0731B689AB207F1C80107F1E803184638
:103C6800FFF7A4FC07F1A80207F1B80107F1E80380
:103C78001846FFF7C0FD07F51873A3F5DC73D3E901
:103C880000014FF000024FF000030A00002307F57F
:103C98001873A3F5DE731B681A6207F51873A3F58A
:103CA800DC73D3E9002307F51873A3F5DE731B68EB
:103CB8005A6207F51873A3F5DC73D3E902014FF0D4
:103CC80000024FF000030A00002307F51873A3F55C
:103CD800DE731B689A6207F51873A3F5DC73D3E9E2
:103CE800022307F51873A3F5DE731B68DA6200BFB9
:103CF80007F51877BD46BDE8B08F80B483B000AF34
:103D080078607B68DB6903F00403042B01D101238D
:103D180000E0002318460C37BD465DF8047B704769
:103D280080B483B000AF78607B68DB6903F0200360
:103D3800202B01D1012300E0002318460C37BD4693
:103D48005DF8047B704780B483B000AF78607B680F
:103D58001B6803F02003202B01D1012300E000237E
:103D680018460C37BD465DF8047B704780B483B0B5
:103D780000AF78607B689B6803F00103012B01D1D9
:103D8800012300E0002318460C37BD465DF8047B8C
:103D9800704780B400AF00BFBD465DF8047B704734
:103DA80080B400AFFEE780B400AFFEE780B400AF98
:103DB800FEE780B400AFFEE780B400AF00BFBD46A9
:103DC8005DF8047B704780B400AF00BFBD465DF866
:103DD800047B704780B400AF00BFBD465DF8047B2C
:103DE800704780B500AF05F027FF00BF80BD000019
:103DF80080B500AF1048FFF793FF0346002B07D0AC
:103E08000D48FFF7A0FF0346002B01D001F068F929
:103E18000948FFF7ABFF0346002B07D00648FFF71A
:103E28006CFF0346002B01D001F08CF903480FF01A
:103E38000FFE00BF80BD00BF00800040DC030020F3
:103E480080B582B000AF78600B46FB70FB78122B10
:103E580000F28E8001A252F823F000BFB13E0008A4
:103E6800BB3E0008C53E0008D13E0008DB3E000806
:103E7800E53E0008F13E0008FB3E0008053F00084B
:103E88000F3F0008193F0008253F00082F3F000892
:103E9800393F00086D3F0008453F00084F3F0008C4
:103EA800593F0008633F000880217868FEF702F850
:103EB8005FE0C0217868FDF7FDFF5AE04FF480719C
:103EC8007868FDF7F7FF54E08021786803F0C9FAB5
:103ED8004FE0C021786803F0C4FA4AE04FF48071DB
:103EE800786803F0BEFA44E08021786801F0D2FFD8
:103EF8003FE08021786801F068FB3AE0802178682B
:103F0800FFF750F835E0C0217868FFF74BF830E04C
:103F18004FF480717868FFF745F82AE080217868C7
:103F2800FFF7A6FC25E0C0217868FFF7A1FC20E098
:103F38004FF480717868FFF79BFC1AE0802178685D
:103F4800FDF795F815E05021786800F091FD10E034
:103F58008021786800F08CFD0BE080217868FCF700
:103F680041FD06E04FF480717868FCF7BFFE00E081
:103F780000BF00BF0837BD4680BD00BF84B080B514
:103F880084B000AF07F1180C8CE80F0097F87C306C
:103F9800194607F11800FFF753FF0023FB6002E002
:103FA800FB680133FB60FB68032BF9DDBA6ABB6B66
:103FB8005340BB64FA6AFB6B5340FB64D7F880300C
:103FC800042B08D13A6B3B6C53403B657A6B7B6C96
:103FD80053407B6503E000233B6500237B6500239A
:103FE800BB6002E0BB680133BB60BB68032BF9DD33
:103FF80097F87C30194607F11800FFF721FFBA6CD3
:10400800BB6B5340BB63FA6CFB6B5340FB633A6D6D
:104018003B6C53403B647A6D7B6C53407B6400235C
:104028007B6016E07B68083307F1180252F82320FA
:10403800D7F88410D7F88030C91A7B680B440B492D
:1040480051F823309A4201D0012308E07B680133FC
:104058007B607A68D7F880309A42E3DB0023184601
:104068001037BD46BDE8804004B070470800002006
:1040780080B584B000AF7860114B1B68002B02D16B
:104088000F4B104A1A600E4B1B68FB600C4B1A68EA
:104098007B6813446A46934207D91CF0E5FB034644
:1040A8000C221A604FF0FF3306E0054B1A687B6854
:1040B8001344034A1360FB6818461037BD4680BD99
:1040C800D8030020C00400202DE9F00FE6B000AFAF
:1040D800C7F86C01C7F868111346A7F86631B7F836
:1040E8006631502B40F06381D7F868311B889BB24A
:1040F8000022C7F88030C7F88420D7E92034C7E900
:104108006434D7F8683102331B889BB20022C7F8A1
:104118005831C7F85C214FF000004FF00001D7F884
:10412800583119040020D7F8683104331B889BB232
:104138000022C7F85031C7F854214FF000024FF061
:104148000003D7F850412300002240EA0204C7F8D0
:1041580048410B43C7F84C31D7F8683106331B8800
:104168009BB20022C7F84031C7F84421D7E9501262
:104178000B464FEA13490B464FEA0348D7E9521258
:104188000B4643EA0803C7F83831134643EA0903E4
:10419800C7F83C31D7F8683108331B889BB2002236
:1041A800C7F83031C7F83421D7E94E452346D7E957
:1041B8004C0102461343BB672B460A461343FB6771
:1041C800D7E91E34C7E96234D7E964234FF0000405
:1041D8004FF0000515040024D7E962234FF00000D2
:1041E8004FF00001100C40EA0340190C44EA0003A8
:1041F800C7F8283145EA0103C7F82C31D7F86C31E4
:10420800D7E94A12C3E90012012387F88731C8E0C9
:10421800D7E96423C7E95C23D7E962234FF000009C
:104228004FF00001D00840EA4370D90883B23B67D9
:1042380000237B67D7E91C34C7E96434D7E96223D4
:104248004FF000044FF0000555070024D7E95C2320
:104258004FF000004FF000015103002044EA000332
:10426800C7F8203145EA0103C7F82431D7E96223AA
:104278004FF000004FF00001D00C40EA4330D90C59
:10428800D7E9484523460343BB662B460B43FB66E9
:10429800D7E91A34C7E96234D7E964234FF000003C
:1042A8004FF00001100B40EA0350190B00F00F0308
:1042B800C7F818310023C7F81C31A24BD7F81821CA
:1042C80013441B78DBB200223B667A66D7E91834C0
:1042D800C7E95C34D7E96423C2F30B03C7F810318C
:1042E8000023C7F81431D7E95C234FF000004FF0E2
:1042F8000001190341EA12511003D7E94445234646
:104308000343BB652B460B43FB65D7E91634C7E966
:10431800643497F887310022C7F80831C7F80C21B0
:104328004FF000004FF00001D7E942452B46D90372
:10433800234641EA53412346D803D7E9622382EA58
:1043480000043C654B407B65D7E91434C7E9623407
:10435800D7E964234FF000044FF00005150400244A
:10436800D7E962234FF000004FF00001100C40EA3B
:104378000340190C97F8873144EA0002C7F8002176
:1043880045EA0102C7F80421D7F86C21DB00134481
:10439800D7E94012C3E9001297F88731013387F84B
:1043A800873197F887311F2B7FF632AFA1E1D7F815
:1043B80068311B889BB20022C7F8F830C7F8FC2088
:1043C8004FF000004FF00001D7F8F8301904002032
:1043D800D7F8683102331B889BB20022C7F8F03047
:1043E800C7F8F4204FF000024FF00003D7F8F06050
:1043F8003300002240EA020A41EA030BD7F8683189
:1044080004331B889BB20022C7F8E830C7F8EC20B9
:10441800D7E93A120B461D0C0B461C044AEA040362
:10442800C7F8E0304BEA0503C7F8E430D7F868313D
:1044380006331B889BB20022C7F8D830C7F8DC20A7
:10444800D7E938452346D7E9360102461343BB640A
:104458002B460A461343FB64D7E91234C7E9643490
:10446800D7F8683108331B889BB20022C7F8D030D0
:10447800C7F8D4204FF000004FF00001D7F8D03033
:1044880019040020D7F868310A331B889BB2002230
:10449800C7F8C830C7F8CC204FF000024FF000032F
:1044A800D7F8C8402300002240EA0204C7F8C040F9
:1044B8000B43C7F8C430D7F868310C331B889BB25C
:1044C8000022C7F8B830C7F8BC20D7E92E120B462F
:1044D8001B0CC7F8B4300B461B04C7F8B030D7E93B
:1044E80030452346D7E92C0102461343C7F8A830C4
:1044F8002B460A461343C7F8AC30D7F868310E3359
:104508001B889BB20022C7F8A030C7F8A420D7E9BF
:104518002A452346D7E92801024613433B642B4624
:104528000A4613437B64D7E91034C7E96234D7F8E5
:104538006C11D7E96423C1E900230123C7F880314E
:10454800D2E000BF901A0208D7E96423C7E95E23C6
:10455800D7E95E234FF000044FF00005550700240B
:10456800D7E962234FF000004FF00001D00840EA7D
:104578004370D90844EA0003BB6345EA0103FB63BF
:10458800D7E90E34C7E96434D7E962234FF0000451
:104598004FF0000555070024D7E95E234FF00000CF
:1045A8004FF00001D00840EA4370D90844EA0003FC
:1045B8003B6345EA01037B63D7E90C34C7E96234FE
:1045C800D7E964234FF000004FF00001180F0021D5
:1045D8004B4B03441B78DBB20022BB62FA62D7E97B
:1045E8000A34C7E95E34D7E95E234FF000004FF084
:1045F800000111070020D7E9642342EA00043C6265
:104608000B437B62D7E90834C7E96434D7E96423EC
:104618004FF000004FF00001180E002100F00F03CA
:10462800C7F898300023C7F89C30354BD7F8982046
:1046380013441B78DBB20022BB61FA61D7E9063468
:10464800C7E95E34D7E95E234FF000004FF0000160
:1046580011060020D7E9642342EA00043C610B43B9
:104668007B61D7E90434C7E96434D7F880319B10FB
:10467800DA17C7F89030C7F89420D7E96423D7E948
:10468800244521465140B96029464B40FB60D7E993
:104698000234C7E96434D7F88031DA17C7F88830AC
:1046A800C7F88C204FF000004FF00001D7F8883091
:1046B80099070020D7E9622382EA00043C604B4056
:1046C8007B60D7E90034C7E96234D7F86C21D7F8A2
:1046D8008031DB00D118D7E96423C1E90023D7F87A
:1046E80080310133C7F88031D7F880311F2B7FF72D
:1046F8002BAF00BF07F5CC77BD46BDE8F00F70477C
:10470800901A02082DE9F00FAEB000AFC7F88C0080
:10471800C7F88810C7F88420D7F888301B889BB260
:104728000022BB65FA654FF000004FF00001BB6D39
:1047380019040020D7F8883002331B889BB2002266
:104748003B657A654FF000024FF000033E6D330081
:10475800002240EA020841EA0309D7F88830043306
:104768001B889BB20022BB64FA64D7E912120B467D
:104778001D0C0B461C0448EA040A49EA050BD7F845
:10478800883006331B889BB200223B647A64D7E9E1
:1047980010120B464AEA0303BB6213464BEA0303B3
:1047A800FB62D7E90A34C7E92A34002387F8B63010
:1047B8000EE197F8B630D7F88C20DB001344D3E924
:1047C8000001D7E92A2382EA00043C624B407B625D
:1047D800D7E90834C7E92A344FF000024FF0000344
:1047E800C7E92823002387F8B7307DE097F8B7306A
:1047F800C3F10703DC00D7E92A23C4F12001A4F19F
:10480800200022FA04F5BD6703FA01F1BD6F0D43DC
:10481800BD6723FA00F0B96F0143B967E340FB674E
:1048280097F8783087F89E3097F89E301B09DBB2EE
:1048380003F00F028C4B9B5C87F89D3097F89E30F5
:1048480003F00F02884B9B5C87F89C304FF0000206
:104858004FF00003C7E9242397F89D301A0197F811
:104868009C301343DA17BB63FA63D7E92423D7E9EB
:104878000E4521461143B96129460B43FB61D7E92F
:104888000634C7E9243497F8B730C3F10703DC00CE
:10489800D7E92423A4F12001C4F1200003FA04F588
:1048A8007D6602FA01F17D6E0D437D6622FA00F005
:1048B800796E0143796602FA04F33B66D7E9183446
:1048C800C7E92434D7E92801D7E9242340EA0204B8
:1048D8003C610B437B61D7E90434C7E9283497F876
:1048E800B730013387F8B73097F8B730072B7FF622
:1048F8007DAFD7E92823C7E92A234FF000024FF0FC
:104908000003C7E92823002387F8B73053E097F856
:10491800B730C3F13F0387F89F3097F89F40D7E936
:104928002A23C4F12001A4F1200022FA04F53D67EE
:1049380003FA01F13D6F0D433D6723FA00F0396F2B
:1049480001433967E3407B673B6F03F001033B6337
:1049580000237B6397F8B720444B9B5CC3F13F016E
:10496800A1F12003C1F12002D7E90C45284688406F
:10497800F866204600FA03F3F86E1843F8662346F3
:1049880023FA02F2FB6E1343FB6623468B40BB6699
:10499800D7E92823D7E91A4521461143B9602946A2
:1049A8000B43FB60D7E90234C7E9283497F8B730DE
:1049B800013387F8B73097F8B7303F2BA7D9D7E935
:1049C8002823C7E92A2397F8B630013387F8B63089
:1049D80097F8B6301E2B7FF6ECAE97F8B630D7F8BE
:1049E8008C20DB001344D3E90023D7E92A0180EAAD
:1049F80002043C604B407B60D7E90034C7E92A34A5
:104A0800D7E92A014FF000024FF000030A0C0023F7
:104A180092B2D7F884301A80D7E92A014FF0000201
:104A28004FF000030A000023D7F88410023193B234
:104A38000B80D7E92A014FF000024FF00003020C67
:104A480042EA01420B0CD7F88410043193B20B8070
:104A5800D7F884300633B7F8A8201A8000BFB837D3
:104A6800BD46BDE8F00F7047901A0208B01A020858
:104A780080B5CAB000AF07F59473A3F592731860B8
:104A880007F59473A3F59473196007F59473A3F568
:104A980092731B681B681B0C9AB207F59473A3F5F5
:104AA8008C731A8007F59473A3F592731B681B68BF
:104AB8009AB207F59473A3F58C735A8007F594732B
:104AC800A3F592731B685B681B0C9AB207F5947385
:104AD800A3F58C739A8007F59473A3F592731B68FA
:104AE8005B689AB207F59473A3F58C73DA8007F5BF
:104AF8009473A3F592731B681B6C1B0C9AB207F591
:104B08009473A3F588731A8007F59473A3F59273C9
:104B18001B681B6C9AB207F59473A3F588735A80C7
:104B280007F59473A3F592731B685B6C1B0C9AB220
:104B380007F59473A3F588739A8007F59473A3F522
:104B480092731B685B6C9AB207F59473A3F588732C
:104B5800DA8007F59473A3F592731B689B6C1B0CA2
:104B68009AB207F59473A3F588731A8107F59473BD
:104B7800A3F592731B689B6C9AB207F59473A3F51F
:104B880088735A8107F59473A3F592731B68DB6CDD
:104B98001B0C9AB207F59473A3F588739A8107F5ED
:104BA8009473A3F592731B68DB6C9AB207F5947340
:104BB800A3F58873DA8107F59473A3F594731B68DA
:104BC8009AB207F1180107F128031846FFF77CFA93
:104BD80007F1080207F1100107F128031846FFF74B
:104BE80091FD07F59473A3F590731B881B041A466F
:104BF80007F59473A3F590735B881A4307F59473CC
:104C0800A3F592731B681A6207F59473A3F5907362
:104C18009B881B041A4607F59473A3F59073DB88E9
:104C28001A4307F59473A3F592731B685A6207F544
:104C38009473A3F592731B6800229A6207F5947324
:104C4800A3F592731B680022DA6200BF07F5947718
:104C5800BD4680BD80B483B000AF0346FB7197F9B1
:104C68000730002B12DBFB7903F01F020A4997F982
:104C780007305B09012000FA02F2203341F82320B3
:104C8800BFF34F8F00BFBFF36F8F00BF00BF0C375C
:104C9800BD465DF8047B704700E100E080B483B056
:104CA80000AF78607B681B6843F020027B681A605D
:104CB80000BF0C37BD465DF8047B704780B483B0F5
:104CC80000AF78607B689B6843F001027B689A605C
:104CD80000BF0C37BD465DF8047B704780B483B0D5
:104CE80000AF78607B685B6ADBB218460C37BD465C
:104CF8005DF8047B7047000080B5D2B018AF03465A
:104D08003960FB710023C7F8E4300023C7F8E030AE
:104D18000C23C7F8D0300023C7F8DC3011E03B4A39
:104D2800D7F8DC3052F82320D7F8DC3010339B005A
:104D3800E8333B4443F87C2CD7F8DC300133C7F820
:104D4800DC30D7F8DC30072BE9DD0023C7F8D83092
:104D580016E02F4AD7F8E43052F82320D7F8D83095
:104D680004339B00E8333B4443F87C2CD7F8E43009
:104D78000133C7F8E430D7F8D8300133C7F8D83052
:104D8800D7F8D8203B689A42E3DB0023C7F8D43031
:104D980015E0204AD7F8E03052F82320D7F8D4306D
:104DA8009B00E8333B4443F87C2CD7F8E0300133D0
:104DB800C7F8E030D7F8D4300133C7F8D430D7F883
:104DC800D4203B689A42E4DBD7F8E43017933B6879
:104DD8001693FB791593684607F17C03542219460C
:104DE8001BF080FD07F16C030FCBFFF7C7F80346F4
:104DF800012B01D1012304E0D7F8E4300B2BA4DD0B
:104E080000231846E837BD4680BD00BF9800002043
:104E1800680000203800002080B586B000AF04F09C
:104E280072FE002000F00AFC012000F007FC0220BE
:104E380000F004FC00F08CF800F03AF900F0D8F823
:104E480000F0EAF8354B364A1A60364B364A1A6093
:104E5800364B00221A60364B00221A603548FFF79D
:104E68001DFF3448FFF72AFF334B1B789AB24FF4E3
:104E78007A73324932480DF0A6FE0346002B01D062
:104E880000F07CF92F4B1B789AB24FF47A732E49B5
:104E98002B480DF098FE0346002B01D000F06EF968
:104EA80000BF234B1B68002BFBD0214B00221A604C
:104EB8001C4B19684FF47A730A2221480DF083FEBF
:104EC8000346002B01D000F059F9002000F070FCD7
:104ED8004FF4FA7004F010FF00233B6107E004214F
:104EE8000020FFF709FF78613B6901333B613B69AB
:104EF80042F20F729342F2DD3B467A691349184633
:104F08001BF022FD39464FF47A7310220C480DF03D
:104F18005AFE4FF47A7004F0EFFEB3E790040020D5
:104F28006C0400208C0400207804002084040020F5
:104F38008804002000800040EC000020B800002019
:104F4800DC0300201C010020F0000020541402089B
:104F580080B598B000AF07F1180348220021184621
:104F68001BF0CDFC3B1D00221A605A609A60DA6083
:104F78001A61002019F098FE0346002B01D000F0BA
:104F8800FDF80223BB614FF480737B624023BB6250
:104F980002237B640223BB640423FB6437233B6541
:104FA80007237B650223BB650223FB6507F1180312
:104FB80018460BF053FA0346002B01D000F0DEF838
:104FC8000F237B600323BB600023FB6000233B614E
:104FD80000237B613B1D052118460BF021FF03468A
:104FE800002B01D000F0CAF800BF6037BD4680BD75
:104FF80080B500AF002011F0F9FB0346002B01D06B
:1050080000F0BCF811F03AFC0346002B01D000F088
:10501800B5F800BF80BD000080B500AF224B234A21
:105028001A60214B4FF4E1325A601F4B00229A60FC
:105038001D4B0022DA601C4B00221A611A4B0C220D
:105048005A61194B00229A61174B00221A62164BBB
:1050580000225A62144B00229A62134B00225A66AD
:1050680011480DF0DCFB0346002B01D000F086F858
:1050780000210D4803F0AAFB0346002B01D000F0E5
:105088007DF80021084803F0DFFB0346002B01D020
:1050980000F074F8044803F060FB0346002B01D0CD
:1050A80000F06CF800BF80BDDC03002000800040E9
:1050B80080B582B000AF094BDB6C084A43F040036F
:1050C800D364064BDB6C03F040037B607B6819F00C
:1050D80091FE00BF0837BD4680BD00BF00100240EA
:1050E80090B583B000AF124B1A68124B1B68591C5D
:1050F80010480160D4181048FFF7F0FD03462370EC
:105108000C4B1B68092B0FD90C4B01221A600C4B56
:105118001B687B60064B1B68094A1360044A7B685E
:105128001360044B00221A6000BF0C37BD4690BDC7
:10513800900400208404002000800040880400209F
:105148008C04002080B582B000AF4220FFF782FDBA
:10515800094BDB697B607B6803F00403002B03D0F9
:10516800022000F0F1FA02E0022000F0EDFA00BFA0
:105178000837BD4680BD00BF0080004080B500AF45
:10518800022000F015FB4FF47A7004F0B5FDF7E744
:1051980080B400AF064BD3F88830054A43F4700357
:1051A800C2F8883000BFBD465DF8047B704700BF79
:1051B80000ED00E080B487B000AF4F4B1B6803F0F0
:1051C8000803002B07D14C4BD3F894301B0A03F08B
:1051D8000F037B6105E0484B1B681B0903F00F03B5
:1051E8007B61464A7B6952F823307B61424B9B685E
:1051F80003F00C030C2B66D801A252F823F000BF71
:105208003D520008CF520008CF520008CF52000884
:1052180045520008CF520008CF520008CF5200086C
:105228004D520008CF520008CF520008CF52000854
:1052380055520008324A7B69136048E0304B314AC6
:105248001A6044E02E4B2F4A1A6040E02A4BDB6874
:1052580003F00303FB60284BDB681B0903F00F0313
:105268000133BB60FB68022B03D0FB68032B06D01D
:105278000BE0244ABB68B2FBF3F33B610BE0214A25
:10528800BB68B2FBF3F33B6105E07A69BB68B2FB2C
:10529800F3F33B6100BF184BDB681B0A03F07F0286
:1052A8003B6902FB03F33B61134BDB685B0E03F0C6
:1052B800030301335B007B603A697B68B2FBF3F35D
:1052C8000F4A136003E00E4A7B69136000BF0A4B64
:1052D8009B681B0903F00F030B4AD35C3B60084B28
:1052E8001A683B6822FA03F3054A136000BF1C37AB
:1052F800BD465DF8047B704700100240381B020869
:10530800200100200024F400201B020880B483B090
:1053180000AF78607B68DBB20E4A52F823207B68C6
:105328001B0ADBB20C4951F823305A407B681B0C2E
:10533800DBB20A4951F823305A407B681B0E0849F2
:1053480051F82330534018460C37BD465DF8047BAE
:10535800704700BFB81B0208B81F0208B82302082C
:10536800B827020880B584B000AFF860B9607A60E9
:105378003B60FA687B685A40B9683B684B405A40C2
:10538800FB691A60FB691B681846FFF7BFFF0246F6
:10539800FB691A60FB691A68F9687B684B401A4414
:1053A800BB691A60BB691B681846FFF7AFFF024666
:1053B800BB691A60FB691A68BB691B681A44FB69F8
:1053C8001A60FB691B681846FFF7A0FF0246FB69D5
:1053D8001A60BB691A68FB691B681A44BB691A60C2
:1053E80000BF1037BD4680BD90B589B000AF78606A
:1053F80039603B681B68BB603B685B68FB603B6867
:105408009B683B613B68DB687B610023FB615CE078
:10541800BA683B691A443149FB6951F82330D21AFA
:10542800FB695C001046FFF771FF02467B6843F892
:105438002420FA687B69D21A2849FB6951F823307D
:105448001A44FB695B005C1C1046FFF75FFF0246CD
:105458007B6843F82420FB6903F00103002B17D075
:105468003B6804331B681A0A3B681B681B06134316
:10547800BB613B681B681A0A3B6804331B681B0640
:105488001A433B681A603B680433BA691A6019E02A
:105498003B680C331B681A0A3B6808331B681B06F9
:1054A8001343BB613B6808331B68190A3B680C331C
:1054B8001B681A063B6808330A431A603B680C33BA
:1054C800BA691A60FB690133FB61FB690F2B9FDD29
:1054D80000BF00BF2437BD4690BD00BF781B02083F
:1054E80080B58EB002AFF860B9607A600023BB6205
:1054F800BB681B687B62BB685B683B62BB689B6878
:10550800FB61BB68DB68BB610023FB622AE0FB68C8
:10551800BA6A53F82210BB6A5A1CFB6853F8222057
:1055280007F11003019307F11403009313460A4689
:10553800B969F869FFF716FF7A697B6A53407B619E
:105548003A693B6A53403B61FB697B62BB693B62DA
:105558007B69FB613B69BB61BB6A0233BB62FB6A67
:105568000133FB62FB6A0E2BD1DDFB68BA6A53F884
:105578002210BB6A5A1CFB6853F8222007F110035B
:10558800019307F11403009313460A46B969F869B1
:10559800FFF7E8FE7B697A6A53407B623B693A6AA7
:1055A80053403B627B687A6A1A607B6804333A6AC4
:1055B8001A607B680833FA691A607B680C33BA6929
:1055C8001A6000BF3037BD4680BD80B5A2B000AFBD
:1055D800786039607B6803F1400207F108031146DF
:1055E8001846FFF701FF79687B6803F1200207F18D
:1055F80008031846FFF774FF00BF8837BD4680BD13
:1056080080B400AF024B1846BD465DF8047B704776
:105618000003000180B400AF024B1846BD465DF898
:10562800047B70475814020880B400AF024B184638
:10563800BD465DF8047B70476C14020880B58AB0DB
:1056480000AF0346FB71FB79002B0CD1274BDB6CB9
:10565800264A43F00403D364244BDB6C03F00403B1
:105668003B613B691BE0FB79012B0CD11F4BDB6CC9
:105678001E4A43F00203D3641C4BDB6C03F00203A5
:10568800FB60FB680BE0194BDB6C184A43F0010325
:10569800D364164BDB6C03F00103BB60BB68FB797A
:1056A800134A32F813307B610123BB610123FB618C
:1056B80003233B62FB790F4A52F8233007F11402A7
:1056C800114618461AF0E0FAFB790A4A52F8230004
:1056D800FB79074A32F81330002219461AF05AFDAE
:1056E800002318462837BD4680BD00BF0010024081
:1056F800240100202C01002080B588B000AF0346AB
:10570800FB71FB790E4A32F81330FB60FB790D4AC6
:1057180052F82300FB790A4A32F81330002219465E
:105728001AF038FDFB79074A52F82330FA68114617
:1057380018461AF029FC002318462037BD4680BDBC
:10574800240100202C01002080B582B000AF034660
:10575800FB71FB79074A52F82300FB79064A32F8B5
:105768001330012219461AF015FD00231846083790
:10577800BD4680BD2C0100202401002080B582B0E8
:1057880000AF0346FB71FB79074A52F82300FB7907
:10579800064A32F81330002219461AF0FBFC00239F
:1057A80018460837BD4680BD2C0100202401002082
:1057B80080B582B000AF0346FB71FB79074A52F807
:1057C8002320FB79064931F81330194610461AF0A0
:1057D800F9FC002318460837BD4680BD2C0100207F
:1057E8002401002080B584B000AF0346FB71FB792B
:1057F8000B4A52F82320FB790A4931F8133019462D
:1058080010461AF0AFFC0346012B0CBF01230023FE
:10581800DBB2FB60FB6818461037BD4680BD00BF91
:105828002C0100202401002080B58CB000AF034675
:105838000A46FB711346BB710023FB6207237B6199
:105848003F4B3B613F4BFB603F4BDB6C3E4A43F0B9
:105858000403D3643C4BDB6C03F00403BB60BB68FC
:10586800FB793A4A32F81330BB6100233B620223CA
:105878007B62BB79002B0BD10023FB61FB79344A97
:1058880052F8233007F11802114618461AF0FCF9AD
:10589800BB79012B4ED12F4BFB61FB792C4A52F877
:1058A800233007F11802114618461AF0EDF9FA7973
:1058B80013465B0013449B00274A1A44FB799B005C
:1058C80030333B4453F8203C1946104611F068FC2D
:1058D8000346002B2BD1FA7913465B0013449B0037
:1058E8001D4A9818FB799B0030333B4453F8243CFD
:1058F8001A46012111F028FC0346002B13D1FB792D
:10590800164AD056FB799B0030333B4453F81C3C75
:105918000022194602F009FCFB79104AD3561846B2
:1059280002F01DFC06E06FF00303FB6202E06FF07B
:105938000303FB62FB6A18463037BD4680BD00BFD3
:105948000D000006395A00080010024038010020F6
:105958003C010020000011109404002040010020A8
:1059680080B588B000AF0346FB71FB790B4A32F86B
:105978001330FB60FB790A4AD356184602F0FDFB48
:10598800FB79084A52F82330FA68114618461AF08B
:10599800FBFA002318462037BD4680BD3801002099
:1059A800400100203C01002080B584B000AF0346D0
:1059B800FB71FB790B4A52F82320FB790A4931F82D
:1059C8001330194610461AF0CDFB0346012B0CBFC5
:1059D80001230023DBB2FB60FB6818461037BD4685
:1059E80080BD00BF3C0100203801002080B483B096
:1059F80000AF0346FB7100BF0C37BD465DF8047B62
:105A08007047000080B582B000AF0346FB71FA7999
:105A180013465B0013449B00044A1344184611F0D4
:105A2800D3FB00BF0837BD4680BD00BF94040020EB
:105A380080B500AF0020FFF7D9FF00BF80BD80B45C
:105A4800ADF61C0D00AF0023C7F80838B42387F85B
:105A58000738712387F8063897F8073887F8173812
:105A68000023C7F80C3849E097F8172897F8063844
:105A7800134087F8163897F8163887F80538012341
:105A8800C7F8103811E097F80528D7F8103842FA07
:105A980003F35AB297F9163853405BB287F81638B1
:105AA800D7F810380133C7F81038D7F81038072B53
:105AB800E9DD97F8173803F00103D9B207F61803A0
:105AC800A3F61402D7F8083813440A461A7097F850
