:020000040800F2
:1000000000000320C1050008191600082716000883
:100010002D160008331600083916000811060008CE
:100020000000000000000000000000003F16000873
:100030004D160008000000005B1600086916000855
:100040001106000811060008110600081106000834
:100050001106000811060008110600081106000824
:100060001106000811060008110600081106000814
:100070001106000811060008110600081106000804
:1000800011060008110600081106000811060008F4
:1000900011060008110600081106000811060008E4
:1000A00011060008110600081106000811060008D4
:1000B00011060008110600081106000811060008C4
:1000C00011060008110600081106000811060008B4
:1000D00011060008110600081106000811060008A4
:1000E0001106000811060008110600081106000894
:1000F0001106000811060008110600081106000884
:100100001106000811060008110600081106000873
:100110001106000811060008110600081106000863
:100120001106000811060008110600081106000853
:100130001106000811060008110600081106000843
:1001400011060008110600087516000811060008BF
:100150001106000811060008110600081106000823
:100160001106000811060008110600081106000813
:100170001106000800000000110600080000000041
:1001800011060008110600081106000811060008F3
:1001900011060008110600081106000811060008E3
:1001A00011060008110600081106000811060008D3
:1001B00011060008000000001106000811060008E2
:1001C00011060008000000001106000811060008D2
:1001D00011060008110600081106000811060008A3
:1001E0001106000811060008110600081106000893
:0401F000000000000B
:1001F40010B5054C237833B9044B13B1044800E01F
:1002040000BF0123237010BDE01E00200000000089
:1002140018B9010808B5034B1BB10349034800E0B2
:1002240000BF08BD00000000E41E002018B901084A
:10023400154B002B08BF134B9D46A3F5803A0021B4
:100244008B460F461348144A121A1AF020FE0F4B1D
:10025400002B00D098470E4B002B00D0984700206D
:10026400002104000D000D48002802D00C4800E0D5
:1002740000BF1AF0DBFD2000290000F01FFB1AF07C
:10028400C1FD00BF000008000000000000000000E5
:1002940000000000E01E0020E81F00200000000015
:1002A40000000000B0BB010800000020E01E002098
:1002B400E01E0020E81F002053B94AB9002908BFF6
:1002C40000281CBF4FF0FF314FF0FF3000F06CB935
:1002D400ADF1080C6DE904CE00F006F8DDF804E099
:1002E400DDE9022304B070472DE9F047089D044678
:1002F4008846002B7DD18A4217463FD9B2FA82F252
:1003040042B1C2F120009140974024FA00F0944099
:1003140040EA01084FEA174C230C1FFA87FEB8FB8A
:10032400FCF60CFB168106FB0EF043EA01439842EF
:1003340005D9FB1802D2984200F22481013E191A11
:10034400A3B2B1FBFCF00CFB101100FB0EFE43EA60
:100354000144A64505D93C1902D2A64500F20F81F5
:10036400013840EA0640A4EB0E0400261DB1D44037
:100374000023C5E900433146BDE8F08702B9FFDE3A
:10038400B2FA82F2002A50D1CB1B4FEA174E1FFA61
:1003940087F80126210CB3FBFEFC0EFB1C300B4638
:1003A40008FB0CF941EA004189450AD979182CBFA8
:1003B40001230023894502D9002B00F0D9800CF1D8
:1003C400FF3CA1EB0901A3B2B1FBFEF00EFB10113F
:1003D40008FB00F843EA0144A04505D93C1902D2C0
:1003E400A04500F2C9800138A4EB080440EA0C409F
:1003F400BCE78B4209D9002D00F0B1800026C5E985
:10040400000130463146BDE8F087B3FA83F6002E8A
:1004140046D18B42C0F0A680824240F2A38030468F
:10042400002DA8D0C5E90048A5E79740C2F12003F4
:1004340001FA02F04FEA174ED94024FA03F31FFAE7
:1004440087F894400343B1FBFEF01E0C0EFB101121
:1004540000FB08FC46EA01418C4509D979182CBFF8
:10046400012600268C4502D9002E00F09380013825
:10047400A1EB0C019BB2B1FBFEF60EFB161106FBC1
:1004840008FC43EA01418C4505D9791802D28C4510
:1004940000F28780013EA1EB0C0346EA004679E7AF
:1004A400C6F1200703FA06F402FA06FC01FA06FE76
:1004B400FA4020FA07F8F94000FA06F3224348EA22
:1004C4000E044FEA12484FEA144E1FFA82F9B1FBA8
:1004D400F8FA08FB1A110AFB09F04EEA014E7045BE
:1004E4000AD912EB0E0E2CBF01210021704501D94F
:1004F400002952D00AF1FF3AAEEB000EA4B2BEFBC3
:10050400F8F008FB10EE00FB09F944EA0E4EF14541
:1005140005D912EB0E0E01D2F14538D8013840EA64
:100524000A40AEEB090EA0FB0C89CE4541464C4671
:1005340002D306D1434504D20138B8EB0C0169EB70
:10054400020415B35A1A6EEB040EF2400EFA07F7C2
:100554002EFA06F300261743C5E900730BE72E466F
:10056400284608E7841A61EB03010120884657E70F
:10057400ACF1020C394424E702383C4434E7023835
:100584003C44EEE6023E3B44D9E62E46F3E602380E
:100594009644C4E7023839446AE7AAF1020A964449
:1005A400AAE7023E394476E7704700BF034613F8D2
:1005B400012B002AFBD1181A01387047DFF834D018
:1005C40001F0D6FB002103E00B4B5B584350043190
:1005D4000A480B4B42189A42F6D30A4A02E0002317
:1005E40042F8043B084B9A42F9D31AF01FFC00F07E
:1005F40065F9FEE700000320B0BB010800000020FD
:10060400E01E0020E01E0020E81F0020FEE780B569
:1006140082B000AF78600B46FB70FB780D2B05D1E0
:100624004FF48071786800F028FD00E000BF00BF3F
:100634000837BD4680BD000084B080B584B000AFEB
:1006440007F1180C8CE80F0097F87C30194607F175
:100654001800FFF7DCFF0023FB6002E0FB680133B6
:10066400FB60FB68032BF9DDBA6ABB6B5340BB64C8
:10067400FA6AFB6B5340FB64D7F88030042B08D133
:100684003A6B3B6C53403B657A6B7B6C53407B65A8
:1006940003E000233B6500237B650023BB6002E08D
:1006A400BB680133BB60BB68032BF9DD97F87C3072
:1006B400194607F11800FFF7AAFFBA6CBB6B534049
:1006C400BB63FA6CFB6B5340FB633A6D3B6C53406A
:1006D4003B647A6D7B6C53407B6400237B6016E043
:1006E4007B68083307F1180252F82320D7F88410E6
:1006F400D7F88030C91A7B680B440B4951F8233072
:100704009A4201D0012308E07B6801337B607A6858
:10071400D7F880309A42E3DB002318461037BD46F1
:10072400BDE8804004B070470400002080B483B06A
:1007340000AF0346FB7197F90730002B12DBFB79FE
:1007440003F01F020A4997F907305B09012000FAF8
:1007540002F2203341F82320BFF34F8F00BFBFF3D1
:100764006F8F00BF00BF0C37BD465DF8047B704738
:1007740000E100E080B483B000AF78607B681B6860
:1007840043F020027B681A6000BF0C37BD465DF859
:10079400047B704780B483B000AF78607B689B684B
:1007A40043F001027B689A6000BF0C37BD465DF8D8
:1007B400047B704780B483B000AF78607B685B6A69
:1007C400DBB218460C37BD465DF8047B7047000069
:1007D40080B5B8B018AF03463960FB710023FB67DE
:1007E4000023BB6700237B670EE0314A7B6F52F81E
:1007F40023207B6F10339B0007F180010B4443F8E7
:10080400782C7B6F01337B677B6F072BEDDD002337
:100814003B6711E0274AFB6F52F823203B6F0433F8
:100824009B0007F180010B4443F8782CFB6F0133E4
:10083400FB673B6F01333B673A6F3B689A42E9DBE6
:100844000023FB6610E01C4ABB6F52F82320FB6EAA
:100854009B0007F180010B4443F8782CBB6F0133F4
:10086400BB67FB6E0133FB66FA6E3B689A42EADBB8
:10087400FB6F17933B681693FB791593684607F152
:100884001803542219461AF0F5FA07F108030FCB9E
:10089400FFF7D2FE0346012B01D1012303E0FB6FD6
:1008A400932BB4DD002318468037BD4680BD00BFBE
:1008B400D01B00208C1200204809002080B58EB087
:1008C40000AF01F013FB002000F018FF012000F03E
:1008D40015FF022000F012FF00F08EF800F03CF942
:1008E40000F0DAF800F0ECF8344B354A1A60354B76
:1008F400354A1A60354B00221A60354B00221A60C3
:100904003448FFF737FF3348FFF744FF324B1B7877
:100914009AB24FF47A73314931480FF0A5FA03467D
:10092400002B01D000F07EF92E4B1B682D4A43F0BA
:10093400807313602C4B00221A602C4B1B682B4ACB
:1009440043F0010313600023FB621AE0264B1B688B
:10095400BB6204210D20FFF73BFF7863224B1B6829
:100964007B627B6B002B01D000F05CF97A6ABB6A76
:10097400D31A3B623A6B3B6A13443B63FB6A013311
:10098400FB62FB6A632BE1DD3B6B194AA2FB032389
:100994005A0938467B6B17491AF09EFA00233B63C9
:1009A4003B461846FFF702FE03469AB239464FF417
:1009B4007A730B480FF058FAC5E700BF201F0020D8
:1009C400241F0020301F0020C41F0020FC1E002014
:1009D400001F002000800040241C0020F01B002089
:1009E400341F0020FCED00E0041000E0001000E0E3
:1009F4001F85EB5134B9010880B598B000AF07F1F9
:100A040018034822002118461AF041FA3B1D00221F
:100A14001A605A609A60DA601A6100200AF070F96C
:100A24000346002B01D000F0FDF80223BB614FF414
:100A340080737B624023BB6202237B640223BB641A
:100A44000423FB6437233B6507237B650223BB65D3
:100A54000223FB6507F1180318460BF063FA0346FB
:100A6400002B01D000F0DEF80F237B600323BB6072
:100A74000023FB6000233B6100237B613B1D0521B8
:100A840018460BF031FF0346002B01D000F0CAF8E2
:100A940000BF6037BD4680BD80B500AF002009F0BF
:100AA400FBFC0346002B01D000F0BCF809F03CFD30
:100AB4000346002B01D000F0B5F800BF80BD000054
:100AC40080B500AF224B234A1A60214B4FF4E13228
:100AD4005A601F4B00229A601D4B0022DA601C4BA7
:100AE40000221A611A4B0C225A61194B00229A6196
:100AF400174B00221A62164B00225A62144B002232
:100B04009A62134B00225A6611480EF0D9FF03462D
:100B1400002B01D000F086F800210D4812F06CFA89
:100B24000346002B01D000F07DF80021084812F0A4
:100B3400A1FA0346002B01D000F074F8044812F027
:100B440022FA0346002B01D000F06CF800BF80BDF0
:100B5400341F00200080004080B582B000AF094BF4
:100B6400DB6C084A43F04003D364064BDB6C03F0B0
:100B740040037B607B680AF069F900BF0837BD4613
:100B840080BD00BF0010024090B583B000AF124B8F
:100B94001A68124B1B68591C10480160D41810487D
:100BA400FFF708FE034623700C4B1B68092B0FD973
:100BB4000C4B01221A600C4B1B687B60064B1B68B4
:100BC400094A1360044A7B681360044B00221A60CC
:100BD40000BF0C37BD4690BD201F0020FC1E002026
:100BE40000800040001F0020301F002080B582B02C
:100BF40000AF4220FFF79AFD094BDB697B607B68FD
:100C040003F00403002B03D0022000F0FDFD02E0FA
:100C1400022000F0F9FD00BF0837BD4680BD00BFCB
:100C24000080004080B500AF022000F021FE4FF4A8
:100C34007A7001F053FAF7E72DE9F00F84B000AFB2
:100C4400C7E902017A60D7E902237968A1F1200695
:100C5400C1F1200003FA01F902FA06F649EA06098D
:100C640022FA00F049EA000902FA01F879684942D7
:100C740001F03F01C1F12006A1F1200022FA01F4A4
:100C840003FA06F6344323FA00F0044323FA01F589
:100C940048EA040A49EA050B54465D4622462B46B7
:100CA400104619461037BD46BDE8F00F70472DE9D0
:100CB400F00F84B000AFC7E902017A60D7E90223DC
:100CC4007968C1F12006A1F1200022FA01F803FAA3
:100CD40006F648EA060823FA00F048EA000823FA70
:100CE40001F97968494201F03F01A1F12006C1F1FF
:100CF400200003FA01F502FA06F6354322FA00F061
:100D0400054302FA01F448EA040A49EA050B544689
:100D14005D4622462B46104619461037BD46BDE8AF
:100D2400F00F70472DE9B04F84B000AFF860B960A0
:100D3400C7E90023FB68D3E900010822FFF7B7FFE6
:100D440002460B46F968C1E90023FB68D3E90001B8
:100D5400BB68D3E9002310EB020A41EB030BFB68E9
:100D6400C3E900ABFB68D3E90001D7E9002380EABB
:100D7400020881EA0309FB68C3E90089BB68D3E977
:100D840000010322FFF758FF02460B46B968C1E988
:100D94000023BB68D3E90001FB68D3E9002380EAA0
:100DA400020481EA0305BB68C3E9004500BF1037AC
:100DB400BD46BDE8B08F2DE9B04F9AB000AFF863DF
:100DC400B9631346FB86FB8E802B32D1FB6B20224A
:100DD4001A70BB6BD3E90223C7E91623BB6BD3E9B3
:100DE4000023C7E914234FF000024FF00003C7E9C2
:100DF400182317E0D7E91623F86B396E0131C900BF
:100E04000144C1E9002307F1580107F15000D7E973
:100E14001823FFF787FFD7E91823541C43F1000573
:100E2400C7E91845D7E91823002B08BF202AE1D3C6
:100E3400E1E0FB8EC02B5BD1FB6B21221A70BB6BF4
:100E4400D3E90423C7E91623BB6BD3E90223C7E91B
:100E54001423BB6BD3E90023C7E912234FF000022C
:100E64004FF00003C7E9182336E0D7E91623F86BDF
:100E7400396E0131C9000144C1E9002307F1580169
:100E840007F15000D7E91823FFF74CFFD7E91823DF
:100E940012F1010843F10009D7E91623F86B08F1B0
:100EA4000101C9000144C1E90023D7E91823511CF9
:100EB400B96243F10003FB6207F1580107F14800EE
:100EC400D7E90A23FFF72EFFD7E9182312F1020A04
:100ED40043F1000BC7E918ABD7E91823002B08BF6F
:100EE400202AC2D3D7E91623F96BC1E9422382E051
:100EF400FB6B22221A70BB6BD3E90623C7E91623C6
:100F0400BB6BD3E90423C7E91423BB6BD3E90223E6
:100F1400C7E91223BB6BD3E90023C7E910234FF0C1
:100F240000024FF00003C7E9182359E0D7E916017E
:100F3400FA6B3B6E0133DB001344C3E9000107F194
:100F4400580107F15000D7E91823FFF7EBFED7E962
:100F54001823511C396243F100037B62D7E916015F
:100F6400FA6B3B6A0133DB001344C3E90001D7E9A0
:100F74001823511CB96143F10003FB6107F15801C7
:100F840007F14800D7E90623FFF7CCFED7E9182379
:100F9400911C396143F100037B61D7E91601FA6BB7
:100FA4003B690133DB001344C3E90001D7E918238B
:100FB400911CB96043F10003FB6007F1580107F18C
:100FC4004000D7E90223FFF7ADFED7E91823D11C6F
:100FD400396043F100037B60D7E90034C7E9183472
:100FE400D7E91823002B08BF212A9FD3D7E916235A
:100FF400F96BC1E9442300BF6837BD46BDE8B08F33
:1010040080B58AB000AFF860B9607A60BB68D3E994
:101014000023C7E90623BB68D3E90223C7E90423F5
:10102400002387F8273012E097F82730FA68013355
:10103400DB001344D3E9002307F1100107F1180082
:10104400FFF770FE97F82730013387F82730FB68E5
:101054001B7897F827209A42E6D3D7E906237968C4
:10106400C1E900237B6803F10801D7E90423C1E93E
:10107400002300BF2837BD4680BD2DE9B04FADF534
:10108400007D00AF07F14403186007F140031960C5
:1010940007F144031B681B681A464FF00003C7E9B5
:1010A4007E2307F144031B685B681A464FF0000374
:1010B400C7E97C2307F144031B689B681A464FF079
:1010C4000003C7E97A2307F144031B68DB681A4667
:1010D4004FF00003C7E9782307F144031B681B6C36
:1010E4001A464FF00003C7E9762307F144031B684F
:1010F4005B6C1A464FF00003C7E9742307F14403FD
:101104001B689B6C1A464FF00003C7E9722307F172
:1011140044031B68DB6C1A464FF00003C7E97023D5
:1011240007F144031B681B6D1A464FF00003C7E91F
:101134006E2307F144031B685B6D1A464FF00003EE
:10114400C7E96C2307F144031B689B6D1A464FF0F3
:101154000003C7E96A2307F144031B68DB6D1A46E1
:101164004FF00003C7E96823D7E97E234FF000005E
:101174004FF0000111000020D7E97C2340EA02046B
:1011840041EA030507F15803C3E90045D7E97A2387
:101194004FF000004FF0000111000020D7E9782340
:1011A40040EA020841EA030907F15803C3E9028946
:1011B40007F140031B68B3F5807F00F0958007F1C9
:1011C40040031B68B3F5807F00F3E08007F1400320
:1011D4001B68802B05D007F140031B68C02B3BD054
:1011E400D4E0D7E976014FF000024FF0000303008A
:1011F4000022D7E9740142EA0004BC630B43FB6399
:1012040007F16803D7E90E12C3E90012D7E97201A6
:101214004FF000024FF0000303000022D7E97001F1
:1012240042EA00043C630B437B6307F16803D7E99C
:101234000C12C3E9021207F168014FF000024FF0EB
:101244000003C1E9042307F168014FF000024FF0E5
:101254000003C1E906239AE0D7E976014FF00002C2
:101264004FF0000303000022D7E9740142EA0004AE
:10127400BC620B43FB6207F16803D7E90A12C3E9B6
:101284000012D7E972014FF000024FF0000303008F
:101294000022D7E9700142EA00043C620B437B62FE
:1012A40007F16803D7E90812C3E90212D7E96E010E
:1012B4004FF000024FF0000303000022D7E96C0155
:1012C40042EA0004BC610B43FB6107F16803D7E900
:1012D4000612C3E9041207F168014FF000024FF04F
:1012E4000003C1E9062352E0D7E976014FF000027A
:1012F4004FF0000303000022D7E9740142EA00041E
:101304003C610B437B6107F16803D7E90412C3E92D
:101314000012D7E972014FF000024FF000030300FE
:101324000022D7E9700142EA0004BC600B43FB6071
:1013340007F16803D7E90212C3E90212D7E96E0183
:101344004FF000024FF0000303000022D7E96C01C4
:1013540042EA00043C600B437B6007F16803D7E971
:101364000012C3E90412D7E96A014FF000024FF0FA
:10137400000303000022D7E9680142EA000A43EAB5
:10138400010B07F16803C3E906AB00E000BF07F1F6
:1013940040031B689AB207F1680107F188031846F5
:1013A400FFF709FD07F1480207F1580107F1880327
:1013B4001846FFF725FE07F14803D3E900014FF073
:1013C40000024FF000030A00002307F144031B68E6
:1013D4001A6207F14803D3E9002307F144031B68A9
:1013E4005A6207F14803D3E902014FF000024FF0BB
:1013F40000030A00002307F144031B689A6207F103
:101404004803D3E9022307F144031B68DA6200BFEF
:1014140007F50077BD46BDE8B08F000080B582B007
:1014240000AF0F4B1B6E0E4A43F0010313660C4BC7
:101434001B6E03F001037B607B68094B9B6D084ABC
:1014440043F080539365064B9B6D03F080533B60E0
:101454003B680AF013FB00BF0837BD4680BD00BFE0
:101464000010024080B5AEB000AF786007F1A4036D
:1014740000221A605A609A60DA601A6107F1100358
:1014840094220021184619F002FD7B681B68274A44
:10149400934246D120233B614FF40063BB6507F1BF
:1014A400100318460BF0C8FE0346002B01D0FFF7CB
:1014B400B9FB1F4BDB6D1E4A43F00103D3651C4B84
:1014C400DB6D03F00103FB60FB68194BDB6C184A0E
:1014D40043F04003D364164BDB6C03F04003BB6062
:1014E400BB6809F0B3FC4FF4C073C7F8A4300223FF
:1014F400C7F8A8300023C7F8AC300023C7F8B030D1
:101504000823C7F8B43007F1A4031946094803F0C7
:1015140043FE00220021422001F0A7F9422001F0FD
:10152400BEF900BFB837BD4680BD00BF0080004093
:10153400001002400018024280B582B000AF78600B
:101544007B681B680A4A93420DD10A4BDB6D094A3A
:1015540023F00103D3654FF4C071074803F09CFFE7
:10156400422001F0AAF900BF0837BD4680BD00BF84
:1015740000800040001002400018024280B483B092
:1015840000AF78607B68DB6903F00403042B01D1AE
:10159400012300E0002318460C37BD465DF8047BA8
:1015A400704780B483B000AF78607B68DB6903F078
:1015B4002003202B01D1012300E0002318460C371F
:1015C400BD465DF8047B704780B483B000AF78609B
:1015D4007B681B6803F02003202B01D1012300E06A
:1015E400002318460C37BD465DF8047B704780B471
:1015F40083B000AF78607B689B6803F00103012B24
:1016040001D1012300E0002318460C37BD465DF8E4
:10161400047B704780B400AF00BFBD465DF8047B17
:10162400704780B400AFFEE780B400AFFEE780B43B
:1016340000AFFEE780B400AFFEE780B400AF00BFA8
:10164400BD465DF8047B704780B400AF00BFBD4663
:101654005DF8047B704780B400AF00BFBD465DF801
:10166400047B704780B500AF00F0D8FC00BF80BD9C
:1016740080B500AF1048FFF794FF0346002B07D056
:101684000D48FFF7A1FF0346002B01D0FFF77CFABA
:101694000948FFF7ACFF0346002B07D00648FFF7C5
:1016A4006DFF0346002B01D0FFF7A0FA03480FF0AB
:1016B40021FB00BF80BD00BF00800040341F00201C
:1016C40080B400AF024B1846BD465DF8047B7047FA
:1016D4000003000180B400AF024B1846BD465DF81C
:1016E400047B704748B9010880B400AF024B184628
:1016F400BD465DF8047B70475CB9010880B58AB0CB
:1017040000AF0346FB71FB79002B0CD1274BDB6C3C
:10171400264A43F00403D364244BDB6C03F0040334
:101724003B613B691BE0FB79012B0CD11F4BDB6C4C
:101734001E4A43F00203D3641C4BDB6C03F0020328
:10174400FB60FB680BE0194BDB6C184A43F00103A8
:10175400D364164BDB6C03F00103BB60BB68FB79FD
:10176400134A32F813307B610123BB610123FB610F
:1017740003233B62FB790F4A52F8233007F114022A
:101784001146184603F008FDFB790A4A52F8230073
:10179400FB79074A32F813300022194603F082FF1E
:1017A400002318462837BD4680BD00BF0010024004
:1017B400581C0020601C002080B588B000AF034690
:1017C400FB71FB790E4A32F81330FB60FB790D4A4A
:1017D40052F82300FB790A4A32F8133000221946E2
:1017E40003F060FFFB79074A52F82330FA68114688
:1017F400184603F051FE002318462037BD4680BD2D
:10180400581C0020601C002080B582B000AF034645
:10181400FB71FB79074A52F82300FB79064A32F838
:1018240013300122194603F03DFF00231846083700
:10183400BD4680BD601C0020581C002080B582B0CD
:1018440000AF0346FB71FB79074A52F82300FB798A
:10185400064A32F813300022194603F023FF00230E
:1018640018460837BD4680BD601C0020581C002067
:1018740080B582B000AF0346FB71FB79074A52F88A
:101884002320FB79064931F813301946104603F03A
:1018940021FF002318460837BD4680BD601C002088
:1018A400581C002080B584B000AF0346FB71FB795F
:1018B4000B4A52F82320FB790A4931F813301946B0
:1018C400104603F0D7FE0346012B0CBF012300236F
:1018D400DBB2FB60FB6818461037BD4680BD00BF15
:1018E400601C0020581C002080B58CB000AF03465B
:1018F4000A46FB711346BB710023FB6207237B611D
:10190400404B3B61404BFB60404BDB6C3F4A43F038
:101914000403D3643D4BDB6C03F00403BB60BB687E
:10192400FB793B4A32F81330BB6100233B6202234C
:101934007B62BB79002B0BD10023FB61FB79354A19
:1019440052F8233007F118021146184603F024FC1C
:10195400BB79012B51D1304BFB61FB792D4A52F8F5
:10196400233007F118021146184603F015FCFA79E2
:1019740013465B0013449B00284A1A44FB799B00DE
:1019840007F130010B4453F8203C1946104602F08D
:10199400E3FB0346002B2DD1FA7913465B00134475
:1019A4009B001E4A9818FB799B0007F130021344F0
:1019B40053F8243C1A46012102F0A2FB0346002BF3
:1019C40014D1FB79164AD056FB799B0007F13002FB
:1019D400134453F81C3C0022194600F046FFFB79DF
:1019E4000F4AD356184600F05AFF06E06FF003037F
:1019F400FB6202E06FF00303FB62FB6A18463037B8
:101A0400BD4680BD0D000006F91A00080010024012
:101A14006C1C0020701C002000001110041F00200A
:101A2400741C002080B588B000AF0346FB71FB79BD
:101A34000B4A32F81330FB60FB790A4AD356184636
:101A440000F03BFFFB79084A52F82330FA6811464C
:101A5400184603F021FD002318462037BD4680BDFB
:101A64006C1C0020741C0020701C002080B584B005
:101A740000AF0346FB71FB790B4A52F82320FB7934
:101A84000A4931F813301946104603F0F3FD0346B2
:101A9400012B0CBF01230023DBB2FB60FB6818465B
:101AA4001037BD4680BD00BF701C00206C1C002098
:101AB40080B483B000AF0346FB7100BF0C37BD4652
:101AC4005DF8047B7047000080B582B000AF034628
:101AD400FB71FA7913465B0013449B00044A1344D8
:101AE400184602F04DFB00BF0837BD4680BD00BF5D
:101AF400041F002080B500AF0020FFF7D9FF00BF0E
:101B040080BD80B400AF00BFBD465DF8047B704764
:101B140080B400AF01231846BD465DF8047B7047CE
:101B240080B582B000AF7860396019F065F903467A
:101B340016221A604FF0FF3318460837BD4680BDA1
:101B440080B582B000AF78604FF0FF317868FFF75E
:101B5400E7FFFEE780B586B000AFF860B9607A6051
:101B640000237B610AE000E000BF0146BB685A1C09
:101B7400BA60CAB21A707B6901337B617A697B6887
:101B84009A42F0DB7B6818461837BD4680BD80B5A5
:101B940086B000AFF860B9607A6000237B6109E029
:101BA400BB685A1CBA601B78184600E000BF7B690A
:101BB40001337B617A697B689A42F1DB7B68184662
:101BC4001837BD4680BD80B483B000AF78604FF055
:101BD400FF3318460C37BD465DF8047B704780B46C
:101BE40083B000AF786039603B684FF400525A60AC
:101BF400002318460C37BD465DF8047B704780B45B
:101C040083B000AF7860012318460C37BD465DF8F9
:101C1400047B704780B485B000AFF860B9607A6027
:101C2400002318461437BD465DF8047B70470EB494
:101C340080B482B000AF78604FF0FF3318460837A5
:101C4400BD465DF8047B03B0704780B582B000AF39
:101C5400786019F0D1F803460A221A604FF0FF3376
:101C640018460837BD4680BD80B582B000AF7860A5
:101C740019F0C2F8034602221A604FF0FF331846E7
:101C84000837BD4680BD80B483B000AF78604FF0A4
:101C9400FF3318460C37BD465DF8047B704780B4AB
:101CA40083B000AF786039603B684FF400525A60EB
:101CB400002318460C37BD465DF8047B704780B599
:101CC40082B000AF7860396019F096F803461F229D
:101CD4001A604FF0FF3318460837BD4680BD80B503
:101CE40000AF19F089F803460B221A604FF0FF3356
:101CF400184680BD80B584B000AFF860B9607A60E2
:101D040019F07AF803460C221A604FF0FF33184694
:101D14001037BD4680BD000080B584B000AF786048
:101D2400114B1B68002B02D10F4B104A1A600E4B4B
:101D34001B68FB600C4B1A687B6813446A46934229
:101D440007D919F059F803460C221A604FF0FF33F3
:101D540006E0054B1A687B681344034A1360FB686A
:101D640018461037BD4680BD141F0020E81F002010
:101D740080B400AF064BD3F88830054A43F47003AF
:101D8400C2F8883000BFBD465DF8047B704700BFD1
:101D940000ED00E080B487B000AF4F4B1B6803F048
:101DA4000803002B07D14C4BD3F894301B0A03F0E3
:101DB4000F037B6105E0484B1B681B0903F00F030D
:101DC4007B61464A7B6952F823307B61424B9B68B6
:101DD40003F00C030C2B66D801A252F823F000BFC9
:101DE400191E0008AB1E0008AB1E0008AB1E00083D
:101DF400211E0008AB1E0008AB1E0008AB1E000825
:101E0400291E0008AB1E0008AB1E0008AB1E00080C
:101E1400311E0008324A7B69136048E0304B314A76
:101E24001A6044E02E4B2F4A1A6040E02A4BDB68CC
:101E340003F00303FB60284BDB681B0903F00F036B
:101E44000133BB60FB68022B03D0FB68032B06D075
:101E54000BE0244ABB68B2FBF3F33B610BE0214A7D
:101E6400BB68B2FBF3F33B6105E07A69BB68B2FB84
:101E7400F3F33B6100BF184BDB681B0A03F07F02DE
:101E84003B6902FB03F33B61134BDB685B0E03F01E
:101E9400030301335B007B603A697B68B2FBF3F3B5
:101EA4000F4A136003E00E4A7B69136000BF0A4BBC
:101EB4009B681B0903F00F030B4AD35C3B60084B80
:101EC4001A683B6822FA03F3054A136000BF1C3703
:101ED400BD465DF8047B70470010024074BA0108E7
:101EE4007C1C00200024F4005CBA010880B582B098
:101EF40000AF0023FB71042000F0ACFCFFF74AFFA5
:101F0400002000F04FF80346002B02D00123FB71A0
:101F140001E0FFF783FAFB7918460837BD4680BD18
:101F240080B500AF174B4FF0FF329A63154B4FF05B
:101F3400FF32DA63134B00229A63124B0022DA63F6
:101F4400104B4FF0FF321A640E4B00221A640D4BF3
:101F54004FF0FF329A620B4B00229A62094B4FF00A
:101F6400FF32DA62074B0022DA62064B4FF0FF328F
:101F74001A63044B00221A6300F00DF8002318467C
:101F840080BD00BF0010024080B400AF00BFBD465A
:101F94005DF8047B704780B400AF00BFBD465DF8B8
:101FA400047B704780B584B000AF78600023FB7376
:101FB400174B1B78002B23D0164B1A68144B1B7835
:101FC40019464FF47A73B3FBF1F3B2FBF3F31846FB
:101FD40000F085FC0346002B0FD17B68072B09D842
:101FE400002279684FF0FF3000F03FFC0A4A7B681A
:101FF400136007E00123FB7304E00123FB7301E09A
:102004000123FB73FB7B18461037BD4680BD00BF20
:10201400841C00207C1C0020801C002080B400AFA5
:10202400064B1B781A46064B1B681344044A13607C
:1020340000BFBD465DF8047B704700BF841C0020D0
:10204400D41F002080B400AF034B1B681846BD4664
:102054005DF8047B704700BFD41F002080B400AF3C
:10206400034B1B681846BD465DF8047B704700BFF0
:10207400801C002080B584B000AF0346FB710023B0
:10208400FB730E4B1B78FA799A4212D00B4B1B78D8
:10209400BB730A4AFB791370094B1B681846FFF798
:1020A40081FF0346FB73FB7B002B02D0034ABB7BFF
:1020B4001370FB7B18461037BD4680BD841C00207E
:1020C400801C002080B400AF034B1B781846BD462B
:1020D4005DF8047B704700BF841C002080B584B089
:1020E40000AF7860FFF7AEFFB8607B68FB60FB6809
:1020F400B3F1FF3F05D00A4B1B781A46FB68134423
:10210400FB6000BFFFF79EFF0246BB68D31AFA6864
:102114009A42F7D800BF00BF1037BD4680BD00BF4C
:10212400841C002080B400AF054B1B68044A23F0D4
:102134000203136000BFBD465DF8047B704700BF17
:1021440010E000E080B400AF054B1B68044A43F084
:102154000203136000BFBD465DF8047B704700BFF7
:1021640010E000E080B400AF024B1846BD465DF8B5
:10217400047B70470004000180B400AF044B1B686B
:102184001B0C9BB21846BD465DF8047B704700BF2C
:10219400004004E080B400AF044B1B68C3F30B039E
:1021A4001846BD465DF8047B704700BF004004E05C
:1021B40080B400AF034B1B681846BD465DF8047B32
:1021C400704700BF9005FA0B80B400AF034B1B6847
:1021D4001846BD465DF8047B704700BF9405FA0BB2
:1021E40080B400AF034B1B681846BD465DF8047B02
:1021F400704700BF9805FA0B80B400AF054B5B68CD
:10220400044A43F00203536000BFBD465DF8047BFB
:10221400704700BF004004E080B400AF054B5B682A
:10222400044A23F00203536000BFBD465DF8047BFB
:10223400704700BF004004E080B400AF054B5B680A
:10224400044A43F00403536000BFBD465DF8047BB9
:10225400704700BF004004E080B400AF054B5B68EA
:10226400044A23F00403536000BFBD465DF8047BB9
:10227400704700BF004004E080B400AF084BCA229E
:10228400DA61074B5322DA61054B9B69044A43F038
:102294000103936100BFBD465DF8047B704700BF36
:1022A4000000014080B584B000AF78600E4B1B681D
:1022B40023F004020C497B6813430B607B68002BFA
:1022C40005D10A4B1B7803F03F03FB6004E0084B85
:1022D4001B7803F03F03FB60F86800F01FF800BFB1
:1022E4001037BD4680BD00BF000101407905FA0BDF
:1022F4003005FA0B80B483B000AF7860064B1B68DE
:1023040023F0020204497B6813430B6000BF0C37BF
:10231400BD465DF8047B70470001014080B483B082
:1023240000AF7860064B5B6823F03F0204497B688A
:1023340013434B6000BF0C37BD465DF8047B704708
:102344000001014080B582B000AF0F4B1B680E4AFC
:1023540043F001031360FFF775FE786008E0FFF7B0
:1023640071FE02467B68D31A0A2B01D9032306E0C7
:10237400054B1B6803F00803002BF0D0002318461C
:102384000837BD4680BD00BF0001014080B400AFE6
:10239400054B1B68044A23F00103136000BFBD46CC
:1023A4005DF8047B704700BF0001014080B400AFBA
:1023B400064B5B6823F44073044A43F48073536010
:1023C40000BFBD465DF8047B704700BF00000140BC
:1023D40080B400AF054B5B68044A23F480735360F8
:1023E40000BFBD465DF8047B704700BF000001409C
:1023F40080B400AF064B5B6823F44073044A43F493
:102404000073536000BFBD465DF8047B704700BF96
:102414000000014080B400AF054B5B68044A23F41C
:102424000073536000BFBD465DF8047B704700BF76
:102434000000014080B483B000AF7860044A7B6838
:102444009BB2D36000BF0C37BD465DF8047B704778
:102454000000014080B485B000AF78607B68002B39
:1024640001D1012306E0064BDB68FB607B68FA6858
:102474001A60002318461437BD465DF8047B704784
:102484000000014080B485B000AF78607B6803F041
:102494000703FB600C4BDB68BB60BA684FF6FF03B5
:1024A4001340BB60FB681A02BB68134343F0BF636D
:1024B40043F40033BB60044ABB68D36000BF1437E5
:1024C400BD465DF8047B704700ED00E080B400AFCA
:1024D400044BDB681B0A03F007031846BD465DF88E
:1024E400047B704700ED00E080B483B000AF034686
:1024F400FB7197F90730002B0BDBFB7903F01F020C
:10250400074997F907305B09012000FA02F241F804
:10251400232000BF0C37BD465DF8047B704700BF25
:1025240000E100E080B483B000AF0346FB7197F98B
:102534000730002B12DBFB7903F01F020A4997F9DD
:1025440007305B09012000FA02F2203341F823200E
:10255400BFF34F8F00BFBFF36F8F00BF00BF0C37B7
:10256400BD465DF8047B704700E100E080B483B0B1
:1025740000AF0346FB7197F90730002B0EDB0B4AC3
:1025840097F907305B09403352F82320FB7903F0B5
:102594001F0322FA03F303F0010300E000231846AB
:1025A4000C37BD465DF8047B704700BF00E100E0D6
:1025B40080B483B000AF0346FB7197F90730002B5A
:1025C4000CDBFB7903F01F02074997F907305B091D
:1025D400012000FA02F2403341F8232000BF0C37F7
:1025E400BD465DF8047B704700E100E080B483B031
:1025F40000AF0346FB7197F90730002B0CDBFB7926
:1026040003F01F02074997F907305B09012000FA1C
:1026140002F2603341F8232000BF0C37BD465DF859
:10262400047B704700E100E080B483B000AF034650
:10263400FB7197F90730002B0EDB0B4A97F9073033
:102644005B09803352F82320FB7903F01F0322FA3D
:1026540003F303F0010300E0002318460C37BD46E2
:102664005DF8047B704700BF00E100E080B483B0F4
:1026740000AF03463960FB7197F90730002B0ADB82
:102684003B68DAB20C4997F907305201D2B20B44D5
:1026940083F800230AE03B68DAB20849FB7903F0C7
:1026A4000F03043B5201D2B20B441A7600BF0C371D
:1026B400BD465DF8047B704700E100E000ED00E0FA
:1026C40080B483B000AF0346FB7197F90730002B49
:1026D40009DB0D4A97F90730134493F80033DBB252
:1026E4005B09DBB209E0094AFB7903F00F03043B01
:1026F40013441B7EDBB25B09DBB218460C37BD46C4
:102704005DF8047B704700BF00E100E000ED00E0ED
:1027140080B489B000AFF860B9607A60FB6803F0F8
:102724000703FB61FB69C3F10703032B28BF0323E2
:10273400BB61FB690333062B02D9FB69043B00E050
:1027440000237B614FF0FF32BB6902FA03F3DA43E3
:10275400BB681A407B699A404FF0FF317B6901FAEC
:1027640003F3D9437B680B40134318462437BD4613
:102774005DF8047B704780B489B000AFF860B9603D
:102784007A603B60BB6803F00703FB61FB69C3F13C
:102794000703032B28BF0323BB61FB690333062B09
:1027A40002D9FB69043B00E000237B61FA687B6982
:1027B400DA404FF0FF31BB6901FA03F3DB431A40FF
:1027C4007B681A604FF0FF327B6902FA03F3DA4345
:1027D400FB681A403B681A6000BF2437BD465DF8A9
:1027E400047B704780B400AFBFF34F8F00BF064B2C
:1027F400DB6803F4E0620449044B1343CB60BFF38A
:102804004F8F00BF00BFFDE700ED00E00400FA05B4
:1028140080B582B000AF78607B68013BB3F1807F04
:1028240001D301230FE00A4A7B68013B536007216F
:102834004FF0FF30FFF71AFF054B00229A60044B5C
:1028440007221A60002318460837BD4680BD00BF22
:1028540010E000E080B582B000AF78607868FFF7E0
:1028640011FE00BF0837BD4680BD80B586B000AFFD
:102874000346B9607A60FB73FFF728FE78617A68D3
:10288400B9687869FFF744FF024697F90F3011469B
:102894001846FFF7EBFE00BF1837BD4680BD80B574
:1028A40082B000AF0346FB7197F907301846FFF773
:1028B4001BFE00BF0837BD4680BD80B582B000AFA7
:1028C4000346FB7197F907301846FFF72BFE00BF4C
:1028D4000837BD4680BD80B500AFFFF783FF80B5E4
:1028E40082B000AF78607868FFF792FF034618461D
:1028F4000837BD4680BD80B500AFFFF7E7FD03464E
:10290400184680BD80B584B000AFB9607A603B6082
:102914000346FB7397F90F301846FFF7D1FE3B6867
:102924007A68B968FFF727FF00BF1037BD4680BD3E
:1029340080B582B000AF0346FB7197F907301846A3
:10294400FFF736FE00BF0837BD4680BD80B582B0B4
:1029540000AF0346FB7197F907301846FFF706FEF0
:10296400034618460837BD4680BD80B582B000AF27
:102974000346FB7197F907301846FFF737FE00BF8F
:102984000837BD4680BD80B582B000AF0346FB71F9
:1029940097F907301846FFF747FE034618460837ED
:1029A400BD4680BD80B483B000AF78607B68042BE3
:1029B40006D1094B1B68084A43F00403136005E081
:1029C400054B1B68044A23F00403136000BF0C3753
:1029D400BD465DF8047B704710E000E080B500AFB1
:1029E40000F002F800BF80BD80B400AF00BFBD4658
:1029F4005DF8047B7047000080B483B000AF78605A
:102A04000B4A7B6843F0010353600A4B5B6A094A33
:102A140043F480335362BFF35F8F00BFBFF36F8F04
:102A240000BF00BF0C37BD465DF8047B704700BF94
:102A340090ED00E000ED00E080B400AFBFF35F8FE5
:102A440000BF054B5B68044A23F00103536000BFD9
:102A5400BD465DF8047B704790ED00E080B582B020
:102A640000AF78607968034800F014F800BF0837B5
:102A7400BD4680BD90ED00E080B582B000AF7860C7
:102A84007968034800F042F800BF0837BD4680BDAE
:102A940090ED00E080B483B000AF78603960BFF39C
:102AA4005F8F00BF3B685B781A467B689A603B681F
:102AB4001B78002B1ED03B685B6823F01F023B6829
:102AC400DB7BDB001A433B685B7B5B0013433A68A8
:102AD400927B1A437B68DA603B689B6823F01F0291
:102AE4003B681B7B5B0013433A6812781A437B688C
:102AF4001A6105E07B680022DA607B6800221A61B3
:102B040000BF0C37BD465DF8047B704780B487B0C6
:102B140000AF78603960BFF35F8F00BF3B681B78FC
:102B2400032B06D87B6830337B613B681B783B61A1
:102B340006E07B6834337B613B681B78043B3B6174
:102B44007B691B68FB603B69DB00FF2202FA03F32D
:102B5400DB43FA681340FB603B685B781A463B69C9
:102B6400DB009A40FB681A437B691A6000BF1C377C
:102B7400BD465DF8047B704780B584B000AF7860D3
:102B84007B68002B01D101238DE07B681B681A460A
:102B9400474B9A420FD87B681B681A46454B13442F
:102BA400454AA2FB03231B099A007B68DA647B680D
:102BB400424A9A640EE07B681B681A46404B1344F1
:102BC4003D4AA2FB03231B099A007B68DA647B68F5
:102BD4003C4A9A647B68022283F825207B681B6840
:102BE4001B68FB60FB6823F4FF3323F4F873FB607A
:102BF4007B689A687B68DB681A437B681B691A43A5
:102C04007B685B691A437B689B691A437B68DB6951
:102C14001A437B681B6A1343FA681343FB607B689F
:102C24001B68FA681A60786800F0AAFD7B689B68E4
:102C3400B3F5804F02D17B6800225A607B685A68E2
:102C44007B681B6DD2B21A607B685B6D7A68926D8B
:102C54005A607B685B68002B10D07B685B68042B30
:102C64000CD8786800F0CAFD7B68DB6D00221A601E
:102C74007B681B6E7A68526E5A6008E07B6800229B
:102C8400DA657B6800221A667B6800225A667B68D4
:102C940000225A647B68012283F825207B68002285
:102CA40083F82420002318461037BD4680BD00BF9A
:102CB40007040240F8FFFDBFCDCCCCCC000002409D
:102CC400F8FBFDBF0004024080B582B000AF78601D
:102CD4007B68002B01D1012381E07B681B681A68A3
:102CE4007B681B6822F001021A607B681B681A4625
:102CF4003D4B9A420FD87B681B681A463B4B1344E2
:102D04003B4AA2FB03231B099A007B68DA647B68B5
:102D1400384A9A640EE07B681B681A46364B1344A3
:102D2400334AA2FB03231B099A007B68DA647B689D
:102D3400324A9A647B681B6800221A607B68DB6CE9
:102D440003F01C027B689B6C012101FA02F25A60B9
:102D5400786800F015FD7B681B6D00221A607B68A3
:102D64005B6D7A68926D5A607B685B68002B0FD04C
:102D74007B685B68042B0BD8786800F03FFD7B68A8
:102D8400DB6D00221A607B681B6E7A68526E5A6093
:102D94007B680022DA657B6800221A667B68002261
:102DA4005A667B680022DA627B6800221A637B68B9
:102DB40000225A637B6800229A637B680022DA63EC
:102DC4007B6800221A647B6800225A647B680022B4
:102DD40083F825207B68002283F8242000231846EA
:102DE4000837BD4680BD00BF07040240F8FFFDBFA1
:102DF400CDCCCCCC00000240F8FBFDBF0004024067
:102E040080B586B000AFF860B9607A603B6000239B
:102E1400FB75FB6893F82430012B01D102232EE0CB
:102E2400FB68012283F82420FB6893F82530DBB289
:102E3400012B1DD1FB68022283F82520FB680022A8
:102E44005A64FB681B681A68FB681B6822F001025D
:102E54001A603B687A68B968F86800F052FCFB684D
:102E64001B681A68FB681B6842F001021A6005E0DF
:102E7400FB68002283F824200223FB75FB7D18469F
:102E84001837BD4680BD80B586B000AFF860B96024
:102E94007A603B600023FB75FB6893F82430012BB8
:102EA40001D1022366E0FB68012283F82420FB6839
:102EB40093F82530DBB2012B55D1FB68022283F84D
:102EC4002520FB6800225A64FB681B681A68FB68AB
:102ED4001B6822F001021A603B687A68B968F868D6
:102EE40000F00FFCFB681B6B002B08D0FB681B6811
:102EF4001A68FB681B6842F00E021A600FE0FB6858
:102F04001B681A68FB681B6822F004021A60FB68DD
:102F14001B681A68FB681B6842F00A021A60FB68A7
:102F24001B6D1B6803F48033002B07D0FB681B6DFB
:102F34001A68FB681B6D42F480721A60FB68DB6DD3
:102F4400002B07D0FB68DB6D1A68FB68DB6D42F46D
:102F540080721A60FB681B681A68FB681B6842F081
:102F640001021A6005E0FB68002283F82420022392
:102F7400FB75FB7D18461837BD4680BD80B485B00F
:102F840000AF78600023FB737B6893F82530DBB2D5
:102F9400022B08D07B6804225A647B68002283F8E1
:102FA4002420012340E07B681B681A687B681B6847
:102FB40022F00E021A607B681B6D1A687B681B6D19
:102FC40022F480721A607B681B681A687B681B682D
:102FD40022F001021A607B68DB6C03F01C027B6840
:102FE4009B6C012101FA02F25A607B685B6D7A687E
:102FF400926D5A607B68DB6D002B0CD07B68DB6DB7
:103004001A687B68DB6D22F480721A607B681B6E21
:103014007A68526E5A607B68012283F825207B68A7
:10302400002283F82420FB7B18461437BD465DF844
:10303400047B704780B584B000AF78600023FB73D5
:103044007B6893F82530DBB2022B05D07B68042221
:103054005A640123FB7347E07B681B681A687B682A
:103064001B6822F00E021A607B681B681A687B6872
:103074001B6822F001021A607B681B6D1A687B686A
:103084001B6D22F480721A607B68DB6C03F01C02F7
:103094007B689B6C012101FA02F25A607B685B6DCC
:1030A4007A68926D5A607B68DB6D002B0CD07B686C
:1030B400DB6D1A687B68DB6D22F480721A607B68B2
:1030C4001B6E7A68526E5A607B68012283F8252051
:1030D4007B68002283F824207B681B6C002B03D0C0
:1030E4007B681B6C78689847FB7B18461037BD4695
:1030F40080BD80B586B000AFF8600B467A60FB7285
:10310400FB6893F82530DBB2022B08D0FB6804225D
:103114005A64FB68002283F824200123BEE0FB6884
:103124001B681B6803F02003002B05D0FB684FF4D9
:1031340080725A640123B1E0FB7A002B08D1FB684A
:10314400DB6C03F01C03022202FA03F37B6107E049
:10315400FB68DB6C03F01C03042202FA03F37B61BB
:10316400FEF770FF38613FE0FB689B6C1A68FB68F0
:10317400DB6C03F01C03082101FA03F31340002B5A
:1031840016D0FB68DB6C03F01C02FB689B6C01210E
:1031940001FA02F25A60FB6801225A64FB680122B8
:1031A40083F82520FB68002283F82420012375E09E
:1031B4007B68B3F1FF3F17D0FEF744FF02463B693B
:1031C400D31A7A689A4202D37B68002B0CD1FB682D
:1031D40020225A64FB68012283F82520FB68002220
:1031E40083F82420012359E0FB689B6C1A687B69EF
:1031F4001340002BB8D0FB68DB6D002B1AD0FB68A2
:103204001B6E1A68FB685B6E1340002B12D0FB68C0
:10321400DB6D1A68FB68DB6D42F480721A60FB6830
:103224001B6EFA68526E5A60FB685B6C43F48062F2
:10323400FB685A64FB685B6D1A68FB689B6D1340FE
:10324400002B0AD0FB685B6DFA68926D5A60FB68CC
:103254005B6C43F40072FB685A64FB7A002B12D156
:10326400FB68DB6C03F01C02FB689B6C022101FA17
:1032740002F25A60FB68002283F82420FB680122D2
:1032840083F8252009E0FB68DB6C03F01C02FB6873
:103294009B6C042101FA02F25A6000231846183785
:1032A400BD4680BD80B584B000AF78607B689B6C00
:1032B4001B68FB607B681B681B68BB607B68DB6CFE
:1032C40003F01C0304229A40FB681340002B53D0E4
:1032D400BB6803F00403002B4ED07B681B681B689B
:1032E40003F40043002B24D07B68DB6C03F01C0246
:1032F4007B689B6C042101FA02F25A607B681B68AC
:103304001B6803F48033002B09D17B681B6B002BF3
:1033140000F0C0807B681B6B78689847BAE07B68D4
:103324009B6B002B00F0B6807B689B6B786898479A
:10333400B0E07B681B681B6803F02003002B07D1F7
:103344007B681B681A687B681B6822F004021A6099
:103354007B68DB6C03F01C027B689B6C042101FA24
:1033640002F25A607B681B6B002B00F093807B6831
:103374001B6B786898478DE07B68DB6C03F01C035B
:1033840002229A40FB681340002B4ED0BB6803F026
:103394000203002B49D07B681B681B6803F40043BD
:1033A400002B18D07B681B681B6803F48033002B48
:1033B40008D17B685B6B002B6ED07B685B6B786895
:1033C400984769E07B68DB6A002B65D07B68DB6A21
:1033D4007868984760E07B681B681B6803F02003EB
:1033E400002B0BD17B681B681A687B681B6822F072
:1033F4000A021A607B68012283F825207B68DB6C53
:1034040003F01C027B689B6C022101FA02F25A60F1
:103414007B68002283F824207B68DB6A002B3BD086
:103424007B68DB6A7868984736E07B68DB6C03F07E
:103434001C0308229A40FB681340002B2ED0BB6863
:1034440003F00803002B29D07B681B681A687B688B
:103454001B6822F00E021A607B68DB6C03F01C020E
:103464007B689B6C012101FA02F25A607B6801229D
:103474005A647B68012283F825207B68002283F844
:1034840024207B68DB6B002B08D07B68DB6B7868BF
:10349400984702E000BF00E000BF00BF00BF103744
:1034A400BD4680BD80B487B000AFF8600B467A603B
:1034B400FB720023FB75FB6893F82430012B01D1C8
:1034C40002233DE0FB68012283F82420FB6893F883
:1034D4002530DBB2012B2CD1FB7A052B26D801A297
:1034E40052F823F0013500080935000811350008A9
:1034F400193500082135000829350008FB687A6869
:10350400DA6218E0FB687A681A6314E0FB687A6888
:103514005A6310E0FB687A689A630CE0FB687A6887
:10352400DA6308E0FB687A681A6404E00123FB7537
:1035340001E00123FB75FB68002283F82420FB7D56
:1035440018461C37BD465DF8047B704780B485B0CF
:1035540000AF78600B46FB700023FB737B6893F825
:103564002430012B01D1022353E07B68012283F82C
:1035740024207B6893F82530DBB2012B42D1FB7801
:10358400062B3CD801A252F823F000BFAD35000849
:10359400B5350008BD350008C5350008CD3500082F
:1035A400D5350008DD3500087B680022DA622BE09F
:1035B4007B6800221A6327E07B6800225A6323E0B9
:1035C4007B6800229A631FE07B680022DA631BE0B9
:1035D4007B6800221A6417E07B680022DA627B6849
:1035E40000221A637B6800225A637B6800229A6374
:1035F4007B680022DA637B6800221A6404E00123FA
:10360400FB7301E00123FB737B68002283F8242011
:10361400FB7B18461437BD465DF8047B704700BF3A
:1036240080B483B000AF78607B6893F82530DBB258
:1036340018460C37BD465DF8047B704780B483B0F0
:1036440000AF78607B685B6C18460C37BD465DF84C
:10365400047B704780B485B000AF78603960002384
:10366400FB727B68002B03D10123FB72FB7A1BE006
:103674007B681B681B68FB603B6803F01003002B2E
:103684000DD03B6803F48013002B04D0FB6843F493
:103694008013FB6003E0FB6823F48013FB607B680A
:1036A4001B68FA681A60FB7A18461437BD465DF841
:1036B400047B704780B485B000AF786039607B6864
:1036C400002B02D03B68002B01D1012313E07B685F
:1036D4001B681B6803F48013FB60FB6803F480130E
:1036E400002B01D1102301E04FF01013BB603B68A5
:1036F400BA681A60002318461437BD465DF8047B87
:10370400704780B485B000AFF860B9607A603B6000
:10371400FB685B6DFA68926D5A60FB68DB6D002B89
:1037240004D0FB681B6EFA68526E5A60FB68DB6C4F
:1037340003F01C02FB689B6C012101FA02F25A603F
:10374400FB681B683A685A60FB689B68102B08D1B9
:10375400FB681B687A689A60FB681B68BA68DA6061
:1037640007E0FB681B68BA689A60FB681B687A68A4
:10377400DA6000BF1437BD465DF8047B7047000073
:1037840080B485B000AF78607B681B681A46174B1D
:103794009A420AD87B68DB6C9B089B0003F1804348
:1037A40003F502337A68136507E07B68DB6C9B08DA
:1037B4009A000F4B13447A6813657B681B68DBB26D
:1037C400083B0C4AA2FB03231B09FB607B680A4AE3
:1037D4005A65FB6803F01F0301229A407B689A65CF
:1037E40000BF1437BD465DF8047B704707040240F0
:1037F40020080240CDCCCCCC8008024080B485B0F7
:1038040000AF78607B685B68DBB2FB60FA680B4BE7
:1038140013449B001A467B68DA657B68084A1A667B
:10382400FB68013B03F0030301229A407B685A665C
:1038340000BF1437BD465DF8047B70473F8200101B
:103844004009024080B586B000AFF860B9607A6084
:103854003B600023FB75FB689B68B3F5804F06D182
:10386400FB684FF480725A640123FB7552E0FB68D5
:1038740093F82430012B01D102234CE0FB68012290
:1038840083F82420FB6893F82530DBB2012B3BD16D
:10389400FB68022283F82520FB6800225A64FB6837
:1038A4001B681B68FA68126843F4004343F0200362
:1038B4001360FB681B683A681A613B6A7A68B968E6
:1038C400F86800F0F5F9FB68DB6C03F01C02FB6898
:1038D4009B6C012101FA02F25A60FB685B6DFA6885
:1038E400926D5A60FB68DB6D002B04D0FB681B6E85
:1038F400FA68526E5A60FB681B681A68FB681B689A
:1039040042F001021A6005E0FB68002283F82420DB
:103914000223FB75FB7D18461837BD4680BD80B574
:1039240086B000AFF860B9607A603B600023FB7535
:10393400FB689B68B3F5804F05D1FB684FF4807238
:103944005A64012393E0FB6893F82430012B01D1DE
:1039540002238CE0FB68012283F82420FB6893F89F
:103964002530DBB2012B7BD1FB68022283F82520B2
:10397400FB6800225A64FB681B681A68FB681B68B2
:1039840022F001021A60FB681B681B68FA6812685F
:1039940043F4004343F020031360FB681B683A6858
:1039A4001A613B6A7A68B968F86800F081F9FB68C3
:1039B400DB6C03F01C02FB689B6C012101FA02F230
:1039C4005A60FB685B6DFA68926D5A60FB68DB6D48
:1039D400002B04D0FB681B6EFA68526E5A60FB68B9
:1039E4001B6B002B08D0FB681B681A68FB681B68FC
:1039F40042F00E021A600FE0FB681B681A68FB684D
:103A04001B6822F004021A60FB681B681A68FB68D2
:103A14001B6842F00A021A60FB681B6D1B6803F402
:103A24008033002B07D0FB681B6D1A68FB681B6D85
:103A340042F480721A60FB68DB6D002B07D0FB68D0
:103A4400DB6D1A68FB68DB6D42F480721A60FB68F8
:103A54001B681A68FB681B6842F001021A6005E0E3
:103A6400FB68002283F824200223FB75FB7D1846A3
:103A74001837BD4680BD80B485B000AFF860B9602A
:103A84001346FB71FB79002B04D1FB681B68BA68F1
:103A9400DA6003E0FB681B68BA681A610023184601
:103AA4001437BD465DF8047B704780B483B000AF23
:103AB400786039607B6893F82530DBB2012B2BD119
:103AC4007B6893F82430012B01D1022325E07B6825
:103AD400012283F824207B681B6D1B68D9B23B68E4
:103AE4001B681A063B68DB68013BDB041A433B682E
:103AF4005B681A433B681B7A1B041A433B685B7A76
:103B04005B021A437B681B6D0A431A607B680022C0
:103B140083F82420002300E0012318460C37BD4617
:103B24005DF8047B704780B483B000AF786039607F
:103B34007B6893F82530DBB2012B22D17B68DB6DE7
:103B4400002B1ED07B6893F82430012B01D1022373
:103B540018E07B68012283F824203B681A683B68DC
:103B64009B68013BDB0442EA03013B685A687B68BB
:103B7400DB6D0A431A607B68002283F8242000234B
:103B840000E0012318460C37BD465DF8047B7047FE
:103B940080B483B000AF78607B6893F82530DBB2E3
:103BA400002B0DD07B68DB6D002B09D07B68DB6DAF
:103BB4001A687B68DB6D42F480321A60002300E0EF
:103BC400012318460C37BD465DF8047B704780B46A
:103BD40083B000AF78607B6893F82530DBB2002BAC
:103BE4000DD07B68DB6D002B09D07B68DB6D1A6818
:103BF4007B68DB6D22F480321A60002300E001232D
:103C040018460C37BD465DF8047B704780B582B01A
:103C140000AF78607B685B6D1A687B689B6D1340AE
:103C2400002B1AD07B681B6D1A687B681B6D22F40D
:103C340080721A607B685B6D7A68926D5A607B68EB
:103C44005B6C43F400727B685A647B68DB6B002B0B
:103C540003D07B68DB6B786898477B68DB6D002B4F
:103C640022D07B681B6E1A687B685B6E1340002B46
:103C74001AD07B68DB6D1A687B68DB6D22F4807276
:103C84001A607B681B6E7A68526E5A607B685B6C44
:103C940043F480627B685A647B68DB6B002B03D03F
:103CA4007B68DB6B7868984700BF0837BD4680BDEA
:103CB40080B485B000AFF860B9607A603B60FB689F
:103CC4001B683A685A60FB689B68102B08D1FB6834
:103CD4001B687A689A60FB681B68BA68DA6007E058
:103CE400FB681B68BA689A60FB681B687A68DA60CC
:103CF40000BF1437BD465DF8047B704780B489B0BB
:103D040000AF786039607B68002B02D03B68002BE1
:103D140001D10123B3E03B681A687B681A603B68F1
:103D24001B681B0C03F00103BB613B681B6803F0B9
:103D34001F037B6101227B6902FA03F33B613B6849
:103D44001B6803F00073002B62D0BB695B0103F1B5
:103D5400804303F53D33FB60FB681B68FB613B68F4
:103D64009B6803F00103002B04D0FA693B691343F9
:103D7400FB6104E03B69DB43FA691340FB61FB68C8
:103D8400FA691A60BB695A01404B1344FB60FB6833
:103D94001B68FB613B689B6803F00203002B04D0A3
:103DA400FA693B691343FB6104E03B69DB43FA694D
:103DB4001340FB61FB68FA691A603B681B6803F0F7
:103DC400C063B3F1C06F23D1314A7B699B081833B8
:103DD40052F82330FB617B6903F00303DB00FF220D
:103DE40002FA03F3DB43FA691340FB613B68DA68C8
:103DF4007B6903F00303DB0002FA03F3FA6913435C
:103E0400FB6123497B699B081833FA6941F8232035
:103E1400BB691A011F4B1344FB60FB681B68FB6101
:103E24003B685B6803F00103002B04D0FA693B692B
:103E34001343FB6104E03B69DB43FA691340FB6114
:103E4400FB68FA691A60BB691A01134B1344FB60DF
:103E5400FB681B68FB613B685B6803F00203002B93
:103E640004D0FA693B691343FB6104E03B69DB431B
:103E7400FA691340FB61FB68FA691A60002318466B
:103E84002437BD465DF8047B704700BF04F402404C
:103E940000F4024080F4024084F4024080B489B00B
:103EA40000AF786039607B68002B02D03B68002B40
:103EB40001D101238EE07B681A683B681A603B6875
:103EC4001B681B0C03F00103FB613B681B6803F0D8
:103ED4001F03BB610122BB6902FA03F37B61FB6927
:103EE4001A013F4B13443B613B691B68FB60FA6852
:103EF4007B691340002B03D03B6801225A6002E027
:103F04003B6800225A60FB691A01364B13443B613B
:103F14003B691B68FB60FA687B691340002B05D082
:103F24003B685B6843F002023B685A603B681B686D
:103F340003F00073002B46D0FB695B0103F180435F
:103F440003F53D333B613B691B68FB60FA687B69A1
:103F54001340002B03D03B6801229A6002E03B68C7
:103F640000229A60FB695A011F4B13443B613B6971
:103F74001B68FB60FA687B691340002B05D03B6823
:103F84009B6843F002023B689A603B681B6803F03D
:103F9400C063B3F1C06F12D1144ABB699B081833D4
:103FA40052F82330FB60BB69DB4303F00303DB00FF
:103FB400FA6802FA03F31A0E3B68DA6009E03B6818
:103FC4000022DA6005E03B6800229A603B68002228
:103FD400DA60002318462437BD465DF8047B704739
:103FE40080F4024084F4024004F4024000F40240ED
:103FF40080B489B000AF78607B68002B01D10123C5
:1040040070E07B681B681B0C03F00103FB617B6899
:104014001B6803F01F03BB610122BB6902FA03F3AF
:104024007B61FB691A01324B13443B613B691A689B
:104034007B69DB431340FB603B69FA681A60FB69E8
:104044001A012C4B13443B613B691A687B69DB43BF
:104054001340FB603B69FA681A607B681B6803F0D5
:104064000073002B3DD0FB695B0103F1804303F532
:104074003D333B613B691A687B69DB431340FB605A
:104084003B69FA681A60FB695A011B4B13443B6194
:104094003B691A687B69DB431340FB603B69FA6840
:1040A4001A607B681B6803F0C063B3F1C06F18D15A
:1040B400124ABB699B08183352F82330FB60BB6972
:1040C40003F00303DB00FF2202FA03F3DB43FA6885
:1040D4001340FB600949BB699B081833FA6841F82F
:1040E4002320002318462437BD465DF8047B70471F
:1040F40080F4024084F4024004F4024000F40240DC
:1041040080B487B000AFF8600B467A60FB7200237E
:10411400FB75FB7A022B11D0022B13DC002B02D08F
:10412400012B07D00EE0FB687A685A60FB687A6856
:104134009A600AE0FB687A685A6006E0FB687A686D
:104144009A6002E00123FB7500BFFB7D18461C3713
:10415400BD465DF8047B704780B483B000AF7860DF
:1041640039607B68002B01D1012303E07B683A6846
:104174001A60002318460C37BD465DF8047B70476F
:1041840080B586B000AF78607B681B681B0C03F0B9
:1041940001037B617B681B6803F01F03012202FAA1
:1041A40003F33B617B695A01174B1344FB60FB68C3
:1041B4001B683A691340BB60BB68002B09D0FB68DD
:1041C4003A691A607B685B68002B02D07B685B6885
:1041D40098477B695A010D4B1344FB60FB681B68CD
:1041E4003A691340BB60BB68002B09D0FB683A698D
:1041F4001A607B689B68002B02D07B689B68984799
:1042040000BF1837BD4680BD0CF4024010F40240D4
:1042140080B489B000AF786039607B681B681B0C80
:1042240003F00103BB617B681B6803F01F037B6120
:1042340001227B6902FA03F33B613B68012B05D041
:10424400BB695A010B4B1344FB6104E0BB695A017F
:10425400094B1344FB61FB691A683B691A407B698B
:1042640022FA03F3FB60FB6818462437BD465DF869
:10427400047B704710F402400CF4024080B487B011
:1042840000AF786039607B681B681B0C03F0010386
:104294003B617B681B6803F01F03012202FA03F3EE
:1042A400FB603B68012B05D03B695A01084B134462
:1042B4007B6104E03B695A01064B13447B617B69D3
:1042C400FA681A6000BF1C37BD465DF8047B70476E
:1042D40010F402400CF4024080B487B000AF786060
:1042E4007B681B681B0C03F001037B617B681B6804
:1042F40003F01F03012202FA03F33B617B695A01B5
:10430400054B1344FB60FB683A691A6000BF1C3715
:10431400BD465DF8047B704708F4024080B489B060
:1043240000AF786039607B681B0C03F00103BB614C
:104334007B6803F01F037B6101227B6902FA03F3AC
:104344003B61BB691A01134B1344FB60FB681B6898
:10435400FB613A6840F20223134040F20222934286
:1043640004D1FA693B691343FB6109E03B6803F438
:104374000073002B04D03B69DB43FA691340FB61F3
:10438400FB68FA691A6000BF2437BD465DF8047BF8
:10439400704700BF18F4024080B489B000AF786061
:1043A40039603B68002B01D1012323E07B681B0C9F
:1043B40003F00103BB617B6803F01F037B610122EF
:1043C4007B6902FA03F33B61BB691A010C4B13448A
:1043D400FB60FB681A683B691340002B03D040F272
:1043E4000223FB6102E04FF40073FB613B68FA694E
:1043F4001A60002318462437BD465DF8047B7047D5
:1044040018F4024080B586B000AFF860B960C7E91F
:1044140000231B4B1B78012B01D102232CE0184BEA
:1044240001221A70164B00225A604FF47A7000F081
:1044340097F90346FB75FB7D002B19D1104AFB68E5
:104444009360104B3B61D7E90023B86800F0D0F9C2
:104454004FF47A7000F084F90346FB753B691A68DF
:10446400074B9B6823F00043DB431A403B691A6007
:10447400034B00221A70FB7D18461837BD4680BDD9
:10448400881C00202820024080B586B000AFF86068
:10449400B960C7E90023184B1B78012B01D1022313
:1044A40026E0154B01221A70134B00225A604FF478
:1044B4007A7000F055F90346FB75FB7D002B03D0A1
:1044C4000D4B00221A7012E00B4AFB6893600A4AF3
:1044D400BB68D360094B3B613B691B6843F0407286
:1044E4003B691A60D7E90023B86800F081F9FB7DC5
:1044F40018461837BD4680BD881C0020282002407D
:1045040080B586B000AF00237B613F4B9B6823F0EE
:1045140000433B613D4BFB603D4BBB60BB681A688D
:1045240042F2FA0313407B603B69022B03D1364B02
:104534005B697B610EE03B6948F20402934203D15C
:10454400314B1B697B6105E03B69012B02D12E4B8A
:10455400DB687B61FB681A683B69DB431A40FB68D4
:104564001A607B68002B0ED0274B5A687B68134374
:10457400254A5360BB687A681A60234B00229A600C
:10458400786900F051F8BB681B6803F00103002B45
:1045940029D0BB6801221A603B69022B1DD11A4B3A
:1045A4009B69013B184A9361174B9B69002B0DD003
:1045B400154B5B690133144A5361134B5B69124A0F
:1045C40012691146184600F075FB09E00E4B0022F3
:1045D4009A604FF0FF337B6102E00B4B00229A603C
:1045E400786900F017F8084B9B68002B08D1FB682A
:1045F4001B6823F04072FB681A60034B00221A7098
:1046040000BF1837BD4680BD881C0020282002400A
:104614002020024080B483B000AF786000BF0C3724
:10462400BD465DF8047B704780B483B000AF78600A
:1046340000BF0C37BD465DF8047B704780B483B07F
:1046440000AF0023FB710B4B9B6A002B0BDA094B69
:10465400094A9A60074B094A9A60064B9B6A002BE9
:1046640001DA0123FB71FB7918460C37BD465DF86E
:10467400047B70470020024023016745AB89EFCDDE
:1046840080B483B000AF0123FB71094B9B6A084AD5
:1046940043F000439362064B9B6A002B01DA00232C
:1046A400FB71FB7918460C37BD465DF8047B7047F7
:1046B4000020024080B400AF0C4B9B6A03F080439F
:1046C400002B0DD0094B0A4A1A61084B094A1A619A
:1046D400064B9B6A03F08043002B01D0012300E0CA
:1046E40000231846BD465DF8047B70470020024055
:1046F4003B2A19087F6E5D4C80B400AF094B9B6A5E
:10470400084A43F080439362064B9B6A03F080435C
:10471400002B01D0002300E001231846BD465DF8BC
:10472400047B70470020024080B400AF054B9B6AB5
:10473400044A43F00063936201231846BD465DF8C2
:10474400047B70470020024080B400AF034B5B68D9
:104754001846BD465DF8047B704700BF881C0020E6
:1047640080B586B000AF7860FDF76CFC02467B68CC
:1047740013447B610BE07B68B3F1FF3F07D0FDF787
:1047840061FC02467B69934201D8032326E0154B62
:104794001B6A03F48033B3F5803FECD0124B3B61CA
:1047A4003B691A6842F2FA031340FB60FB68002B72
:1047B4000AD00E4B5A68FB6813430C4A53603B699A
:1047C400FA681A60012309E03B691B6803F00103DE
:1047D400002B02D03B6901221A60002318461837C7
:1047E400BD4680BD0020024020200240881C0020DD
:1047F40080B489B000AFF860C7E90023164BFB61B1
:10480400EFF310833B613B69BB6172B600BFFB6988
:104814001B6843F00102FB691A60FB683A681A607E
:10482400BFF36F8F00BFD7E900014FF000024FF0D4
:1048340000030A000023F968043113460B60BB69C6
:104844007B617B6983F3108800BF00BF2437BD46BA
:104854005DF8047B704700BF2820024080B586B015
:1048640000AF78603960334B1B78012B01D10223F0
:104874005CE0304B01221A702E4B00225A604FF438
:104884007A70FFF76DFF0346FB75FB7D002B49D162
:104894007B681B68274A9360274BFB60254B9B680A
:1048A40023F0004348F2040293420BD17B685B6817
:1048B400184600F0C3F94FF47A70FFF751FF03462E
:1048C400FB7525E03B684FF0FF321A607B689B68FC
:1048D4003B6115E07B685B681946386900F0EAF9CA
:1048E4004FF47A70FFF73CFF0346FB75FB7D002B0A
:1048F40003D03B683A691A600AE03B6901333B61C3
:104904007B689A687B68DB6813443A699A42E1D30E
:10491400FB681A68074B9B6823F00043DB431A408B
:10492400FB681A60034B00221A70FB7D1846183787
:10493400BD4680BD881C00202820024080B584B07C
:1049440000AF7860254B1B78012B01D1022341E095
:10495400224B01221A70214B00225A604FF47A70C4
:10496400FFF7FEFE0346FB73FB7B002B03D01B4BC0
:1049740000221A702DE07B681B68184A93607B68DC
:104984005B68164A1361164BBB60BB681B6843F037
:104994004072BB681A60114B9B6823F0004348F2D5
:1049A4000402934205D17B685B68184600F046F91F
:1049B4000FE07B68DB68094A93617B689B68074A60
:1049C40053617B689A687B685B681946104600F0FF
:1049D40071F9FB7B18461037BD4680BD881C00204A
:1049E4002820024080B584B000AF78602F4B1B783C
:1049F400012B01D1022354E02C4B01221A702B4BC2
:104A040000225A604FF47A70FFF7AAFE0346FB7344
:104A1400FB7B002B41D17B681B6803F00103002B57
:104A240008D07B6858687B6899687B68DB681A469D
:104A340000F084F97B681B6803F00203002B04D0A8
:104A44007B681B69184600F0C3F97B681B6803F098
:104A54000403002B07D07B685A697B689B6919465D
:104A6400104600F0C9F97B681B6803F00803002BAB
:104A740007D07B68DA697B681B6A1946104600F028
:104A8400C5FA0B4B9B6A0A4A43F4003393624FF412
:104A94007A70FFF765FE0346FB73044B00221A701D
:104AA400FB7B18461037BD4680BD00BF881C002024
:104AB4000020024080B582B000AF78607B68062297
:104AC4001A607B685B68012B0BD07B685B68022BE8
:104AD40007D07B685B68042B03D07B685B68082B7A
:104AE4000FD17B681B6843F001027B681A607B6806
:104AF40058687B6803F108017B680C331A4600F0A0
:104B0400A9FA00F0F9FA02467B681A6100F010FB7A
:104B140002467B689A617B68DB69012B03D07B6862
:104B2400DB69022B0DD17B681B6843F008027B68AC
:104B34001A607B68DA697B6820331946104600F0F6
:104B44000BFB00BF0837BD4680BD000080B483B0B6
:104B540000AF7860074BD3F8C43023F00102054955
:104B64007B681343C1F8C43000BF0C37BD465DF801
:104B7400047B70470020024080B400AF044BD3F89C
:104B8400C43003F001031846BD465DF8047B70474A
:104B94000020024080B584B000AF78601C4B1B78C5
:104BA400012B01D102232FE0194B01221A704FF47B
:104BB4007A70FFF7D5FD0346FB73FB7B002B1FD1F7
:104BC40006F090F80346B3F5806F17D1114B124AE3
:104BD4005A61104B114A5A610E4B1B6823F4004270
:104BE4000C497B6813430B600A4B1B6803F40043B6
:104BF4007A689A4204D00123FB7301E00123FB731A
:104C0400034B00221A70FB7B18461037BD4680BD4B
:104C1400881C002000200240F7F6F5F43D2C1B0A06
:104C240080B400AF044B1B6803F400431846BD4630
:104C34005DF8047B704700BF0020024080B485B05B
:104C440000AF7860194BFB60194B1B6C03F48003B5
:104C5400002B16D07B6803F00103002B05D0FB6802
:104C64001B6843F00402FB681A607B6803F00203CC
:104C7400002B0ED0FB681B6843F40042FB681A60EB
:104C840007E0FB681B6843F4004343F00403FA683D
:104C94001360FB681B6843F48032FB681A6000BF32
:104CA4001437BD465DF8047B704700BF28200240DE
:104CB4000020024080B485B000AF786039601D4B9D
:104CC400FB601D4B1B6C03F48003002B06D1FB68B7
:104CD4001B6823F40062FB681A6011E03B6803F070
:104CE4000103002B06D0FB681B6823F40062FB68F9
:104CF4001A6005E0FB681B6843F40062FB681A60F5
:104D0400FB681B6823F47E7323F002037A68D200E5
:104D1400134343F00202FB681A60FB681B6843F408
:104D24008032FB681A6000BF1437BD465DF8047B0F
:104D3400704700BF282002400020024080B485B0A4
:104D440000AFF860B9607A60FB68012B0BD11F4B90
:104D54009B6D23F07F127B681904BB680B431B49CE
:104D640013438B652BE0FB68022B0BD1174BDB6DD8
:104D740023F07F127B681904BB680B431349134368
:104D8400CB651CE0FB68042B0BD1104B9B6E23F00E
:104D94007F127B681904BB680B430C4913438B6671
:104DA4000DE0FB68082B0AD1084BDB6E23F07F1261
:104DB4007B681904BB680B4304491343CB6600BFEB
:104DC4001437BD465DF8047B704700BF00200240E5
:104DD40080B483B000AF7860064B1B6C23F0FF02F5
:104DE40004497B6813430B6400BF0C37BD465DF870
:104DF400047B70470020024080B485B000AF786027
:104E040039600023FB600023BB607B6803F001036F
:104E1400002B09D03B6803F4E063FA681343FB609A
:104E2400BB6843F4E063BB607B6803F00203002BC0
:104E340009D03B6803F48053FA681343FB60BB68F2
:104E440043F48053BB607B6803F00403002B09D058
:104E54003B6803F40053FA681343FB60BB6843F4F4
:104E64000053BB607B6803F00803002B09D03B6848
:104E740003F48043FA681343FB60BB6843F4804344
:104E8400BB607B6803F01003002B09D03B6803F47C
:104E94008033FA681343FB60BB6843F48033BB6020
:104EA4007B6803F02003002B09D03B6803F4003334
:104EB400FA681343FB60BB6843F40033BB607B6850
:104EC40003F04003002B09D03B6803F48023FA6805
:104ED4001343FB60BB6843F48023BB607B6803F02F
:104EE4008003002B09D03B6803F40023FA681343C2
:104EF400FB60BB6843F40023BB607B6803F48073EE
:104F0400002B09D03B6803F48013FA681343FB6059
:104F1400BB6843F48013BB607B6803F40073002B0D
:104F240009D03B6803F40013FA681343FB60BB68C1
:104F340043F40013BB607B6803F40063002B09D0C7
:104F44003B6803F08073FA681343FB60BB6843F06B
:104F54008073BB607B6803F48053002B09D03B68EB
:104F640003F00073FA681343FB60BB6843F00073FB
:104F7400BB607B6803F40053002B09D03B6803F04B
:104F84008063FA681343FB60BB6843F08063BB60D3
:104F94007B6803F48043002B09D03B6803F0006373
:104FA400FA681343FB60BB6843F00063BB607B6833
:104FB40003F40043002B09D03B6803F08053FA68E4
:104FC4001343FB60BB6843F08053BB607B6803F40E
:104FD4008033002B09D03B6803F00043FA68134385
:104FE400FB60BB6843F00043BB60074B1A6CBB68B3
:104FF400DB431A400449FB6813430B6400BF1437B6
:10500400BD465DF8047B70470020024080B483B045
:1050140000AF786039607B68012B08D10C4B5B6C66
:1050240003F07F020A493B6813434B640AE07B6840
:10503400022B07D1064B9B6C03F07F0204493B68AB
:1050440013438B6400BF0C37BD465DF8047B704787
:105054000020024080B485B000AFF860B9607A6087
:10506400FB68012B0DD1234B9B6D03F07F02BB68C2
:105074001A60204B9B6D1B0C03F07F027B681A6047
:1050840031E0FB68022B0DD11A4BDB6D03F07F027C
:10509400BB681A60174BDB6D1B0C03F07F027B6847
:1050A4001A6020E0FB68042B0DD1124B9B6E03F0B9
:1050B4007F02BB681A600F4B9B6E1B0C03F07F02D0
:1050C4007B681A600FE0FB68082B0CD1094BDB6E80
:1050D40003F07F02BB681A60064BDB6E1B0C03F007
:1050E4007F027B681A6000BF1437BD465DF8047BFD
:1050F400704700BF0020024080B483B000AF0B4B68
:105104001B6CDBB27B607B68AA2B07D07B68552BBA
:1051140004D07B68CC2B01D0BB2300E07B6818460D
:105124000C37BD465DF8047B704700BF0020024089
:1051340080B483B000AF074B1B6C7B607B6823F0AB
:10514400FF037B607B6818460C37BD465DF8047B23
:10515400704700BF0020024080B483B000AF786085
:1051640039607B68012B06D10A4B5B6C23F07F020C
:105174003B681A6008E07B68022B05D1054B9B6CE9
:1051840023F07F023B681A6000BF0C37BD465DF810
:10519400047B70470020024080B487B000AF786081
:1051A400396000237B6158E13B681A6801217B69FF
:1051B40001FA03F31340FB60FB68002B00F04A8103
:1051C4003B685B68012B0BD03B685B68022B07D004
:1051D4003B685B68112B03D03B685B68122B30D1B2
:1051E4007B689B683B617B695B00032202FA03F3E3
:1051F400DB433A6913403B613B68DA687B695B00D7
:1052040002FA03F33A6913433B617B683A699A6093
:105214007B685B683B6101227B6902FA03F3DB4331
:105224003A6913403B613B685B681B0903F0010268
:105234007B6902FA03F33A6913433B617B683A6979
:105244005A607B68DB683B617B695B00032202FA7E
:1052540003F3DB433A6913403B613B689A687B691B
:105264005B0002FA03F33A6913433B617B683A69D2
:10527400DA603B685B68022B03D03B685B68122BE7
:1052840023D17B69DA087B68083253F822303B610A
:105294007B6903F007039B000F2202FA03F3DB434D
:1052A4003A6913403B613B681A697B6903F0070361
:1052B4009B0002FA03F33A6913433B617B69DA0802
:1052C4007B680832396943F822107B681B683B61AC
:1052D4007B695B00032202FA03F3DB433A69134060
:1052E4003B613B685B6803F003027B695B0002FA85
:1052F40003F33A6913433B617B683A691A603B687C
:105304005B6803F08053002B00F0A4805A4A7B6949
:105314009B08183352F823303B617B6903F0030385
:10532400DB000F2202FA03F3DB433A6913403B61CB
:105334007B68524A934225D07B68514A93421FD0DE
:105344007B68504A934219D07B684F4A934213D0EA
:105354007B684E4A93420DD07B684D4A934207D0F6
:105364007B684C4A934201D106230CE007230AE0F0
:10537400052308E0042306E0032304E0022302E0FB
:10538400012300E000237A6902F00302D200934073
:105394003A6913433B6138497B699B0818333A697E
:1053A40041F82320344BD3F880303B61FB68DB4366
:1053B4003A6913403B613B685B6803F48033002B1C
:1053C40003D03A69FB6813433B612B4A3B69C2F83B
:1053D4008030294BD3F884303B61FB68DB433A6966
:1053E40013403B613B685B6803F40033002B03D03C
:1053F4003A69FB6813433B611F4A3B69C2F8843036
:105404001D4B1B683B61FB68DB433A6913403B61FE
:105414003B685B6803F48013002B03D03A69FB6894
:1054240013433B61144A3B691360134B5B683B6154
:10543400FB68DB433A6913403B613B685B6803F4F8
:105444000013002B03D03A69FB6813433B610A4AFB
:105454003B6953607B6901337B613B681A687B69F4
:1054640022FA03F3002B7FF49FAE00BF00BF1C376A
:10547400BD465DF8047B704700F402400000024220
:105484000004024200080242000C024200100242E0
:10549400001402420018024280B487B000AF786062
:1054A400396000237B61C7E001227B6902FA03F3C0
:1054B4003A6813403B613B69002B00F0BA80654AAF
:1054C4007B699B08183352F82330FB607B6903F037
:1054D4000303DB000F2202FA03F3FA681340FB60B4
:1054E4007B685D4A934225D07B685C4A93421FD017
:1054F4007B685B4A934219D07B685A4A934213D023
:105504007B68594A93420DD07B68584A934207D02E
:105514007B68574A934201D106230CE007230AE033
:10552400052308E0042306E0032304E0022302E049
:10553400012300E000237A6902F00302D2009340C1
:10554400FA689A4236D1434BD3F880203B69DB4357
:1055540040491340C1F880303E4BD3F884203B6966
:10556400DB433C491340C1F884303A4B1A683B6929
:10557400DB43384913400B60364B5A683B69DB43C5
:10558400344913404B607B6903F00303DB000F22B3
:1055940002FA03F3FB602F4A7B699B08183352F825
:1055A4002310FB68DA432B487B699B080A401833B5
:1055B40040F823207B681A687B695B00032101FAA9
:1055C40003F31A437B681A607B69DA087B68083244
:1055D40053F822107B6903F007039B000F2202FAA1
:1055E40003F3DB437A69D20819407B68083243F835
:1055F40022107B689A687B695B00032101FA03F33C
:10560400DB431A407B689A607B685A6801217B6996
:1056140001FA03F3DB431A407B685A607B68DA685B
:105624007B695B00032101FA03F3DB431A407B68C7
:10563400DA607B6901337B613A687B6922FA03F3A0
:10564400002B7FF431AF00BF00BF1C37BD465DF8AF
:10565400047B704700F4024000000242000402424E
:1056640000080242000C02420010024200140242EE
:105674000018024280B485B000AF78600B467B808E
:105684007B681A697B881340002B02D00123FB73CB
:1056940001E00023FB73FB7B18461437BD465DF81D
:1056A400047B704780B483B000AF78600B467B8086
:1056B40013467B707B78002B03D07A887B689A61D1
:1056C40002E07A887B689A6200BF0C37BD465DF8B9
:1056D400047B704780B485B000AF78600B467B8054
:1056E4007B685B69FB607A88FB6813401A04FB687B
:1056F400D9437B880B401A437B689A6100BF1437F7
:10570400BD465DF8047B704780B485B000AF786017
:105714000B467B804FF48033FB607A88FB6813432D
:10572400FB60FA687B68DA617A887B68DA61FA6818
:105734007B68DA617B68DB69FB607B68DB6903F4A7
:105744008033002B01D0002300E0012318461437D6
:10575400BD465DF8047B704780B582B000AF034658
:10576400FB800F4BDA68FB881340002B06D00C4AF1
:10577400FB88D360FB88184600F014F8084B1A69BC
:10578400FB881340002B06D0054AFB881361FB8875
:10579400184600F012F800BF0837BD4680BD00BFB0
:1057A40000F4024080B483B000AF0346FB8000BF26
:1057B4000C37BD465DF8047B704780B483B000AFFE
:1057C4000346FB8000BF0C37BD465DF8047B704781
:1057D40080B582B000AF78607B68002B01D10123D3
:1057E40081E07B6893F84130DBB2002B06D17B6803
:1057F400002283F84020786800F0A8F87B6824220F
:1058040083F841207B681B681A687B681B6822F058
:1058140001021A607B685A687B681B6822F0706218
:105824001A617B681B689A687B681B6822F40042D3
:105834009A607B68DB68012B07D17B689A687B6878
:105844001B6842F400429A6006E07B689A687B68B1
:105854001B6842F404429A607B68DB68022B04D123
:105864007B681B684FF400625A607B681B685B6846
:105874007A68126843F0007343F4004353607B6812
:105884001B68DA687B681B6822F40042DA607B6874
:105894001A697B685B6942EA03017B689B691A02A7
:1058A4007B681B680A43DA607B68D9697B681A6A7B
:1058B4007B681B680A431A607B681B681A687B68EC
:1058C4001B6842F001021A607B6800225A647B68FC
:1058D400202283F841207B6800221A637B6800221F
:1058E40083F84220002318460837BD4680BD80B5A2
:1058F40082B000AF78607B68002B01D1012321E0E6
:105904007B68242283F841207B681B681A687B68C3
:105914001B6822F001021A60786800F021F87B68A5
:1059240000225A647B68002283F841207B680022AD
:105934001A637B68002283F842207B68002283F884
:105944004020002318460837BD4680BD80B483B08C
:1059540000AF786000BF0C37BD465DF8047B70472C
:1059640080B483B000AF786000BF0C37BD465DF8EB
:10597400047B704780B588B002AFF8607A601A463D
:105984000B467B8113463B81FB6893F84130DBB2C5
:10599400202B40F0DA80FB6893F84030012B01D1D2
:1059A4000223D3E0FB68012283F84020FCF74AFB82
:1059B40078617B690093192301224FF40041F86850
:1059C40004F073F90346002B01D00123BEE0FB6809
:1059D400212283F84120FB68102283F84220FB68CF
:1059E40000225A64FB687A685A62FB683A895A85CD
:1059F400FB6800225A63FB685B8D9BB2FF2B0ED9B8
:105A0400FB68FF221A85FB681B8DDAB27989514B3A
:105A140000934FF08073F86804F0D6FA6CE0FB68EA
:105A24005B8D9AB2FB681A85FB681B8DDAB27989A3
:105A3400484B00934FF00073F86804F0C5FA5BE03C
:105A44007A69396AF86804F070F90346002B01D0CA
:105A540001237BE0FB685B6A1A78FB681B689A6227
:105A6400FB685B6A5A1CFB685A62FB685B8D9BB2DD
:105A7400013B9AB2FB685A85FB681B8D013B9AB2C5
:105A8400FB681A85FB685B8D9BB2002B34D0FB68E6
:105A94001B8D002B30D17B6900933B6A002280214F
:105AA400F86804F002F90346002B01D001234DE00D
:105AB400FB685B8D9BB2FF2B0ED9FB68FF221A8516
:105AC400FB681B8DDAB27989002300934FF0807351
