:020000040800F2
:1000000000000320F5050008550A0008630A0008EF
:10001000690A00086F0A0008750A0008450600080A
:100020000000000000000000000000007B0A000843
:10003000890A000800000000970A0008A50A0008C5
:100040004506000845060008450600084506000864
:100050004506000845060008450600084506000854
:100060004506000845060008450600084506000844
:100070004506000845060008450600084506000834
:100080004506000845060008450600084506000824
:100090004506000845060008450600084506000814
:1000A0004506000845060008450600084506000804
:1000B00045060008450600084506000845060008F4
:1000C00045060008450600084506000845060008E4
:1000D00045060008450600084506000845060008D4
:1000E00045060008450600084506000845060008C4
:1000F00045060008450600084506000845060008B4
:1001000045060008450600084506000845060008A3
:100110004506000845060008450600084506000893
:100120004506000845060008450600084506000883
:100130004506000845060008450600084506000873
:100140004506000845060008B10A000845060008F3
:100150004506000845060008450600084506000853
:100160004506000845060008450600084506000843
:1001700045060008000000004506000800000000D9
:100180004506000845060008450600084506000823
:100190004506000845060008450600084506000813
:1001A0004506000845060008450600084506000803
:1001B0004506000800000000450600084506000846
:1001C0004506000800000000450600084506000836
:1001D00045060008450600084506000845060008D3
:1001E00045060008450600084506000845060008C3
:0401F000000000000B
:1001F40010B5054C237833B9044B13B1044800E01F
:1002040000BF0123237010BDE82800200000000077
:10021400D4B1010808B5034B1BB10349034800E0FE
:1002240000BF08BD00000000EC280020D4B1010884
:10023400A3F5803A704700BF174B002B08BF134B40
:100244009D46FFF7F5FF00218B460F461348144ADD
:10025400121A1AF03AFA0E4B002B00D098470D4BA5
:10026400002B00D098470020002104000D000D4809
:10027400002802D00C4800E000BF1AF0F5F9200075
:10028400290000F02BFD1AF0DBF900BF0000080084
:10029400000000000000000000000000E82800202A
:1002A400F02900200000000000000000B4B40108A0
:1002B40000000020E8280020E8280020F029002081
:1002C40053B94AB9002908BF00281CBF4FF0FF31B9
:1002D4004FF0FF3000F082B9ADF1080C6DE904CEA7
:1002E40000F006F8DDF804E0DDE9022304B070470D
:1002F4002DE9F04F099D04460F46002B48D18A4250
:10030400944661D9B2FA82F343B1C3F120019F400C
:1003140002FA03FC9C4020FA01F10F434FEA1C410E
:100324001FFA8CFE220CB7FBF1F601FB167706FBD5
:100334000EF042EA0742904208D91CEB020206F191
:10034400FF3702D2904200F237813E46121AA4B21D
:10035400B2FBF1F001FB102200FB0EFE44EA024462
:10036400A64508D91CEB040400F1FF3202D2A645CD
:1003740000F21C81104640EA0640A4EB0E0400265D
:100384001DB1DC400023C5E900433146BDE8F08FD0
:100394008B4209D9002D00F0FD800026C5E900013B
:1003A40030463146BDE8F08FB3FA83F6002E4BD1C8
:1003B4008B42C0F0F280824240F2EF803046002D42
:1003C400E3D0C5E90047E0E702B9FFDEB2FA82F301
:1003D400002B40F09D80891A4FEA124E97B20126F5
:1003E400200CB1FBFEF20EFB121140EA014107FBA7
:1003F40002F088420FD91CEB010102F1FF382CBF37
:100404004FF001094FF00009884203D9B9F1000FF8
:1004140000F0CF804246091AA4B2B1FBFEF00EFBF5
:10042400101100FB07F744EA0144A74208D91CEB6A
:10043400040400F1FF3102D2A74200F2B48008465E
:10044400E41B40EA02409BE7C6F12007B34001FAEF
:1004540006F422FA07FCF940B2404CEA030C20FAF5
:1004640007F34FEA1C491C431FFA8CFE00FA06F3FB
:10047400200CB1FBF9F809FB181140EA014108FB13
:100484000EF088420FD91CEB010108F1FF3A2CBF92
:100494004FF0010B4FF0000B884203D9BBF1000F62
:1004A40000F08D80D046091AA4B2B1FBF9F009FB23
:1004B400101100FB0EFE44EA01418E4507D91CEBE6
:1004C400010100F1FF3401D28E457FD8204640EA75
:1004D4000840A1EB0E01A0FB029841454C46C646DC
:1004E40002D306D14B4504D20138B9EB020468EBC0
:1004F4000C0E002D70D01A1B61EB0E0122FA06F3CC
:1005040001FA07F7F14000261F43C5E900713CE7F3
:1005140002FA03FCC3F1200001FA03F221FA00F607
:100524004FEA1C4E24FA00F11FFA8CF79C40114349
:10053400B6FBFEF00A0C0EFB106642EA064200FB14
:1005440007F696420ED91CEB020200F1FF382CBFCD
:100554004FF001094FF00009964202D9B9F1000F9A
:1005640031D04046921B89B2B2FBFEF60EFB162236
:1005740041EA024106FB07F28A4207D91CEB01015A
:1005840006F1FF3801D28A4223D84646891A46EA40
:10059400004625E72E462846F7E6841A61EB030356
:1005A40001201F460BE76444023849E764440238DB
:1005B400E1E6023A61442EE7023E6244C6E6A8F14F
:1005C400020861446FE702386244CBE702386144B1
:1005D4007DE7023E6144D9E72E46D6E6704700BF68
:1005E400034613F8012B002AFBD1181A013870476F
:1005F400DFF834D000F034FD002103E00B4B5B58EE
:10060400435004310A480B4B42189A42F6D30A4A23
:1006140002E0002342F8043B084B9A42F9D31AF053
:1006240023F800F05BFBFEE700000320B4B40108EC
:1006340000000020E8280020E8280020F0290020FD
:10064400FEE7000080B582B000AF0F4B1B6E0E4A70
:1006540043F0010313660C4B1B6E03F001037B6034
:100664007B68094B9B6D084A43F080539365064BA6
:100674009B6D03F080533B603B6819F06BF800BF3F
:100684000837BD4680BD00BF0010024080B5AEB043
:1006940000AF786007F1A40300221A605A609A60E0
:1006A400DA601A6107F110039422002118461AF047
:1006B4000CF87B681B68274A934246D120233B6190
:1006C4004FF40063BB6507F11003184611F044F9B9
:1006D4000346002B01D000F0B9FC1F4BDB6D1E4A12
:1006E40043F00103D3651C4BDB6D03F00103FB6096
:1006F400FB68194BDB6C184A43F04003D364164B78
:10070400DB6C03F04003BB60BB6818F00BFA4FF4DA
:10071400C073C7F8A4300223C7F8A8300023C7F871
:10072400AC300023C7F8B0300823C7F8B43007F161
:10073400A4031946094819F03FF900220021422078
:1007440001F08BFB422001F0A2FB00BFB837BD468D
:1007540080BD00BF0080004000100240001802422B
:1007640080B582B000AF78607B681B680A4A934208
:100774000DD10A4BDB6D094A23F00103D3654FF415
:10078400C071074819F098FA422001F08EFB00BFAF
:100794000837BD4680BD00BF008000400010024005
:1007A4000018024280B400AF00BFBD465DF8047B70
:1007B400704780B400AF01231846BD465DF8047B42
:1007C400704780B582B000AF7860396019F032FFAD
:1007D400034616221A604FF0FF3318460837BD4609
:1007E40080BD80B582B000AF78604FF0FF3178688B
:1007F400FFF7E7FFFEE780B586B000AFF860B960A9
:100804007A6000237B610AE000E000BF0146BB6818
:100814005A1CBA60CAB21A707B6901337B617A6967
:100824007B689A42F0DB7B6818461837BD4680BD6A
:1008340080B586B000AFF860B9607A6000237B6150
:1008440009E0BB685A1CBA601B78184600E000BF78
:100854007B6901337B617A697B689A42F1DB7B684F
:1008640018461837BD4680BD80B483B000AF7860A9
:100874004FF0FF3318460C37BD465DF8047B7047D4
:1008840080B483B000AF786039603B684FF40052A5
:100894005A60002318460C37BD465DF8047B704748
:1008A40080B483B000AF7860012318460C37BD468E
:1008B4005DF8047B704780B485B000AFF860B96020
:1008C4007A60002318461437BD465DF8047B7047F0
:1008D4000EB480B482B000AF78604FF0FF33184696
:1008E4000837BD465DF8047B03B0704780B582B01D
:1008F40000AF786019F09EFE03460A221A604FF09A
:10090400FF3318460837BD4680BD80B582B000AFBE
:10091400786019F08FFE034602221A604FF0FF330D
:1009240018460837BD4680BD80B483B000AF7860F8
:100934004FF0FF3318460C37BD465DF8047B704713
:1009440080B483B000AF786039603B684FF40052E4
:100954005A60002318460C37BD465DF8047B704787
:1009640080B582B000AF7860396019F063FE034649
:100974001F221A604FF0FF3318460837BD4680BD6A
:1009840080B500AF19F056FE03460B221A604FF0F3
:10099400FF33184680BD80B584B000AFF860B960FD
:1009A4007A6019F047FE03460C221A604FF0FF33B9
:1009B40018461037BD4680BD80B483B000AF786060
:1009C4007B68DB6903F00403042B01D1012300E0FD
:1009D400002318460C37BD465DF8047B704780B48D
:1009E40083B000AF78607B68DB6903F02003202BC1
:1009F40001D1012300E0002318460C37BD465DF801
:100A0400047B704780B483B000AF78607B681B6858
:100A140003F02003202B01D1012300E0002318461A
:100A24000C37BD465DF8047B704780B483B000AFDB
:100A340078607B689B6803F00103012B01D10123DB
:100A440000E0002318460C37BD465DF8047B704770
:100A540080B400AF00BFBD465DF8047B704780B42E
:100A640000AFFEE780B400AFFEE780B400AFFEE75E
:100A740080B400AFFEE780B400AF00BFBD465DF8B0
:100A8400047B704780B400AF00BFBD465DF8047BB3
:100A9400704780B400AF00BFBD465DF8047B70476B
:100AA40080B500AF02F060FF00BF80BD80B500AF2D
:100AB4001048FFF794FF0346002B07D00D48FFF7BB
:100AC400A1FF0346002B01D000F072FA0948FFF79A
:100AD400ACFF0346002B07D00648FFF76DFF034623
:100AE400002B01D000F096FA03480CF049FE00BF39
:100AF40080BD00BF008000401029002080B584B074
:100B040000AF7860114B1B68002B02D10F4B104AC9
:100B14001A600E4B1B68FB600C4B1A687B6813440D
:100B24006A46934207D919F085FD03460C221A60E0
:100B34004FF0FF3306E0054B1A687B681344034A01
:100B44001360FB6818461037BD4680BD0829002095
:100B5400F029002080B483B000AF0346FB7197F9FD
:100B64000730002B12DBFB7903F01F020A4997F9C7
:100B740007305B09012000FA02F2203341F82320F8
:100B8400BFF34F8F00BFBFF36F8F00BF00BF0C37A1
:100B9400BD465DF8047B704700E100E080B483B09B
:100BA40000AF78607B681B6843F020027B681A60A2
:100BB40000BF0C37BD465DF8047B704780B483B03A
:100BC40000AF78607B689B6843F001027B689A60A1
:100BD40000BF0C37BD465DF8047B704780B483B01A
:100BE40000AF78607B685B6ADBB218460C37BD46A1
:100BF4005DF8047B7047000080B5B8B018AF0346B9
:100C04003960FB710023FB670023BB6700237B670C
:100C14000DE02F4A7B6F52F823207B6F10339B002B
:100C240080333B4443F8782C7B6F01337B677B6FC5
:100C3400072BEEDD00233B6710E0264AFB6F52F8DA
:100C440023203B6F04339B0080333B4443F8782CD0
:100C5400FB6F0133FB673B6F01333B673A6F3B68C4
:100C64009A42EADB0023FB660FE01B4ABB6F52F893
:100C74002320FB6E9B0080333B4443F8782CBB6FEE
:100C84000133BB67FB6E0133FB66FA6E3B689A4225
:100C9400EBDBFB6F17933B681693FB791593684660
:100CA40007F118035422194619F002FD07F108034D
:100CB4000FCB19F07CFC0346012B01D1012303E087
:100CC400FB6FC72BB6DD002318468037BD4680BDB9
:100CD40040190020A40C00200800002080B58EB02C
:100CE40000AF02F0A8FD002000F096FA012000F009
:100CF40093FA022000F090FA00F092F800F040F924
:100D040000F0DEF800F0F0F8364B374A1A60374B43
:100D1400374A1A60374B00221A60374B00221A6098
:100D24003648FFF73BFF3548FFF748FF344B1B7845
:100D34009AB24FF47A73334933480BF0DCFD03461F
:100D4400002B01D000F082F9304B1B682F4A43F08E
:100D5400807313602E4B00221A602E4B1B682D4AA1
:100D640043F00103136000233B631AE0284B1B6824
:100D7400FB6204210020FFF73FFFB862244B1B688D
:100D84007B62BB6A012B01D100F060F97A6AFB6ACD
:100D9400D31A3B627A6B3B6A13447B633B6B01332C
:100DA4003B633B6B132BE1DD7B6B1B4AA2FB0323F1
:100DB4001A093B461949184619F0ACFC00237B6319
:100DC4003B461846FFF70CFC03469AB239464FF4EB
:100DD4007A730D480BF08FFD4FF47A7002F024FE05
:100DE400C1E700BFC4290020A0290020C029002099
:100DF400AC290020B8290020BC2900200080004034
:100E0400941900206019002010290020FCED00E056
:100E1400041000E0001000E0CDCCCCCC14B20108EA
:100E240080B598B000AF07F1180348220021184696
:100E340019F04BFC3B1D00221A605A609A60DA607C
:100E44001A61002017F0C8FD0346002B01D000F002
:100E5400FDF80223BB614FF480737B624023BB62C5
:100E640002237B640223BB640423FB6437233B65B6
:100E740007237B650223BB650223FB6507F1180387
:100E8400184609F083F90346002B01D000F0DEF880
:100E94000F237B600323BB600023FB6000233B61C3
:100EA40000237B613B1D0521184609F051FE0346D2
:100EB400002B01D000F0CAF800BF6037BD4680BDEA
:100EC40080B500AF00200FF029FB0346002B01D0B2
:100ED40000F0BCF80FF06AFB0346002B01D000F0D1
:100EE400B5F800BF80BD000080B500AF224B234A97
:100EF4001A60214B4FF4E1325A601F4B00229A6072
:100F04001D4B0022DA601C4B00221A611A4B0C2282
:100F14005A61194B00229A61174B00221A62164B30
:100F240000225A62144B00229A62134B00225A6622
:100F340011480BF00CFB0346002B01D000F086F89F
:100F440000210D4801F0DAFA0346002B01D000F02D
:100F54007DF80021084801F00FFB0346002B01D067
:100F640000F074F8044801F090FA0346002B01D015
:100F740000F06CF800BF80BD102900200080004004
:100F840080B582B000AF094BDB6C084A43F04003E4
:100F9400D364064BDB6C03F040037B607B6817F083
:100FA400C1FD00BF0837BD4680BD00BF0010024030
:100FB40090B583B000AF124B1A68124B1B68591CD2
:100FC40010480160D4181048FFF708FE0346237048
:100FD4000C4B1B68092B0FD90C4B01221A600C4BCC
:100FE4001B687B60064B1B68094A1360044A7B68D4
:100FF4001360044B00221A6000BF0C37BD4690BD3D
:10100400C4290020B829002000800040BC29002009
:10101400C029002080B582B000AF4220FFF79AFDBE
:10102400094BDB697B607B6803F00403002B03D06E
:10103400022000F077F902E0022000F073F900BF0B
:101044000837BD4680BD00BF0080004080B500AFBA
:10105400022000F09BF94FF47A7002F0E5FCF7E708
:1010640080B400AF064BD3F88830054A43F47003CC
:10107400C2F8883000BFBD465DF8047B704700BFEE
:1010840000ED00E080B487B000AF4F4B1B6803F065
:101094000803002B07D14C4BD3F894301B0A03F000
:1010A4000F037B6105E0484B1B681B0903F00F032A
:1010B4007B61464A7B6952F823307B61424B9B68D3
:1010C40003F00C030C2B66D801A252F823F000BFE6
:1010D400091100089B1100089B1100089B110008CE
:1010E400111100089B1100089B1100089B110008B6
:1010F400191100089B1100089B1100089B1100089E
:1011040021110008324A7B69136048E0304B314AB0
:101114001A6044E02E4B2F4A1A6040E02A4BDB68E9
:1011240003F00303FB60284BDB681B0903F00F0388
:101134000133BB60FB68022B03D0FB68032B06D092
:101144000BE0244ABB68B2FBF3F33B610BE0214A9A
:10115400BB68B2FBF3F33B6105E07A69BB68B2FBA1
:10116400F3F33B6100BF184BDB681B0A03F07F02FB
:101174003B6902FB03F33B61134BDB685B0E03F03B
:10118400030301335B007B603A697B68B2FBF3F3D2
:101194000F4A136003E00E4A7B69136000BF0A4BD9
:1011A4009B681B0903F00F030B4AD35C3B60084B9D
:1011B4001A683B6822FA03F3054A136000BF1C3720
:1011C400BD465DF8047B70470010024078B3010807
:1011D400C81900200024F40060B3010880B400AFF3
:1011E400024B1846BD465DF8047B704700030001BE
:1011F40080B400AF024B1846BD465DF8047B7047CF
:1012040028B2010880B400AF024B1846BD465DF811
:10121400047B70473CB2010880B58AB000AF034636
:10122400FB71FB79002B0CD1274BDB6C264A43F076
:101234000403D364244BDB6C03F004033B613B697C
:101244001BE0FB79012B0CD11F4BDB6C1E4A43F0D6
:101254000203D3641C4BDB6C03F00203FB60FB68EA
:101264000BE0194BDB6C184A43F00103D364164BB3
:10127400DB6C03F00103BB60BB68FB79134A32F8F3
:1012840013307B610123BB610123FB6103233B62B8
:10129400FB790F4A52F8233007F11402114618461D
:1012A40018F08AFBFB790A4A52F82300FB79074AB3
:1012B40032F813300022194618F004FE00231846B1
:1012C4002837BD4680BD00BF00100240CC19002065
:1012D400D419002080B588B000AF0346FB71FB79B8
:1012E4000E4A32F81330FB60FB790D4A52F82300A2
:1012F400FB790A4A32F813300022194618F0E2FD4D
:10130400FB79074A52F82330FA681146184618F058
:10131400D3FC002318462037BD4680BDCC190020DD
:10132400D419002080B582B000AF0346FB71FB796D
:10133400074A52F82300FB79064A32F81330012297
:10134400194618F0BFFD002318460837BD4680BD76
:10135400D4190020CC19002080B582B000AF034618
:10136400FB71FB79074A52F82300FB79064A32F8ED
:1013740013300022194618F0A5FD0023184608373B
:10138400BD4680BDD4190020CC19002080B582B0A0
:1013940000AF0346FB71FB79074A52F82320FB791F
:1013A400064931F813301946104618F0A3FD0023FE
:1013B40018460837BD4680BDD4190020CC1900203A
:1013C40080B584B000AF0346FB71FB790B4A52F839
:1013D4002320FB790A4931F813301946104618F0D6
:1013E40059FD0346012B0CBF01230023DBB2FB6034
:1013F400FB6818461037BD4680BD00BFD4190020D5
:10140400CC19002080B58CB000AF03460A46FB71AE
:101414001346BB710023FB6207237B613F4B3B6197
:101424003F4BFB603F4BDB6C3E4A43F00403D36409
:101434003C4BDB6C03F00403BB60BB68FB793A4AAA
:1014440032F81330BB6100233B6202237B62BB7919
:10145400002B0BD10023FB61FB79344A52F8233073
:1014640007F118021146184618F0A6FABB79012BA9
:101474004ED12F4BFB61FB792C4A52F8233007F1F4
:1014840018021146184618F097FAFA7913465B00C9
:1014940013449B00274A1A44FB799B0030333B4496
:1014A40053F8203C194610460FF012FD0346002B5A
:1014B4002BD1FA7913465B0013449B001D4A9818FC
:1014C400FB799B0030333B4453F8243C1A460121FA
:1014D4000FF0D2FC0346002B13D1FB79164AD056E9
:1014E400FB799B0030333B4453F81C3C00221946E3
:1014F40000F0B3FCFB79104AD356184600F0C7FC41
:1015040006E06FF00303FB6202E06FF00303FB628B
:10151400FB6A18463037BD4680BD00BF0D0000068B
:101524001116000800100240E0190020E419002000
:1015340000001110C8290020E819002080B588B0E7
:1015440000AF0346FB71FB790B4A32F81330FB60A2
:10155400FB790A4AD356184600F0A7FCFB79084ADF
:1015640052F82330FA681146184618F0A5FB0023F8
:1015740018462037BD4680BDE0190020E819002038
:10158400E419002080B584B000AF0346FB71FB79F9
:101594000B4A52F82320FB790A4931F813301946D3
:1015A400104618F077FC0346012B0CBF01230023DF
:1015B400DBB2FB60FB6818461037BD4680BD00BF38
:1015C400E4190020E019002080B483B000AF034682
:1015D400FB7100BF0C37BD465DF8047B704700000B
:1015E40080B582B000AF0346FB71FA7913465B0005
:1015F40013449B00044A134418460FF07DFC00BFBB
:101604000837BD4680BD00BFC829002080B500AFA3
:101614000020FFF7D9FF00BF80BD000080B586B071
:1016240000AFF860B960C7E900231B4B1B78012B9E
:1016340001D102232CE0184B01221A70164B002210
:101644005A604FF47A7000F097F90346FB75FB7DFE
:10165400002B19D1104AFB689360104B3B61D7E90A
:101664000023B86800F0D0F94FF47A7000F084F9E0
:101674000346FB753B691A68074B9B6823F00043DC
:10168400DB431A403B691A60034B00221A70FB7D4E
:1016940018461837BD4680BDEC19002028200240AA
:1016A40080B586B000AFF860B960C7E90023184B75
:1016B4001B78012B01D1022326E0154B01221A705D
:1016C400134B00225A604FF47A7000F055F9034628
:1016D400FB75FB7D002B03D00D4B00221A7012E02A
:1016E4000B4AFB6893600A4ABB68D360094B3B61B1
:1016F4003B691B6843F040723B691A60D7E90023D9
:10170400B86800F081F9FB7D18461837BD4680BDE6
:10171400EC1900202820024080B586B000AF0023D9
:101724007B613F4B9B6823F000433B613D4BFB6077
:101734003D4BBB60BB681A6842F2FA0313407B60FE
:101744003B69022B03D1364B5B697B610EE03B693D
:1017540048F20402934203D1314B1B697B6105E0DB
:101764003B69012B02D12E4BDB687B61FB681A6855
:101774003B69DB431A40FB681A607B68002B0ED080
:10178400274B5A687B681343254A5360BB687A68C1
:101794001A60234B00229A60786900F051F8BB6804
:1017A4001B6803F00103002B29D0BB6801221A60D7
:1017B4003B69022B1DD11A4B9B69013B184A93616B
:1017C400174B9B69002B0DD0154B5B690133144AF1
:1017D4005361134B5B69124A12691146184612F0A1
:1017E4002DFF09E00E4B00229A604FF0FF337B611E
:1017F40002E00B4B00229A60786900F017F8084B5E
:101804009B68002B08D1FB681B6823F04072FB68BF
:101814001A60034B00221A7000BF1837BD4680BD02
:10182400EC190020282002402020024080B483B01C
:1018340000AF786000BF0C37BD465DF8047B70478D
:1018440080B483B000AF786000BF0C37BD465DF84C
:10185400047B704780B483B000AF0023FB710B4B53
:101864009B6A002B0BDA094B094A9A60074B094A19
:101874009A60064B9B6A002B01DA0123FB71FB790A
:1018840018460C37BD465DF8047B704700200240C3
:1018940023016745AB89EFCD80B483B000AF01234A
:1018A400FB71094B9B6A084A43F000439362064B61
:1018B4009B6A002B01DA0023FB71FB7918460C3775
:1018C400BD465DF8047B70470020024080B400AF41
:1018D4000C4B9B6A03F08043002B0DD0094B0A4A42
:1018E4001A61084B094A1A61064B9B6A03F080434C
:1018F400002B01D0012300E000231846BD465DF80B
:10190400047B7047002002403B2A19087F6E5D4C1F
:1019140080B400AF094B9B6A084A43F0804393624A
:10192400064B9B6A03F08043002B01D0002300E0A8
:1019340001231846BD465DF8047B70470020024031
:1019440080B400AF054B9B6A044A43F00063936282
:1019540001231846BD465DF8047B70470020024011
:1019640080B400AF034B5B681846BD465DF8047B4A
:10197400704700BFEC19002080B586B000AF7860D6
:1019840002F006F802467B6813447B610BE07B6837
:10199400B3F1FF3F07D001F0FBFF02467B6993429E
:1019A40001D8032326E0154B1B6A03F48033B3F5F7
:1019B400803FECD0124B3B613B691A6842F2FA0358
:1019C4001340FB60FB68002B0AD00E4B5A68FB687F
:1019D40013430C4A53603B69FA681A60012309E017
:1019E4003B691B6803F00103002B02D03B69012211
:1019F4001A60002318461837BD4680BD00200240F7
:101A040020200240EC19002080B489B000AFF860B7
:101A1400C7E90023164BFB61EFF310833B613B697D
:101A2400BB6172B600BFFB691B6843F00102FB692E
:101A34001A60FB683A681A60BFF36F8F00BFD7E97A
:101A440000014FF000024FF000030A000023F96880
:101A5400043113460B60BB697B617B6983F3108897
:101A640000BF00BF2437BD465DF8047B704700BF4C
:101A74002820024080B485B000AF78607B6803F012
:101A84000703FB600C4BDB68BB60BA684FF6FF03CF
:101A94001340BB60FB681A02BB68134343F0BF6387
:101AA40043F40033BB60044ABB68D36000BF1437FF
:101AB400BD465DF8047B704700ED00E080B400AFE4
:101AC400044BDB681B0A03F007031846BD465DF8A8
:101AD400047B704700ED00E080B483B000AF0346A0
:101AE400FB7197F90730002B0BDBFB7903F01F0226
:101AF400074997F907305B09012000FA02F241F81F
:101B0400232000BF0C37BD465DF8047B704700BF3F
:101B140000E100E080B483B000AF0346FB7197F9A5
:101B24000730002B12DBFB7903F01F020A4997F9F7
:101B340007305B09012000FA02F2203341F8232028
:101B4400BFF34F8F00BFBFF36F8F00BF00BF0C37D1
:101B5400BD465DF8047B704700E100E080B483B0CB
:101B640000AF0346FB7197F90730002B0EDB0B4ADD
:101B740097F907305B09403352F82320FB7903F0CF
:101B84001F0322FA03F303F0010300E000231846C5
:101B94000C37BD465DF8047B704700BF00E100E0F0
:101BA40080B483B000AF0346FB7197F90730002B74
:101BB4000CDBFB7903F01F02074997F907305B0937
:101BC400012000FA02F2403341F8232000BF0C3711
:101BD400BD465DF8047B704700E100E080B483B04B
:101BE40000AF0346FB7197F90730002B0CDBFB7940
:101BF40003F01F02074997F907305B09012000FA37
:101C040002F2603341F8232000BF0C37BD465DF873
:101C1400047B704700E100E080B483B000AF03466A
:101C2400FB7197F90730002B0EDB0B4A97F907304D
:101C34005B09803352F82320FB7903F01F0322FA57
:101C440003F303F0010300E0002318460C37BD46FC
:101C54005DF8047B704700BF00E100E080B483B00E
:101C640000AF03463960FB7197F90730002B0ADB9C
:101C74003B68DAB20C4997F907305201D2B20B44EF
:101C840083F800230AE03B68DAB20849FB7903F0E1
:101C94000F03043B5201D2B20B441A7600BF0C3737
:101CA400BD465DF8047B704700E100E000ED00E014
:101CB40080B483B000AF0346FB7197F90730002B63
:101CC40009DB0D4A97F90730134493F80033DBB26C
:101CD4005B09DBB209E0094AFB7903F00F03043B1B
:101CE40013441B7EDBB25B09DBB218460C37BD46DE
:101CF4005DF8047B704700BF00E100E000ED00E008
:101D040080B489B000AFF860B9607A60FB6803F012
:101D14000703FB61FB69C3F10703032B28BF0323FC
:101D2400BB61FB690333062B02D9FB69043B00E06A
:101D340000237B614FF0FF32BB6902FA03F3DA43FD
:101D4400BB681A407B699A404FF0FF317B6901FA06
:101D540003F3D9437B680B40134318462437BD462D
:101D64005DF8047B704780B489B000AFF860B96057
:101D74007A603B60BB6803F00703FB61FB69C3F156
:101D84000703032B28BF0323BB61FB690333062B23
:101D940002D9FB69043B00E000237B61FA687B699C
:101DA400DA404FF0FF31BB6901FA03F3DB431A4019
:101DB4007B681A604FF0FF327B6902FA03F3DA435F
:101DC400FB681A403B681A6000BF2437BD465DF8C3
:101DD400047B704780B400AFBFF34F8F00BF064B46
:101DE400DB6803F4E0620449044B1343CB60BFF3A4
:101DF4004F8F00BF00BFFDE700ED00E00400FA05CF
:101E040080B582B000AF78607B68013BB3F1807F1E
:101E140001D301230FE00A4A7B68013B5360072189
:101E24004FF0FF30FFF71AFF054B00229A60044B76
:101E340007221A60002318460837BD4680BD00BF3C
:101E440010E000E080B582B000AF78607868FFF7FA
:101E540011FE00BF0837BD4680BD80B586B000AF17
:101E64000346B9607A60FB73FFF728FE78617A68ED
:101E7400B9687869FFF744FF024697F90F301146B5
:101E84001846FFF7EBFE00BF1837BD4680BD80B58E
:101E940082B000AF0346FB7197F907301846FFF78D
:101EA4001BFE00BF0837BD4680BD80B582B000AFC1
:101EB4000346FB7197F907301846FFF72BFE00BF66
:101EC4000837BD4680BD80B500AFFFF783FF80B5FE
:101ED40082B000AF78607868FFF792FF0346184637
:101EE4000837BD4680BD80B500AFFFF7E7FD034668
:101EF400184680BD80B584B000AFB9607A603B609D
:101F04000346FB7397F90F301846FFF7D1FE3B6881
:101F14007A68B968FFF727FF00BF1037BD4680BD58
:101F240080B582B000AF0346FB7197F907301846BD
:101F3400FFF736FE00BF0837BD4680BD80B582B0CE
:101F440000AF0346FB7197F907301846FFF706FE0A
:101F5400034618460837BD4680BD80B582B000AF41
:101F64000346FB7197F907301846FFF737FE00BFA9
:101F74000837BD4680BD80B582B000AF0346FB7113
:101F840097F907301846FFF747FE03461846083707
:101F9400BD4680BD80B483B000AF78607B68042BFD
:101FA40006D1094B1B68084A43F00403136005E09B
:101FB400054B1B68044A23F00403136000BF0C376D
:101FC400BD465DF8047B704710E000E080B500AFCB
:101FD40000F002F800BF80BD80B400AF00BFBD4672
:101FE4005DF8047B7047000080B483B000AF786074
:101FF4000B4A7B6843F0010353600A4B5B6A094A4E
:1020040043F480335362BFF35F8F00BFBFF36F8F1E
:1020140000BF00BF0C37BD465DF8047B704700BFAE
:1020240090ED00E000ED00E080B400AFBFF35F8FFF
:1020340000BF054B5B68044A23F00103536000BFF3
:10204400BD465DF8047B704790ED00E080B582B03A
:1020540000AF78607968034800F014F800BF0837CF
:10206400BD4680BD90ED00E080B582B000AF7860E1
:102074007968034800F042F800BF0837BD4680BDC8
:1020840090ED00E080B483B000AF78603960BFF3B6
:102094005F8F00BF3B685B781A467B689A603B6839
:1020A4001B78002B1ED03B685B6823F01F023B6843
:1020B400DB7BDB001A433B685B7B5B0013433A68C2
:1020C400927B1A437B68DA603B689B6823F01F02AB
:1020D4003B681B7B5B0013433A6812781A437B68A6
:1020E4001A6105E07B680022DA607B6800221A61CD
:1020F40000BF0C37BD465DF8047B704780B487B0E1
:1021040000AF78603960BFF35F8F00BF3B681B7816
:10211400032B06D87B6830337B613B681B783B61BB
:1021240006E07B6834337B613B681B78043B3B618E
:102134007B691B68FB603B69DB00FF2202FA03F347
:10214400DB43FA681340FB603B685B781A463B69E3
:10215400DB009A40FB681A437B691A6000BF1C3796
:10216400BD465DF8047B704780B586B000AFF8606B
:10217400B9607A603B60FB68002B01D1012358E011
:10218400FB68D3F88430002B06D1FB68002283F867
:102194008020F868FEF77AFAFB682422C3F88420CA
:1021A400FB681B681A68FB681B6822F001021A604E
:1021B400F8680BF015FF0346012B01D1012338E029
:1021C400FB689B6A002B02D0F8680CF009FAFB68E4
:1021D4001B689A68FB681B6842F480429A60FB683B
:1021E4001B689B6823F40041FB681B68BA680A43B8
:1021F4009A607B685B057B613B681B047A691343C7
:102204007B61FB681B681B6823F07F7323F44033F6
:10221400FA68126879690B431360FB681B681A68D3
:10222400FB681B6842F001021A60F8680CF07AFA45
:10223400034618461837BD4680BD80B483B000AF4E
:10224400786000BF0C37BD465DF8047B704780B4EE
:1022540083B000AF786000BF0C37BD465DF8047BE7
:10226400704780B483B000AF786000BF0C37BD46C0
:102274005DF8047B704780B582B000AF7860396048
:102284007B68002B01D1012321E07B682422C3F861
:1022940084207B681B681A687B681B6822F0010233
:1022A4001A607B681B685B6823F010017B681B68FD
:1022B4003A680A435A607B681B681A687B681B6823
:1022C40042F001021A6078680CF02CFA03461846B2
:1022D4000837BD4680BD80B588B002AFF8603B1DAD
:1022E40083E806000023FB75FB6893F88030012B1C
:1022F40001D1022346E0FB68012283F88020FB68B9
:102304002422C3F88420FB681B681A68FB681B68D6
:1023140022F001021A60FB681B689B6823F44011D9
:102324007A68FB681B680A439A607B68002B05D1B6
:102334003B1D93E80600F86800F0F5FAFB681B689B
:102344001A68FB681B6842F001021A6001F020FB66
:1023540038616FF07E4300933B6900224FF48001A3
:10236400F8680CF02AFA0346002B02D00323FB750D
:1023740003E0FB682022C3F88420FB68002283F872
:102384008020FB7D18461837BD4680BD80B483B0DD
:1023940000AF78607B6893F88030012B01D1022371
:1023A40010E07B68012283F880207B681B681A6830
:1023B4007B681B6842F002021A607B68002283F883
:1023C4008020002318460C37BD465DF8047B704717
:1023D40080B483B000AF78607B6893F88030012BC1
:1023E40001D1022310E07B68012283F880207B68FE
:1023F4001B681A687B681B6822F002021A607B68FB
:10240400002283F88020002318460C37BD465DF86F
:10241400047B704780B584B000AF78607B6893F824
:102424008030012B01D102232BE07B68012283F849
:1024340080207B682422C3F884207B681B681B6887
:10244400FB607B681B681A687B681B6822F00102CA
:102454001A60FB6843F00053FB607B684FF0005246
:102464005A667B681B68FA681A60786800F07EFA1E
:102474007B682022C3F884207B68002283F88020B4
:10248400002318461037BD4680BD80B485B000AF28
:1024940078607B6893F88030012B01D1022327E018
:1024A4007B68012283F880207B682422C3F884207F
:1024B4007B681B681B68FB607B681B681A687B6809
:1024C4001B6822F001021A60FB6823F00053FB60D2
:1024D4007B6800225A667B681B68FA681A607B680E
:1024E4002022C3F884207B68002283F88020002304
:1024F40018461437BD465DF8047B704780B584B038
:1025040000AF786039607B6893F88030012B01D18B
:1025140002232DE07B68012283F880207B6824223B
:10252400C3F884207B681B681B68FB607B681B689E
:102534001A687B681B6822F001021A607B681B68BA
:102544009B6823F060417B681B683A680A439A6081
:10255400786800F00BFA7B681B68FA681A607B687D
:102564002022C3F884207B68002283F88020002383
:1025740018461037BD4680BD80B584B000AF786082
:1025840039607B6893F88030012B01D102232DE060
:102594007B68012283F880207B682422C3F884208E
:1025A4007B681B681B68FB607B681B681A687B6818
:1025B4001B6822F001021A607B681B689B6823F089
:1025C40060617B681B683A680A439A60786800F027
:1025D400CDF97B681B68FA681A607B682022C3F80F
:1025E40084207B68002283F880200023184610375B
:1025F400BD4680BD80B588B000AFF860B9603B606F
:102604001346FB80FB68D3F88830202B40F0F88019
:10261400BB68002B02D0FB88002B01D10123F0E022
:10262400FB6893F88030012B01D10223E9E0FB68B9
:10263400012283F88020FB680022C3F88C20FB6809
:102644002222C3F88820FB680122DA6601F0A0F98F
:102654007861FB68FA88A3F85C20FB68FA88A3F821
:102664005E20FB689B68B3F5805F0ED1FB681B6935
:10267400002B05D1FB6840F2FF12A3F860202DE087
:10268400FB68FF22A3F8602028E0FB689B68002B0E
:102694000DD1FB681B69002B04D1FB68FF22A3F852
:1026A40060201BE0FB687F22A3F8602016E0FB6833
:1026B4009B68B3F1805F0DD1FB681B69002B04D1CB
:1026C400FB687F22A3F8602008E0FB683F22A3F8A0
:1026D400602003E0FB680022A3F86020FB68B3F8E5
:1026E40060307B82FB689B68B3F5805F08D1FB6830
:1026F4001B69002B04D10023FB61BB68BB6103E0B1
:10270400BB68FB610023BB61FB68002283F8802067
:102714003B6800221A805CE0FB681B68DB6903F0FD
:102724001003102B0DD1FB681B6810221A623B6842
:102734001B88002B05D0FB682022C3F888200023C7
:102744005FE0FB681B68DB6903F02003202B2BD1BF
:10275400FB69002B0CD1FB681B685B6A9AB27B8A0D
:1027640013409AB2BB691A80BB690233BB610CE0A7
:10277400FB681B685B6ADAB27B8ADBB21340DAB2AD
:10278400FB691A70FB690133FB613B681B880133E9
:102794009AB23B681A80FB68B3F85E309BB2013B87
:1027A4009AB2FB68A3F85E20BB6AB3F1FF3F10D076
:1027B40001F0EEF802467B69D31ABA6A9A4202D350
:1027C400BB6A002B05D1FB682022C3F888200323B1
:1027D40017E0FB68B3F85E309BB2002B9CD1FB681A
:1027E400B3F85C20FB68B3F85E309BB2D31A9AB29C
:1027F4003B681A80FB682022C3F88820002300E08D
:10280400022318462037BD4680BD80B586B000AF90
:10281400F860B9601346FB80FB68D3F88830202B3E
:1028240035D1BB68002B02D0FB88002B01D10123DA
:102834002EE0FB6893F88030012B01D1022327E0BE
:10284400FB68012283F88020FB680122DA66FB889A
:102854001A46B968F8680CF031F80346FB75FB7D3D
:10286400002B12D1FB68DB6E012B0CD1FB681B68BB
:1028740010221A62FB681B681A68FB681B6842F026
:1028840010021A6001E00123FB75FB7D00E00223C6
:1028940018461837BD4680BD80B586B000AFF860D5
:1028A400B9601346FB80FB68D3F88830202B35D100
:1028B400BB68002B02D0FB88002B01D101232EE042
:1028C400FB6893F88030012B01D1022327E0FB68D9
:1028D400012283F88020FB680122DA66FB881A460D
:1028E400B968F8680CF0A8F80346FB75FB7D002B6B
:1028F40012D1FB68DB6E012B0CD1FB681B68102224
:102904001A62FB681B681A68FB681B6842F01002B5
:102914001A6001E00123FB75FB7D00E002231846E9
:102924001837BD4680BD80B485B000AFF8603B1D4C
:1029340083E80600FB681B685B6823F010023B8990
:102944001946FB681B680A435A60FB681B685B688E
:1029540023F07F41BB7A1A06FB681B680A435A605E
:1029640000BF1437BD465DF8047B704780B485B062
:1029740000AF78607B685B6E002B08D17B68012216
:10298400A3F86A207B680122A3F8682031E00823B9
:10299400FB730823BB737B681B689B685B0EDBB20D
:1029A40003F007037B737B681B689B685B0FDBB2D8
:1029B40003F007033B73BB7B3A7B11498A5C02FB40
:1029C40003F33A7B0F498A5C93FBF2F39AB27B6878
:1029D400A3F86A20FB7B7A7B09498A5C02FB03F338
:1029E4007A7B08498A5C93FBF2F39AB27B68A3F87A
:1029F400682000BF1437BD465DF8047B704700BFF4
:102A0400B8B30108C0B3010880B483B000AF7860E4
:102A1400054B9A6A04497B6813438B6200BF0C37E9
:102A2400BD465DF8047B70470010024080B483B05B
:102A340000AF7860064B9A6A7B68DB430449134015
:102A44008B6200BF0C37BD465DF8047B704700BF46
:102A54000010024080B584B000AF78600023FB739F
:102A64007B68094A934208D14FF48050FFF7CCFFAA
:102A74004FF48050FFF7DAFF01E00123FB73FB7B87
:102A840018461037BD4680BD0030024080B584B082
:102A940000AF78607B68002B01D101238DE07B6857
:102AA4001B681A46474B9A420FD87B681B681A4624
:102AB400454B1344454AA2FB03231B099A007B6838
:102AC400DA647B68424A9A640EE07B681B681A46A3
:102AD400404B13443D4AA2FB03231B099A007B6825
:102AE400DA647B683C4A9A647B68022283F8252076
:102AF4007B681B681B68FB60FB6823F4FF3323F4CB
:102B0400F873FB607B689A687B68DB681A437B68B0
:102B14001B691A437B685B691A437B689B691A4388
:102B24007B68DB691A437B681B6A1343FA681343A7
:102B3400FB607B681B68FA681A60786800F0AAFD7D
:102B44007B689B68B3F5804F02D17B6800225A6092
:102B54007B685A687B681B6DD2B21A607B685B6DB8
:102B64007A68926D5A607B685B68002B10D07B6832
:102B74005B68042B0CD8786800F0CAFD7B68DB6DB9
:102B840000221A607B681B6E7A68526E5A6008E0F5
:102B94007B680022DA657B6800221A667B68002263
:102BA4005A667B6800225A647B68012283F82520D8
:102BB4007B68002283F82420002318461037BD4682
:102BC40080BD00BF07040240F8FFFDBFCDCCCCCCD4
:102BD40000000240F8FBFDBF0004024080B582B053
:102BE40000AF78607B68002B01D1012381E07B6812
:102BF4001B681A687B681B6822F001021A607B68F4
:102C04001B681A463D4B9A420FD87B681B681A46CC
:102C14003B4B13443B4AA2FB03231B099A007B68EA
:102C2400DA647B68384A9A640EE07B681B681A464B
:102C3400364B1344334AA2FB03231B099A007B68D7
:102C4400DA647B68324A9A647B681B6800221A60E3
:102C54007B68DB6C03F01C027B689B6C012101FA2E
:102C640002F25A60786800F015FD7B681B6D002243
:102C74001A607B685B6D7A68926D5A607B685B68EA
:102C8400002B0FD07B685B68042B0BD8786800F0AE
:102C94003FFD7B68DB6D00221A607B681B6E7A68DF
:102CA400526E5A607B680022DA657B6800221A66DD
:102CB4007B6800225A667B680022DA627B68002205
:102CC4001A637B6800225A637B6800229A637B68DC
:102CD4000022DA637B6800221A647B6800225A644B
:102CE4007B68002283F825207B68002283F8242057
:102CF400002318460837BD4680BD00BF07040240C4
:102D0400F8FFFDBFCDCCCCCC00000240F8FBFDBFEA
:102D14000004024080B586B000AFF860B9607A6004
:102D24003B600023FB75FB6893F82430012B01D131
:102D340002232EE0FB68012283F82420FB6893F829
:102D44002530DBB2012B1DD1FB68022283F825203C
:102D5400FB6800225A64FB681B681A68FB681B68DE
:102D640022F001021A603B687A68B968F86800F0DA
:102D740052FCFB681B681A68FB681B6842F001027E
:102D84001A6005E0FB68002283F824200223FB7507
:102D9400FB7D18461837BD4680BD80B586B000AFB0
:102DA400F860B9607A603B600023FB75FB6893F8B8
:102DB4002430012B01D1022366E0FB68012283F851
:102DC4002420FB6893F82530DBB2012B55D1FB6836
:102DD400022283F82520FB6800225A64FB681B68E2
:102DE4001A68FB681B6822F001021A603B687A6863
:102DF400B968F86800F00FFCFB681B6B002B08D067
:102E0400FB681B681A68FB681B6842F00E021A60B4
:102E14000FE0FB681B681A68FB681B6822F0040259
:102E24001A60FB681B681A68FB681B6842F00A0298
:102E34001A60FB681B6D1B6803F48033002B07D0FA
:102E4400FB681B6D1A68FB681B6D42F480721A6084
:102E5400FB68DB6D002B07D0FB68DB6D1A68FB6831
:102E6400DB6D42F480721A60FB681B681A68FB68A9
:102E74001B6842F001021A6005E0FB68002283F837
:102E840024200223FB75FB7D18461837BD4680BD00
:102E940080B485B000AF78600023FB737B6893F83F
:102EA4002530DBB2022B08D07B6804225A647B688D
:102EB400002283F82420012340E07B681B681A6801
:102EC4007B681B6822F00E021A607B681B6D1A680F
:102ED4007B681B6D22F480721A607B681B681A6819
:102EE4007B681B6822F001021A607B68DB6C03F0CC
:102EF4001C027B689B6C012101FA02F25A607B6818
:102F04005B6D7A68926D5A607B68DB6D002B0CD028
:102F14007B68DB6D1A687B68DB6D22F480721A6053
:102F24007B681B6E7A68526E5A607B68012283F854
:102F340025207B68002283F82420FB7B1846143765
:102F4400BD465DF8047B704780B584B000AF7860FF
:102F54000023FB737B6893F82530DBB2022B05D08A
:102F64007B6804225A640123FB7347E07B681B6877
:102F74001A687B681B6822F00E021A607B681B6863
:102F84001A687B681B6822F001021A607B681B6D5B
:102F94001A687B681B6D22F480721A607B68DB6C94
:102FA40003F01C027B689B6C012101FA02F25A6057
:102FB4007B685B6D7A68926D5A607B68DB6D002B71
:102FC4000CD07B68DB6D1A687B68DB6D22F4807241
:102FD4001A607B681B6E7A68526E5A607B680122A5
:102FE40083F825207B68002283F824207B681B6CEF
:102FF400002B03D07B681B6C78689847FB7B1846D2
:103004001037BD4680BD80B586B000AFF8600B4672
:103014007A60FB72FB6893F82530DBB2022B08D090
:10302400FB6804225A64FB68002283F824200123ED
:10303400BEE0FB681B681B6803F02003002B05D06F
:10304400FB684FF480725A640123B1E0FB7A002BD1
:1030540008D1FB68DB6C03F01C03022202FA03F3C1
:103064007B6107E0FB68DB6C03F01C03042202FABB
:1030740003F37B6100F08CFC38613FE0FB689B6CE0
:103084001A68FB68DB6C03F01C03082101FA03F3E4
:103094001340002B16D0FB68DB6C03F01C02FB68AA
:1030A4009B6C012101FA02F25A60FB6801225A6406
:1030B400FB68012283F82520FB68002283F8242082
:1030C400012375E07B68B3F1FF3F17D000F060FC8B
:1030D40002463B69D31A7A689A4202D37B68002B72
:1030E4000CD1FB6820225A64FB68012283F8252056
:1030F400FB68002283F82420012359E0FB689B6CC1
:103104001A687B691340002BB8D0FB68DB6D002B79
:103114001AD0FB681B6E1A68FB685B6E1340002BA9
:1031240012D0FB68DB6D1A68FB68DB6D42F48072B9
:103134001A60FB681B6EFA68526E5A60FB685B6C1F
:1031440043F48062FB685A64FB685B6D1A68FB6831
:103154009B6D1340002B0AD0FB685B6DFA68926D7F
:103164005A60FB685B6C43F40072FB685A64FB7A38
:10317400002B12D1FB68DB6C03F01C02FB689B6C18
:10318400022101FA02F25A60FB68002283F824202B
:10319400FB68012283F8252009E0FB68DB6C03F05F
:1031A4001C02FB689B6C042101FA02F25A600023A2
:1031B40018461837BD4680BD80B584B000AF78602E
:1031C4007B689B6C1B68FB607B681B681B68BB602F
:1031D4007B68DB6C03F01C0304229A40FB681340F9
:1031E400002B53D0BB6803F00403002B4ED07B6844
:1031F4001B681B6803F40043002B24D07B68DB6C42
:1032040003F01C027B689B6C042101FA02F25A60F1
:103214007B681B681B6803F48033002B09D17B682F
:103224001B6B002B00F0C0807B681B6B7868984791
:10323400BAE07B689B6B002B00F0B6807B689B6BCD
:1032440078689847B0E07B681B681B6803F020032C
:10325400002B07D17B681B681A687B681B6822F007
:1032640004021A607B68DB6C03F01C027B689B6CB5
:10327400042101FA02F25A607B681B6B002B00F0F8
:1032840093807B681B6B786898478DE07B68DB6C68
:1032940003F01C0302229A40FB681340002B4ED01B
:1032A400BB6803F00203002B49D07B681B681B68D2
:1032B40003F40043002B18D07B681B681B6803F4DD
:1032C4008033002B08D17B685B6B002B6ED07B684E
:1032D4005B6B7868984769E07B68DB6A002B65D094
:1032E4007B68DB6A7868984760E07B681B681B68CA
:1032F40003F02003002B0BD17B681B681A687B68E2
:103304001B6822F00A021A607B68012283F82520D8
:103314007B68DB6C03F01C027B689B6C022101FA66
:1033240002F25A607B68002283F824207B68DB6AFF
:10333400002B3BD07B68DB6A7868984736E07B6873
:10334400DB6C03F01C0308229A40FB681340002B3B
:103354002ED0BB6803F00803002B29D07B681B68C0
:103364001A687B681B6822F00E021A607B68DB6CAB
:1033740003F01C027B689B6C012101FA02F25A6083
:103384007B6801225A647B68012283F825207B68CC
:10339400002283F824207B68DB6B002B08D07B6839
:1033A400DB6B7868984702E000BF00E000BF00BF15
:1033B40000BF1037BD4680BD80B487B000AFF86051
:1033C4000B467A60FB720023FB75FB6893F824308C
:1033D400012B01D102233DE0FB68012283F8242064
:1033E400FB6893F82530DBB2012B2CD1FB7A052B3B
:1033F40026D801A252F823F0153400081D34000821
:10340400253400082D340008353400083D34000804
:10341400FB687A68DA6218E0FB687A681A6314E079
:10342400FB687A685A6310E0FB687A689A630CE078
:10343400FB687A68DA6308E0FB687A681A6404E077
:103444000123FB7501E00123FB75FB68002283F86F
:103454002420FB7D18461C37BD465DF8047B70476D
:1034640080B485B000AF78600B46FB700023FB731B
:103474007B6893F82430012B01D1022353E07B684D
:10348400012283F824207B6893F82530DBB2012BDA
:1034940042D1FB78062B3CD801A252F823F000BF9E
:1034A400C1340008C9340008D1340008D9340008F4
:1034B400E1340008E9340008F13400087B68002294
:1034C400DA622BE07B6800221A6327E07B68002223
:1034D4005A6323E07B6800229A631FE07B68002222
:1034E400DA631BE07B6800221A6417E07B68002221
:1034F400DA627B6800221A637B6800225A637B6865
:1035040000229A637B680022DA637B6800221A64D3
:1035140004E00123FB7301E00123FB737B680022B9
:1035240083F82420FB7B18461437BD465DF8047BE2
:10353400704700BF80B483B000AF78607B6893F8B5
:103544002530DBB218460C37BD465DF8047B704766
:1035540080B483B000AF78607B685B6C18460C372E
:10356400BD465DF8047B704780B485B000AF7860D9
:1035740039600023FB727B68002B03D10123FB72AB
:10358400FB7A1BE07B681B681B68FB603B6803F0ED
:103594001003002B0DD03B6803F48013002B04D0E0
:1035A400FB6843F48013FB6003E0FB6823F480139F
:1035B400FB607B681B68FA681A60FB7A184614374C
:1035C400BD465DF8047B704780B485B000AF786079
:1035D40039607B68002B02D03B68002B01D10123AA
:1035E40013E07B681B681B6803F48013FB60FB68B3
:1035F40003F48013002B01D1102301E04FF01013CA
:10360400BB603B68BA681A60002318461437BD468D
:103614005DF8047B704780B485B000AFF860B96092
:103624007A603B60FB685B6DFA68926D5A60FB6878
:10363400DB6D002B04D0FB681B6EFA68526E5A6077
:10364400FB68DB6C03F01C02FB689B6C012101FA34
:1036540002F25A60FB681B683A685A60FB689B6810
:10366400102B08D1FB681B687A689A60FB681B689A
:10367400BA68DA6007E0FB681B68BA689A60FB689E
:103684001B687A68DA6000BF1437BD465DF8047BB6
:103694007047000080B485B000AF78607B681B6819
:1036A4001A46174B9A420AD87B68DB6C9B089B002E
:1036B40003F1804303F502337A68136507E07B68FE
:1036C400DB6C9B089A000F4B13447A6813657B6884
:1036D4001B68DBB2083B0C4AA2FB03231B09FB60FB
:1036E4007B680A4A5A65FB6803F01F0301229A406B
:1036F4007B689A6500BF1437BD465DF8047B70474C
:103704000704024020080240CDCCCCCC8008024003
:1037140080B485B000AF78607B685B68DBB2FB6027
:10372400FA680B4B13449B001A467B68DA657B6886
:10373400084A1A66FB68013B03F0030301229A401E
:103744007B685A6600BF1437BD465DF8047B70473A
:103754003F8200104009024080B485B000AF786019
:1037640039607B689A00184B1344FB603B681B6804
:103774005A0D3B689B685B421340DBB2BB603B68FD
:103784005B685A093B689B685B421B041A400F4BF9
:103794001340BA681343BB603B689B685A023B689A
:1037A400DB681A433B681B691343BA681343BB6065
:1037B400BB6843F40042FB681A6000BF1437BD467F
:1037C4005DF8047B704700BF200403400000FF073E
:1037D40080B483B000AF7860054B9A6B04497B6872
:1037E40013438B6300BF0C37BD465DF8047B704701
:1037F4000010024080B483B000AF7860064B9A6B2F
:103804007B68DB43044913408B6300BF0C37BD4620
:103814005DF8047B704700BF0010024080B500AF24
:103824004FF08070FFF7D4FF4FF08070FFF7E2FF96
:103834000023184680BD80B582B000AF0023FB7121
:103844000420FEF7FFFAFDF71DFC002000F050F8FD
:103854000346002B02D00123FB7101E0FCF7F2FECA
:10386400FB7918460837BD4680BD000080B500AF1F
:10387400174B4FF0FF329A63154B4FF0FF32DA6368
:10388400134B00229A63124B0022DA63104B4FF061
:10389400FF321A640E4B00221A640D4B4FF0FF32B4
:1038A4009A620B4B00229A62094B4FF0FF32DA62A4
:1038B400074B0022DA62064B4FF0FF321A63044BC7
:1038C40000221A6300F00DF80023184680BD00BFE3
:1038D4000010024080B400AF00BFBD465DF8047B19
:1038E400704780B400AF00BFBD465DF8047B7047ED
:1038F40080B584B000AF78600023FB73174B1B784E
:10390400002B23D0164B1A68144B1B7819464FF41E
:103914007A73B3FBF1F3B2FBF3F31846FEF7D7FA6D
:103924000346002B0FD17B68072B09D80022796846
:103934004FF0FF30FEF791FA0A4A7B68136007E004
:103944000123FB7304E00123FB7301E00123FB73F8
:10395400FB7B18461037BD4680BD00BF0C1A002003
:10396400C8190020081A002080B400AF064B1B7849
:103974001A46064B1B681344044A136000BFBD4635
:103984005DF8047B704700BF0C1A0020D429002086
:1039940080B400AF034B1B681846BD465DF8047B3A
:1039A400704700BFD429002080B400AF034B1B68CC
:1039B4001846BD465DF8047B704700BF081A002016
:1039C40080B584B000AF0346FB710023FB730E4B3C
:1039D4001B78FA799A4212D00B4B1B78BB730A4AB4
:1039E400FB791370094B1B681846FFF781FF0346E8
:1039F400FB73FB7B002B02D0034ABB7B1370FB7B66
:103A040018461037BD4680BD0C1A0020081A002045
:103A140080B400AF034B1B781846BD465DF8047BA9
:103A2400704700BF0C1A002080B584B000AF7860E6
:103A3400FFF7AEFFB8607B68FB60FB68B3F1FF3F44
:103A440005D00A4B1B781A46FB681344FB6000BF81
:103A5400FFF79EFF0246BB68D31AFA689A42F7D86A
:103A640000BF00BF1037BD4680BD00BF0C1A002048
:103A740080B400AF054B1B68044A23F002031360B3
:103A840000BFBD465DF8047B704700BF10E000E056
:103A940080B400AF054B1B68044A43F00203136073
:103AA40000BFBD465DF8047B704700BF10E000E036
:103AB40080B400AF024B1846BD465DF8047B7047E6
:103AC4000004000180B400AF044B1B681B0C9BB2C4
:103AD4001846BD465DF8047B704700BF004004E013
:103AE40080B400AF044B1B68C3F30B031846BD46F8
:103AF4005DF8047B704700BF004004E080B400AF71
:103B0400034B1B681846BD465DF8047B704700BF35
:103B14009005FA0B80B400AF034B1B681846BD46F2
:103B24005DF8047B704700BF9405FA0B80B400AFC6
:103B3400034B1B681846BD465DF8047B704700BF05
:103B44009805FA0B80B400AF054B5B68044A43F058
:103B54000203536000BFBD465DF8047B704700BF9D
:103B6400004004E080B400AF054B5B68044A23F0D6
:103B74000203536000BFBD465DF8047B704700BF7D
:103B8400004004E080B400AF054B5B68044A43F096
:103B94000403536000BFBD465DF8047B704700BF5B
:103BA400004004E080B400AF054B5B68044A23F096
:103BB4000403536000BFBD465DF8047B704700BF3B
:103BC400004004E080B400AF084BCA22DA61074B1E
:103BD4005322DA61054B9B69044A43F00103936164
:103BE40000BFBD465DF8047B704700BF0000014084
:103BF40080B584B000AF78600E4B1B6823F00402DC
:103C04000C497B6813430B607B68002B05D10A4B7E
:103C14001B7803F03F03FB6004E0084B1B7803F0C0
:103C24003F03FB60F86800F01FF800BF1037BD4683
:103C340080BD00BF000101407905FA0B3005FA0B85
:103C440080B483B000AF7860064B1B6823F0020297
:103C540004497B6813430B6000BF0C37BD465DF815
:103C6400047B70470001014080B483B000AF7860EA
:103C7400064B5B6823F03F0204497B6813434B60A7
:103C840000BF0C37BD465DF8047B7047000101405E
:103C940080B582B000AF0F4B1B680E4A43F001039E
:103CA4001360FFF775FE786008E0FFF771FE0246C7
:103CB4007B68D31A0A2B01D9032306E0054B1B6842
:103CC40003F00803002BF0D0002318460837BD4644
:103CD40080BD00BF0001014080B400AF054B1B68EC
:103CE400044A23F00103136000BFBD465DF8047B62
:103CF400704700BF0001014080B400AF064B5B6811
:103D040023F44073044A43F48073536000BFBD46F8
:103D14005DF8047B704700BF0000014080B400AF31
:103D2400054B5B68044A23F48073536000BFBD46AF
:103D34005DF8047B704700BF0000014080B400AF11
:103D4400064B5B6823F44073044A43F400735360E6
:103D540000BFBD465DF8047B704700BF0000014012
:103D640080B400AF054B5B68044A23F400735360CE
:103D740000BFBD465DF8047B704700BF00000140F2
:103D840080B483B000AF7860044A7B689BB2D36090
:103D940000BF0C37BD465DF8047B7047000001404E
:103DA40080B485B000AF78607B68002B01D101231B
:103DB40006E0064BDB68FB607B68FA681A60002348
:103DC40018461437BD465DF8047B70470000014077
:103DD40080B483B000AF78607B681B6803F0010394
:103DE400012B01D1012300E0002318460C37BD4606
:103DF4005DF8047B704780B483B000AF78603960AD
:103E04007B68DB6A23F00F033A6892B21A437B683B
:103E1400DA6200BF0C37BD465DF8047B704780B49E
:103E240083B000AF786039607B685B6823F44052EC
:103E34003B681A437B685A6000BF0C37BD465DF887
:103E4400047B704780B483B000AF786039607B68CE
:103E54009B6823F440723B681A437B689A6000BFF6
:103E64000C37BD465DF8047B7047000080B487B012
:103E740000AFF860B9607A603B607B680B2B3CD87C
:103E84003B6A002B39D03B68B3F5004F22D17B68E5
:103E9400DBB21A461C4B53F82230BA68B2FBF3F378
:103EA4005A003B6A5B081A443B6AB2FBF3F39BB2C9
:103EB4007B617A694FF6F07313403B617B695B0861
:103EC4009BB203F007033A6913433B61FB683A6909
:103ED400DA6012E07B68DBB21A460B4B53F82230EF
:103EE400BA68B2FBF3F23B6A5B081A443B6AB2FB62
:103EF400F3F39BB21A46FB68DA6000BF1C37BD4679
:103F04005DF8047B704700BFC8B3010880B483B078
:103F140000AF7860054B9A6B04497B6813438B634D
:103F240000BF0C37BD465DF8047B704700100240AB
:103F340080B483B000AF7860064B9A6B7B68DB4338
:103F4400044913408B6300BF0C37BD465DF8047B06
:103F5400704700BF0010024080B483B000AF7860A7
:103F6400054B1A6C04497B6813430B6400BF0C3780
:103F7400BD465DF8047B70470010024080B483B0F6
:103F840000AF7860064B1A6C7B68DB43044913402E
:103F94000B6400BF0C37BD465DF8047B704700BF5F
:103FA4000010024080B584B000AF78600023FB733A
:103FB4007B68234A934208D14FF48040FFF7CCFF3B
:103FC4004FF48040FFF7DAFF35E07B681D4A9342E7
:103FD40008D14FF40030FFF799FF4FF40030FFF79A
:103FE400A7FF28E07B68184A934208D14FF4802049
:103FF400FFF78CFF4FF48020FFF79AFF1BE07B68EC
:10400400124A934208D14FF40020FFF77FFF4FF488
:104014000020FFF78DFF0EE07B680D4A934208D124
:104024004FF48010FFF772FF4FF48010FFF780FF0A
:1040340001E00123FB73FB7B18461037BD4680BDAE
:10404400003801400044004000480040004C00405B
:104054000050004080B586B002AF7860396001231B
:10406400FB730023BB607868FFF7B2FE0346002BA6
:1040740065D17B681A68344B13403A6891683A6892
:10408400126911433A68526911433A68D2690A4382
:104094001A437B681A603B68DB6819467868FFF747
:1040A400BEFE3B689B6919467868FFF7CBFE7B68C8
:1040B400264A934204D1032012F044F9B86023E065
:1040C4007B68234A934204D10C2012F03BF9B86078
:1040D4001AE07B681F4A934204D1302012F032F96F
:1040E400B86011E07B681C4A934204D1C02012F0EE
:1040F4000BFAB86008E07B68184A934204D14FF485
:10410400407012F001FAB860BB68002B11D03B6814
:104114005B68002B0DD00023FB733B681A683B6877
:10412400D9693B685B6800930B46B9687868FFF708
:104134009DFE3B681B6819467868FFF75CFEFB7BB5
:1041440018461037BD4680BDF369FFEF00380140C3
:104154000044004000480040004C00400050004033
:1041640080B483B000AF78607B6800221A607B68FB
:104174004FF416525A607B6800229A607B680022D2
:10418400DA607B6800221A617B680C225A617B68C2
:1041940000229A617B680022DA6100BF0C37BD46B9
:1041A4005DF8047B704780B584B000AF78603960F7
:1041B4000023FB737868FFF70BFE0346002B12D134
:1041C4007B685B6823F470623B6819683B685B68D2
:1041D40019433B689B6819433B68DB680B431A43EC
:1041E4007B685A6001E00123FB73FB7B18461037A0
:1041F400BD4680BD80B483B000AF78607B68002288
:104204001A607B6800225A607B6800229A607B688F
:104214000022DA6000BF0C37BD465DF8047B7047AE
:1042240080B483B000AF786039607A683B68B2FBD1
:10423400F3F3074A013B5360054B00229A60044B99
:1042440005221A6000BF0C37BD465DF8047B704739
:1042540010E000E080B400AF054B1B68044A43F44F
:104264008023136000BFBD465DF8047B704700BF28
:104274000010024080B400AF054B1B68044A23F4CD
:104284008023136000BFBD465DF8047B704700BF08
:104294000010024080B400AF054B1B68044A43F48D
:1042A4008033136000BFBD465DF8047B704700BFD8
:1042B4000010024080B400AF074B1B6803F40033C6
:1042C400B3F5003F01D1012300E000231846BD46A9
:1042D4005DF8047B704700BF0010024080B400AF5B
:1042E400054B1B68044A43F48073136000BFBD464A
:1042F4005DF8047B704700BF0010024080B400AF3B
:10430400074B1B6803F48063B3F5806F01D101236D
:1043140000E000231846BD465DF8047B704700BFEB
:104324000010024080B400AF054B1B68044A43F000
:104334000103136000BFBD465DF8047B704700BFF6
:104344000010024080B400AF064B1B6803F0020368
:10435400022B01D1012300E000231846BD465DF87D
:10436400047B70470010024080B400AF064B1B680A
:1043740003F00803082B01D1012300E000231846B1
:10438400BD465DF8047B70470010024080B400AF66
:10439400044B1B6803F0F0031846BD465DF8047B2C
:1043A400704700BF0010024080B400AF044BD3F844
:1043B400943003F470631846BD465DF8047B70477F
:1043C4000010024080B483B000AF7860064B9B6855
:1043D40023F0030204497B6813438B6000BF0C374E
:1043E400BD465DF8047B70470010024080B400AF06
:1043F400044B9B6803F00C031846BD465DF8047B30
:10440400704700BF0010024080B483B000AF7860F2
:10441400064B9B6823F0F00204497B6813438B60CE
:1044240000BF0C37BD465DF8047B704700100240A6
:1044340080B483B000AF7860064B9B6823F4E062DD
:1044440004497B6813438B6000BF0C37BD465DF89D
:10445400047B70470010024080B483B000AF7860E2
:10446400064B9B6823F4605204497B6813438B60BA
:1044740000BF0C37BD465DF8047B70470010024056
:1044840080B400AF054B1B68044A43F0807313608B
:1044940000BFBD465DF8047B704700BF00100240BA
:1044A40080B400AF074B1B6803F00073B3F1007FC7
:1044B40001D1012300E000231846BD465DF8047BCA
:1044C400704700BF0010024080B485B000AFF860B0
:1044D400B9607A603B600A4BDA680A4B1340F968AA
:1044E400BA6811437A68120211433A680A430449CC
:1044F4001343CB6000BF1437BD465DF8047B70479F
:10450400001002400C80FFF980B400AF054BDB685B
:10451400044A43F08073D36000BFBD465DF8047B5A
:10452400704700BF0010024080B400AF074B1B6807
:1045340003F00063B3F1006F01D1012300E0002315
:104544001846BD465DF8047B704700BF001002406A
:1045540080B400AF074B1B6803F00053B3F1005F56
:1045640001D1012300E000231846BD465DF8047B19
:10457400704700BF0010024080B483B000AF786081
:10458400064B1B6823F00F0204497B6813430B603E
:1045940000BF0C37BD465DF8047B70470020024025
:1045A40080B400AF044B1B6803F00F031846BD46EC
:1045B4005DF8047B704700BF0020024080B400AF68
:1045C400044B1B6803F4C0631846BD465DF8047BC6
:1045D400704700BF0070004080B582B000AF7860C3
:1045E4004FF47A717868FFF71BFE00BF0837BD46A9
:1045F40080BD000080B485B000AF7860104B1B68AC
:10460400BB607B68FB60BB68FB68B3F1FF3F0CD009
:10461400FB680133FB6008E0094B1B6803F480333B
:10462400002B02D0FB68013BFB60FB68002BF3D13D
:1046340000BF00BF1437BD465DF8047B704700BF60
:1046440010E000E080B483B000AF7860044A7B6877
:10465400136000BF0C37BD465DF8047B704700BF94
:10466400C8190020B0B59AB000AF7860012387F86C
:104674005E30644B07F140041D460FCD0FC495E82E
:10468400030084E80300604B07F130040FCB84E897
:104694000F005E4A07F1240307CA83E807005C4B56
:1046A40007F10C041D460FCD0FC495E8030084E800
:1046B40003007B68002B00F09F80FFF77FFF034619
:1046C400002B27D17B68534A934278D8002387F87C
:1046D4005F301AE097F85F309B0068333B4453F82F
:1046E400283C7A689A420BD897F85F309B0068336D
:1046F4003B4453F85C3C3B66002387F85E305EE045
:1047040097F85F30013387F85F3097F85F30052BF7
:10471400E0D954E0FFF752FF0346B3F5007F27D1F9
:104724007B683D4A93424AD8002387F85F301AE0F9
:1047340097F85F309B0068333B4453F8383C7A6801
:104744009A420BD897F85F309B0068333B4453F888
:104754005C3C3B66002387F85E3030E097F85F30BE
:10476400013387F85F3097F85F30032BE0D926E0F8
:104774007B682A4A934222D8002387F85F301AE0E4
:1047840097F85F309B0068333B4453F8443C7A68A5
:104794009A420BD897F85F309B0068333B4453F838
:1047A4005C3C3B66002387F85E3008E097F85F3096
:1047B400013387F85F3097F85F30022BE0D997F820
:1047C4005E30002B18D1386EFFF7D6FE02237B66CD
:1047D400FFF7E6FEB8657B6E013B7B66BA6D3B6E08
:1047E4009A4202D07B6E002BF2D1BA6D3B6E9A4294
:1047F40002D0012387F85E3097F85E301846683798
:10480400BD46B0BD44B201085CB201086CB20108F7
:1048140078B2010880778E0600B4C40480BA8C0193
:1048240080B586B000AF786039600023FB75002343
:10483400FB6000F096F90346002B40F09980FFF7E7
:1048440093FD0346002B23D0FFF7A0FD38613B699D
:10485400502B1AD03B69502B28D83B69402B14D0DD
:104864003B69402B22D83B69302B0ED03B69302B5F
:104874001CD83B69202B08D03B69202B16D83B69F8
:10488400002B02D03B69102B10D10123FB7510E0E3
:10489400FFF78AFD38613B69B3F5806F03D03B694C
:1048A400B3F5A06F04D10123FB7502E000BF00E063
:1048B40000BFFB7D012B5DD0FFF756FD0346002BA7
:1048C40007D13B691B0A03F00F032D4A52F823302A
:1048D40006E03B691B0903F00F03294A52F8233011
:1048E4007968184600F018F9B860FFF72BFD034605
:1048F400012B07D0FFF716FD00BFFFF723FD03468A
:10490400012BFAD17B6819687B685A687B689B68BD
:104914000120FFF7D9FDBB681A4A934208D93B68C6
:104924001B68002B04D13B6880221A608023FB6043
:104934003968B86800F034F90346FB75FB7D002B39
:1049440018D1FB68002B15D0B868FFF78BFE03461F
:10495400FB75FB7D002B0DD13B6800221A603B6880
:104964001B681846FFF750FDB868FFF76BFE01E0BF
:104974000123FB75FB7D18461837BD4680BD00BF7B
:1049840078B3010800B4C40480B586B000AF786081
:10499400396000233B6100F0E4F80346002B47D163
:1049A4007968274800F0B8F8F860FFF7A7FC0346D9
:1049B400012B07D0FFF792FC00BFFFF79FFC0346D3
:1049C400012BFAD17B6819687B685A687B689B68FD
:1049D4000220FFF779FDFB681A4A934208D93B6825
:1049E4001B68002B04D13B6880221A6080233B6142
:1049F4003968F86800F0D4F80346FB75FB7D002B9A
:104A040018D13B69002B15D0F868FFF72BFE03463D
:104A1400FB75FB7D002B0DD13B6800221A603B68BF
:104A24001B681846FFF7F0FCF868FFF70BFE01E07F
:104A34000123FB75FB7D18461837BD4680BD00BFBA
:104A44000024F40000B4C40480B588B000AFF8605A
:104A5400B9607A603B600023BB6100F082F80346D2
:104A6400002B4FD17968F86800F056F87861FFF7A9
:104A740021FC0346012B0FD0BB68012B02D1FFF7A9
:104A8400E9FB01E0FFF7F6FBFFF704FC00BFFFF7CB
:104A940011FC0346012BFAD17B6819687B685A68BC
:104AA4007B689B680320FFF70FFD7B69194A9342DB
:104AB40008D93B681B68002B04D13B6880221A602C
:104AC4008023BB613968786900F06AF80346FB7794
:104AD400FB7F002B18D1BB69002B15D07869FFF739
:104AE400C1FD0346FB77FB7F002B0DD13B68002201
:104AF4001A603B681B681846FFF786FC7869FFF765
:104B0400A1FD01E00123FB77FB7F18462037BD465A
:104B140080BD00BF00B4C40480B485B000AF786029
:104B240039603B681B681B0901337A68B2FBF3F3F5
:104B3400FB603B685B6803F07F02FB6802FB03F3E6
:104B4400FB603B689B685B0E01335B00FA68B2FB59
:104B5400F3F3FB60FB6818461437BD465DF8047B2D
:104B6400704780B582B000AF0023FB71FFF798FC5B
:104B74000346002B01D00123FB71FFF7D5FC03464C
:104B8400002B01D00123FB71FFF7E2FC0346002B4D
:104B940001D00123FB71FB7918460837BD4680BD5F
:104BA40080B584B000AF786039600023FB733B6844
:104BB4001B681B0903F00F03244AD35C1A467B6865
:104BC400D340BB60224B1B68BA689A4204D9B868C8
:104BD400FFF748FD0346FB73FB7B002B21D1FFF756
:104BE4004FFCFFF791FC00BFFFF75AFC0346012B73
:104BF400FAD13B681B681846FFF706FC0320FFF751
:104C0400E1FB00BFFFF7F2FB03460C2BFAD13B6834
:104C14005B681846FFF70CFC3B689B681846FFF777
:104C24001BFC0B4B1B68BA689A4204D2B868FFF7A6
:104C340019FD0346FB73FB7B002B02D1B868FFF719
:104C440001FDFB7B18461037BD4680BD60B30108EB
:104C5400C819002080B400AF084B9B6B074A43F08F
:104C640080539363054B9B6B044A23F080539363F7
:104C740000BFBD465DF8047B704700BF00100240D2
:104C840080B400AF054B1B68044A43F4807313607F
:104C940000BFBD465DF8047B704700BF0070004054
:104CA40080B400AF054B1B68044A23F4807313607F
:104CB40000BFBD465DF8047B704700BF0070004034
:104CC40080B483B000AF78602F4B5B6823F00E0292
:104CD4007B681B682C4913434B602C4BD3F88430FE
:104CE4002A4A23F48033C2F88430284BD3F8803026
:104CF400264A23F48033C2F88030244B5B68234A6D
:104D040023F480335360214B1B68204A23F48033FF
:104D140013607B685B6803F48033002B07D01B4B64
:104D2400D3F88030194A43F48033C2F880307B686A
:104D34005B6803F40033002B07D0144BD3F88430A2
:104D4400124A43F48033C2F884307B685B6803F012
:104D54000103002B05D00D4B1B680C4A43F4803330
:104D640013607B685B6803F00203002B05D0074BDC
:104D74005B68064A43F480335360002318460C37BB
:104D8400BD465DF8047B70470070004000F40240AB
:104D940080B400AF054B5B68044A43F001035360E1
:104DA40000BFBD465DF8047B704700BF0070004043
:104DB40080B400AF054B5B68044A23F001035360E1
:104DC40000BFBD465DF8047B704700BF0070004023
:104DD40080B483B000AF78600C4BDA687B6803F072
:104DE4001F03DB431A407B685B0908491343CB600C
:104DF400064B9A687B6803F01F03044913438B60D6
:104E040000BF0C37BD465DF8047B7047007000405E
:104E140080B483B000AF7860074B9A687B6803F076
:104E24001F03DB43044913408B6000BF0C37BD46AE
:104E34005DF8047B704700BF0070004080B582B00D
:104E440000AF78600B46FB707B68002B0CD1134BD2
:104E54005B6903F40073B3F5007F0ED114F0F0FA2C
:104E64000346002B09D016E00C4B5B6903F4007376
:104E7400B3F5007F01D014F0D3FA094B1B69084A3B
:104E840023F004031361FB78012B01D130BF02E04E
:104E940040BF20BF20BF0837BD4680BD0070004022
:104EA40000ED00E080B582B000AF78600B46FB7087
:104EB4007B68B3F5804F04D1FB78184614F02AFBC5
:104EC40003E0FB78184614F0FBFA00BF0837BD4630
:104ED40080BD000080B400AF094B1B6823F00703BA
:104EE400074A43F003031360064B1B69054A43F06A
:104EF4000403136130BF00BFBD465DF8047B7047F7
:104F04000070004000ED00E080B400AF054B1B6969
:104F1400044A43F00203136100BFBD465DF8047BFD
:104F2400704700BF00ED00E080B400AF054B1B6983
:104F3400044A23F00203136100BFBD465DF8047BFD
:104F4400704700BF00ED00E080B400AF054B1B6963
:104F5400044A43F01003136100BFBD465DF8047BAF
:104F6400704700BF00ED00E080B400AF054B1B6943
:104F7400044A23F01003136100BFBD465DF8047BAF
:104F8400704700BF00ED00E080B400AF00BFBD4635
:104F94005DF8047B7047000080B483B000AF786094
:104FA40039603A6840F20223134040F202229342ED
:104FB40008D10E4BD3F880300C4A43F00103C2F8F9
:104FC40080300CE03B6803F40073002B07D0074BE0
:104FD400D3F88030054A23F00103C2F8803000BFC3
:104FE4000C37BD465DF8047B704700BF007000407D
:104FF40080B485B000AF786039603B68002B01D184
:10500400012311E00B4BD3F8803003F00103002B94
:1050140003D040F20223FB6002E04FF40073FB6014
:105024003B68FA681A60002318461437BD465DF8D9
:10503400047B70470070004080B582B000AF786098
:105044007B68002B01D1012381E07B6893F8413018
:10505400DBB2002B06D17B68002283F840207868FD
:1050640000F0A8F87B68242283F841207B681B6841
:105074001A687B681B6822F001021A607B685A6810
:105084007B681B6822F070621A617B681B689A68EF
:105094007B681B6822F400429A607B68DB68012B02
:1050A40007D17B689A687B681B6842F400429A6067
:1050B40006E07B689A687B681B6842F404429A6045
:1050C4007B68DB68022B04D17B681B684FF40062A9
:1050D4005A607B681B685B687A68126843F00073E7
:1050E40043F4004353607B681B68DA687B681B6881
:1050F40022F40042DA607B681A697B685B6942EAE1
:1051040003017B689B691A027B681B680A43DA60A7
:105114007B68D9697B681A6A7B681B680A431A60D2
:105124007B681B681A687B681B6842F001021A607E
:105134007B6800225A647B68202283F841207B68C4
:1051440000221A637B68002283F842200023184659
:105154000837BD4680BD80B582B000AF78607B68FB
:10516400002B01D1012321E07B68242283F8412014
:105174007B681B681A687B681B6822F001021A604E
:10518400786800F021F87B6800225A647B6800226A
:1051940083F841207B6800221A637B68002283F82D
:1051A40042207B68002283F84020002318460837F9
:1051B400BD4680BD80B483B000AF786000BF0C37BB
:1051C400BD465DF8047B704780B483B000AF78605F
:1051D40000BF0C37BD465DF8047B704780B588B0CE
:1051E40002AFF8607A601A460B467B8113463B8116
:1051F400FB6893F84130DBB2202B40F0DA80FB6887
:1052040093F84030012B01D10223D3E0FB68012243
:1052140083F84020FEF7BCFB78617B690093192377
:1052240001224FF40041F86804F073F90346002B9F
:1052340001D00123BEE0FB68212283F84120FB68F2
:10524400102283F84220FB6800225A64FB687A68C3
:105254005A62FB683A895A85FB6800225A63FB68E4
:105264005B8D9BB2FF2B0ED9FB68FF221A85FB686E
:105274001B8DDAB27989514B00934FF08073F86833
:1052840004F0D6FA6CE0FB685B8D9AB2FB681A8571
:10529400FB681B8DDAB27989484B00934FF0007399
:1052A400F86804F0C5FA5BE07A69396AF86804F0D2
:1052B40070F90346002B01D001237BE0FB685B6A95
:1052C4001A78FB681B689A62FB685B6A5A1CFB6865
:1052D4005A62FB685B8D9BB2013B9AB2FB685A85AC
:1052E400FB681B8D013B9AB2FB681A85FB685B8DDA
:1052F4009BB2002B34D0FB681B8D002B30D17B6913
:1053040000933B6A00228021F86804F002F9034606
:10531400002B01D001234DE0FB685B8D9BB2FF2B7A
:105324000ED9FB68FF221A85FB681B8DDAB27989D6
:10533400002300934FF08073F86804F079FA0FE0CB
:10534400FB685B8D9AB2FB681A85FB681B8DDAB229
:105354007989002300934FF00073F86804F068FA29
:10536400FB685B8D9BB2002B9ED17A69396AF86821
:1053740004F04FF90346002B01D001231AE0FB6827
:105384001B682022DA61FB681B685968FB681A688D
:105394000B4B0B405360FB68202283F84120FB68D1
:1053A400002283F84220FB68002283F84020002377
:1053B40000E0022318461837BD4680BD0020008057
:1053C40000E800FE80B588B002AFF8607A601A4643
:1053D4000B467B8113463B81FB6893F84130DBB27B
:1053E400202B40F0DB80FB6893F84030012B01D187
:1053F4000223D4E0FB68012283F84020FEF7C8FAB8
:1054040078617B690093192301224FF40041F86805
:1054140004F07FF80346002B01D00123BFE0FB68B2
:10542400222283F84120FB68102283F84220FB6883
:1054340000225A64FB687A685A62FB683A895A8582
:10544400FB6800225A63FB685B8D9BB2FF2B0ED96D
:10545400FB68FF221A85FB681B8DDAB27989524BEF
:1054640000934FF08073F86804F0E2F96DE0FB6894
:105474005B8D9AB2FB681A85FB681B8DDAB2798959
:10548400494B00934FF00073F86804F0D1F95CE0E5
:105494007A69396AF86804F0F9F80346002B01D0F8
:1054A40001237CE0FB681B685A6AFB685B6AD2B222
:1054B4001A70FB685B6A5A1CFB685A62FB681B8D96
:1054C400013B9AB2FB681A85FB685B8D9BB2013B7A
:1054D4009AB2FB685A85FB685B8D9BB2002B34D073
:1054E400FB681B8D002B30D17B6900933B6A002243
:1054F4008021F86804F00DF80346002B01D0012345
:105504004DE0FB685B8D9BB2FF2B0ED9FB68FF223D
:105514001A85FB681B8DDAB27989002300934FF05A
:105524008073F86804F084F90FE0FB685B8D9AB22D
:10553400FB681A85FB681B8DDAB279890023009316
:105544004FF00073F86804F073F9FB685B8D9BB24D
:10555400002B9DD17A69396AF86804F05AF8034639
:10556400002B01D001231AE0FB681B682022DA61BA
:10557400FB681B685968FB681A680C4B0B40536046
:10558400FB68202283F84120FB68002283F8422034
:10559400FB68002283F84020002300E00223184621
:1055A4001837BD4680BD00BF0024008000E800FE1F
:1055B40080B588B002AFF860B9603B601346FB80E9
:1055C400FB6893F84130DBB2202B40F0F580BB68D8
:1055D400002B02D0FB88002B05D1FB684FF400722E
:1055E4005A640123E9E0FB6893F84030012B01D1B0
:1055F4000223E2E0FB68012283F84020FEF7C8F9A9
:105604007861FB68212283F84120FB68202283F81B
:105614004220FB6800225A64FB68BA685A62FB683D
:10562400FA885A85FB6800225A63FB681B685A682B
:10563400FB681B6822F400425A607B6900933B6854
:1056440000220821F86803F064FF0346002B09D008
:10565400FB681B685A68FB681B6842F400425A6086
:105664000123AAE0FB681B680822DA61FB68DB6897
:10567400022B18D17B6900933B6800220821F8684B
:1056840003F047FF0346002B09D0FB681B685A68E8
:10569400FB681B6842F400425A6001238DE0FB68FA
:1056A4001B680822DA617B6900933B6800224FF48F
:1056B4008031F86803F02DFF0346002B2DD0FB68E2
:1056C4001B685A68FB681B6842F400425A60012355
:1056D40073E07A693968F86803F05BFF0346002BCE
:1056E40009D0FB681B685A68FB681B6842F40042D7
:1056F4005A60012361E0FB685B6A1A78FB681B68E7
:105704009A62FB685B6A5A1CFB685A62FB685B8D91
:105714009BB2013B9AB2FB685A85FB685B8D9BB2D6
:10572400002BD6D17A693968F86803F072FF034612
:10573400002B11D0FB681B685A68FB681B6842F495
:1057440000425A60FB685B6C042B03D1FB680022A7
:105754005A6401E0012330E0FB681B682022DA610F
:105764007B6900933B6801224FF40041F86803F021
:10577400D0FE0346002B09D0FB681B685A68FB68FF
:105784001B6842F400425A60012316E0FB681B6860
:105794005A68FB681B6842F400425A60FB68202286
:1057A40083F84120FB68002283F84220FB68002232
:1057B40083F84020002300E0022318461837BD4632
:1057C40080BD80B588B002AFF860B9603B60134615
:1057D400FB80FB6893F84130DBB2202B40F0EB8078
:1057E400BB68002B02D0FB88002B05D1FB684FF46B
:1057F40000725A640123DFE0FB6893F84030012B08
:1058040001D10223D8E0FB68012283F84020FEF78F
:10581400BFF87861FB68222283F84120FB682022CC
:1058240083F84220FB6800225A64FB68BA685A6213
:10583400FB68FA885A85FB6800225A63FB681B6878
:105844005A68FB681B6822F400425A607B69009323
:105854003B6800220821F86803F05BFE0346002B36
:1058640009D0FB681B685A68FB681B6842F4004255
:105874005A600123A0E0FB681B680822DA617B6997
:1058840000933B6801224FF48031F86803F041FE35
:105894000346002B48D0FB681B685A68FB681B68EA
:1058A40042F400425A60012386E07A693968F86854
:1058B40003F0ECFE0346002B23D0FB681B685A68F8
:1058C400FB681B6842F400425A60FB681B689B69D2
:1058D40003F00403042B12D1FB681B685A6AFB68AB
:1058E4005B6AD2B21A70FB685B6A5A1CFB685A6224
:1058F400FB685B8D9BB2013B9AB2FB685A8501231E
:105904005AE0FB681B685A6AFB685B6AD2B21A7079
:10591400FB685B6A5A1CFB685A62FB685B8D9BB22E
:10592400013B9AB2FB685A85FB685B8D9BB2002BE6
:10593400BBD17A693968F86803F06BFE0346002B23
:1059440009D0FB681B685A68FB681B6842F4004274
:105954005A60012330E0FB681B682022DA617B690E
:1059640000933B6801224FF40041F86803F0D1FD35
:105974000346002B09D0FB681B685A68FB681B6848
:1059840042F400425A60012316E0FB681B685A681F
:10599400FB681B6842F400425A60FB68202283F8CB
:1059A4004120FB68002283F84220FB68002283F830
:1059B4004020002300E0022318461837BD4680BD6E
:1059C40080B588B002AFF8607A601A460B467B81D6
:1059D40013463B81FB6893F84130DBB2202B53D153
:1059E400FB681B689B6903F40043B3F5004F01D1C6
:1059F40002234AE0FB6893F84030012B01D10223D3
:105A040043E0FB68012283F84020FB68212283F8ED
:105A14004120FB68102283F84220FB6800225A646C
:105A2400FB687A685A62FB683A895A85FB68194AA6
:105A3400DA62FB68184A5A63FB685B8D9BB2FF2BE2
:105A440006D9FB68FF221A854FF080737B6107E05B
:105A5400FB685B8D9AB2FB681A854FF000737B611B
:105A6400FB681B8DDAB279890C4B00937B69F8686B
:105A740003F0DEFEFB68002283F840200121F86871
:105A840003F004FF002300E0022318461837BD4644
:105A940080BD00BF0000FFFFE380000800200080FD
:105AA40080B588B002AFF8607A601A460B467B81F5
:105AB40013463B81FB6893F84130DBB2202B53D172
:105AC400FB681B689B6903F40043B3F5004F01D1E5
