:020000040800F2
:10000000000002206D0500087D090008890900082C
:100010008F090008950900089B09000800000000EE
:10002000000000000000000000000000A10900081E
:10003000AD09000800000000B9090008C509000862
:10004000BD050008BD050008BD050008BD05000888
:10005000BD050008BD050008BD050008BD05000878
:10006000BD050008BD050008BD050008BD05000868
:10007000BD050008BD050008BD050008BD05000858
:10008000BD050008BD050008BD050008BD05000848
:10009000BD050008BD050008BD050008BD05000838
:1000A000BD050008BD050008BD050008BD05000828
:1000B000BD050008BD050008BD050008BD05000818
:1000C000BD050008BD050008BD050008BD05000808
:1000D000BD050008BD050008BD050008D1090008E0
:1000E000BD050008BD050008BD050008BD050008E8
:1000F000BD050008BD050008BD050008BD050008D8
:10010000BD050008BD050008BD050008BD050008C7
:10011000BD050008BD050008BD050008BD050008B7
:10012000BD050008BD050008BD050008BD050008A7
:10013000BD050008BD050008BD050008BD05000897
:10014000BD050008BD050008BD050008BD05000887
:10015000BD050008BD050008BD050008BD05000877
:10016000BD050008BD050008BD050008BD05000867
:10017000BD050008BD050008BD0500080000000021
:04018000BD050008B1
:1001840010B5054C237833B9044B13B10448AFF3CD
:1001940000800123237010BDDC1C0020000000003F
:1001A4009899000808B5034B1BB103490348AFF302
:1001B400008008BD00000000E01C002098990008A1
:1001C400A3F5803A704700BF174B002B08BF134BB1
:1001D4009D46FFF7F5FF00218B460F461348144A4E
:1001E400121A08F059FE0E4B002B00D098470D4B05
:1001F400002B00D098470020002104000D000D487A
:10020400002802D00C48AFF3008008F013FE200051
:10021400290001F089F808F0F9FD00BF000008008A
:10022400000000000000000000000000DC1C0020B2
:10023400BC1D00200000000000000000189B000806
:1002440000000020DC1C0020DC1C0020BC1D002061
:1002540053B94AB9002908BF00281CBF4FF0FF3129
:100264004FF0FF3000F076B9ADF1080C6DE904CE23
:1002740000F006F8DDF804E0DDE9022304B070477D
:100284002DE9F047089E0D4604468846002B4DD1C3
:100294008A42944668D9B2FA82F252B101FA02F360
:1002A400C2F1200120FA01F10CFA02FC41EA030830
:1002B40094404FEA1C41B8FBF1F71FFA8CFE01FB96
:1002C400178807FB0EF0230C43EA084398420AD927
:1002D4001CEB030307F1FF3580F01E81984240F2C6
:1002E4001B81023F63441B1AB3FBF1F001FB103383
:1002F40000FB0EFEA4B244EA0344A6450AD91CEB53
:10030400040400F1FF3380F00981A64540F2068120
:10031400644402380021A4EB0E0440EA07401EB1F5
:100324000023D440C6E90043BDE8F0878B4208D9D6
:10033400002E00F0EE800021C6E900050846BDE865
:10034400F087B3FA83F100294AD1AB4202D3824247
:1003540000F2FC80841A65EB030301209846002E0A
:10036400E2D0C6E90048DFE702B9FFDEB2FA82F262
:10037400002A40F09180A1EB0C0001214FEA1C47B8
:100384001FFA8CFEB0FBF7F307FB1300250C45EABC
:1003940000450EFB03F0A84208D91CEB050503F148
:1003A400FF3802D2A84200F2CE8043462D1AB5FB94
:1003B400F7F007FB10550EFB00FEA4B244EA054417
:1003C400A64508D91CEB040400F1FF3502D2A6456A
:1003D40000F2B6802846A4EB0E0440EA03409EE7F0
:1003E400C1F120078B4022FA07FC4CEA030C25FAE2
:1003F40007FA4FEA1C49BAFBF9F820FA07F309FB9C
:1004040018AA8D401FFA8CFE1D4300FA01F308FB65
:100414000EF02C0C44EA0A44A04202FA01F20BD971
:100424001CEB040408F1FF3A80F08880A04240F2FB
:100434008580A8F102086444241AB4FBF9F009FB8E
:10044400104400FB0EFEADB245EA0444A64508D9AB
:100454001CEB040400F1FF356CD2A6456AD90238BE
:10046400644440EA0840A0FB0295A4EB0E04AC42AD
:10047400C846AE4656D353D0002E69D0B3EB08021B
:1004840064EB0E0422FA01F304FA07F71F43CC408D
:10049400C6E90074002147E70CFA02FCC2F120010E
:1004A40025FA01F34FEA1C4720FA01F195400D4368
:1004B400B3FBF7F107FB11331FFA8CFE280C40EA5B
:1004C400034001FB0EF3834204FA02F408D91CEB47
:1004D400000001F1FF382FD283422DD90239604444
:1004E400C01AB0FBF7F307FB1300ADB245EA0045B1
:1004F40003FB0EF0A84208D91CEB050503F1FF38F5
:1005040016D2A84214D9023B6544281A43EA014191
:1005140038E73146304607E72F46E4E61846F9E661
:100524004B45A9D2B9EB020865EB0C0E0138A3E7E1
:100534004346EAE7284694E74146D1E7D0467BE7BD
:100544006444023847E7023B65442FE7084606E760
:100554003146E9E6704700BF034613F8012B002A31
:10056400FBD1181A01387047DFF834D0002103E0BA
:100574000C4B5B58435004310B480C4B42189A42C5
:10058400F6D30B4A02E0002342F8043B094B9A429B
:10059400F9D300F025FD08F04DFC00F0C5FE7047CE
:1005A40000000220189B000800000020DC1C002032
:1005B400DC1C0020BC1D0020FEE7000080B489B0D4
:1005C40000AF78602C4B1A687B6813442B4A136085
:1005D4000023FB610023BB6128E0284B1A68BB6938
:1005E400C3F107039B0022FA03F3DBB203F00F030A
:1005F400FB74FB7C2249BA6912010A4413441B7838
:10060400FB740023FB60FB7CFA681343FB60BB694B
:10061400C3F107039B00FA6802FA03F3FB60FA696B
:10062400FB681343FB61BB690133BB61BB69072BE7
:10063400D3DD144AFB691360124B1B68DB027B6138
:10064400104B1B685A0D7B6913430E4A13600D4B04
:100654001A680D4B1B6853400C4A1360064B1B6809
:10066400094A1360094B1B68034A136000BF24370F
:10067400BD4680BC704700BF001D0020F81C002050
:10068400209A0008081D0020041D0020FC1C0020E6
:100694002DE9B04F8AB000AFC7E902017A60BB68A8
:1006A4002C4A1360D7E902014FF000024FF0000317
:1006B4000A000023284B1A6000237B6213E0002306
:1006C4003B620AE03B6A9B007A6813441B68184645
:1006D400FFF774FF3B6A01333B623B6A072BF1DD92
:1006E4007B6A01337B627B6A022BE8DD0723FB61B3
:1006F4000AE0FB699B007A6813441B681846FFF7FD
:100704005DFFFB69013BFB61FB69002BF1DA114BD7
:100714001B6800229A469346C7E904ABD7E9040153
:100724004FF000024FF00003030000220A49096859
:1007340000200C46054642EA040843EA0509C7E9D5
:100744000489D7E90423104619462837BD46BDE875
:10075400B08F00BF001D0020041D00202DE9B04310
:100764008AB000AF786039607968096800208846EB
:100774008146C7E908897968496800200A46034622
:10078400C7E90623D7E908014FF000024FF0000340
:1007940003000022D7E9060140EA020441EA030506
:1007A400C7E904457B6840331A46D7E90401FFF7DB
:1007B4006FFFC7E90201D7E902014FF000024FF0D1
:1007C40000030A0000237B681A62BA687B685A62D5
:1007D4007B6800229A627B680022DA6200BF2837B5
:1007E400BD46BDE8B083000080B58AB000AF786034
:1007F40000233B61274B1B6B264A43F0080313631A
:10080400244B1B6B03F008033B613B690023FB6033
:10081400204B1B6B1F4A43F0080313631D4B1B6BD8
:1008240003F00803FB60FB680023BB60194B1B6CDF
:10083400184A43F480231364164B1B6C03F480237F
:10084400BB60BB684FF480737B610223BB610123EF
:10085400FB6103233B6207237B6207F11403194600
:100864000D4807F09FFF4FF400737B6107237B6201
:1008740007F114031946084807F094FF01220021E8
:10088400272001F0BAFA272001F0D3FA00BF283755
:10089400BD4680BD00380240000C024080B582B0E5
:1008A40000AF78600E4B1B6A0D4A43F48023136239
:1008B4000B4B1B6A0A4A23F4802313624FF48071A2
:1008C400084808F00DF94FF40071064808F008F9DB
:1008D400272001F0BCFA00BF0837BD4680BD00BF29
:1008E40000380240000C024080B483B000AF78604E
:1008F4007B681B6803F00403042B0CBF0123002353
:10090400DBB218460C37BD4680BC704780B483B058
:1009140000AF78607B681B6803F02003202B0CBFBA
:1009240001230023DBB218460C37BD4680BC704758
:1009340080B483B000AF78607B68DB6803F0200389
:10094400202B0CBF01230023DBB218460C37BD4615
:1009540080BC704780B483B000AF78607B685B690B
:1009640003F00103012B0CBF01230023DBB2184663
:100974000C37BD4680BC704780B400AF00BFBD4695
:1009840080BC704780B400AFFEE780B400AFFEE7E0
:1009940080B400AFFEE780B400AFFEE780B400AFE0
:1009A40000BFBD4680BC704780B400AF00BFBD46E9
:1009B40080BC704780B400AF00BFBD4680BC7047A8
:1009C40080B500AF07F088FA00BF80BD80B500AFE6
:1009D4000E48FFF79BFF0346002B07D00B48FFF799
:1009E400A7FF0346002B01D000F0AAFD0748FFF73C
:1009F400B1FF0346002B07D00448FFF775FF0346F9
:100A0400002B01D000F0CEFD00BF80BD00480040A7
:100A140080B400AF00BFBD4680BC704780B400AF57
:100A240001231846BD4680BC704780B582B000AF34
:100A34007860396008F0E4F9034616221A604FF032
:100A4400FF3318460837BD4680BD80B582B000AF7D
:100A540078604FF0FF317868FFF7E7FFFEE780B575
:100A640086B000AFF860B9607A6000237B610AE069
:100A7400AFF300800146BB685A1CBA60CAB21A7050
:100A84007B6901337B617A697B689A42F0DB7B681E
:100A940018461837BD4680BD80B586B000AFF860F3
:100AA400B9607A6000237B6109E0BB685A1CBA60B4
:100AB4001B781846AFF300807B6901337B617A6948
:100AC4007B689A42F1DB7B6818461837BD4680BDC7
:100AD40080B483B000AF78604FF0FF3318460C3712
:100AE400BD4680BC704780B483B000AF7860396085
:100AF4003B684FF400525A60002318460C37BD4639
:100B040080BC704780B483B000AF7860012318467E
:100B14000C37BD4680BC704780B485B000AFF86028
:100B2400B9607A60002318461437BD4680BC70470C
:100B34000EB480B482B000AF78604FF0FF33184633
:100B44000837BD4680BC03B0704780B582B000AFA3
:100B5400786008F055F903460A221A604FF0FF3313
:100B640018460837BD4680BD80B582B000AF7860B6
:100B740008F046F9034602221A604FF0FF33184684
:100B84000837BD4680BD80B483B000AF78604FF0B5
:100B9400FF3318460C37BD4680BC704780B483B021
:100BA40000AF786039603B684FF400525A6000230C
:100BB40018460C37BD4680BC704780B582B000AF84
:100BC4007860396008F01CF903461F221A604FF060
:100BD400FF3318460837BD4680BD80B500AF08F026
:100BE4000FF903460B221A604FF0FF33184680BDFD
:100BF40080B584B000AFF860B9607A6008F000F99D
:100C040003460C221A604FF0FF3318461037BD46D6
:100C140080BD000080B400AF024B1846BD4680BCC6
:100C2400704700BF0002000180B58AB000AF0346E0
:100C3400FB71FB79002B0ED100233B611F4B1B6B17
:100C44001E4A43F0020313631C4B1B6B03F00203A5
:100C54003B613B690DE00023FB60184B1B6B174A9B
:100C640043F002031363154B1B6B03F00203FB6099
:100C7400FB68FB79124A32F813307B610123BB61B4
:100C84000023FB6102233B62FB790E4A52F82330B6
:100C940007F114021146184607F084FDFB79094A4E
:100CA40052F82300FB79064A32F813300022194621
:100CB40008F02BF800BF2837BD4680BD003802403D
:100CC400A09A00080800002080B588B000AF034651
:100CD400FB71FB790E4A52F82300FB790D4A32F876
:100CE40013300022194608F010F8FB79094A32F84B
:100CF4001330FB60FB79064A52F82330FA68114638
:100D0400184607F0EDFE00BF2037BD4680BD00BF8A
:100D140008000020A09A000880B582B000AF034606
:100D2400FB71FB79074A52F82300FB79064A32F833
:100D340013300122194607F0E8FF00BF0837BD460B
:100D440080BD00BF08000020A09A000880B582B0D2
:100D540000AF0346FB71FB79074A52F82300FB7985
:100D6400064A32F813300022194607F0CEFF00BFBE
:100D74000837BD4680BD00BF08000020A09A0008C7
:100D840080B582B000AF0346FB71FB79074A52F885
:100D94002320FB79064931F813301946104607F031
:100DA400CCFF00BF0837BD4680BD00BF080000204F
:100DB400A09A000880B588B000AF03460A46FB71CC
:100DC4001346BB710023BB60224B1B6B214A43F0CB
:100DD400040313631F4B1B6B03F00403BB60BB686A
:100DE400BB79002B12D14FF40053FB6000233B610D
:100DF40002237B610223BB61FB79174A52F823303B
:100E040007F10C021146184607F0CCFCBB79012B04
:100E14001CD14FF40053FB6000237B610F4B3B61FB
:100E2400FB790D4A52F8233007F10C02114618469B
:100E340007F0B8FC28235BB200220F21184600F00B
:100E4400DCFF28235BB2184600F0F3FF00BF203715
:100E5400BD4680BD0038024014000020000021106F
:100E640080B588B000AF0346FB714FF40053FB60BC
:100E740028235BB2184600F0EAFFFB79054A52F8D2
:100E84002330FA681146184607F02AFE00BF2037BF
:100E9400BD4680BD1400002080B582B000AF03467B
:100EA400FB71FB79064A52F823304FF40052114685
:100EB400184607F013FF034618460837BD4680BDA1
:100EC4001400002080B582B000AF78600B46FB7040
:100ED400FB780E2B05D14FF480717868FFF73EFC48
:100EE40000E000BF00BF0837BD4680BD84B080B5B8
:100EF40084B000AF07F1180C8CE80F0097F87C3031
:100F0400194607F11800FFF7DDFF0023FB6002E03C
:100F1400FB680133FB60FB68032BF9DDBA6ABB6B2A
:100F24005340BB64FA6AFB6B5340FB64D7F88030D0
:100F3400042B08D13A6B3B6C53403B657A6B7B6C5A
:100F440053407B6503E000233B6500237B6500235E
:100F5400BB6002E0BB680133BB60BB68032BF9DDF7
:100F640097F87C30194607F11800FFF7ABFFBA6C0D
:100F7400BB6B5340BB63FA6CFB6B5340FB633A6D32
:100F84003B6C53403B647A6D7B6C53407B64002321
:100F94007B6016E07B68083307F1180252F82320BF
:100FA400D7F88410D7F88030C91A7B680B440B49F2
:100FB40051F823309A4201D0012308E07B680133C1
:100FC4007B607A68D7F880309A42E3DB00231846C6
:100FD4001037BD46BDE8804004B0704718000020BB
:100FE40080B400AF124B1B68114A43F00103136035
:100FF4000F4B00229A600E4B1B680D4A23F084733A
:1010040023F4803313600A4B0A4A5A60084B1B6866
:10101400074A23F480231360054B0022DA60064B51
:101024004FF000629A6000BFBD4680BC704700BFAD
:10103400003802401030002400ED00E080B487B096
:1010440000AF00233B6100237B610223FB6000238C
:10105400BB6002237B60344B9B6803F00C033B6151
:101064003B69082B11D03B69082B44D83B69002B02
:1010740003D03B69042B04D03DE02C4B2C4A1A606E
:101084003DE02A4B2B4A1A6039E0274B5B689B0DE5
:1010940003F00103BB60244B5B6803F03F037B60F8
:1010A400BB68002B0CD0234A7B68B2FBF3F31E4AC7
:1010B40052689209C2F3080202FB03F37B610BE05E
:1010C4001B4A7B68B2FBF3F3174A52689209C2F3D6
:1010D400080202FB03F37B61134B5B681B0C03F0F8
:1010E400030301335B00FB607A69FB68B2FBF3F333
:1010F4000E4A136003E00D4B0D4A1A6000BF0A4B01
:101104009B681B0903F00F030B4AD35C3B61074B3D
:101114001A683B6922FA03F3044A136000BF1C37C0
:10112400BD4680BC704700BF003802405C09002007
:101134000024F40000127A00B09A000880B586B04A
:1011440000AF7860144A154BD31A7B617B693B610D
:10115400134B1B68002B02D1114B124A1A60104B1F
:101164001A687B6813443A699A4207D207F048FE2A
:1011740003460C221A604FF0FF3309E0084B1B684A
:10118400FB60074B1A687B681344054A1360FB68CD
:1011940018461837BD4680BD000002200004000038
:1011A400101D0020C01D002080B483B000AF034692
:1011B400FB7197F90730002B12DBFB7903F01F0258
:1011C4000A4997F907305B09012000FA02F220333B
:1011D40041F82320BFF34F8F00BFBFF36F8F00BFD1
:1011E40000BF0C37BD4680BC704700BF00E100E083
:1011F40080B483B000AF78607B68DB6843F0200282
:101204007B68DA6000BF0C37BD4680BC704780B491
:1012140083B000AF78607B685B6943F001027B6850
:101224005A6100BF0C37BD4680BC704780B483B0A0
:1012340000AF78607B685B68DBB218460C37BD464C
:1012440080BC704780B5B8B018AF03463960FB71F5
:101254000023FB670023BB6700237B670DE02F4A55
:101264007B6F52F823207B6F10339B0080333B4409
:1012740043F8782C7B6F01337B677B6F072BEEDDA4
:1012840000233B6710E0264AFB6F52F823203B6F94
:1012940004339B0080333B4443F8782CFB6F0133C9
:1012A400FB673B6F01333B673A6F3B689A42EADB6B
:1012B4000023FB660FE01B4ABB6F52F82320FB6E32
:1012C4009B0080333B4443F8782CBB6F0133BB67EE
:1012D400FB6E0133FB66FA6E3B689A42EBDBFB6FF5
:1012E40017933B681693FB791593684607F1180327
:1012F4005422194607F0C2FD07F108030FCBFFF78C
:10130400F5FD0346012B01D1012303E0FB6F932B71
:10131400B6DD002318468037BD4680BDE81B00209B
:10132400A41200206009002080B58EB000AF06F042
:1013340049FD00F0CDF80020FFF776FC0120FFF70F
:1013440073FC0220FFF770FC514B524A1A60504B59
:101354004FF4E1325A604E4B00229A604C4B00220B
:10136400DA604B4B00221A61494B00229A61484BC8
:101374000C225A61464B0022DA61454804F050FFC2
:101384000346002B01D000F0D1F8434B434A1A60C6
:10139400434B444A1A60444B00221A60434B0022D8
:1013A4001A603C48FFF724FF3A48FFF730FF404BF0
:1013B4001B789AB24FF47A733E49354805F0E6F843
:1013C4000346002B01D000F0B1F83B4B1B683A4AAE
:1013D40043F080731360394B00221A60384B1B684A
:1013E400374A43F0010313603B463649184607F079
:1013F40077FD3B461846FFF7AFF803469AB23946E5
:101404004FF47A73224805F0C1F84FF47A7006F06D
:10141400BBFD00233B631AE0284B1B68FB620421DD
:101424000E20FFF70FFFB862244B1B687B62BB6A78
:10143400012B01D100F07AF87A6AFB6AD31A3B6275
:101444007A6B3B6A13447B633B6B01333B633B6BBB
:10145400312BE1DD7B6B1C4AA2FB03231A093B46BB
:101464001A49184607F03CFD00237B633B461846A7
:10147400FFF772F803469AB239464FF47A73044878
:1014840005F084F84FF47A7006F07EFDACE700BFF7
:10149400181D0020004800407C1D0020581D00201D
:1014A400781D0020641D0020701D0020741D002084
:1014B4003C1C0020081C0020FCED00E0041000E0AF
:1014C400001000E0D89900081F85EB51E899000846
:1014D40080B592B000AF01237B600523BB6002237B
:1014E400FB614FF480033B6208237B62F023BB6201
:1014F4000223FB6205233B633B1D184603F0D6FC25
:101504000F237B630223BB630023FB634FF4A053CD
:101514003B644FF480537B6407F134030321184682
:1015240003F012FF00BF4837BD4680BD80B500AF51
:101534000220FFF725FC4FF47A7006F025FDF7E74B
:1015440090B583B000AF124B1A68124B1B68591C3C
:1015540010480160D4181048FFF768FE0346237052
:101564000C4B1B68092B0FD90C4B01221A600C4B36
:101574001B687B60064B1B68094A1360044A7B683E
:101584001360044B00221A6000BF0C37BD4690BDA7
:101594007C1D0020701D002000480040741D0020A8
:1015A400781D002080B582B000AF2720FFF7FCFD36
:1015B400094B1B687B607B6803F00403002B03D09A
:1015C4000220FFF7A9FB02E00220FFF7A5FB00BF02
:1015D4000837BD4680BD00BF0048004080B487B0D6
:1015E40000AF786039607B68002B02D03B68002B29
:1015F40001D101238FE03B681A687B681A603B685D
:101604001B6803F01F037B6101227B6902FA03F369
:101614003B613B681B6803F00073002B52D03B68AE
:101624009B6803F00103002B06D03D4B9A683C49AC
:101634003B6913438B6006E0394B9A683B69DB4393
:10164400374913408B603B689B6803F00203002B0F
:1016540006D0334BDA6832493B691343CB6006E06A
:101664002F4BDA683B69DB432D491340CB603B6861
:101674001B6803F0C063B3F1C06F23D1294A7B69AF
:101684009B08023352F82330FB607B6903F00303A9
:101694009B000F2202FA03F3DB43FA681340FB605A
:1016A4003B68DA687B6903F003039B0002FA03F3E7
:1016B400FA681343FB601B497B699B080233FA6891
:1016C40041F823203B685B6803F00103002B06D03C
:1016D400134B1A6812493B6913430B6006E0104B25
:1016E4001A683B69DB430E4913400B603B685B6837
:1016F40003F00203002B06D0094B5A6808493B69E2
:1017040013434B6006E0064B5A683B69DB430449CC
:1017140013404B60002318461C37BD4680BC7047FD
:10172400003C01400038014080B487B000AF7860CD
:1017340039607B68002B02D03B68002B01D1012368
:101744006AE07B681A683B681A603B681B6803F0B0
:101754001F037B6101227B6902FA03F33B61314B76
:101764001A683B691340002B03D03B6801225A607E
:1017740002E03B6800225A602A4B5A683B691340D6
:10178400002B05D03B685B6843F002023B685A605B
:101794003B681B6803F00073002B36D0214B9A681A
:1017A4003B691340002B03D03B6801229A6002E09E
:1017B4003B6800229A601B4BDA683B691340002B9C
:1017C40005D03B689B6843F002023B689A603B6823
:1017D4001B6803F0C063B3F1C06F12D1124A7B6976
:1017E4009B08023352F82330FB607B69DB4303F030
:1017F40003039B00FA6802FA03F31A0E3B68DA60EB
:1018040009E03B680022DA6005E03B6800229A6048
:101814003B680022DA60002318461C37BD4680BCB2
:10182400704700BF003C01400038014080B487B0DD
:1018340000AF78607B68002B01D101234CE07B680A
:101844001B6803F01F037B6101227B6902FA03F327
:101854003B61244B1A683B69DB43224913400B600C
:10186400204B5A683B69DB431E4913404B607B683D
:101874001B6803F00073002B2DD01A4B9A683B6948
:10188400DB43184913408B60164BDA683B69DB4332
:1018940014491340CB607B681B6803F0C063B3F149
:1018A400C06F18D1104A7B699B08023352F8233069
:1018B400FB607B6903F003039B000F2202FA03F32E
:1018C400DB43FA681340FB6007497B699B080233DA
:1018D400FA6841F82320002318461C37BD4680BC13
:1018E400704700BF003C01400038014080B487B01D
:1018F40000AFF8600B467A60FB720023FB75FB7A3D
:10190400002B03D1FB687A685A6002E00123FB755F
:1019140000BFFB7D18461C37BD4680BC704780B4B1
:1019240083B000AF786039607B68002B01D101235C
:1019340003E07B683A681A60002318460C37BD46FA
:1019440080BC704780B584B000AF78607B681B684A
:1019540003F01F03012202FA03F3FB600A4B5B69E5
:10196400FA681340BB60BB68002B09D0064AFB68C9
:1019740053617B685B68002B02D07B685B68984787
:1019840000BF1037BD4680BD003C014080B487B025
:1019940000AF786039607B681B6803F01F037B61CC
:1019A40001227B6902FA03F33B61074B5A693B69E5
:1019B4001A407B6922FA03F3FB60FB6818461C3764
:1019C400BD4680BC704700BF003C014080B485B078
:1019D40000AF786039607B681B6803F01F03012245
:1019E40002FA03F3FB60044AFB68536100BF143737
:1019F400BD4680BC704700BF003C014080B485B048
:101A040000AF78607B681B6803F01F03012202FAB1
:101A140003F3FB60034AFB68136100BF1437BD4640
:101A240080BC7047003C014080B485B000AF786052
:101A34007B6803F00703FB600C4BDB68BB60BA6890
:101A44004FF6FF031340BB60FB681A02BB681343E5
:101A540043F0BF6343F40033BB60044ABB68D36004
:101A640000BF1437BD4680BC704700BF00ED00E0E6
:101A740080B400AF044BDB681B0A03F0070318466D
:101A8400BD4680BC704700BF00ED00E080B483B069
:101A940000AF0346FB7197F90730002B0BDBFB7992
:101AA40003F01F02064997F907305B09012000FA89
:101AB40002F241F8232000BF0C37BD4680BC7047BA
:101AC40000E100E080B483B000AF0346FB7197F9F6
:101AD4000730002B12DBFB7903F01F020A4997F948
:101AE40007305B09012000FA02F2203341F8232079
:101AF400BFF34F8F00BFBFF36F8F00BF00BF0C3722
:101B0400BD4680BC704700BF00E100E080B483B0F4
:101B140000AF0346FB7197F90730002B0EDB0A4A2E
:101B240097F907305B09403352F82320FB7903F01F
:101B34001F0322FA03F303F0010300E00023184615
:101B44000C37BD4680BC704700E100E080B483B030
:101B540000AF0346FB7197F90730002B0CDBFB79D0
:101B640003F01F02074997F907305B09012000FAC7
:101B740002F2403341F8232000BF0C37BD4680BC3D
:101B8400704700BF00E100E080B483B000AF0346BB
:101B9400FB7197F90730002B0CDBFB7903F01F0274
:101BA400074997F907305B09012000FA02F2603314
:101BB40041F8232000BF0C37BD4680BC704700BFEE
:101BC40000E100E080B483B000AF0346FB7197F9F5
:101BD4000730002B0EDB0A4A97F907305B09803384
:101BE40052F82320FB7903F01F0322FA03F303F0D6
:101BF400010300E0002318460C37BD4680BC704743
:101C040000E100E080B483B000AF03463960FB71AB
:101C140097F90730002B0ADB3B68DAB20C4997F9D5
:101C240007301201D2B20B4483F800230AE03B6868
:101C3400DAB20849FB7903F00F03043B1201D2B274
:101C44000B441A7600BF0C37BD4680BC704700BFFA
:101C540000E100E000ED00E080B483B000AF034693
:101C6400FB7197F90730002B09DB0C4A97F9073011
:101C7400134493F80033DBB21B09DBB209E0084AD2
:101C8400FB7903F00F03043B13441B7EDBB21B09F7
:101C9400DBB218460C37BD4680BC704700E100E05B
:101CA40000ED00E080B489B000AFF860B9607A60FC
:101CB400FB6803F00703FB61FB69C3F10703042B13
:101CC40028BF0423BB61FB690433062B02D9FB69DB
:101CD400033B00E000237B614FF0FF32BB6902FA53
:101CE40003F3DA43BB681A407B699A404FF0FF3133
:101CF4007B6901FA03F3D9437B680B40134318460D
:101D04002437BD4680BC704780B489B000AFF8600A
:101D1400B9607A603B60BB6803F00703FB61FB6951
:101D2400C3F10703042B28BF0423BB61FB690433FD
:101D3400062B02D9FB69033B00E000237B61FA68B0
:101D44007B69DA404FF0FF31BB6901FA03F3DB43EF
:101D54001A407B681A604FF0FF327B6902FA03F382
:101D6400DA43FB681A403B681A6000BF2437BD465B
:101D740080BC704780B400AFBFF34F8F00BF064BE9
:101D8400DB6803F4E0620449044B1343CB60BFF304
:101D94004F8F00BF00BFFDE700ED00E00400FA052F
:101DA40080B582B000AF78607B68013BB3F1807F7F
:101DB40001D301230FE00A4A7B68013B53600F21E2
:101DC4004FF0FF30FFF71EFF054B00229A60044BD3
:101DD40007221A60002318460837BD4680BD00BF9D
:101DE40010E000E080B582B000AF78607868FFF75B
:101DF4001BFE00BF0837BD4680BD80B586B000AF6E
:101E04000346B9607A60FB7300237B61FFF730FE01
:101E140078617A68B9687869FFF744FF024697F9F0
:101E24000F3011461846FFF7EDFE00BF1837BD46C8
:101E340080BD80B582B000AF0346FB7197F90730CF
:101E44001846FFF723FE00BF0837BD4680BD80B5A6
:101E540082B000AF0346FB7197F907301846FFF7CD
:101E640031FE00BF0837BD4680BD80B500AFFFF727
:101E740081FF80B582B000AF78607868FFF790FF8B
:101E8400034618460837BD4680BD000080B400AF45
:101E9400BFF35F8F00BF064B5B6A054A23F48033B0
:101EA4005362044B00225A6000BFBD4680BC704799
:101EB40000ED00E090ED00E080B483B000AF786006
:101EC4000A4A7B6843F001035360094B5B6A084A82
:101ED40043F480335362BFF34F8F00BFBFF36F8F60
:101EE40000BF00BF0C37BD4680BC704790ED00E0DA
:101EF40000ED00E080B483B000AF78607B685A786E
:101F04001D4B9A607B681B78002B29D01A4A7B688A
:101F14005B68D3607B681B7B1A077B68DB7A1B06D4
:101F24001A437B689B7ADB041A437B685B7B9B04C4
:101F34001A437B689B7B5B041A437B68DB7B1B0433
:101F44001A437B685B7A1B021A437B681B7A5B002B
:101F540013437A6812781146074A0B43136105E06C
:101F6400054B0022DA60044B00221A6100BF0C37D3
:101F7400BD4680BC704700BF90ED00E080B500AF67
:101F8400FFF776FD0346184680BD80B584B000AFE8
:101F9400B9607A603B600346FB7397F90F301846CB
:101FA400FFF75AFE3B687A68B968FFF7ADFE00BFD9
:101FB4001037BD4680BD80B582B000AF0346FB71CB
:101FC40097F907301846FFF7C1FD00BF0837BD4633
:101FD40080BD80B582B000AF0346FB7197F907302E
:101FE4001846FFF793FD034618460837BD4680BDE3
:101FF40080B582B000AF0346FB7197F907301846ED
:10200400FFF7C2FD00BF0837BD4680BD80B582B072
:1020140000AF0346FB7197F907301846FFF7D2FD6E
:10202400034618460837BD4680BD000080B483B01F
:1020340000AF78607B68042B06D1094B1B68084A03
:1020440043F00403136005E0054B1B68044A23F0C6
:102054000403136000BF0C37BD4680BC704700BF4B
:1020640010E000E080B500AF00F002F800BF80BDD2
:1020740080B400AF00BFBD4680BC704780B586B059
:1020840000AF786000237B6105F038FF38617B681E
:10209400002B01D1012399E07B68002283F83420CE
:1020A4007B68022283F835207B681B681A687B688A
:1020B4001B6822F001021A600FE005F01FFF0246C0
:1020C4003B69D31A052B08D97B6820225A657B68A3
:1020D400032283F83520032378E07B681B681B68A0
:1020E40003F00103002BE8D17B681B681B687B614C
:1020F4007A69384B13407B617B685A687B689B68BC
:102104001A437B68DB681A437B681B691A437B6844
:102114005B691A437B689B691A437B68DB691A43D2
:102124007B681B6A13437A6913437B617B685B6A30
:10213400042B07D17B68DA6A7B681B6B13437A69CB
:1021440013437B617B681B687A691A607B681B6830
:102154005B697B617B6923F007037B617B685B6A56
:102164007A6913437B617B685B6A042B17D17B68B4
:102174009B6A7A6913437B617B68DB6A002B0ED010
:10218400786800F049FD0346002B08D07B684022A4
:102194005A657B68012283F83520012316E07B68A9
:1021A4001B687A695A61786800F002FD0346FB6097
:1021B4007B68DB6D3F229A40FB689A607B68002253
:1021C4005A657B68012283F83520002318461837A6
:1021D400BD4680BD3F8010F080B584B000AF78600C
:1021E4007B68002B01D1012350E07B6893F83530E4
:1021F400DBB2022B01D1022348E07B681B681A681A
:102204007B681B6822F001021A607B681B6800224D
:102214001A607B681B6800225A607B681B68002276
:102224009A607B681B680022DA607B681B68002266
:102234001A617B681B6821225A61786800F0B8FC37
:102244000346FB607B680022DA637B6800221A6421
:102254007B6800225A647B6800229A647B680022AF
:10226400DA647B6800221A657B68DB6D3F229A4042
:10227400FB689A607B6800225A657B68002283F8B9
:1022840035207B68002283F8342000231846103759
:10229400BD4680BD80B586B000AFF860B9607A6095
:1022A4003B600023FB75FB6893F83430012B01D1AC
:1022B400022326E0FB68012283F83420FB6893F8AC
:1022C4003530DBB2012B15D1FB68022283F83520AF
:1022D400FB6800225A653B687A68B968F86800F0C0
:1022E40039FCFB681B681A68FB681B6842F0010232
:1022F4001A6005E0FB68002283F834200223FB7592
:10230400FB7D18461837BD4680BD80B586B000AF4A
:10231400F860B9607A603B600023FB75FB689B6DD5
:102324003B61FB6893F83430012B01D1022340E078
:10233400FB68012283F83420FB6893F83530DBB264
:10234400012B2FD1FB68022283F83520FB68002281
:102354005A653B687A68B968F86800F0FBFBFB686B
:10236400DB6D3F229A403B699A60FB681B681A68E0
:10237400FB681B6842F016021A60FB681B6C002B9A
:1023840007D0FB681B681A68FB681B6842F00802E8
:102394001A60FB681B681A68FB681B6842F001023C
:1023A4001A6005E0FB68002283F834200223FB75E1
:1023B400FB7D18461837BD4680BD80B584B000AF9C
:1023C40078607B689B6DFB6005F098FDB8607B6866
:1023D40093F83530DBB2022B08D07B6880225A6533
:1023E4007B68002283F83420012352E07B681B6859
:1023F4001A687B681B6822F016021A607B681B68E7
:102404005A697B681B6822F080025A617B681B6CE6
:10241400002B03D17B689B6C002B07D07B681B6867
:102424001A687B681B6822F008021A607B681B68C4
:102434001A687B681B6822F001021A6013E005F039
:102444005DFD0246BB68D31A052B0CD97B6820229C
:102454005A657B68002283F834207B68032283F862
:102464003520032315E07B681B681B6803F0010318
:10247400002BE4D17B68DB6D3F229A40FB689A60B5
:102484007B68002283F834207B68012283F835209E
:10249400002318461037BD4680BD80B483B000AF1A
:1024A40078607B6893F83530DBB2022B04D07B680C
:1024B40080225A6501230CE07B68052283F83520CD
:1024C4007B681B681A687B681B6822F001021A602B
:1024D400002318460C37BD4680BC704780B58AB0CF
:1024E40000AFF8600B467A60FB720023FB7705F0BF
:1024F40005FDB861FB6893F83530DBB2022B08D0D8
:10250400FB6880225A65FB68002283F8342001238B
:10251400BFE0FB681B681B6803F48073002B05D0C5
:10252400FB684FF480725A650123B2E0FB7A002BFA
:1025340006D1FB68DB6D202202FA03F37B6205E01F
:10254400FB68DB6D102202FA03F37B62FB689B6D70
:102554007B617B691B683B625AE07B68B3F1FF3F98
:1025640017D07B68002B07D005F0C8FC0246BB6976
:10257400D31A7A689A420CD2FB6820225A65FB6807
:10258400002283F83420FB68012283F835200323DA
:102594007FE07B691B683B62FB68DB6D08229A4025
:1025A4003B6A1340002B0BD0FB685B6D43F00102C8
:1025B400FB685A65FB68DB6D08229A407B699A6068
:1025C400FB68DB6D01229A403B6A1340002B0BD061
:1025D400FB685B6D43F00202FB685A65FB68DB6DC8
:1025E40001229A407B699A60FB68DB6D04229A4061
:1025F4003B6A1340002B0BD0FB685B6D43F0040275
:10260400FB685A65FB68DB6D04229A407B699A601B
:102614003A6A7B6A1340002B05D1FB685B6D03F0BB
:102624000103002B99D0FB685B6D002B18D0FB686D
:102634005B6D03F00103002B12D0F868FFF7BDFEB9
:10264400FB68DB6D30229A407B699A60FB6800224C
:1026540083F83420FB68012283F83520012318E035
:10266400FB7A002B0ED1FB68DB6D30229A407B692C
:102674009A60FB68002283F83420FB68012283F807
:10268400352005E0FB68DB6D10229A407B699A6077
:10269400FB7F18462837BD4680BD000080B586B054
:1026A40000AF78600023BB608E4B1B688E4AA2FB90
:1026B40003239B0A7B617B689B6D3B613B691B68C1
:1026C400FB607B68DB6D08229A40FB681340002B9B
:1026D4001AD07B681B681B6803F00403002B13D01B
:1026E4007B681B681A687B681B6822F004021A6006
:1026F4007B68DB6D08229A403B699A607B685B6D5E
:1027040043F001027B685A657B68DB6D01229A40C5
:10271400FB681340002B12D07B681B685B6903F0D5
:102724008003002B0BD07B68DB6D01229A403B6950
:102734009A607B685B6D43F002027B685A657B6834
:10274400DB6D04229A40FB681340002B12D07B6897
:102754001B681B6803F00203002B0BD07B68DB6D46
:1027640004229A403B699A607B685B6D43F00402E3
:102774007B685A657B68DB6D10229A40FB681340C6
:10278400002B43D07B681B681B6803F00803002BF5
:102794003CD07B68DB6D10229A403B699A607B6871
:1027A4001B681B6803F48023002B18D07B681B680C
:1027B4001B6803F40023002B08D17B681B6C002BDF
:1027C40024D07B681B6C786898471FE07B689B6CFF
:1027D400002B1BD07B689B6C7868984716E07B685D
:1027E4001B681B6803F48073002B07D17B681B688C
:1027F4001A687B681B6822F008021A607B681B6CED
:10280400002B03D07B681B6C786898477B68DB6D72
:1028140020229A40FB681340002B00F08F807B68D5
:102824001B681B6803F01003002B00F087807B6893
:10283400DB6D20229A403B699A607B6893F83530BF
:10284400DBB2052B36D17B681B681A687B681B6872
:1028540022F016021A607B681B685A697B681B6841
:1028640022F080025A617B681B6C002B03D17B68C9
:102874009B6C002B07D07B681B681A687B681B68FD
:1028840022F008021A607B68DB6D3F229A403B69A4
:102894009A607B68002283F834207B68012283F8E5
:1028A40035207B681B6D002B7ED07B681B6D7868A0
:1028B400984779E07B681B681B6803F48023002B2E
:1028C4001DD07B681B681B6803F40023002B0DD10B
:1028D4007B685B6C002B31D07B685B6C78689847B5
:1028E4002CE000BF5C090020B5814E1B7B68DB6BCC
:1028F400002B23D07B68DB6B786898471EE07B68ED
:102904001B681B6803F48073002B0FD17B681B6862
:102914001A687B681B6822F010021A607B68002228
:1029240083F834207B68012283F835207B68DB6BD5
:10293400002B03D07B68DB6B786898477B685B6D02
:10294400002B32D07B685B6D03F00103002B22D097
:102954007B68052283F835207B681B681A687B68CE
:102964001B6822F001021A60BB680133BB607A69FC
:102974009A4207D37B681B681B6803F00103002B92
:10298400F2D100E000BF7B68002283F834207B682A
:10299400012283F835207B68DB6C002B05D07B6833
:1029A400DB6C7868984700E000BF1837BD4680BDEF
:1029B40080B487B000AFF8600B467A60FB720023E6
:1029C400FB75FB6893F83430012B01D102233CE002
:1029D400FB68012283F83420FB6893F83530DBB2BE
:1029E400012B29D1FB7A052B29D801A252F823F017
:1029F4000D2A0008152A00081D2A0008252A0008A7
:102A04002D2A0008352A0008FB687A68DA6317E083
:102A1400FB687A681A6413E0FB687A685A640FE00A
:102A2400FB687A689A640BE0FB687A68DA6407E00A
:102A3400FB687A681A6503E00123FB7500E000BFB8
:102A4400FB68002283F83420FB7D18461C37BD4602
:102A540080BC704780B485B000AF78600B46FB70D3
:102A64000023FB737B6893F83430012B01D10223DC
:102A740053E07B68012283F834207B6893F8353077
:102A8400DBB2012B42D1FB78062B3CD801A252F8D1
:102A940023F000BFB52A0008BD2A0008C52A000893
:102AA400CD2A0008D52A0008DD2A0008E52A0008F6
:102AB4007B680022DA632BE07B6800221A6427E03B
:102AC4007B6800225A6423E07B6800229A641FE03A
:102AD4007B680022DA641BE07B6800221A6517E039
:102AE4007B680022DA637B6800221A647B68002218
:102AF4005A647B6800229A647B680022DA647B68EB
:102B040000221A6504E00123FB7301E00123FB7337
:102B14007B68002283F83420FB7B18461437BD46BB
:102B240080BC704780B483B000AF78607B6893F852
:102B34003530DBB218460C37BD4680BC704780B4D4
:102B440083B000AF78607B685B6D18460C37BD4678
:102B540080BC704780B485B000AFF860B9607A601B
:102B64003B60FB681B681A68FB681B6822F48022C0
:102B74001A60FB681B683A685A60FB689B68402BC4
:102B840008D1FB681B687A689A60FB681B68BA689E
:102B9400DA6007E0FB681B68BA689A60FB681B6828
:102BA4007A68DA6000BF1437BD4680BC7047000005
:102BB40080B485B000AF78607B681B68DBB2103BE3
:102BC400134AA2FB03231B09FB60124AFB6813444C
:102BD4001B781A467B68DA65FB68032B09D97B6886
:102BE4001B6823F47F7323F003031A1D7B689A6523
:102BF40007E07B681B6823F47F7323F003037A6880
:102C040093657B689B6D18461437BD4680BC70473E
:102C1400ABAAAAAAC89A000880B485B000AF7860AD
:102C24000023FB737B689B6ABB607B689B69002BFA
:102C34001FD1BB68032B56D801A252F823F000BF62
:102C4400552C0008672C0008552C0008EB2C0008B4
:102C54007B68DB6A03F08073002B46D00123FB738F
:102C640043E07B68DB6AB3F1C07F40D10123FB738F
:102C74003DE07B689B69B3F5005F21D1BB68032B02
:102C840037D801A252F823F09D2C0008A32C000889
:102C94009D2C0008B52C00080123FB7330E07B68F1
:102CA400DB6A03F08073002B25D00123FB7322E041
:102CB4007B68DB6AB3F1C07F1FD10123FB731CE087
:102CC400BB68022B03D9BB68032B03D018E0012394
:102CD400FB7315E07B68DB6A03F08073002B0ED076
:102CE4000123FB730BE000BF0AE000BF08E000BF54
:102CF40006E000BF04E000BF02E000BF00E000BF48
:102D0400FB7B18461437BD4680BC704780B483B043
:102D140000AF786039607A683B68B2FBF3F3074A26
:102D2400013B5360054B00229A60044B05221A6054
:102D340000BF0C37BD4680BC704700BF10E000E008
:102D440080B400AF044B1B68034A43F48023136030
:102D540000BFBD4680BC70470038024080B400AF5D
:102D6400044B1B68034A23F48023136000BFBD4651
:102D740080BC70470038024080B400AF044B1B682D
:102D8400034A43F48033136000BFBD4680BC7047E0
:102D94000038024080B400AF064B1B6803F40033D4
:102DA400B3F5003F0CBF01230023DBB21846BD4638
:102DB40080BC70470038024080B400AF044B1B68ED
:102DC400034A43F00103136000BFBD4680BC704753
:102DD4000038024080B400AF064B1B6803F00203C6
:102DE400022B0CBF01230023DBB21846BD4680BC76
:102DF400704700BF0038024080B483B000AF7860F1
:102E0400064B9B6823F0030204497B6813438B60E1
:102E140000BF0C37BD4680BC704700BF003802407D
:102E240080B400AF034B9B6803F00C031846BD4607
:102E340080BC70470038024080B483B000AF786033
:102E4400064B9B6823F0F00204497B6813438B60B4
:102E540000BF0C37BD4680BC704700BF003802403D
:102E640080B483B000AF7860064B9B6823F4E052D3
:102E740004497B6813438B6000BF0C37BD4680BC9C
:102E8400704700BF0038024080B483B000AF786060
:102E9400064B9B6823F4604204497B6813438B60B0
:102EA40000BF0C37BD4680BC704700BF00380240ED
:102EB40080B400AF044B1B68034A43F08073136073
:102EC40000BFBD4680BC70470038024080B400AFEC
:102ED400064B1B6803F00073B3F1007F0CBF0123A2
:102EE4000023DBB21846BD4680BC70470038024060
:102EF40080B485B000AFF860B9607A603B600A4B7B
:102F04005A680A4B1340F968BA6811437A68920107
:102F140011433A680A43044913434B6000BF143712
:102F2400BD4680BC704700BF003802400080BCFF33
:102F340080B400AF064B1B6803F00063B3F1006F6D
:102F44000CBF01230023DBB21846BD4680BC70478A
:102F54000038024080B483B000AF7860064B1B6831
:102F640023F00F0204497B6813430B6000BF0C3746
:102F7400BD4680BC704700BF003C024080B400AF37
:102F8400034B1B6803F00F031846BD4680BC704713
:102F9400003C024080B582B000AF78604FF47A7193
:102FA4007868FFF7B3FE00BF0837BD4680BD000058
:102FB40080B485B000AF78600E4B1B68FB60FB6883
:102FC4007B68B3F1FF3F0CD07B6801337B6008E082
:102FD400084B1B6803F48033002B02D07B68013B51
:102FE4007B607B68002BF3D100BF00BF1437BD4664
:102FF40080BC704710E000E080B483B000AF78601C
:10300400034A7B68136000BF0C37BD4680BC704721
:103014005C09002080B586B000AF786000233B6176
:103024000023FB737B68002B02D10123FB7334E084
:103034007B681C4A934202D903233B610FE07B68FF
:10304400194A934202D902233B6108E07B68174A7C
:10305400934202D901233B6101E000233B61FB7BE6
:10306400012B1AD03869FFF775FF02237B61FFF744
:1030740085FFB8607B69013B7B61BA683B699A4212
:1030840002D07B69002BF2D1BA683B699A4202D024
:103094000123FB7301E00023FB73FB7B1846183705
:1030A400BD4680BD804A5D050087930380C3C90186
:1030B40080B584B000AF786039600023FB730023CF
:1030C400BB6000F097F80346002B21D179681448BF
:1030D40000F06AF8B860FFF77DFE0346012B07D0C5
:1030E400FFF76AFE00BFFFF775FE0346012BFAD116
:1030F4007B6819687B685A687B689B680020FFF7C7
:10310400F7FE3968B86800F08DF80346FB7301E0F8
:103114000123FB73FB7B18461037BD4680BD00BFFF
:103124000024F40080B586B000AFF860B9607A601E
:103134003B600023FB7500233B6100F05BF8034612
:10314400002B2AD17968F86800F02EF83861FFF76F
:1031540021FE0346012B0FD0BB68012B02D1FFF7E0
:10316400EFFD01E0FFF7FAFDFFF706FE00BFFFF7F2
:1031740011FE0346012BFAD17B6819687B685A68F3
:103184007B689B684FF48000FFF7B2FE39683869AA
:1031940000F048F80346FB7501E00123FB75FB7D55
:1031A40018461837BD4680BD80B485B000AF78603E
:1031B40039600023FB603B681B6803F03F037A68B7
:1031C400B2FBF3F3FB603B685B68C3F30802FB6884
:1031D40002FB03F3FB603B689B681B0C01335B0041
:1031E400FA68B2FBF3F3FB60FB6818461437BD467C
:1031F40080BC704780B582B000AF0023FB71FFF73D
:1032040065FE0346002B01D00123FB71FFF790FEFE
:103214000346002B01D00123FB71FB7918460837C4
:10322400BD4680BD80B584B000AF786039600023AE
:10323400FB730023BB603B681B681B0903F00F038F
:10324400234AD35C1A467B68D340BB60214B1B687E
:10325400BA689A4204D9B868FFF7DCFE0346FB73E8
:10326400FB7B002B1FD1FFF723FE00BFFFF72EFED1
:103274000346012BFAD13B681B681846FFF7DCFDB7
:103284000220FFF7B9FD00BFFFF7CAFD0346082B74
:10329400FAD13B685B681846FFF7E2FD3B689B6820
:1032A4001846FFF7F1FD0B4B1B68BA689A4204D22B
:1032B400B868FFF7AFFE0346FB73FB7B002B02D11C
:1032C400B868FFF799FEFB7B18461037BD4680BDF2
:1032D400B09A00085C09002080B400AF074B1B6A59
:1032E400064A43F080531362044B1B6A034A23F0DB
:1032F4008053136200BFBD4680BC70470038024053
:1033040080B483B000AF4FF480737B607B6893FA22
:10331400A3F33B603B68B3FA83F3DBB203F184535A
:1033240003F560339B001A460123136000BF0C377A
:10333400BD4680BC704780B483B000AF4FF4807347
:103344007B607B6893FAA3F33B603B68B3FA83F337
:10335400DBB203F1845303F560339B001A46002368
:10336400136000BF0C37BD4680BC704780B483B087
:1033740000AF78602A4B1B6823F0E0027B681B686F
:10338400274913430B60274B5B68264A23F4803399
:103394005360244B1B68234A23F480331360214B6E
:1033A4009B68204A23F4803393601E4BDB681D4ADC
:1033B40023F48033D3607B685B6803F48033002B91
:1033C40005D0184B1B68174A43F4803313607B689D
:1033D4005B6803F40033002B05D0124B5B68114A81
:1033E40043F4803353607B685B6803F00103002B74
:1033F40005D00C4B9B680B4A43F4803393607B6885
:103404005B6803F00203002B05D0064BDB68054A1A
:1034140043F48033D36000BF0C37BD4680BC704793
:1034240000700040003C014080B483B000AF102322
:103434007B607B6893FAA3F33B603B68B3FA83F346
:10344400DBB203F1845303F560339B001A46012376
:10345400136000BF0C37BD4680BC704780B483B096
:1034640000AF10237B607B6893FAA3F33B603B6857
:10347400B3FA83F3DBB203F1845303F560339B00A7
:103484001A460023136000BF0C37BD4680BC70474A
:1034940080B483B000AF7860054B5A6804497B68F8
:1034A40013434B6000BF0C37BD4680BC704700BF60
:1034B4000070004080B483B000AF7860054B5A6858
:1034C4007B68DB43034913404B6000BF0C37BD46A8
:1034D40080BC70470070004080B483B000AF786057
:1034E4000B46FB70094B1B69084A23F00403136164
:1034F400FB78012B01D130BF02E040BF20BF20BFC9
:1035040000BF0C37BD4680BC704700BF00ED00E033
:1035140080B483B000AF78600B46FB70104B1B681F
:1035240023F003020E497B6813430B600D4B1B69A8
:103534000C4A43F004031361FB78012B01D130BF23
:1035440002E040BF20BF20BF064B1B69054A23F0A1
:103554000403136100BF0C37BD4680BC704700BF35
:103564000070004000ED00E080B400AF084B1B6821
:10357400074A43F002031360064B1B69054A43F0F4
:103584000403136130BF00BFBD4680BC704700BF59
:103594000070004000ED00E080B500AF064B5B69B1
:1035A40003F48033002B05D000F008F8024B4FF4ED
:1035B40080325A6100BF80BD003C014080B400AF3E
:1035C40000BFBD4680BC704780B400AF044B1B698C
:1035D400034A43F00203136100BFBD4680BC704739
:1035E40000ED00E080B400AF044B1B69034A23F0F4
:1035F4000203136100BFBD4680BC704700ED00E0CC
:1036040080B400AF044B1B69034A43F010031361F9
:1036140000BFBD4680BC704700ED00E080B400AF41
:10362400044B1B69034A23F01003136100BFBD461A
:1036340080BC704700ED00E080B586B000AFF86054
:10364400B9607A603B600023FB75FB689B68802B44
:1036540006D1FB684FF480725A650123FB7531E093
:10366400FB6893F83430012B01D102232BE0FB6873
:10367400012283F83420FB6893F83530DBB2012B48
:103684001ED1FB68022283F83520FB681B681A6888
:10369400FB681B6842F480221A60FB681B683A6866
:1036A4001A613B6A7A68B968F86801F072F9FB68D4
:1036B4001B681A68FB681B6842F001021A6001E08B
:1036C4000223FB75FB7D18461837BD4680BD0000FC
:1036D40080B586B000AFF860B9607A603B600023C3
:1036E400FB75FB689B68802B06D1FB684FF48072E6
:1036F4005A65012301F011B9FB68DB6B002B07D07D
:10370400FB685B6C002B03D0FB68DB6C002B05D1E2
:10371400FB6840225A65012301F0FFB8FB6893F867
:103724003430012B02D1022301F0F7B8FB680122E7
:1037340083F83420FB6893F83530DBB2012B41F079
:10374400E580FB68022283F83520FB6800225A6575
:10375400FB681B681A68FB681B6842F480221A60C5
:10376400FB681B683A681A613B6A7A68B968F8684A
:1037740001F00FF9FB681B681A468D4B9A4260D919
:10378400FB681B688B4A934257D0FB681B688A4AC4
:10379400934250D0FB681B68884A934249D0FB6827
:1037A4001B68874A934242D0FB681B68854A934250
:1037B4003AD0FB681B68844A934232D0FB681B688A
:1037C400824A93422AD0FB681B68814A934222D0E2
:1037D400FB681B687F4A93421AD0FB681B687E4AC9
:1037E400934212D0FB681B687C4A93420AD0FB6860
:1037F4001B687B4A934202D14FF400131EE04FF042
:1038040000631BE04FF4001318E04FF4001315E0BD
:103814004FF4001312E04FF400630FE04FF4006321
:103824000CE04FF4006309E04FF4006306E020234A
:1038340004E0202302E0202300E02023694AD3602F
:103844004FE1FB681B681A46674B9A4260D9FB68D4
:103854001B68584A934257D0FB681B68564A9342E8
:1038640050D0FB681B68554A934249D0FB681B68DB
:10387400534A934242D0FB681B68524A93423AD05F
:10388400FB681B68504A934232D0FB681B684F4A5E
:1038940093422AD0FB681B684D4A934222D0FB68AE
:1038A4001B684C4A93421AD0FB681B684A4A9342ED
:1038B40012D0FB681B68494A93420AD0FB681B6814
:1038C400474A934202D14FF400131EE04FF00063C5
:1038D4001BE04FF4001318E04FF4001315E04FF40D
:1038E400001312E04FF400630FE04FF400630CE0A8
:1038F4004FF4006309E04FF4006306E0202304E082
:10390400202302E0202300E02023364A9360E8E0ED
:10391400FB681B681A46354B9A4240F28280FB686A
:103924001B68244A934278D0FB681B68224A93425E
:1039340071D0FB681B68214A93426AD0FB681B68FC
:103944001F4A934263D0FB681B681E4A93425BD0B4
:10395400FB681B681C4A934253D0FB681B681B4AD4
:1039640093424BD0FB681B68194A934243D0FB68CF
:103974001B68184A93423BD0FB681B68164A934263
:1039840012D0FB681B68154A93420AD0FB681B6877
:10399400134A934202D14FF400133FE04FF0006307
:1039A4003CE04FF4001339E04FF4001336E000BF5D
:1039B400586402401060024010640240706002408B
:1039C400706402402860024028640240886002401B
:1039D400886402404060024040640240A0600240AB
:1039E400A064024000640240B86002405860024093
:1039F4004FF4001312E04FF400630FE04FF4006340
:103A04000CE04FF4006309E04FF4006306E0202368
:103A140004E0202302E0202300E020238C4AD3602A
:103A24005FE0FB681B688B4A934257D0FB681B68B6
:103A3400894A934250D0FB681B68884A934249D014
:103A4400FB681B68864A934242D0FB681B68854A20
:103A540093423AD0FB681B68834A934232D0FB6896
:103A64001B68824A93422AD0FB681B68804A9342AF
:103A740022D0FB681B687F4A93421AD0FB681B68FC
:103A84007D4A934212D0FB681B687C4A93420AD059
:103A9400FB681B687A4A934202D14FF400131EE07C
:103AA4004FF000631BE04FF4001318E04FF40013D1
:103AB40015E04FF4001312E04FF400630FE04FF4ED
:103AC40000630CE04FF4006309E04FF4006306E088
:103AD400202304E0202302E0202300E020235C4A8A
:103AE4009360FB681B681A46664B9A4260D9FB6870
:103AF4001B68584A934257D0FB681B68564A934246
:103B040050D0FB681B68554A934249D0FB681B6838
:103B1400534A934242D0FB681B68524A93423AD0BC
:103B2400FB681B68504A934232D0FB681B684F4ABB
:103B340093422AD0FB681B684D4A934222D0FB680B
:103B44001B684C4A93421AD0FB681B684A4A93424A
:103B540012D0FB681B68494A93420AD0FB681B6871
:103B6400474A934202D14FF480131EE04FF0806322
:103B74001BE04FF4801318E04FF4801315E04FF46A
:103B8400801312E04FF480630FE04FF480630CE085
:103B94004FF4806309E04FF4806306E0102304E0EF
:103BA400102302E0102300E01023374AD3604FE1D2
:103BB400FB681B681A46354B9A4240F28280FB68C8
:103BC4001B68244A934278D0FB681B68224A9342BC
:103BD40071D0FB681B68214A93426AD0FB681B685A
:103BE4001F4A934263D0FB681B681E4A93425BD012
:103BF400FB681B681C4A934253D0FB681B681B4A32
:103C040093424BD0FB681B68194A934243D0FB682C
:103C14001B68184A93423BD0FB681B68164A9342C0
:103C240012D0FB681B68154A93420AD0FB681B68D4
:103C3400134A934202D14FF480133FE04FF0806364
:103C44003CE04FF4801339E04FF4801336E000BFBA
:103C54000060024010600240106402407060024044
:103C64007064024028600240286402408860024078
:103C7400886402404060024040640240A060024008
:103C8400A06402405864024000640240B8600240EC
:103C94004FF4801312E04FF480630FE04FF480631D
:103CA4000CE04FF4806309E04FF4806306E01023D6
:103CB40004E0102302E0102300E010238C4A9360F8
:103CC400C6E0FB681B681A468A4B9A4260D9FB68B7
:103CD4001B68894A934257D0FB681B68874A934202
:103CE40050D0FB681B68864A934249D0FB681B6826
:103CF400844A934242D0FB681B68834A93423AD079
:103D0400FB681B68814A934232D0FB681B68804A77
:103D140093422AD0FB681B687E4A934222D0FB68F8
:103D24001B687D4A93421AD0FB681B687B4A934206
:103D340012D0FB681B687A4A93420AD0FB681B685E
:103D4400784A934202D14FF480131EE04FF080630F
:103D54001BE04FF4801318E04FF4801315E04FF488
:103D6400801312E04FF480630FE04FF480630CE0A3
:103D74004FF4806309E04FF4806306E0102304E00D
:103D8400102302E0102300E01023674AD3605FE0B1
:103D9400FB681B68584A934257D0FB681B68574A14
:103DA400934250D0FB681B68554A934249D0FB6844
:103DB4001B68544A934242D0FB681B68524A9342A0
:103DC4003AD0FB681B68514A934232D0FB681B68A7
:103DD4004F4A93422AD0FB681B684E4A934222D032
:103DE400FB681B684C4A93421AD0FB681B684B4A19
:103DF400934212D0FB681B68494A93420AD0FB687D
:103E04001B68484A934202D14FF480131EE04FF0DE
:103E140080631BE04FF4801318E04FF4801315E027
:103E24004FF4801312E04FF480630FE04FF480638B
:103E34000CE04FF4806309E04FF4806306E0102344
:103E440004E0102302E0102300E01023364A9360BC
:103E5400FB681B681A46354B9A4240F28280FB6825
:103E64001B68254A934278D0FB681B68234A934217
:103E740071D0FB681B68224A93426AD0FB681B68B6
:103E8400204A934263D0FB681B681F4A93425BD06D
:103E9400FB681B681D4A934253D0FB681B681C4A8D
:103EA40093424BD0FB681B681A4A934243D0FB6889
:103EB4001B68194A93423BD0FB681B68174A93421C
:103EC40012D0FB681B68164A93420AD0FB681B6831
:103ED400144A934202D14FF400233FE04FF00073A1
:103EE4003CE04FF4002339E04FF4002336E000BFF8
:103EF40000640240586002401060024010640240B6
:103F040070600240706402402860024028640240ED
:103F1400886002408864024040600240406402407D
:103F2400A0600240A0640240006002405864024065
:103F34004FF4002312E04FF400730FE04FF40073CA
:103F44000CE04FF4007309E04FF4007306E008231B
:103F540004E0082302E0082300E008238C4AD3602D
:103F64004EE1FB681B681A468A4B9A4260D9FB688B
:103F74001B68894A934257D0FB681B68874A93425F
:103F840050D0FB681B68864A934249D0FB681B6883
:103F9400844A934242D0FB681B68834A93423AD0D6
:103FA400FB681B68814A934232D0FB681B68804AD5
:103FB40093422AD0FB681B687E4A934222D0FB6856
:103FC4001B687D4A93421AD0FB681B687B4A934264
:103FD40012D0FB681B687A4A93420AD0FB681B68BC
:103FE400784A934202D14FF400231EE04FF000734D
:103FF4001BE04FF4002318E04FF4002315E04FF4C6
:10400400002312E04FF400730FE04FF400730CE050
:104014004FF4007309E04FF4007306E0082304E052
:10402400082302E0082300E00823594A9360E7E0EC
:10403400FB681B681A46644B9A4260D9FB681B688C
:10404400554A934257D0FB681B68544A934250D058
:10405400FB681B68524A934249D0FB681B68514A6B
:10406400934242D0FB681B684F4A93423AD0FB68A4
:104074001B684E4A934232D0FB681B684C4A9342F9
:104084002AD0FB681B684B4A934222D0FB681B680A
:10409400494A93421AD0FB681B68484A934212D09B
:1040A400FB681B68464A93420AD0FB681B68454A72
:1040B400934202D14FF400231EE04FF000731BE043
:1040C4004FF4002318E04FF4002315E04FF40023CD
:1040D40012E04FF400730FE04FF400730CE04FF460
:1040E400007309E04FF4007306E0082304E008239A
:1040F40002E0082300E00823344AD36080E0FB6830
:104104001B68254A934278D0FB681B68234A934274
:1041140071D0FB681B68224A93426AD0FB681B6813
:10412400204A934263D0FB681B681F4A93425BD0CA
:10413400FB681B681D4A934253D0FB681B681C4AEA
:1041440093424BD0FB681B681A4A934243D0FB68E6
:104154001B68194A93423BD0FB681B68174A934279
:1041640012D0FB681B68164A93420AD0FB681B688E
:10417400144A934202D14FF400233FE04FF00073FE
:104184003CE04FF4002339E04FF4002336E000BF55
:1041940000640240B86002401060024010640240B3
:1041A400706002407064024028600240286402404B
:1041B40088600240886402404060024040640240DB
:1041C400A0600240A06402405860024000600240C7
:1041D4004FF4002312E04FF400730FE04FF4007328
:1041E4000CE04FF4007309E04FF4007306E0082379
:1041F40004E0082302E0082300E008238A4A9360CD
:10420400FB681B681A46894B9A4260D9FB681B6895
:10421400874A934257D0FB681B68864A934250D022
:10422400FB681B68844A934249D0FB681B68834A35
:10423400934242D0FB681B68814A93423AD0FB68A0
:104244001B68804A934232D0FB681B687E4A9342C3
:104254002AD0FB681B687D4A934222D0FB681B6806
:104264007B4A93421AD0FB681B687A4A934212D065
:10427400FB681B68784A93420AD0FB681B68774A3C
:10428400934202D14FF480231EE04FF080731BE071
:104294004FF4802318E04FF4802315E04FF480237B
:1042A40012E04FF480730FE04FF480730CE04FF48E
:1042B400807309E04FF4807306E0042304E00423D0
:1042C40002E0042300E00423654AD36050E1FB6864
:1042D4001B681A46634B9A4260D9FB681B68544AB0
:1042E400934257D0FB681B68524A934250D0FB68F4
:1042F4001B68514A934249D0FB681B684F4A93425A
:1043040042D0FB681B684E4A93423AD0FB681B6854
:104314004C4A934232D0FB681B684B4A93422AD0E2
:10432400FB681B68494A934222D0FB681B68484AD1
:1043340093421AD0FB681B68464A934212D0FB682A
:104344001B68454A93420AD0FB681B68434A934260
:1043540002D14FF480231EE04FF080731BE04FF432
:10436400802318E04FF4802315E04FF4802312E0FB
:104374004FF480730FE04FF480730CE04FF48073BC
:1043840009E04FF4807306E0042304E0042302E010
:10439400042300E00423324A9360E9E0FB681B68CD
:1043A4001A46314B9A4240F28380FB681B68204ACC
:1043B400934279D0FB681B681E4A934272D0FB6813
:1043C4001B681D4A93426BD0FB681B681B4A9342CF
:1043D40064D0FB681B681A4A93425CD0FB681B6874
:1043E400184A934254D0FB681B68174A93424CD036
:1043F400FB681B68154A934244D0FB681B68144A47
:1044040093423CD0FB681B68124A934234D0FB6849
:104414001B68114A93422CD0FB681B680F4A9342D5
:1044240024D14FF4802340E00060024058640240ED
:1044340010600240106402407060024070640240E8
:104444002860024028640240886002408864024078
:104454004060024040640240A0600240A064024008
:1044640000640240B8600240586002404FF080731C
:104474001BE04FF4802318E04FF4802315E04FF441
:10448400802312E04FF480730FE04FF480730CE04C
:104494004FF4807309E04FF4807306E0042304E0D2
:1044A400042302E0042300E004238B4AD3605FE08A
:1044B400FB681B68894A934257D0FB681B68884A8B
:1044C400934250D0FB681B68864A934249D0FB68EC
:1044D4001B68854A934242D0FB681B68834A934217
:1044E4003AD0FB681B68824A934232D0FB681B684F
:1044F400804A93422AD0FB681B687F4A934222D0A9
:10450400FB681B687D4A93421AD0FB681B687C4A8F
:10451400934212D0FB681B687A4A93420AD0FB6824
:104524001B68794A934202D14FF480231EE04FF076
:1045340080731BE04FF4802318E04FF4802315E0D0
:104544004FF4802312E04FF480730FE04FF4807334
:104554000CE04FF4807309E04FF4807306E0042309
:1045640004E0042302E0042300E004235A4A936095
:10457400FB681B681A46654B9A425CD9FB681B684A
:10458400564A934253D0FB681B68554A93424CD019
:10459400FB681B68534A934245D0FB681B68524A28
:1045A40093423ED0FB681B68504A934237D0FB6865
:1045B4001B684F4A934230D0FB681B684D4A9342B4
:1045C40029D0FB681B684C4A934222D0FB681B68C5
:1045D4004A4A93421AD0FB681B68494A934212D054
:1045E400FB681B68474A93420AD0FB681B68464A2B
:1045F400934202D14FF480331AE04FF4800317E062
:104604004FF4803314E04FF4803311E04FF48033DF
:104614000EE040230CE040230AE0402308E040235E
:1046240006E0012304E0012302E0012300E001236A
:10463400374AD36041E1FB681B681A46354B9A42FE
:104644007CD9FB681B68254A934273D0FB681B68BE
:10465400234A93426CD0FB681B68224A934265D07C
:10466400FB681B68204A93425ED0FB681B681F4AA4
:10467400934257D0FB681B681D4A934250D0FB6895
:104684001B681C4A934249D0FB681B681A4A934230
:1046940042D0FB681B68194A93421AD0FB681B6816
:1046A400174A934212D0FB681B68164A93420AD0F9
:1046B400FB681B68144A934202D14FF480333AE0FA
:1046C4004FF4800337E04FF4803334E04FF4803309
:1046D40031E04FF480332EE000600240106002406D
:1046E400106402407060024070640240286002401E
:1046F40028640240886002408864024040600240AE
:1047040040640240A0600240A06402405864024039
:1047140000640240B860024040230CE040230AE0F9
:10472400402308E0402306E0012304E0012302E0E3
:10473400012300E001237B4A9360BEE0FB681B6811
:104744001A46794B9A425CD9FB681B68774A9342B4
:1047540053D0FB681B68764A93424CD0FB681B68B5
:10476400744A934245D0FB681B68734A93423ED017
:10477400FB681B68714A934237D0FB681B68704A18
:10478400934230D0FB681B686E4A934229D0FB6881
:104794001B686D4A934222D0FB681B686B4A9342A4
:1047A4001AD0FB681B686A4A934212D0FB681B68E4
:1047B400684A93420AD0FB681B68674A934202D155
:1047C4004FF480331AE04FF4800317E04FF4803342
:1047D40014E04FF4803311E04FF480330EE04023B3
:1047E4000CE040230AE0402308E0402306E00123D4
:1047F40004E0012302E0012300E00123574AD360CF
:104804005BE0FB681B68494A934253D0FB681B6812
:10481400474A93424CD0FB681B68464A934245D0B2
:10482400FB681B68444A93423ED0FB681B68434ABA
:10483400934237D0FB681B68414A934230D0FB68EF
:104844001B68404A934229D0FB681B683E4A934246
:1048540022D0FB681B683D4A93421AD0FB681B6850
:104864003B4A934212D0FB681B683A4A93420AD0EF
:10487400FB681B68384A934202D14FF480331AE034
:104884004FF4800317E04FF4803314E04FF4803387
:1048940011E04FF480330EE040230CE040230AE0A3
:1048A400402308E0402306E0012304E0012302E062
:1048B400012300E00123294A9360FB681B681A68FE
:1048C400FB681B6842F016021A60FB681B685A6991
:1048D400FB681B6842F080025A61FB681B6C002B6A
:1048E40003D1FB689B6C002B07D0FB681B681A681C
:1048F400FB681B6842F008021A60FB681B681A68B0
:10490400FB681B6842F001021A6005E0FB680022A4
:1049140083F834200223FB75FB7D18461837BD4607
:1049240080BD00BF00640240586002401060024035
:1049340010640240706002407064024028600240CB
:10494400286402408860024088640240406002405B
:1049540040640240A0600240A06402400060024043
:1049640080B485B000AFF860B9601346FB71FB7981
:10497400002B04D1FB681B68BA68DA6003E0FB68AB
:104984001B68BA681A61002318461437BD4680BCF8
:10499400704780B485B000AFF860B9607A603B605E
:1049A400FB681B683A685A60FB689B68402B08D117
:1049B400FB681B687A689A60FB681B68BA68DA60EF
:1049C40007E0FB681B68BA689A60FB681B687A6832
:1049D400DA6000BF1437BD4680BC704780B58AB02A
:1049E40000AF786000237B6200233B627B681B6816
:1049F40003F00103002B03D17B681B68082B4CD107
:104A04006D4B00221A6003F079FA786208E003F033
:104A140075FA02467B6AD31A022B01D90323C7E035
:104A2400664B1B6803F00063002BF0D17B685B6866
:104A340047F6C0727A617A6992FAA2F23A613A69E7
:104A4400B2FA82F2D2B203FA02F27B689B684FF0A8
:104A5400E041F961F96991FAA1F1B961B969B1FA71
:104A640081F1C9B28B4055491343C1F88430524B8C
:104A740001221A6003F042FA786208E003F03EFA79
:104A840002467B6AD31A022B01D9032390E04B4BD5
:104A94001B6803F00063002BF0D07B681B6803F0F5
:104AA4000403002B00F083800023FB60434B1B6C4A
:104AB400424A43F080531364404B1B6C03F0805311
:104AC400FB60FB683E4B1B683D4A43F480731360F4
:104AD40003F014FA786208E003F010FA02467B6AE5
:104AE400D31A022B01D9032362E0354B1B6803F46C
:104AF4008073002BF0D0314B1B6F03F440733B6287
:104B04003B6A002B2FD07B68DB6803F440733A6A5E
:104B14009A4228D0294B1B6F23F440733B62294BE4
:104B240001221A60274B00221A60244A3B6A136749
:104B3400224B1B6F03F00103012B14D103F0DEF9A8
:104B440078620AE003F0DAF902467B6AD31A41F28A
:104B54008832934201D903232AE0184B1B6F03F0D8
:104B64000203002BEED07B68DB6803F44073B3F5DB
:104B7400407F0DD1114B9B6823F4F8127B68DB68EE
:104B840023F0704323F440730C4913438B6005E016
:104B94000A4B9B68094A23F4F8139360074B1A6F76
:104BA4007B68DB68C3F30B03044913430B670023DF
:104BB40018462837BD4680BD680047420038024089
:104BC40000700040400E474280B489B000AF786066
:104BD4007B6805221A601D4BD3F8842047F6C07306
:104BE400134047F6C0723A613A6992FAA2F2FA6047
:104BF400FA68B2FA82F2D2B223FA02F27B685A60FD
:104C0400124BD3F8843003F0E0434FF0E042BA6132
:104C1400BA6992FAA2F27A617A69B2FA82F2D2B2EB
:104C240023FA02F27B689A60084B9B6803F4F8133A
:104C3400FB61064B1B6F03F44072FB691A437B68EC
:104C4400DA6000BF2437BD4680BC7047003802409C
:104C540080B588B000AF7860284B00221A6003F05A
:104C64004DF9F86108E003F049F90246FB69D31AEB
:104C7400022B01D903233DE0214B1B6803F00063A1
:104C8400002BF0D17B681B6847F6C0723A613A6921
:104C940092FAA2F2FA60FA68B2FA82F2D2B203FA93
:104CA40002F27B685B684FF0E041B961B96991FA3F
:104CB400A1F179617969B1FA81F1C9B28B401049E6
:104CC4001343C1F884300D4B01221A6003F016F926
:104CD400F86108E003F012F90246FB69D31A022BCB
:104CE40001D9032306E0064B1B6803F00063002B85
:104CF400F0D0002318462037BD4680BD68004742E7
:104D04000038024080B582B000AF0D4B00221A601B
:104D140003F0F4F8786008E003F0F0F802467B68EA
:104D2400D31A022B01D9032306E0064B1B6803F0B8
:104D34000063002BF0D1002318460837BD4680BD20
:104D4400680047420038024080B582B000AF03F0EB
:104D5400D5F878604F4B1B684E4A43F0010313604B
:104D640008E003F0CBF802467B68D31A022B01D982
:104D740003238AE0474B1B6803F00203002BF0D0A7
:104D8400444B1B68434A43F08003136003F0B6F8B6
:104D94007860404B00229A600AE003F0AFF80246C4
:104DA4007B68D31A41F28832934201D903236CE021
:104DB400384B9B6803F00C03002BEED103F09EF8F4
:104DC4007860344B1B68334A23F45023136008E0A3
:104DD40003F094F802467B68D31A642B01D90323A9
:104DE40053E02C4B1B6803F40033002BF0D103F089
:104DF40085F87860274B1B68264A23F0807313607C
:104E040008E003F07BF802467B68D31A642B01D9CF
:104E140003233AE01F4B1B6803F00073002BF0D10F
:104E24001C4B1D4A5A6003F069F87860194B1B68E3
:104E3400184A23F08063136008E003F05FF8024629
:104E44007B68D31A022B01D903231EE0114B1B6884
:104E540003F00063002BF0D10E4B104AC3F88420FA
:104E64000C4B0022DA600B4B4FF0FF325A670C4BAD
:104E74000C4A1A600C4B1B68184602F0FDFF0346EF
:104E8400002B01D0012300E0002318460837BD465B
:104E940080BD00BF00380240103000040030002004
:104EA4005C0900200024F400701C002080B58AB046
:104EB40000AF78607B68002B01D1012336E27B6868
:104EC4001B6803F00103002B50D09E4B9B6803F03A
:104ED4000C03042B0CD09B4B9B6803F00C03082B96
:104EE40012D1984B5B6803F48003B3F5800F0BD1A8
:104EF400944B1B6803F40033002B36D07B685B684B
:104F0400002B32D1012311E27B685A688E4BD2B256
:104F14001A707B685B68002B13D002F0EFFF3862D5
:104F240008E002F0EBFF02463B6AD31A642B01D976
:104F34000323FBE1834B1B6803F40033002BF0D005
:104F440014E002F0DBFF386208E002F0D7FF02460B
:104F54003B6AD31A642B01D90323E7E1794B1B681D
:104F640003F40033002BF0D100E000BF7B681B6822
:104F740003F00203002B77D0724B9B6803F00C0301
:104F8400002B0BD06F4B9B6803F00C03082B26D12E
:104F94006C4B5B6803F48003002B20D1694B1B68C6
:104FA40003F00203002B05D07B68DB68012B01D0E2
:104FB4000123BBE1634B1B6823F0F8027B681B6988
:104FC400F821B961B96991FAA1F179617969B1FA04
:104FD40081F1C9B28B405B4913430B6044E07B68A9
:104FE400DB68002B2AD0594B01221A6002F086FF9D
:104FF400386208E002F082FF02463B6AD31A022BB1
:1050040001D9032392E14F4B1B6803F00203002BE9
:10501400F0D04C4B1B6823F0F8027B681B69F82125
:105024003961396991FAA1F1F960F968B1FA81F14C
:10503400C9B28B40434913430B6015E0434B002234
:105044001A6002F05BFF386208E002F057FF024684
:105054003B6AD31A022B01D9032367E1394B1B683E
:1050640003F00203002BF0D17B681B6803F00803F4
:10507400002B30D07B685B69002B16D0344B0122A7
:105084001A6002F03BFF386208E002F037FF024684
:105094003B6AD31A022B01D9032347E1294B5B6FE7
:1050A40003F00203002BF0D015E0294B00221A6014
:1050B40002F024FF386208E002F020FF02463B6A57
:1050C400D31A022B01D9032330E11E4B5B6F03F08B
:1050D4000203002BF0D17B681B6803F00403002B50
:1050E40000F08780002387F82730164B1B6C03F0F1
:1050F4008053002B10D10023BB60124B1B6C114A50
:1051040043F0805313640F4B1B6C03F08053BB605C
:10511400BB68012387F827300E4B1B680D4A43F404
:10512400807313600B4B1B6803F48073002B22D134
:10513400084B1B68074A43F48073136002F0DEFED9
:10514400386212E000380240023802400000474250
:10515400800E47420070004002F0D0FE02463B6AD7
:10516400D31A022B01D90323E0E0724B1B6803F42A
:105174008073002BF0D07B689A686F4BD2B21A70A0
:105184007B689B68002B15D002F0B8FE38620AE0F9
:1051940002F0B4FE02463B6AD31A41F288329342CB
:1051A40001D90323C2E0654B1B6F03F00203002BFC
:1051B400EED014E002F0A2FE38620AE002F09EFE95
:1051C40002463B6AD31A41F28832934201D903233F
:1051D400ACE05A4B1B6F03F00203002BEED197F89F
:1051E4002730012B05D1554B1B6C544A23F08053B7
:1051F40013647B689B69002B00F097804F4B9B687E
:1052040003F00C03082B61D07B689B69022B46D109
:105214004B4B00221A6002F071FE386208E002F083
:105224006DFE02463B6AD31A642B01D903237DE049
:10523400424B1B6803F00073002BF0D13F4B5A68BC
:10524400404B13407A68D1697A68126A11437A68CC
:10525400526A920111437A68D26A120611437A683B
:10526400926A5208013A12040A43344913434B60C8
:10527400334B01221A6002F041FE386208E002F06A
:105284003DFE02463B6AD31A642B01D903234DE049
:105294002A4B1B6803F00073002BF0D045E0284B29
:1052A40000221A6002F02AFE386208E002F026FEAC
:1052B40002463B6AD31A642B01D9032336E01F4B01
:1052C4001B6803F00073002BF0D12EE07B689B6910
:1052D400012B01D1012329E0184B5B68FB61FB69B9
:1052E40003F480027B68DB699A421CD1FB6903F0FA
:1052F4003F027B681B6A9A4215D1FB699B09C3F381
:1053040008027B685B6A9A420DD1FB6903F4403260
:105314007B689B6A9A4206D1FB6903F070627B68E2
:10532400DB6A9A4201D0012300E0002318462837A3
:10533400BD4680BD00700040703802400038024015
:10534400600047420080BCF080B586B000AF786052
:1053540039607B68002B01D10123D2E06B4B1B68C1
:1053640003F00F033A689A420CD9684B3A68D2B2F8
:105374001A70664B1B6803F00F033A689A4201D017
:105384000123BEE07B681B6803F00203002B20D0DE
:105394007B681B6803F00403002B05D05C4B9B68FF
:1053A4005B4A43F4E05393607B681B6803F0080393
:1053B400002B05D0564B9B68554A43F460439360D9
:1053C400534B9B6823F0F0027B689B68504913435E
:1053D4008B607B681B6803F00103002B40D07B6863
:1053E4005B68012B07D14A4B1B6803F40033002B85
:1053F40015D1012385E07B685B68022B07D1444B00
:105404001B6803F00073002B09D1012379E0404BA2
:105414001B6803F00203002B01D1012371E03C4B14
:105424009B6823F003027B685B68394913438B60F4
:1054340002F064FD78610AE002F060FD02467B69D7
:10544400D31A41F28832934201D9032359E0304BF5
:105454009B6803F00C027B685B689B009A42EBD16B
:105464002A4B1B6803F00F033A689A420CD2274B6D
:105474003A68D2B21A70254B1B6803F00F033A68DE
:105484009A4201D001233CE07B681B6803F00403CB
:10549400002B08D01E4B9B6823F4E0527B68DB682A
:1054A4001B4913438B607B681B6803F00803002BC4
:1054B40009D0174B9B6823F460427B681B69DB00AF
:1054C400134913438B6000F0ABF80146104B9B6803
:1054D40003F0F003F0223A613A6992FAA2F2FA6018
:1054E400FA68B2FA82F2D2B2D3400A4AD35C21FA01
:1054F40003F3094A1360094B1B68184602F0BCFC0D
:10550400002318461837BD4680BD00BF003C02404A
:1055140000380240B09A00085C090020701C00208A
:1055240080B58CB000AFF860B9607A60FB68002B7E
:1055340029D10023BB612B4B1B6B2A4A43F0010387
:105544001363284B1B6B03F00103BB61BB694FF46E
:105554008073FB6102233B620323BB6200237B62F3
:105564000023FB6207F11C0319461F4803F01AF9D4
:105574001C4B9B6823F0EC62B9687B680B431949A8
:1055840013438B6029E000237B61164B1B6B154A88
:1055940043F004031363134B1B6B03F004037B619D
:1055A4007B694FF40073FB6102233B620323BB62FC
:1055B40000237B620023FB6207F11C0319460B489E
:1055C40003F0F0F8074B9B6823F078427B68D9001E
:1055D400BB680B43034913438B6000BF3037BD46A0
:1055E40080BD00BF003802400000024000080240B5
:1055F40080B400AF034B01221A6000BFBD4680BCDB
:10560400704700BF4C00474280B400AF034B0022F8
:105614001A6000BFBD4680BC704700BF4C004742C3
:105624002DE9B04F94B000AF00237B640023FB64EA
:1056340000233B640023BB647C4B9B6803F00C0396
:10564400082B0DD0082B00F2E780002B02D0042B8E
:1056540003D0E1E0764BBB64E1E0764BBB64DEE073
:10566400724B5B6803F03F037B64704B5B6803F42D
:105674008003002B65D06D4B5B689B090022BB63E4
:10568400FA63BB6BC3F308033B6300237B63D7E973
:105694000C4522462B464FF000004FF00001590103
:1056A40041EAD261500102460B462146511A396142
:1056B400294663EB01037B614FF000024FF00003C6
:1056C400D7E904AB59468B01514643EA91635146ED
:1056D4008A01D446B2EB0C08594663EB01094FF03A
:1056E40000024FF000034FEAC90343EA58734FEA3C
:1056F400C80290469946234618EB0303BB602B4629
:1057040049EB0303FB604FF000024FF00003D7E9BD
:10571400024529464B0220462946044643EAD4530F
:1057240001464A02104619467B6C0022BB62FA62AB
:10573400D7E90A23FAF78CFD02460B461346FB64AD
:105744005CE03A4B5B689B09002218461146C0F3A3
:1057540008033B6200237B62D7E9088942464B4633
:105764004FF000004FF00001590141EAD2615001AD
:1057740002460B46C446B2EB0C0A404649468C46E8
:1057840063EB0C0B4FF000024FF000034FEA8B1356
:1057940043EA9A634FEA8A12B2EB0A0463EB0B05FD
:1057A4004FF000024FF00003EB0043EA5473E200B1
:1057B40014461D460346E3183B600B4645EB0303C2
:1057C4007B604FF000024FF00003D7E90045294603
:1057D4008B0220462946044643EA945301468A0232
:1057E400104619467B6C0022BB61FA61D7E9062397
:1057F400FAF72EFD02460B461346FB640B4B5B681F
:105804001B0C03F0030301335B003B64FA6C3B6C39
:10581400B2FBF3F3BB6402E0054BBB6400BFBB6C9B
:1058240018465037BD46BDE8B08F00BF003802406F
:105834000024F40000127A0080B400AF024B1B680D
:105844001846BD4680BC70475C09002080B582B014
:1058540000AFFFF7F1FF01460B4B9B6803F4E053E5
:105864004FF4E0527A607A6892FAA2F23A603A68A7
:10587400B2FA82F2D2B2D340044AD35C21FA03F3DF
:1058840018460837BD4680BD00380240C09A00085B
:1058940080B582B000AFFFF7CFFF01460B4B9B688A
:1058A40003F460434FF460427A607A6892FAA2F299
:1058B4003A603A68B2FA82F2D2B2D340044AD35C74
:1058C40021FA03F318460837BD4680BD003802406C
:1058D400C09A000880B48BB000AF78607B680F2258
:1058E4001A605C4B1B6803F48023B3F5802F03D14B
:1058F4007B6805225A600DE0564B1B6803F4803325
:10590400B3F5803F03D17B6801225A6002E07B68D3
:1059140000225A604F4B1B6803F00103012B03D193
:105924007B680122DA6002E07B680022DA60494B7E
:105934001B6803F0F803F8227A627A6A92FAA2F2F8
:105944003A623A6AB2FA82F2D2B223FA02F27B687B
:105954001A61404B1B6F03F00403042B03D17B68D3
:1059640005229A600CE03B4B1B6F03F00103012BF3
:1059740003D17B6801229A6002E07B6800229A606E
:10598400344B5B6F03F00103012B03D17B680122CD
:105994005A6102E07B6800225A612E4B1B6803F0B7
:1059A4008073B3F1807F03D17B6802229A6102E0A5
:1059B4007B6801229A61274B5B6803F480027B6851
:1059C400DA61244B5B6803F03F027B681A62214B67
:1059D4005A6847F6C073134047F6C072FA60FA6813
:1059E40092FAA2F2BA60BA68B2FA82F2D2B223FA96
:1059F40002F27B685A62174B5B6803F4403303F589
:105A040080335B004FF440327A617A6992FAA2F2F1
:105A14003A613A69B2FA82F2D2B223FA02F27B68AC
:105A24009A620C4B5B6803F070634FF07062FA612A
:105A3400FA6992FAA2F2BA61BA69B2FA82F2D2B2FD
:105A440023FA02F27B68DA6200BF2C37BD4680BCC1
:105A5400704700BF0038024080B483B000AF786064
:105A640039607B680F221A60114B9B6803F00302B4
:105A74007B685A600E4B9B6803F0F0027B689A6067
:105A84000B4B9B6803F4E0527B68DA60084B9B681D
:105A9400DB0803F4E0527B681A61064B1B6803F0D1
:105AA4000F023B681A6000BF0C37BD4680BC7047CC
:105AB40000380240003C024080B500AF064BDB6872
:105AC40003F08003802B04D100F00AF8034B8022FA
