:020000040800F2
:100000000000022061050008112000081D200008E2
:1000100023200008292000082F20000800000000ED
:100020000000000000000000000000003520000873
:1000300041200008000000004D2000085920000861
:10004000B1050008B1050008B1050008B1050008B8
:10005000B1050008B1050008B1050008B1050008A8
:10006000B1050008B1050008B1050008B105000898
:10007000B1050008B1050008B1050008B105000888
:10008000B1050008B1050008B1050008B105000878
:10009000B1050008B1050008B1050008B105000868
:1000A000B1050008B1050008B1050008B105000858
:1000B000B1050008B1050008B1050008B105000848
:1000C000B1050008B1050008B1050008B105000838
:1000D000B1050008B1050008B10500086520000859
:1000E000B1050008B1050008B1050008B105000818
:1000F000B1050008B1050008B1050008B105000808
:10010000B1050008B1050008B1050008B1050008F7
:10011000B1050008B1050008B1050008B1050008E7
:10012000B1050008B1050008B1050008B1050008D7
:10013000B1050008B1050008B1050008B1050008C7
:10014000B1050008B1050008B1050008B1050008B7
:10015000B1050008B1050008B1050008B1050008A7
:10016000B1050008B1050008B1050008B105000897
:10017000B1050008B1050008B10500080000000045
:04018000B1050008BD
:1001880010B5054C237833B9044B13B10448AFF3C9
:1001980000800123237010BDA00100200000000092
:1001A800E4F8000808B5034B1BB103490348AFF353
:1001B800008008BD00000000A4010020E4F8000849
:1001C800A3F5803A704700BF174B002B08BF134BAD
:1001D8009D46FFF7F5FF00218B460F461348144A4A
:1001E800121A0EF0FDFD0E4B002B00D098470D4B58
:1001F800002B00D098470020002104000D000D4876
:10020800002802D00C48AFF300800EF0B7FD2000A4
:10021800290004F04DFF0EF09DFD00BF000008000E
:10022800000000000000000000000000A001002005
:1002380080020020000000000000000030140108C7
:1002480000000020A0010020A00100208002002062
:1002580053B94AB9002908BF00281CBF4FF0FF3125
:100268004FF0FF3000F076B9ADF1080C6DE904CE1F
:1002780000F006F8DDF804E0DDE9022304B0704779
:100288002DE9F047089E0D4604468846002B4DD1BF
:100298008A42944668D9B2FA82F252B101FA02F35C
:1002A800C2F1200120FA01F10CFA02FC41EA03082C
:1002B80094404FEA1C41B8FBF1F71FFA8CFE01FB92
:1002C800178807FB0EF0230C43EA084398420AD923
:1002D8001CEB030307F1FF3580F01E81984240F2C2
:1002E8001B81023F63441B1AB3FBF1F001FB10337F
:1002F80000FB0EFEA4B244EA0344A6450AD91CEB4F
:10030800040400F1FF3380F00981A64540F206811C
:10031800644402380021A4EB0E0440EA07401EB1F1
:100328000023D440C6E90043BDE8F0878B4208D9D2
:10033800002E00F0EE800021C6E900050846BDE861
:10034800F087B3FA83F100294AD1AB4202D3824243
:1003580000F2FC80841A65EB030301209846002E06
:10036800E2D0C6E90048DFE702B9FFDEB2FA82F25E
:10037800002A40F09180A1EB0C0001214FEA1C47B4
:100388001FFA8CFEB0FBF7F307FB1300250C45EAB8
:1003980000450EFB03F0A84208D91CEB050503F144
:1003A800FF3802D2A84200F2CE8043462D1AB5FB90
:1003B800F7F007FB10550EFB00FEA4B244EA054413
:1003C800A64508D91CEB040400F1FF3502D2A64566
:1003D80000F2B6802846A4EB0E0440EA03409EE7EC
:1003E800C1F120078B4022FA07FC4CEA030C25FADE
:1003F80007FA4FEA1C49BAFBF9F820FA07F309FB98
:1004080018AA8D401FFA8CFE1D4300FA01F308FB61
:100418000EF02C0C44EA0A44A04202FA01F20BD96D
:100428001CEB040408F1FF3A80F08880A04240F2F7
:100438008580A8F102086444241AB4FBF9F009FB8A
:10044800104400FB0EFEADB245EA0444A64508D9A7
:100458001CEB040400F1FF356CD2A6456AD90238BA
:10046800644440EA0840A0FB0295A4EB0E04AC42A9
:10047800C846AE4656D353D0002E69D0B3EB080217
:1004880064EB0E0422FA01F304FA07F71F43CC4089
:10049800C6E90074002147E70CFA02FCC2F120010A
:1004A80025FA01F34FEA1C4720FA01F195400D4364
:1004B800B3FBF7F107FB11331FFA8CFE280C40EA57
:1004C800034001FB0EF3834204FA02F408D91CEB43
:1004D800000001F1FF382FD283422DD90239604440
:1004E800C01AB0FBF7F307FB1300ADB245EA0045AD
:1004F80003FB0EF0A84208D91CEB050503F1FF38F1
:1005080016D2A84214D9023B6544281A43EA01418D
:1005180038E73146304607E72F46E4E61846F9E65D
:100528004B45A9D2B9EB020865EB0C0E0138A3E7DD
:100538004346EAE7284694E74146D1E7D0467BE7B9
:100548006444023847E7023B65442FE7084606E75C
:100558003146E9E6704700BFDFF834D0002103E0F8
:100568000C4B5B58435004310B480C4B42189A42D1
:10057800F6D30B4A02E0002342F8043B094B9A42A7
:10058800F9D303F017FE0EF0F9FB04F091FD704764
:10059800000002203014010800000020A001002003
:1005A800A001002080020020FEE780B483B000AFE5
:1005B80003460A46FB711346BB71FA79BB7902FA06
:1005C80003F35AB2F979BB79C3F1080341FA03F38B
:1005D8005BB213435BB2DBB218460C37BD4680BC36
:1005E800704790B583B000AF0346FB71FB790121DA
:1005F8001846FFF7DAFF03461C46FB790221184626
:10060800FFF7D3FF03466340DCB2FB7907211846A6
:10061800FFF7CBFF03466340DBB218460C37BD46F5
:1006280090BD90B583B000AF0346FB71FB79032101
:100638001846FFF7BAFF03461C46FB790421184603
:10064800FFF7B3FF03466340DCB2FB790621184687
:10065800FFF7ABFF03466340DBB218460C37BD46D5
:1006680090BD90B585B000AF7860084611461A462F
:100678000346FB700B46BB7013467B707B689B7907
:10068800FB737B68DB79BB737B6807337A68927985
:100698001A707B6805331C787B6804331B7818460E
:1006A800FFF7BFFF03461A467B785340DAB27B68F0
:1006B80006332244D2B21A707B6805337A681279FD
:1006C8001A707B6803331B785CB27B6802331B7833
:1006D8001846FFF786FF03461A46BB781344DBB279
:1006E8005BB263405AB27B680433D2B21A707B683B
:1006F80003337A6892781A707B6801331C787B68B8
:100708001B781846FFF78DFF03461A46FB785340BF
:10071800DAB27B6802332244D2B21A707B680133A2
:100728007A6812781A70FB7B1846FFF75AFF03465F
:100738001A4697F820301344DBB25AB297F90E30B4
:1007480053405BB2DAB27B681A7000BF1437BD46FB
:1007580090BD000080B487B000AF78603960002396
:100768007B610CE07B690C333A68134419787A682A
:100778007B6913440A461A707B6901337B617B6984
:10078800032BEFDD04237B610CE07B69043B3A68B3
:10079800134419787A687B6913440A461A707B698E
:1007A80001337B617B69072BEFDD00237B613CE034
:1007B80000233B6133E03A697B69D31A03F00703EE
:1007C800FB60FB683A68134419787B691A013B6936
:1007D80013441A4AD25C7B6918013B6903440A44F2
:1007E800D1B27A6813440A461A72FB6808333A6829
:1007F800134419787B691A013B69134408330F4A7B
:10080800D25C7B6918013B69034408330A44D1B2BE
:100818007A6813440A461A723B6901333B613B69A3
:10082800072BC8DD7B6901337B617B69072BBFDD43
:1008380000BF00BF1C37BD4680BC704770F9000878
:10084800B0B58AB002AFF860B9607A600023BB77B0
:10085800BB681A78FB681B781344DBB23B75BB682E
:100868005B787B75BB6802331A78FB685B7853400A
:10087800DBB2BB75BB68DB78FB75BB6804331A78E1
:10088800FB689B781344DBB23B76BB685B797B766D
:10089800BB6806331A78FB68DB785340DBB2BB765B
:1008A800BB68DB79FB760023FB771FE0BB7FFA6828
:1008B8001344197ABB7F0133FA6813441C7ABB7F4F
:1008C8000233FA6813441D7ABB7F0333FA68134472
:1008D8001B7A07F1140000932B462246FFF7C1FE4E
:1008E800BB7F0433BB77FB7F0133FB77FB7F1F2B79
:1008F800DCD97A7DFB681B791344DAB27B681A70FD
:100908007B680133BA7D1A70F97DFB685A797B6878
:1009180002334A40D2B21A707B6803333A7E1A70A7
:10092800797EFB689A797B6804330A44D2B21A70DC
:100938007B680533BA7E1A70F97EFB68DA797B68C2
:1009480006334A40D2B21A707B6807333A7D1A7070
:1009580000BF2037BD46B0BD80B5ACB000AF7860F1
:1009680039607B681B6C1B0EDBB23B767B681B6CAB
:100978001B0CDBB27B767B681B6C1B0ADBB2BB767D
:100988007B681B6CDBB2FB767B685B6C1B0EDBB297
:100998003B777B685B6C1B0CDBB27B777B685B6CA3
:1009A8001B0ADBB2BB777B685B6CDBB2FB777B68CF
:1009B8009B6C1B0EDBB287F820307B689B6C1B0C92
:1009C800DBB287F821307B689B6C1B0ADBB287F8A7
:1009D80022307B689B6CDBB287F823307B68DB6C4A
:1009E8001B0EDBB287F824307B68DB6C1B0CDBB298
:1009F80087F825307B68DB6C1B0ADBB287F826306A
:100A08007B68DB6CDBB287F827307B681B681B0EC2
:100A1800DBB23B747B681B681B0CDBB27B747B68A6
:100A28001B681B0ADBB2BB747B681B68DBB2FB74F8
:100A38007B685B681B0EDBB23B757B685B681B0CD5
:100A4800DBB27B757B685B681B0ADBB2BB757B68B6
:100A58005B68DBB2FB7507F1180207F12803114642
:100A68001846FFF777FE07F1080207F1100107F1B2
:100A780028031846FFF7E4FE3B7A1B061A467B7AE2
:100A88001B041343BA7A12021343FA7A1A437B6897
:100A98001A623B7B1B061A467B7B1B041343BA7BFB
:100AA80012021343FA7B1A437B685A627B6800225E
:100AB8009A627B680022DA6200BFB037BD4680BD0B
:100AC80080B489B000AF78602C4B1A687B681344F7
:100AD8002B4A13600023FB610023BB6128E0284BED
:100AE8001A68BB69C3F107039B0022FA03F3DBB260
:100AF80003F00F03FB74FB7C2249BA6912010A4414
:100B080013441B78FB740023FB60FB7CFA681343D7
:100B1800FB60BB69C3F107039B00FA6802FA03F3A1
:100B2800FB60FA69FB681343FB61BB690133BB6176
:100B3800BB69072BD3DD144AFB691360124B1B6892
:100B4800DB027B61104B1B685A0D7B6913430E4A0D
:100B580013600D4B1A680D4B1B6853400C4A136009
:100B6800064B1B68094A1360094B1B68034A13604C
:100B780000BF2437BD4680BC704700BFC4010020B9
:100B8800BC010020F0F90008CC010020C8010020B9
:100B9800C00100202DE9B04F8AB000AFC7E90201BB
:100BA8007A60BB682C4A1360D7E902014FF0000253
:100BB8004FF000030A000023284B1A6000237B62D1
:100BC80013E000233B620AE03B6A9B007A68134407
:100BD8001B681846FFF774FF3B6A01333B623B6AA8
:100BE800072BF1DD7B6A01337B627B6A022BE8DD30
:100BF8000723FB610AE0FB699B007A6813441B68C2
:100C08001846FFF75DFFFB69013BFB61FB69002BA1
:100C1800F1DA114B1B6800229A469346C7E904ABE8
:100C2800D7E904014FF000024FF00003030000224F
:100C38000A49096800200C46054642EA040843EAC6
:100C48000509C7E90489D7E9042310461946283756
:100C5800BD46BDE8B08F00BFC4010020C801002018
:100C68002DE9B0438AB000AF7860396079680968C7
:100C7800002088468146C7E90889796849680020C4
:100C88000A460346C7E90623D7E908014FF00002E0
:100C98004FF0000303000022D7E9060140EA0204EE
:100CA80041EA0305C7E904457B6840331A46D7E99A
:100CB8000401FFF76FFFC7E90201D7E902014FF00E
:100CC80000024FF000030A0000237B681A62BA682A
:100CD8007B685A627B6800229A627B680022DA622B
:100CE80000BF2837BD46BDE8B083000080B58AB094
:100CF80000AF786000233B61274B1B6B264A43F00B
:100D080008031363244B1B6B03F008033B613B6927
:100D18000023FB60204B1B6B1F4A43F0080313633F
:100D28001D4B1B6B03F00803FB60FB680023BB60D3
:100D3800194B1B6C184A43F480231364164B1B6C25
:100D480003F48023BB60BB684FF480737B6102238C
:100D5800BB610123FB6103233B6207237B6207F12D
:100D6800140319460D480DF0C1FC4FF400737B6164
:100D780007237B6207F11403194608480DF0B6FCF7
:100D880001220021272006F0DCFF272006F0F5FFCE
:100D980000BF2837BD4680BD00380240000C024025
:100DA80080B582B000AF78600E4B1B6A0D4A43F4E1
:100DB800802313620B4B1B6A0A4A23F480231362B5
:100DC8004FF4807108480DF02FFE4FF4007106486B
:100DD8000DF02AFE272006F0DEFF00BF0837BD46CB
:100DE80080BD00BF00380240000C024080B485B0CE
:100DF80000AF03460A46FB801346BB80FB88002BE6
:100E080004D1BB88C3F101039BB21AE0BB88002B55
:100E180004D1FB88C3F101039BB212E0FB88BA88B6
:100E280002FB03F3BB60BB689AB2BB681B0CD31A06
:100E3800FB60FB68002B02DCFB680133FB60FB688E
:100E48009BB218461437BD4680BC704780B485B045
:100E580000AF786039600023FB600CE0FB685B0042
:100E68007A681A44FB685B0039680B4412881A8058
:100E7800FB680133FB60FB68072BEFDD65E0FB686F
:100E880003F00703062B1DD1FB6803F10043073B62
:100E98005B003A6813441B885B021AB2FB6803F1D3
:100EA80000430E3B5B0039680B441B88DB099BB28F
:100EB8001BB2534019B2FB685B003A6813448AB20C
:100EC8001A803FE0FB6803F00703072B1DD1FB687E
:100ED80003F100430F3B5B003A6813441B885B0235
:100EE8001AB2FB6803F100430E3B5B0039680B4400
:100EF8001B88DB099BB21BB2534019B2FB685B002D
:100F08003A6813448AB21A801CE0FB6803F1004374
:100F1800073B5B003A6813441B885B021AB2FB6804
:100F280003F10043063B5B0039680B441B88DB096F
:100F38009BB21BB2534019B2FB685B003A6813447A
:100F48008AB21A80FB680133FB60FB68332B96DD9D
:100F580000BF00BF1437BD4680BC704790B589B04C
:100F680000AFF860B9607A60FB681B88BB83FB68D8
:100F78005B887B83FB689B883B83FB68DB88FB8201
:100F88000123FB8359E0BB689A1CBA601B88BA8BA3
:100F980011461846FFF72AFF0346BB83BB689A1C15
:100FA800BA601A887B8B13447B83BB689A1CBA602F
:100FB8001A883B8B13443B83BB689A1CBA601B8816
:100FC800FA8A11461846FFF711FF0346FB82BB68F1
:100FD8009A1CBA601888BA8B3B8B53409BB219464F
:100FE800FFF704FF0346BB82BB689A1CBA601888E7
:100FF8007A8BFB8A53409AB2BB8A13449BB2194638
:10100800FFF7F4FE03467B82BA8A7B8A1344BB82CD
:101018007A8ABB8B5340BB83BA8AFB8A5340FB82D4
:10102800BA8A7B8B5340BB827A8A3B8B53407B8343
:10103800BB8A3B83FB8B0133FB83FB8B082BA2D939
:10104800BB689A1CBA601B88BA8B11461846FFF712
:10105800CDFE03461A467B681A80BB689A1CBA60A4
:1010680019887B6802333A8B0A4492B21A80BB68AB
:101078009A1CBA6019887B6804337A8B0A4492B246
:101088001A80BB689A1CBA601A887B689C1DFB8A08
:1010980019461046FFF7AAFE0346238000BF2437EF
:1010A800BD4690BD80B582B000AF786039607B687E
:1010B80019463868FFF7CAFE00BF0837BD4680BD2D
:1010C80080B584B000AFF860B9607A60FB687A6870
:1010D8001946B868FFF742FF00BF1037BD4680BD0C
:1010E80080B5A4B000AF786039607B681B681B0CC2
:1010F8009BB23B827B681B689BB27B827B685B6888
:101108001B0C9BB2BB827B685B689BB2FB827B68D3
:101118001B6C9BB23B837B685B6C9BB27B837B685D
:101128009B6C9BB2BB837B68DB6C9BB2FB837B684D
:101138001B6D9BB23B847B685B6D9BB27B847B6839
:101148009B6D9BB2BB847B68DB6D9BB2FB8407F114
:10115800180207F1280311461846FFF7A3FF07F105
:10116800080207F1100107F128031846FFF7A8FF46
:101178003B891B041A467B891A437B681A62BB8920
:101188001B041A46FB891A437B685A627B68002253
:101198009A627B680022DA6200BF9037BD4680BD44
:1011A80080B483B000AF786039607B681A683B68A8
:1011B8001B685A407B681A607B68043319683B686F
:1011C80004331A687B6804334A401A607B68083322
:1011D80019683B6808331A687B6808334A401A6004
:1011E8007B680C3319683B680C331A687B680C33CE
:1011F8004A401A6000BF0C37BD4680BC704780B4B7
:1012080083B000AF786039603B681A687B681A6001
:101218007B6804333A6852681A607B6808333A6816
:1012280092681A607B680C333A68D2681A6000BF0B
:101238000C37BD4680BC704780B485B000AFF860FD
:10124800B9607A60BB681A687B689A40BB680433E7
:1012580019687B68C3F1200321FA03F31A43FB687A
:101268001A60BB6804331A687B6802FA03F1BB682A
:1012780008331A687B68C3F12003DA40FB6804333B
:101288000A431A60BB6808331A687B6802FA03F1DC
:10129800BB680C331A687B68C3F12003DA40FB682B
:1012A80008330A431A60BB680C331A687B6802FA71
:1012B80003F1BB681A687B68C3F12003DA40FB6856
:1012C8000C330A431A6000BF1437BD4680BC704710
:1012D80080B485B000AFF860B9607A60BB680C3341
:1012E8001A687B6822FA03F1BB6808331A687B68BE
:1012F800C3F120039A40FB680C330A431A60BB68A9
:1013080008331A687B6822FA03F1BB6804331A6849
:101318007B68C3F120039A40FB6808330A431A60CC
:10132800BB6804331A687B6822FA03F1BB681A6841
:101338007B68C3F120039A40FB6804330A431A60B0
:10134800BB681A687B68DA40BB680C3319687B682D
:10135800C3F1200301FA03F31A43FB681A6000BFC4
:101368001437BD4680BC704780B483B000AF786046
:1013780039607B681B681B0EDBB21A464D4B9B5CC1
:101388001A067B681B681B0CDBB219464A4B5B5C70
:101398001B041A437B681B681B0ADBB21946474BC0
:1013A8005B5C1B0213437A681268D2B21146444A46
:1013B800525C13431A463B681A607B6804331B6807
:1013C8001B0EDBB21A463B4B9B5C1A067B68043348
:1013D8001B681B0CDBB21946374B5B5C1B041A43BA
:1013E8007B6804331B681B0ADBB21946334B5B5C12
:1013F8001B0213437A6804321268D2B21146304A8B
:10140800525C1A433B6804331A607B6808331B68D4
:101418001B0EDBB21A46274B9B5C1A067B68083307
:101428001B681B0CDBB21946234B5B5C1B041A437D
:101438007B6808331B681B0ADBB219461F4B5B5CD1
:101448001B0213437A6808321268D2B211461C4A4A
:10145800525C1A433B6808331A607B680C331B687C
:101468001B0EDBB21A46134B9B5C1A067B680C33C7
:101478001B681B0CDBB219460F4B5B5C1B041A4341
:101488007B680C331B681B0ADBB219460B4B5B5C91
:101498001B0213437A680C321268D2B21146084A0A
:1014A800525C1A433B680C331A6000BF0C37BD46C8
:1014B80080BC7047A0FA0008A0FB0008A0FC000848
:1014C800A0FD000880B483B000AF786039607B6805
:1014D8001B681B0EDBB21A464D4B9B5C1A067B68D9
:1014E8001B681B0CDBB219464A4B5B5C1B041A4396
:1014F8007B681B681B0ADBB21946474B5B5C1B0207
:1015080013437A681268D2B21146444A525C1343B4
:101518001A463B681A607B6804331B681B0EDBB2F3
:101528001A463B4B9B5C1A067B6804331B681B0CF2
:10153800DBB21946374B5B5C1B041A437B680433E8
:101548001B681B0ADBB21946334B5B5C1B02134357
:101558007A6804321268D2B21146304A525C1A4391
:101568003B6804331A607B6808331B681B0EDBB2C8
:101578001A46274B9B5C1A067B6808331B681B0CB2
:10158800DBB21946234B5B5C1B041A437B680833A8
:101598001B681B0ADBB219461F4B5B5C1B0213431B
:1015A8007A6808321268D2B211461C4A525C1A4351
:1015B8003B6808331A607B680C331B681B0EDBB270
:1015C8001A46134B9B5C1A067B680C331B681B0C72
:1015D800DBB219460F4B5B5C1B041A437B680C3368
:1015E8001B681B0ADBB219460B4B5B5C1B021343DF
:1015F8007A680C321268D2B21146084A525C1A4311
:101608003B680C331A6000BF0C37BD4680BC70477E
:10161800A0FC0008A0FD0008A0FA0008A0FB000834
:1016280080B48BB000AF786039607B681B681B0E94
:1016380087F827307B681B681B0C87F826307B6887
:101648001B681B0A87F825307B681B6887F82430DD
:101658007B6804331B681B0E87F823307B680433D0
:101668001B681B0C87F822307B6804331B681B0A35
:1016780087F821307B6804331B6887F820307B6843
:1016880008331B681B0EFB777B6808331B681B0C31
:10169800BB777B6808331B681B0A7B777B6808333A
:1016A8001B683B777B680C331B681B0EFB767B68DB
:1016B8000C331B681B0CBB767B680C331B681B0A3E
:1016C8007B767B680C331B683B7697F8242097F869
:1016D80023305340DAB297F821305340DAB2FB7F17
:1016E8005340DAB2BB7F5340DAB2BB7E5340DAB222
:1016F8007B7E5340FB7597F8252097F8223053409E
:10170800DAB297F820305340DAB2FB7F5340DAB2AE
:10171800BB7F5340DAB2FB7E5340DAB23B7E534084
:10172800BB7597F8262097F823305340DAB297F81C
:1017380021305340DAB27B7F5340DAB23B7F5340CB
:10174800DAB2FB7E5340DAB23B7E53407B7597F8A2
:10175800272097F822305340DAB297F820305340C8
:10176800DAB27B7F5340DAB23B7F5340DAB2BB7EBA
:101778005340DAB27B7E53403B7597F8272097F8A1
:1017880025305340DAB297F822305340DAB2FB7F63
:101798005340DAB23B7F5340DAB27B7E5340DAB231
:1017A8003B7E5340FB7497F8262097F8243053402B
:1017B800DAB297F823305340DAB2BB7F5340DAB23B
:1017C8007B7F5340DAB27B7E5340DAB23B7E534094
:1017D800BB7497F8272097F825305340DAB297F86A
:1017E80020305340DAB2BB7F5340DAB27B7F53409C
:1017F800DAB2FB7E5340DAB2BB7E53407B7497F873
:10180800262097F824305340DAB297F82130534015
:10181800DAB2FB7F5340DAB23B7F5340DAB2FB7E49
:101828005340DAB2BB7E53403B7497F8272097F8B1
:1018380026305340DAB297F823305340DAB297F89B
:1018480020305340DAB27B7F5340DAB2BB7E53403C
:10185800DAB23B7E5340FB7397F8272097F826307F
:101868005340DAB297F822305340DAB297F8213071
:101878005340DAB23B7F5340DAB2FB7E5340DAB2D0
:101888007B7E5340BB7397F8252097F8243053404C
:10189800DAB297F822305340DAB297F82130534041
:1018A800DAB2FB7F5340DAB2BB7E5340DAB23B7EFA
:1018B80053407B7397F8252097F824305340DAB2C9
:1018C80097F823305340DAB297F820305340DAB211
:1018D800BB7F5340DAB2FB7E5340DAB27B7E534083
:1018E8003B7397F8262097F825305340DAB297F8DB
:1018F80021305340DAB297F820305340DAB2BB7F38
:101908005340DAB23B7F5340DAB2FB7E5340FB725E
:1019180097F8272097F824305340DAB297F8213007
:101928005340DAB297F820305340DAB2FB7F534085
:10193800DAB27B7F5340DAB2BB7E5340BB7297F872
:10194800272097F824305340DAB297F823305340D1
:10195800DAB297F822305340DAB2BB7F5340DAB29A
:101968003B7F5340DAB27B7E53407B7297F8262048
:1019780097F825305340DAB297F823305340DAB25B
:1019880097F822305340DAB2FB7F5340DAB27B7FBC
:101998005340DAB23B7E53403B72FB7D1A06BB7D57
:1019A8001B041A437B7D1B021A433B7D13431A46D3
:1019B8003B681A60FB7C1A06BB7C1B041A437B7CC1
:1019C8001B021A433B7C1A433B6804331A60FB7BB7
:1019D8001A06BB7B1B041A437B7B1B021A433B7B07
:1019E8001A433B6808331A60FB7A1A06BB7A1B0451
:1019F8001A437B7A1B021A433B7A1A433B680C331F
:101A08001A6000BF2C37BD4680BC704780B588B0CF
:101A180000AFF860B9607A6007F11003F9681846FA
:101A2800FFF7EDFB07F11003B9681846FFF7B8FB9D
:101A380007F1100207F1100311461846FFF794FC4E
:101A480007F1100379681846FFF7EAFD00BF203751
:101A5800BD4680BD80B588B000AFF860B9607A60D7
:101A680007F11003F9681846FFF7C9FB07F11003DF
:101A7800B9681846FFF794FB07F1100207F1100345
:101A880011461846FFF71EFD07F11003796818463E
:101A9800FFF7C6FD00BF2037BD4680BD80B588B0C2
:101AA80000AFF860B9607A603B601322B968B86A21
:101AB800FFF70EFCF968B86AFFF772FBBB6A1033D0
:101AC800132279681846FFF703FCBB6A1033B9681C
:101AD8001846FFF765FBBB6A20331322396818469E
:101AE800FFF7F6FBBB6A203379681846FFF758FB07
:101AF800BB6A30331322F9681846FFF7E9FBBB6A63
:101B0800303339681846FFF74BFBBB6A40331F2256
:101B1800B9681846FFF7DCFBBB6A4033F96818461A
:101B2800FFF73EFBBB6A50331F2279681846FFF760
:101B3800CFFBBB6A5033B9681846FFF731FBBB6A65
:101B480060331F2239681846FFF7C2FBBB6A60334F
:101B580079681846FFF724FBBB6A70331F22F968BF
:101B68001846FFF7B5FBBB6A703339681846FFF7AC
:101B780017FBBB6A80331F22B9681846FFF75CFB66
:101B8800BB6A03F1800107F110031E221846FFF714
:101B980053FBBB6A803307F1100211461846FFF762
:101BA8002EFBBB6A8033F9681846FFF7F9FABB6A5F
:101BB80090331F2279681846FFF73EFBBB6A03F192
:101BC800900107F110031E221846FFF735FBBB6A88
:101BD800903307F1100211461846FFF710FBBB6A55
:101BE8009033B9681846FFF7DBFABB6AA0331F22A7
:101BF80039681846FFF720FBBB6A03F1A00107F11B
:101C080010031E221846FFF717FBBB6AA03307F123
:101C1800100211461846FFF7F2FABB6AA03379683A
:101C28001846FFF7BDFABB6AB0331F22F968184699
:101C3800FFF702FBBB6A03F1B00107F110031E2294
:101C48001846FFF7F9FABB6AB03307F110021146DC
:101C58001846FFF7D4FABB6AB03339681846FFF75D
:101C68009FFABB6AC0331F22B9681846FFF7E4FA27
:101C7800BB6AC033F9681846FFF792FABB6AD033DB
:101C88001F2279681846FFF7D7FABB6AD033B968BC
:101C98001846FFF785FABB6AE0331F2239681846F1
:101CA800FFF7CAFABB6AE03379681846FFF778FA93
:101CB800BB6AF0331F22F9681846FFF7BDFABB6A02
:101CC800F03339681846FFF76BFABB6A03F580737F
:101CD8001322B9681846FFF7AFFABB6A03F5807399
:101CE800F9681846FFF75CFA00BF2037BD4680BD8B
:101CF80090B5A7B002AFF860B9607A607B68802BB6
:101D08001DD1FB680D221A6000233B6100237B6113
:101D18000023BB610023FB6107F140034F491846CC
:101D2800FFF76DFA07F130034D491846FFF767FAD8
:101D380007F120034B491846FFF761FA43E07B6837
:101D4800C02B1FD1FB680F221A60BB681B693B615F
:101D5800BB685B697B610023BB610023FB6107F102
:101D680040033F491846FFF74AFA07F130033D4957
:101D78001846FFF744FA07F1200338491846FFF7D9
:101D88003EFA20E0FB6811221A60BB681B693B61C0
:101D9800BB685B697B61BB689B69BB61BB68DB69CE
:101DA800FB6107F140032F491846FFF728FA07F1AE
:101DB80030032A491846FFF722FA07F12003284979
:101DC8001846FFF71CFA07F18003B9681846FFF7B1
:101DD80016FA07F1700207F1400107F1800318466F
:101DE800FFF714FE07F1100207F1700311461846B9
:101DF800FFF7D6F907F1600207F1300107F1700328
:101E08001846FFF727FE07F1800207F16003114625
:101E18001846FFF7C5F907F1500207F1200107F14D
:101E280060031846FFF7F2FD07F1700207F150034F
:101E380011461846FFF7B4F9FB68043307F150045C
:101E480007F1600207F1700107F180000093234653
:101E5800FFF724FE00BF9437BD4690BD70FA000816
:101E680080FA000890FA000890B589B000AFF860D1
:101E7800B9607A600023FB610023BB61234A07F144
:101E8800100392E8030083E80300B9687868FFF755
:101E9800B6F90123FB6115E0FB6903F001039B0020
:101EA80020333B4453F8104CBB695A1CBA611B01E0
:101EB800FA68134404337A6819467868A047FB69BE
:101EC8000133FB61FB681B68023BFA699A42E3D95C
:101ED800BB695A1CBA611B01FA68134404331946DA
:101EE8007868FFF75DF979687868FFF7EBFABB69FE
:101EF8005A1CBA611B01FA681344043319467868FE
:101F0800FFF74EF900BF2437BD4690BD24F90008FD
:101F180080B5C8B000AF07F59073A3F58E7318604D
:101F280007F59073A3F59073196007F59073A3F5FF
:101F38008E731B6803F1400107F59073A3F5907346
:101F48001A6807F10C031846FFF7D2FE07F59073DD
:101F5800A3F58E73196807F59073A3F58E731B6844
:101F680003F1200207F10C031846FFF77DFF00BFBD
:101F780007F59077BD4680BD80B483B000AF786028
:101F88007B681B6803F00403042B0CBF01230023A8
:101F9800DBB218460C37BD4680BC704780B483B0AE
:101FA80000AF78607B681B6803F02003202B0CBF10
:101FB80001230023DBB218460C37BD4680BC7047AE
:101FC80080B483B000AF78607B68DB6803F02003DF
:101FD800202B0CBF01230023DBB218460C37BD466B
:101FE80080BC704780B483B000AF78607B685B6961
:101FF80003F00103012B0CBF01230023DBB21846B9
:102008000C37BD4680BC704780B400AF00BFBD46EA
:1020180080BC704780B400AFFEE780B400AFFEE735
:1020280080B400AFFEE780B400AFFEE780B400AF35
:1020380000BFBD4680BC704780B400AF00BFBD463E
:1020480080BC704780B400AF00BFBD4680BC7047FD
:1020580080B500AF0BF0E4FE00BF80BD80B500AFD7
:102068000E48FFF79BFF0346002B07D00B48FFF7EE
:10207800A7FF0346002B01D003F040F90748FFF7FC
:10208800B1FF0346002B07D00448FFF775FF03464E
:10209800002B01D003F064F900BF80BD0048004068
:1020A80080B400AF00BFBD4680BC704780B400AFAD
:1020B80001231846BD4680BC704780B582B000AF8A
:1020C800786039600CF040FE034616221A604FF023
:1020D800FF3318460837BD4680BD80B582B000AFD3
:1020E80078604FF0FF317868FFF7E7FFFEE780B5CB
:1020F80086B000AFF860B9607A6000237B610AE0BF
:10210800AFF300800146BB685A1CBA60CAB21A70A5
:102118007B6901337B617A697B689A42F0DB7B6873
:1021280018461837BD4680BD80B586B000AFF86048
:10213800B9607A6000237B6109E0BB685A1CBA6009
:102148001B781846AFF300807B6901337B617A699D
:102158007B689A42F1DB7B6818461837BD4680BD1C
:1021680080B483B000AF78604FF0FF3318460C3767
:10217800BD4680BC704780B483B000AF78603960DA
:102188003B684FF400525A60002318460C37BD468E
:1021980080BC704780B483B000AF786001231846D4
:1021A8000C37BD4680BC704780B485B000AFF8607E
:1021B800B9607A60002318461437BD4680BC704762
:1021C8000EB480B482B000AF78604FF0FF33184689
:1021D8000837BD4680BC03B0704780B582B000AFF9
:1021E80078600CF0B1FD03460A221A604FF0FF3305
:1021F80018460837BD4680BD80B582B000AF78600C
:102208000CF0A2FD034602221A604FF0FF33184675
:102218000837BD4680BD80B483B000AF78604FF00A
:10222800FF3318460C37BD4680BC704780B483B076
:1022380000AF786039603B684FF400525A60002361
:1022480018460C37BD4680BC704780B582B000AFD9
:10225800786039600CF078FD03461F221A604FF051
:10226800FF3318460837BD4680BD80B500AF0CF077
:102278006BFD03460B221A604FF0FF33184680BDF2
:1022880080B584B000AFF860B9607A600CF05CFD8E
:1022980003460C221A604FF0FF3318461037BD462C
:1022A80080BD2DE9F00F84B000AFC7E902017A6064
:1022B800D7E902237968A1F12006C1F1200003FAC9
:1022C80001F902FA06F649EA060922FA00F049EA93
:1022D800000902FA01F87968494201F03F01C1F1A9
:1022E8002006A1F1200022FA01F403FA06F634438D
:1022F80023FA00F0044323FA01F548EA040A49EAFC
:10230800050B54465D4622462B46104619461037A3
:10231800BD46BDE8F00F70472DE9F00F84B000AF5F
:10232800C7E902017A60D7E902237968C1F120067A
:10233800A1F1200022FA01F803FA06F648EA060895
:1023480023FA00F048EA000823FA01F979684942BB
:1023580001F03F01A1F12006C1F1200003FA01F5C7
:1023680002FA06F6354322FA00F0054302FA01F4B0
:1023780048EA040A49EA050B54465D4622462B46BC
:10238800104619461037BD46BDE8F00F70472DE9D5
:10239800B04F82B000AFC7E900010122D7E90001C0
:1023A800FFF77FFF804689460822D7E90001FFF73B
:1023B80078FF02460B4608EA020409EA03050222EE
:1023C800D7E90001FFF76DFF02460B4684EA020ACF
:1023D80085EA030B52465B46104619460837BD4648
:1023E800BDE8B08F2DE9B04F86B000AF7861396194
:1023F800C7E902237B69D3E9002310461946FFF792
:10240800C6FF3B69D3E9002380EA020CC7F800C085
:102418004B407B603B69D7E90012C3E900123B6976
:10242800D3E90001D7E9022380EA020A81EA030B13
:102438003B69C3E900AB3B69D3E900231046194661
:10244800FFF7A5FF7B69D3E9002380EA020881EA48
:1024580003097B69C3E900897B69D3E90001D7E9EE
:102468000E2380EA020481EA03057B69C3E900457B
:1024780000BF1837BD46BDE8B08F0000000000005F
:102488002DE9B04FADF5087D00AFC7F80402C7F8D5
:1024980000121346A7F8FE316FF003024FF0FF3326
:1024A800C7E98223B7F8FE31802B40F02881D7F89E
:1024B8000422442313700FF66813D3E90023C7E9F5
:1024C8008623D7F80032D3E90201D7F80432C3E9EA
:1024D8000201D7F80032D3E90001D7F80432C3E982
:1024E80004014FF002024FF00003C7E9842394E08F
:1024F800D7E9862302F00103C7F8F0310023C7F8B3
:10250800F431D7E98223D7E97C0184468CEA020CAE
:10251800C7F8E8C14B40C7F8EC31D7E98423911ECE
:10252800C7F8E01143F1FF33C7F8E431D7F80422C4
:10253800D7F8E0310133DB001344D3E90023D7E9AE
:102548007A0184468CEA020CC7F8D8C14B40C7F818
:10255800DC31D7E98423511EC7F8D01143F1FF338A
:10256800C7F8D431D7F80422D7F8D0310133DB00CB
:102578001344D3E900010322FFF7CEFE02460B46BF
:10258800D7E9760184468CEA020CC7F8C8C14B40EB
:10259800C7F8CC31D7E98423511EC7F8C01143F1DD
:1025A800FF33C7F8C431D7F80422D7F8C031013354
:1025B800DB001344D3E900010422FFF7ADFE024615
:1025C8000B46D7E9720184468CEA020CC7F8B8C1F9
:1025D8004B40C7F8BC31D7F80422D7F81032013382
:1025E800DB001344D7E96E12C3E90012D7E986234A
:1025F8004FF000004FF00001500840EAC37059083E
:10260800C7E98601D7E98423511C396143F10003E6
:102618007B61D7E90423C7E98423D7E98423422AC5
:1026280073F10003FFF464AFD7F80432D3E98201F1
:10263800D7E9822380EA020481EA0305D7F8043245
:10264800D3E984010322FFF767FE02460B4684EABA
:102658000201C7F8B0116B40C7F8B431D7F804329B
:10266800D3E984010422FFF757FE02460B46D7E957
:102678006C0104465440C7F8A8415940C7F8AC114A
:10268800D7E96A341A4682F00102C7F8A021234626
:10269800C7F8A431D7F80432D7E96812C3E986121B
:1026A800D7F80432D3E98401D7E9822380EA020A01
:1026B80081EA030BD7F80432D3E986010322FFF736
:1026C8002BFE02460B468AEA02088BEA0309D7F872
:1026D8000432D3E986010422FFF71EFE02460B46A8
:1026E80088EA0201C7F8981189EA0303C7F89C3100
:1026F800D7F80432D7E96612C3E988128AE3B7F833
:10270800FE31C02B40F03A81D7F8042245231370DC
:102718000FF21473D3E90023C7E98623D7F80032F0
:10272800D3E90401D7F80432C3E90201D7F800322B
:10273800D3E90201D7F80432C3E90401D7F800321B
:10274800D3E90001D7F80432C3E906014FF00302C8
:102758004FF00003C7E9842390E0D7E9862302F00D
:102768000103C7F890310023C7F89431D7E98223D1
:10277800D7E9640104465440C7F888414B40C7F87C
:102788008C31D7E98423D11EC7F8801143F1FF3378
:10279800C7F88431D7F80422D7F880310133DB0039
:1027A8001344D3E90023D7E9620104465440C7F82B
:1027B80078414B40C7F87C31D7E98423511EC7F8CC
:1027C800701143F1FF33C7F87431D7F80422D7F8F2
:1027D80070310133DB001344D3E900010322FFF712
:1027E8009BFD02460B46D7E95E0104465440C7F8F4
:1027F80068414B40C7F86C31D7E98423511EC7F8AC
:10280800601143F1FF33C7F86431D7F80422D7F8D1
:1028180060310133DB001344D3E900010422FFF7E0
:102828007BFD02460B46D7E95A0104465440C7F8D7
:1028380058414B40C7F85C31D7F80422D7F810321A
:102848000133DB001344D7E95612C3E90012D7E974
:1028580086234FF000004FF00001500840EAC37093
:102868005908C7E98601D7E98423511CB96043F1A7
:102878000003FB60D7E90234C7E98434D7E984232D
:10288800432A73F10003FFF468AFD7F80432D3E9A1
:102898008201D7E9822380EA0204C7F850414B40FD
:1028A800C7F85431D7F80432D3E986010322FFF779
:1028B80033FD02460B46D7E9540104465440C7F895
:1028C80048415940C7F84C11D7F80432D3E986017A
:1028D8000422FFF721FD02460B46D7E952010446C0
:1028E8005440C7F840415940C7F84411D7F804325A
:1028F800D7E95012C3E98812D7F80432D3E9840122
:10290800D7E9822380EA0204C7F838414B40C7F868
:102918003C31D7F80432D3E988010322FFF7FCFCE5
:1029280002460B46D7E94E0104465440C7F83041E9
:102938005940C7F83411D7F80432D3E98801042282
:10294800FFF7EAFC02460B46D7E94C01044654401F
:10295800C7F828415940C7F82C11D7E94A341A4614
:1029680082F00102C7F820212346C7F82431D7F89E
:102978000432D7E94812C3E98A124BE2D7F8042295
:10298800482313700FF2A843D3E90023C7E986232D
:10299800D7F80032D3E90601D7F80432C3E90201B7
:1029A800D7F80032D3E90401D7F80432C3E90401A7
:1029B800D7F80032D3E90201D7F80432C3E9060197
:1029C800D7F80032D3E90001D7F80432C3E9080187
:1029D8004FF004024FF00003C7E98423CBE0D7E9A6
:1029E800862302F00103C7F818310023C7F81C3109
:1029F800D7E98223D7E9460104465440C7F8104175
:102A08004B40C7F81431D7E98423111FC7F80811C0
:102A180043F1FF33C7F80C31D7F80422D7F808314F
:102A28000133DB001344D3E90023D7E9440104460A
:102A38005440C7F800414B40C7F80431D7E9842314
:102A4800511EC7F8F81043F1FF33C7F8FC30D7F828
:102A58000422D7F8F8300133DB001344D3E900012E
:102A68000322FFF759FC02460B46D7E9400104460A
:102A78005440C7F8F0404B40C7F8F430D7E98423F6
:102A8800D11EC7F8E81043F1FF33C7F8EC30D7F888
:102A98000422D7F8E8300133DB001344D3E90023DC
:102AA800D7E93C0104465440C7F8E0404B40C7F81A
:102AB800E430D7E98423511EC7F8D81043F1FF3317
:102AC800C7F8DC30D7F80422D7F8D8300133DB0058
:102AD8001344D3E900010422FFF71EFC02460B460B
:102AE800D7E9380104465440C7F8D0404B40C7F8EE
:102AF800D430D7E98423D11EC7F8C81043F1FF3377
:102B0800C7F8CC30D7F80422D7F8C8300133DB0037
:102B18001344D3E900010122FFF7FEFB02460B46EE
:102B2800D7E9340104465440C7F8C0404B40C7F8C1
:102B3800C430D7F80422D7F810320133DB0013442D
:102B4800D7E93012C3E90012D7E986234FF0000015
:102B58004FF00001500840EAC3705908C7E98601E0
:102B6800D7E98423511C396043F100037B60D7E91E
:102B78000034C7E98434D7E98423442A73F1000375
:102B8800FFF42DAFD7F80432D3E98201D7E98223C5
:102B980080EA0204C7F8B8404B40C7F8BC30D7F801
:102BA8000432D3E988010322FFF7B6FB02460B463D
:102BB800D7E92E0104465440C7F8B0405940C7F839
:102BC800B410D7F80432D3E98423D7E92C0104469A
:102BD8005440C7F8A8405940C7F8AC10D7F8043299
:102BE800D3E988010422FFF797FB02460B46D7E991
:102BF8002A0104465440C7F8A0405940C7F8A41019
:102C0800D7F80432D3E984010122FFF785FB024695
:102C18000B46D7E9280104465440C7F89840594064
:102C2800C7F89C10D7F80432D7E92612C3E98A12EC
:102C3800D7F80432D3E98401D7E9822380EA020471
:102C4800C7F890404B40C7F89430D7F80432D3E91E
:102C58008A010322FFF760FB02460B46D7E92401ED
:102C680004465440C7F888405940C7F88C10D7F834
:102C78000432D3E98623D7E9220104465440C7F831
:102C880080405940C7F88410D7F80432D3E98A0144
:102C98000422FFF741FB02460B46D7E92001044610
:102CA8005440BC675940F967D7F80432D3E9860124
:102CB8000122FFF731FB02460B46D7E91E01044605
:102CC80054403C6759407967D7E91C341A4682F06A
:102CD8000102BA662346FB66D7F80432D7E91A120E
:102CE800C3E98C12D7F80432D3E98601D7E98223E5
:102CF80080EA02043C664B407B66D7F80432D3E98D
:102D08008C010322FFF708FB02460B46D7E918019E
:102D180004465440BC655940F965D7F80432D3E9F4
:102D28008823D7E91601044654403C655940796523
:102D3800D7F80432D3E98C010422FFF7EDFA0246F2
:102D48000B46D7E9140104465440BC645940F96461
:102D5800D7F80432D3E988010122FFF7DDFA0246E9
:102D68000B46D7E91201044654403C645940796443
:102D7800D7F80432D7E91012C3E98E12D7F8043213
:102D8800D3E98801D7E9822380EA0204BC634B4077
:102D9800FB63D7F80432D3E98E010322FFF7BCFAAC
:102DA80002460B46D7E90E01044654403C6359409D
:102DB8007963D7F80432D3E98A23D7E90C010446AA
:102DC8005440BC625940F962D7F80432D3E98E0105
:102DD8000422FFF7A1FA02460B46D7E90A01044686
:102DE80054403C6259407962D7F80432D3E98A01E9
:102DF8000122FFF791FA02460B46D7E9080104467B
:102E08005440BC615940F961D7F80432D7E9061239
:102E1800C3E9901200BF07F50877BD46BDE8B08F3B
:102E2800F50E2C1985F86973DB35A60712E52CFC1D
:102E38008B676D043A4CC9FD2DE9F0438FB002AFA2
:102E4800F860B9607A60BB68D3E90023C7E9062354
:102E5800BB68D3E90223C7E90423FB681B78452B29
:102E68004FD1002387F82F3021E097F82F30FA68E8
:102E78000133DB001344D3E9000197F82F30013305
:102E8800FA680133DB001344D3E9002307F1100C7F
:102E980007F11806CDE9002302460B466146304685
:102EA800FFF7A0FA97F82F30023387F82F3097F8FA
:102EB8002F30432BD9D9D7E9062310461946FFF7F7
:102EC80066FAD7E9042380EA020881EA0309C7E918
:102ED8000489FB68D3E98A01D7E9042380EA02045C
:102EE80081EA0305C7E90445D7E90623C7E90823AA
:102EF800D7E90423C7E90623D7E90823C7E9042348
:102F08002BE0002387F82F3021E097F82F30FA685C
:102F18000133DB001344D3E9000197F82F30013364
:102F2800FA680133DB001344D3E9002307F11005E5
:102F380007F11804CDE9002302460B46294620462E
:102F4800FFF750FA97F82F30023387F82F30FB68D5
:102F58001B7897F82F209A42D7D3D7E906237968A8
:102F6800C1E900237B6803F10801D7E90423C1E91B
:102F7800002300BF3437BD46BDE8F0832DE9B04FCC
:102F8800ADF5647D00AF07F56473A3F53B73186076
:102F980007F56473A3F53C73196007F56473A3F52B
:102FA8003B731B681B6800221C461546C7E9E245AF
:102FB80007F56473A3F53B731B685B6800229846AA
:102FC8009146C7E9E08907F56473A3F53B731B686D
:102FD8009B6800229A469346C7E9DEAB07F56473FF
:102FE800A3F53B731B68DB6800223B647A64D7E96E
:102FF8001034C7E9DC3407F56473A3F53B731B6829
:103008001B6C0022BB63FA63D7E90E34C7E9DA34D4
:1030180007F56473A3F53B731B685B6C00223B6385
:103028007A63D7E90C34C7E9D83407F56473A3F594
:103038003B731B689B6C0022BB62FA62D7E90A34B7
:10304800C7E9D63407F56473A3F53B731B68DB6CDB
:1030580000223B627A62D7E90834C7E9D43407F51D
:103068006473A3F53B731B681B6D0022BB61FA6197
:10307800D7E90634C7E9D23407F56473A3F53B737F
:103088001B685B6D00223B617A61D7E90434C7E9AC
:10309800D03407F56473A3F53B731B689B6D00225E
:1030A800BB60FA60D7E90234C7E9CE3407F5647328
:1030B800A3F53B731B68DB6D00223B607A60D7E9A0
:1030C8000034C7E9CC34D7E9E2234FF000004FF0D1
:1030D800000111000020D7E9E02340EA0204C7F804
:1030E80098400B43C7F89C3007F56473A3F5367313
:1030F800D7E92612C3E90012D7E9DE234FF0000012
:103108004FF0000111000020D7E9DC2340EA020457
:10311800C7F890400B43C7F8943007F56473A3F5DC
:103128003673D7E92412C3E9021207F56473A3F5CD
:103138003C731B68B3F5807F00F0AF8007F56473BC
:10314800A3F53C731B68B3F5807F00F3038107F593
:103158006473A3F53C731B68802B07D007F5647371
:10316800A3F53C731B68C02B47D0F3E0D7E9DA011D
:103178004FF000024FF0000303000022D7E9D80106
:1031880042EA0004C7F888400B43C7F88C3007F5BB
:103198006473A3F53273D7E92212C3E90012D7E9A1
:1031A800D6014FF000024FF0000303000022D7E9D8
:1031B800D40142EA0004C7F880400B43C7F88430C2
:1031C80007F56473A3F53273D7E92012C3E9021235
:1031D80007F56473A3F532714FF000024FF0000356
:1031E800C1E9042307F56473A3F532714FF00002B7
:1031F8004FF00003C1E90623ADE0D7E9DA014FF04B
:1032080000024FF0000303000022D7E9D80142EA88
:103218000004BC670B43FB6707F56473A3F53273BF
:10322800D7E91E12C3E90012D7E9D6014FF0000210
:103238004FF0000303000022D7E9D40142EA00045A
:103248003C670B437B6707F56473A3F53273D7E9D3
:103258001C12C3E90212D7E9D2014FF000024FF065
:10326800000303000022D7E9D00142EA0004BC664B
:103278000B43FB6607F56473A3F53273D7E91A129B
:10328800C3E9041207F56473A3F532714FF0000225
:103298004FF00003C1E906235DE0D7E9DA014FF0FA
:1032A80000024FF0000303000022D7E9D80142EAE8
:1032B80000043C660B437B6607F56473A3F5327321
:1032C800D7E91812C3E90012D7E9D6014FF0000276
:1032D8004FF0000303000022D7E9D40142EA0004BA
:1032E800BC650B43FB6507F56473A3F53273D7E937
:1032F8001612C3E90212D7E9D2014FF000024FF0CB
:10330800000303000022D7E9D00142EA00043C652B
:103318000B437B6507F56473A3F53273D7E9141281
:10332800C3E90412D7E9CE014FF000024FF00003C1
:1033380003000022D7E9CC0142EA0004BC640B4335
:10334800FB6407F56473A3F53273D7E91212C3E976
:10335800061200E000BF07F56473A3F53C731B6811
:103368009AB207F1C80107F1E8031846FFF788F891
:1033780007F1A80207F1B80107F1E8031846FFF7BB
:103388005BFD07F56473A3F53A73D3E900014FF0C9
:1033980000024FF000030A00002307F56473A3F549
:1033A8003B731B681A6207F56473A3F53A73D3E994
:1033B800002307F56473A3F53B731B685A6207F58E
:1033C8006473A3F53A73D3E902014FF000024FF09A
:1033D80000030A00002307F56473A3F53B731B6819
:1033E8009A6207F56473A3F53A73D3E9022307F5E4
:1033F8006473A3F53B731B68DA6200BF07F5647753
:10340800BD46BDE8B08F2DE9F00F84B000AFC7E925
:1034180002017A60D7E902237968A1F12006C1F197
:10342800200003FA01F902FA06F649EA060922FA27
:1034380000F049EA000902FA01F87968494201F006
:103448003F01C1F12006A1F1200022FA01F403FA9C
:1034580006F6344323FA00F0044323FA01F548EA58
:10346800040A49EA050B54465D4622462B46104697
:1034780019461037BD46BDE8F00F70472DE9F00F2B
:1034880084B000AFC7E902017A60D7E902237968FE
:10349800C1F12006A1F1200022FA01F803FA06F68C
:1034A80048EA060823FA00F048EA000823FA01F976
:1034B8007968494201F03F01A1F12006C1F12000DD
:1034C80003FA01F502FA06F6354322FA00F005433D
:1034D80002FA01F448EA040A49EA050B54465D4633
:1034E80022462B46104619461037BD46BDE8F00F58
:1034F80070472DE9B04F84B000AFF860B960C7E9F4
:103508000023FB68D3E900010822FFF7B7FF024652
:103518000B46F968C1E90023FB68D3E90001BB68E1
:10352800D3E9002310EB020A41EB030BFB68C3E964
:1035380000ABFB68D3E90001D7E9002380EA020861
:1035480081EA0309FB68C3E90089BB68D3E9000184
:103558000322FFF758FF02460B46B968C1E900236A
:10356800BB68D3E90001FB68D3E9002380EA0204C1
:1035780081EA0305BB68C3E9004500BF1037BD46B3
:10358800BDE8B08F2DE9B04F9AB000AFF863B963CA
:103598001346FB86FB8E802B32D1FB6B20221A70E0
:1035A800BB6BD3E90223C7E91623BB6BD3E900231E
:1035B800C7E914234FF000024FF00003C7E91823AE
:1035C80017E0D7E91623F86B396E0131C9000144B9
:1035D800C1E9002307F1580107F15000D7E9182382
:1035E800FFF787FFD7E91823541C43F10005C7E903
:1035F8001845D7E91823202A73F10003E1D3E1E045
:10360800FB8EC02B5BD1FB6B21221A70BB6BD3E9FD
:103618000423C7E91623BB6BD3E90223C7E91423A4
:10362800BB6BD3E90023C7E912234FF000024FF028
:103638000003C7E9182336E0D7E91623F86B396E7B
:103648000131C9000144C1E9002307F1580107F11C
:103658005000D7E91823FFF74CFFD7E9182312F1D8
:10366800010843F10009D7E91623F86B08F10101B5
:10367800C9000144C1E90023D7E91823511CB962E4
:1036880043F10003FB6207F1580107F14800D7E94D
:103698000A23FFF72EFFD7E9182312F1020A43F194
:1036A800000BC7E918ABD7E91823202A73F10003E8
:1036B800C2D3D7E91623F96BC1E9422382E0FB6B39
:1036C80022221A70BB6BD3E90623C7E91623BB6B0A
:1036D800D3E90423C7E91423BB6BD3E90223C7E961
:1036E8001223BB6BD3E90023C7E910234FF0000274
:1036F8004FF00003C7E9182359E0D7E91601FA6B20
:103708003B6E0133DB001344C3E9000107F15801A4
:1037180007F15000D7E91823FFF7EBFED7E9182384
:10372800511C396243F100037B62D7E91601FA6B39
:103738003B6A0133DB001344C3E90001D7E91823CE
:10374800511CB96143F10003FB6107F1580107F10E
:103758004800D7E90623FFF7CCFED7E91823911CC8
:10376800396143F100037B61D7E91601FA6B3B69C4
:103778000133DB001344C3E90001D7E91823911C86
:10378800B96043F10003FB6007F1580107F14000FD
:10379800D7E90223FFF7ADFED7E91823D11C39601A
:1037A80043F100037B60D7E90034C7E91834D7E94F
:1037B8001823212A73F100039FD3D7E91623F96B45
:1037C800C1E9442300BF6837BD46BDE8B08F80B566
:1037D8008AB000AFF860B9607A60BB68D3E90023AB
:1037E800C7E90623BB68D3E90223C7E904230023FA
:1037F80087F8273012E097F82730FA680133DB00A2
:103808001344D3E9002307F1100107F11800FFF76B
:1038180070FE97F82730013387F82730FB681B784C
:1038280097F827209A42E6D3D7E906237968C1E9B1
:1038380000237B6803F10801D7E90423C1E90023C9
:1038480000BF2837BD4680BD2DE9B04FADF5187DC6
:1038580000AF07F51873A3F5DE73186007F5187342
:10386800A3F5E073196007F51873A3F5DE731B68F9
:103878001B6800221C461546C7E9964507F51873CC
:10388800A3F5DE731B685B68002298469146C7E97A
:10389800948907F51873A3F5DE731B689B680022EB
:1038A8009A469346C7E992AB07F51873A3F5DE73FA
:1038B8001B68DB6800223B647A64D7E91034C7E9E7
:1038C800903407F51873A3F5DE731B681B6C002290
:1038D800BB63FA63D7E90E34C7E98E3407F518736A
:1038E800A3F5DE731B685B6C00223B637A63D7E940
:1038F8000C34C7E98C3407F51873A3F5DE731B681D
:103908009B6C0022BB62FA62D7E90A34C7E98A34A1
:1039180007F51873A3F5DE731B68DB6C00223B62A6
:103928007A62D7E90834C7E9883407F51873A3F52C
:10393800DE731B681B6D0022BB61FA61D7E9063490
:10394800C7E9863407F51873A3F5DE731B685B6D4A
:1039580000223B617A61D7E90434C7E9843407F56A
:103968001873A3F5DE731B689B6D0022BB60FA60B9
:10397800D7E90234C7E9823407F51873A3F5DE7373
:103988001B68DB6D00223B607A60D7E90034C7E929
:103998008034D7E996234FF000004FF00001110062
:1039A8000020D7E9942340EA0204C7F898400B4363
:1039B800C7F89C3007F51873A3F5D473D7E9261216
:1039C800C3E90012D7E992234FF000004FF000013D
:1039D80011000020D7E9902340EA0204C7F890407C
:1039E8000B43C7F8943007F51873A3F5D473D7E9D8
:1039F8002412C3E9021207F51873A3F5E0731B68D4
:103A0800B3F5807F00F0AF8007F51873A3F5E07376
:103A18001B68B3F5807F00F3038107F51873A3F5DE
:103A2800E0731B68802B07D007F51873A3F5E073C4
:103A38001B68C02B47D0F3E0D7E98E014FF0000296
:103A48004FF0000303000022D7E98C0142EA00048A
:103A5800C7F888400B43C7F88C3007F51873A3F5EF
:103A6800CC73D7E92212C3E90012D7E98A014FF0D3
:103A780000024FF0000303000022D7E9880142EA60
:103A88000004C7F880400B43C7F8843007F5187363
:103A9800A3F5CC73D7E92012C3E9021207F518730E
:103AA800A3F5CC714FF000024FF00003C1E90423E5
:103AB80007F51873A3F5CC714FF000024FF000031F
:103AC800C1E90623ADE0D7E98E014FF000024FF0BF
:103AD800000303000022D7E98C0142EA0004BC6716
:103AE8000B43FB6707F51873A3F5CC73D7E91E12D0
:103AF800C3E90012D7E98A014FF000024FF0000332
:103B080003000022D7E9880142EA00043C670B431E
:103B18007B6707F51873A3F5CC73D7E91C12C3E9C3
:103B28000212D7E986014FF000024FF000030300AC
:103B38000022D7E9840142EA0004BC660B43FB6615
:103B480007F51873A3F5CC73D7E91A12C3E9041261
:103B580007F51873A3F5CC714FF000024FF000037E
:103B6800C1E906235DE0D7E98E014FF000024FF06E
:103B7800000303000022D7E98C0142EA00043C66F6
:103B88000B437B6607F51873A3F5CC73D7E91812B6
:103B9800C3E90012D7E98A014FF000024FF0000391
:103BA80003000022D7E9880142EA0004BC650B4300
:103BB800FB6507F51873A3F5CC73D7E91612C3E9AB
:103BC8000212D7E986014FF000024FF0000303000C
:103BD8000022D7E9840142EA00043C650B437B6577
:103BE80007F51873A3F5CC73D7E91412C3E90412C7
:103BF800D7E982014FF000024FF0000303000022D2
:103C0800D7E9800142EA0004BC640B43FB6407F572
:103C18001873A3F5CC73D7E91212C3E9061200E0B2
:103C280000BF07F51873A3F5E0731B689AB207F194
:103C3800C80107F1E8031846FFF7A4FC07F1A8023A
:103C480007F1B80107F1E8031846FFF7C0FD07F5CB
:103C58001873A3F5DC73D3E900014FF000024FF0AD
:103C680000030A00002307F51873A3F5DE731B6829
:103C78001A6207F51873A3F5DC73D3E9002307F577
:103C88001873A3F5DE731B685A6207F51873A3F55A
:103C9800DC73D3E902014FF000024FF000030A0081
:103CA800002307F51873A3F5DE731B689A6207F5FE
:103CB8001873A3F5DC73D3E9022307F51873A3F58A
:103CC800DE731B68DA6200BF07F51877BD46BDE8EA
:103CD800B08F000080B400AF024B1846BD4680BCD0
:103CE800704700BF0002000180B58AB000AF0346EC
:103CF800FB71FB79002B0ED100233B611F4B1B6B23
:103D08001E4A43F0020313631C4B1B6B03F00203B0
:103D18003B613B690DE00023FB60184B1B6B174AA6
:103D280043F002031363154B1B6B03F00203FB60A4
:103D3800FB68FB79124A32F813307B610123BB61BF
:103D48000023FB6102233B62FB790E4A52F82330C1
:103D580007F11402114618460AF0C8FCFB79094A13
:103D680052F82300FB79064A32F81330002219462C
:103D78000AF06FFF00BF2837BD4680BD00380240FB
:103D8800A0FE00080800002080B588B000AF0346F8
:103D9800FB71FB790E4A52F82300FB790D4A32F881
:103DA8001330002219460AF054FFFB79094A32F809
:103DB8001330FB60FB79064A52F82330FA68114643
:103DC80018460AF031FE00BF2037BD4680BD00BF4F
:103DD80008000020A0FE000880B582B000AF0346AE
:103DE800FB71FB79074A52F82300FB79064A32F83F
:103DF8001330012219460AF02CFF00BF0837BD46D0
:103E080080BD00BF08000020A0FE000880B582B079
:103E180000AF0346FB71FB79074A52F82300FB7990
:103E2800064A32F81330002219460AF012FF00BF82
:103E38000837BD4680BD00BF08000020A0FE00086E
:103E480080B582B000AF0346FB71FB79074A52F890
:103E58002320FB79064931F81330194610460AF039
:103E680010FF00BF0837BD4680BD00BF0800002016
:103E7800A0FE000880B588B000AF03460A46FB7173
:103E88001346BB710023BB60224B1B6B214A43F0D6
:103E9800040313631F4B1B6B03F00403BB60BB6875
:103EA800BB79002B12D14FF40053FB6000233B6118
:103EB80002237B610223BB61FB79174A52F8233046
:103EC80007F10C02114618460AF010FCBB79012BC9
:103ED8001CD14FF40053FB6000237B610F4B3B6107
:103EE800FB790D4A52F8233007F10C0211461846A7
:103EF8000AF0FCFB28235BB200220F21184603F0CE
:103F080020FF28235BB2184603F037FF00BF203795
:103F1800BD4680BD0038024014000020000021107A
:103F280080B588B000AF0346FB714FF40053FB60C7
:103F380028235BB2184603F02EFFFB79054A52F896
:103F48002330FA68114618460AF06EFD00BF203784
:103F5800BD4680BD1400002080B582B000AF034686
:103F6800FB71FB79064A52F823304FF40052114690
:103F780018460AF057FE034618460837BD4680BD66
:103F88001400002080B582B000AF78600B46FB704B
:103F9800FB78122B00F28E8001A252F823F000BFAA
:103FA800F53F0008FF3F00080940000815400008D9
:103FB8001F40000829400008354000083F4000081D
:103FC80049400008534000085D4000086940000867
:103FD800734000087D400008B1400008894000088F
:103FE800934000089D400008A74000088021786899
:103FF800FDF78EFF5FE0C0217868FDF789FF5AE082
:104008004FF480717868FDF783FF54E08021786869
:1040180003F043F84FE0C021786803F03EF84AE027
:104028004FF48071786803F038F844E080217868AC
:1040380001F050FD3FE08021786801F00AFB3AE08A
:1040480080217868FEF79AFF35E0C0217868FEF78E
:1040580095FF30E04FF480717868FEF78FFF2AE013
:1040680080217868FFF7F0FB25E0C0217868FFF72A
:10407800EBFB20E04FF480717868FFF7E5FB1AE06E
:1040880080217868FDF72CF815E05021786800F059
:104098003FFE10E08021786800F03AFE0BE08021B6
:1040A8007868FCF759FC06E04FF480717868FCF7F3
:1040B800D7FD00E000BF00BF0837BD4680BD00BF88
:1040C80084B080B584B000AF07F1180C8CE80F00FD
:1040D80097F87C30194607F11800FFF753FF0023C3
:1040E800FB6002E0FB680133FB60FB68032BF9DD32
:1040F800BA6ABB6B5340BB64FA6AFB6B5340FB6400
:10410800D7F88030042B08D13A6B3B6C53403B65A1
:104118007A6B7B6C53407B6503E000233B6500238F
:104128007B650023BB6002E0BB680133BB60BB68F2
:10413800032BF9DD97F87C30194607F11800FFF7D3
:1041480021FFBA6CBB6B5340BB63FA6CFB6B5340EB
:10415800FB633A6D3B6C53403B647A6D7B6C534018
:104168007B6400237B6016E07B68083307F1180244
:1041780052F82320D7F88410D7F88030C91A7B6802
:104188000B440B4951F823309A4201D0012308E02F
:104198007B6801337B607A68D7F880309A42E3DB2A
:1041A800002318461037BD46BDE8804004B070476C
:1041B8001800002080B400AF124B1B68114A43F06E
:1041C800010313600F4B00229A600E4B1B680D4AC7
:1041D80023F0847323F4803313600A4B0A4A5A602D
:1041E800084B1B68074A23F480231360054B002201
:1041F800DA60064B4FF000629A6000BFBD4680BC93
:10420800704700BF003802401030002400ED00E085
:1042180080B487B000AF00233B6100237B61022399
:10422800FB600023BB6002237B60344B9B6803F078
:104238000C033B613B69082B11D03B69082B44D820
:104248003B69002B03D03B69042B04D03DE02C4B89
:104258002C4A1A603DE02A4B2B4A1A6039E0274B5A
:104268005B689B0D03F00103BB60244B5B6803F0A4
:104278003F037B60BB68002B0CD0234A7B68B2FBF2
:10428800F3F31E4A52689209C2F3080202FB03F3D1
:104298007B610BE01B4A7B68B2FBF3F3174A526859
:1042A8009209C2F3080202FB03F37B61134B5B68BC
:1042B8001B0C03F0030301335B00FB607A69FB68A6
:1042C800B2FBF3F30E4A136003E00D4B0D4A1A607C
:1042D80000BF0A4B9B681B0903F00F030B4AD35C12
:1042E8003B61074B1A683B6922FA03F3044A1360DF
:1042F80000BF1C37BD4680BC704700BF0038024075
:10430800480000200024F40000127A00B0FE0008E3
:1043180080B586B000AF7860144A154BD31A7B611C
:104328007B693B61134B1B68002B02D1114B124A6E
:104338001A60104B1A687B6813443A699A4207D28C
:104348000AF002FD03460C221A604FF0FF3309E021
:10435800084B1B68FB60074B1A687B681344054AC7
:104368001360FB6818461837BD4680BD0000022060
:1043780000040000D4010020800200202DE9F00F85
:10438800E6B000AFC7F86C01C7F868111346A7F884
:104398006631B7F86631502B40F05F81D7F8683145
:1043A8001B889BB20022C7F88030C7F88420D7E961
:1043B8002034C7E96434D7F8683102331B889BB2CC
:1043C8000022C7F85831C7F85C214FF000004FF0C1
:1043D8000001D7F8583119040020D7F868310433A0
:1043E8001B889BB20022C7F85031C7F854214FF000
:1043F80000024FF00003D7F850412300002240EAA2
:104408000204C7F848410B43C7F84C31D7F8683164
:1044180006331B889BB20022C7F84031C7F84421F5
:10442800D7E950341A464FEA12494FEA0348D7E908
:1044380052341A4642EA0802C7F83821234643EAAA
:104448000903C7F83C31D7F8683108331B889BB299
:104458000022C7F83031C7F83421D7E94E3418465E
:10446800D7E94C120D462843B86723461343FB6728
:10447800D7E91E34C7E96234D7E964234FF0000452
:104488004FF0000515040024D7E962234FF000001F
:104498004FF00001100C40EA0340190C44EA0003F5
:1044A800C7F8283145EA0103C7F82C31D7F86C3131
:1044B800D7E94A12C3E90012012387F88731C6E019
:1044C800D7E96423C7E95C23D7E962234FF00000EA
:1044D8004FF00001D00840EA4370D90883B23B6727
:1044E80000267E67D7E91C34C7E96434D7E962231C
:1044F8004FF000044FF0000555070024D7E95C236E
:104508004FF000004FF000015103002044EA00037F
:10451800C7F8203145EA0103C7F82431D7E96223F7
:104528004FF000004FF00001D00C40EA4330D90CA6
:10453800D7E948341A460243BA6623460B43FB665A
:10454800D7E91A34C7E96234D7E964234FF0000089
:104558004FF00001100B40EA0350190B00F00F0355
:10456800C7F81831C7F81C619F4BD7F818211344B6
:104578001B78DBB200223B667A66D7E91834C7E9B4
:104588005C34D7E96423C2F30B03C7F81031C7F8CA
:104598001461D7E95C234FF000004FF000011903C4
:1045A80041EA12511003D7E944341A460243BA6566
:1045B80023460B43FB65D7E91634C7E9643497F8FB
:1045C80087310022C7F80831C7F80C214FF00000E6
:1045D8004FF00001D7E942452B46D903224641EA6C
:1045E80052412346D803D7E9622382EA00043C6596
:1045F8004B407B65D7E91434C7E96234D7E96423B3
:104608004FF000044FF0000515040024D7E9622399
:104618004FF000004FF00001100C40EA0340190C65
:1046280097F8873144EA0002C7F8002145EA0102F9
:10463800C7F80421D7F86C21DB001344D7E94012EE
:10464800C3E9001297F88731013387F8873197F863
:1046580087311F2B7FF634AF9CE1D7F868311B8870
:104668009BB20022C7F8F830C7F8FC204FF00000D2
:104678004FF00001D7F8F83019040020D7F8683156
:1046880002331B889BB20022C7F8F030C7F8F42029
:104698004FF000024FF00003D7F8F060330000221B
:1046A80040EA020A41EA030BD7F8683104331B8851
:1046B8009BB20022C7F8E830C7F8EC20D7E93A12D5
:1046C8000B461D0C0B461C044AEA0403C7F8E030ED
:1046D8004BEA0503C7F8E430D7F8683106331B887E
:1046E8009BB20022C7F8D830C7F8DC20D7E93834A5
:1046F8001846D7E936120D462843B86423461343B3
:10470800FB64D7E91234C7E96434D7F86831083351
:104718001B889BB20022C7F8D030C7F8D4204FF0CE
:1047280000004FF00001D7F8D03019040020D7F866
:1047380068310A331B889BB20022C7F8C830C7F813
:10474800CC204FF000024FF00003D7F8C8402300F8
:10475800002240EA0204C7F8C0400B43C7F8C4303F
:10476800D7F868310C331B889BB20022C7F8B830E1
:10477800C7F8BC20D7E92E120B461B0CC7F8B4307B
:104788000B461B04C7F8B030D7E930341846D7E9D0
:104798002C120D462843C7F8A80023461343C7F830
:1047A800AC30D7F868310E331B889BB20022C7F8AB
:1047B800A030C7F8A420D7E92A341846D7E9281228
:1047C8000D4628433864234613437B64D7E91034E5
:1047D800C7E96234D7F86C11D7E96423C1E900232B
:1047E8000123C7F88031D0E0C8FE0008D7E9642368
:1047F800C7E95E23D7E95E234FF000044FF00005B8
:1048080055070024D7E962234FF000004FF000015C
:10481800D00840EA4370D90844EA0003BB6345EA7C
:104828000103FB63D7E90E34C7E96434D7E962238F
:104838004FF000044FF0000555070024D7E95E2328
:104848004FF000004FF00001D00840EA4370D9084B
:1048580044EA00033B6345EA01037B63D7E90C3470
:10486800C7E96234D7E964234FF000004FF0000134
:10487800180F00214B4B03441B78DBB20022BB62AC
:10488800FA62D7E90A34C7E95E34D7E95E234FF004
:1048980000004FF0000111070020D7E9642342EA25
:1048A80000043C620B437B62D7E90834C7E96434EF
:1048B800D7E964234FF000004FF00001180E0021E3
:1048C80000F00F03C7F898300023C7F89C30354B29
:1048D800D7F8982013441B78DBB20022BB61FA6139
:1048E800D7E90634C7E95E34D7E95E234FF0000004
:1048F8004FF0000111060020D7E9642342EA0004C2
:104908003C610B437B61D7E90434C7E96434D7F8C9
:1049180080319B10DA17C7F89030C7F89420D7E990
:104928006423D7E9240104465440BC604B40FB6033
:10493800D7E90234C7E96434D7F88031DA17C7F801
:104948008830C7F88C204FF000004FF00001D7F8EE
:10495800883099070020D7E9622382EA00043C6086
:104968004B407B60D7E90034C7E96234D7F86C2143
:10497800D7F88031DB00D118D7E96423C1E90023D7
:10498800D7F880310133C7F88031D7F880311F2B31
:104998007FF72CAF00BF07F5CC77BD46BDE8F00F19
:1049A800704700BFC8FE00082DE9F00FAEB000AF99
:1049B800C7F88C00C7F88810C7F88420D7F8883063
:1049C8001B889BB20022BB65FA654FF000004FF0D0
:1049D8000001BB6D19040020D7F8883002331B880A
:1049E8009BB200223B657A654FF000024FF000034E
:1049F8003E6D3300002240EA020841EA0309D7F875
:104A0800883004331B889BB20022BB64FA64D7E960
:104A180012120B461D0C0B461C0448EA040A49EA0C
:104A2800050BD7F8883006331B889BB200223B64FD
:104A38007A64D7E910341A464AEA0202BA6223466F
:104A48004BEA0303FB62D7E90A34C7E92A34002397
:104A580087F8B6300CE197F8B630D7F88C20DB0031
:104A68001344D3E90001D7E92A2382EA00043C620F
:104A78004B407B62D7E90834C7E92A344FF000027B
:104A88004FF00003C7E92823002387F8B7307CE0FC
:104A980097F8B730C3F10703DC00D7E92A23C4F13C
:104AA8002001A4F1200022FA04F5BD6703FA01F100
:104AB800BD6F0D43BD6723FA00F0B96F0143B967B5
:104AC800E340FB6797F8783087F89E3097F89E3078
:104AD8001B09DBB203F00F028B4B9B5C87F89D3000
:104AE80097F89E3003F00F02874B9B5C87F89C3049
:104AF8004FF000024FF00003C7E9242397F89D30D8
:104B08001A0197F89C301343DA17BB63FA63D7E9A5
:104B18002423D7E90E0104461443BC610B43FB610F
:104B2800D7E90634C7E9243497F8B730C3F1070347
:104B3800DC00D7E92423A4F12001C4F1200003FA02
:104B480004F57D6602FA01F17D6E0D437D6622FA59
:104B580000F0796E0143796602FA04F33B66D7E9FF
:104B68001834C7E92434D7E92801D7E9242340EACF
:104B780002043C610B437B61D7E90434C7E928345C
:104B880097F8B730013387F8B73097F8B730072B65
:104B98007FF67EAFD7E92823C7E92A234FF0000222
:104BA8004FF00003C7E92823002387F8B73052E005
:104BB80097F8B730C3F13F0387F89F3097F89F40C5
:104BC800D7E92A23C4F12001A4F1200022FA04F530
:104BD8003D6703FA01F13D6F0D433D6723FA00F08D
:104BE800396F01433967E3407B673B6F03F001038B
:104BF8003B6300237B6397F8B720444B9B5CC3F16E
:104C08003F01A1F12003C1F12002D7E90C45284654
:104C18008840F866204600FA03F3F86E1843F866F1
:104C2800234623FA02F2FB6E1343FB6623468B40AE
:104C3800BB66D7E92823D7E91A0104461443BC60A8
:104C48000B43FB60D7E90234C7E9283497F8B7303B
:104C5800013387F8B73097F8B7303F2BA8D9D7E991
:104C68002823C7E92A2397F8B630013387F8B630E6
:104C780097F8B6301E2B7FF6EEAE97F8B630D7F819
:104C88008C20DB001344D3E90023D7E92A0180EA0A
:104C980002043C604B407B60D7E90034C7E92A3402
:104CA800D7E92A014FF000024FF000030A0C002355
:104CB80092B2D7F884301A80D7E92A014FF000025F
:104CC8004FF000030A000023D7F88410023193B292
:104CD8000B80D7E92A014FF000024FF00003020CC5
:104CE80042EA01420B0CD7F88410043193B20B80CE
:104CF800D7F884300633B7F8A8201A8000BFB83731
:104D0800BD46BDE8F00F7047C8FE0008E8FE000881
:104D180080B5CAB000AF07F59473A3F59273186015
:104D280007F59473A3F59473196007F59473A3F5C5
:104D380092731B681B681B0C9AB207F59473A3F552
:104D48008C731A8007F59473A3F592731B681B681C
:104D58009AB207F59473A3F58C735A8007F5947388
:104D6800A3F592731B685B681B0C9AB207F59473E2
:104D7800A3F58C739A8007F59473A3F592731B6857
:104D88005B689AB207F59473A3F58C73DA8007F51C
:104D98009473A3F592731B681B6C1B0C9AB207F5EE
:104DA8009473A3F588731A8007F59473A3F5927327
:104DB8001B681B6C9AB207F59473A3F588735A8025
:104DC80007F59473A3F592731B685B6C1B0C9AB27E
:104DD80007F59473A3F588739A8007F59473A3F580
:104DE80092731B685B6C9AB207F59473A3F588738A
:104DF800DA8007F59473A3F592731B689B6C1B0C00
:104E08009AB207F59473A3F588731A8107F594731A
:104E1800A3F592731B689B6C9AB207F59473A3F57C
:104E280088735A8107F59473A3F592731B68DB6C3A
:104E38001B0C9AB207F59473A3F588739A8107F54A
:104E48009473A3F592731B68DB6C9AB207F594739D
:104E5800A3F58873DA8107F59473A3F594731B6837
:104E68009AB207F1180107F128031846FFF786FAE6
:104E780007F1080207F1100107F128031846FFF7A8
:104E880093FD07F59473A3F590731B881B041A46CA
:104E980007F59473A3F590735B881A4307F5947329
:104EA800A3F592731B681A6207F59473A3F59073C0
:104EB8009B881B041A4607F59473A3F59073DB8847
:104EC8001A4307F59473A3F592731B685A6207F5A2
:104ED8009473A3F592731B6800229A6207F5947382
:104EE800A3F592731B680022DA6200BF07F5947776
:104EF800BD4680BD80B483B000AF0346FB7197F90F
:104F08000730002B12DBFB7903F01F020A4997F9DF
:104F180007305B09012000FA02F2203341F8232010
:104F2800BFF34F8F00BFBFF36F8F00BF00BF0C37B9
:104F3800BD4680BC704700BF00E100E080B483B08C
:104F480000AF78607B68DB6843F020027B68DA603A
:104F580000BF0C37BD4680BC704780B483B000AF3B
:104F680078607B685B6943F001027B685A6100BF27
:104F78000C37BD4680BC704780B483B000AF786002
:104F88007B685B68DBB218460C37BD4680BC70474F
:104F980080B5D2B018AF03463960FB710023C7F85B
:104FA800E4300023C7F8E0300C23C7F8D0300023E2
:104FB800C7F8DC3011E03B4AD7F8DC3052F8232040
:104FC800D7F8DC3010339B00E8333B4443F87C2CA3
:104FD800D7F8DC300133C7F8DC30D7F8DC30072BE2
:104FE800E9DD0023C7F8D83016E02F4AD7F8E430B7
:104FF80052F82320D7F8D83004339B00E8333B44D9
:1050080043F87C2CD7F8E4300133C7F8E430D7F8FC
:10501800D8300133C7F8D830D7F8D8203B689A423F
:10502800E3DB0023C7F8D43015E0204AD7F8E03096
:1050380052F82320D7F8D4309B00E8333B4443F898
:105048007C2CD7F8E0300133C7F8E030D7F8D430FB
:105058000133C7F8D430D7F8D4203B689A42E4DB50
:10506800D7F8E43017933B681693FB791593684695
:1050780007F17C035422194609F0A4FE07F16C03DA
:105088000FCBFFF71DF80346012B01D1012304E0E4
:10509800D7F8E4300B2BA4DD00231846E837BD46CB
:1050A80080BD00BFAC0000207C0000204C00002028
:1050B80080B58EB000AF08F029FE00F0E7F80020B8
:1050C800FEF712FE0120FEF70FFE0220FEF70CFE8F
:1050D8005C4B5D4A1A605B4B4FF4E1325A60594BA6
:1050E80000229A60574B0022DA60564B00221A6160
:1050F800544B00229A61534B0C225A61514B0022A7
:10510800DA61504807F030F80346002B01D000F070
:10511800EBF84E4B4E4A1A604E4B4F4A1A604F4BB3
:1051280000221A604E4B00221A604748FFF706FF1C
:105138004548FFF712FF4B4B1B789AB24FF47A732E
:105148004949404807F0C6F90346002B01D000F052
:10515800CBF8464B1B68454A43F080731360444BB9
:1051680000221A60434B1B68424A43F00103136054
:10517800414B1B789AB24FF47A734049314807F093
:10518800A9F90346002B01D000F0AEF800BF344B5C
:105198001B68002BFBD0324B00221A602D4B19687C
:1051A8004FF47A730A22274807F094F90346002B34
:1051B80001D000F099F80020FEF742FE4FF4FA7093
:1051C80008F086FE00237B6338E0294B1B683B63AD
:1051D80004210020FFF7DCFEF862254B1B68BB6248
:1051E800BA6A3B6BD31A7B623B1DFA6A244918469C
:1051F80009F01AFE391D4FF47A730322114807F09B
:1052080069F93B1D1F49184609F00EFE4FF4FA7064
:1052180008F05EFE3B1D7A6A1B49184609F004FE39
:10522800391D4FF47A732022064807F053F94FF4DA
:105238007A7008F04DFE7B6B01337B637B6B092B27
:10524800C3DD95E7DC010020004800404002002053
:105258001C0200203C02002028020020340200200A
:105268003802002000010020CC000020FCED00E006
:10527800041000E0001000E03001002004010020CC
:105288002CF9000834F9000838F9000880B592B004
:1052980000AF01237B600523BB600223FB614FF451
:1052A80080033B6208237B62F023BB620223FB621C
:1052B80005233B633B1D184605F09CFD0F237B63CC
:1052C8000223BB630023FB634FF4A0533B644FF4FA
:1052D80080537B6407F134030321184605F0D8FF97
:1052E80000BF4837BD4680BD80B500AF0220FEF73D
:1052F800A7FD4FF47A7008F0EBFDF7E790B583B09F
:1053080000AF124B1A68124B1B68591C10480160F9
:10531800D4181048FFF730FE034623700C4B1B6867
:10532800092B0FD90C4B01221A600C4B1B687B60B0
:10533800064B1B68094A1360044A7B681360044BD8
:1053480000221A6000BF0C37BD4690BD4002002005
:105358003402002000480040380200203C020020AF
:1053680080B582B000AF2720FFF7C4FD094B1B684A
:105378007B607B6803F00403002B03D00220FEF758
:105388002BFD02E00220FEF727FD00BF0837BD46CF
:1053980080BD00BF0048004080B483B000AF786093
:1053A8007B68DBB20D4A52F823207B681B0ADBB20C
:1053B8000B4951F823305A407B681B0CDBB2094972
:1053C80051F823305A407B681B0E074951F82330A7
:1053D800534018460C37BD4680BC704768FF00082C
:1053E8006803010868070108680B010880B584B0E4
:1053F80000AFF860B9607A603B60FA687B685A4031
:10540800B9683B684B405A40FB691A60FB691B68E6
:105418001846FFF7C1FF0246FB691A60FB691A6864
:10542800F9687B684B401A44BB691A60BB691B6802
:105438001846FFF7B1FF0246BB691A60FB691A6894
:10544800BB691B681A44FB691A60FB691B6818462C
:10545800FFF7A2FF0246FB691A60BB691A68FB697D
:105468001B681A44BB691A6000BF1037BD4680BD6F
:1054780090B589B000AF786039603B681B68BB6045
:105488003B685B68FB603B689B683B613B68DB682B
:105498007B610023FB615CE0BA683B691A443149CF
:1054A800FB6951F82330D21AFB695C001046FFF7FC
:1054B80073FF02467B6843F82420FA687B69D21A96
:1054C8002849FB6951F823301A44FB695B005C1CCE
:1054D8001046FFF761FF02467B6843F82420FB690A
:1054E80003F00103002B17D03B6804331B681A0A2A
:1054F8003B681B681B061343BB613B681B681A0AA1
:105508003B6804331B681B061A433B681A603B68F8
:105518000433BA691A6019E03B680C331B681A0A2D
:105528003B6808331B681B061343BB613B680833A1
:105538001B68190A3B680C331B681A063B6808335A
:105548000A431A603B680C33BA691A60FB69013375
:10555800FB61FB690F2B9FDD00BF00BF2437BD46F1
:1055680090BD00BF28FF000880B58EB002AFF8607C
:10557800B9607A600023BB62BB681B687B62BB684A
:105588005B683B62BB689B68FB61BB68DB68BB61AF
:105598000023FB622AE0FB68BA6A53F82210BB6A50
:1055A8005A1CFB6853F8222007F11003019307F1F6
:1055B8001403009313460A46B969F869FFF716FF02
:1055C8007A697B6A53407B613A693B6A53403B6125
:1055D800FB697B62BB693B627B69FB613B69BB61C1
:1055E800BB6A0233BB62FB6A0133FB62FB6A0E2BA8
:1055F800D1DDFB68BA6A53F82210BB6A5A1CFB68F3
:1056080053F8222007F11003019307F114030093C4
:1056180013460A46B969F869FFF7E8FE7B697A6AB2
:1056280053407B623B693A6A53403B627B687A6AC3
:105638001A607B6804333A6A1A607B680833FA692F
:105648001A607B680C33BA691A6000BF3037BD46F0
:1056580080BD80B5A2B000AF786039607B6803F187
:10566800400207F1080311461846FFF701FF796861
:105678007B6803F1200207F108031846FFF774FF5F
:1056880000BF8837BD4680BD80B4ADF61C0D00AFA5
:105698000023C7F80838B42387F80738712387F838
:1056A800063897F8073887F817380023C7F80C38F2
:1056B80049E097F8172897F80638134087F81638FE
:1056C80097F8163887F805380123C7F8103811E01D
:1056D80097F80528D7F8103842FA03F35AB297F921
:1056E800163853405BB287F81638D7F810380133AC
:1056F800C7F81038D7F81038072BE9DD97F81738AE
:1057080003F00103D9B207F61803A3F61402D7F879
:10571800083813440A461A7097F817385B08DBB242
:105728005AB297F81638DB015BB213435BB287F8BD
:105738001738D7F80C380133C7F80C38D7F80838B9
:105748000133C7F80838D7F80C38072BB1DD97F8BC
:10575800172897F807389A4201D1002301E097F8F3
:105768001738184607F61C07BD4680BC704780B43A
:1057780083B000AF786039603B681A687B681A604C
:105788007B6804333A6852681A607B6808333A6861
:1057980092681A607B680C333A68D2681A6000BF56
:1057A8000C37BD4680BC704780B483B000AF7860CA
:1057B80039607A683B68C3F1200362FA03F318463C
:1057C8000C37BD4680BC704780B483B000AF7860AA
:1057D80039607A683B6862FA03F318460C37BD46AD
:1057E80080BC704790B583B000AF78607B680433A5
:1057F8001A687B681C1D01211046FFF7D5FF034678
:1058080023607B6808331A687B6803F10804052164
:105818001046FFF7C9FF034623607B680C331A68FC
:105828007B6803F10C0402211046FFF7BDFF034615
:10583800236000BF0C37BD4690BD90B583B000AF64
:1058480078607B6804331A687B681C1D0121104648
:10585800FFF7BAFF034623607B6808331A687B6842
:1058680003F1080405211046FFF7AEFF0346236045
:105878007B680C331A687B6803F10C04022110461C
:10588800FFF7A2FF0346236000BF0C37BD4690BD5B
:1058980080B485B000AF78607B680C331A687B6889
:1058A80008331B681A437B6804331B685A407B68BB
:1058B8000433D2431A607B681A687B680833196816
:1058C8007B6804331B680B405A407B681A607B680E
:1058D800DB68FB607B680C337A6812681A607B6847
:1058E800FA681A607B68083319687B681A687B68ED
:1058F80004331B685A407B680C331B685A407B682A
:1059080008334A401A607B680C331A687B6808338E
:105918001B681A437B6804331B685A407B6804334E
:10592800D2431A607B681A687B68083319687B68F9
:1059380004331B680B405A407B681A6000BF143759
:10594800BD4680BC704790B585B000AF78603960BF
:105958003B681A683B6808331B685340FB600821A2
:10596800F868FFF731FF04460821F868FFF71CFFC5
:1059780003466340FA685340FB603B680433196888
:105988003B680433FA684A401A603B680C3319686C
:105998003B680C33FA684A401A603B681A687B68AF
:1059A8001B685A403B681A603B68043319687B6877
:1059B80004331A683B6804334A401A603B6808336A
:1059C80019687B6808331A683B6808334A401A60CC
:1059D8003B680C3319687B680C331A683B680C33D6
:1059E8004A401A603B6804331A683B680C331B68EA
:1059F8005340FB600821F868FFF7E6FE04460821DB
:105A0800F868FFF7D1FE03466340FA685340FB602D
:105A18003B681A68FB685A403B681A603B68083361
:105A280019683B680833FA684A401A6000BF14379F
:105A3800BD4690BD80B584B000AFF860B9607A60AB
:105A48003B60BB681A687B685A40BB681A60B968D3
:105A5800F868FFF778FFBB681A683B685A40BB686C
:105A68001A60B868FFF7BEFEB868FFF711FFB8689C
:105A7800FFF7E3FE00BF1037BD4680BD80B586B096
:105A880000AFF860B9607A60F9687868FFF76FFE70
:105A980000237B610BE00E4A7B6952F82320002328
:105AA8007968B868FFF7C6FF7B6901337B617B695A
:105AB8000F2BF0DD7B681B68D4225A407B681A6084
:105AC8007968B868FFF73FFF00BF1837BD4680BD4B
