:020000040800F2
:100000000000022049050008A9690008B569000838
:10001000BB690008C1690008C7690008000000004A
:10002000000000000000000000000000CD69000892
:10003000D969000800000000E5690008F1690008BE
:100040009905000899050008990500089905000818
:100050009905000899050008990500089905000808
:1000600099050008990500089905000899050008F8
:1000700099050008990500089905000899050008E8
:1000800099050008990500089905000899050008D8
:1000900099050008990500089905000899050008C8
:1000A00099050008990500089905000899050008B8
:1000B00099050008990500089905000899050008A8
:1000C0009905000899050008990500089905000898
:1000D000990500089905000899050008FD690008C0
:1000E0009905000899050008990500089905000878
:1000F0009905000899050008990500089905000868
:100100009905000899050008990500089905000857
:100110009905000899050008990500089905000847
:100120009905000899050008990500089905000837
:100130009905000899050008990500089905000827
:100140009905000899050008990500089905000817
:100150009905000899050008990500089905000807
:1001600099050008990500089905000899050008F7
:10017000990500089905000899050008000000008D
:0401800099050008D5
:1001880010B5054C237833B9044B13B10448AFF3C9
:1001980000800123237010BDDC1C0020000000003B
:1001A800A4F3000808B5034B1BB103490348AFF398
:1001B800008008BD00000000E01C0020A4F3000837
:1001C800154B002B08BF134B9D46A3F5803A002121
:1001D8008B460F461348144A121A0EF0A1FB0F4B18
:1001E800002B00D098470E4B002B00D098470020DA
:1001F800002104000D000D48002802D00C48AFF380
:1002080000800EF05BFB2000290003F029FC0EF0B3
:1002180041FB00BF000008000000000000000000D3
:1002280000000000DC1C0020BC1D002000000000B5
:1002380000000000A40E010800000020DC1C0020C3
:10024800DC1C0020BC1D002053B94AB9002908BF96
:1002580000281CBF4FF0FF314FF0FF3000F06EB99F
:10026800ADF1080C6DE904CE00F006F8DDF804E005
:10027800DDE9022304B070472DE9F047089E0D46DA
:1002880004468E46002B40F083808A42174647D9A1
:10029800B2FA82F34BB1C3F1200105FA03FE20FA4A
:1002A80001F19F4041EA0E0E9C404FEA1748BEFB01
:1002B800F8FC1FFA87F908FB1CE20CFB09F0210C7B
:1002C80041EA024290420AD9BA180CF1FF3180F093
:1002D8001881904240F21581ACF1020C3A44121A8E
:1002E800B2FBF8F008FB102200FB09F1A4B244EAC3
:1002F8000244A14209D93C1900F1FF3280F0038180
:10030800A14240F2008102383C44641A002140EACC
:100318000C401EB10022DC40C6E90042BDE8F0876F
:1003280002B9FFDEB2FA82F3002B4FD18D1A0121F8
:100338004FEA124E1FFA82F8B5FBFEFC0EFB1C5565
:1003480008FB0CF0220C42EA0545A84207D97D19A2
:100358000CF1FF3202D2A84200F2E98094462D1A2D
:10036800B5FBFEF00EFB105508FB00F8A4B244EAFA
:100378000544A04507D93C1900F1FF3202D2A04537
:1003880000F2D9801046A4EB080440EA0C40C0E70C
:100398008B4208D9002E00F0B1800021C6E9000583
:1003A8000846BDE8F087B3FA83F100294BD1AB4288
:1003B80002D3824200F2B980841A65EB030301205C
:1003C8009E46002EAAD0C6E9004EA7E79F40C3F17B
:1003D8002002D1404FEA174EB1FBFEF01FFA87F812
:1003E8000EFB101124FA02F29D4000FB08FC2A4380
:1003F800150C45EA0145AC4504FA03F409D97D1901
:1004080000F1FF3180F08F80AC4540F28C800238DB
:100418003D44A5EB0C05B5FBFEF10EFB115C01FBA1
:1004280008F995B245EA0C45A94507D97D1901F1A6
:10043800FF3274D2A94572D902393D44A5EB0905AA
:1004480041EA004178E7C1F120078B4022FA07FC16
:100458004CEA030C25FA07F44FEA1C4EB4FBFEF9EC
:100468001FFA8CF80EFB194420FA07F309FB08FA67
:100478008D401D432B0C43EA0444A24502FA01F2C5
:1004880000FA01F309D91CEB040409F1FF3048D242
:10049800A24546D9A9F102096444A4EB0A04B4FBB5
:1004A800FEF00EFB104400FB08FAADB245EA044426
:1004B800A24508D91CEB040400F1FF352DD2A24552
:1004C8002BD90238644440EA0940A0FB0289A4EB16
:1004D8000A044C45C6464D4619D316D05EB1B3EB57
:1004E8000E0264EB050404FA07F722FA01F31F432E
:1004F800CC40C6E900740021BDE8F087314630469B
:100508000CE78C46EBE61046FFE64345E6D2B8EB2F
:10051800020E69EB0C050138E0E72846D3E71146DF
:100528008CE78146B9E7084673E7084649E7ACF126
:10053800020C3D4413E702383C4424E7704700BFEF
:10054800DFF834D0002103E00C4B5B5843500431F2
:100558000B480C4B42189A42F6D30B4A02E0002390
:1005680042F8043B094B9A42F9D306F0F5FC0EF029
:10057800A5F903F075FA704700000220A40E0108DF
:1005880000000020DC1C0020DC1C0020BC1D00201A
:10059800FEE780B483B000AF786039607B681A6882
:1005A8003B681B685A407B681A607B68043319688B
:1005B8003B6804331A687B6804334A401A607B68D6
:1005C800083319683B6808331A687B6808334A405F
:1005D8001A607B680C3319683B680C331A687B68AF
:1005E8000C334A401A6000BF0C37BD4680BC7047C8
:1005F80080B483B000AF786039603B681A687B6864
:100608001A607B6804333A6852681A607B6808335A
:100618003A6892681A607B680C333A68D2681A6044
:1006280000BF0C37BD4680BC704780B485B000AFB2
:10063800F860B9607A60BB681A687B689A40BB68E2
:10064800043319687B68C3F1200321FA03F31A43C2
:10065800FB681A60BB6804331A687B6802FA03F106
:10066800BB6808331A687B68C3F12003DA40FB686B
:1006780004330A431A60BB6808331A687B6802FAB5
:1006880003F1BB680C331A687B68C3F12003DA40B6
:10069800FB6808330A431A60BB680C331A687B6826
:1006A80002FA03F1BB681A687B68C3F12003DA40D9
:1006B800FB680C330A431A6000BF1437BD4680BC80
:1006C800704780B485B000AFF860B9607A60BB68E5
:1006D8000C331A687B6822FA03F1BB6808331A687E
:1006E8007B68C3F120039A40FB680C330A431A6005
:1006F800BB6808331A687B6822FA03F1BB680433C5
:100708001A687B68C3F120039A40FB6808330A43E0
:100718001A60BB6804331A687B6822FA03F1BB6865
:100728001A687B68C3F120039A40FB6804330A43C4
:100738001A60BB681A687B68DA40BB680C331968B2
:100748007B68C3F1200301FA03F31A43FB681A60BC
:1007580000BF1437BD4680BC7047000080B483B02A
:1007680000AF786039607B681B681B0EDBB21A46E5
:100778004D4B9B5C1A067B681B681B0CDBB2194649
:100788004A4B5B5C1B041A437B681B681B0ADBB281
:100798001946474B5B5C1B0213437A681268D2B256
:1007A8001146444A525C13431A463B681A607B68F8
:1007B80004331B681B0EDBB21A463B4B9B5C1A06C4
:1007C8007B6804331B681B0CDBB21946374B5B5C38
:1007D8001B041A437B6804331B681B0ADBB21946E7
:1007E800334B5B5C1B0213437A6804321268D2B243
:1007F8001146304A525C1A433B6804331A607B68DE
:1008080008331B681B0EDBB21A46274B9B5C1A0683
:100818007B6808331B681B0CDBB21946234B5B5CF7
:100828001B041A437B6808331B681B0ADBB2194692
:100838001F4B5B5C1B0213437A6808321268D2B202
:1008480011461C4A525C1A433B6808331A607B689D
:100858000C331B681B0EDBB21A46134B9B5C1A0643
:100868007B680C331B681B0CDBB219460F4B5B5CB7
:100878001B041A437B680C331B681B0ADBB219463E
:100888000B4B5B5C1B0213437A680C321268D2B2C2
:100898001146084A525C1A433B680C331A6000BF81
:1008A8000C37BD4680BC704718F4000818F50008DE
:1008B80018F6000818F7000880B483B000AF786015
:1008C80039607B681B681B0EDBB21A464D4B9B5C7C
:1008D8001A067B681B681B0CDBB219464A4B5B5C2B
:1008E8001B041A437B681B681B0ADBB21946474B7B
:1008F8005B5C1B0213437A681268D2B21146444A01
:10090800525C13431A463B681A607B6804331B68C1
:100918001B0EDBB21A463B4B9B5C1A067B68043302
:100928001B681B0CDBB21946374B5B5C1B041A4374
:100938007B6804331B681B0ADBB21946334B5B5CCC
:100948001B0213437A6804321268D2B21146304A45
:10095800525C1A433B6804331A607B6808331B688F
:100968001B0EDBB21A46274B9B5C1A067B680833C2
:100978001B681B0CDBB21946234B5B5C1B041A4338
:100988007B6808331B681B0ADBB219461F4B5B5C8C
:100998001B0213437A6808321268D2B211461C4A05
:1009A800525C1A433B6808331A607B680C331B6837
:1009B8001B0EDBB21A46134B9B5C1A067B680C3382
:1009C8001B681B0CDBB219460F4B5B5C1B041A43FC
:1009D8007B680C331B681B0ADBB219460B4B5B5C4C
:1009E8001B0213437A680C321268D2B21146084AC5
:1009F800525C1A433B680C331A6000BF0C37BD4683
:100A080080BC704718F6000818F7000818F40008AA
:100A180018F5000880B48BB000AF786039607B6847
:100A28001B681B0E87F827307B681B681B0C87F830
:100A380026307B681B681B0A87F825307B681B6893
:100A480087F824307B6804331B681B0E87F8233033
:100A58007B6804331B681B0C87F822307B680433DF
:100A68001B681B0A87F821307B6804331B6887F8EA
:100A780020307B6808331B681B0EFB777B680833C4
:100A88001B681B0CBB777B6808331B681B0A7B77CA
:100A98007B6808331B683B777B680C331B681B0E2D
:100AA800FB767B680C331B681B0CBB767B680C33AE
:100AB8001B681B0A7B767B680C331B683B7697F8B0
:100AC800242097F823305340DAB297F82130534066
:100AD800DAB2FB7F5340DAB2BB7F5340DAB2BB7E57
:100AE8005340DAB27B7E5340FB7597F8252097F880
:100AF80022305340DAB297F820305340DAB2FB7F05
:100B08005340DAB2BB7F5340DAB2FB7E5340DAB2CD
:100B18003B7E5340BB7597F8262097F82330534007
:100B2800DAB297F821305340DAB27B7F5340DAB219
:100B38003B7F5340DAB2FB7E5340DAB23B7E5340F0
:100B48007B7597F8272097F822305340DAB297F848
:100B580020305340DAB27B7F5340DAB23B7F5340B8
:100B6800DAB2BB7E5340DAB27B7E53403B7597F8CE
:100B7800272097F825305340DAB297F822305340AF
:100B8800DAB2FB7F5340DAB23B7F5340DAB27B7E66
:100B98005340DAB23B7E5340FB7497F8262097F80F
:100BA80024305340DAB297F823305340DAB2BB7F8F
:100BB8005340DAB27B7F5340DAB27B7E5340DAB2DD
:100BC8003B7E5340BB7497F8272097F82530534055
:100BD800DAB297F820305340DAB2BB7F5340DAB22A
:100BE8007B7F5340DAB2FB7E5340DAB2BB7E534080
:100BF8007B7497F8262097F824305340DAB297F898
:100C080021305340DAB2FB7F5340DAB23B7F534086
:100C1800DAB2FB7E5340DAB2BB7E53403B7497F89E
:100C2800272097F826305340DAB297F823305340FC
:100C3800DAB297F820305340DAB27B7F5340DAB209
:100C4800BB7E5340DAB23B7E5340FB7397F82720B4
:100C580097F826305340DAB297F822305340DAB288
:100C680097F821305340DAB23B7F5340DAB2FB7E2B
:100C78005340DAB27B7E5340BB7397F8252097F830
:100C880024305340DAB297F822305340DAB297F85A
:100C980021305340DAB2FB7F5340DAB2BB7E534077
:100CA800DAB23B7E53407B7397F8252097F82430BF
:100CB8005340DAB297F823305340DAB297F820302D
:100CC8005340DAB2BB7F5340DAB2FB7E5340DAB20C
:100CD8007B7E53403B7397F8262097F82530534086
:100CE800DAB297F821305340DAB297F820305340FF
:100CF800DAB2BB7F5340DAB23B7F5340DAB2FB7EB5
:100D08005340FB7297F8272097F824305340DAB203
:100D180097F821305340DAB297F820305340DAB2CE
:100D2800FB7F5340DAB27B7F5340DAB2BB7E53403D
:100D3800BB7297F8272097F824305340DAB297F817
:100D480023305340DAB297F822305340DAB2BB7FEF
:100D58005340DAB23B7F5340DAB27B7E53407B721A
:100D680097F8262097F825305340DAB297F82330C1
:100D78005340DAB297F822305340DAB2FB7F53403F
:100D8800DAB27B7F5340DAB23B7E53403B72FB7D45
:100D98001A06BB7D1B041A437B7D1B021A433B7D4D
:100DA80013431A463B681A60FB7C1A06BB7C1B047B
:100DB8001A437B7C1B021A433B7C1A433B6804336F
:100DC8001A60FB7B1A06BB7B1B041A437B7B1B0246
:100DD8001A433B7B1A433B6808331A60FB7A1A06AE
:100DE800BB7A1B041A437B7A1B021A433B7A1A43C9
:100DF8003B680C331A6000BF2C37BD4680BC704777
:100E080080B588B000AFF860B9607A6007F1100368
:100E1800F9681846FFF7ECFB07F11003B9681846A4
:100E2800FFF7B7FB07F1100207F110031146184648
:100E3800FFF794FC07F1100379681846FFF7EAFDFD
:100E480000BF2037BD4680BD80B588B000AFF860D0
:100E5800B9607A6007F11003F9681846FFF7C8FB14
:100E680007F11003B9681846FFF793FB07F1100262
:100E780007F1100311461846FFF71EFD07F110038E
:100E880079681846FFF7C6FD00BF2037BD4680BD0C
:100E980080B588B000AFF860B9607A603B60132213
:100EA800B968B86AFFF70DFCF968B86AFFF771FB13
:100EB800BB6A1033132279681846FFF702FCBB6A35
:100EC8001033B9681846FFF764FBBB6A2033132256
:100ED80039681846FFF7F5FBBB6A2033796818466E
:100EE800FFF757FBBB6A30331322F9681846FFF740
:100EF800E8FBBB6A303339681846FFF74AFBBB6A20
:100F080040331F22B9681846FFF7DBFBBB6A403342
:100F1800F9681846FFF73DFBBB6A50331F22796812
:100F28001846FFF7CEFBBB6A5033B9681846FFF77F
:100F380030FBBB6A60331F2239681846FFF7C1FBD4
:100F4800BB6A603379681846FFF723FBBB6A7033C6
:100F58001F22F9681846FFF7B4FBBB6A703339687B
:100F68001846FFF716FBBB6A80331F22B96818467C
:100F7800FFF75BFBBB6A03F1800107F110031E2238
:100F88001846FFF752FBBB6A803307F1100211467F
:100F98001846FFF72DFBBB6A8033F9681846FFF740
:100FA800F8FABB6A90331F2279681846FFF73DFBB1
:100FB800BB6A03F1900107F110031E221846FFF7E0
:100FC80034FBBB6A903307F1100211461846FFF74D
:100FD8000FFBBB6A9033B9681846FFF7DAFABB6AA9
:100FE800A0331F2239681846FFF71FFBBB6A03F1BD
:100FF800A00107F110031E221846FFF716FBBB6A73
:10100800A03307F1100211461846FFF7F1FABB6A40
:10101800A03379681846FFF7BCFABB6AB0331F22C1
:10102800F9681846FFF701FBBB6A03F1B00107F145
:1010380010031E221846FFF7F8FABB6AB03307F10F
:10104800100211461846FFF7D3FABB6AB033396865
:101058001846FFF79EFABB6AC0331F22B9681846C4
:10106800FFF7E3FABB6AC033F9681846FFF791FA4D
:10107800BB6AD0331F2279681846FFF7D6FABB6AD5
:10108800D033B9681846FFF784FABB6AE0331F22E9
:1010980039681846FFF7C9FABB6AE0337968184619
:1010A800FFF777FABB6AF0331F22F9681846FFF793
:1010B800BCFABB6AF03339681846FFF76AFABB6AAC
:1010C80003F580731322B9681846FFF7AEFABB6AB6
:1010D80003F58073F9681846FFF75BFA00BF2037FD
:1010E800BD4680BD90B5A7B002AFF860B9607A6020
:1010F8007B68802B1DD1FB680D221A6000233B61A1
:1011080000237B610023BB610023FB6107F14003DF
:101118004F491846FFF76CFA07F130034D49184656
:10112800FFF766FA07F120034B491846FFF760FA04
:1011380043E07B68C02B1FD1FB680F221A60BB6895
:101148001B693B61BB685B697B610023BB61002352
:10115800FB6107F140033F491846FFF749FA07F1D9
:1011680030033D491846FFF743FA07F12003384991
:101178001846FFF73DFA20E0FB6811221A60BB68A9
:101188001B693B61BB685B697B61BB689B69BB6131
:10119800BB68DB69FB6107F140032F491846FFF77D
:1011A80027FA07F130032A491846FFF721FA07F111
:1011B800200328491846FFF71BFA07F18003B9688E
:1011C8001846FFF715FA07F1700207F1400107F119
:1011D80080031846FFF714FE07F1100207F17003A9
:1011E80011461846FFF7D5F907F1600207F13001FB
:1011F80007F170031846FFF727FE07F1800207F191
:10120800600311461846FFF7C4F907F1500207F1C9
:10121800200107F160031846FFF7F2FD07F170029D
:1012280007F1500311461846FFF7B3F9FB6804337A
:1012380007F1500407F1600207F1700107F180001F
:1012480000932346FFF724FE00BF9437BD4690BDA8
:10125800E8F30008F8F3000808F4000890B589B02E
:1012680000AFF860B9607A600023FB610023BB61BE
:10127800244A07F1100392E8030083E80300B968E1
:101288007868FFF7B5F90123FB6116E0FB6903F005
:1012980001039B0007F12002134453F8104CBB696B
:1012A8005A1CBA611B01FA68134404337A68194658
:1012B8007868A047FB690133FB61FB681B68023B48
:1012C800FA699A42E2D9BB695A1CBA611B01FA68E9
:1012D8001344043319467868FFF75BF9796878682E
:1012E800FFF7EAFABB695A1CBA611B01FA68134492
:1012F800043319467868FFF74CF900BF2437BD4618
:1013080090BD00BFC0F3000880B5C8B000AF3B1D5A
:1013180018603B4619603B1D1B6803F140013B46C2
:101328001A6807F10C031846FFF7DCFE3B1D196825
:101338003B1D1B6803F1200207F10C031846FFF759
:101348008DFF00BF07F59077BD4680BD80B483B0A0
:1013580000AF786039607A683B68C3F1200362FAAD
:1013680003F318460C37BD4680BC70472DE9F00FD3
:101378008CB000AF78623962FA613B6AD3E9002326
:10138800C7E90A233B6AD3E90023FE69A6F12001D5
:10139800C6F1200C03FA06F0786102FA01F17869C7
:1013A8000843786122FA0CFC796941EA0C017961F9
:1013B80002FA06F33B613B6A0833D3E90023F96973
:1013C800C1F14006C6F12001A6F1200022FA06F478
:1013D80003FA01F10C4323FA00F0044323FA06F55B
:1013E800D7E904120B462343BB6013462B43FB602B
:1013F8007B6AD7E90212C3E900123B6A0833D3E9D2
:101408000023F969A1F12004C1F1200003FA01FBCE
:1014180002FA04F44BEA040B22FA00F04BEA000B40
:1014280002FA01FAFB69C3F14001D7E90A23C1F1C5
:101438002004A1F1200022FA01F803FA04F448EA92
:10144800040823FA00F048EA000823FA01F97B6A45
:1014580008334AEA08023A604BEA09027A60D7E997
:101468000012C3E9001200BF3037BD46BDE8F00FD7
:10147800704700002DE9B00F97B000AFC7E90E0123
:10148800C7E90C23D7E90E01D7E90C2380EA020447
:1014980081EA0305C7E91445D7E914234FF0000092
:1014A8004FF00001180E0021034687F84F30D7E9A6
:1014B80014234FF000004FF00001180C00210346E0
:1014C80087F84E30D7E914234FF000004FF00001A1
:1014D800180A0021034687F84D30D7E914234FF046
:1014E80000004FF0000118000021034687F84C3037
:1014F800D7E914234FF000004FF00001100E40EA26
:101508000320190E034687F84B30D7E914234FF010
:1015180000004FF00001100C40EA0340190C03468C
:1015280087F84A30D7E914234FF000004FF0000144
:10153800100A40EA0360190A034687F849303B6DF0
:1015480087F8483097F84F20AE4B9B5C87F84F30B0
:1015580097F84E20AC4B9B5C87F84E3097F84D209F
:10156800AA4B9B5C87F84D3097F84C20A84B9B5CA6
:1015780087F84C3097F84B20A34B9B5C87F84B308F
:1015880097F84A20A14B9B5C87F84A3097F8492086
:101598009F4B9B5C87F8493097F84820994B9B5C98
:1015A80087F8483097F84F2097F84D305340DAB213
:1015B80097F84C305340DAB297F84A305340DAB2D1
:1015C80097F849305340DAB297F84830534087F8D3
:1015D800473097F84F2097F84E305340DAB297F8D3
:1015E8004C305340DAB297F84B305340DAB297F8A0
:1015F80049305340DAB297F84830534087F84630BC
:1016080097F84F2097F84E305340DAB297F84D309C
:101618005340DAB297F84B305340DAB297F84A3071
:101628005340DAB297F84830534087F8453097F876
:101638004E2097F84D305340DAB297F84C3053406B
:10164800DAB297F84B305340DAB297F84A30534041
:10165800DAB297F84930534087F8443097F84F206A
:1016680097F84E305340DAB297F84A305340DAB21E
:1016780097F849305340DAB297F84830534087F822
:10168800433097F84E2097F84D305340DAB297F828
:101698004B305340DAB297F849305340DAB297F8F2
:1016A8004830534087F8423097F84D2097F84C302F
:1016B8005340DAB297F84B305340DAB297F84A30D1
:1016C8005340DAB297F84830534087F8413097F8DA
:1016D8004F2097F84C305340DAB297F84B305340CC
:1016E800DAB297F84A305340DAB297F849305340A3
:1016F80087F8403097F847204FF000034FF0000478
:101708004FF000051506002497F846204FF0000317
:101718004FF000004FF000011104002044EA0008D7
:1017280045EA010997F845204FF000034FF0000003
:101738004FF000011102002048EA000A49EA010BB3
:1017480097F844204FF000034FF000004FF00001DD
:10175800110000204AEA0003BB624BEA0103FB6266
:1017680097F843204FF00003110A796213063B6291
:10177800D7E90A452346D7E9080102461343BB6166
:101788002B460A461343FB6197F842004FF00001CD
:101798004FF000024FF000030B0443EA1043020429
:1017A800D7E906452146114339612946194379612C
:1017B80097F841004FF000014FF000024FF000038E
:1017C8000B0243EA10630202D7E90445214611439C
:1017D800B96029461943F96097F840204FF0000393
:1017E800D7E90245214611433960294619437960F2
:1017F800D7E90023104619465C37BD46BDE8B00F4F
:10180800704700BF48F8000848F9000848FA00087F
:1018180048FB0008B0B588B000AFC7E90201C7E9C6
:101828000023D7E902014FF000024FF000030A003D
:1018380000231346FB61BB68BB61D7E900014FF089
:1018480000024FF000030A00002313467B613B6847
:101858003B61FA697B69134001211846FFF776FD61
:101868000246BB695340BB61BA693B691343FA69D5
:101878005340FB61FB6918464FF000014FF000022E
:101888004FF0000303000022B96908464FF0000139
:1018980042EA000443EA010522462B46104619464F
:1018A8002037BD46B0BDB0B588B000AFC7E902016A
:1018B800C7E90023D7E902014FF000024FF0000307
:1018C8000A0000231346FB61BB68BB61D7E900012E
:1018D8004FF000024FF000030A00002313467B611B
:1018E8003B683B61BA693B691343FA695340FB6142
:1018F800FA697B69134001211846FFF727FD024664
:10190800BB695340BB61FB6918464FF000014FF0BB
:1019180000024FF0000303000022B96908464FF0A7
:10192800000142EA000443EA010522462B4610461C
:1019380019462037BD46B0BD2DE9B04FB2B000AF53
:10194800F865B9651346A7F85630B7F85630802BB6
:101958001CD1FA6D03231380FA6D1A239370BB6DA3
:10196800D3E90023C7E92423BB6DD3E90223C7E9E0
:1019780026234FF000024FF00003C7E920234FF061
:1019880000024FF00003C7E9222330E0B7F85630D1
:10199800C02B05D0B7F85630B3F5807F40F04386AA
:1019A800FA6D04231380FA6D22239370BB6DD3E97B
:1019B8000023C7E92423BB6DD3E90223C7E9262303
:1019C800BB6DD3E90423C7E92023BB6DD3E9062304
:1019D800C7E92223B7F85630C02B07D1BB6D1033A7
:1019E800D3E90023D443DD43C7E9224500BFD7E943
:1019F8002401D7E9202380EA020881EA0309C7E91C
:101A08003089D7E92601D7E9222380EA020A81EA48
:101A1800030BC7E92EAB0FF61843D3E90023D7E928
:101A28003001FFF727FDD7E92E2382EA0004BC64C2
:101A38004B40FB64D7E91234C7E92E340FF6F8336C
:101A4800D3E90023D7E92E01FFF714FDD7E93023A6
:101A580082EA00043C644B407B64D7E91034C7E950
:101A68003034D7E92401D7E9302382EA0004BC6383
:101A78004B40FB63D7E90E34C7E93034D7E9260178
:101A8800D7E92E2382EA00043C634B407B63D7E905
:101A98000C34C7E92E340FF6A833D3E90023D7E96D
:101AA8003001FFF7E7FCD7E92E2382EA0004BC6285
:101AB8004B40FB62D7E90A34C7E92E340FF6883366
:101AC800D3E90023D7E92E01FFF7D4FCD7E9302367
:101AD80082EA00043C624B407B62D7E90834C7E9DC
:101AE8003034D7E93023C7E91C23D7E92E23C7E9C7
:101AF8001E23D7E91C01D7E9202380EA0204BC6130
:101B08004B40FB61D7E90634C7E93034D7E91E01F9
:101B1800D7E9222380EA02043C614B407B61D7E984
:101B28000434C7E92E340FF62833D3E90023D7E964
:101B38003001FFF79FFCD7E92E2382EA0004BC603E
:101B48004B40FB60D7E90234C7E92E340FF608335F
:101B5800D3E90023D7E92E01FFF78CFCD7E930231E
:101B680082EA00043C604B407B60D7E90034C7E957
:101B78003034D7E93023C7E91823D7E92E23C7E93A
:101B88001A23002387F8B730B7F85630802B40F077
:101B98005D8297F8B7305A1C87F8B7201946D7E9FD
:101BA8002423F86D0131C9000144C1E9002397F8E5
:101BB800B7305A1C87F8B7201946D7E92623F86D9D
:101BC8000131C9000144C1E9002397F8B7305A1C14
:101BD80087F8B7201946D7E91C23F86D0131C900E9
:101BE8000144C1E9002397F8B7305A1C87F8B72099
:101BF8001946D7E91E23F86D0131C9000144C1E92E
:101C0800002307F1900107F1A0030F221846FFF700
:101C1800ADFB97F8B7305A1C87F8B7201946D7E9B3
:101C28002823F86D0131C9000144C1E9002397F860
:101C3800B7305A1C87F8B7201946D7E92A23F86D18
:101C48000131C9000144C1E9002307F1700107F11E
:101C5800A0030F221846FFF789FB97F8B7305A1CE4
:101C680087F8B7201946D7E92823F86D0131C9004C
:101C78000144C1E9002397F8B7305A1C87F8B72008
:101C88001946D7E92A23F86D0131C9000144C1E991
:101C9800002307F1700107F1A0031E221846FFF781
:101CA80065FB97F8B7305A1C87F8B7201946D7E96B
:101CB8002823F86D0131C9000144C1E9002397F8D0
:101CC800B7305A1C87F8B7201946D7E92A23F86D88
:101CD8000131C9000144C1E9002307F1900107F16E
:101CE800A0031E221846FFF741FB07F1A00107F1E8
:101CF800A0030F221846FFF739FB97F8B7305A1C94
:101D080087F8B7201946D7E92823F86D0131C900AB
:101D18000144C1E9002397F8B7305A1C87F8B72067
:101D28001946D7E92A23F86D0131C9000144C1E9F0
:101D3800002307F1700107F1A0031E221846FFF7E0
:101D480015FB07F1A00107F1A0030F221846FFF7C2
:101D58000DFB97F8B7305A1C87F8B7201946D7E912
:101D68002823F86D0131C9000144C1E9002307F1B6
:101D7800900107F1A0031E221846FFF7F7FA07F1B2
:101D8800A00107F1A0031E221846FFF7EFFA97F803
:101D9800B7305A1C87F8B7201946D7E92A23F86DB7
:101DA8000131C9000144C1E9002307F1700107F1BD
:101DB800A0031E221846FFF7D9FA07F1A00107F180
:101DC800A0031E221846FFF7D1FA97F8B7305A1C1D
:101DD80087F8B7201946D7E92823F86D0131C900DB
:101DE8000144C1E9002397F8B7305A1C87F8B72097
:101DF8001946D7E92A23F86D0131C9000144C1E920
:101E0800002307F1900107F1A0031E221846FFF7EF
:101E1800ADFA07F1A00107F1A0031E221846FFF74B
:101E2800A5FA07F1A00107F1A00311221846FFF750
:101E38009DFA97F8B7305A1C87F8B7201946D7E9A2
:101E48002823F86D0131C9000144C1E9002397F83E
:101E5800B7305A1C87F8B7201946D7E92A23F86DF6
:101E68000131C9000144C1E9002307F1900107F1DC
:101E7800A0031E221846FFF779FA07F1A00107F11F
:101E8800A0031E221846FFF771FA07F1A00107F117
:101E9800A0031E221846FFF769FA07F1A00107F10F
:101EA800A00304221846FFF761FA97F8B7305A1CC6
:101EB80087F8B7201946D7E92823F86D0131C900FA
:101EC8000144C1E9002397F8B7305A1C87F8B720B6
:101ED8001946D7E92A23F86D0131C9000144C1E93F
:101EE800002307F1700107F1A0031E221846FFF72F
:101EF8003DFA07F1A00107F1A0031E221846FFF7DB
:101F080035FA07F1A00107F1A0031E221846FFF7D2
:101F18002DFA07F1A00107F1A00304221846FFF7E4
:101F280025FA97F8B7305A1C87F8B7201946D7E929
:101F38002823F86D0131C9000144C1E9002397F84D
:101F4800B7305A1C87F8B7201946D7E92A23F86D05
:101F58000131C9000144C1E9002307F1900107F1EB
:101F6800A0031E221846FFF701FA07F1A00107F1A6
:101F7800A0031E221846FFF7F9F907F1A00107F19F
:101F8800A0031E221846FFF7F1F907F1A00107F197
:101F9800A00315221846FFF7E9F997F8B7305A1C3D
:101FA80087F8B7201946D7E92823F86D0131C90009
:101FB8000144C1E9002397F8B7305A1C87F8B720C5
:101FC8001946D7E92A23F86D0131C9000144C1E94E
:101FD800002307F1700107F1A0031E221846FFF73E
:101FE800C5F907F1A00107F1A0031E221846FFF763
:101FF800BDF907F1A00107F1A0031E221846FFF75B
:10200800B5F907F1A00107F1A00315221846FFF75B
:10201800ADF997F8B7305A1C87F8B7201946D7E9B1
:102028002823F86D0131C9000144C1E9002397F85C
:10203800B7305A1C87F8B7201946D7E92A23F86D14
:102048000131C9000144C1E90023EDE297F8B73036
:102058005A1C87F8B7201946D7E92423F86D0131AF
:10206800C9000144C1E9002397F8B7305A1C87F822
:10207800B7201946D7E92623F86D0131C900014474
:10208800C1E9002397F8B7305A1C87F8B7201946DA
:10209800D7E91823F86D0131C9000144C1E90023CB
:1020A80097F8B7305A1C87F8B7201946D7E91A238A
:1020B800F86D0131C9000144C1E9002307F180012D
:1020C80007F1A0030F221846FFF750F997F8B73029
:1020D8005A1C87F8B7201946D7E92823F86D01312B
:1020E800C9000144C1E9002397F8B7305A1C87F8A2
:1020F800B7201946D7E92A23F86D0131C9000144F0
:10210800C1E9002307F1700107F1A0030F22184667
:10211800FFF72CF997F8B7305A1C87F8B7201946FB
:10212800D7E92823F86D0131C9000144C1E900232A
:1021380097F8B7305A1C87F8B7201946D7E92A23E9
:10214800F86D0131C9000144C1E9002307F180019C
:1021580007F1A0031E221846FFF708F997F8B730D1
:102168005A1C87F8B7201946D7E92823F86D01319A
:10217800C9000144C1E9002397F8B7305A1C87F811
:10218800B7201946D7E92A23F86D0131C90001445F
:10219800C1E9002307F1600107F1A0031E221846D8
:1021A800FFF7E4F897F8B7305A1C87F8B7201946B4
:1021B800D7E92823F86D0131C9000144C1E900239A
:1021C80097F8B7305A1C87F8B7201946D7E92A2359
:1021D800F86D0131C9000144C1E9002307F19001FC
:1021E80007F1A0031E221846FFF7C0F807F1A00167
:1021F80007F1A0030F221846FFF7B8F897F8B73091
:102208005A1C87F8B7201946D7E92823F86D0131F9
:10221800C9000144C1E9002397F8B7305A1C87F870
:10222800B7201946D7E92A23F86D0131C9000144BE
:10223800C1E9002307F1700107F1A0031E22184627
:10224800FFF794F807F1A00107F1A0030F22184641
:10225800FFF78CF897F8B7305A1C87F8B72019465B
:10226800D7E92823F86D0131C9000144C1E90023E9
:1022780097F8B7305A1C87F8B7201946D7E92A23A8
:10228800F86D0131C9000144C1E9002307F190014B
:1022980007F1A0031E221846FFF768F807F1A0010E
:1022A80007F1A0031E221846FFF760F897F8B73029
:1022B8005A1C87F8B7201946D7E92823F86D013149
:1022C800C9000144C1E9002397F8B7305A1C87F8C0
:1022D800B7201946D7E92A23F86D0131C90001440E
:1022E800C1E9002307F1800107F1A0031E22184667
:1022F800FFF73CF807F1A00107F1A0031E221846DA
:10230800FFF734F897F8B7305A1C87F8B720194602
:10231800D7E92823F86D0131C9000144C1E9002338
:1023280097F8B7305A1C87F8B7201946D7E92A23F7
:10233800F86D0131C9000144C1E9002307F16001CA
:1023480007F1A0031E221846FFF710F807F1A001B5
:1023580007F1A0031E221846FFF708F897F8B730D0
:102368005A1C87F8B7201946D7E92823F86D013198
:10237800C9000144C1E9002397F8B7305A1C87F80F
:10238800B7201946D7E92A23F86D0131C90001445D
:10239800C1E9002307F1900107F1A0031E221846A6
:1023A800FEF7E4FF07F1A00107F1A0031E2218467B
:1023B800FEF7DCFF07F1A00107F1A0031122184680
:1023C800FEF7D4FF97F8B7305A1C87F8B72019469C
:1023D800D7E92823F86D0131C9000144C1E9002378
:1023E80097F8B7305A1C87F8B7201946D7E92A2337
:1023F800F86D0131C9000144C1E9002307F17001FA
:1024080007F1A0031E221846FEF7B0FF07F1A0014E
:1024180007F1A0031E221846FEF7A8FF07F1A00146
:1024280007F1A00311221846FEF7A0FF97F8B7306E
:102438005A1C87F8B7201946D7E92823F86D0131C7
:10244800C9000144C1E9002397F8B7305A1C87F83E
:10245800B7201946D7E92A23F86D0131C90001448C
:10246800C1E9002307F1800107F1A0031E221846E5
:10247800FEF77CFF07F1A00107F1A0031E22184612
:10248800FEF774FF07F1A00107F1A0032222184606
:10249800FEF76CFF97F8B7305A1C87F8B720194633
:1024A800D7E92823F86D0131C9000144C1E90023A7
:1024B80097F8B7305A1C87F8B7201946D7E92A2366
:1024C800F86D0131C9000144C1E9002307F1700129
:1024D80007F1A0031E221846FEF748FF07F1A001E6
:1024E80007F1A0031E221846FEF740FF07F1A001DE
:1024F80007F1A00322221846FEF738FF97F8B730F5
:102508005A1C87F8B7201946D7E92823F86D0131F6
:10251800C9000144C1E9002397F8B7305A1C87F86D
:10252800B7201946D7E92A23F86D0131C9000144BB
:10253800C1E9002307F1900107F1A0031E22184604
:10254800FEF714FF07F1A00107F1A0031E221846A9
:10255800FEF70CFF07F1A00107F1A0031E221846A1
:10256800FEF704FF07F1A00107F1A00315221846A2
:10257800FEF7FCFE97F8B7305A1C87F8B7201946C3
:10258800D7E92823F86D0131C9000144C1E90023C6
:1025980097F8B7305A1C87F8B7201946D7E92A2385
:1025A800F86D0131C9000144C1E9002307F1600158
:1025B80007F1A0031E221846FEF7D8FE07F1A00176
:1025C80007F1A0031E221846FEF7D0FE07F1A0016E
:1025D80007F1A0031E221846FEF7C8FE07F1A00166
:1025E80007F1A00315221846FEF7C0FE97F8B7308A
:1025F8005A1C87F8B7201946D7E92823F86D013106
:10260800C9000144C1E9002397F8B7305A1C87F87C
:10261800B7201946D7E92A23F86D0131C9000144CA
:10262800C1E9002300E000BFC837BD46BDE8B08F50
:102638008B90CC3B7F669EA0B273AA4C58E87AB6C2
:10264800BE824FE92F37EFC61C6FD3F1A553FF5455
:102658001D2D68DEFA27E510FDC1E6B3C28856B025
:102668002DE9F04F91B000AFF861B9617A61BB69AB
:10267800D3E90023C7E90823BB69D3E90223C7E9E3
:102688000A230023FB87FB8F5A1CFA87FA69013358
:10269800DB001344D3E90001D7E9082380EA0206E6
:1026A800BE604B40FB60D7E90223C7E90823FB8FD4
:1026B8005A1CFA87FA690133DB001344D3E9000195
:1026C800D7E90A2380EA02063E604B407B60D7E9DF
:1026D8000023C7E90A2300237B8767E00123BB8720
:1026E80036E0BB8F03F001033B873B8F03F0010308
:1026F800002B0CBF01230023DBB2FB86FB8EDB0023
:1027080007F140021344203BD3E90001FB8F5A1C18
:10271800FA87FA690133DB001344D3E90023FEF793
:10272800A9FE3B8FDB0007F140021344203BD3E9AD
:1027380000233E8F80EA020A81EA030BF30007F1C7
:1027480040021344203BC3E900ABBB8F0133BB8776
:10275800BB8F062BC5D97A8FFB691B88013B9A4230
:1027680021D0D7E90801FB8F5A1CFA87FA6901338F
:10277800DB001344D3E90023FFF74CF802460B466D
:10278800C7E90823D7E90A01FB8F5A1CFA87FA69B7
:102798000133DB001344D3E90023FFF784F8024632
:1027A8000B46C7E90A237B8F01337B87FB691B88AC
:1027B8007A8F9A4292D3FB8F5A1CFA87FA690133AF
:1027C800DB001344D3E90001D7E90A2380EA0208B1
:1027D80081EA0309C7E90A89FB8F5A1CFA87FA6953
:1027E8000133DB001344D3E90001D7E9082380EA69
:1027F800020481EA0305C7E90845D7E90A2379698C
:10280800C1E900237B6903F10801D7E90823C1E97D
:10281800002300BF4437BD46BDE8F08F2DE9B04F17
:10282800ADF5007D00AF07F14403186007F14003E0
:10283800196007F144031B681B681A464FF0000330
:10284800C7E97E2307F144031B685B681A464FF00B
:102858000003C7E97C2307F144031B689B681A46F9
:102868004FF00003C7E97A2307F144031B68DB68CC
:102878001A464FF00003C7E9782307F144031B68A1
:102888001B6C1A464FF00003C7E9762307F144038F
:102898001B685B6C1A464FF00003C7E9742307F105
:1028A80044031B689B6C1A464FF00003C7E9722368
:1028B80007F144031B68DB6C1A464FF00003C7E9B5
:1028C800702307F144031B681B6D1A464FF0000381
:1028D800C7E96E2307F144031B685B6D1A464FF086
:1028E8000003C7E96C2307F144031B689B6D1A4674
:1028F8004FF00003C7E96A2307F144031B68DB6D47
:102908001A464FF00003C7E96823D7E97E234FF042
:1029180000004FF0000111000020D7E97C2340EAB5
:10292800020441EA030507F15803C3E90045D7E962
:102938007A234FF000004FF0000111000020D7E982
:10294800782340EA020841EA030907F15803C3E97A
:10295800028907F140031B68B3F5807F00F095807A
:1029680007F140031B68B3F5807F00F3E08007F1AF
:1029780040031B68802B05D007F140031B68C02B60
:102988003BD0D4E0D7E976014FF000024FF00003C6
:1029980003000022D7E9740142EA0004BC630B4338
:1029A800FB6307F16803D7E90E12C3E90012D7E900
:1029B80072014FF000024FF0000303000022D7E934
:1029C800700142EA00043C630B437B6307F1680330
:1029D800D7E90C12C3E9021207F168014FF00002AF
:1029E8004FF00003C1E9042307F168014FF000022A
:1029F8004FF00003C1E906239AE0D7E976014FF0CA
:102A080000024FF0000303000022D7E9740142EAF4
:102A18000004BC620B43FB6207F16803D7E90A12A2
:102A2800C3E90012D7E972014FF000024FF000032A
:102A380003000022D7E9700142EA00043C620B431C
:102A48007B6207F16803D7E90812C3E90212D7E9E4
:102A58006E014FF000024FF0000303000022D7E997
:102A68006C0142EA0004BC610B43FB6107F1680397
:102A7800D7E90612C3E9041207F168014FF0000212
:102A88004FF00003C1E9062352E0D7E976014FF081
:102A980000024FF0000303000022D7E9740142EA64
:102AA80000043C610B437B6107F16803D7E904121A
:102AB800C3E90012D7E972014FF000024FF000039A
:102AC80003000022D7E9700142EA0004BC600B430E
:102AD800FB6007F16803D7E90212C3E90212D7E9DC
:102AE8006E014FF000024FF0000303000022D7E907
:102AF8006C0142EA00043C600B437B6007F1680309
:102B0800D7E90012C3E90412D7E96A014FF00002BD
:102B18004FF0000303000022D7E9680142EA000AE7
:102B280043EA010B07F16803C3E906AB00E000BF05
:102B380007F140031B689AB207F1680107F188039F
:102B48001846FEF7F9FE07F1480207F1580107F1A8
:102B580088031846FFF784FD07F14803D3E900010D
:102B68004FF000024FF000030A00002307F144036E
:102B78001B681A6207F14803D3E9002307F14403ED
:102B88001B685A6207F14803D3E902014FF00002BB
:102B98004FF000030A00002307F144031B689A6200
:102BA80007F14803D3E9022307F144031B68DA62FB
:102BB80000BF07F50077BD46BDE8B08F80B582B08D
:102BC80000AF78600B46FB70FB78122B00F28E800A
:102BD80001A252F823F000BF2D2C0008372C000862
:102BE800412C00084D2C0008572C0008612C0008C7
:102BF8006D2C0008772C0008812C00088B2C00080D
:102C0800952C0008A12C0008AB2C0008B52C000856
:102C1800E92C0008C12C0008CB2C0008D52C000892
:102C2800DF2C000880217868FEF76EFB5FE0C0218A
:102C38007868FEF769FB5AE04FF480717868FEF710
:102C480063FB54E080217868FFF7E8FD4FE0C0217E
:102C58007868FFF7E3FD4AE04FF480717868FFF782
:102C6800DDFD44E08021786801F092FA3FE08021A0
:102C7800786802F050F93AE08021786803F006F8A5
:102C880035E0C021786803F001F830E04FF4807136
:102C9800786802F0FBFF2AE08021786803F0E7FB00
:102CA80025E0C021786803F0E2FB20E04FF4807152
:102CB800786803F0DCFB1AE08021786800F0ACFD4E
:102CC80015E05021786801F02FFF10E08021786826
:102CD80001F02AFF0BE08021786800F06FFB06E026
:102CE8004FF48071786800F04FF900E000BF00BF32
:102CF8000837BD4680BD00BF84B080B584B000AF42
:102D080007F1180C8CE80F0097F87C30194607F18A
:102D18001800FFF753FF0023FB6002E0FB68013354
:102D2800FB60FB68032BF9DDBA6ABB6B5340BB64DD
:102D3800FA6AFB6B5340FB64D7F88030042B08D148
:102D48003A6B3B6C53403B657A6B7B6C53407B65BD
:102D580003E000233B6500237B650023BB6002E0A2
:102D6800BB680133BB60BB68032BF9DD97F87C3087
:102D7800194607F11800FFF721FFBA6CBB6B5340E7
:102D8800BB63FA6CFB6B5340FB633A6D3B6C53407F
:102D98003B647A6D7B6C53407B6400237B6016E058
:102DA8007B68083307F1180252F82320D7F88410FB
:102DB800D7F88030C91A7B680B440B4951F8233087
:102DC8009A4201D0012308E07B6801337B607A686E
:102DD800D7F880309A42E3DB002318461037BD4607
:102DE800BDE8804004B070470400002080B489B07A
:102DF80000AF78602C4B1A687B6813442B4A136029
:102E08000023FB610023BB6128E0284B1A68BB69DB
:102E1800C3F107039B0022FA03F3DBB203F00F03AD
:102E2800FB74FB7C2249BA6912010A4413441B78DB
:102E3800FB740023FB60FB7CFA681343FB60BB69EF
:102E4800C3F107039B00FA6802FA03F3FB60FA690F
:102E5800FB681343FB61BB690133BB61BB69072B8B
:102E6800D3DD144AFB691360124B1B68DB027B61DC
:102E7800104B1B685A0D7B6913430E4A13600D4BA8
:102E88001A680D4B1B6853400C4A1360064B1B68AD
:102E9800094A1360094B1B68034A136000BF2437B3
:102EA800BD4680BC704700BF101D0020201D0020BB
:102EB80048FC00081C1D0020181D0020141D0020BF
:102EC800B0B58AB000AFC7E902017A60BB682C4A86
:102ED8001360D7E902014FF000024FF000030A0027
:102EE8000023284B1A6000237B6213E000233B6217
:102EF8000AE03B6A9B007A6813441B681846FFF790
:102F080075FF3B6A01333B623B6A072BF1DD7B6A45
:102F180001337B627B6A022BE8DD0723FB610AE051
:102F2800FB699B007A6813441B681846FFF75EFF2D
:102F3800FB69013BFB61FB69002BF1DA104B1B6855
:102F48001A464FF00003C7E90423D7E904014FF0FC
:102F580000024FF00003030000220A4909680846EE
:102F68004FF0000142EA000443EA0105C7E90445BD
:102F7800D7E90423104619462837BD46B0BD00BF1F
:102F8800101D0020181D0020B0B58AB000AF786071
:102F980039607B681B681A464FF00003C7E90823AD
:102FA8007B685B681A464FF00003C7E90623D7E938
:102FB80008014FF000024FF0000303000022D7E998
:102FC800060140EA020441EA0305C7E904457B68B3
:102FD80040331A46D7E90401FFF772FFC7E9020137
:102FE800D7E902014FF000024FF000030A00002366
:102FF8007B681A62BA687B685A627B6800229A62A8
:103008007B680022DA6200BF2837BD46B0BD80B4B5
:1030180083B000AF03460A46FB711346BB71FA79C9
:10302800BB7902FA03F35AB2F979BB79C3F1080301
:1030380041FA03F35BB213435BB2DBB218460C37B9
:10304800BD4680BC704790B583B000AF0346FB71A6
:10305800FB7901211846FFF7DAFF03461C46FB7986
:1030680002211846FFF7D3FF03466340DCB2FB7921
:1030780007211846FFF7CBFF03466340DBB218462B
:103088000C37BD4690BD90B583B000AF0346FB71C9
:10309800FB7903211846FFF7BAFF03461C46FB7964
:1030A80004211846FFF7B3FF03466340DCB2FB79FF
:1030B80006211846FFF7ABFF03466340DBB218460C
:1030C8000C37BD4690BD90B585B000AF7860084616
:1030D80011461A460346FB700B46BB7013467B70BD
:1030E8007B689B79FB737B68DB79BB737B680733F1
:1030F8007A6892791A707B6805331C787B68043388
:103108001B781846FFF7BFFF03461A467B785340E3
:10311800DAB27B6806332244D2B21A707B68053370
:103128007A6812791A707B6803331B785CB27B6803
:1031380002331B781846FFF786FF03461A46BB780A
:103148001344DBB25BB263405AB27B680433D2B239
:103158001A707B6803337A6892781A707B68013337
:103168001C787B681B781846FFF78DFF03461A46C4
:10317800FB785340DAB27B6802332244D2B21A7029
:103188007B6801337A6812781A70FB7B1846FFF760
:103198005AFF03461A4697F820301344DBB25AB256
:1031A80097F90E3053405BB2DAB27B681A7000BFF1
:1031B8001437BD4690BD000080B487B000AF78607A
:1031C800396000237B610CE07B690C333A68134457
:1031D80019787A687B6913440A461A707B69013347
:1031E8007B617B69032BEFDD04237B610CE07B694A
:1031F800043B3A68134419787A687B6913440A4691
:103208001A707B6901337B617B69072BEFDD002333
:103218007B613CE000233B6133E03A697B69D31A68
:1032280003F00703FB60FB683A68134419787B696D
:103238001A013B6913441A4AD25C7B6918013B693D
:1032480003440A44D1B27A6813440A461A72FB68E6
:1032580008333A68134419787B691A013B691344A7
:1032680008330F4AD25C7B6918013B690344083371
:103278000A44D1B27A6813440A461A723B69013388
:103288003B613B69072BC8DD7B6901337B617B6947
:10329800072BBFDD00BF00BF1C37BD4680BC704791
:1032A800C8FC0008B0B58AB002AFF860B9607A60AF
:1032B8000023BB77BB681A78FB681B781344DBB222
:1032C8003B75BB685B787B75BB6802331A78FB6813
:1032D8005B785340DBB2BB75BB68DB78FB75BB68BA
:1032E80004331A78FB689B781344DBB23B76BB68DF
:1032F8005B797B76BB6806331A78FB68DB785340CA
:10330800DBB2BB76BB68DB79FB760023FB771FE07B
:10331800BB7FFA681344197ABB7F0133FA681344F8
:103328001C7ABB7F0233FA6813441D7ABB7F0333D0
:10333800FA6813441B7A07F1140000932B462246BF
:10334800FFF7C1FEBB7F0433BB77FB7F0133FB77FD
:10335800FB7F1F2BDCD97A7DFB681B791344DAB21B
:103368007B681A707B680133BA7D1A70F97DFB6837
:103378005A797B6802334A40D2B21A707B680333A9
:103388003A7E1A70797EFB689A797B6804330A441E
:10339800D2B21A707B680533BA7E1A70F97EFB6860
:1033A800DA797B6806334A40D2B21A707B680733F1
:1033B8003A7D1A7000BF2037BD46B0BD80B5ACB0AD
:1033C80000AF786039607B681B6C1B0EDBB23B7604
:1033D8007B681B6C1B0CDBB27B767B681B6C1B0A47
:1033E800DBB2BB767B681B6CDBB2FB767B685B6C05
:1033F8001B0EDBB23B777B685B6C1B0CDBB27B770D
:103408007B685B6C1B0ADBB2BB777B685B6CDBB2EF
:10341800FB777B689B6C1B0EDBB287F820307B68E0
:103428009B6C1B0CDBB287F821307B689B6C1B0AFA
:10343800DBB287F822307B689B6CDBB287F82330DD
:103448007B68DB6C1B0EDBB287F824307B68DB6C97
:103458001B0CDBB287F825307B68DB6C1B0ADBB200
:1034680087F826307B68DB6CDBB287F827307B680F
:103478001B681B0EDBB23B747B681B681B0CDBB242
:103488007B747B681B681B0ADBB2BB747B681B6898
:10349800DBB2FB747B685B681B0EDBB23B757B6839
:1034A8005B681B0CDBB27B757B685B681B0ADBB255
:1034B800BB757B685B68DBB2FB7507F1180207F127
:1034C800280311461846FFF777FE07F1080207F1AF
:1034D800100107F128031846FFF7E4FE3B7A1B06A4
:1034E8001A467B7A1B041343BA7A12021343FA7AF8
:1034F8001A437B681A623B7B1B061A467B7B1B04BC
:103508001343BA7B12021343FA7B1A437B685A624D
:103518007B6800229A627B680022DA6200BFB037BB
:10352800BD4680BD80B485B000AF03460A46FB8027
:103538001346BB80FB88002B04D1BB88C3F1010371
:103548009BB21AE0BB88002B04D1FB88C3F10103AE
:103558009BB212E0FB88BA8802FB03F3BB60BB682E
:103568009AB2BB681B0CD31AFB60FB68002B02DC09
:10357800FB680133FB60FB689BB218461437BD46F5
:1035880080BC704780B485B000AF78603960002394
:10359800FB600CE0FB685B007A681A44FB685B0020
:1035A80039680B4412881A80FB680133FB60FB689A
:1035B800072BEFDD65E0FB6803F00703062B1DD141
:1035C800FB6803F10043073B5B003A6813441B8820
:1035D8005B021AB2FB6803F100430E3B5B003968DB
:1035E8000B441B88DB099BB21BB2534019B2FB6822
:1035F8005B003A6813448AB21A803FE0FB6803F024
:103608000703072B1DD1FB6803F100430F3B5B0049
:103618003A6813441B885B021AB2FB6803F1004343
:103628000E3B5B0039680B441B88DB099BB21BB25D
:10363800534019B2FB685B003A6813448AB21A8097
:103648001CE0FB6803F10043073B5B003A68134446
:103658001B885B021AB2FB6803F10043063B5B0060
:1036680039680B441B88DB099BB21BB2534019B263
:10367800FB685B003A6813448AB21A80FB6801331E
:10368800FB60FB68332B96DD00BF00BF1437BD46D7
:1036980080BC704790B589B000AFF860B9607A60B7
:1036A800FB681B88BB83FB685B887B83FB689B8804
:1036B8003B83FB68DB88FB820123FB8359E0BB6803
:1036C8009A1CBA601B88BA8B11461846FFF72AFF66
:1036D8000346BB83BB689A1CBA601A887B8B134469
:1036E8007B83BB689A1CBA601A883B8B13443B8364
:1036F800BB689A1CBA601B88FA8A11461846FFF7FD
:1037080011FF0346FB82BB689A1CBA601888BA8B03
:103718003B8B53409BB21946FFF704FF0346BB821D
:10372800BB689A1CBA6018887A8BFB8A53409AB295
:10373800BB8A13449BB21946FFF7F4FE03467B820B
:10374800BA8A7B8A1344BB827A8ABB8B5340BB8379
:10375800BA8AFB8A5340FB82BA8A7B8B5340BB826E
:103768007A8A3B8B53407B83BB8A3B83FB8B013339
:10377800FB83FB8B082BA2D9BB689A1CBA601B88F9
:10378800BA8B11461846FFF7CDFE03461A467B68EA
:103798001A80BB689A1CBA6019887B6802333A8B16
:1037A8000A4492B21A80BB689A1CBA6019887B686E
:1037B80004337A8B0A4492B21A80BB689A1CBA60A6
:1037C8001A887B689C1DFB8A19461046FFF7AAFEDB
:1037D8000346238000BF2437BD4690BD80B582B024
:1037E80000AF786039607B6819463868FFF7CAFE11
:1037F80000BF0837BD4680BD80B584B000AFF86013
:10380800B9607A60FB687A681946B868FFF742FFC2
:1038180000BF1037BD4680BD80B5A4B000AF78604A
:1038280039607B681B681B0C9BB23B827B681B68FA
:103838009BB27B827B685B681B0C9BB2BB827B68FC
:103848005B689BB2FB827B681B6C9BB23B837B688B
:103858005B6C9BB27B837B689B6C9BB2BB837B68F6
:10386800DB6C9BB2FB837B681B6D9BB23B847B68E4
:103878005B6D9BB27B847B689B6D9BB2BB847B68D2
:10388800DB6D9BB2FB8407F1180207F12803114690
:103898001846FFF7A3FF07F1080207F1100107F127
:1038A80028031846FFF7A8FF3B891B041A467B89A3
:1038B8001A437B681A62BB891B041A46FB891A43A0
:1038C8007B685A627B6800229A627B680022DA620F
:1038D80000BF9037BD4680BD80B483B000AF0346BB
:1038E800FB7197F90730002B12DBFB7903F01F02FD
:1038F8000A4997F907305B09012000FA02F22033E0
:1039080041F82320BFF34F8F00BFBFF36F8F00BF75
:1039180000BF0C37BD4680BC704700BF00E100E027
:1039280080B483B000AF78607B68DB6843F0200226
:103938007B68DA6000BF0C37BD4680BC704780B436
:1039480083B000AF78607B685B6943F001027B68F5
:103958005A6100BF0C37BD4680BC704780B483B045
:1039680000AF78607B685B68DBB218460C37BD46F1
:1039780080BC704780B5B8B018AF03463960FB719A
:103988000023FB670023BB6700237B670EE0314AF7
:103998007B6F52F823207B6F10339B0007F1800167
:1039A8000B4443F8782C7B6F01337B677B6F072BC5
:1039B800EDDD00233B6711E0274AFB6F52F8232017
:1039C8003B6F04339B0007F180010B4443F8782CCC
:1039D800FB6F0133FB673B6F01333B673A6F3B6813
:1039E8009A42E9DB0023FB6610E01C4ABB6F52F8E1
:1039F8002320FB6E9B0007F180010B4443F8782CD1
:103A0800BB6F0133BB67FB6E0133FB66FA6E3B6825
:103A18009A42EADBFB6F17933B681693FB79159381
:103A2800684607F11803542219460AF06BFF07F19C
:103A380008030FCBFFF760F90346012B01D10123DF
:103A480003E0FB6F932BB4DD002318468037BD4697
:103A580080BD00BFD01B00208C1200204809002028
:103A680080B58EB000AF03F025FB00F0E7F800202A
:103A780002F0ECFF012002F0E9FF022002F0E6FF6D
:103A88005C4B5D4A1A605B4B4FF4E1325A60594B0C
:103A980000229A60574B0022DA60564B00221A61C6
:103AA800544B00229A61534B0C225A61514B00220D
:103AB800DA61504808F030FE0346002B01D000F0D0
:103AC800EBF84E4B4E4A1A604E4B4F4A1A604F4B1A
:103AD80000221A604E4B00221A604748FFF720FF69
:103AE8004548FFF72CFF4B4B1B789AB24FF47A737B
:103AF8004949404808F0C6FF0346002B01D000F0B2
:103B0800CBF8464B1B68454A43F080731360444B1F
:103B180000221A60434B1B68424A43F001031360BA
:103B2800414B1B789AB24FF47A734049314808F0F8
:103B3800A9FF0346002B01D000F0AEF800BF344BBC
:103B48001B68002BFBD0324B00221A602D4B1968E2
:103B58004FF47A730A22274808F094FF0346002B93
:103B680001D000F099F8002003F01CF84FF4FA7027
:103B780003F082FB00237B6338E0294B1B683B631F
:103B880004210020FFF7F6FEF862254B1B68BB6294
:103B9800BA6A3B6BD31A7B623B1DFA6A2449184602
:103BA8000AF0E2FE391D4FF47A730322114808F037
:103BB80069FF3B1D1F4918460AF0D6FE4FF4FA70FC
:103BC80003F05AFB3B1D7A6A1B4918460AF0CCFEE3
:103BD800391D4FF47A732022064808F053FF4FF43A
:103BE8007A7003F049FB7B6B01337B637B6B092B9A
:103BF800C3DD95E7381D002000480040241D002043
:103C0800281D0020341D0020781D0020F81C0020ED
:103C1800FC1C0020241C0020F01B0020FCED00E010
:103C2800041000E0001000E0541C0020281C0020B4
:103C3800C8F30008D0F30008D4F3000880B592B0A8
:103C480000AF01237B600523BB600223FB614FF4B7
:103C580080033B6208237B62F023BB620223FB6282
:103C680005233B633B1D184607F0A8FD0F237B6324
:103C78000223BB630023FB634FF4A0533B644FF460
:103C880080537B6407F134030321184607F0E6FFED
:103C980000BF4837BD4680BD80B500AF022002F0A6
:103CA80081FF4FF47A7003F0E7FAF7E790B583B035
:103CB80000AF124B1A68124B1B68591C1048016060
:103CC800D4181048FFF74AFE034623700C4B1B68B4
:103CD800092B0FD90C4B01221A600C4B1B687B6017
:103CE800064B1B68094A1360044A7B681360044B3F
:103CF80000221A6000BF0C37BD4690BD241D00206D
:103D0800F81C002000480040FC1C0020341D002046
:103D180080B582B000AF2720FFF7DEFD094B1B6896
:103D28007B607B6803F00403002B03D0022002F0C1
:103D380005FF02E0022002F001FF00BF0837BD4680
:103D480080BD00BF0048004080B4ADF61C0D00AF38
:103D58000023C7F80838B42387F80738712387F891
:103D6800063897F8073887F817380023C7F80C384B
:103D780046E097F8172897F80638134087F816385A
:103D880097F8163887F805380123C7F8103811E076
:103D980097F80528D7F8103842FA03F35AB297F97A
:103DA800163853405BB287F81638D7F81038013305
:103DB800C7F81038D7F81038072BE9DD97F8173807
:103DC80003F00103D9B23A1DD7F8083813440A465C
:103DD8001A7097F817385B08DBB25AB297F816389A
:103DE800DB015BB213435BB287F81738D7F80C389E
:103DF8000133C7F80C38D7F808380133C7F8083842
:103E0800D7F80C38072BB4DD97F8172897F8073838
:103E18009A4201D1002301E097F81738184607F6AF
:103E28001C07BD4680BC704780B483B000AF786083
:103E380039603B681A687B681A607B6804333A68A3
:103E480052681A607B6808333A6892681A607B681F
:103E58000C333A68D2681A6000BF0C37BD4680BC84
:103E6800704780B483B000AF786039607A683B6887
:103E7800C3F1200362FA03F318460C37BD4680BC31
:103E8800704780B483B000AF786039607A683B6867
:103E980062FA03F318460C37BD4680BC704790B5EC
:103EA80083B000AF78607B6804331A687B681C1D98
:103EB80001211046FFF7D5FF034623607B680833CE
:103EC8001A687B6803F1080405211046FFF7C9FF4B
:103ED800034623607B680C331A687B6803F10C0483
:103EE80002211046FFF7BDFF0346236000BF0C37D1
:103EF800BD4690BD90B583B000AF78607B68043351
:103F08001A687B681C1D01211046FFF7BAFF03469B
:103F180023607B6808331A687B6803F1080405216D
:103F28001046FFF7AEFF034623607B680C331A6820
:103F38007B6803F10C0402211046FFF7A2FF034639
:103F4800236000BF0C37BD4690BD80B485B000AF7C
:103F580078607B680C331A687B6808331B681A43DF
:103F68007B6804331B685A407B680433D2431A6069
:103F78007B681A687B68083319687B6804331B6898
:103F88000B405A407B681A607B68DB68FB607B6883
:103F98000C337A6812681A607B68FA681A607B6862
:103FA800083319687B681A687B6804331B685A40B1
:103FB8007B680C331B685A407B6808334A401A6098
:103FC8007B680C331A687B6808331B681A437B6864
:103FD80004331B685A407B680433D2431A607B68F9
:103FE8001A687B68083319687B6804331B680B40C0
:103FF8005A407B681A6000BF1437BD4680BC7047C2
:1040080090B585B000AF786039603B681A683B6846
:1040180008331B685340FB600821F868FFF731FF3D
:1040280004460821F868FFF71CFF03466340FA6856
:104038005340FB603B68043319683B680433FA68F3
:104048004A401A603B680C3319683B680C33FA68BD
:104058004A401A603B681A687B681B685A403B688C
:104068001A603B68043319687B6804331A683B6834
:1040780004334A401A603B68083319687B68083380
:104088001A683B6808334A401A603B680C33196861
:104098007B680C331A683B680C334A401A603B68EB
:1040A80004331A683B680C331B685340FB600821D3
:1040B800F868FFF7E6FE04460821F868FFF7D1FE26
:1040C80003466340FA685340FB603B681A68FB6824
:1040D8005A403B681A603B68083319683B680833E4
:1040E800FA684A401A6000BF1437BD4690BD80B5D3
:1040F80084B000AFF860B9607A603B60BB681A684A
:104108007B685A40BB681A60B968F868FFF778FF9F
:10411800BB681A683B685A40BB681A60B868FFF702
:10412800BEFEB868FFF711FFB868FFF7E3FE00BFEF
:104138001037BD4680BD000080B586B000AFF8607E
:10414800B9607A60F9687868FFF76EFE00237B61D2
:104158000BE00E4A7B6952F8232000237968B8687F
:10416800FFF7C5FF7B6901337B617B690F2BF0DDAE
:104178007B681B68D4225A407B681A607968B868E3
:10418800FFF73EFF00BF1837BD4680BD48FD000859
:1041980080B58CB000AF786039600023FB620CE01A
:1041A800FFF7D2FD0346194607F10C02FB6A1344D8
:1041B8000A461A70FB6A0133FB62FB6A0F2BEFDDBC
:1041C8000023FB622EE0FB6A9B00033307F13002F9
:1041D800134413F8243C1A06FB6A9B00023307F1C8
:1041E80030010B4413F8243C1B041A44FB6A9B005F
:1041F800013307F130010B4413F8243C1B0213442C
:10420800FA6A920007F130010A4412F8242C1A4481
:10421800FB6A9B0007F130010B4443F8142CFB6A3E
:104228000133FB62FB6A032BCDDD7B6803F14001A0
:104238007B6803F1200207F11C031846FFF77CFF97
:1042480000BF3037BD4680BD2DE9B00FC3B000AF09
:10425800C7F8DC00C7F8D8101346A7F8D630B7F867
:10426800D630502B40F04981D7F8D8301B889AB205
:104278004FF00003C7E94023D7F8D83002331B8832
:104288009AB24FF000034FF000044FF000051504F8
:104298000024D7F8D83004331B889AB24FF00003B3
:1042A8004FF000004FF000011100002044EA000325
:1042B800C7F8C83045EA0103C7F8CC30D7F8D8307A
:1042C80006331B889AB24FF000034FEA124B4FEAAD
:1042D800024AD7E932120B4643EA0A03C7F8C0304C
:1042E800134643EA0B03C7F8C430D7F8D83008336D
:1042F8001B889AB24FF00003D7E930452146114395
:104308003966294619437966D7E91834C7E93E342E
:10431800D7E940234FF000044FF0000515040024AE
:10432800D7E93E234FF000004FF00001100C40EA9F
:104338000340190C44EA0003C7F8B83045EA010302
:10434800C7F8BC30D7F8DC30D7E92E12C3E9001221
:10435800012387F8F730CAE0D7E94023C7E93823B3
:10436800D7E93E234FF000004FF00001D00840EAA3
:104378004370D9084FF6FF724FF0000300EA0204B9
:10438800BC650B40FB65D7E91634C7E94034D7E96B
:104398003E234FF000044FF0000555070024D7E9ED
:1043A80038234FF000004FF000015103002044EA89
:1043B8000003C7F8B03045EA0103C7F8B430D7E9BD
:1043C8003E234FF000004FF00001D00C40EA43308C
:1043D800D90CD7E92C45234603433B652B460B43B1
:1043E8007B65D7E91434C7E93E34D7E940234FF059
:1043F80000004FF00001100B40EA0350190B4FF07A
:104408000F024FF0000300EA0204C7F8A8400B406F
:10441800C7F8AC30894BD7F8A82013441B78DAB218
:104428004FF00003C7E93823D7E9400140F6FF728F
:104438004FF0000300EA0204C7F8A0400B40C7F899
:10444800A430D7E938234FF000004FF000011903DA
:1044580041EA12511003D7E9284523460343BB64B8
:104468002B460B43FB64D7E91234C7E9403497F86D
:10447800F7204FF000034FF000004FF00001D90380
:1044880041EA5241D003D7E93E2382EA00043C6462
:104498004B407B64D7E91034C7E93E34D7E9402361
:1044A8004FF000044FF0000515040024D7E93E231F
:1044B8004FF000004FF00001100C40EA0340190CC7
:1044C80097F8F73044EA0002C7F8982045EA010255
:1044D800C7F89C20D7F8DC20DB001344D7E9261264
:1044E800C3E9001297F8F730013387F8F73097F8E7
:1044F800F7301F2B7FF630AF69E1D7F8D8301B882B
:104508009AB24FF000034FF000044FF00005150475
:104518000024D7F8D83002331B889AB24FF0000332
:104528004FF000004FF000011100002044EA0003A2
:10453800C7F8903045EA0103C7F89430D7F8D83067
:1045480004331B889AB24FF000034FEA12494FEA2E
:104558000248D7E924120B4643EA0803C7F8883013
:10456800134643EA0903C7F88C30D7F8D830063326
:104578001B889AB24FF00003D7E922452146114320
:10458800B96329461943F963D7E90E34C7E94034BA
:10459800D7F8D83008331B889AB24FF000034FF091
:1045A80000044FF0000515040024D7F8D8300A336A
:1045B8001B889AB24FF000034FF000004FF0000143
:1045C8001100002044EA0003C7F8803045EA0103DF
:1045D800C7F88430D7F8D8300C331B889AB24FF01C
:1045E8000003110CF9671304BB67D7E9204523467C
:1045F800D7E91E01024613433B672B460A4613437D
:104608007B67D7F8D8300E331B889AB24FF0000377
:10461800D7E91C4521461143396329461943796373
:10462800D7E90C34C7E93E34D7F8DC10D7E9402382
:10463800C1E900230123C7F8F030C3E08CFD00086E
:10464800D7E94023C7E93A23D7E93A234FF00004D2
:104658004FF0000555070024D7E93E234FF000002E
:104668004FF00001D00840EA4370D90844EA00033B
:10467800BB6245EA0103FB62D7E90A34C7E9403463
:10468800D7E93E234FF000044FF0000555070024FA
:10469800D7E93A234FF000004FF00001D00840EA74
:1046A8004370D90844EA00033B6245EA01037B6290
:1046B800D7E90834C7E93E34D7E940234FF0000072
:1046C8004FF00001180F0021444B03441B78DAB265
:1046D8004FF00003C7E93A23D7E93A234FF0000027
:1046E8004FF0000111070020D7E9402342EA0004F7
:1046F800BC610B43FB61D7E90634C7E94034D7E90D
:1047080040234FF000004FF00001180E00214FF039
:104718000F024FF0000300EA0204BC660B40FB6680
:104728002E4BBA6E13441B78DAB24FF00003C7E978
:104738003A23D7E93A234FF000004FF00001110661
:104748000020D7E9402342EA00043C610B437B6127
:10475800D7E90434C7E94034D7F8F0309B1018463D
:104768004FEAE071D7E9402382EA0004BC604B407D
:10477800FB60D7E90234C7E94034D7F8F0301A466D
:104788004FEAE2734FF000004FF00001910700205C
:10479800D7E93E2382EA00043C604B407B60D7E9BE
:1047A8000034C7E93E34D7F8DC20D7F8F030DB0016
:1047B800D118D7E94023C1E90023D7F8F0300133F5
:1047C800C7F8F030D7F8F0301F2B7FF739AF00BFAC
:1047D80007F58677BD46BDE8B00F70478CFD000829
:1047E8002DE9B00FA7B000AFF866B9667A66BB6E60
:1047F8001B889AB24FF000034FF000044FF00005F9
:1048080015040024BB6E02331B889AB24FF00003D4
:104818004FF000004FF000011100002044EA000AA8
:1048280045EA010BBB6E04331B889AB24FF00003B4
:104838004FEA12494FEA02484AEA0803BB634BEAC7
:104848000903FB63BB6E06331B889AB24FF0000363
:10485800D7E90E4521461143B96229461943F96241
:10486800D7E90A34C7E92234002387F896300FE1E4
:1048780097F89630FA6EDB001344D3E90001D7E9C4
:10488800222382EA00043C624B407B62D7E9083469
:10489800C7E922344FF000024FF00003C7E9202394
:1048A800002387F897307AE097F89730C3F1070329
:1048B800DC00D7E92223C4F12001A4F1200022FA68
:1048C80004F5BD6503FA01F1BD6D0D43BD6523FA1D
:1048D80000F0B96D0143B965E340FB6597F85830BE
:1048E80087F87E3097F87E301B09DBB203F00F02A1
:1048F8008B4B9B5C87F87D3097F87E3003F00F0276
:10490800874B9B5C87F87C304FF000024FF0000328
:10491800C7E91C2397F87D301A0197F87C301343B8
:1049280018464FEAE071D7E91C2342EA0004BC614B
:104938000B43FB61D7E90634C7E91C3497F8973075
:10494800C3F10703DC00D7E91C23A4F12001C4F15B
:10495800200003FA04F57D6402FA01F17D6C0D4331
:104968007D6422FA00F0796C0143796402FA04F359
:104978003B64D7E91034C7E91C34D7E92001D7E9EB
:104988001C2340EA02043C610B437B61D7E90434F1
:10499800C7E9203497F89730013387F8973097F8AC
:1049A8009730072B80D9D7E92023C7E922234FF076
:1049B80000024FF00003C7E92023002387F897304F
:1049C80059E097F89730C3F13F0387F87F3097F89D
:1049D8007F40D7E92223C4F12001A4F1200022FA64
:1049E80004F53D6503FA01F13D6D0D433D6523FA7C
:1049F80000F0396D01433965E3407B654FF00102F2
:104A08004FF00003D7E91445214611403963294680
:104A18000B407B6397F89720424B9B5CC3F13F01A7
:104A2800A1F12003C1F12002D7E90C4528468840AE
:104A3800F864204600FA03F3F86C1843F864234638
:104A480023FA02F2FB6C1343FB6423468B40BB64DE
:104A5800D7E92023D7E9124521461143B9602946F1
:104A68000B43FB60D7E90234C7E9203497F8973045
:104A7800013387F8973097F897303F2BA1D9D7E9BA
:104A88002023C7E9222397F89630013387F8963018
:104A980097F896301E2B7FF6EBAE97F89630FA6EA5
:104AA800DB001344D3E90023D7E9220180EA02049A
:104AB8003C604B407B60D7E90034C7E92234D7E932
:104AC80022014FF000024FF000030A0C002392B2BB
:104AD8007B6E1A80D7E922014FF000024FF00003E5
:104AE8000A000023796E023193B20B80D7E92201C4
:104AF8004FF000024FF00003020C42EA01420B0C97
:104B0800796E043193B20B807B6E0633B7F8882038
:104B18001A8000BF9C37BD46BDE8B00F704700BF84
:104B28008CFD0008ACFD000880B5CAB000AF3B1D85
:104B380018603B4619603B1D1B681B681B0C9AB22A
:104B480007F110031A803B1D1B681B689AB207F116
:104B580010035A803B1D1B685B681B0C9AB207F157
:104B680010039A803B1D1B685B689AB207F110031B
:104B7800DA803B1D1B681B6C1B0C9AB207F11803EB
:104B88001A803B1D1B681B6C9AB207F118035A80E8
:104B98003B1D1B685B6C1B0C9AB207F118039A80CB
:104BA8003B1D1B685B6C9AB207F11803DA803B1D4A
:104BB8001B689B6C1B0C9AB207F118031A813B1DEA
:104BC8001B689B6C9AB207F118035A813B1D1B683E
:104BD800DB6C1B0C9AB207F118039A813B1D1B680A
:104BE800DB6C9AB207F11803DA813B461B689AB26C
:104BF80007F1180107F128031846FFF725FB07F10D
:104C0800080207F1100107F128031846FFF7E8FD2D
:104C180007F108031B881B041A4607F108035B8881
:104C28001A433B1D1B681A6207F108039B881B0483
:104C38001A4607F10803DB881A433B1D1B685A62B2
:104C48003B1D1B6800229A623B1D1B680022DA622A
:104C580000BF07F59477BD4680BD000080B483B0DF
:104C680000AF78607B68DBB20D4A52F823207B687E
:104C78001B0ADBB20B4951F823305A407B681B0CE6
:104C8800DBB2094951F823305A407B681B0E0749AB
:104C980051F82330534018460C37BD4680BC704746
:104CA8002CFE00082C0201082C0601082C0A010819
:104CB80080B584B000AFF860B9607A603B60FA688C
:104CC8007B685A40B9683B684B405A40FB691A6098
:104CD800FB691B681846FFF7C1FF0246FB691A60AB
:104CE800FB691A68F9687B684B401A44BB691A600B
:104CF800BB691B681846FFF7B1FF0246BB691A601B
:104D0800FB691A68BB691B681A44FB691A60FB696E
:104D18001B681846FFF7A2FF0246FB691A60BB69C9
:104D28001A68FB691B681A44BB691A6000BF103710
:104D3800BD4680BD90B589B000AF786039603B68EA
:104D48001B68BB603B685B68FB603B689B683B61BA
:104D58003B68DB687B610023FB615CE0BA683B6908
:104D68001A443149FB6951F82330D21AFB695C00B7
:104D78001046FFF773FF02467B6843F82420FA6861
:104D88007B69D21A2849FB6951F823301A44FB6918
:104D98005B005C1C1046FFF761FF02467B6843F826
:104DA8002420FB6903F00103002B17D03B68043370
:104DB8001B681A0A3B681B681B061343BB613B68E8
:104DC8001B681A0A3B6804331B681B061A433B68B6
:104DD8001A603B680433BA691A6019E03B680C33FF
:104DE8001B681A0A3B6808331B681B061343BB6120
:104DF8003B6808331B68190A3B680C331B681A06A2
:104E08003B6808330A431A603B680C33BA691A6076
:104E1800FB690133FB61FB690F2B9FDD00BF00BFFE
:104E28002437BD4690BD00BFECFD000880B58EB0AC
:104E380002AFF860B9607A600023BB62BB681B6888
:104E48007B62BB685B683B62BB689B68FB61BB6855
:104E5800DB68BB610023FB622AE0FB68BA6A53F88F
:104E68002210BB6A5A1CFB6853F8222007F1100372
:104E7800019307F11403009313460A46B969F869C8
:104E8800FFF716FF7A697B6A53407B613A693B6A90
:104E980053403B61FB697B62BB693B627B69FB6199
:104EA8003B69BB61BB6A0233BB62FB6A0133FB62CD
:104EB800FB6A0E2BD1DDFB68BA6A53F82210BB6A75
:104EC8005A1CFB6853F8222007F11003019307F1DD
:104ED8001403009313460A46B969F869FFF7E8FE18
:104EE8007B697A6A53407B623B693A6A53403B620A
:104EF8007B687A6A1A607B6804333A6A1A607B684E
:104F08000833FA691A607B680C33BA691A6000BF03
:104F18003037BD4680BD80B5A2B000AF786039603B
:104F28007B6803F1400207F1080311461846FFF7B2
:104F380001FF79687B6803F1200207F1080318462E
:104F4800FFF774FF00BF8837BD4680BD2DE9F00F1D
:104F580084B000AFC7E902017A60D7E90223796813
:104F6800A1F12006C1F1200003FA01F902FA06F6C0
:104F780049EA060922FA00F049EA000902FA01F8AA
:104F88007968494201F03F01C1F12006A1F12000F2
:104F980022FA01F403FA06F6344323FA00F0044334
:104FA80023FA01F548EA040A49EA050B54465D4626
:104FB80022462B46104619461037BD46BDE8F00F6D
:104FC80070472DE9F00F84B000AFC7E902017A609D
:104FD800D7E902237968C1F12006A1F1200022FA5D
:104FE80001F803FA06F648EA060823FA00F048EA48
:104FF800000823FA01F97968494201F03F01A1F15B
:105008002006C1F1200003FA01F502FA06F635433D
:1050180022FA00F0054302FA01F448EA040A49EAD0
:10502800050B54465D4622462B4610461946103756
:10503800BD46BDE8F00F70472DE9B04F82B000AF14
:10504800C7E900010122D7E90001FFF77FFF804689
:1050580089460822D7E90001FFF778FF02460B4688
:1050680008EA020409EA03050222D7E90001FFF76A
:105078006DFF02460B4684EA020A85EA030B524694
:105088005B46104619460837BD46BDE8B08F2DE986
:10509800F04F87B000AF78613961C7E902237B69B7
:1050A800D3E9002310461946FFF7C6FF3B69D3E949
:1050B800002380EA02063E604B407B603B69D7E9EB
:1050C8000012C3E900123B69D3E90001D7E90223C2
:1050D80080EA020A81EA030B3B69C3E900AB3B693A
:1050E800D3E9002310461946FFF7A6FF7B69D3E9E9
:1050F800002380EA020881EA03097B69C3E9008981
:105108007B69D3E90001D7E9102380EA020481EA28
:1051180003057B69C3E9004500BF1C37BD46BDE8F0
:10512800F08F0000000000002DE9F04FADF5097D7B
:1051380000AFC7F80402C7F800121346A7F8FE31FB
:105148006FF003024FF0FF33C7E98223B7F8FE314F
:10515800802B40F02F81D7F80422442313700FF6D8
:10516800D013D3E90023C7E98623D7F80032D3E95F
:105178000201D7F80432C3E90201D7F80032D3E9B3
:105188000001D7F80432C3E904014FF002024FF0DE
:105198000003C7E984239AE0D7E986014FF00102AA
:1051A8004FF0000300EA0206C7F8F0610B40C7F8A9
:1051B800F431D7E98223D7F8F0115140C7F8E81144
:1051C800D7F8F4114B40C7F8EC31D7E98423911E86
:1051D800C7F8D01143F1FF33C7F8D431D7F8042208
:1051E800D7F8D0310133DB001344D3E90023D7F8D3
:1051F800E8115140C7F8E011D7F8EC114B40C7F857
:10520800E431D7E9842312F1FF31C7F8C81143F11B
:10521800FF33C7F8CC31D7F80422D7F8C8310133A7
:10522800DB001344D3E900010322FFF7CAFE02465C
:105238000B46D7F8E0115140C7F8D811D7F8E41158
:105248004B40C7F8DC31D7E9842312F1FF31C7F8A6
:10525800C01143F1FF33C7F8C431D7F80422D7F897
:10526800C0310133DB001344D3E900010422FFF706
:10527800A8FE02460B46D7F8D8115140C7F8B81116
:10528800D7F8DC114B40C7F8BC31D7F80422D7F85F
:1052980010320133DB001344D7E96E12C3E9001260
:1052A800D7E986234FF000004FF00001500840EA8C
:1052B800C3705908C7E98601D7E98423511C3961AD
:1052C80043F100037B61D7E90423C7E98423D7E9C5
:1052D8008423002B08BF422AFFF45EAFD7F80432BC
:1052E800D3E98201D7E9822380EA020481EA03052F
:1052F800D7F80432D3E984010322FFF762FE02469D
:105308000B4684EA0201C7F8B0116B40C7F8B43104
:10531800D7F80432D3E984010422FFF752FE02468B
:105328000B46D7E96C4521465140C7F8A8112946D4
:105338005940C7F8AC11D7E96A120B4683F001034C
:10534800C7F8A0311346C7F8A431D7F80432D7E913
:105358006812C3E98612D7F80432D3E98401D7E981
:10536800822380EA020A81EA030BD7F80432D3E9E0
:1053780086010322FFF725FE02460B468AEA020849
:105388008BEA0309D7F80432D3E986010422FFF730
:1053980018FE02460B4688EA0201C7F8981189EA06
:1053A8000303C7F89C31D7F80432D7E96612C3E97A
:1053B8008812B4E3B7F8FE31C02B40F04881D7F823
:1053C8000422452313700FF27073D3E90023C7E951
:1053D8008623D7F80032D3E90401D7F80432C3E9A9
:1053E8000201D7F80032D3E90201D7F80432C3E941
:1053F8000401D7F80032D3E90001D7F80432C3E931
:1054080006014FF003024FF00003C7E984239AE036
:10541800D7E986014FF001024FF0000300EA0204C9
:10542800C7F890410B40C7F89431D7E98223D7E9F0
:10543800644521465140C7F8881129464B40C7F8B2
:105448008C31D7E98423D11EC7F8801143F1FF338B
:10545800C7F88431D7F80422D7F880310133DB004C
:105468001344D3E90023D7E9624521465140C7F8E0
:10547800781129464B40C7F87C31D7E9842312F1CB
:10548800FF31C7F8701143F1FF33C7F87431D7F80B
:105498000422D7F870310133DB001344D3E900014B
:1054A8000322FFF78EFD02460B46D7E95E452146EB
:1054B8005140C7F8681129464B40C7F86C31D7E905
:1054C800842312F1FF31C7F8601143F1FF33C7F8A5
:1054D8006431D7F80422D7F860310133DB00134474
:1054E800D3E900010422FFF76CFD02460B46D7E919
:1054F8005A4521465140C7F8581129464B40C7F82C
:105508005C31D7F80422D7F810320133DB0013449A
:10551800D7E95612C3E90012D7E986234FF00000F5
:105528004FF00001500840EAC3705908C7E98601E6
:10553800D7E98423511CB96043F10003FB60D7E924
:105548000234C7E98434D7E98423002B08BF432AEF
:10555800FFF45EAFD7F80432D3E98201D7E982239A
:1055680080EA0204C7F850414B40C7F85431D7F8D5
:105578000432D3E986010322FFF723FD02460B46D6
:10558800D7E9544521465140C7F8481129465940A2
:10559800C7F84C11D7F80432D3E986010422FFF783
:1055A80010FD02460B46D7E9524521465140C7F83F
:1055B800401129465940C7F84411D7F80432D7E9B1
:1055C8005012C3E98812D7F80432D3E98401D7E925
:1055D800822380EA0204C7F838414B40C7F83C31BF
:1055E800D7F80432D3E988010322FFF7EAFC024620
:1055F8000B46D7E94E4521465140C7F83011294698
:105608005940C7F83411D7F80432D3E98801042285
:10561800FFF7D7FC02460B46D7E94C4521465140D7
:10562800C7F8281129465940C7F82C11D7E94A125A
:105638000B4683F00103C7F820311346C7F824311D
:10564800D7F80432D7E94812C3E98A1267E2D7F8D3
:105658000422482313700FF2E843D3E90023C7E973
:105668008623D7F80032D3E90601D7F80432C3E914
:105678000201D7F80032D3E90401D7F80432C3E9AC
:105688000401D7F80032D3E90201D7F80432C3E99C
:105698000601D7F80032D3E90001D7F80432C3E98C
:1056A80008014FF004024FF00003C7E98423D7E054
:1056B800D7E986014FF001024FF0000300EA020427
:1056C800C7F818410B40C7F81C31D7E98223D7E93E
:1056D800464521465140C7F8101129464B40C7F8A6
:1056E8001431D7E98423111FC7F8081143F1FF3398
:1056F800C7F80C31D7F80422D7F808310133DB009A
:105708001344D3E90023D7E9444521465140C7F85B
:10571800001129464B40C7F80431D7E9842312F118
:10572800FF31C7F8F81043F1FF33C7F8FC30D7F85A
:105738000422D7F8F8300133DB001344D3E9000121
:105748000322FFF73EFC02460B46D7E940452146B7
:105758005140C7F8F01029464B40C7F8F430D7E954
:105768008423D11EC7F8E81043F1FF33C7F8EC30A3
:10577800D7F80422D7F8E8300133DB001344D3E923
:105788000023D7E93C4521465140C7F8E010294697
:105798004B40C7F8E430D7E9842312F1FF31C7F84A
:1057A800D81043F1FF33C7F8DC30D7F80422D7F814
:1057B800D8300133DB001344D3E900010422FFF79A
:1057C80000FC02460B46D7E9384521465140C7F848
:1057D800D01029464B40C7F8D430D7E98423D11ECE
:1057E800C7F8C81043F1FF33C7F8CC30D7F8042204
:1057F800D7F8C8300133DB001344D3E90001012294
:10580800FFF7DFFB02460B46D7E9344521465140F6
:10581800C7F8C01029464B40C7F8C430D7F804224F
:10582800D7F810320133DB001344D7E93012C3E94B
:105838000012D7E986234FF000004FF0000150080E
:1058480040EAC3705908C7E98601D7E98423511C87
:10585800396043F100037B60D7E90034C7E9843439
:10586800D7E98423002B08BF442AFFF421AFD7F8D7
:105878000432D3E98201D7E9822380EA0204C7F817
:10588800B8404B40C7F8BC30D7F80432D3E9880198
:105898000322FFF796FB02460B46D7E92E45214621
:1058A8005140C7F8B01029465940C7F8B410D7F886
:1058B8000432D3E98423D7E92C4521465140C7F85F
:1058C800A81029465940C7F8AC10D7F80432D3E9D4
:1058D80088010422FFF775FB02460B46D7E92A45E3
:1058E80021465140C7F8A01029465940C7F8A410CE
:1058F800D7F80432D3E984010122FFF762FB02469C
:105908000B46D7E9284521465140C7F89810294643
:105918005940C7F89C10D7F80432D7E92612C3E9D2
:105928008A12D7F80432D3E98401D7E9822380EABE
:105938000204C7F890404B40C7F89430D7F80432B7
:10594800D3E98A010322FFF73CFB02460B46D7E95D
:10595800244521465140C7F8881029465940C7F8C0
:105968008C10D7F80432D3E98623D7E9224521469B
:105978005140C7F8801029465940C7F88410D7F815
:105988000432D3E98A010422FFF71BFB02460B46C7
:10599800D7E9204521465140B96729465940F9675A
:1059A800D7F80432D3E986010122FFF70AFB024641
:1059B8000B46D7E91E4521465140396729465940CB
:1059C8007967D7E91C120B4683F00103BB661346BF
:1059D800FB66D7F80432D7E91A12C3E98C12D7F854
:1059E8000432D3E98601D7E9822380EA02043C66BF
:1059F8004B407B66D7F80432D3E98C010322FFF7CA
:105A0800E0FA02460B46D7E9184521465140B965E8
:105A180029465940F965D7F80432D3E98823D7E9EC
:105A28001645214651403965294659407965D7F8C8
:105A38000432D3E98C010422FFF7C3FA02460B466D
:105A4800D7E9144521465140B96429465940F964BB
:105A5800D7F80432D3E988010122FFF7B2FA0246E7
:105A68000B46D7E912452146514039642946594029
:105A78007964D7F80432D7E91012C3E98E12D7F83F
:105A88000432D3E98801D7E9822380EA0204BC639F
:105A98004B40FB63D7F80432D3E98E010322FFF7AA
:105AA80090FA02460B46D7E90E4521465140396324
:105AB800294659407963D7F80432D3E98A23D7E9CC
:105AC8000C4521465140B96229465940F962D7F838
