:020000040800F2
:100000000000022431070008C10A0008CF0A0008D6
:10001000D50A0008DB0A0008E10A00080000000019
:10002000000000000000000000000000E70A0008D7
:10003000F50A000800000000030B0008110B00087F
:100040008107000881070008810700088107000870
:100050008107000881070008810700088107000860
:100060008107000881070008810700088107000850
:100070008107000881070008810700088107000840
:100080008107000881070008810700088107000830
:100090008107000881070008810700088107000820
:1000A0008107000881070008810700088107000810
:1000B0008107000881070008810700088107000800
:1000C00081070008810700088107000881070008F0
:1000D0008107000881070008810700081D0B000840
:1000E0008107000881070008000000008107000860
:1000F00081070008810700088107000881070008C0
:1001000081070008810700088107000881070008AF
:10011000810700088107000881070008810700089F
:10012000810700088107000881070008810700088F
:10013000810700088107000881070008810700087F
:10014000810700088107000800000000000000008F
:10015000810700088107000881070008810700085F
:10016000810700088107000881070008810700084F
:1001700081070008810700088107000800000000CF
:10018000810700088107000881070008810700082F
:10019000810700088107000881070008810700081F
:1001A000810700088107000881070008810700080F
:1001B00081070008810700088107000881070008FF
:1001C00081070008810700088107000881070008EF
:1001D00081070008810700088107000881070008DF
:1001E00081070008810700088107000881070008CF
:1001F00081070008810700088107000881070008BF
:1002000081070008810700088107000881070008AE
:10021000810700088107000881070008810700089E
:10022000810700088107000881070008000000001E
:10023000810700088107000881070008810700087E
:10024000810700088107000881070008810700086E
:10025000810700088107000881070008810700085E
:10026000810700088107000881070008810700084E
:10027000810700088107000881070008810700083E
:1002800081070008810700088107000800000000BE
:08029000810700088107000846
:1002A00010B5054C237833B9044B13B10448AFF3B0
:1002B00000800123237010BD8C2600240000000064
:1002C000BC16020808B5034B1BB103490348AFF342
:1002D000008008BD0000000090260024BC16020823
:1002E000A3F5803A704700BF174B002B08BF134B94
:1002F0009D46FFF7F5FF00218B460F461348144A31
:10030000121A20F069FC0E4B002B00D098470D4BC1
:10031000002B00D098470020002104000D000D485C
:10032000002802D00C48AFF3008020F023FC20000E
:10033000290000F0A5FC20F009FC00BF0000080027
:100340000000000000000000000000008C260024D7
:100350001428002400000000000000007C1902089E
:10036000000000248C2600248C260024142800245D
:1003700053B94AB9002908BF00281CBF4FF0FF310C
:100380004FF0FF3000F074B9ADF1080C6DE904CE08
:1003900000F006F8DDF804E0DDE9022304B0704760
:1003A0002DE9F047089D04468E46002B4DD18A4228
:1003B000944669D9B2FA82F252B101FA02F3C2F15B
:1003C000200120FA01F10CFA02FC41EA030E9440EC
:1003D0004FEA1C48210CBEFBF8F61FFA8CF708FB0D
:1003E00016E341EA034306FB07F199420AD91CEBE5
:1003F000030306F1FF3080F01F81994240F21C8117
:10040000023E63445B1AA4B2B3FBF8F008FB10335E
:1004100044EA034400FB07F7A7420AD91CEB040493
:1004200000F1FF3380F00A81A74240F20781644463
:10043000023840EA0640E41B00261DB1D4400023E8
:10044000C5E900433146BDE8F0878B4209D9002D4C
:1004500000F0EF800026C5E9000130463146BDE8D6
:10046000F087B3FA83F6002E4AD18B4202D3824240
:1004700000F2F980841A61EB030301209E46002DEF
:10048000E0D0C5E9004EDDE702B9FFDEB2FA82F244
:10049000002A40F09280A1EB0C014FEA1C471FFAA2
:1004A0008CFE0126200CB1FBF7F307FB131140EA89
:1004B00001410EFB03F0884208D91CEB010103F156
:1004C000FF3802D2884200F2CB804346091AA4B218
:1004D000B1FBF7F007FB101144EA01440EFB00FEEC
:1004E000A64508D91CEB040400F1FF3102D2A64551
:1004F00000F2BB800846A4EB0E0440EA03409CE7F0
:10050000C6F12007B34022FA07FC4CEA030C20FA9C
:1005100007F401FA06F31C43F9404FEA1C4900FABC
:1005200006F3B1FBF9F8200C1FFA8CFE09FB181139
:1005300040EA014108FB0EF0884202FA06F20BD9AC
:100540001CEB010108F1FF3A80F08880884240F2FC
:100550008580A8F102086144091AA4B2B1FBF9F040
:1005600009FB101144EA014100FB0EFE8E4508D93B
:100570001CEB010100F1FF346CD28E456AD90238C0
:10058000614440EA0840A0FB0294A1EB0E01A142A5
:10059000C846A64656D353D05DB1B3EB080261EB13
:1005A0000E0101FA07F722FA06F3F1401F43C5E9ED
:1005B000007100263146BDE8F087C2F12003D84023
:1005C0000CFA02FC21FA03F3914001434FEA1C4765
:1005D0001FFA8CFEB3FBF7F007FB10360B0C43EA57
:1005E000064300FB0EF69E4204FA02F408D91CEB07
:1005F000030300F1FF382FD29E422DD90238634405
:100600009B1B89B2B3FBF7F607FB163341EA0341A4
:1006100006FB0EF38B4208D91CEB010106F1FF38F3
:1006200016D28B4214D9023E6144C91A46EA0046EA
:1006300038E72E46284605E70646E3E61846F8E67C
:100640004B45A9D2B9EB020864EB0C0E0138A3E7C5
:100650004646EAE7204694E74046D1E7D0467BE7A6
:10066000023B614432E7304609E76444023842E71E
:10067000704700BF034613F8012B002AFBD1181A5C
:10068000013870470000000000000000000000007A
:1006900001F0FF01102A2BDB10F0070F08D010F833
:1006A000013B013A8B422DD010F0070F42B3F6D137
:1006B000F0B441EA012141EA014122F007047FF050
:1006C00000070023F0E80256083C85EA010586EAA7
:1006D000010685FA47F5A3FA87F586FA47F6A5FAE3
:1006E00087F68EB9EED1F0BC01F0FF0102F00702EF
:1006F00032B110F8013B013A83EA010313B1F8D19A
:100700000020704701387047002D06BF354603387A
:10071000073815F0010F07D1013015F4807F02BFB3
:10072000013015F4C03F0130F0BC0138704700BF04
:10073000DFF834D0002103E00C4B5B584350043108
:100740000B480C4B42189A42F6D30B4A02E00023A6
:1007500042F8043B094B9A42F9D300F03DFC20F0EB
:1007600009FA00F08DFA7047000002247C19020893
:10077000000000248C2600248C2600241428002449
:10078000FEE7000080B5BAB000AF7860324BD3F816
:10079000E030314A43F00803C2F8E0302E4BD3F882
:1007A000E03003F008037B617B692B4BD3F8E0302A
:1007B000294A43F00803C2F8E030274BD3F8E03071
:1007C00003F008033B613B690223BB610323C7F8C5
:1007D0008C3007F1180318460EF0A4F91E4BD3F81D
:1007E000E8301D4A43F48023C2F8E8301A4BD3F8AE
:1007F000E83003F48023FB60FB684FF48073C7F894
:10080000D4300223C7F8D8300123C7F8DC300323E3
:10081000C7F8E0300723C7F8E43007F1D4031946DE
:100820000E4811F0C3FC4FF40073C7F8D43007230F
:10083000C7F8E43007F1D4031946084811F0B6FCB4
:1008400001220021272002F084FE272002F09BFED7
:1008500000BFE837BD4680BD00440258000C025876
:1008600080B582B000AF78600E4BD3F890300D4A5F
:1008700043F48023C2F890300A4BD3F89030094AF1
:1008800023F48023C2F890304FF48071064811F0B1
:100890003DFE4FF40071044811F038FE00BF0837E8
:1008A000BD4680BD00440258000C025880B400AF21
:1008B00000BFBD465DF8047B704780B400AF0123E4
:1008C0001846BD465DF8047B704780B582B000AF26
:1008D0007860396020F034F9034616221A604FF030
:1008E000FF3318460837BD4680BD80B582B000AFE3
:1008F00078604FF0FF317868FFF7E7FFFEE780B5DB
:1009000086B000AFF860B9607A6000237B610AE0CE
:10091000AFF300800146BB685A1CBA60CAB21A70B5
:100920007B6901337B617A697B689A42F0DB7B6883
:1009300018461837BD4680BD80B586B000AFF86058
:10094000B9607A6000237B6109E0BB685A1CBA6019
:100950001B781846AFF300807B6901337B617A69AD
:100960007B689A42F1DB7B6818461837BD4680BD2C
:1009700080B483B000AF78604FF0FF3318460C3777
:10098000BD465DF8047B704780B483B000AF7860EB
:1009900039603B684FF400525A60002318460C3708
:1009A000BD465DF8047B704780B483B000AF7860CB
:1009B000012318460C37BD465DF8047B704780B4B0
:1009C00085B000AFF860B9607A600023184614372C
:1009D000BD465DF8047B70470EB480B482B000AFB2
:1009E00078604FF0FF3318460837BD465DF8047B4A
:1009F00003B0704780B582B000AF786020F0A0F8F7
:100A000003460A221A604FF0FF3318460837BD46E6
:100A100080BD80B582B000AF786020F091F80346C9
:100A200002221A604FF0FF3318460837BD4680BDDA
:100A300080B483B000AF78604FF0FF3318460C37B6
:100A4000BD465DF8047B704780B483B000AF78602A
:100A500039603B684FF400525A60002318460C3747
:100A6000BD465DF8047B704780B582B000AF78600A
:100A7000396020F065F803461F221A604FF0FF33FB
:100A800018460837BD4680BD80B500AF20F058F845
:100A900003460B221A604FF0FF33184680BD80B525
:100AA00084B000AFF860B9607A6020F049F803467E
:100AB0000C221A604FF0FF3318461037BD4680BD38
:100AC00080B400AF00BFBD465DF8047B704780B4C2
:100AD00000AFFEE780B400AFFEE780B400AFFEE7F2
:100AE00080B400AFFEE780B400AF00BFBD465DF844
:100AF000047B704780B400AF00BFBD465DF8047B47
:100B0000704780B400AF00BFBD465DF8047B7047FE
:100B100080B500AF12F098FB00BF80BD80B500AF7C
:100B2000024818F0C9FC00BF80BD00BFB0260024F9
:100B300080B586B000AF7860144A154BD31A7B613C
:100B40007B693B61134B1B68002B02D1114B124A8E
:100B50001A60104B1A687B6813443A699A4207D2AC
:100B60001FF0EEFF03460C221A604FF0FF3309E03E
:100B7000084B1B68FB60074B1A687B681344054AE7
:100B80001360FB6818461837BD4680BD000002247C
:100B900000040000AC2600241828002480B5B8B05A
:100BA00018AF03463960FB710023FB670023BB6766
:100BB00000237B670DE02F4A7B6F52F823207B6F69
:100BC00010339B0080333B4443F8782C7B6F013318
:100BD0007B677B6F072BEEDD00233B6710E0264A27
:100BE000FB6F52F823203B6F04339B0080333B4460
:100BF00043F8782CFB6F0133FB673B6F01333B6796
:100C00003A6F3B689A42EADB0023FB660FE01B4A1F
:100C1000BB6F52F82320FB6E9B0080333B4443F8AC
:100C2000782CBB6F0133BB67FB6E0133FB66FA6E3A
:100C30003B689A42EBDBFB6F17933B681693FB799B
:100C40001593684607F11803542219461FF0B6FFA2
:100C500007F108030FCB1FF011FF0346012B01D151
:100C6000012303E0FB6FC92BB6DD00231846803754
:100C7000BD4680BD40190024A40C002408000024B7
:100C800080B590B000AF00F033F94FF6FF73FB630F
:100C900000BF504B1B6803F40043002B04D0FB6BD8
:100CA0005A1EFA63002BF4DCFB6B002B01DA00F018
:100CB0008DF912F0EBF900F09DF8012000F072FBC5
:100CC000454B464A1A60444B4FF4E1325A60424B5E
:100CD00000229A60404B0022DA603F4B00221A61EA
:100CE0003D4B00229A613C4B0C225A613A4B002248
:100CF000DA61394817F0C2FA0346002B01D000F040
:100D000065F94FF00071344805F01DFB324805F0DD
:100D100068FA314805F021FA2F4B1B681A682E4BF0
:100D20001B6842F000421A602B4B1B689A682A4BE2
:100D30001B6842F480029A60294B1B68284A43F0E2
:100D400080731360274B00221A60274B1B68264ACA
:100D500043F00103136000237B631AE0214B1B68FF
:100D60003B6304210020FFF719FFF8621D4B1B684D
:100D7000BB62FB6A012B01D100F028F9BA6A3B6B18
:100D8000D31A7B62BA6B7B6A1344BB637B6B013300
:100D90007B637B6B132BE1DDBB6B144AA2FB03234C
:100DA0001A093B1D124918461FF03AFF0023BB6386
:100DB0003B1D1846FFF75EFC03469AB2391D4FF4FF
:100DC0007A73054817F02EFC4FF47A7012F09CFAF3
:100DD000C1E700BF00440258B0260024004800408C
:100DE000FCED00E0041000E0001000E0CDCCCCCC25
:100DF000FC16020880B59EB000AF002387F877305C
:100E0000042009F0F5FE00237B60374BDB6A364A8D
:100E100023F00103D362344BDB6A03F001037B60F0
:100E2000324B9B69314A43F4404393612F4B9B699A
:100E300003F440437B607B6800BF2C4B9B6903F449
:100E40000053B3F5005FF8D10123BB604FF4A0233A
:100E5000FB6000237B6100237B620223FB62022391
:100E60003B6304237B634FF4C873BB6300233B6580
:100E70000223FB6302237B6404233B640023FB64A3
:100E80000423BB6407F10803184606F0FBFF034682
:100E900087F8773097F87730002B01D000F096F87C
:100EA0003F237B650323BB650023FB6508233B666B
:100EB00040237B664023BB664FF48063FB66402380
:100EC0003B6707F154030421184607F0E9FB03468A
:100ED00087F8773097F87730002B01D000F076F85C
:100EE00000BF7837BD4680BD000400580048025856
:100EF00080B485B000AF344B5B6903F40033002B42
:100F00001BD1BFF34F8F00BFBFF36F8F00BF2E4BBE
:100F10000022C3F85022BFF34F8F00BFBFF36F8F83
:100F200000BF294B5B69284A43F400335361BFF388
:100F30004F8F00BFBFF36F8F00E000BF224B5B6994
:100F400003F48033002B38D11F4B0022C3F88420D8
:100F5000BFF34F8F00BF1C4BD3F88030FB60FB68A2
:100F60005B0BC3F30E03BB60FB68DB08C3F3090331
:100F70007B60BB685A0143F6E07313407A689207BE
:100F800011491343C1F860327B685A1E7A60002B06
:100F9000EFD1BB685A1EBA60002BE5D1BFF34F8F6B
:100FA00000BF094B5B69084A43F480335361BFF3C8
:100FB0004F8F00BFBFF36F8F00E000BF00BF14373B
:100FC000BD465DF8047B704700ED00E080B500AFE2
:100FD000022000F095FAFEE780B400AF314BD3F861
:100FE0008830304A43F47003C2F888302D4B1B69B7
:100FF0002C4A43F0100313612B4B1B682A4A43F021
:1010000001031360284B00221A61274B1A682649F6
:10101000264B13400B60244B00229A61224B002286
:10102000DA61214B00221A621F4B00229A621E4B8A
:101030000022DA621C4B00221A631B4B00225A6307
:10104000194B00229A63184B0022DA63164B0022D8
:101050001A64154B00225A64134B1B68124A23F47E
:1010600080231360104B00221A66114B5B6A104AF2
:1010700043F4804353620F4B1A680F4B1340B3F194
:10108000005F02D20D4B01221A600D4B43F2D202D7
:101090001A60044B4FF000629A6000BFBD465DF8D5
:1010A000047B704700ED00E0004402587FEDF6EA53
:1010B000C00000580010005C0000FFFF08810051D4
:1010C0000040005280B48BB000AFA74B1B6903F007
:1010D0003803182B00F2228101A252F823F000BF3E
:1010E000451100081D1300081D1300081D130008FA
:1010F0001D1300081D1300081D1300081D13000810
:10110000591100081D1300081D1300081D130008C5
:101110001D1300081D1300081D1300081D130008EF
:101120005F1100081D1300081D1300081D1300089F
:101130001D1300081D1300081D1300081D130008CF
:1011400065110008884B1B68DB0803F00303874A1E
:1011500022FA03F37B62E4E0854B7B62E1E0854B9E
:101160007B62DEE0804B9B6A03F00303FB617E4BF6
:101170009B6A1B0903F03F03BB617B4BDB6A03F0F7
:1011800001037B61784B5B6BDB08C3F30C037A696B
:1011900002FB03F307EE903AF8EE677AC7ED047AA4
:1011A000BB69002B00F0B780FB69022B59D0FB69AB
:1011B000022B78D8FB69002B03D0FB69012B2ED0C2
:1011C00071E0694B1B68DB0803F00303674A22FAEE
:1011D00003F3FB60FB6807EE903AF8EE676ABB69C1
:1011E00007EE903AF8EE677A86EEA77A5E4B1B6BB5
:1011F000C3F3080307EE903AF8EE676A97ED046AC6
:10120000DFED5D5AC6EE257A76EEA77AF7EE006A34
:1012100077EEA67A67EE277AC7ED087A65E0BB69B4
:1012200007EE903AF8EE677ADFED546A86EEA77A19
:101230004D4B1B6BC3F3080307EE903AF8EE676A59
:1012400097ED046ADFED4C5AC6EE257A76EEA77A62
:10125000F7EE006A77EEA67A67EE277AC7ED087A8E
:1012600043E0BB6907EE903AF8EE677ADFED446A37
:1012700086EEA77A3C4B1B6BC3F3080307EE903A4C
:10128000F8EE676A97ED046ADFED3B5AC6EE257A01
:1012900076EEA77AF7EE006A77EEA67A67EE277AFF
:1012A000C7ED087A21E0BB6907EE903AF8EE677A5D
:1012B000DFED326A86EEA77A2B4B1B6BC3F3080374
:1012C00007EE903AF8EE676A97ED046ADFED2A5A66
:1012D000C6EE257A76EEA77AF7EE006A77EEA67A62
:1012E00067EE277AC7ED087A00BF1F4B1B6B5B0ABE
:1012F00003F07F030133BB60BB6807EE903AB8EEA2
:10130000677AD7ED086AC6EE877AFCEEE77A17EEC1
:10131000903A7B6205E000237B6202E0144B7B6223
:1013200000BF114B9B691B0A03F00F03154AD35CE6
:101330007B607A6A7B6822FA03F37B620A4B9B69C3
:1013400003F00F030F4AD35C03F01F037A6A22FAFB
:1013500003F30D4A13600D4A7B6A136000BF2C37FC
:10136000BD465DF8047B7047004402580090D003EE
:1013700000093D0000127A00000000460024744A73
:101380000024F44A34170208641900246019002468
:1013900080B400AF024B1846BD465DF8047B704731
:1013A0000000030180B58CB000AF0346FB71002341
:1013B000FB62FB79002B09D0FB79012B06D0FB796E
:1013C000022B03D06FF00103FB6255E0FB79002B89
:1013D0000FD12C4BD3F8E0302A4A43F00203C2F875
:1013E000E030284BD3F8E03003F002037B617B69E7
:1013F00021E0FB79012B0FD1224BD3F8E030214AB9
:1014000043F01003C2F8E0301E4BD3F8E03003F095
:1014100010033B613B690EE01A4BD3F8E030194AE8
:1014200043F00203C2F8E030164BD3F8E03003F08B
:101430000203FB60FB68FB79134A32F81330BB618F
:101440000123FB6100233B6203237B62FB790F4A8C
:1014500052F8233007F118021146184610F0A6FE84
:10146000FB790A4A52F82300FB79074A32F8133015
:101470000022194611F06CF9FB6A18463037BD4658
:1014800080BD00BF00440258441702086C190024B4
:1014900080B588B000AF0346FB710023FB61FB7988
:1014A000002B09D0FB79012B06D0FB79022B03D04E
:1014B0006FF00103FB6119E0FB790F4A52F823003A
:1014C000FB790E4A32F813300022194611F040F928
:1014D000FB790A4A32F81330BB60FB79064A52F8AE
:1014E0002330BA681146184611F010F8FB69184607
:1014F0002037BD4680BD00BF6C1900244417020888
:1015000080B584B000AF0346FB710023FB60FB791C
:10151000002B09D0FB79012B06D0FB79022B03D0DD
:101520006FF00103FB600BE0FB79084A52F82300DF
:10153000FB79074A32F813300122194611F008F9F5
:10154000FB6818461037BD4680BD00BF6C190024EB
:101550004417020880B584B000AF0346FB71002336
:10156000FB60FB79002B09D0FB79012B06D0FB79BE
:10157000022B03D06FF00103FB600BE0FB79084AFC
:1015800052F82300FB79074A32F81330002219463B
:1015900011F0DEF8FB6818461037BD4680BD00BF6D
:1015A0006C1900244417020880B584B000AF0346CC
:1015B000FB710023FB60FB79002B09D0FB79012B29
:1015C00006D0FB79022B03D06FF00103FB600BE028
:1015D000FB79084A52F82320FB79074931F8133088
:1015E0001946104611F0CDF8FB6818461037BD4675
:1015F00080BD00BF6C1900244417020880B584B078
:1016000000AF0346FB71FB79002B09D0FB79012B5E
:1016100006D0FB79022B03D06FF00103FB600DE0D5
:10162000FB79094A52F82320FB79084931F8133035
:101630001946104611F074F80346FB60FB68184623
:101640001037BD4680BD00BF6C1900244417020846
:1016500080B588B000AF03460A46FB711346BB71E4
:101660002D4BD3F8E0302C4A43F00403C2F8E030AD
:10167000294BD3F8E03003F00403BB60BB684FF4A0
:101680000053FB6002237B610223BB61BB79002B0B
:101690000CD100233B61FB79204A52F8233007F13B
:1016A0000C021146184610F081FD30E01C4B3B61E6
:1016B000FB791A4A52F8233007F10C0211461846FA
:1016C00010F074FDFB79DB00164A1A44FB791649C9
:1016D00051F823301946104606F0D3F9FB79DB00A8
:1016E000104A9818FB79114A52F823301A46002103
:1016F00006F0A8F92820FB790D4A52F82330002281
:10170000194601F026FF2823184601F03CFF00236C
:1017100018462037BD4680BD004402587819002481
:101720000000111144270024541702087C190024DA
:101730008019002480B588B000AF0346FB714FF4D8
:101740000053FB602823184601F02BFFFB79064A63
:1017500052F82330FA681146184610F0D7FE0023DD
:1017600018462037BD4680BD7819002480B582B068
:1017700000AF0346FB71FB79064A52F823304FF461
:1017800000521146184610F0CBFF034618460837A2
:10179000BD4680BD7819002480B582B000AF0346F5
:1017A000FB71FB79DB00044A1344184606F07EF90E
:1017B00000BF0837BD4680BD4427002480B483B0F5
:1017C00000AF0346FB7100BF0C37BD465DF8047BDC
:1017D0007047000080B584B000AF03463960FB71EC
:1017E0000023FB60FB79002B03D06FF00103FB604B
:1017F0001AE0FA791346DB0013441B010D4A134427
:10180000184600F091F8FA791346DB0013441B01E7
:10181000084A13443968184600F04CF80346002B78
:1018200002D06FF00303FB60FB6818461037BD461B
:1018300080BD00BF4C27002480B584B000AF0346B4
:10184000FB710023FB60FB79002B03D06FF00103D9
:10185000FB6025E0FB79FA79144951F8231014480C
:101860001346DB0013441B0103441960FA79134645
:10187000DB0013441B010E4A1344184600F0ACF879
:10188000FA791346DB0013441B01094A1344184636
:1018900016F078FE0346002B02D06FF00303FB60C6
:1018A000FB6818461037BD4680BD00BF681900248C
:1018B0004C27002480B582B000AF78603960154BAA
:1018C0001A687B681A603B681A687B685A607B6894
:1018D0000C225A613B685B891A467B681A613B6837
:1018E0005A687B689A603B681B891A467B68DA6095
:1018F0003B689B891A467B689A617B684FF400427B
:10190000DA61786816F0BAFC034618460837BD4617
:1019100080BD00BF6819002480B500AF0020FFF72C
:101920004DFF00BF80BD000080B58AB000AF786079
:10193000274BD3F8E030264A43F00803C2F8E030E2
:10194000234BD3F8E03003F008033B613B69204BA5
:10195000D3F8E0301E4A43F00803C2F8E0301C4BD5
:10196000D3F8E03003F00803FB60FB68184BD3F8B2
:10197000E830174A43F48023C2F8E830144BD3F818
:10198000E83003F48023BB60BB684FF480737B6155
:101990000223BB6102233B620123FB6107237B62BD
:1019A00007F1140319460B4810F000FC4FF40073C4
:1019B0007B610223BB6107237B6207F11403194695
:1019C000044810F0F3FB00BF2837BD4680BD00BFC0
:1019D00000440258000C025880B588B000AF78600F
:1019E0004FF48073FB60FB6819460B4810F08EFDC6
:1019F0004FF40073FB60FB681946074810F086FD42
:101A0000064BD3F8E830054A23F48023C2F8E830C7
:101A100000BF2037BD4680BD000C0258004402586C
:101A200080B483B000AF78607B681B6903F001036A
:101A3000012B01D1012300E0002318460C37BD46DD
:101A40005DF8047B704780B483B000AF78607B683A
:101A50005B6843F008027B685A6000BF0C37BD46E4
:101A60005DF8047B704780B483B000AF78607B681A
:101A70001B6803F00803082B01D1012300E00023B9
:101A800018460C37BD465DF8047B704780B483B0C0
:101A900000AF78607B685B6843F010027B685A6037
:101AA00000BF0C37BD465DF8047B704780B483B03F
:101AB00000AF78607B681B6803F01003102B01D126
:101AC000012300E0002318460C37BD465DF8047B77
:101AD0007047000080B483B000AF7860064BD3F845
:101AE000902005497B681343C1F8903000BF0C3744
:101AF000BD465DF8047B70470044025880B483B053
:101B000000AF7860074BD3F890207B68DB43054932
:101B10001340C1F8903000BF0C37BD465DF8047B20
:101B2000704700BF0044025880B483B000AF7860B3
:101B3000064BD3F89C2005497B681343C1F89C30C1
:101B400000BF0C37BD465DF8047B70470044025867
:101B500080B483B000AF7860074BD3F89C207B68DB
:101B6000DB4305491340C1F89C3000BF0C37BD462C
:101B70005DF8047B704700BF0044025880B485B014
:101B800000AF78607B68DAB2104B1344FB60FB68EF
:101B90001A687B68190E7B681B0A03F01F0301FAA1
:101BA00003F3DB431A407B681B0CD9B27B681B0A2A
:101BB00003F01F0301FA03F31A43FB681A6000BF26
:101BC0001437BD465DF8047B704700BF4C44025893
:101BD00080B582B000AF78607868FFF7CFFF00BFB4
:101BE0000837BD4680BD000080B485B000AF786086
:101BF0007B68DAB20E4B1344FB60FB681A687B68A3
:101C0000190E7B681B0A03F01F0301FA03F31A4045
:101C10007B681B0A03F01F0322FA03F31A047B6894
:101C2000134318461437BD465DF8047B704700BF68
:101C30004C44025880B582B000AF78607868FFF7F6
:101C4000D3FF034618460837BD4680BD80B584B033
:101C500000AF78600023FB737B68234A934208D16E
:101C60004FF40070FFF736FF4FF40070FFF746FFA8
:101C700035E07B681D4A934208D14FF40070FFF7AE
:101C800053FF4FF40070FFF763FF28E07B68184AAA
:101C9000934208D14FF48060FFF746FF4FF4806015
:101CA000FFF756FF1BE07B68124A934208D14FF4BE
:101CB0000060FFF739FF4FF40060FFF749FF0EE0C7
:101CC0007B680D4A934208D14FF48050FFF72CFFF8
:101CD0004FF48050FFF73CFF01E00123FB73FB7BD7
:101CE00018461037BD4680BD00240040002400582F
:101CF00000280058002C00580030005880B483B0F1
:101D000000AF78607B6800221A607B6800225A600E
:101D10007B6800229A607B680022DA6000BF0C3783
:101D2000BD465DF8047B704780B584B000AF786035
:101D300039600023FB737868FFF772FE0346012BBE
:101D400002D10123FB7311E07B68DA680A4B134070
:101D50003A6811683A68526811433A6892681143C8
:101D60003A68D2680A431A437B68DA60FB7B1846FC
:101D70001037BD4680BD00BFFEF1CFFF80B590B0EB
:101D800000AF78600023FB6372B600BF7B68604AD7
:101D900093421FD05E4A934221D85E4A934219D0A3
:101DA0005C4A93421BD85C4A934213D05A4A9342EE
:101DB00015D85A4A934203D0594A934205D00EE0AF
:101DC0005848FFF737FFF8630AE05748FFF732FF3C
:101DD000F86305E05548FFF72DFFF86300E000BF0A
:101DE0007B689B68BB637B68DB687B637B685B6944
:101DF0003B637B689B69FB627B685B6ABB6278685C
:101E0000FFF724FF07F10C03184602F09BFC3B6B25
:101E1000002B02D1FB6A002B64D07B683C4A9342C2
:101E20001DD03B4A93421ED83A4A934217D0394AB2
:101E3000934218D8384A934211D0374A934212D865
:101E4000364A934203D0364A934204D00BE03548D9
:101E5000FFF7BEFE08E03448FFF7BAFE04E033485F
:101E6000FFF7B6FE00E000BF3B6B002B17D07B688E
:101E70001B6943F001027B681A617B683A6B5A6107
:101E8000FB68013BFB607868FFF7EDFD0346012B23
:101E900002D0FB68002BF3D17868FFF7D4FDFB6A12
:101EA000002B1CD07B681B6943F001027B681A6120
:101EB0007B68FA6A9A6107F10C03184602F042FC4B
:101EC000FB68013BFB607868FFF7F0FD0346012BE0
:101ED00002D0FB68002BF3D17868FFF7D7FDF86BD1
:101EE000FFF776FE7B681B6923F001027B681A61AD
:101EF0007B68BA6B9A607B687A6BDA607B68BA6AD7
:101F00005A6262B600BF00BF4037BD4680BD00BF09
:101F100000300058002C00580028005800240040D1
:101F200000240058081C00070C0A00070C0D0007CD
:101F300080B483B000AF786039607B681A683B6812
:101F400003F01003012101FA03F31A403B6803F088
:101F50001003012101FA03F39A4201D1012300E0A9
:101F6000002318460C37BD465DF8047B704700001F
:101F700080B483B000AF7860064BD3F89020054959
:101F80007B681343C1F8903000BF0C37BD465DF845
:101F9000047B70470044025880B483B000AF78607F
:101FA000074BD3F890207B68DB4305491340C1F809
:101FB000903000BF0C37BD465DF8047B704700BF12
:101FC0000044025880B582B000AF78607B68084A50
:101FD000934207D14FF00050FFF7CAFF4FF0005077
:101FE000FFF7DAFF002318460837BD4680BD00BF63
:101FF0000074004080B586B000AFF860B9607A60C8
:102000000023FB75B968F868FFF792FF0346002BC1
:102010004ED17B685B68002B1BD0FB681A68BB68DD
:1020200003F0100340F6FC7101FA03F3DB431A409E
:102030007B6819687B685B6819437B689B681943F8
:10204000BB6803F0100301FA03F31A43FB681A603C
:1020500013E0FB681A68BB6803F01003FC2101FA67
:1020600003F3DB431A407B681968BB6803F0100375
:1020700001FA03F31A43FB681A60FB68DA6BBB686A
:1020800003F01003072101FA03F3DB431A407B68D6
:10209000D9687B681B6919437B685B691943BB6816
:1020A00003F0100301FA03F31A43FB68DA6301E05B
:1020B0000123FB75FB7D18461837BD4680BD80B4F3
:1020C00083B000AF78607B6800221A607B680022D2
:1020D0005A607B6800229A607B680022DA607B6825
:1020E00000221A617B6800225A6100BF0C37BD468E
:1020F0005DF8047B7047000080B584B000AF786065
:1021000039600023FB735E4B1B7D012B01D1022341
:10211000B2E05B4B01221A75594B00229A617B6831
:102120005B6803F00103002B09D001214CF2503011
:102130001BF066F90346002B01D00123FB737B687B
:102140005B6803F00203002B09D002214CF25030EF
:102150001BF056F90346002B01D00123FB73FB7BD8
:10216000002B40F085807B681B68012B36D17B6893
:102170001A697B685B681946104600F09BFB7B6818
:102180005B6803F00103002B0FD001214CF25030AB
:102190001BF036F90346002B01D00123FB73394BAA
:1021A000DB68384A23F00803D3607B685B6803F080
:1021B0000203002B5CD002214CF250301BF020F9BE
:1021C0000346002B01D00123FB732E4BD3F80C31B7
:1021D0002C4A23F00803C2F80C3149E03B684FF069
:1021E000FF321A607B689B68BB6039E07B68596886
:1021F0007B681B691A46B86800F0C6FB7B685B68A1
:1022000003F00103002B0CD001214CF250301BF0E5
:10221000F7F80346FB731B4BDA681A491A4B134055
:10222000CB607B685B6803F00203002B0ED00221B9
:102230004CF250301BF0E4F80346FB73114BD3F81B
:102240000C211049104B1340C1F80C31FB7B002BC3
:1022500003D03B68BA681A600AE0BB680133BB6010
:102260007B68DA687B689B681344BA689A42BDD37E
:10227000034B00221A75FB7B18461037BD4680BD04
:10228000E027002400200052FBF8FFFF80B584B057
:1022900000AF78600023FB73484B1B7D012B01D1FD
:1022A000022387E0454B01221A75444B00229A61B4
:1022B0007B685B6803F00103002B09D001214CF21D
:1022C00050301BF09DF80346002B01D00123FB7317
:1022D0007B685B6803F00203002B09D002214CF2FB
:1022E00050301BF08DF80346002B01D00123FB7307
:1022F000FB7B002B03D0314B00221A7559E07B6821
:102300005B6803F00103002B05D02D4BDB682C4AE2
:1023100043F4DE03D3607B685B6803F00203002BA9
:1023200007D0274BD3F80C31254A43F4DE03C2F81B
:102330000C317B681B68012B1BD17B685B68012B10
:1023400003D11E4B02221A700AE07B685B68022BE5
:1023500003D11A4B05221A7002E0184B07221A709B
:102360007B681A697B685B681946104600F0A2FA20
:102370001FE07B685B68012B03D1104B01221A70B0
:1023800002E00E4B04221A707B68DB680B4A536034
:102390007B689B68094AD3607B681B69074A936026
:1023A0007B6898687B6859687B681B691A4600F0EF
:1023B000EBFAFB7B18461037BD4680BDE0270024B2
:1023C0000020005280B584B000AF7860554B1B7D73
:1023D000012B01D10223A1E0524B01221A75514B6E
:1023E00000229A6101214CF250301BF009F803469B
:1023F000002B02D00123FB730CE002214CF2503081
:102400001AF0FEFF0346002B02D00123FB7301E00C
:102410000023FB73FB7B002B7CD17B681B6803F0E4
:102420000103002B14D07B685B68012B08D17B680B
:102430009A687B68DB691946104600F0E3FA07E00A
:102440007B689A687B68DB691946104600F004FBDC
:102450007B681B6803F00203002B04D07B68DB68F9
:10246000184600F04FFB7B681B6803F00403002B49
:1024700007D07B685A697B689B691946104600F053
:1024800071FB7B681B6803F00803002B09D07B6895
:10249000186A7B68596A7B689A6A7B68DB6900F016
:1024A00063FC7B681B6803F01003002B04D07B687F
:1024B0001B69184600F0D0FC7B681B6803F04003E2
:1024C000002B08D07B68D86A7B68196B7B685B6BD4
:1024D0001A4600F0E3FC7B681B6803F08003002BC6
:1024E00008D07B68986B7B68D96B7B681B6C1A463D
:1024F00000F01AFD7B681B6803F02003002B09D055
:102500007B68586C7B68996C7B68DA6C7B68DB69EC
:1025100000F050FD034B00221A75FB7B1846103764
:10252000BD4680BDE027002480B582B000AF786052
:102530007B6816221A6000F0F9FA02467B68DA60BE
:1025400000F0FCFB02467B689A6100F099FC0246B1
:102550007B681A617B68DB69012B03D07B68DB69D0
:10256000022B29D17B681B6843F029027B681A6023
:102570007B68181D7B6803F108017B68DB691A46DC
:1025800000F092FA7B6803F120007B6803F12401DC
:102590007B6803F128027B68DB6900F01BFC7B6829
:1025A00003F144007B6803F148017B6803F14C02AE
:1025B0007B68DB6900F038FD7B6803F130027B68E3
:1025C00034331946104600F093FC7B681B6843F0D7
:1025D000C0027B681A607B6803F13C027B68403371
:1025E0001946104600F0CAFC00BF0837BD4680BD42
:1025F00080B400AF0C4BDB6803F00103002B0DD05F
:10260000094B0A4A5A60084B094A5A60064BDB6874
:1026100003F00103002B01D0012300E00023184642
:10262000BD465DF8047B70470020005223016745DA
:10263000AB89EFCD80B400AF054BDB68044A43F0B3
:102640000103D36000231846BD465DF8047B704744
:102650000020005280B400AF0E4BD3F80C3103F0D1
:102660000103002B10D00B4B0B4AC3F80421094B7C
:102670000A4AC3F80421074BD3F80C3103F00103D5
:10268000002B01D0012300E000231846BD465DF871
:10269000047B70470020005223016745AB89EFCDD2
:1026A00080B400AF064BD3F80C31054A43F0010368
:1026B000C2F80C3100231846BD465DF8047B704714
:1026C0000020005280B584B000AF786039604CF2D1
:1026D00050301AF02BFF0346FB73FB7B002B40F0BE
:1026E000E0807B689B68012B66D1704BDB686F4A8A
:1026F00043F40043D3606D4B5B696C4A43F0C053B5
:1027000053616A4B1A6D7B6859687B681B680B4381
:102710001343664A43F4003313657B681B68B3F5C3
:10272000807F19D1614B1B6D604A43F48063136550
:102730007B68DB68BB6006E00121B86800F0B6FC8E
:10274000BB680133BB607B681A697B68DB68134434
:10275000BA689A42F0D313E07B681B68544A9342EC
:1027600006D1524B1B6D514A43F48003136507E0B9
:102770007B6858697B689B690122194600F0C8FC98
:102780004A4B1B6D494A43F48033136501214CF2D7
:1027900050301AF007FF0346FB73444BDA6D3B6879
:1027A0001A60424BDB68414A23F40043D3603F4B3D
:1027B0004FF0C0525A6174E03C4BD3F80C313B4AA5
:1027C00043F40043C2F80C31384BD3F81431374A84
:1027D00043F0C053C2F81431344BD3F850217B6816
:1027E00059687B681B680B431343304A43F400333A
:1027F000C2F850317B681B68B3F5807F1BD12B4B2F
:10280000D3F85031294A43F48063C2F850317B68D1
:10281000DB68BB6006E00221B86800F047FCBB68DB
:102820000133BB607B681A697B68DB681344BA6854
:102830009A42F0D315E07B681B681D4A934208D189
:102840001A4BD3F85031194A43F48003C2F850317F
:1028500007E07B6858697B689B690222194600F093
:1028600057FC124BD3F85031104A43F48033C2F86E
:10287000503102214CF250301AF094FE0346FB73A3
:102880000A4BDA6D3B681A60084BD3F80C31074AE3
:1028900023F40043C2F80C31044B4FF0C052C3F88C
:1028A0001421FB7B18461037BD4680BD0020005226
:1028B0000001400080B483B000AF786039603B68AD
:1028C00003F00303032B22D12E4BDB682D4A23F0A8
:1028D0003003D3602B4BD3F80C312A4A23F030035A
:1028E000C2F80C31274BDA6826497B681343CB606A
:1028F000244BD3F80C2123497B681343C1F80C31D6
:10290000204B9B691F4A43F01003936133E03B68FF
:1029100003F00103002B11D01A4BDB68194A23F096
:102920003003D360174BDA6816497B681343CB60DA
:10293000144BDB68134A43F08803D3603B6803F011
:102940000203002B17D00F4BD3F80C310D4A23F0A4
:102950003003C2F80C310B4BD3F80C2109497B68CA
:102960001343C1F80C31074BD3F80C31054A43F03F
:102970008803C2F80C3100BF0C37BD465DF8047BFC
:10298000704700BF0020005280B485B000AFF860EF
:10299000B9607A60BB6803F00103002B10D0184BBC
:1029A000DB68174A23F4E663D360154BDA68FB68EB
:1029B00019027B680B431343114A43F08403D3602D
:1029C000BB6803F00203002B14D00D4BD3F80C317D
:1029D0000B4A23F4E663C2F80C31094BD3F80C21FF
:1029E000FB6819027B680B431343054A43F08403D9
:1029F000C2F80C3100BF1437BD465DF8047B704748
:102A00000020005280B483B000AF786039603B682A
:102A100003F00103002B07D00E4BDA6B7B68DBB2AF
:102A2000DB430C491340CB633B6803F00203002BEC
:102A300009D0084BD3F83C217B68DBB2DB43054966
:102A40001340C1F83C3100BF0C37BD465DF8047B34
:102A5000704700BF0020005280B483B000AF7860A0
:102A600039603B6803F00103002B06D00D4BDA6B95
:102A70007B68DBB20B491343CB633B6803F0020373
:102A8000002B08D0074BD3F83C217B68DBB205490B
:102A90001343C1F83C3100BF0C37BD465DF8047BE1
:102AA000704700BF0020005280B487B000AFF860CC
:102AB000B9607A6000237B617B68012B02D1104BE7
:102AC0009B6B7B617B68022B03D10D4BD3F83831B4
:102AD0007B617B69DB43DAB2BB681A60BB681B6849
:102AE000002B03D1FB6800221A6002E0FB68012280
:102AF0001A6000BF1C37BD465DF8047B704700BFFD
:102B00000020005280B483B000AF7860064B1B6A8F
:102B100023F47F4204497B6813430B6200BF0C37E8
:102B2000BD465DF8047B70470020005280B483B03E
:102B300000AF0B4BDB6903F47F437B607B68B3F52D
:102B40002A4F06D07B68B3F54C4F02D04FF4AA430E
:102B500000E07B6818460C37BD465DF8047B704783
:102B60000020005280B485B000AF78603960002347
:102B7000FB600023BB607B6803F00103002B09D0DE
:102B80003B6803F01003FA681343FB60BB6843F033
:102B90001003BB607B6803F40073002B09D03B6813
:102BA00003F02003FA681343FB60BB6843F0200383
:102BB000BB607B6803F00203002B09D03B6803F085
:102BC0004003FA681343FB60BB6843F04003BB60FB
:102BD0007B6803F00403002B09D03B6803F08003FB
:102BE000FA681343FB60BB6843F08003BB607B68FB
:102BF00003F00803002B09D03B6803F40033FA68A4
:102C00001343FB60BB6843F40033BB607B6803F095
:102C10001003002B09D03B6803F48023FA681343A8
:102C2000FB60BB6843F48023BB607B6803F0200338
:102C3000002B09D03B6803F4C013FA681343FB6010
:102C4000BB6843F4C013BB607B6803F04003002BF8
:102C500009D03B6803F40013FA681343FB60BB68B8
:102C600043F40013BB607B6803F48063002B09D03E
:102C70003B6803F48003FA681343FB60BB6843F4CA
:102C80008003BB607B6803F40063002B09D03B68C2
:102C900003F40003FA681343FB60BB6843F40003CA
:102CA000BB607B6803F48053002B09D03B6803F0C2
:102CB0008073FA681343FB60BB6843F08073BB60AA
:102CC0007B6803F40053002B09D03B6803F00073CA
:102CD000FA681343FB60BB6843F00073BB607B681A
:102CE00003F48073002B09D03B6803F00043FA68BB
:102CF0001343FB60BB6843F00043BB607B6803F099
:102D00008003002B09D03B6803F00053FA6813439B
:102D1000FB60BB6843F00053BB60074B1A6ABB689B
:102D2000DB431A400449FB6813430B6200BF1437AE
:102D3000BD465DF8047B70470020005280B483B02C
:102D400000AF074BDB697B607A68064B13407B6002
:102D50007B6818460C37BD465DF8047B704700BFA2
:102D600000200052F300FFFF80B485B000AFF86090
:102D7000B9607A603B603B6803F00103002B0DD023
:102D8000BB6803F178431A0A7B6803F178431B0A96
:102D90001B041A430E49FB681343CB623B6803F0E4
:102DA0000203002B0ED0BB68A3F101631A0A7B68F3
:102DB000A3F101631B0A1B041A430549FB68134373
:102DC000C1F82C3100BF1437BD465DF8047B704755
:102DD0000020005280B487B000AFF860B9607A601C
:102DE0003B6000237B6100233B613B68012B05D1E5
:102DF000174B9B6A7B614FF000633B613B68022B82
:102E000006D1134BD3F828317B614FF001633B614E
:102E10007B6903F00042FB681A607B691A020D4B64
:102E200013403A691A44BB681A607B691B0CC3F3F0
:102E30000B027B681A607B681B681A023B691A44A4
:102E40007B681A6000BF1C37BD465DF8047B704785
:102E50000020005200FF0F0080B483B000AF786004
:102E6000064B1B6A23F00C0204497B6813430B6278
:102E700000BF0C37BD465DF8047B70470020005250
:102E800080B400AF044BDB6903F00C031846BD4669
:102E90005DF8047B704700BF0020005280B485B00D
:102EA00000AFF860B9607A60FB6803F00103002BA3
:102EB00008D00D4B5A6C0D4B1340BA68120C0A49DE
:102EC00013434B64FB6803F00203002B06D0064B50
:102ED0005B6C9AB204497B6813434B6400BF1437A0
:102EE000BD465DF8047B7047002000520000FFFFE4
:102EF00080B485B000AF78603960094B1B6CFB6013
:102F0000FB681A047B681A60FA68064B13403A683B
:102F1000136000BF1437BD465DF8047B704700BFE7
:102F2000002000520000FFFF80B485B000AFF860C1
:102F3000B9607A60FB6803F00103002B08D00D4BE9
:102F4000DA6C0D4B1340BA68120C0A491343CB6478
:102F5000FB6803F00203002B06D0064BDB6C9AB231
:102F600004497B681343CB6400BF1437BD465DF84A
:102F7000047B7047002000520000FFFF80B485B042
:102F800000AF78603960094B9B6CFB60FB681A04EA
:102F90007B681A60FA68064B13403A68136000BFFA
:102FA0001437BD465DF8047B704700BF0020005217
:102FB0000000FFFF80B485B000AFF860B9607A60B0
:102FC0003B603B6803F00103002B0FD0BB6803F1AB
:102FD00078431A0A7B6803F178431B0A1B041A43DF
:102FE000FB6803F000430F4913434B633B6803F056
:102FF0000203002B10D0BB68A3F101631A0A7B689F
:10300000A3F101631B0A1B041A43FB6803F000438E
:1030100004491343C1F8343100BF1437BD465DF88D
:10302000047B70470020005280B487B000AFF86086
:10303000B9607A603B6000237B6100233B613B68A1
:10304000012B05D1174B1B6B7B614FF000633B617C
:103050003B68022B06D1134BD3F830317B614FF024
:1030600001633B617B6903F00042FB681A607B6986
:103070001A020D4B13403A691A44BB681A607B6907
:103080001B0CC3F30B027B681A607B681B681A0277
:103090003B691A447B681A6000BF1C37BD465DF867
:1030A000047B70470020005200FF0F0080B483B003
:1030B00000AF786039603B68012B0ED1134B1B6D5C
:1030C000124A23F007031365104B1A6D7B681343F4
:1030D0000E4A43F40073136511E00C4BD3F85031E2
:1030E0000A4A23F00703C2F85031084BD3F85021A5
:1030F0007B681343054A43F40073C2F8503100BFA4
:103100000C37BD465DF8047B704700BF00200052BD
:1031100080B485B000AFF860B9607A607B68012B3D
:1031200006D10A4AFB685365084ABB68936507E005
:10313000064AFB68C2F85431044ABB68C2F85831E9
:1031400000BF1437BD465DF8047B70470020005275
:1031500080B400AF044B3F221A6200231846BD46DC
:103160005DF8047B704700BF0048025880B485B00A
:1031700000AF78607B6803F00703FB600B4BDB68F4
:10318000BB60BA684FF6FF031340BB60FB681A02CE
:10319000BB681A43064B1343BB60044ABB68D36049
:1031A00000BF1437BD465DF8047B704700ED00E0BA
:1031B0000000FA0580B400AF044BDB681B0A03F083
:1031C00007031846BD465DF8047B704700ED00E03C
:1031D00080B483B000AF0346FB80B7F90630002B04
:1031E0000BDBFB8803F01F020749B7F906305B09C8
:1031F000012000FA02F241F8232000BF0C37BD463F
:103200005DF8047B704700BF00E100E080B483B04C
:1032100000AF0346FB80B7F90630002B12DBFB88BA
:1032200003F01F020A49B7F906305B09012000FAD2
:1032300002F2203341F82320BFF34F8F00BFBFF3CA
:103240006F8F00BF00BF0C37BD465DF8047B704731
:1032500000E100E080B483B000AF0346FB80B7F923
:103260000630002B0EDB0B4AB7F906305B09403302
:1032700052F82320FB8803F01F0322FA03F303F024
:10328000010300E0002318460C37BD465DF8047BBF
:10329000704700BF00E100E080B483B000AF034698
:1032A000FB80B7F90630002B0CDBFB8803F01F0214
:1032B0000749B7F906305B09012000FA02F24033F2
:1032C00041F8232000BF0C37BD465DF8047B7047F2
:1032D00000E100E080B483B000AF0346FB80B7F9A3
:1032E0000630002B0CDBFB8803F01F020749B7F9FF
:1032F00006305B09012000FA02F2603341F8232016
:1033000000BF0C37BD465DF8047B704700E100E06C
:1033100080B483B000AF0346FB80B7F90630002BC2
:103320000EDB0B4AB7F906305B09803352F82320D5
:10333000FB8803F01F0322FA03F303F0010300E00C
:10334000002318460C37BD465DF8047B704700BF6C
:1033500000E100E080B483B000AF03463960FB8039
:10336000B7F90630002B0ADB3B68DAB20C49B7F933
:1033700006301201D2B20B4483F800230AE03B6806
:10338000DAB20849FB8803F00F03043B1201D2B202
:103390000B441A7600BF0C37BD465DF8047B7047BE
:1033A00000E100E000ED00E080B483B000AF034630
:1033B000FB80B7F90630002B09DB0D4AB7F9063060
:1033C000134493F80033DBB21B09DBB209E0094A6E
:1033D000FB8803F00F03043B13441B7EDBB21B0985
:1033E000DBB218460C37BD465DF8047B704700BF62
:1033F00000E100E000ED00E080B489B000AFF860CB
:10340000B9607A60FB6803F00703FB61FB69C3F1F5
:103410000703042B28BF0423BB61FB690433062B7D
:1034200002D9FB69033B00E000237B614FF0FF32D0
:10343000BB6902FA03F3DA43BB681A407B699A401E
:103440004FF0FF317B6901FA03F3D9437B680B40EE
:10345000134318462437BD465DF8047B704780B49B
:1034600089B000AFF860B9607A603B60BB6803F078
:103470000703FB61FB69C3F10703042B28BF042387
:10348000BB61FB690433062B02D9FB69033B00E0F7
:1034900000237B61FA687B69DA404FF0FF31BB693A
:1034A00001FA03F3DB431A407B681A604FF0FF32E6
:1034B0007B6902FA03F3DA43FB681A403B681A603F
:1034C00000BF2437BD465DF8047B704780B400AF71
:1034D000BFF34F8F00BF064BDB6803F4E062044983
:1034E000044B1343CB60BFF34F8F00BF00BFFDE71A
:1034F00000ED00E00400FA0580B582B000AF78600E
:103500007B68013BB3F1807F01D301230FE00A4ABE
:103510007B68013B53600F214FF0FF30FFF71AFF2C
:10352000054B00229A60044B07221A6000231846BC
:103530000837BD4680BD00BF10E000E080B582B016
:1035400000AF78607868FFF711FE00BF0837BD460E
:1035500080BD80B586B000AF0346B9607A60FB815C
:10356000FFF728FE78617A68B9687869FFF744FF49
:103570000246B7F90E3011461846FFF7EBFE00BFC2
:103580001837BD4680BD80B582B000AF0346FB80D2
:10359000B7F906301846FFF71BFE00BF0837BD46D7
:1035A00080BD80B582B000AF0346FB80B7F906301E
:1035B0001846FFF72BFE00BF0837BD4680BD80B51B
:1035C00000AFFFF783FF80B582B000AF7860786806
:1035D000FFF792FF034618460837BD4680BD00003E
:1035E00080B400AFBFF35F8F00BF074B5B6A064A32
:1035F00023F480335362054B00225A6000BFBD465E
:103600005DF8047B704700BF00ED00E090ED00E046
:1036100080B483B000AF78600B4A7B6843F001034D
:1036200053600A4B5B6A094A43F480335362BFF329
:103630004F8F00BFBFF36F8F00BF00BF0C37BD4679
:103640005DF8047B704700BF90ED00E000ED00E006
:1036500080B483B000AF78607B685A781D4B9A6065
:103660007B681B78002B29D01A4A7B685B68D36083
:103670007B681B7B1A077B68DB7A1B061A437B6817
:103680009B7ADB041A437B685B7B9B041A437B6851
:103690009B7B5B041A437B68DB7B1B041A437B68C0
:1036A0005B7A1B021A437B681B7A5B0013437A68C0
:1036B00012781146074A0B43136105E0054B0022BF
:1036C000DA60044B00221A6100BF0C37BD465DF87A
:1036D000047B704790ED00E080B500AFFFF76AFD16
:1036E0000346184680BD80B584B000AFB9607A60EB
:1036F0003B600346FB81B7F90E301846FFF754FED6
:103700003B687A68B968FFF7AAFE00BF1037BD466C
:1037100080BD80B582B000AF0346FB80B7F90630AC
:103720001846FFF7B9FD00BF0837BD4680BD80B51C
:1037300082B000AF0346FB80B7F906301846FFF7AA
:1037400089FD034618460837BD4680BD80B582B066
:1037500000AF0346FB80B7F906301846FFF7BAFD05
:1037600000BF0837BD4680BD80B582B000AF0346BC
:10377000FB80B7F906301846FFF7CAFD0346184626
:103780000837BD4680BD000080B483B000AF7860CC
:103790007B68042B06D1094B1B68084A43F00403DD
:1037A000136005E0054B1B68044A23F00403136013
:1037B00000BF0C37BD465DF8047B704710E000E0A9
:1037C00080B500AF00F002F800BF80BD80B400AF4C
:1037D00000BFBD465DF8047B7047000080B400AFB9
:1037E000074B1B681B0903F00F03072B01D10323B1
:1037F00000E001231846BD465DF8047B704700BF1A
:1038000000ED00E080B483B000AF78607B681B6897
:1038100043F001027B681A6000BF0C37BD465DF8BB
:10382000047B704780B483B000AF78607B681B680E
:1038300023F001027B681A6000BF0C37BD465DF8BB
:10384000047B704780B485B000AFF860B9607A60DF
:10385000FB681B6823F4F8527B681902BB680B43B2
:103860001A43FB681A6000BF1437BD465DF8047B3D
:103870007047000080B485B000AFF860B9607A602E
:10388000FB689A68064B1340B9687A680A431A4382
:10389000FB689A6000BF1437BD465DF8047B704733
:1038A00000F8FFFF80B483B000AF78607B689B684E
:1038B00043F400427B689A6000BF0C37BD465DF858
:1038C000047B704780B483B000AF78607B689B68EE
:1038D00023F400427B689A6000BF0C37BD465DF858
:1038E000047B704780B483B000AF786039607B6838
:1038F0003A681A6100BF0C37BD465DF8047B70471B
:1039000080B483B000AF786039607B681B6823F4B3
:1039100040123B681A437B681A6000BF0C37BD46F3
:103920005DF8047B704780B483B000AF7860396085
:103930007B685B6823F400423B681A437B685A60EB
:1039400000BF0C37BD465DF8047B704780B483B080
:1039500000AF7860064BD3F8902005497B6813438D
:10396000C1F8903000BF0C37BD465DF8047B70474E
:103970000044025880B483B000AF7860074BD3F89E
:1039800090207B68DB4305491340C1F8903000BFAD
:103990000C37BD465DF8047B704700BF00440258F9
:1039A00080B483B000AF7860064BD3F89C20054903
:1039B0007B681343C1F89C3000BF0C37BD465DF8EF
:1039C000047B70470044025880B483B000AF786035
:1039D000074BD3F89C207B68DB4305491340C1F8B3
:1039E0009C3000BF0C37BD465DF8047B704700BFBC
:1039F0000044025880B584B000AF78600023FB73A8
:103A00007B681C4A934208D14FF40010FFF79EFFD9
:103A10004FF40010FFF7AEFF26E07B68164A934292
:103A200008D14FF48000FFF791FF4FF48000FFF7BB
:103A3000A1FF19E07B68114A934208D14FF40000BE
:103A4000FFF784FF4FF40000FFF794FF0CE07B6862
:103A50000B4A934206D18020FFF7A2FF8020FFF798
:103A6000B3FF01E00123FB73FB7B18461037BD4613
:103A700080BD00BF0054004000580040005C004082
:103A8000001C005880B582B000AF7860396078685B
:103A9000FFF7C8FE3B6899683B68DB681A467868A0
:103AA000FFF7D0FE3B685B6819467868FFF71AFF9E
:103AB0007868FFF7A7FE7868FFF704FF3B6819698D
:103AC0003B689B691A467868FFF7D4FE3B681B6920
:103AD000002B02D07868FFF7E5FE3B681B681946AB
:103AE0007868FFF70DFF3B685B6919467868FFF758
:103AF0001AFF002318460837BD4680BD80B483B046
:103B000000AF78607B6800221A607B6800225A60F0
:103B10007B6800229A607B680022DA607B68002262
:103B20001A617B684FF400425A617B6800229A61F7
:103B300000BF0C37BD465DF8047B704780B483B08E
:103B400000AF7860064BD3F8942005497B68134397
:103B5000C1F8943000BF0C37BD465DF8047B704758
:103B60000044025880B483B000AF7860074BD3F8AC
:103B700094207B68DB4305491340C1F8943000BFB3
:103B80000C37BD465DF8047B704700BF0044025807
:103B900080B500AF0220FFF7D1FF0220FFF7E2FF60
:103BA0000023184680BD000080B483B000AF786069
:103BB00039600C493A680C4B13437A6841F822305B
:103BC000084A7B6852F823203968074B0B439A4216
:103BD00001D1002300E0012318460C37BD465DF8F3
:103BE000047B7047006402580003008080B483B0F7
:103BF00000AF7860084A7B68203352F82330074AC8
:103C0000934201D1002300E0012318460C37BD4642
:103C10005DF8047B704700BF006402580003008019
:103C200080B483B000AF7860074A7B6852F82330D5
:103C3000002B01DA012300E0002318460C37BD46B3
:103C40005DF8047B704700BF0064025880B483B005
:103C500000AF7860396006493B6843F440727B6886
:103C600041F8232000BF0C37BD465DF8047B704748
:103C70000064025880B483B000AF786039607B681C
:103C80001A043B681B0205491343C1F8403100BFC9
:103C90000C37BD465DF8047B704700BF00640258D6
:103CA00080B483B000AF7860074BD3F844319AB248
:103CB0007B681B0404491343C1F8443100BF0C372F
:103CC000BD465DF8047B70470064025880B400AFC5
:103CD000044BD3F844311B0C1846BD465DF8047BF9
:103CE000704700BF0064025880B483B000AF7860B2
:103CF000054B1A6804497B6813430B6000BF0C37FF
:103D0000BD465DF8047B70470065025880B483B0FF
:103D100000AF7860064B1A687B68DB4304491340A8
:103D20000B6000BF0C37BD465DF8047B704700BFD9
:103D30000065025880B582B000AF0A4BDB687B603B
:103D4000084B1A687B68DB43064913400B60054A41
:103D50007B685360786800F007F800BF0837BD46FD
:103D600080BD00BF0065025880B483B000AF7860AA
:103D700000BF0C37BD465DF8047B704780B400AFD0
:103D8000074B1B6803F40033B3F5003F01D1012357
:103D900000E000231846BD465DF8047B704700BF75
:103DA0000044025880B400AF064B1B6803F00403C4
:103DB000042B01D1012300E000231846BD465DF825
:103DC000047B70470044025880B400AF044B1B686A
:103DD00003F018031846BD465DF8047B704700BF2A
:103DE0000044025880B400AF074B1B6803F4807393
:103DF000B3F5807F01D1012300E000231846BD46C2
:103E00005DF8047B704700BF0044025880B400AFE7
:103E1000074B1B6803F40053B3F5005F01D1012386
:103E200000E000231846BD465DF8047B704700BFE4
:103E30000044025880B400AF064B1B6F03F002032E
:103E4000022B01D1012300E000231846BD465DF896
:103E5000047B70470044025880B400AF064B5B6F90
:103E600003F00203022B01D1012300E000231846D6
:103E7000BD465DF8047B70470044025880B400AF33
:103E8000044B1B6903F038031846BD465DF8047BFC
:103E9000704700BF0044025880B400AF044B9B69D8
:103EA00003F470631846BD465DF8047B704700BF9D
:103EB0000044025880B400AF044B9B6903F00F0329
:103EC0001846BD465DF8047B704700BF00440258A9
:103ED00080B400AF044BDB6903F070031846BD46A5
:103EE0005DF8047B704700BF0044025880B400AF07
:103EF000044BDB6903F4E0631846BD465DF8047BC0
:103F0000704700BF0044025880B400AF044B9B6967
:103F100003F070031846BD465DF8047B704700BF90
:103F20000044025880B400AF044B1B6A03F07003D6
:103F30001846BD465DF8047B704700BF0044025838
:103F400080B485B000AF78607B68DAB20E4B134462
:103F5000FB60FB681A687B68190E7B681B0A03F01C
:103F60001F0301FA03F31A407B681B0A03F01F03C7
:103F700022FA03F31A047B68134318461437BD462C
:103F80005DF8047B704700BF4C44025880B582B096
:103F900000AF78607868FFF7D3FF0346184608370C
:103FA000BD4680BD80B483B000AF7860044B9B6D8C
:103FB00003F0070318460C37BD465DF8047B7047D5
:103FC0000044025880B582B000AF78607868FFF78F
:103FD000B7FF034618460837BD4680BD80B582B09E
:103FE00000AF78607868FFF7ABFF034618460837E4
:103FF000BD4680BD80B582B000AF78607868FFF7BD
:104000009FFF034618460837BD4680BD80B483B085
:1040100000AF7860044BDB6C03F4803318460C3738
:10402000BD465DF8047B70470044025880B483B0FD
:1040300000AF7860044B5B6D03F4407318460C3797
:10404000BD465DF8047B70470044025880B483B0DD
:1040500000AF7860044B5B6D03F4401318460C37D7
:10406000BD465DF8047B70470044025880B483B0BD
:1040700000AF7860044B5B6D03F4400318460C37C7
:10408000BD465DF8047B70470044025880B483B09D
:1040900000AF7860044B1B6D03F0807318460C373B
:1040A000BD465DF8047B70470044025880B483B07D
:1040B00000AF7860044BDB6C03F0030318460C3749
:1040C000BD465DF8047B70470044025880B483B05D
:1040D00000AF7860044BDB6C03F0300318460C37FC
:1040E000BD465DF8047B70470044025880B483B03D
:1040F00000AF7860044BDB6C03F0405318460C377C
:10410000BD465DF8047B70470044025880B582B01C
:1041100000AF78607868FFF713FF0346184608374A
:10412000BD4680BD80B483B000AF7860044B1B6D8A
:1041300003F4401318460C37BD465DF8047B704706
:104140000044025880B483B000AF7860044B1B6D0C
:1041500003F0405318460C37BD465DF8047B7047AA
:104160000044025880B483B000AF7860044B1B6DEC
:1041700003F0004318460C37BD465DF8047B7047DA
:104180000044025880B483B000AF7860044B9B6D4C
:1041900003F4403318460C37BD465DF8047B704786
:1041A0000044025880B400AF044B9B6A03F0030341
:1041B0001846BD465DF8047B704700BF00440258B6
:1041C00080B400AF074B1B6803F00073B3F1007FAE
:1041D00001D1012300E000231846BD465DF8047BB1
:1041E000704700BF0044025880B400AF074BDB6A41
:1041F00003F48033B3F5803F01D1012300E00023B5
:104200001846BD465DF8047B704700BF0044025865
:1042100080B400AF074BDB6A03F40033B3F5003F13
:1042200001D1012300E000231846BD465DF8047B60
:10423000704700BF0044025880B400AF074BDB6AF0
:1042400003F48023B3F5802F01D1012300E0002384
:104250001846BD465DF8047B704700BF0044025815
:1042600080B400AF064BDB6A03F00103012B01D1E0
:10427000012300E000231846BD465DF8047B70472B
:104280000044025880B400AF044B1B6BC3F3080317
:1042900001331846BD465DF8047B70470044025860
:1042A00080B400AF044B9B6A1B0903F03F03184620
:1042B000BD465DF8047B70470044025880B400AFEF
:1042C000054B1B6B5B0A03F07F0301331846BD46A9
:1042D0005DF8047B704700BF0044025880B400AF13
:1042E000054B1B6B1B0C03F07F0301331846BD46C7
:1042F0005DF8047B704700BF0044025880B400AFF3
:10430000054B1B6B1B0E03F07F0301331846BD46A4
:104310005DF8047B704700BF0044025880B400AFD2
:10432000044B5B6BDB08C3F30C031846BD465DF81A
:10433000047B70470044025880B400AF074B1B68F1
:1043400003F00063B3F1006F01D1012300E000230B
:104350001846BD465DF8047B704700BF0044025814
:1043600080B400AF074BDB6A03F40023B3F5002FE2
:1043700001D1012300E000231846BD465DF8047B0F
:10438000704700BF0044025880B400AF074BDB6A9F
:1043900003F48013B3F5801F01D1012300E0002353
:1043A0001846BD465DF8047B704700BF00440258C4
:1043B00080B400AF074BDB6A03F40013B3F5001FB2
:1043C00001D1012300E000231846BD465DF8047BBF
:1043D000704700BF0044025880B400AF064BDB6A50
:1043E00003F01003102B01D1012300E00023184635
:1043F000BD465DF8047B70470044025880B400AFAE
:10440000044B9B6BC3F3080301331846BD465DF8AC
:10441000047B70470044025880B400AF044B9B6A91
:104420001B0B03F03F031846BD465DF8047B704745
:104430000044025880B400AF054B9B6B5B0A03F04D
:104440007F0301331846BD465DF8047B704700BF0B
:104450000044025880B400AF054B9B6B1B0C03F06B
:104460007F0301331846BD465DF8047B704700BFEB
:104470000044025880B400AF054B9B6B1B0E03F049
:104480007F0301331846BD465DF8047B704700BFCB
:104490000044025880B400AF044BDB6BDB08C3F36D
:1044A0000C031846BD465DF8047B70470044025873
:1044B00080B400AF074B1B6803F00053B3F1005FFB
:1044C00001D1012300E000231846BD465DF8047BBE
:1044D000704700BF0044025880B400AF074BDB6A4E
:1044E00003F48003B3F5800F01D1012300E0002322
:1044F0001846BD465DF8047B704700BF0044025873
:1045000080B400AF074BDB6A03F40003B3F5000F80
:1045100001D1012300E000231846BD465DF8047B6D
:10452000704700BF0044025880B400AF074BDB6AFD
:1045300003F08073B3F1807F01D1012300E00023F9
:104540001846BD465DF8047B704700BF0044025822
:1045500080B400AF074BDB6A03F48073B3F5807F50
:1045600001D1012300E000231846BD465DF8047B1D
:10457000704700BF0044025880B400AF044B1B6C6E
:10458000C3F3080301331846BD465DF8047B70474A
:104590000044025880B400AF044B9B6A1B0D03F02B
:1045A0003F031846BD465DF8047B7047004402583F
:1045B00080B400AF054B1B6C5B0A03F07F03013333
:1045C0001846BD465DF8047B704700BF00440258A2
:1045D00080B400AF054B1B6C1B0C03F07F03013351
:1045E0001846BD465DF8047B704700BF0044025882
:1045F00080B400AF054B1B6C1B0E03F07F0301332F
:104600001846BD465DF8047B704700BF0044025861
:1046100080B400AF044B5B6CDB08C3F30C0318469B
:10462000BD465DF8047B70470044025880B500AF7A
:104630003E4B1B6803F00F03062B07D83B4B1B6850
:1046400023F00F03394A43F007031360384B1B680C
:10465000374A43F00103136000BFFFF7A3FB034693
:10466000002BFAD0324B00221A61314B1A683049C4
:10467000304B13400B6000BFFFF7A2FD0346002B39
:10468000FAD100BFFFF758FE0346002BFAD100BF56
:10469000FFF70EFF0346002BFAD1254B00229A614B
:1046A000234B0022DA61224B00221A62204B224A5D
:1046B0009A621F4B214ADA621D4B214A1A631C4B36
:1046C00000225A631A4B1E4A9A63194B0022DA637E
:1046D000174B1B4A1A64164B00225A64144B1B6872
:1046E000134A23F480231360114B00221A66104BE7
:1046F0009A6E0F4940F2FF7313438B660C4BD3F84D
:10470000D0300B4A43F48033C2F8D030074B1B68DB
:1047100003F00803002B07D0044B1B6823F00F03A2
:10472000024A43F00703136000BF80BD002000521F
:104730000044025845EDF6EA000202020000FF01C3
:104740008002010180B582B000AF786001F01AFBF1
:1047500002467B681A607B681B68184601F074FB90
:1047600002467B689A607B689B68184601F082FB72
:1047700002467B68DA607B689B68184601F092FB12
:1047800002467B681A617B689B68184601F0A2FBB1
:1047900002467B685A617B689B68184601F0B2FB51
:1047A00002467B689A6100BF0837BD4680BD0000A5
:1047B00080B58AB002AF78600023FB610023BB6143
:1047C000FFF7F0FC78617B69022B1FD07B69022B1D
:1047D00024D87B69002B03D07B69012B0ED01DE010
:1047E000FFF7E0FA0346002B1AD0FFF7EDFA034675
:1047F000DB08384A22FA03F3FB6111E0FFF7F2FA13
:104800000346002B0ED0344BFB610BE0FFF7B6FAEA
:104810000346002B08D0314BFB6105E000BF04E0EC
:1048200000BF02E000BF00E000BF7B6800221A600A
:104830007B6800225A607B6800229A60FFF730FD97
:104840003861FFF71FFDF860FFF70AFD0346002BF4
:1048500002D0FFF763FDB8613B69002B35D0FFF74D
:10486000C3FC0346002B0CD0FFF728FD0346009342
:10487000BB69FA683969F86900F064F902467B6837
:104880001A60FFF7C5FC0346002B0CD0FFF726FD8E
:1048900003460093BB69FA683969F86900F052F978
:1048A00002467B685A60FFF7C7FC0346002B0CD01A
:1048B000FFF724FD03460093BB69FA683969F8697C
:1048C00000F040F902467B689A6000BF2037BD4681
:1048D00080BD00BF0090D00300093D0000127A00A7
:1048E00080B58AB002AF78600023FB610023BB6112
:1048F000FFF758FC78617B69022B1FD07B69022B84
:1049000024D87B69002B03D07B69012B0ED01DE0DE
:10491000FFF748FA0346002B1AD0FFF755FA034673
:10492000DB08384A22FA03F3FB6111E0FFF75AFA79
:104930000346002B0ED0344BFB610BE0FFF71EFA51
:104940000346002B08D0314BFB6105E000BF04E0BB
:1049500000BF02E000BF00E000BF7B6800221A60D9
:104960007B6800225A607B6800229A60FFF754FD42
:104970003861FFF743FDF860FFF72EFD0346002B7B
:1049800002D0FFF787FDB8613B69002B35D0FFF7F8
:10499000E7FC0346002B0CD0FFF74CFD03460093C9
:1049A000BB69FA683969F86900F0CCF802467B689F
:1049B0001A60FFF7E9FC0346002B0CD0FFF74AFD15
:1049C00003460093BB69FA683969F86900F0BAF8E0
:1049D00002467B685A60FFF7EBFC0346002B0CD0C5
:1049E000FFF748FD03460093BB69FA683969F86927
:1049F00000F0A8F802467B689A6000BF2037BD46E9
:104A000080BD00BF0090D00300093D0000127A0075
:104A100080B58AB002AF78600023FB610023BB61E0
:104A2000FFF7C0FB78617B69022B1FD07B69022BEB
:104A300024D87B69002B03D07B69012B0ED01DE0AD
:104A4000FFF7B0F90346002B1AD0FFF7BDF9034674
:104A5000DB08394A22FA03F3FB6111E0FFF7C2F9E0
:104A60000346002B0ED0354BFB610BE0FFF786F9B8
:104A70000346002B08D0324BFB6105E000BF04E089
:104A800000BF02E000BF00E000BF7B6800221A60A8
:104A90007B6800225A607B6800229A60FFF77AFDEB
:104AA0003861FFF769FDF860FFF752FD0346002B00
:104AB00002D0FFF7ADFDB8613B69002B38D0FB6930
:104AC000002B35D0FFF708FD0346002B0CD0FFF775
:104AD0006FFD03460093BB69FA683969F86900F015
:104AE00031F802467B681A60FFF70AFD0346002B87
:104AF0000CD0FFF76DFD03460093BB69FA68396976
:104B0000F86900F01FF802467B685A60FFF70CFD59
:104B10000346002B0CD0FFF76BFD03460093BB69E7
:104B2000FA683969F86900F00DF802467B689A6006
:104B300000BF2037BD4680BD0090D00300093D0076
:104B400000127A0080B487B000AFF860B9607A6074
:104B50003B60FB6807EE903AF8EE676ABB6807EEC9
:104B6000903AF8EE677A86EEA77A7B6807EE903A7D
:104B7000F8EE676A3B6807EE903AB8EE676ADFEDD9
:104B8000105AC6EE257A76EEA77A67EE277AC7ED39
:104B9000057A3B6A07EE903AB8EE677AD7ED056A78
:104BA000C6EE877AC7ED057AD7ED057AFCEEE77A8F
:104BB00017EE903A18461C37BD465DF8047B7047E7
:104BC0000000004690B587B000AF786000237B619D
:104BD0007868FFF7DBF90346624A934200F0A98048
:104BE000604A934200F2AE805F4A934200F0A18097
:104BF0005D4A934200F2A6805C4A934200F09180A5
:104C00005A4A934200F29E80594A934200F08980AA
:104C1000574A934200F29680564A934273D0554ABF
:104C2000934200F28F80544A93426CD0524A93428E
:104C300000F28880514A934258D0504A934200F281
:104C400081804F4A934251D04D4A93427AD84D4A7F
:104C500093423ED04B4A934274D84B4A934238D049
:104C6000494A93426ED8494A93421AD0484A9342DD
:104C700068D101F087F80446FFF70EF903461B0AD6
:104C800003F00F03434AD35C03F01F0324FA03F33A
:104C9000184601F0D9F80346184601F003F9786187
:104CA0005BE001F06FF80446FFF7F6F803461B0AD5
:104CB00003F00F03374AD35C03F01F0324FA03F316
:104CC000184601F0C1F80346184601F0D3F87861A0
:104CD00043E0FFF731FB0346002B35D007F1080313
:104CE0001846FFF7FDFDFB687B612DE0FFF7E0FB59
:104CF0000346002B2AD007F108031846FFF788FE69
:104D0000FB687B6122E0FFF74DF80346002B1FD0C4
:104D1000FFF75AF80346DB081F4A22FA03F37B61C8
:104D200016E0FFF75FF80346002B13D01B4B7B61A7
:104D300010E0FFF77FF80346002B0DD04FF400433F
:104D40007B6109E000BF08E000BF06E000BF04E0AF
:104D500000BF02E000BF00E000BF7B6918461C37BF
:104D6000BD4690BD080305070800050708030407B2
:104D700008000407080303070800030708030207E5
:104D800008000207080301070800010708000007E0
:104D900008030007581702080090D00300093D00DF
:104DA00090B587B000AF786000237B617868FFF72B
:104DB000F9F80346052B60D801A252F823F000BF92
:104DC000D94D0008094E0008234E00083D4E00084A
:104DD000594E0008694E000800F0D4FF0446FFF762
:104DE0005BF803461B0A03F00F032C4AD35C03F065
:104DF0001F0324FA03F3184601F026F80346184669
:104E000001F080F8786143E0FFF796FA0346002B43
:104E100035D007F108031846FFF762FDFB687B6198
:104E20002DE0FFF745FB0346002B2AD007F10803CE
:104E30001846FFF7EDFDFB687B6122E0FEF7B2FF4D
:104E40000346002B1FD0FEF7BFFF0346DB08144AC2
:104E500022FA03F37B6116E0FEF7C4FF0346002B42
:104E600013D0104B7B6110E0FEF7E4FF0346002BEC
:104E70000DD04FF400437B6109E000BF08E000BFA4
:104E800006E000BF04E000BF02E000BF00E000BF9A
:104E90007B6918461C37BD4690BD00BF58170208F5
:104EA0000090D00300093D0090B587B000AF786056
:104EB00000237B617868FFF785F80346444A9342F4
:104EC00071D0434A934276D8424A93426BD0414ACA
:104ED000934270D8404A934257D03F4A93426AD88F
:104EE0003E4A934251D03D4A934264D83C4A934251
:104EF0003ED03B4A93425ED83A4A934238D0394A30
:104F0000934258D8384A93421AD0384A934252D1E1
:104F100000F038FF0446FEF7BFFF03461B0A03F00C
:104F20000F03334AD35C03F01F0324FA03F318463C
:104F300000F08AFF0346184600F09CFF786141E0CC
:104F400000F020FF0446FEF7A7FF03461B0A03F00C
:104F50000F03274AD35C03F01F0324FA03F3184618
:104F600000F072FF0346184600F0CCFF786129E09C
:104F7000FFF79EFA0346002B1FD007F108031846DF
:104F8000FFF746FD3B697B6117E0FEF70BFF034629
:104F9000002B14D0FEF718FF0346DB08154A22FA4F
:104FA00003F37B610BE0FEF71DFF0346002B08D0E7
:104FB000114B7B6105E000BF04E000BF02E000BFD1
:104FC00000E000BF7B6918461C37BD4690BD00BF9E
:104FD000080C03030C080303080C02030C0802036B
:104FE000080C01030C0801030C080003080C000363
:104FF000581702080090D00300093D0090B587B013
:1050000000AF786000237B617868FEF7E7FF034616
:10501000754A934200F0D480734A934200F2D680DE
:10502000724A934200F0CC80704A934200F2CE80E4
:105030006F4A934200F0C4806D4A934200F2C680EA
:105040006C4A934200F0B3806A4A934200F2BE80F9
:10505000694A934200F0AB80674A934200F2B680FF
:10506000664A934200F0A380644A934200F2AE8005
:10507000634A934200F09280614A934200F2A68014
:10508000604A934200F08A805E4A934200F29E801A
:105090005D4A934200F082805B4A934200F2968020
:1050A0005A4A93426DD0594A934200F28F80584A2F
:1050B000934266D0564A934200F28880554A934202
:1050C0005FD0544A934200F28180534A93424BD0BE
:1050D000514A93427AD8514A934245D04F4A93421B
:1050E00074D84F4A93423FD04D4A93426ED84D4AAE
:1050F000934209D04B4A934268D84B4A93421BD003
:105100004A4A934218D061E000F03CFE0446FEF7A4
:10511000C3FE03461B0A03F00F03454AD35C03F0AA
:105120001F0324FA03F3184600F08EFE03461846C8
:1051300000F0A0FE786152E000F024FE0446FEF785
:10514000ABFE03461B0A03F00F03394AD35C03F09E
:105150001F0324FA03F3184600F076FE03461846B0
:1051600000F0D0FE78613AE0FFF7E6F80346002B46
:105170002ED007F108031846FFF7B2FBBB687B612E
:1051800026E0FFF795F90346002B23D007F108032B
:105190001846FFF73DFC3B697B611BE0FEF74AFECA
:1051A0000346002B18D04FF400437B6114E0FEF758
:1051B00053FE0346002B11D04FF4FA437B610DE000
:1051C0004FF0405000F098FD786108E000BF06E025
:1051D00000BF04E000BF02E000BF00E000BF7B6949
:1051E00018461C37BD4690BD081C05070C0D050769
:1051F0000C0A0507081C04070C0D04070C0A040719
:10520000081C03070C0D03070C0A0307081C020700
:105210000C0D02070C0A0207081C01070C0D010700
:105220000C0A0107081C00070C0A00070C0D0007F8
:105230005817020880B586B000AF786000237B6104
:105240007868FEF7D7FE03465B4A934200F0A180E0
:10525000594A934200F2A380584A934200F0998041
:10526000564A934200F29B80554A934200F0918047
:10527000534A934200F29380524A934200F089804D
:10528000504A934200F28B804F4A93427ED04E4A5E
:10529000934200F284804D4A934277D04B4A934226
:1052A0007DD84B4A934271D0494A934277D8494AB4
:1052B00093426BD0474A934271D8474A934258D0A1
:1052C000454A93426BD8454A934252D0434A93424F
:1052D00065D8434A93424CD0414A93425FD8414AF1
:1052E000934246D03F4A934259D83F4A934233D0E3
:1052F0003D4A934253D83D4A93422DD03B4A934274
:105300004DD83B4A934227D0394A934247D8394A2D
:10531000934221D0374A934241D8374A93420ED024
:10532000354A93423BD8354A934208D0334A934298
:1053300035D8334A934202D0324A93422FD1FEF7F6
:105340003FFF0346002B2CD007F108031846FFF758
:105350002FFAFB687B6124E0FEF7EEFF0346002B8B
:1053600021D007F108031846FFF7BAFABB687B6142
:1053700019E0FFF79DF80346002B16D007F108034C
:105380001846FFF745FBBB687B610EE01E4B7B6157
:105390000CE04FF0405000F0AFFC786106E000BF39
:1053A00004E000BF02E000BF00E000BF7B691846D8
:1053B0001837BD4680BD00BF0C1804070C15040744
:1053C00004060407040004070C1803070C15030760
:1053D00004060307040003070C1802070C15020754
:1053E00004060207040002070C1801070C15010748
:1053F00004060107040001070C1800070C1500073C
:1054000004000007040600070080BB0080B586B0DA
:1054100000AF786000237B617868FEF7B3FE034637
:10542000B3F5003F22D0B3F5003F25D8002B03D0C1
:10543000B3F5803F0DD01FE0FEF77EFF0346002B43
:105440001CD007F108031846FFF74AFABB687B61D6
:1054500014E0FFF72DF80346002B11D007F10803E5
:105460001846FFF7D5FA3B697B6109E04FF04050E1
:1054700000F042FC786104E000BF02E000BF00E001
:1054800000BF7B6918461837BD4680BD80B586B021
:1054900000AF786000237B617868FEF7B7FD0346B4
:1054A000002B03D0B3F5803F0DD01CE0FEF788FE43
:1054B0000346002B14D007F108031846FFF778F9CC
:1054C000FB687B610CE0FEF737FF0346002B09D039
:1054D00007F108031846FFF703FA3B697B6101E017
:1054E00000BF00E000BF7B6918461837BD4680BD8D
:1054F00080B586B000AF786000237B617868FEF7E6
:1055000095FD0346B3F5407F2BD0B3F5407F31D8EE
:10551000B3F5007F1CD0B3F5007F2BD8002B0FD044
:10552000B3F5807F26D1FEF74BFE0346002B23D038
:1055300007F108031846FFF73BF9FB687B611BE0A6
:10554000FEF764FC0346002B18D0114B7B6115E07D
:10555000FEF770FC0346002B12D04FF400437B6132
:105560000EE0FEF779FC0346002B0BD04FF4FA4314
:105570007B6107E000BF06E000BF04E000BF02E07F
:1055800000BF00E000BF7B6918461837BD4680BDEC
:10559000006CDC0280B584B000AF78600023FB6053
:1055A0007868FEF763FD0346B3F5000F1AD0B3F534
:1055B000000F20D8002B03D0B3F5800F09D01AE0DC
:1055C000FEF738FC0346002B17D04FF40043FB6076
:1055D00013E0FEF741FC0346002B10D04FF4FA43D2
:1055E000FB600CE0FEF7FEFB0346002B09D048F2FF
:1055F0001203FB6005E000BF04E000BF02E000BF53
:1056000000E000BFFB6818461037BD4680BD0000B3
:1056100080B586B000AF786000237B617868FEF7C4
:1056200015FD0346B3F5401F23D0B3F5401F28D81E
:10563000B3F5801F03D0B3F5001F0DD021E0FEF7B6
:10564000BFFD0346002B1ED007F108031846FFF7E5
:10565000AFF8FB687B6116E0FEF72AFF0346002BDC
:1056600013D007F108031846FFF7D2F9FB687B61F6
:105670000BE0FEF7CBFB0346002B08D0074B7B610A
:1056800005E000BF04E000BF02E000BF00E000BF93
:105690007B6918461837BD4680BD00BF006CDC0230
:1056A00090B585B000AF78600023FB607868FEF7A6
:1056B000EDFC0346002B06D0B3F1807F1BD100F038
:1056C00061FBF86018E000F05DFB0446FEF7E4FBC8
:1056D00003461B0A03F00F030A4AD35C03F01F03BF
:1056E00024FA03F3184600F0AFFB0346184600F017
:1056F000D9FBF86000E000BFFB6818461437BD46D0
:1057000090BD00BF5817020880B586B000AF786022
:1057100000237B617868FEF705FD0346B3F5401F63
:1057200035D0B3F5401F40D8B3F5001F22D0B3F5F4
:10573000001F3AD8002B03D0B3F5801F0DD034E002
:10574000FEF73EFD0346002B31D007F10803184653
:10575000FFF72EF8FB687B6129E0FEF7EDFD0346BD
:10576000002B26D007F108031846FFF7B9F83B696C
:105770007B611EE0FEF79CFE0346002B1BD007F169
:1057800008031846FFF744F93B697B6113E0FEF715
:1057900009FB0346002B10D0FEF716FB0346DB087F
:1057A000094A22FA03F37B6107E000BF06E000BF6D
:1057B00004E000BF02E000BF00E000BF7B691846C4
:1057C0001837BD4680BD00BF0090D00390B587B0AC
:1057D00000AF786000237B617868FEF797FC034692
:1057E000944A934200F00881924A934200F20C815D
:1057F000914A934200F000818F4A934200F2048163
:105800008E4A934200F0F0808C4A934200F2FC8072
:105810008B4A934200F0E880894A934200F2F48078
:10582000884A934200F08280864A934200F2EC80DC
:10583000854A934200F0CA80834A934200F2E48092
:10584000824A934200F0C280804A934200F2DC8098
:105850007F4A934267D07E4A934200F2D5807D4AC8
:10586000934200F0A6807B4A934200F2CD807A4AB0
:10587000934200F09E80784A934200F2C580774AB6
:10588000934243D0754A934200F2BE80744A9342D9
:1058900000F08280724A934200F2B680714A9342CD
:1058A0007AD0704A934200F2AF806F4A93421FD081
:1058B0006D4A934200F2A8806C4A934254D06B4ADE
:1058C000934200F2A1806A4A934203D0694A93420C
:1058D00032D099E0FEF774FC0346002B00F096806E
:1058E00007F108031846FEF763FFFB687B618DE054
:1058F000FEF722FD0346002B00F08A8007F1080323
:105900001846FEF7EDFFBB687B6181E0FEF7D0FD36
:105910000346002B7ED007F108031846FFF778F8FE
:10592000BB687B6176E0544B7B617EE04FF040507A
:1059300000F0E2F9786178E000F024FA0446FEF71E
:10594000ABFA03461B0A03F00F034C4AD35C03F087
:105950001F0324FA03F3184600F076FA03461846AC
:1059600000F0A0FA786160E000F00CFA0446FEF75F
:1059700093FA03461B0A03F00F03404AD35C03F07B
:105980001F0324FA03F3184600F05EFA0346184694
:1059900000F0B8FA786148E0FEF7CEFC0346002B31
:1059A0003AD007F108031846FEF79AFFFB687B61BF
:1059B00032E0FEF77DFD0346002B2FD007F10803F0
:1059C0001846FFF725F8FB687B6127E0FEF7EAF948
:1059D0000346002B24D0FEF7F7F90346DB08284ADC
:1059E00022FA03F37B611BE0FEF7FCF90346002B70
:1059F00018D0244B7B6115E0FEF7C0F90346002B5D
:105A000012D0214B7B610FE000BF0EE000BF0CE025
:105A100000BF0AE000BF08E000BF06E000BF04E0EE
:105A200000BF02E000BF00E000BF7B6918461C37E2
:105A3000BD4690BD0C1C0507041005070C1C04078F
:105A400004100407040C04070C1C030704100307CC
:105A5000040C03070C1C020704100207040C0207C5
:105A60000C1C010704100107040C01070C1C0007A3
:105A7000040C0007041000070080BB005817020840
:105A80000090D00300093D0000127A0090B585B067
:105A900000AF78600023FB607868FEF763FB034685
:105AA000002B03D0B3F1004F18D025E000F06AF9C5
:105AB0000446FEF7F1F903461B0A03F00F03114AEF
:105AC000D35C03F01F0324FA03F3184600F0BCF97B
:105AD0000346184600F0CEF9F8600DE0FEF762F9D3
