:020000040800F2
:100000000000022411070008416B00084F6B000834
:10001000556B00085B6B0008616B00080000000076
:10002000000000000000000000000000676B0008F6
:10003000756B000800000000836B0008916B0008DE
:1000400061070008610700086107000861070008F0
:1000500061070008610700086107000861070008E0
:1000600061070008610700086107000861070008D0
:1000700061070008610700086107000861070008C0
:1000800061070008610700086107000861070008B0
:1000900061070008610700086107000861070008A0
:1000A0006107000861070008610700086107000890
:1000B0006107000861070008610700086107000880
:1000C0006107000861070008610700086107000870
:1000D0006107000861070008610700089D6B0008C0
:1000E00061070008610700080000000061070008C0
:1000F0006107000861070008610700086107000840
:10010000610700086107000861070008610700082F
:10011000610700086107000861070008610700081F
:10012000610700086107000861070008610700080F
:1001300061070008610700086107000861070008FF
:1001400061070008610700080000000000000000CF
:1001500061070008610700086107000861070008DF
:1001600061070008610700086107000861070008CF
:10017000610700086107000861070008000000002F
:1001800061070008610700086107000861070008AF
:10019000610700086107000861070008610700089F
:1001A000610700086107000861070008610700088F
:1001B000610700086107000861070008610700087F
:1001C000610700086107000861070008610700086F
:1001D000610700086107000861070008610700085F
:1001E000610700086107000861070008610700084F
:1001F000610700086107000861070008610700083F
:10020000610700086107000861070008610700082E
:10021000610700086107000861070008610700081E
:10022000610700086107000861070008000000007E
:1002300061070008610700086107000861070008FE
:1002400061070008610700086107000861070008EE
:1002500061070008610700086107000861070008DE
:1002600061070008610700086107000861070008CE
:1002700061070008610700086107000861070008BE
:10028000610700086107000861070008000000001E
:08029000610700086107000886
:1002A00010B5054C237833B9044B13B10448AFF3B0
:1002B00000800123237010BD601E00240000000098
:1002C000CC6A020808B5034B1BB103490348AFF3DE
:1002D000008008BD00000000641E0024CC6A0208F3
:1002E000154B002B08BF134B9D46A3F5803A002108
:1002F0008B460F461348144A121A25F0B5FE0F4BD1
:10030000002B00D098470E4B002B00D098470020C0
:10031000002104000D000D48002802D00C48AFF366
:10032000008025F06FFE2000290003F0BDFB25F0C2
:1003300055FE00BF000008000000000000000000A3
:1003400000000000601E00240C20002400000000BB
:10035000000000009C87020800000024601E0024AA
:10036000601E00240C20002453B94AB9002908BF9C
:1003700000281CBF4FF0FF314FF0FF3000F06EB986
:10038000ADF1080C6DE904CE00F006F8DDF804E0EC
:10039000DDE9022304B070472DE9F047089D0446CB
:1003A0008C46002B40F083808A42174647D9B2FA28
:1003B00082F242B1C2F1200024FA00F0914097404D
:1003C00040EA010C94404FEA1748230CBCFBF8F6B6
:1003D0001FFA87FE08FB16C143EA014306FB0EF134
:1003E000994209D9FB1806F1FF3080F01981994232
:1003F00040F21681023E3B445B1AA4B2B3FBF8F014
:1004000008FB103344EA034400FB0EFEA64509D95D
:100410003C1900F1FF3380F00581A64540F20281CE
:1004200002383C4440EA0640A4EB0E0400261DB10D
:10043000D4400023C5E900433146BDE8F08702B946
:10044000FFDEB2FA82F2002A50D1CB1B4FEA174EE0
:100450001FFA87F80126B3FBFEFC210C0EFB1C33B0
:1004600041EA034108FB0CF38B4207D979180CF1E0
:10047000FF3002D28B4200F2E9808446C91AA3B24F
:10048000B1FBFEF00EFB101143EA014408FB00F83B
:10049000A04507D93C1900F1FF3302D2A04500F274
:1004A000D9801846A4EB080440EA0C40BFE78B4211
:1004B00009D9002D00F0B1800026C5E900013046C1
:1004C0003146BDE8F087B3FA83F6002E4AD18B425D
:1004D00002D3824200F2B880841A61EB030101204A
:1004E0008C46002DA8D0C5E9004CA5E7C2F1200339
:1004F00020FA03F6974001FA02F04FEA174ED9406E
:100500003043030CB1FBFEF61FFA87F80EFB161101
:1005100043EA014306FB08F1994204FA02F409D9BF
:10052000FB1806F1FF3C80F08D80994240F28A80F2
:10053000023E3B445B1A81B2B3FBFEF00EFB10336C
:1005400041EA034100FB08F38B4207D9791800F117
:10055000FF3C73D28B4271D902383944CB1A40EA3E
:10056000064678E7C6F1200C03FA06F422FA0CF3EB
:100570001C4320FA0CF701FA06F34FEA144E21FA55
:100580000CF11F433B0CB1FBFEF91FFA84F80EFB84
:10059000191143EA014109FB08FA8A4502FA06F2F9
:1005A00000FA06F308D9611809F1FF3048D28A45EC
:1005B00046D9A9F102092144A1EB0A01BFB2B1FB5E
:1005C000FEF00EFB101147EA014700FB08F8B845A2
:1005D00007D9E71900F1FF312ED2B8452CD90238DE
:1005E000274440EA0940A7EB0807A0FB02894F45D2
:1005F000C64649461AD317D05DB1B3EB0E0267EB7E
:10060000010707FA0CFCF2404CEA0202F740C5E988
:10061000002700263146BDE8F0872E4628460BE726
:100620000646E9E61846FDE64345E5D2B8EB020E7C
:1006300069EB04010138DFE70846D2E760468DE741
:100640008146B9E7664675E730464AE7ACF1020CE9
:10065000394413E702383C4424E700BF704700BF29
:10066000034613F8012B002AFBD1181A01387047F2
:1006700001F0FF01102A2BDB10F0070F08D010F853
:10068000013B013A8B422DD010F0070F42B3F6D157
:10069000F0B441EA012141EA014122F007047FF070
:1006A00000070023F0E80256083C85EA010586EAC7
:1006B000010685FA47F5A3FA87F586FA47F6A5FA03
:1006C00087F68EB9EED1F0BC01F0FF0102F007020F
:1006D00032B110F8013B013A83EA010313B1F8D1BA
:1006E0000020704701387047002D06BF354603389B
:1006F000073815F0010F07D1013015F4807F02BFD4
:10070000013015F4C03F0130F0BC0138704700BF24
:10071000DFF834D0002103E00C4B5B584350043128
:100720000B480C4B42189A42F6D30B4A02E00023C6
:1007300042F8043B094B9A42F9D306F0C1FE25F07A
:1007400061FC03F0B1F97047000002249C870208A5
:1007500000000024601E0024601E00240C200024E1
:10076000FEE780B483B000AF786039607B681A68B8
:100770003B681B685A407B681A607B6804331968C1
:100780003B6804331A687B6804334A401A607B680C
:10079000083319683B6808331A687B6808334A4095
:1007A0001A607B680C3319683B680C331A687B68E5
:1007B0000C334A401A6000BF0C37BD465DF8047B1D
:1007C000704780B483B000AF786039603B681A68C6
:1007D0007B681A607B6804333A6852681A607B68E9
:1007E00008333A6892681A607B680C333A68D268BA
:1007F0001A6000BF0C37BD465DF8047B704780B4BB
:1008000085B000AFF860B9607A60BB681A687B6831
:100810009A40BB68043319687B68C3F1200321FA4E
:1008200003F31A43FB681A60BB6804331A687B68D9
:1008300002FA03F1BB6808331A687B68C3F120032E
:10084000DA40FB6804330A431A60BB6808331A684D
:100850007B6802FA03F1BB680C331A687B68C3F14A
:100860002003DA40FB6808330A431A60BB680C3384
:100870001A687B6802FA03F1BB681A687B68C3F1E7
:100880002003DA40FB680C330A431A6000BF1437B8
:10089000BD465DF8047B704780B485B000AFF8605A
:1008A000B9607A60BB680C331A687B6822FA03F17E
:1008B000BB6808331A687B68C3F120039A40FB6861
:1008C0000C330A431A60BB6808331A687B6822FA43
:1008D00003F1BB6804331A687B68C3F120039A40B4
:1008E000FB6808330A431A60BB6804331A687B68E4
:1008F00022FA03F1BB681A687B68C3F120039A40AF
:10090000FB6804330A431A60BB681A687B68DA40E4
:10091000BB680C3319687B68C3F1200301FA03F349
:100920001A43FB681A6000BF1437BD465DF8047BAC
:100930007047000080B483B000AF786039607B6896
:100940001B681B0EDBB21A464E4B9B5C1A067B687B
:100950001B681B0CDBB219464B4B5B5C1B041A4338
:100960007B681B681B0ADBB21946484B5B5C1B02A9
:1009700013437A681268D2B21146454A525C134357
:100980001A463B681A607B6804331B681B0EDBB297
:100990001A463C4B9B5C1A067B6804331B681B0C95
:1009A000DBB21946384B5B5C1B041A437B6804338B
:1009B0001B681B0ADBB21946344B5B5C1B021343FA
:1009C0007A6804321268D2B21146314A525C1A4334
:1009D0003B6804331A607B6808331B681B0EDBB26C
:1009E0001A46284B9B5C1A067B6808331B681B0C55
:1009F000DBB21946244B5B5C1B041A437B6808334B
:100A00001B681B0ADBB21946204B5B5C1B021343BD
:100A10007A6808321268D2B211461D4A525C1A43F3
:100A20003B6808331A607B680C331B681B0EDBB213
:100A30001A46144B9B5C1A067B680C331B681B0C14
:100A4000DBB21946104B5B5C1B041A437B680C330A
:100A50001B681B0ADBB219460C4B5B5C1B02134381
:100A60007A680C321268D2B21146094A525C1A43B3
:100A70003B680C331A6000BF0C37BD465DF8047B41
:100A8000704700BF406B0208406C0208406D0208CE
:100A9000406E020880B483B000AF786039607B6834
:100AA0001B681B0EDBB21A464E4B9B5C1A067B681A
:100AB0001B681B0CDBB219464B4B5B5C1B041A43D7
:100AC0007B681B681B0ADBB21946484B5B5C1B0248
:100AD00013437A681268D2B21146454A525C1343F6
:100AE0001A463B681A607B6804331B681B0EDBB236
:100AF0001A463C4B9B5C1A067B6804331B681B0C34
:100B0000DBB21946384B5B5C1B041A437B68043329
:100B10001B681B0ADBB21946344B5B5C1B02134398
:100B20007A6804321268D2B21146314A525C1A43D2
:100B30003B6804331A607B6808331B681B0EDBB20A
:100B40001A46284B9B5C1A067B6808331B681B0CF3
:100B5000DBB21946244B5B5C1B041A437B680833E9
:100B60001B681B0ADBB21946204B5B5C1B0213435C
:100B70007A6808321268D2B211461D4A525C1A4392
:100B80003B6808331A607B680C331B681B0EDBB2B2
:100B90001A46144B9B5C1A067B680C331B681B0CB3
:100BA000DBB21946104B5B5C1B041A437B680C33A9
:100BB0001B681B0ADBB219460C4B5B5C1B02134320
:100BC0007A680C321268D2B21146094A525C1A4352
:100BD0003B680C331A6000BF0C37BD465DF8047BE0
:100BE000704700BF406D0208406E0208406B02086B
:100BF000406C020880B48BB000AF786039607B68CD
:100C00001B681B0E87F827307B681B681B0C87F856
:100C100026307B681B681B0A87F825307B681B68B9
:100C200087F824307B6804331B681B0E87F8233059
:100C30007B6804331B681B0C87F822307B68043305
:100C40001B681B0A87F821307B6804331B6887F810
:100C500020307B6808331B681B0EFB777B680833EA
:100C60001B681B0CBB777B6808331B681B0A7B77F0
:100C70007B6808331B683B777B680C331B681B0E53
:100C8000FB767B680C331B681B0CBB767B680C33D4
:100C90001B681B0A7B767B680C331B683B7697F8D6
:100CA000242097F823305340DAB297F8213053408C
:100CB000DAB2FB7F5340DAB2BB7F5340DAB2BB7E7D
:100CC0005340DAB27B7E5340FB7597F8252097F8A6
:100CD00022305340DAB297F820305340DAB2FB7F2B
:100CE0005340DAB2BB7F5340DAB2FB7E5340DAB2F4
:100CF0003B7E5340BB7597F8262097F8233053402E
:100D0000DAB297F821305340DAB27B7F5340DAB23F
:100D10003B7F5340DAB2FB7E5340DAB23B7E534016
:100D20007B7597F8272097F822305340DAB297F86E
:100D300020305340DAB27B7F5340DAB23B7F5340DE
:100D4000DAB2BB7E5340DAB27B7E53403B7597F8F4
:100D5000272097F825305340DAB297F822305340D5
:100D6000DAB2FB7F5340DAB23B7F5340DAB27B7E8C
:100D70005340DAB23B7E5340FB7497F8262097F835
:100D800024305340DAB297F823305340DAB2BB7FB5
:100D90005340DAB27B7F5340DAB27B7E5340DAB203
:100DA0003B7E5340BB7497F8272097F8253053407B
:100DB000DAB297F820305340DAB2BB7F5340DAB250
:100DC0007B7F5340DAB2FB7E5340DAB2BB7E5340A6
:100DD0007B7497F8262097F824305340DAB297F8BE
:100DE00021305340DAB2FB7F5340DAB23B7F5340AD
:100DF000DAB2FB7E5340DAB2BB7E53403B7497F8C5
:100E0000272097F826305340DAB297F82330534022
:100E1000DAB297F820305340DAB27B7F5340DAB22F
:100E2000BB7E5340DAB23B7E5340FB7397F82720DA
:100E300097F826305340DAB297F822305340DAB2AE
:100E400097F821305340DAB23B7F5340DAB2FB7E51
:100E50005340DAB27B7E5340BB7397F8252097F856
:100E600024305340DAB297F822305340DAB297F880
:100E700021305340DAB2FB7F5340DAB2BB7E53409D
:100E8000DAB23B7E53407B7397F8252097F82430E5
:100E90005340DAB297F823305340DAB297F8203053
:100EA0005340DAB2BB7F5340DAB2FB7E5340DAB232
:100EB0007B7E53403B7397F8262097F825305340AC
:100EC000DAB297F821305340DAB297F82030534025
:100ED000DAB2BB7F5340DAB23B7F5340DAB2FB7EDB
:100EE0005340FB7297F8272097F824305340DAB22A
:100EF00097F821305340DAB297F820305340DAB2F5
:100F0000FB7F5340DAB27B7F5340DAB2BB7E534063
:100F1000BB7297F8272097F824305340DAB297F83D
:100F200023305340DAB297F822305340DAB2BB7F15
:100F30005340DAB23B7F5340DAB27B7E53407B7240
:100F400097F8262097F825305340DAB297F82330E7
:100F50005340DAB297F822305340DAB2FB7F534065
:100F6000DAB27B7F5340DAB23B7E53403B72FB7D6B
:100F70001A06BB7D1B041A437B7D1B021A433B7D73
:100F800013431A463B681A60FB7C1A06BB7C1B04A1
:100F90001A437B7C1B021A433B7C1A433B68043395
:100FA0001A60FB7B1A06BB7B1B041A437B7B1B026C
:100FB0001A433B7B1A433B6808331A60FB7A1A06D4
:100FC000BB7A1B041A437B7A1B021A433B7A1A43EF
:100FD0003B680C331A6000BF2C37BD465DF8047BBC
:100FE000704780B588B000AFF860B9607A6007F1EB
:100FF0001003F9681846FFF7E4FB07F11003B9681E
:101000001846FFF7AEFB07F1100207F11003114677
:101010001846FFF78FFC07F1100379681846FFF7B1
:10102000E9FD00BF2037BD4680BD80B588B000AF68
:10103000F860B9607A6007F11003F9681846FFF7A5
:10104000C0FB07F11003B9681846FFF78AFB07F1E8
:10105000100207F1100311461846FFF71BFD07F1B8
:10106000100379681846FFF7C5FD00BF2037BD465D
:1010700080BD80B588B000AFF860B9607A603B6031
:101080001322B968B86AFFF707FCF968B86AFFF776
:1010900068FBBB6A1033132279681846FFF7FCFB24
:1010A000BB6A1033B9681846FFF75BFBBB6A203395
:1010B000132239681846FFF7EFFBBB6A20337968C3
:1010C0001846FFF74EFBBB6A30331322F968184607
:1010D000FFF7E2FBBB6A303339681846FFF741FB84
:1010E000BB6A40331F22B9681846FFF7D5FBBB6ABD
:1010F0004033F9681846FFF734FBBB6A50331F22B0
:1011000079681846FFF7C8FBBB6A5033B9681846C0
:10111000FFF727FBBB6A60331F2239681846FFF7C9
:10112000BBFBBB6A603379681846FFF71AFBBB6AE2
:1011300070331F22F9681846FFF7AEFBBB6A7033A5
:1011400039681846FFF70DFBBB6A80331F22B96868
:101150001846FFF754FBBB6A03F1800107F1100347
:101160001E221846FFF74BFBBB6A803307F11002C3
:1011700011461846FFF725FBBB6A8033F96818460D
:10118000FFF7EFFABB6A90331F2279681846FFF722
:1011900036FBBB6A03F1900107F110031E221846CB
:1011A000FFF72DFBBB6A903307F11002114618467A
:1011B000FFF707FBBB6A9033B9681846FFF7D1FA0F
:1011C000BB6AA0331F2239681846FFF718FBBB6AB9
:1011D00003F1A00107F110031E221846FFF70FFBD1
:1011E000BB6AA03307F1100211461846FFF7E9FA6F
:1011F000BB6AA03379681846FFF7B3FABB6AB0330D
:101200001F22F9681846FFF7FAFABB6A03F1B0012A
:1012100007F110031E221846FFF7F1FABB6AB0333C
:1012200007F1100211461846FFF7CBFABB6AB0333C
:1012300039681846FFF795FABB6AC0331F22B968B0
:101240001846FFF7DCFABB6AC033F9681846FFF7A7
:1012500088FABB6AD0331F2279681846FFF7CFFAA5
:10126000BB6AD033B9681846FFF77BFABB6AE03334
:101270001F2239681846FFF7C2FABB6AE033796863
:101280001846FFF76EFABB6AF0331F22F96818465A
:10129000FFF7B5FABB6AF03339681846FFF761FA11
:1012A000BB6A03F580731322B9681846FFF7A7FAE3
:1012B000BB6A03F58073F9681846FFF752FA00BF5E
:1012C0002037BD4680BD000090B5A7B002AFF860E2
:1012D000B9607A607B68802B1DD1FB680D221A6093
:1012E00000233B6100237B610023BB610023FB6182
:1012F00007F140034F491846FFF763FA07F130033F
:101300004D491846FFF75DFA07F120034B4918468F
:10131000FFF757FA43E07B68C02B1FD1FB680F2211
:101320001A60BB681B693B61BB685B697B6100231A
:10133000BB610023FB6107F140033F491846FFF7FB
:1013400040FA07F130033D491846FFF73AFA07F132
:10135000200338491846FFF734FA20E0FB681122D1
:101360001A60BB681B693B61BB685B697B61BB68DA
:101370009B69BB61BB68DB69FB6107F140032F49D7
:101380001846FFF71EFA07F130032A491846FFF7FF
:1013900018FA07F1200328491846FFF712FA07F157
:1013A0008003B9681846FFF70CFA07F1700207F1DD
:1013B000400107F180031846FFF713FE07F1100202
:1013C00007F1700311461846FFF7CBF907F16002E9
:1013D00007F1300107F170031846FFF726FE07F109
:1013E000800207F1600311461846FFF7BAF907F1CA
:1013F000500207F1200107F160031846FFF7F1FDE5
:1014000007F1700207F1500311461846FFF7A9F9DA
:10141000FB68043307F1500407F1600207F1700123
:1014200007F1800000932346FFF723FE00BF9437A7
:10143000BD4690BD106B0208206B0208306B02089D
:1014400090B589B000AFF860B9607A600023FB61A5
:101450000023BB61244A07F1100392E8030083E8EC
:101460000300B9687868FFF7ACF90123FB6116E067
:10147000FB6903F001039B0007F12002134453F8BA
:10148000104CBB695A1CBA611B01FA68134404333F
:101490007A6819467868A047FB690133FB61FB68ED
:1014A0001B68023BFA699A42E2D9BB695A1CBA61CD
:1014B0001B01FA681344043319467868FFF751F9A1
:1014C00079687868FFF7E6FABB695A1CBA611B01B4
:1014D000FA681344043319467868FFF742F900BFED
:1014E0002437BD4690BD00BFE86A020880B5C8B089
:1014F00000AF3B1D18603B4619603B1D1B6803F1A4
:1015000040013B461A6807F10C031846FFF7DCFE62
:101510003B1D19683B1D1B6803F1200207F10C03FA
:101520001846FFF78DFF00BF07F59077BD4680BDD9
:1015300080B483B000AF786039607A683B68C3F1EB
:10154000200362FA03F318460C37BD465DF8047BAE
:1015500070472DE9F00F8CB000AF78623962FA6104
:101560003B6AD3E90023C7E90A233B6AD3E9002396
:10157000FE69A6F12001C6F1200C03FA06F078619D
:1015800002FA01F178690843786122FA0CFC796962
:1015900041EA0C01796102FA06F33B613B6A0833C8
:1015A000D3E90023F969C1F14006C6F12001A6F193
:1015B000200022FA06F403FA01F10C4323FA00F0AA
:1015C000044323FA06F5D7E904120B462343BB6014
:1015D00013462B43FB607B6AD7E90212C3E9001272
:1015E0003B6A0833D3E90023F969A1F12004C1F172
:1015F000200003FA01FB02FA04F44BEA040B22FA7E
:1016000000F04BEA000B02FA01FAFB69C3F140015A
:10161000D7E90A23C1F12004A1F1200022FA01F840
:1016200003FA04F448EA040823FA00F048EA000840
:1016300023FA01F97B6A08334AEA08023A604BEA66
:1016400009027A60D7E90012C3E9001200BF3037FF
:10165000BD46BDE8F00F70472DE9B00F97B000AF61
:10166000C7E90E01C7E90C23D7E90E01D7E90C231E
:1016700080EA020481EA0305C7E91445D7E9142387
:101680004FF000004FF00001180E0021034687F8CC
:101690004F30D7E914234FF000004FF00001180C31
:1016A0000021034687F84E30D7E914234FF000009D
:1016B0004FF00001180A0021034687F84D30D7E9A2
:1016C00014234FF000004FF00001180000210346E2
:1016D00087F84C30D7E914234FF000004FF0000199
:1016E000100E40EA0320190E034687F84B30D7E965
:1016F00014234FF000004FF00001100C40EA0340AB
:10170000190C034687F84A30D7E914234FF000003C
:101710004FF00001100A40EA0360190A034687F8F7
:1017200049303B6D87F8483097F84F20AE4B9B5CB3
:1017300087F84F3097F84E20AC4B9B5C87F84E30C3
:1017400097F84D20AA4B9B5C87F84D3097F84C20BA
:10175000A84B9B5C87F84C3097F84B20A34B9B5CC5
:1017600087F84B3097F84A20A14B9B5C87F84A30AA
:1017700097F849209F4B9B5C87F8493097F84820A1
:10178000994B9B5C87F8483097F84F2097F84D307D
:101790005340DAB297F84C305340DAB297F84A30F7
:1017A0005340DAB297F849305340DAB297F84830EC
:1017B000534087F8473097F84F2097F84E30534002
:1017C000DAB297F84C305340DAB297F84B305340C6
:1017D000DAB297F849305340DAB297F848305340BC
:1017E00087F8463097F84F2097F84E305340DAB2DA
:1017F00097F84D305340DAB297F84B305340DAB295
:1018000097F84A305340DAB297F84830534087F897
:10181000453097F84E2097F84D305340DAB297F89C
:101820004C305340DAB297F84B305340DAB297F865
:101830004A305340DAB297F84930534087F8443081
:1018400097F84F2097F84E305340DAB297F84A3065
:101850005340DAB297F849305340DAB297F848303B
:10186000534087F8433097F84E2097F84D30534057
:10187000DAB297F84B305340DAB297F84930534018
:10188000DAB297F84830534087F8423097F84D2045
:1018900097F84C305340DAB297F84B305340DAB2F5
:1018A00097F84A305340DAB297F84830534087F8F7
:1018B000413097F84F2097F84C305340DAB297F800
:1018C0004B305340DAB297F84A305340DAB297F8C7
:1018D0004930534087F8403097F847204FF00003D5
:1018E0004FF000044FF000051506002497F846203D
:1018F0004FF000034FF000004FF0000111040020F2
:1019000044EA000845EA010997F845204FF0000332
:101910004FF000004FF000011102002048EA000AD9
:1019200049EA010B97F844204FF000034FF0000004
:101930004FF00001110000204AEA0003BB624BEAAD
:101940000103FB6297F843204FF00003110A79620C
:1019500013063B62D7E90A452346D7E90801024648
:101960001343BB612B460A461343FB6197F84200C1
:101970004FF000014FF000024FF000030B0443EA68
:1019800010430204D7E9064521461143396129462F
:101990001943796197F841004FF000014FF00002C0
:1019A0004FF000030B0243EA10630202D7E904453B
:1019B00021461143B96029461943F96097F8402040
:1019C0004FF00003D7E9024521461143396029460B
:1019D00019437960D7E90023104619465C37BD46A4
:1019E000BDE8B00F704700BF706F0208707002084A
:1019F0007071020870720208B0B588B000AFC7E914
:101A00000201C7E90023D7E902014FF000024FF0BD
:101A100000030A0000231346FB61BB68BB61D7E9E2
:101A200000014FF000024FF000030A0000231346AC
:101A30007B613B683B61FA697B6913400121184671
:101A4000FFF776FD0246BB695340BB61BA693B694B
:101A50001343FA695340FB61FB6918464FF00001DC
:101A60004FF000024FF0000303000022B96908465E
:101A70004FF0000142EA000443EA010522462B46EA
:101A8000104619462037BD46B0BDB0B588B000AF8E
:101A9000C7E90201C7E90023D7E902014FF00002BC
:101AA0004FF000030A0000231346FB61BB68BB61D3
:101AB000D7E900014FF000024FF000030A000023B5
:101AC00013467B613B683B61BA693B691343FA6922
:101AD0005340FB61FA697B69134001211846FFF707
:101AE00027FD0246BB695340BB61FB6918464FF0B6
:101AF00000014FF000024FF0000303000022B9691B
:101B000008464FF0000142EA000443EA010522467C
:101B10002B46104619462037BD46B0BD00000000D8
:101B20002DE9B04FB2B000AFF865B9651346A7F81C
:101B30005630B7F85630802B1CD1FA6D0323138032
:101B4000FA6D1A239370BB6DD3E90023C7E92423F0
:101B5000BB6DD3E90223C7E926234FF000024FF003
:101B60000003C7E920234FF000024FF00003C7E94C
:101B7000222330E0B7F85630C02B05D0B7F85630E6
:101B8000B3F5807F40F04386FA6D04231380FA6D2D
:101B900022239370BB6DD3E90023C7E92423BB6DD7
:101BA000D3E90223C7E92623BB6DD3E90423C7E9A0
:101BB0002023BB6DD3E90623C7E92223B7F85630AB
:101BC000C02B07D1BB6D1033D3E90023D443DD43D1
:101BD000C7E9224500BFD7E92401D7E9202380EADD
:101BE000020881EA0309C7E93089D7E92601D7E964
:101BF000222380EA020A81EA030BC7E92EAB0FF623
:101C00001843D3E90023D7E93001FFF725FDD7E9D1
:101C10002E2382EA0004BC644B40FB64D7E91234F3
:101C2000C7E92E340FF6F833D3E90023D7E92E01A4
:101C3000FFF712FDD7E9302382EA00043C644B40F1
:101C40007B64D7E91034C7E93034D7E92401D7E9F8
:101C5000302382EA0004BC634B40FB63D7E90E34B7
:101C6000C7E93034D7E92601D7E92E2382EA0004F8
:101C70003C634B407B63D7E90C34C7E92E340FF645
:101C8000A833D3E90023D7E93001FFF7E5FCD7E912
:101C90002E2382EA0004BC624B40FB62D7E90A347F
:101CA000C7E92E340FF68833D3E90023D7E92E0194
:101CB000FFF7D2FCD7E9302382EA00043C624B40B4
:101CC0007B62D7E90834C7E93034D7E93023C7E964
:101CD0001C23D7E92E23C7E91E23D7E91C01D7E926
:101CE000202380EA0204BC614B40FB61D7E9063443
:101CF000C7E93034D7E91E01D7E9222380EA02047C
:101D00003C614B407B61D7E90434C7E92E340FF6C0
:101D10002833D3E90023D7E93001FFF79DFCD7E949
:101D20002E2382EA0004BC604B40FB60D7E90234FA
:101D3000C7E92E340FF60833D3E90023D7E92E0183
:101D4000FFF78AFCD7E9302382EA00043C604B406D
:101D50007B60D7E90034C7E93034D7E93023C7E9DD
:101D60001823D7E92E23C7E91A23002387F8B730B1
:101D7000B7F85630802B40F05D8297F8B7305A1C88
:101D800087F8B7201946D7E92423F86D0131C90037
:101D90000144C1E9002397F8B7305A1C87F8B720EF
:101DA0001946D7E92623F86D0131C9000144C1E97C
:101DB000002397F8B7305A1C87F8B7201946D7E99F
:101DC0001C23F86D0131C9000144C1E9002397F8D3
:101DD000B7305A1C87F8B7201946D7E91E23F86D8B
:101DE0000131C9000144C1E9002307F1900107F165
:101DF000A0030F221846FFF7ACFB97F8B7305A1C28
:101E000087F8B7201946D7E92823F86D0131C900B2
:101E10000144C1E9002397F8B7305A1C87F8B7206E
:101E20001946D7E92A23F86D0131C9000144C1E9F7
:101E3000002307F1700107F1A0030F221846FFF7F6
:101E400088FB97F8B7305A1C87F8B7201946D7E9AE
:101E50002823F86D0131C9000144C1E9002397F836
:101E6000B7305A1C87F8B7201946D7E92A23F86DEE
:101E70000131C9000144C1E9002307F1700107F1F4
:101E8000A0031E221846FFF764FB97F8B7305A1CD0
:101E900087F8B7201946D7E92823F86D0131C90022
:101EA0000144C1E9002397F8B7305A1C87F8B720DE
:101EB0001946D7E92A23F86D0131C9000144C1E967
:101EC000002307F1900107F1A0031E221846FFF737
:101ED00040FB07F1A00107F1A0030F221846FFF70E
:101EE00038FB97F8B7305A1C87F8B7201946D7E95E
:101EF0002823F86D0131C9000144C1E9002397F896
:101F0000B7305A1C87F8B7201946D7E92A23F86D4D
:101F10000131C9000144C1E9002307F1700107F153
:101F2000A0031E221846FFF714FB07F1A00107F1DA
:101F3000A0030F221846FFF70CFB97F8B7305A1C86
:101F400087F8B7201946D7E92823F86D0131C90071
:101F50000144C1E9002307F1900107F1A0031E220B
:101F60001846FFF7F6FA07F1A00107F1A0031E22B9
:101F70001846FFF7EEFA97F8B7305A1C87F8B720E3
:101F80001946D7E92A23F86D0131C9000144C1E996
:101F9000002307F1700107F1A0031E221846FFF786
:101FA000D8FA07F1A00107F1A0031E221846FFF797
:101FB000D0FA97F8B7305A1C87F8B7201946D7E9F6
:101FC0002823F86D0131C9000144C1E9002397F8C5
:101FD000B7305A1C87F8B7201946D7E92A23F86D7D
:101FE0000131C9000144C1E9002307F1900107F163
:101FF000A0031E221846FFF7ACFA07F1A00107F173
:10200000A0031E221846FFF7A4FA07F1A00107F16A
:10201000A00311221846FFF79CFA97F8B7305A1C14
:1020200087F8B7201946D7E92823F86D0131C90090
:102030000144C1E9002397F8B7305A1C87F8B7204C
:102040001946D7E92A23F86D0131C9000144C1E9D5
:10205000002307F1900107F1A0031E221846FFF7A5
:1020600078FA07F1A00107F1A0031E221846FFF736
:1020700070FA07F1A00107F1A0031E221846FFF72E
:1020800068FA07F1A00107F1A00304221846FFF740
:1020900060FA97F8B7305A1C87F8B7201946D7E985
:1020A0002823F86D0131C9000144C1E9002397F8E4
:1020B000B7305A1C87F8B7201946D7E92A23F86D9C
:1020C0000131C9000144C1E9002307F1700107F1A2
:1020D000A0031E221846FFF73CFA07F1A00107F102
:1020E000A0031E221846FFF734FA07F1A00107F1FA
:1020F000A0031E221846FFF72CFA07F1A00107F1F2
:10210000A00304221846FFF724FA97F8B7305A1CA8
:1021100087F8B7201946D7E92823F86D0131C9009F
:102120000144C1E9002397F8B7305A1C87F8B7205B
:102130001946D7E92A23F86D0131C9000144C1E9E4
:10214000002307F1900107F1A0031E221846FFF7B4
:1021500000FA07F1A00107F1A0031E221846FFF7BD
:10216000F8F907F1A00107F1A0031E221846FFF7B6
:10217000F0F907F1A00107F1A00315221846FFF7B7
:10218000E8F997F8B7305A1C87F8B7201946D7E90D
:102190002823F86D0131C9000144C1E9002397F8F3
:1021A000B7305A1C87F8B7201946D7E92A23F86DAB
:1021B0000131C9000144C1E9002307F1700107F1B1
:1021C000A0031E221846FFF7C4F907F1A00107F18A
:1021D000A0031E221846FFF7BCF907F1A00107F182
:1021E000A0031E221846FFF7B4F907F1A00107F17A
:1021F000A00315221846FFF7ACF997F8B7305A1C20
:1022000087F8B7201946D7E92823F86D0131C900AE
:102210000144C1E9002397F8B7305A1C87F8B7206A
:102220001946D7E92A23F86D0131C9000144C1E9F3
:102230000023EDE297F8B7305A1C87F8B72019460B
:10224000D7E92423F86D0131C9000144C1E9002315
:1022500097F8B7305A1C87F8B7201946D7E92623D4
:10226000F86D0131C9000144C1E9002397F8B73086
:102270005A1C87F8B7201946D7E91823F86D0131A1
:10228000C9000144C1E9002397F8B7305A1C87F808
:10229000B7201946D7E91A23F86D0131C900014466
:1022A000C1E9002307F1800107F1A0030F221846BE
:1022B000FFF74FF997F8B7305A1C87F8B72019463F
:1022C000D7E92823F86D0131C9000144C1E9002391
:1022D00097F8B7305A1C87F8B7201946D7E92A2350
:1022E000F86D0131C9000144C1E9002307F1700113
:1022F00007F1A0030F221846FFF72BF997F8B73024
:102300005A1C87F8B7201946D7E92823F86D013100
:10231000C9000144C1E9002397F8B7305A1C87F877
:10232000B7201946D7E92A23F86D0131C9000144C5
:10233000C1E9002307F1800107F1A0031E2218461E
:10234000FFF707F997F8B7305A1C87F8B7201946F6
:10235000D7E92823F86D0131C9000144C1E9002300
:1023600097F8B7305A1C87F8B7201946D7E92A23BF
:10237000F86D0131C9000144C1E9002307F1600192
:1023800007F1A0031E221846FFF7E3F897F8B730CD
:102390005A1C87F8B7201946D7E92823F86D013170
:1023A000C9000144C1E9002397F8B7305A1C87F8E7
:1023B000B7201946D7E92A23F86D0131C900014435
:1023C000C1E9002307F1900107F1A0031E2218467E
:1023D000FFF7BFF807F1A00107F1A0030F2218468D
:1023E000FFF7B7F897F8B7305A1C87F8B7201946A7
:1023F000D7E92823F86D0131C9000144C1E9002360
:1024000097F8B7305A1C87F8B7201946D7E92A231E
:10241000F86D0131C9000144C1E9002307F17001E1
:1024200007F1A0031E221846FFF793F807F1A00159
:1024300007F1A0030F221846FFF78BF897F8B73083
:102440005A1C87F8B7201946D7E92823F86D0131BF
:10245000C9000144C1E9002397F8B7305A1C87F836
:10246000B7201946D7E92A23F86D0131C900014484
:10247000C1E9002307F1900107F1A0031E221846CD
:10248000FFF767F807F1A00107F1A0031E22184625
:10249000FFF75FF897F8B7305A1C87F8B72019464E
:1024A000D7E92823F86D0131C9000144C1E90023AF
:1024B00097F8B7305A1C87F8B7201946D7E92A236E
:1024C000F86D0131C9000144C1E9002307F1800121
:1024D00007F1A0031E221846FFF73BF807F1A00101
:1024E00007F1A0031E221846FFF733F897F8B7301C
:1024F0005A1C87F8B7201946D7E92823F86D01310F
:10250000C9000144C1E9002397F8B7305A1C87F885
:10251000B7201946D7E92A23F86D0131C9000144D3
:10252000C1E9002307F1600107F1A0031E2218464C
:10253000FFF70FF807F1A00107F1A0031E221846CC
:10254000FFF707F897F8B7305A1C87F8B7201946F5
:10255000D7E92823F86D0131C9000144C1E90023FE
:1025600097F8B7305A1C87F8B7201946D7E92A23BD
:10257000F86D0131C9000144C1E9002307F1900160
:1025800007F1A0031E221846FEF7E3FF07F1A001A2
:1025900007F1A0031E221846FEF7DBFF07F1A0019A
:1025A00007F1A00311221846FEF7D3FF97F8B730C2
:1025B0005A1C87F8B7201946D7E92823F86D01314E
:1025C000C9000144C1E9002397F8B7305A1C87F8C5
:1025D000B7201946D7E92A23F86D0131C900014413
:1025E000C1E9002307F1700107F1A0031E2218467C
:1025F000FEF7AFFF07F1A00107F1A0031E22184666
:10260000FEF7A7FF07F1A00107F1A003112218466A
:10261000FEF79FFF97F8B7305A1C87F8B720194686
:10262000D7E92823F86D0131C9000144C1E900232D
:1026300097F8B7305A1C87F8B7201946D7E92A23EC
:10264000F86D0131C9000144C1E9002307F180019F
:1026500007F1A0031E221846FEF77BFF07F1A00139
:1026600007F1A0031E221846FEF773FF07F1A00131
:1026700007F1A00322221846FEF76BFF97F8B73048
:102680005A1C87F8B7201946D7E92823F86D01317D
:10269000C9000144C1E9002397F8B7305A1C87F8F4
:1026A000B7201946D7E92A23F86D0131C900014442
:1026B000C1E9002307F1700107F1A0031E221846AB
:1026C000FEF747FF07F1A00107F1A0031E221846FD
:1026D000FEF73FFF07F1A00107F1A00322221846F1
:1026E000FEF737FF97F8B7305A1C87F8B72019461E
:1026F000D7E92823F86D0131C9000144C1E900235D
:1027000097F8B7305A1C87F8B7201946D7E92A231B
:10271000F86D0131C9000144C1E9002307F19001BE
:1027200007F1A0031E221846FEF713FF07F1A001D0
:1027300007F1A0031E221846FEF70BFF07F1A001C8
:1027400007F1A0031E221846FEF703FF07F1A001C0
:1027500007F1A00315221846FEF7FBFE97F8B730E5
:102760005A1C87F8B7201946D7E92823F86D01319C
:10277000C9000144C1E9002397F8B7305A1C87F813
:10278000B7201946D7E92A23F86D0131C900014461
:10279000C1E9002307F1600107F1A0031E221846DA
:1027A000FEF7D7FE07F1A00107F1A0031E2218468D
:1027B000FEF7CFFE07F1A00107F1A0031E22184685
:1027C000FEF7C7FE07F1A00107F1A0031522184686
:1027D000FEF7BFFE97F8B7305A1C87F8B7201946A6
:1027E000D7E92823F86D0131C9000144C1E900236C
:1027F00097F8B7305A1C87F8B7201946D7E92A232B
:10280000F86D0131C9000144C1E9002300E000BFB7
:10281000C837BD46BDE8B08F8B90CC3B7F669EA08D
:10282000B273AA4C58E87AB6BE824FE92F37EFC68A
:102830001C6FD3F1A553FF541D2D68DEFA27E51058
:10284000FDC1E6B3C28856B02DE9F04F91B000AF9C
:10285000F861B9617A61BB69D3E90023C7E908234C
:10286000BB69D3E90223C7E90A230023FB87FB8F57
:102870005A1CFA87FA690133DB001344D3E90001DB
:10288000D7E9082380EA0206BE604B40FB60D7E927
:102890000223C7E90823FB8F5A1CFA87FA69013320
:1028A000DB001344D3E90001D7E90A2380EA0206DA
:1028B0003E604B407B60D7E90023C7E90A23002331
:1028C0007B8767E00123BB8736E0BB8F03F0010302
:1028D0003B873B8F03F00103002B0CBF0123002338
:1028E000DBB2FB86FB8EDB0007F140021344203B8A
:1028F000D3E90001FB8F5A1CFA87FA690133DB0028
:102900001344D3E90023FEF7A7FE3B8FDB0007F15A
:1029100040021344203BD3E900233E8F80EA020AA1
:1029200081EA030BF30007F140021344203BC3E9A3
:1029300000ABBB8F0133BB87BB8F062BC5D97A8F0A
:10294000FB691B88013B9A4221D0D7E90801FB8F24
:102950005A1CFA87FA690133DB001344D3E90023D8
:10296000FFF74AF802460B46C7E90823D7E90A01F0
:10297000FB8F5A1CFA87FA690133DB001344D3E951
:102980000023FFF782F802460B46C7E90A237B8F34
:1029900001337B87FB691B887A8F9A4292D3FB8F26
:1029A0005A1CFA87FA690133DB001344D3E90001AA
:1029B000D7E90A2380EA020881EA0309C7E90A89FC
:1029C000FB8F5A1CFA87FA690133DB001344D3E901
:1029D0000001D7E9082380EA020481EA0305C7E978
:1029E0000845D7E90A237969C1E900237B6903F126
:1029F0000801D7E90823C1E9002300BF4437BD46D9
:102A0000BDE8F08F2DE9B04FADF5007D00AF07F1C7
:102A10004403186007F14003196007F144031B6881
:102A20001B681A464FF00003C7E97E2307F14403F1
:102A30001B685B681A464FF00003C7E97C2307F167
:102A400044031B689B681A464FF00003C7E97A23CA
:102A500007F144031B68DB681A464FF00003C7E91F
:102A6000782307F144031B681B6C1A464FF00003E0
:102A7000C7E9762307F144031B685B6C1A464FF0E5
:102A80000003C7E9742307F144031B689B6C1A46D3
:102A90004FF00003C7E9722307F144031B68DB6CA6
:102AA0001A464FF00003C7E9702307F144031B687F
:102AB0001B6D1A464FF00003C7E96E2307F144036C
:102AC0001B685B6D1A464FF00003C7E96C2307F1E2
:102AD00044031B689B6D1A464FF00003C7E96A2345
:102AE00007F144031B68DB6D1A464FF00003C7E98A
:102AF0006823D7E97E234FF000004FF0000111005A
:102B00000020D7E97C2340EA020441EA030507F1EB
:102B10005803C3E90045D7E97A234FF000004FF08E
:102B2000000111000020D7E9782340EA020841EAB9
:102B3000030907F15803C3E9028907F140031B6841
:102B4000B3F5807F00F0958007F140031B68B3F573
:102B5000807F00F3E08007F140031B68802B05D0E5
:102B600007F140031B68C02B3BD0D4E0D7E97601C6
:102B70004FF000024FF0000303000022D7E9740178
:102B800042EA0004BC630B43FB6307F16803D7E927
:102B90000E12C3E90012D7E972014FF000024FF0A4
:102BA000000303000022D7E9700142EA00043C63FD
:102BB0000B437B6307F16803D7E90C12C3E90212E8
:102BC00007F168014FF000024FF00003C1E9042350
:102BD00007F168014FF000024FF00003C1E906233E
:102BE0009AE0D7E976014FF000024FF000030300AE
:102BF0000022D7E9740142EA0004BC620B43FB6285
:102C000007F16803D7E90A12C3E90012D7E9720194
:102C10004FF000024FF0000303000022D7E97001DB
:102C200042EA00043C620B437B6207F16803D7E988
:102C30000812C3E90212D7E96E014FF000024FF00B
:102C4000000303000022D7E96C0142EA0004BC61E2
:102C50000B43FB6107F16803D7E90612C3E90412CD
:102C600007F168014FF000024FF00003C1E90623AD
:102C700052E0D7E976014FF000024FF00003030065
:102C80000022D7E9740142EA00043C610B437B61F6
:102C900007F16803D7E90412C3E90012D7E972010A
:102CA0004FF000024FF0000303000022D7E970014B
:102CB00042EA0004BC600B43FB6007F16803D7E9FC
:102CC0000212C3E90212D7E96E014FF000024FF081
:102CD000000303000022D7E96C0142EA00043C60D3
:102CE0000B437B6007F16803D7E90012C3E90412C4
:102CF000D7E96A014FF000024FF000030300002201
:102D0000D7E9680142EA000A43EA010B07F16803C8
:102D1000C3E906AB00E000BF07F140031B689AB2AD
:102D200007F1680107F188031846FEF7F9FE07F17D
:102D3000480207F1580107F188031846FFF784FDA0
:102D400007F14803D3E900014FF000024FF0000300
:102D50000A00002307F144031B681A6207F14803C5
:102D6000D3E9002307F144031B685A6207F14803C3
:102D7000D3E902014FF000024FF000030A000023E4
:102D800007F144031B689A6207F14803D3E9022361
:102D900007F144031B68DA6200BF07F50077BD4600
:102DA000BDE8B08F80B582B000AF78600B46FB7095
:102DB000FB78002B04D180217868FEF797FB00E0B8
:102DC00000BF00BF0837BD4680BD000084B080B59D
:102DD00084B000AF07F1180C8CE80F0097F87C3036
:102DE000194607F11800FFF7DDFF0023FB6002E042
:102DF000FB680133FB60FB68032BF9DDBA6ABB6B30
:102E00005340BB64FA6AFB6B5340FB64D7F88030D5
:102E1000042B08D13A6B3B6C53403B657A6B7B6C5F
:102E200053407B6503E000233B6500237B65002363
:102E3000BB6002E0BB680133BB60BB68032BF9DDFC
:102E400097F87C30194607F11800FFF7ABFFBA6C12
:102E5000BB6B5340BB63FA6CFB6B5340FB633A6D37
:102E60003B6C53403B647A6D7B6C53407B64002326
:102E70007B6016E07B68083307F1180252F82320C4
:102E8000D7F88410D7F88030C91A7B680B440B49F7
:102E900051F823309A4201D0012308E07B680133C6
:102EA0007B607A68D7F880309A42E3DB00231846CB
:102EB0001037BD46BDE8804004B0704704000024D0
:102EC00080B489B000AF78602C4B1A687B681344DB
:102ED0002B4A13600023FB610023BB6128E0284BD1
:102EE0001A68BB69C3F107039B0022FA03F3DBB244
:102EF00003F00F03FB74FB7C2249BA6912010A44F8
:102F000013441B78FB740023FB60FB7CFA681343BB
:102F1000FB60BB69C3F107039B00FA6802FA03F385
:102F2000FB60FA69FB681343FB61BB690133BB615A
:102F3000BB69072BD3DD144AFB691360124B1B6876
:102F4000DB027B61104B1B685A0D7B6913430E4AF1
:102F500013600D4B1A680D4B1B6853400C4A1360ED
:102F6000064B1B68094A1360094B1B68034A136030
:102F700000BF2437BD465DF8047B70478C1E0024DB
:102F80009C1E002470730208981E0024941E0024C6
:102F9000901E0024B0B58AB000AFC7E902017A6084
:102FA000BB682C4A1360D7E902014FF000024FF0D2
:102FB00000030A000023284B1A6000237B6213E001
:102FC00000233B620AE03B6A9B007A6813441B685B
:102FD0001846FFF775FF3B6A01333B623B6A072BDC
:102FE000F1DD7B6A01337B627B6A022BE8DD07231C
:102FF000FB610AE0FB699B007A6813441B68184672
:10300000FFF75EFFFB69013BFB61FB69002BF1DA17
:10301000104B1B681A464FF00003C7E90423D7E999
:1030200004014FF000024FF00003030000220A49A0
:10303000096808464FF0000142EA000443EA01052E
:10304000C7E90445D7E90423104619462837BD4689
:10305000B0BD00BF8C1E0024941E0024B0B58AB001
:1030600000AF786039607B681B681A464FF0000338
:10307000C7E908237B685B681A464FF00003C7E97D
:103080000623D7E908014FF000024FF000030300C8
:103090000022D7E9060140EA020441EA0305C7E934
:1030A00004457B6840331A46D7E90401FFF772FFF5
:1030B000C7E90201D7E902014FF000024FF0000317
:1030C0000A0000237B681A62BA687B685A627B68D0
:1030D00000229A627B680022DA6200BF2837BD4670
:1030E000B0BD80B483B000AF03460A46FB711346FF
:1030F000BB71FA79BB7902FA03F35AB2F979BB7959
:10310000C3F1080341FA03F35BB213435BB2DBB2D2
:1031100018460C37BD465DF8047B704790B583B008
:1031200000AF0346FB71FB7901211846FFF7D9FF79
:1031300003461C46FB7902211846FFF7D2FF0346DF
:103140006340DCB2FB7907211846FFF7CAFF03464C
:103150006340DBB218460C37BD4690BD90B583B0D6
:1031600000AF0346FB71FB7903211846FFF7B9FF57
:1031700003461C46FB7904211846FFF7B2FF0346BD
:103180006340DCB2FB7906211846FFF7AAFF03462D
:103190006340DBB218460C37BD4690BD90B585B094
:1031A00000AF7860084611461A460346FB700B468E
:1031B000BB7013467B707B689B79FB737B68DB7904
:1031C000BB737B6807337A6892791A707B68053322
:1031D0001C787B6804331B781846FFF7BFFF034653
:1031E0001A467B785340DAB27B6806332244D2B267
:1031F0001A707B6805337A6812791A707B6803331A
:103200001B785CB27B6802331B781846FFF786FF99
:1032100003461A46BB781344DBB25BB263405AB232
:103220007B680433D2B21A707B6803337A68927871
:103230001A707B6801331C787B681B781846FFF78F
:103240008DFF03461A46FB785340DAB27B6802339F
:103250002244D2B21A707B6801337A6812781A70ED
:10326000FB7B1846FFF75AFF03461A4697F82030B3
:103270001344DBB25AB297F90E3053405BB2DAB264
:103280007B681A7000BF1437BD4690BD80B487B00C
:1032900000AF7860396000237B610CE07B690C3300
:1032A0003A68134419787A687B6913440A461A709D
:1032B0007B6901337B617B69032BEFDD04237B6139
:1032C0000CE07B69043B3A68134419787A687B699F
:1032D00013440A461A707B6901337B617B69072BB3
:1032E000EFDD00237B613CE000233B6133E03A6982
:1032F0007B69D31A03F00703FB60FB683A68134449
:1033000019787B691A013B6913441B4AD25C7B69BB
:1033100018013B6903440A44D1B27A6813440A464F
:103320001A72FB6808333A68134419787B691A01EA
:103330003B6913440833104AD25C7B6918013B692E
:10334000034408330A44D1B27A6813440A461A7215
:103350003B6901333B613B69072BC8DD7B69013366
:103360007B617B69072BBFDD00BF00BF1C37BD46FB
:103370005DF8047B704700BFF0730208B0B58AB0F7
:1033800002AFF860B9607A600023BB77BB681A7837
:10339000FB681B781344DBB23B75BB685B787B75BD
:1033A000BB6802331A78FB685B785340DBB2BB75AD
:1033B000BB68DB78FB75BB6804331A78FB689B78C5
:1033C0001344DBB23B76BB685B797B76BB68063324
:1033D0001A78FB68DB785340DBB2BB76BB68DB79DD
:1033E000FB760023FB771FE0BB7FFA681344197A52
:1033F000BB7F0133FA6813441C7ABB7F0233FA683F
:1034000013441D7ABB7F0333FA6813441B7A07F118
:10341000140000932B462246FFF7C0FEBB7F043307
:10342000BB77FB7F0133FB77FB7F1F2BDCD97A7DDA
:10343000FB681B791344DAB27B681A707B6801332E
:10344000BA7D1A70F97DFB685A797B6802334A406D
:10345000D2B21A707B6803333A7E1A70797EFB68A9
:103460009A797B6804330A44D2B21A707B680533B8
:10347000BA7E1A70F97EFB68DA797B6806334A40B7
:10348000D2B21A707B6807333A7D1A7000BF2037BA
:10349000BD46B0BD80B5ACB000AF786039607B6828
:1034A0001B6C1B0EDBB23B767B681B6C1B0CDBB210
:1034B0007B767B681B6C1B0ADBB2BB767B681B6C64
:1034C000DBB2FB767B685B6C1B0EDBB23B777B6809
:1034D0005B6C1B0CDBB27B777B685B6C1B0ADBB223
:1034E000BB777B685B6CDBB2FB777B689B6C1B0EEE
:1034F000DBB287F820307B689B6C1B0CDBB287F853
:1035000021307B689B6C1B0ADBB287F822307B681A
:103510009B6CDBB287F823307B68DB6C1B0EDBB265
:1035200087F824307B68DB6C1B0CDBB287F8253016
:103530007B68DB6C1B0ADBB287F826307B68DB6CB0
:10354000DBB287F827307B681B681B0EDBB23B744D
:103550007B681B681B0CDBB27B747B681B681B0AD7
:10356000DBB2BB747B681B68DBB2FB747B685B6897
:103570001B0EDBB23B757B685B681B0CDBB27B759B
:103580007B685B681B0ADBB2BB757B685B68DBB280
:10359000FB7507F1180207F1280311461846FFF7DB
:1035A00075FE07F1080207F1100107F1280318461C
:1035B000FFF7E4FE3B7A1B061A467B7A1B04134393
:1035C000BA7A12021343FA7A1A437B681A623B7B77
:1035D0001B061A467B7B1B041343BA7B1202134360
:1035E000FA7B1A437B685A627B6800229A627B6886
:1035F0000022DA6200BFB037BD4680BD80B485B01E
:1036000000AF03460A46FB801346BB80FB88002BB5
:1036100004D1BB88C3F101039BB21AE0BB88002B25
:1036200004D1FB88C3F101039BB212E0FB88BA8886
:1036300002FB03F3BB60BB689AB2BB681B0CD31AD6
:10364000FB60FB68002B02DCFB680133FB60FB685E
:103650009BB218461437BD465DF8047B70470000E6
:1036600080B485B000AF786039600023FB600CE067
:10367000FB685B007A681A44FB685B0039680B449E
:1036800012881A80FB680133FB60FB68072BEFDDB3
:103690005FE0FB6803F00703062B1BD1FA68324B8F
:1036A00013445B003A6813441B885B021AB2F96842
:1036B0002E4B0B445B0039680B441B88DB099BB223
:1036C0001BB2534019B2FB685B003A6813448AB2DC
:1036D0001A803BE0FB6803F00703072B1BD1FA6855
:1036E000234B13445B003A6813441B885B021AB2F5
:1036F000F9681E4B0B445B0039680B441B88DB09DF
:103700009BB21BB2534019B2FB685B003A6813448A
:103710008AB21A801AE0FA68134B13445B003A68C5
:1037200013441B885B021AB2F968124B0B445B000E
:1037300039680B441B88DB099BB21BB2534019B29A
:10374000FB685B003A6813448AB21A80FB68013355
:10375000FB60FB68332B9CDD00BF00BF1437BD4608
:103760005DF8047B704700BFF9FFFF7FF2FFFF7F2A
:10377000F1FFFF7FFAFFFF7F90B589B000AFF860DF
:10378000B9607A60FB681B88BB83FB685B887B83BE
:10379000FB689B883B83FB68DB88FB820123FB8300
:1037A00059E0BB689A1CBA601B88BA8B1146184650
:1037B000FFF724FF0346BB83BB689A1CBA601A88D4
:1037C0007B8B13447B83BB689A1CBA601A883B8B43
:1037D00013443B83BB689A1CBA601B88FA8A114663
:1037E0001846FFF70BFF0346FB82BB689A1CBA60C2
:1037F0001888BA8B3B8B53409BB21946FFF7FEFEED
:103800000346BB82BB689A1CBA6018887A8BFB8A15
:1038100053409AB2BB8A13449BB21946FFF7EEFE9F
:1038200003467B82BA8A7B8A1344BB827A8ABB8B2B
:103830005340BB83BA8AFB8A5340FB82BA8A7B8B94
:103840005340BB827A8A3B8B53407B83BB8A3B834A
:10385000FB8B0133FB83FB8B082BA2D9BB689A1C23
:10386000BA601B88BA8B11461846FFF7C7FE03469D
:103870001A467B681A80BB689A1CBA6019887B68F4
:1038800002333A8B0A4492B21A80BB689A1CBA601F
:1038900019887B6804337A8B0A4492B21A80BB6819
:1038A0009A1CBA601A887B689C1DFB8A19461046D0
:1038B000FFF7A4FE0346238000BF2437BD4690BD1A
:1038C00080B582B000AF786039607B68194638688F
:1038D000FFF7C6FE00BF0837BD4680BD80B584B087
:1038E00000AFF860B9607A60FB687A681946B8681A
:1038F000FFF742FF00BF1037BD4680BD80B5A4B0C2
:1039000000AF786039607B681B681B0C9BB23B8200
:103910007B681B689BB27B827B685B681B0C9BB2DD
:10392000BB827B685B689BB2FB827B681B6C9BB233
:103930003B837B685B6C9BB27B837B689B6C9BB29D
:10394000BB837B68DB6C9BB2FB837B681B6D9BB28C
:103950003B847B685B6D9BB27B847B689B6D9BB279
:10396000BB847B68DB6D9BB2FB8407F1180207F117
:10397000280311461846FFF7A3FF07F1080207F1D5
:10398000100107F128031846FFF7A8FF3B891B0425
:103990001A467B891A437B681A62BB891B041A4644
:1039A000FB891A437B685A627B6800229A627B68B3
:1039B0000022DA6200BF9037BD4680BD80B5B8B046
:1039C00018AF03463960FB710023FB670023BB6718
:1039D00000237B670EE0314A7B6F52F823207B6F18
:1039E00010339B0007F180010B4443F8782C7B6F68
:1039F00001337B677B6F072BEDDD00233B6711E015
:103A0000274AFB6F52F823203B6F04339B0007F1DA
:103A100080010B4443F8782CFB6F0133FB673B6F4D
:103A200001333B673A6F3B689A42E9DB0023FB6650
:103A300010E01C4ABB6F52F82320FB6E9B0007F17D
:103A400080010B4443F8782CBB6F0133BB67FB6EDE
:103A50000133FB66FA6E3B689A42EADBFB6F179311
:103A60003B681693FB791593684607F118035422B7
:103A7000194622F0EBFA07F108030FCBFFF7A6F97E
:103A80000346012B01D1012303E0FB6F0B2BB4DDB7
:103A9000002318468037BD4680BD00BFD01B0024E0
:103AA0008C1200244809002480B590B000AF00F0CB
:103AB000D7F94FF6FF73FB6300BF9C4B1B6803F401
:103AC0000043002B04D0FB6B5A1EFA63002BF4DC7E
:103AD000FB6B002B01DA00F031FA03F0CDFE00F0B1
:103AE00041F9002003F06EF8022003F06BF800208B
:103AF00003F016F98E4B8F4A1A608D4B4FF4E1326A
:103B00005A608B4B00229A60894B0022DA60884B06
:103B100000221A61864B00229A61854B0C225A6161
:103B2000834B00225A62824B00221A62804B002291
:103B3000DA617F4811F02DFC0346002B01D000F024
:103B4000FDF94FF000717A4815F015FA784815F034
:103B500060F94FF0FF3329227749754811F0EDFDE8
:103B6000734815F012F9724B1B689A68704B1B680A
:103B700042F080529A606E4B1B689A686C4B1B68CF
:103B800042F480029A604FF0FF3388226B49684804
:103B900011F0D3FD03226A49654811F0BBFF0020F4
:103BA00003F0E8F8012100200CF0DCFC00BF6048C5
:103BB00013F0A0F90346202BF9D1002003F0B0F850
:103BC0005B4B1B689A685A4B1B6822F480029A6010
:103BD000574B1B689A68564B1B6822F080529A60BC
:103BE000534815F0F4F84FF0FF334322554950483D
:103BF00011F0A3FD4E4815F0C8F84D4B1B681A682C
:103C00004B4B1B6842F000421A60494B1B689A6894
:103C1000474B1B6842F480029A604FF0FF337822D2
:103C20004949434811F089FD0F224549404811F0A8
:103C300071FF012100200CF095FC002003F070F8CA
:103C400000BF3B4813F056F90346202BF9D1384BFF
:103C50001B689A68364B1B6822F480029A60344BCA
:103C60001B681A68324B1B6822F000421A60304809
:103C700015F0ADF84FF0FF333E2234492C4811F0D7
:103C80005CFD4FF0FF3321223149294811F055FDE9
:103C900000237B632AE02F4B1B683B630421002039
:103CA000FFF78CFEF862FB6A002B11D03B1DFA6A0D
:103CB0002949184622F0FCF93B1D1846FCF7D0FCB8
:103CC00003469AB2391D4FF47A73194811F035FD45
:103CD000204B1B68BB62BA6A3B6BD31A7B62BA6B20
:103CE0007B6A1344BB637B6B01337B637B6B632B0E
:103CF000D1DDBB6B194AA2FB03235A093B1D1849AE
:103D0000184622F0D5F90023BB633B1D1846FCF78B
:103D1000A7FC03469AB2391D4FF47A73044811F098
:103D20000CFD4FF47A7003F0E5FEB1E70044025851
:103D3000A01E002400480040F01B00241C1C00248E
:103D4000341F0024A81C0024EC1C0024681D00243F
:103D5000A81D0024041000E0F06A02081F85EB5142
:103D6000FC6A020880B59EB000AF002387F8773068
:103D700004200CF0E3FC00237B60374BDB6A364AFF
:103D800023F00103D362344BDB6A03F001037B6051
:103D9000324B9B69314A43F4404393612F4B9B69FB
:103DA00003F440437B607B6800BF2C4B9B6903F4AA
:103DB0000053B3F5005FF8D10123BB604FF4A0239B
:103DC000FB6000237B6100237B620223FB620223F2
:103DD0003B6304237B634FF4C873BB6300233B65E1
:103DE0000223FB6302237B6404233B640023FB6404
:103DF0000423BB6407F1080318460DF0DDFB0346FE
:103E000087F8773097F87730002B01D000F096F8DC
:103E10003F237B650323BB650023FB6508233B66CB
:103E200040237B664023BB664FF48063FB664023E0
:103E30003B6707F15403042118460DF0CDFF0346FC
:103E400087F8773097F87730002B01D000F076F8BC
:103E500000BF7837BD4680BD0004005800480258B6
:103E600080B485B000AF344B5B6903F40033002BA2
:103E70001BD1BFF34F8F00BFBFF36F8F00BF2E4B1F
:103E80000022C3F85022BFF34F8F00BFBFF36F8FE4
:103E900000BF294B5B69284A43F400335361BFF3E9
:103EA0004F8F00BFBFF36F8F00E000BF224B5B69F5
:103EB00003F48033002B38D11F4B0022C3F8842039
:103EC000BFF34F8F00BF1C4BD3F88030FB60FB6803
:103ED0005B0BC3F30E03BB60FB68DB08C3F3090392
:103EE0007B60BB685A0143F6E07313407A6892071F
:103EF00011491343C1F860327B685A1E7A60002B67
:103F0000EFD1BB685A1EBA60002BE5D1BFF34F8FCB
:103F100000BF094B5B69084A43F480335361BFF328
:103F20004F8F00BFBFF36F8F00E000BF00BF14379B
:103F3000BD465DF8047B704700ED00E080B500AF42
:103F4000022002F0EDFEFEE780B4ADF61C0D00AFDE
:103F50000023C7F80838B42387F80738712387F897
:103F6000063897F8073887F817380023C7F80C3851
:103F700046E097F8172897F80638134087F8163860
:103F800097F8163887F805380123C7F8103811E07C
:103F900097F80528D7F8103842FA03F35AB297F980
:103FA000163853405BB287F81638D7F8103801330B
:103FB000C7F81038D7F81038072BE9DD97F817380D
:103FC00003F00103D9B23A1DD7F8083813440A4662
:103FD0001A7097F817385B08DBB25AB297F81638A0
:103FE000DB015BB213435BB287F81738D7F80C38A4
:103FF0000133C7F80C38D7F808380133C7F8083848
:10400000D7F80C38072BB4DD97F8172897F807383E
:104010009A4201D1002301E097F81738184607F6B5
:104020001C07BD465DF8047B704780B483B000AFC9
:10403000786039603B681A687B681A607B68043373
:104040003A6852681A607B6808333A6892681A6066
:104050007B680C333A68D2681A6000BF0C37BD46E3
:104060005DF8047B704780B483B000AF786039603E
:104070007A683B68C3F1200362FA03F318460C37F1
:10408000BD465DF8047B704780B483B000AF7860B4
:1040900039607A683B6862FA03F318460C37BD460C
:1040A0005DF8047B704790B583B000AF78607B68A3
:1040B00004331A687B681C1D01211046FFF7D3FFEB
:1040C000034623607B6808331A687B6803F10804A1
:1040D00005211046FFF7C7FF034623607B680C33BA
:1040E0001A687B6803F10C0402211046FFF7BBFF3E
:1040F0000346236000BF0C37BD4690BD90B583B02A
:1041000000AF78607B6804331A687B681C1D01214E
:104110001046FFF7B9FF034623607B6808331A682F
:104120007B6803F1080405211046FFF7ADFF034645
:1041300023607B680C331A687B6803F10C0402214E
:104140001046FFF7A1FF0346236000BF0C37BD46B2
:1041500090BD80B485B000AF78607B680C331A687E
:104160007B6808331B681A437B6804331B685A401A
:104170007B680433D2431A607B681A687B68083313
:1041800019687B6804331B680B405A407B681A60CF
:104190007B68DB68FB607B680C337A6812681A60A6
:1041A0007B68FA681A607B68083319687B681A684C
:1041B0007B6804331B685A407B680C331B685A4089
:1041C0007B6808334A401A607B680C331A687B6846
:1041D00008331B681A437B6804331B685A407B68AA
:1041E0000433D2431A607B681A687B680833196805
:1041F0007B6804331B680B405A407B681A6000BF21
:104200001437BD465DF8047B704790B585B000AFAC
:10421000786039603B681A683B6808331B68534014
:10422000FB600821F868FFF72FFF04460821F868B3
:10423000FFF719FF03466340FA685340FB603B6891
:10424000043319683B680433FA684A401A603B68D3
:104250000C3319683B680C33FA684A401A603B68B3
:104260001A687B681B685A403B681A603B680433D5
:1042700019687B6804331A683B6804334A401A6043
:104280003B68083319687B6808331A683B68083351
:104290004A401A603B680C3319687B680C331A6813
:1042A0003B680C334A401A603B6804331A683B6829
:1042B0000C331B685340FB600821F868FFF7E4FEED
:1042C00004460821F868FFF7CEFE03466340FA680B
:1042D0005340FB603B681A68FB685A403B681A60B1
:1042E0003B68083319683B680833FA684A401A602B
:1042F00000BF1437BD4690BD80B584B000AFF860F4
:10430000B9607A603B60BB681A687B685A40BB68DA
:104310001A60B968F868FFF778FFBB681A683B68ED
:104320005A40BB681A60B868FFF7BDFEB868FFF76F
:1043300010FFB868FFF7E2FE00BF1037BD4680BD32
:1043400080B586B000AFF860B9607A60F9687868C7
:10435000FFF76BFE00237B610BE00E4A7B6952F88E
:10436000232000237968B868FFF7C6FF7B69013313
:104370007B617B690F2BF0DD7B681B68D4225A4080
:104380007B681A607968B868FFF73FFF00BF18378D
:10439000BD4680BD7074020880B58CB000AF7860F7
:1043A00039600023FB620CE0FFF7CEFD034619469F
:1043B00007F10C02FB6A13440A461A70FB6A0133C8
:1043C000FB62FB6A0F2BEFDD0023FB622EE0FB6A32
:1043D0009B00033307F13002134413F8243C1A0600
:1043E000FB6A9B00023307F130010B4413F8243CB5
:1043F0001B041A44FB6A9B00013307F130010B4494
:1044000013F8243C1B021344FA6A920007F13001AE
:104410000A4412F8242C1A44FB6A9B0007F130016D
:104420000B4443F8142CFB6A0133FB62FB6A032B39
:10443000CDDD7B6803F140017B6803F1200207F1C9
:104440001C031846FFF77CFF00BF3037BD4680BD18
:104450002DE9B00FC3B000AFC7F8DC00C7F8D81023
:104460001346A7F8D630B7F8D630502B40F0498124
:10447000D7F8D8301B889AB24FF00003C7E9402321
:10448000D7F8D83002331B889AB24FF000034FF0B0
:1044900000044FF0000515040024D7F8D830043389
:1044A0001B889AB24FF000034FF000004FF000015C
:1044B0001100002044EA0003C7F8C83045EA0103B0
:1044C000C7F8CC30D7F8D83006331B889AB24FF0F3
:1044D00000034FEA124B4FEA024AD7E932120B4669
:1044E00043EA0A03C7F8C030134643EA0B03C7F890
:1044F000C430D7F8D83008331B889AB24FF0000385
:10450000D7E9304521461143396629461943796672
:10451000D7E91834C7E93E34D7E940234FF0000407
:104520004FF0000515040024D7E93E234FF00000AA
:104530004FF00001100C40EA0340190C44EA00035C
:10454000C7F8B83045EA0103C7F8BC30D7F8DC300B
:10455000D7E92E12C3E90012012387F8F730CAE029
:10456000D7E94023C7E93823D7E93E234FF00000BD
:104570004FF00001D00840EA4370D9084FF6FF72AF
:104580004FF0000300EA0204BC650B40FB65D7E96D
:104590001634C7E94034D7E93E234FF000044FF00A
:1045A000000555070024D7E938234FF000004FF0ED
:1045B00000015103002044EA0003C7F8B03045EA87
:1045C0000103C7F8B430D7E93E234FF000004FF0A5
:1045D0000001D00C40EA4330D90CD7E92C452346E2
:1045E00003433B652B460B437B65D7E91434C7E98E
:1045F0003E34D7E940234FF000004FF00001100B8C
:1046000040EA0350190B4FF00F024FF0000300EA8D
:104610000204C7F8A8400B40C7F8AC30894BD7F864
:10462000A82013441B78DAB24FF00003C7E93823FF
:10463000D7E9400140F6FF724FF0000300EA0204A0
:10464000C7F8A0400B40C7F8A430D7E938234FF093
:1046500000004FF00001190341EA12511003D7E99D
:10466000284523460343BB642B460B43FB64D7E931
:104670001234C7E9403497F8F7204FF000034FF0A9
:1046800000004FF00001D90341EA5241D003D7E9BD
:104690003E2382EA00043C644B407B64D7E910343B
:1046A000C7E93E34D7E940234FF000044FF000053E
:1046B00015040024D7E93E234FF000004FF000011D
:1046C000100C40EA0340190C97F8F73044EA000256
:1046D000C7F8982045EA0102C7F89C20D7F8DC20EB
:1046E000DB001344D7E92612C3E9001297F8F7302C
:1046F000013387F8F73097F8F7301F2B7FF630AF8C
:1047000069E1D7F8D8301B889AB24FF000034FF018
:1047100000044FF0000515040024D7F8D830023308
:104720001B889AB24FF000034FF000004FF00001D9
:104730001100002044EA0003C7F8903045EA010365
:10474000C7F89430D7F8D83004331B889AB24FF0AA
:1047500000034FEA12494FEA0248D7E924120B46F8
:1047600043EA0803C7F88830134643EA0903C7F849
:104770008C30D7F8D83006331B889AB24FF000033C
:10478000D7E9224521461143B96329461943F96304
:10479000D7E90E34C7E94034D7F8D83008331B883E
:1047A0009AB24FF000034FF000044FF000051504DB
:1047B0000024D7F8D8300A331B889AB24FF0000390
:1047C0004FF000004FF000011100002044EA000308
:1047D000C7F8803045EA0103C7F88430D7F8D830ED
:1047E0000C331B889AB24FF00003110CF9671304C5
:1047F000BB67D7E920452346D7E91E01024613438C
:104800003B672B460A4613437B67D7F8D8300E33F5
:104810001B889AB24FF00003D7E91C45214611438B
:104820003963294619437963D7E90C34C7E93E3423
:10483000D7F8DC10D7E94023C1E900230123C7F8EA
:10484000F030C3E0B4740208D7E94023C7E93A2343
:10485000D7E93A234FF000044FF000055507002434
:10486000D7E93E234FF000004FF00001D00840EAA6
:104870004370D90844EA0003BB6245EA0103FB62C6
:10488000D7E90A34C7E94034D7E93E234FF00004A2
:104890004FF0000555070024D7E93A234FF00000F8
:1048A0004FF00001D00840EA4370D90844EA000301
:1048B0003B6245EA01037B62D7E90834C7E93E342D
:1048C000D7E940234FF000004FF00001180F0021FE
:1048D000444B03441B78DAB24FF00003C7E93A2394
:1048E000D7E93A234FF000004FF0000111070020F4
:1048F000D7E9402342EA0004BC610B43FB61D7E9DE
:104900000634C7E94034D7E940234FF000004FF0A8
:104910000001180E00214FF00F024FF0000300EAD3
:104920000204BC660B40FB662E4BBA6E13441B7828
:10493000DAB24FF00003C7E93A23D7E93A234FF040
:1049400000004FF0000111060020D7E9402342EAA1
:1049500000043C610B437B61D7E90434C7E9403470
:10496000D7F8F0309B1018464FEAE071D7E94023A2
:1049700082EA0004BC604B40FB60D7E90234C7E91F
:104980004034D7F8F0301A464FEAE2734FF0000097
:104990004FF0000191070020D7E93E2382EA00048E
:1049A0003C604B407B60D7E90034C7E93E34D7F820
:1049B000DC20D7F8F030DB00D118D7E94023C1E97B
:1049C0000023D7F8F0300133C7F8F030D7F8F030D3
:1049D0001F2B7FF739AF00BF07F58677BD46BDE8CF
:1049E000B00F7047B47402082DE9B00FA7B000AF44
:1049F000F866B9667A66BB6E1B889AB24FF0000300
:104A00004FF000044FF0000515040024BB6E023384
:104A10001B889AB24FF000034FF000004FF00001E6
:104A20001100002044EA000A45EA010BBB6E043382
:104A30001B889AB24FF000034FEA12494FEA02482E
:104A40004AEA0803BB634BEA0903FB63BB6E063308
:104A50001B889AB24FF00003D7E90E452146114357
:104A6000B96229461943F962D7E90A34C7E9223401
:104A7000002387F896300FE197F89630FA6EDB0046
:104A80001344D3E90001D7E9222382EA00043C62FF
:104A90004B407B62D7E90834C7E922344FF000026B
:104AA0004FF00003C7E92023002387F897307AE00E
:104AB00097F89730C3F10703DC00D7E92223C4F14C
:104AC0002001A4F1200022FA04F5BD6503FA01F1EA
:104AD000BD6D0D43BD6523FA00F0B96D0143B965A5
:104AE000E340FB6597F8583087F87E3097F87E30C2
:104AF0001B09DBB203F00F028B4B9B5C87F87D3008
:104B000097F87E3003F00F02874B9B5C87F87C3070
:104B10004FF000024FF00003C7E91C2397F87D30E7
:104B20001A0197F87C30134318464FEAE071D7E931
:104B30001C2342EA0004BC610B43FB61D7E9063445
:104B4000C7E91C3497F89730C3F10703DC00D7E9B5
:104B50001C23A4F12001C4F1200003FA04F57D64B4
:104B600002FA01F17D6C0D437D6422FA00F0796C4C
:104B70000143796402FA04F33B64D7E91034C7E9CE
:104B80001C34D7E92001D7E91C2340EA02043C6128
:104B90000B437B61D7E90434C7E9203497F8973099
:104BA000013387F8973097F89730072B80D9D7E9EA
:104BB0002023C7E922234FF000024FF00003C7E98A
:104BC0002023002387F8973059E097F89730C3F1F6
:104BD0003F0387F87F3097F87F40D7E92223C4F15D
:104BE0002001A4F1200022FA04F53D6503FA01F149
:104BF0003D6D0D433D6523FA00F0396D0143396584
:104C0000E3407B654FF001024FF00003D7E9144504
:104C100021461140396329460B407B6397F8972062
:104C2000424B9B5CC3F13F01A1F12003C1F1200283
:104C3000D7E90C4528468840F864204600FA03F37B
:104C4000F86C1843F864234623FA02F2FB6C134312
:104C5000FB6423468B40BB64D7E92023D7E9124588
:104C600021461143B96029460B43FB60D7E9023462
:104C7000C7E9203497F89730013387F8973097F8D1
:104C800097303F2BA1D9D7E92023C7E9222397F8F2
:104C90009630013387F8963097F896301E2B7FF6C2
:104CA000EBAE97F89630FA6EDB001344D3E900239D
:104CB000D7E9220180EA02043C604B407B60D7E9DF
:104CC0000034C7E92234D7E922014FF000024FF047
:104CD00000030A0C002392B27B6E1A80D7E92201EE
:104CE0004FF000024FF000030A000023796E0231FA
:104CF00093B20B80D7E922014FF000024FF000037E
:104D0000020C42EA01420B0C796E043193B20B8023
:104D10007B6E0633B7F888201A8000BF9C37BD46EB
:104D2000BDE8B00F704700BFB4740208D474020825
:104D300080B5CAB000AF3B1D18603B4619603B1DF3
:104D40001B681B681B0C9AB207F110031A803B1DED
:104D50001B681B689AB207F110035A803B1D1B6841
:104D60005B681B0C9AB207F110039A803B1D1B680D
:104D70005B689AB207F11003DA803B1D1B681B6C5D
:104D80001B0C9AB207F118031A803B1D1B681B6CA1
:104D90009AB207F118035A803B1D1B685B6C1B0C11
:104DA0009AB207F118039A803B1D1B685B6C9AB29C
:104DB00007F11803DA803B1D1B689B6C1B0C9AB231
:104DC00007F118031A813B1D1B689B6C9AB207F10F
:104DD00018035A813B1D1B68DB6C1B0C9AB207F150
:104DE00018039A813B1D1B68DB6C9AB207F118030C
:104DF000DA813B461B689AB207F1180107F12803D4
:104E00001846FFF725FB07F1080207F1100107F12B
:104E100028031846FFF7E8FD07F108031B881B0469
:104E20001A4607F108035B881A433B1D1B681A6288
:104E300007F108039B881B041A4607F10803DB8867
:104E40001A433B1D1B685A623B1D1B6800229A6275
:104E50003B1D1B680022DA6200BF07F59477BD4650
:104E600080BD000080B483B000AF78607B68DBB2A7
:104E70000E4A52F823207B681B0ADBB20C4951F81A
:104E800023305A407B681B0CDBB20A4951F82330AF
:104E90005A407B681B0E084951F82330534018468E
:104EA0000C37BD465DF8047B704700BF547502089F
:104EB00054790208547D02085481020880B584B0F8
:104EC00000AFF860B9607A603B60FA687B685A406E
:104ED000B9683B684B405A40FB691A60FB691B6824
:104EE0001846FFF7BFFF0246FB691A60FB691A68A4
:104EF000F9687B684B401A44BB691A60BB691B6840
:104F00001846FFF7AFFF0246BB691A60FB691A68D3
:104F1000BB691B681A44FB691A60FB691B68184669
:104F2000FFF7A0FF0246FB691A60BB691A68FB69BC
:104F30001B681A44BB691A6000BF1037BD4680BDAC
:104F400090B589B000AF786039603B681B68BB6082
:104F50003B685B68FB603B689B683B613B68DB6868
:104F60007B610023FB615CE0BA683B691A4431490C
:104F7000FB6951F82330D21AFB695C001046FFF739
:104F800071FF02467B6843F82420FA687B69D21AD5
:104F90002849FB6951F823301A44FB695B005C1C0B
:104FA0001046FFF75FFF02467B6843F82420FB6949
:104FB00003F00103002B17D03B6804331B681A0A67
:104FC0003B681B681B061343BB613B681B681A0ADE
:104FD0003B6804331B681B061A433B681A603B6836
:104FE0000433BA691A6019E03B680C331B681A0A6B
:104FF0003B6808331B681B061343BB613B680833DF
:105000001B68190A3B680C331B681A063B68083397
:105010000A431A603B680C33BA691A60FB690133B2
:10502000FB61FB690F2B9FDD00BF00BF2437BD462E
:1050300090BD00BF1475020880B58EB002AFF86055
:10504000B9607A600023BB62BB681B687B62BB6887
:105050005B683B62BB689B68FB61BB68DB68BB61EC
:105060000023FB622AE0FB68BA6A53F82210BB6A8D
:105070005A1CFB6853F8222007F11003019307F133
:105080001403009313460A46B969F869FFF716FF3F
:105090007A697B6A53407B613A693B6A53403B6162
:1050A000FB697B62BB693B627B69FB613B69BB61FE
:1050B000BB6A0233BB62FB6A0133FB62FB6A0E2BE5
:1050C000D1DDFB68BA6A53F82210BB6A5A1CFB6830
:1050D00053F8222007F11003019307F11403009302
:1050E00013460A46B969F869FFF7E8FE7B697A6AF0
:1050F00053407B623B693A6A53403B627B687A6A01
:105100001A607B6804333A6A1A607B680833FA696C
:105110001A607B680C33BA691A6000BF3037BD462D
:1051200080BD80B5A2B000AF786039607B6803F1C4
:10513000400207F1080311461846FFF701FF79689E
:105140007B6803F1200207F108031846FFF774FF9C
:1051500000BF8837BD4680BD2DE9F00F84B000AF99
:10516000C7E902017A60D7E902237968A1F1200634
:10517000C1F1200003FA01F902FA06F649EA06092C
:1051800022FA00F049EA000902FA01F87968494276
:1051900001F03F01C1F12006A1F1200022FA01F443
:1051A00003FA06F6344323FA00F0044323FA01F528
:1051B00048EA040A49EA050B54465D4622462B4656
:1051C000104619461037BD46BDE8F00F70472DE96F
:1051D000F00F84B000AFC7E902017A60D7E902237B
:1051E0007968C1F12006A1F1200022FA01F803FA42
:1051F00006F648EA060823FA00F048EA000823FA0F
:1052000001F97968494201F03F01A1F12006C1F19D
:10521000200003FA01F502FA06F6354322FA00F0FF
:10522000054302FA01F448EA040A49EA050B544628
:105230005D4622462B46104619461037BD46BDE84E
:10524000F00F70472DE9B04F82B000AFC7E9000101
:105250000122D7E90001FFF77FFF80468946082237
:10526000D7E90001FFF778FF02460B4608EA02047F
:1052700009EA03050222D7E90001FFF76DFF0246A4
:105280000B4684EA020A85EA030B52465B46104647
:1052900019460837BD46BDE8B08F2DE9F04F87B0FD
:1052A00000AF78613961C7E902237B69D3E9002344
:1052B00010461946FFF7C6FF3B69D3E9002380EA91
:1052C00002063E604B407B603B69D7E90012C3E9B0
:1052D00000123B69D3E90001D7E9022380EA020A00
:1052E00081EA030B3B69C3E900AB3B69D3E90023C7
:1052F00010461946FFF7A6FF7B69D3E9002380EA31
:10530000020881EA03097B69C3E900897B69D3E963
:105310000001D7E9102380EA020481EA03057B69D2
:10532000C3E9004500BF1C37BD46BDE8F08F000053
:105330002DE9F04FADF5097D00AFC7F80402C7F8BD
:1053400000121346A7F8FE316FF003024FF0FF334F
:10535000C7E98223B7F8FE31802B40F02F81D7F8C0
:105360000422442313700FF6D013D3E90023C7E9B6
:105370008623D7F80032D3E90201D7F80432C3E913
:105380000201D7F80032D3E90001D7F80432C3E9AB
:1053900004014FF002024FF00003C7E984239AE0B2
:1053A000D7E986014FF001024FF0000300EA020640
:1053B000C7F8F0610B40C7F8F431D7E98223D7F87A
:1053C000F0115140C7F8E811D7F8F4114B40C7F875
:1053D000EC31D7E98423911EC7F8D01143F1FF3394
:1053E000C7F8D431D7F80422D7F8D0310133DB0025
:1053F0001344D3E90023D7F8E8115140C7F8E0116E
:10540000D7F8EC114B40C7F8E431D7E9842312F107
:10541000FF31C7F8C81143F1FF33C7F8CC31D7F8D3
:105420000422D7F8C8310133DB001344D3E900016B
:105430000322FFF7CCFE02460B46D7F8E01151409D
:10544000C7F8D811D7F8E4114B40C7F8DC31D7E9D9
:10545000842312F1FF31C7F8C01143F1FF33C7F8BD
:10546000C431D7F80422D7F8C0310133DB0013442C
:10547000D3E900010422FFF7AAFE02460B46D7F843
:10548000D8115140C7F8B811D7F8DC114B40C7F814
:10549000BC31D7F80422D7F810320133DB001344B3
:1054A000D7E96E12C3E90012D7E986234FF0000056
:1054B0004FF00001500840EAC3705908C7E986015F
:1054C000D7E98423511C396143F100037B61D7E99B
:1054D0000423C7E98423D7E98423002B08BF422A89
:1054E000FFF45EAFD7F80432D3E98201D7E9822313
:1054F00080EA020481EA0305D7F80432D3E9840183
:105500000322FFF764FE02460B4684EA0201C7F855
:10551000B0116B40C7F8B431D7F80432D3E9840135
:105520000422FFF754FE02460B46D7E96C4521469C
:105530005140C7F8A81129465940C7F8AC11D7E91E
:105540006A120B4683F00103C7F8A0311346C7F86F
:10555000A431D7F80432D7E96812C3E98612D7F824
:105560000432D3E98401D7E9822380EA020A81EA7E
:10557000030BD7F80432D3E986010322FFF727FE95
:1055800002460B468AEA02088BEA0309D7F804327E
:10559000D3E986010422FFF71AFE02460B4688EA89
:1055A0000201C7F8981189EA0303C7F89C31D7F8BC
:1055B0000432D7E96612C3E98812B4E3B7F8FE31C2
:1055C000C02B40F04881D7F80422452313700FF216
:1055D0007073D3E90023C7E98623D7F80032D3E9F3
:1055E0000401D7F80432C3E90201D7F80032D3E945
:1055F0000201D7F80432C3E90401D7F80032D3E935
:105600000001D7F80432C3E906014FF003024FF05E
:105610000003C7E984239AE0D7E986014FF001022D
:105620004FF0000300EA0204C7F890410B40C7F8AE
:105630009431D7E98223D7E9644521465140C7F820
:10564000881129464B40C7F88C31D7E98423D11EF5
:10565000C7F8801143F1FF33C7F88431D7F804222B
:10566000D7F880310133DB001344D3E90023D7E9B5
:10567000624521465140C7F8781129464B40C7F88A
:105680007C31D7E9842312F1FF31C7F8701143F15F
:10569000FF33C7F87431D7F80422D7F870310133DB
:1056A000DB001344D3E900010322FFF790FD02461B
:1056B0000B46D7E95E4521465140C7F86811294697
:1056C0004B40C7F86C31D7E9842312F1FF31C7F89A
:1056D000601143F1FF33C7F86431D7F80422D7F8DB
:1056E00060310133DB001344D3E900010422FFF7EA
:1056F0006EFD02460B46D7E95A4521465140C7F890
:10570000581129464B40C7F85C31D7F80422D7F826
:1057100010320133DB001344D7E95612C3E90012FB
:10572000D7E986234FF000004FF00001500840EA0F
:10573000C3705908C7E98601D7E98423511CB960B1
:1057400043F10003FB60D7E90234C7E98434D7E9A9
:105750008423002B08BF432AFFF45EAFD7F804323E
:10576000D3E98201D7E9822380EA0204C7F85041D5
:105770004B40C7F85431D7F80432D3E986010322ED
:10578000FFF725FD02460B46D7E954452146514017
:10579000C7F8481129465940C7F84C11D7F80432C8
:1057A000D3E986010422FFF712FD02460B46D7E932
:1057B000524521465140C7F8401129465940C7F883
:1057C0004411D7F80432D7E95012C3E98812D7F848
:1057D0000432D3E98401D7E9822380EA0204C7F8BE
:1057E00038414B40C7F83C31D7F80432D3E988013F
:1057F0000322FFF7ECFC02460B46D7E94E45214653
:105800005140C7F8301129465940C7F83411D7F82C
:105810000432D3E988010422FFF7D9FC02460B4683
:10582000D7E94C4521465140C7F82811294659402F
:10583000C7F82C11D7E94A120B4683F00103C7F8C9
:1058400020311346C7F82431D7F80432D7E948127B
:10585000C3E98A1267E2D7F80422482313700FF2D3
:10586000E843D3E90023C7E98623D7F80032D3E918
:105870000601D7F80432C3E90201D7F80032D3E9B0
:105880000401D7F80432C3E90401D7F80032D3E9A0
:105890000201D7F80432C3E90601D7F80032D3E990
:1058A0000001D7F80432C3E908014FF004024FF0B9
:1058B0000003C7E98423D7E0D7E986014FF001024E
:1058C0004FF0000300EA0204C7F818410B40C7F884
:1058D0001C31D7E98223D7E9464521465140C7F814
:1058E000101129464B40C7F81431D7E98423111F02
:1058F000C7F8081143F1FF33C7F80C31D7F8042279
:10590000D7F808310133DB001344D3E90023D7E98A
:10591000444521465140C7F8001129464B40C7F87D
:105920000431D7E9842312F1FF31C7F8F81043F1AD
:10593000FF33C7F8FC30D7F80422D7F8F83001332A
:10594000DB001344D3E900010322FFF740FC0246C9
:105950000B46D7E9404521465140C7F8F01029468B
:105960004B40C7F8F430D7E98423D11EC7F8E810BC
:1059700043F1FF33C7F8EC30D7F80422D7F8E8300A
:105980000133DB001344D3E90023D7E93C4521462A
:105990005140C7F8E01029464B40C7F8E430D7E93A
:1059A000842312F1FF31C7F8D81043F1FF33C7F851
:1059B000DC30D7F80422D7F8D8300133DB001344A9
:1059C000D3E900010422FFF702FC02460B46D7E9A7
:1059D000384521465140C7F8D01029464B40C7F8FA
:1059E000D430D7E98423D11EC7F8C81043F1FF3360
:1059F000C7F8CC30D7F80422D7F8C8300133DB0021
:105A00001344D3E900010122FFF7E1FB02460B46F4
:105A1000D7E9344521465140C7F8C01029464B40CC
:105A2000C7F8C430D7F80422D7F810320133DB00AE
:105A30001344D7E93012C3E90012D7E986234FF0A7
:105A400000004FF00001500840EAC3705908C7E950
:105A50008601D7E98423511C396043F100037B6040
:105A6000D7E90034C7E98434D7E98423002B08BF81
:105A7000442AFFF421AFD7F80432D3E98201D7E9F1
:105A8000822380EA0204C7F8B8404B40C7F8BC3014
:105A9000D7F80432D3E988010322FFF798FB0246C6
:105AA0000B46D7E92E4521465140C7F8B01029468C
:105AB0005940C7F8B410D7F80432D3E98423D7E9A2
:105AC0002C4521465140C7F8A81029465940C7F82F
:105AD000AC10D7F80432D3E988010422FFF777FB32
