:020000040800F2
:1000000000800020B1020008C10A0008CB0A0008E5
:1000100000000000000000000000000000000000E0
:10002000000000000000000000000000D10A0008ED
:100030000000000000000000DB0A0008E50A0008DC
:100040000103000801030008010300080103000880
:100050000103000801030008010300080D0B00085C
:100060000103000801030008010300080103000860
:100070000103000801030008010300080103000850
:100080000103000801030008010300080103000840
:100090000103000801030008010300080103000830
:1000A000010300080103000801030008F50A000825
:0C00B00001030008010300080103000820
:1000BC0010B5064C2378002B07D1054B002B02D032
:1000CC00044800E000BF0123237010BD480100204C
:1000DC0000000000F4880008044B10B5002B03D07E
:1000EC000349044800E000BF10BDC04600000000FA
:1000FC004C010020F4880008402292029A1A924681
:10010C007047C046174B002B00D1134B9D46FFF791
:10011C00F3FF00218B460F461348144A121A08F0BD
:10012C00DBFB0E4B002B00D098470D4B002B00D067
:10013C0098470020002104000D000D48002802D033
:10014C000C4800E000BF08F0A3FB2000290000F0E1
:10015C00D3F808F087FBC046000008000000000040
:10016C0000000000000000004801002048020020B0
:10017C000000000000000000C489000800000020FE
:10018C0048010020480100204802002000224308BA
:10019C008B4274D303098B425FD3030A8B4244D343
:1001AC00030B8B4228D3030C8B420DD3FF22090285
:1001BC0012BA030C8B4202D31212090265D0030B44
:1001CC008B4219D300E0090AC30B8B4201D3CB033A
:1001DC00C01A5241830B8B4201D38B03C01A52417C
:1001EC00430B8B4201D34B03C01A5241030B8B427E
:1001FC0001D30B03C01A5241C30A8B4201D3CB0269
:10020C00C01A5241830A8B4201D38B02C01A52414D
:10021C00430A8B4201D34B02C01A5241030A8B4250
:10022C0001D30B02C01A5241CDD2C3098B4201D368
:10023C00CB01C01A524183098B4201D38B01C01AE6
:10024C00524143098B4201D34B01C01A524103095D
:10025C008B4201D30B01C01A5241C3088B4201D30C
:10026C00CB00C01A524183088B4201D38B00C01AB9
:10027C00524143088B4201D34B00C01A5241411AE0
:10028C0000D20146524110467047FFE701B50020ED
:10029C0000F006F802BDC0460029F7D076E770479B
:1002AC007047C0460D488546002103E00C4B5B5857
:1002BC00435004310B480C4B42189A42F6D30B4A6C
:1002CC0002E0002313600432094B9A42F9D300F088
:1002DC0021FC08F0DDFA00F00FF8FEE700800020AA
:1002EC00C4890008000000204801002048010020BB
:1002FC0048020020FEE7000080B500AF01F03AF89C
:10030C00002000F0D9FC00F0F9F86E4B6E4A1A6030
:10031C006C4B180002F0CCFA6A4B962292015A6090
:10032C00684B00229A60674B0022DA60654B002212
:10033C001A61644B00229A61624B0C225A61614B28
:10034C0000225A625F4B180002F012F9031E01D012
:10035C0000F04FF90121002000F04EFD05E00020D7
:10036C0000F034FD642001F0DDF8584B1B68002BC5
:10037C00F5D0002000F0FEFC554B564951480122A7
:10038C0002F0E0FA031E01D000F033F9524B53494E
:10039C004C48172202F080FB031E01D000F029F913
:1003AC00002000F0FDFC4D494D4B1722180000F0C9
:1003BC00FDF8031E01D000F01CF9FA23DB00180035
:1003CC0001F0B0F8002000F0D5FC414B45493D4808
:1003DC00012202F0B7FA031E01D000F00AF93E4BDD
:1003EC003E493848262202F057FB031E01D000F08C
:1003FC0000F9002000F0D4FC38493B4B26221800B1
:10040C0000F0D4F8031E01D000F0F3F8FA23DB005F
:10041C00180001F087F8002000F0ACFC2C4B33499D
:10042C002848012202F08EFA031E01D000F0E1F8F8
:10043C00294B2A492348262202F02EFB031E01D009
:10044C0000F0D7F8002000F0ABFC2449284B262202
:10045C00180000F0ABF8031E01D000F0CAF8FA2324
:10046C00DB00180001F05EF8002000F083FC184B54
:10047C0020491448012202F065FA031E01D000F055
:10048C00B8F8154B15490F48262202F005FB031E40
:10049C0001D000F0AEF8002000F082FC0F49164BA2
:1004AC002622180000F082F8031E01D000F0A1F8FB
:1004BC00FA23DB00180001F035F8002000F05AFC9C
:1004CC00FEE7C0466401002000380140F001002026
:1004DC0088130000BC00002010270000F40100204D
:1004EC0004000020C00000201C000020C4000020DC
:1004FC0044000020C80000206C00002080B592B0A1
:10050C0000AF3B1D20221A603B1D01221A623B1DCD
:10051C0002225A623B1DC02252029A623B1D0122EA
:10052C001A633B1D0022DA623B1D180006F07CFFAB
:10053C00031E01D000F05DF838217B1807221A60E9
:10054C007B1802225A607B1800229A607B180022CA
:10055C00DA607B180121180007F0ECFA031E01D0B9
:10056C0000F047F8C046BD4612B080BD80B582B0E1
:10057C0000AF786000F03DF8C046BD4602B080BDCB
:10058C0080B582B000AF0200BB1D1A80BB1D1A885B
:10059C0080239B019A4202D1034B01221A60C04670
:1005AC00BD4602B080BDC046F001002080B584B0CD
:1005BC0000AFF860B960BB1D1A800EE0FB681A78BA
:1005CC00BB681B789A4202D0BB1D1B880DE0FB68F0
:1005DC000133FB60BB680133BB60BB1D1B88BA1DBC
:1005EC00591E1180002BE9D100231800BD4604B020
:1005FC0080BD80B500AF002000F0BCFB96235B00F3
:10060C00180000F08FFF002000F0CAFB96235B005F
:10061C00180000F087FF002000F0ACFB96235B0075
:10062C00180000F07FFF002000F0BAFB96235B005F
:10063C00180000F077FF002000F09CFB96235B0075
:10064C00180000F06FFF002000F0AAFB96235B005F
:10065C00180000F067FF002000F08CFBAF239B001C
:10066C00180000F05FFF002000F09AFBAF239B0006
:10067C00180000F057FF002000F07CFBAF239B001C
:10068C00180000F04FFF002000F08AFBAF239B0006
:10069C00180000F047FF002000F06CFBAF239B001C
:1006AC00180000F03FFF002000F07AFBAF239B0006
:1006BC00180000F037FF002000F05CFB96235B0075
:1006CC00180000F02FFF002000F06AFB96235B005F
:1006DC00180000F027FF002000F04CFB96235B0075
:1006EC00180000F01FFF002000F05AFB96235B005F
:1006FC00180000F017FF002000F03CFB96235B0075
:10070C00180000F00FFF002000F04AFBC8239B00EC
:10071C00180000F007FF6EE780B500AFC046BD467D
:10072C0080BD80B500AF01231800BD4680BD80B5EB
:10073C0082B000AF7860396008F08EF803001622A2
:10074C001A6001235B421800BD4602B080BD80B523
:10075C0082B000AF786001235A427B681100180008
:10076C00FFF7E5FFFEE780B586B000AFF860B96033
:10077C007A6000237B610AE000E000BF0100BB68E7
:10078C005A1CBA60CAB21A707B6901337B617A69F0
:10079C007B689A42F0DB7B681800BD4606B080BDD2
:1007AC0080B586B000AFF860B9607A6000237B61D9
:1007BC0009E0BB685A1CBA601B78180000E000BF47
:1007CC007B6901337B617A697B689A42F1DB7B68D8
:1007DC001800BD4606B080BD80B582B000AF786011
:1007EC0001235B421800BD4602B080BD80B582B0CB
:1007FC0000AF786039603B68802292015A60002318
:10080C001800BD4602B080BD80B582B000AF7860E4
:10081C0001231800BD4602B080BD80B584B000AF86
:10082C00F860B9607A6000231800BD4604B080BD42
:10083C000EB480B583B000AF786001235B42180022
:10084C00BD4603B080BC08BC03B0184780B582B06D
:10085C0000AF786008F000F803000A221A60012348
:10086C005B421800BD4602B080BD80B582B000AFBF
:10087C00786007F0F1FF030002221A6001235B424B
:10088C001800BD4602B080BD80B582B000AF786064
:10089C0001235B421800BD4602B080BD80B582B01A
:1008AC0000AF786039603B68802292015A60002367
:1008BC001800BD4602B080BD80B582B000AF786034
:1008CC00396007F0C9FF03001F221A6001235B4245
:1008DC001800BD4602B080BD80B500AF07F0BCFF6C
:1008EC0003000B221A6001235B421800BD4680BD39
:1008FC0080B584B000AFF860B9607A6007F0ACFFE7
:10090C0003000C221A6001235B421800BD4604B0A0
:10091C0080BD000090B58BB000AF78602E4B5A694B
:10092C002D4B802189020A435A612B4B5A69802333
:10093C009B0213403B613B69274B5A69264B802134
:10094C0089020A435A61244B5A6980239B02134043
:10095C00FB60FB68204B9A691F4B8021C9010A433D
:10096C009A611D4B9A698023DB011340BB60BB6805
:10097C0014217B18802292001A600C003B19022271
:10098C005A603B1901229A603B190322DA603B1929
:10099C0001221A613A199023DB051100180004F0AA
:1009AC007DFA21007B188022D2001A607B1801226C
:1009BC001A617A189023DB051100180004F06EFA06
:1009CC00012200211B2000F027FC1B2000F039FC29
:1009DC00C046BD460BB090BD0010024080B582B041
:1009EC0000AF7860104BDA680F4B8021C9010A43C5
:1009FC00DA600D4BDA680C4B0C490A40DA60802344
:100A0C009A009023DB051100180004F0BFFB802333
:100A1C00DA009023DB051100180004F0B7FBC04688
:100A2C00BD4602B080BDC04600100240FFBFFFFFB4
:100A3C0080B582B000AF7860002000F09BF9C04612
:100A4C00BD4602B080BD000080B586B000AF7860B6
:100A5C00144A154BD31A7B617B693B61134B1B68A2
:100A6C00002B02D1114B124A1A60104B1A687B688A
:100A7C00D3183A699A4207D207F0EEFE03000C2213
:100A8C001A6001235B4209E0084B1B68FB60074BB3
:100A9C001A687B68D218054B1A60FB681800BD46B3
:100AAC0006B080BD00800020000400002002002061
:100ABC004802002080B500AFC046BD4680BD80B561
:100ACC0000AFFEE780B500AFC046BD4680BD80B527
:100ADC0000AFC046BD4680BD80B500AF00F0BCFC89
:100AEC00C046BD4680BD000080B500AF034B18006A
:100AFC0002F056FEC046BD4680BDC04664010020D3
:100B0C0080B500AF80239B01180004F095FCC04613
:100B1C00BD4680BD80B500AF1A4B1A68194B012138
:100B2C000A431A60174B5A68164B17490A405A6009
:100B3C00144B1A68134B15490A401A60114B1A686A
:100B4C00104B13490A401A600E4B5A680D4B114951
:100B5C000A405A600B4BDA6A0A4B0F218A43DA625D
:100B6C00084B1A6B074B0C490A401A63054B5A6B1E
:100B7C00044B01218A435A63024B00229A60C046FF
:100B8C00BD4680BD001002400CB8FF08FFFFF6FE0A
:100B9C00FFFFFBFFFFFFC0FFACFEF0FF80B584B092
:100BAC0000AF0023FB600023BB6000237B600023AD
:100BBC003B60384B5B680C221340FB60FB68082BD6
:100BCC0011D0FB68082B4FD8FB68002B03D0FB68B7
:100BDC00042B04D048E0304B304A1A6048E02E4BCE
:100BEC002E4A1A6044E02B4B5A68F0239B031340A7
:100BFC00BB60284B5A68C0235B0213407B60BB6808
:100C0C009B0C0233BB60234BDB6A0F221340013376
:100C1C003B607A6880235B029A420AD139681F488C
:100C2C00FFF7B4FA03001A00BB685A431A4B1A6058
:100C3C001EE07A68C0235B029A420AD139681848D0
:100C4C00FFF7A4FA03001A00BB685A43124B1A6050
:100C5C000EE039681148FFF799FA03001A00BB68D7
:100C6C005A430D4B1A6003E00B4B0C4A1A60C046FA
:100C7C00084B5B681B090F2213400A4AD35CFB60CC
:100C8C00054B1A68FB68DA40034B1A60C046BD4638
:100C9C0004B080BD00100240D000002000127A0089
:100CAC00006CDC027889000880B500AF014B18009D
:100CBC00BD4680BD0006010180B588B000AF0200C2
:100CCC00FB1D1A70FB1D1B78002B0DD1144B5A69A0
:100CDC00134B802189020A435A61114B5A698023B4
:100CEC009B021340BB60BB6820231A000C217B18AD
:100CFC001A607B1801225A607B1800229A607B18BC
:100D0C000322DA60FB1D1A78064B9200D3587A182E
:100D1C001100180004F0C2F8C046BD4608B080BDF2
:100D2C0000100240D400002080B588B000AF020053
:100D3C00FB1D1A70FB1D1A780D4B9200D358202105
:100D4C000022180004F017FB20231A000C217B183A
:100D5C001A60FB1D1A78064B9200D2587B181B6840
:100D6C001900100004F012FAC046BD4608B080BD50
:100D7C00D400002080B582B000AF0200FB1D1A70B9
:100D8C00FB1D1A78054B9200D35820210122180024
:100D9C0004F0F1FAC046BD4602B080BDD40000207C
:100DAC0080B582B000AF0200FB1D1A70FB1D1A78D3
:100DBC00054B9200D35820210022180004F0DBFAD6
:100DCC00C046BD4602B080BDD400002080B582B0C4
:100DDC0000AF0200FB1D1A70FB1D1A78054B920028
:100DEC00D35820221100180004F0E2FAC046BD4688
:100DFC0002B080BDD400002080B588B000AF0200E6
:100E0C00FB1D1A70BB1D0A1C1A70FB1D1B78002BD6
:100E1C000DD1264B5A69254B802109030A435A618F
:100E2C00224B5A6980231B031340BB60BB68802391
:100E3C009B011A000C217B181A607B1800229A6007
:100E4C007B180322DA60BB1D1B78002B0CD17B189E
:100E5C0000225A60FB1D1A78154B9200D3587A1851
:100E6C001100180004F01AF8BB1D1B78012B19D1C6
:100E7C000C217B180F4A5A60FB1D1A780C4B920000
:100E8C00D3587A181100180004F008F807235BB245
:100E9C0000220321180000F0BFF907235BB21800F1
:100EAC0000F0CFF9C046BD4608B080BD001002402E
:100EBC00D80000200000211090B589B000AF0200CE
:100ECC00FB1D1A7080239B011A000C243B191A601D
:100EDC0007235BB2180000F0C4F9FB1D1A78064B0F
:100EEC009200D2583B191B681900100004F04EF9FF
:100EFC00C046BD4609B090BDD800002080B582B078
:100F0C0000AF0200FB1D1A70FB1D1A78064B9200F5
:100F1C00D358802292011100180004F00FFA03003C
:100F2C001800BD4602B080BDD800002080B582B04C
:100F3C0000AF0200FB1D1A70FB1D1B787F2B09D81C
:100F4C00FB1D1B781A001F231A40044B01219140F2
:100F5C000A001A60C046BD4602B080BD00E100E048
:100F6C0080B582B000AF0200FB1D1A70FB1D1B7810
:100F7C007F2B10D8FB1D1B781A001F231340084928
:100F8C0001229A40130080228B50BFF34F8FC04632
:100F9C00BFF36F8FC046C046BD4602B080BDC04691
:100FAC0000E100E080B582B000AF0200FB1D1A70BA
:100FBC00FB1D1B787F2B0DD8094A80235B00D25870
:100FCC00FB1D1B7819001F230B40DA401300012274
:100FDC00134000E000231800BD4602B080BDC0469F
:100FEC0000E100E080B582B000AF0200FB1D1A707A
:100FFC00FB1D1B787F2B0AD8FB1D1B781A001F23A7
:10100C001340054901229A4080235B00CA50C04618
:10101C00BD4602B080BDC04600E100E080B582B0A4
:10102C0000AF0200FB1D1A70FB1D1B787F2B0AD82A
:10103C00FB1D1B781A001F231340054901229A40FF
:10104C00C0235B00CA50C046BD4602B080BDC0463E
:10105C0000E100E090B583B000AF02003960FB1DE9
:10106C001A70FB1D1B787F2B28D82F4AFB1D1B7871
:10107C005BB29B08C0339B009B58FA1D1278110081
:10108C0003220A40D200FF2191400A00D2431A40A9
:10109C0011003B689B01FF221A40FB1D1B781800B6
:1010AC0003230340DB009A401F48FB1D1B785BB2F7
:1010BC009B080A43C0339B001A5031E01B4AFB1DAE
:1010CC001B7819000F230B40083B9B0806339B0031
:1010DC00D31804331B68FA1D1278110003220A403E
:1010EC00D200FF2191400A00D2431A4011003B6804
:1010FC009B01FF221A40FB1D1B78180003230340A1
:10110C00DB009A400948FB1D1B781C000F23234071
:10111C00083B9B080A4306339B00C31804331A6030
:10112C00C046BD4603B090BD00E100E000ED00E01C
:10113C0080B582B000AF0200FB1D1A70FB1D1B783E
:10114C007F2B13D8174AFB1D1B785BB29B08C0334F
:10115C009B009A58FB1D1B78190003230B40DB00E6
:10116C00DA4013009B090322134017E00E4AFB1DC3
:10117C001B7819000F230B40083B9B0806339B0080
:10118C00D31804331A68FB1D1B78190003230B407A
:10119C00DB00DA4013009B09032213401800BD4604
:1011AC0002B080BD00E100E000ED00E080B500AFD2
:1011BC00BFF34F8FC046044B044ADA60BFF34F8F26
:1011CC00C046C046FDE7C04600ED00E00400FA054D
:1011DC0080B582B000AF78607B685A1E80235B04B8
:1011EC009A4201D3012310E00A4B7A68013A5A6003
:1011FC0001235B4203211800FFF72CFF054B002253
:10120C009A60044B07221A6000231800BD4602B0F6
:10121C0080BDC04610E000E080B584B000AFB9607E
:10122C007A600F217B18021C1A70BA687B181B7825
:10123C005BB211001800FFF70DFFC046BD4604B0AD
:10124C0080BD80B582B000AF0200FB1D1A70FB1D83
:10125C001B785BB21800FFF769FEC046BD4602B0B2
:10126C0080BD80B582B000AF0200FB1D1A70FB1D63
:10127C001B785BB21800FFF773FEC046BD4602B088
:10128C0080BD80B500AFFFF791FF80B582B000AF95
:10129C0078607B681800FFF79BFF03001800BD46C1
:1012AC0002B080BD80B582B000AF0200FB1D1A7089
:1012BC00FB1D1B785BB21800FFF73AFF0300180008
:1012CC00BD4602B080BD80B582B000AF0200FB1DF0
:1012DC001A70FB1D1B785BB21800FFF783FEC0462B
:1012EC00BD4602B080BD80B582B000AF0200FB1DD0
:1012FC001A70FB1D1B785BB21800FFF753FE03003E
:10130C001800BD4602B080BD80B582B000AF0200AF
:10131C00FB1D1A70FB1D1B785BB21800FFF77EFEDD
:10132C00C046BD4602B080BD80B582B000AF7860CB
:10133C007B68042B06D1084B1A68074B04210A431F
:10134C001A6005E0044B1A68034B04218A431A60A7
:10135C00C046BD4602B080BD10E000E080B500AFD5
:10136C0000F003F8C046BD4680BD80B500AFC04656
:10137C00BD4680BD80B500AF074B1A68064B1021E7
:10138C000A431A60032000F033F800F027F800231A
:10139C001800BD4680BDC0460020024080B500AF9D
:1013AC000D4B012252421A610B4B00221A610A4B5F
:1013BC0001225242DA60084B0022DA60064B01220D
:1013CC0052429A62044B00229A6200F00CF80023FD
:1013DC001800BD4680BDC0460010024080B500AF6D
:1013EC00C046BD4680BD80B500AFC046BD4680BD81
:1013FC0090B583B000AF7860144B1C68144B1B780D
:10140C001900FA239800FEF7C1FE03001900200012
:10141C00FEF7BCFE03001800FFF737FF031E01D0D8
:10142C0001230FE07B68032B0BD8796801235B4207
:10143C0000221800FFF7F0FE064B7A681A600023B2
:10144C0000E001231800BD4603B090BDD000002081
:10145C00E0000020DC00002080B500AF054B1B78BD
:10146C001A00054B1B68D218034B1A60C046BD46C8
:10147C0080BDC046E00000202402002080B500AFF3
:10148C00024B1B681800BD4680BDC04624020020DC
:10149C0080B500AF024B1B681800BD4680BDC0462E
:1014AC00DC000020F0B585B000AF0200FB1D1A7007
:1014BC000F217B1800221A70134B1B78FA1D12781F
:1014CC009A4219D00E26BB190F4A12781A700E4B7D
:1014DC00FA1D12781A700D4B1B680D007C18180041
:1014EC00FFF786FF030023707B191B78002B03D0BA
:1014FC00054BBA1912781A700F23FB181B781800B9
:10150C00BD4605B0F0BDC046E0000020DC00002068
:10151C0080B500AF024B1B781800BD4680BDC0469D
:10152C00E000002080B584B000AF7860FFF7A6FF24
:10153C000300BB607B68FB60FB68013305D00A4B82
:10154C001B781A00FB689B18FB60C046FFF796FFE0
:10155C000200BB68D31AFA689A42F7D8C046C04654
:10156C00BD4604B080BDC046E000002080B500AF91
:10157C00044B1A68034B02218A431A60C046BD46CD
:10158C0080BDC04610E000E080B500AF044B1A6887
:10159C00034B02210A431A60C046BD4680BDC046BB
:1015AC0010E000E080B500AF014B1800BD4680BDD7
:1015BC000005070180B500AF024B1B681B0C18001F
:1015CC00BD4680BD0058014080B500AF034B1B6881
:1015DC001B051B0D1800BD4680BDC04600580140C0
:1015EC0080B500AF024B1B681800BD4680BDC046DD
:1015FC00ACF7FF1F80B500AF024B1B681800BD464F
:10160C0080BDC046B0F7FF1F80B500AF024B1B6812
:10161C001800BD4680BDC046B4F7FF1F80B500AFB3
:10162C00044B5A68034B02210A435A60C046BD461C
:10163C0080BDC0460058014080B500AF044B5A68CD
:10164C00034B02218A435A60C046BD4680BDC0464A
:10165C000058014080B500AF044B5A68034B04217D
:10166C000A435A60C046BD4680BDC0460058014082
:10167C0080B500AF044B5A68034B04218A435A606F
:10168C00C046BD4680BDC0460058014080B586B0FE
:10169C0000AFF860B9607A603B60FB68002B01D149
:1016AC0001235BE0FB689B6F002B07D1FB68742266
:1016BC0000219954FB681800FFF72CF9FB682422D1
:1016CC009A67FB681B681A68FB681B6801218A43D0
:1016DC001A60FB68180002F01DFC0300012B01D1FD
:1016EC0001233BE0FB685B6A002B03D0FB6818000E
:1016FC0002F0F8FDFB681B689A68FB681B68802188
:10170C00C9010A439A60FB681B689B68154A134021
:10171C001900FB681B68BA680A439A607B685B0512
:10172C007B613B681B047A6913437B61FB681B6814
:10173C001B680D4A13401900FB681B687A690A4341
:10174C001A60FB681B681A68FB681B6801210A4356
:10175C001A60FB68180002F079FE03001800BD4601
:10176C0006B080BDFF7FFFFFFFFF00FC80B582B09D
:10177C0000AF7860C046BD4602B080BD80B582B077
:10178C0000AF786039607B68002B01D1012322E027
:10179C007B6824229A677B681B681A687B681B68C5
:1017AC0001218A431A607B681B685B681022934393
:1017BC0019007B681B683A680A435A607B681B688F
:1017CC001A687B681B6801210A431A607B68180041
:1017DC0002F03CFE03001800BD4602B080BD0000C4
:1017EC0080B588B002AFF8603B1D19605A601723B2
:1017FC00FB1800221A70FB6874229B5C012B01D130
:10180C0002234AE0FB68742201219954FB682422CC
:10181C009A67FB681B681A68FB681B6801218A437E
:10182C001A60FB681B689B681E4A134019003B1D1D
:10183C001A68FB681B680A439A603B1D1B68002BE7
:10184C0005D13B1DF86819685A6800F051FAFB681D
:10185C001B681A68FB681B6801210A431A60FFF7B2
:10186C000DFE03003B613B698022D103F8680E4AF0
:10187C000092002202F032FE031E04D01723FB1844
:10188C0003221A7002E0FB6820229A67FB6874221C
:10189C00002199541723FB181B781800BD4606B07D
:1018AC0080BDC046FFFFCFFFFFFFFF0180B582B0B8
:1018BC0000AF78607B6874229B5C012B01D1022302
:1018CC0010E07B687422012199547B681B681A68AC
:1018DC007B681B6802210A431A607B687422002112
:1018EC00995400231800BD4602B080BD80B582B06B
:1018FC0000AF78607B6874229B5C012B01D10223C2
:10190C0010E07B687422012199547B681B681A686B
:10191C007B681B6802218A431A607B687422002151
:10192C00995400231800BD4602B080BD80B588B024
:10193C0000AFF860B9603B60BB1D1A80FB68DB6FC1
:10194C00202B00D00FE1BB68002B03D0BB1D1B88E4
:10195C00002B01D1012307E1FB689A6880235B010E
:10196C009A4209D1FB681B69002B05D1BB68012287
:10197C00134001D00123F7E0FB6874229B5C012B20
:10198C0001D10223F0E0FB68742201219954FB6819
:10199C00802200219950FB682222DA67FB68012221
:1019AC001A66FFF76BFD03007B61FB68BA1D5821BB
:1019BC0012885A52FB68BA1D5A2112885A52FB6877
:1019CC009A6880235B019A420DD1FB681B69002B3E
:1019DC0004D1FB685C22664999522EE0FB685C22BC
:1019EC00FF21995229E0FB689B68002B0DD1FB6805
:1019FC001B69002B04D1FB685C22FF2199521CE06F
:101A0C00FB685C227F21995217E0FB689A6880235F
:101A1C005B059A420DD1FB681B69002B04D1FB6856
:101A2C005C227F21995208E0FB685C223F2199528D
:101A3C0003E0FB685C22002199521223FB18FA6820
:101A4C005C21525A1A80FB689A6880235B019A4287
:101A5C0008D1FB681B69002B04D10023FB61BB6818
:101A6C00BB6103E0BB68FB610023BB61FB687422B4
:101A7C00002199543B6800221A805EE0FB681B68C9
:101A8C00DB6910221340102B0CD1FB681B68102251
:101A9C001A623B681B88002B04D0FB682022DA6793
:101AAC00002361E0FB681B68DB6920221340202BBC
:101ABC0030D1FB69002B0ED1FB681B689B8C9BB251
:101ACC001222BA18128813409AB2BB691A80BB69E9
:101ADC000233BB610FE0FB681B689B8C9BB2DBB2D3
:101AEC001222BA181288D2B21340DAB2FB691A70F9
:101AFC00FB690133FB613B681B8801339AB23B687D
:101B0C001A80FB685A229B5A9BB2013B99B2FB6824
:101B1C005A229952BB6A01330FD0FFF7AFFC020077
:101B2C007B69D31ABA6A9A4202D3BB6A002B04D1DE
:101B3C00FB682022DA67032316E0FB685A229B5AC3
:101B4C009BB2002B9AD1FB6858229A5AFB685A21F7
:101B5C005B5A9BB2D31A9AB23B681A80FB6820225C
:101B6C00DA67002300E002231800BD4608B080BDF0
:101B7C00FF010000B0B586B000AFF860B960BB1DC6
:101B8C001A80FB68DB6F202B4ED1BB68002B03D077
:101B9C00BB1D1B88002B01D1012346E0FB689A6812
:101BAC0080235B019A4209D1FB681B69002B05D18C
:101BBC00BB680122134001D0012336E0FB6874227C
:101BCC009B5C012B01D102232FE0FB6874220121C5
:101BDC009954FB6801221A6617257C19BB1D1A88BB
:101BEC00B968FB68180002F0F7FC030023707B193E
:101BFC001B78002B14D1FB681B6E012B0CD1FB68DE
:101C0C001B6810221A62FB681B681A68FB681B6849
:101C1C0010210A431A6003E01723FB1801221A70E3
:101C2C001723FB181B7800E002231800BD4606B0F2
:101C3C00B0BDB0B586B000AFF860B960BB1D1A80FE
:101C4C00FB68DB6F202B4ED1BB68002B03D0BB1D78
:101C5C001B88002B01D1012346E0FB689A68802386
:101C6C005B019A4209D1FB681B69002B05D1BB684B
:101C7C000122134001D0012336E0FB6874229B5CE7
:101C8C00012B01D102232FE0FB687422012199540E
:101C9C00FB6801221A6617257C19BB1D1A88B968C6
:101CAC00FB68180002F026FD030023707B191B78DB
:101CBC00002B14D1FB681B6E012B0CD1FB681B682D
:101CCC0010221A62FB681B681A68FB681B681021DB
:101CDC000A431A6003E01723FB1801221A7017231A
:101CEC00FB181B7800E002231800BD4606B0B0BDFF
:101CFC0080B584B000AFF8603B1D19605A60FB687A
:101D0C001B685B68102293431A003B1D9B881900CB
:101D1C00FB681B680A435A60FB681B685B681B0204
:101D2C00190A3B1D9B791A06FB681B680A435A600B
:101D3C00C046BD4604B080BD80B586B000AF7860AB
:101D4C0000233B610023FB607B681A6880235B02E5
:101D5C00134000D18EE017203B1800221A706E4BF6
:101D6C00DA6980235B05134010D16B4BDA696A4B3F
:101D7C00802149050A43DA61674BDA6980235B05E8
:101D8C001340BB60BB683B1801221A70634B1A6886
:101D9C0080235B0013401AD1604B1A685F4B802183
:101DAC0049000A431A60FFF769FB03003B6108E036
:101DBC00FFF764FB02003B69D31A642B01D90323A0
:101DCC00A6E0564B1A6880235B001340F0D0524BB0
:101DDC001A6AC0239B001340FB60FB68002B34D0B5
:101DEC007B685A68C0239B001340FA689A422CD037
:101DFC00494B1B6A4A4A1340FB60474B1A6A464BD5
:101E0C00802149020A431A62434B1A6A424B4549E4
:101E1C000A401A62404BFA681A62FB6801221340AE
:101E2C0013D0FFF72BFB03003B6109E0FFF726FB08
:101E3C0002003B69D31A3C4A934201D9032367E061
:101E4C00354B1B6A02221340F0D0334B1B6A344AC9
:101E5C00134019007B685A682F4B0A431A621723E8
:101E6C00FB181B78012B05D12B4BDA692A4B2F4918
:101E7C000A40DA617B681B680122134009D0264BAB
:101E8C001B6B0322934319007B689A68224B0A430D
:101E9C001A637B681B680222134009D01E4B1B6B14
:101EAC00234A134019007B68DA681B4B0A431A63F8
:101EBC007B681A688023DB02134009D0164B1B6B1E
:101ECC001C4A134019007B681A69134B0A431A63A6
:101EDC007B681B682022134009D00F4B1B6B102210
:101EEC00934319007B685A690B4B0A431A637B684E
:101EFC001A688023DB00134009D0074B1B6B402270
:101F0C00934319007B689A69034B0A431A630023B5
:101F1C001800BD4606B080BD0010024000700040A5
:101F2C00FFFCFFFFFFFFFEFF88130000FFFFFFEF2A
:101F3C00FFFFFCFFFFFFF3FF80B582B000AF7860BE
:101F4C007B68204A1A60204B1A6AC0239B001A40F7
:101F5C007B685A601C4B1B6B03221A407B689A608F
:101F6C00194B1B6B10221A407B685A617B681B68EB
:101F7C0002221A437B681A60134B1A6BC0239B0214
:101F8C001A407B68DA607B681B688022D2021A4395
:101F9C007B681A600C4B1A6BC0231B031A407B68BE
:101FAC001A617B681B688022D2001A437B681A6016
:101FBC00054B1B6B40221A407B689A61C046BD469C
:101FCC0002B080BD210001000010024080B584B039
:101FDC0000AF78600023FB600023BB607A6880232D
:101FEC00DB029A4200D1CBE07A688023DB029A4272
:101FFC0000D931E17A6880235B029A4221D07A6859
:10200C0080235B029A4200D926E17A688023DB00A8
:10201C009A4200D102E17A688023DB009A4200D90F
:10202C001AE17B68202B00D1DFE07B68202B00D9E4
:10203C0012E17B68012B3CD07B68022B00D168E05D
:10204C000AE18E4B1A6AC0239B001340BB60BA682E
:10205C0080235B009A4209D1884B1B6A02221340F1
:10206C00022B03D180231B02FB6021E0BA68802382
:10207C009B009A4209D1814B5B6A02221340022BCE
:10208C0003D1FA23DB01FB6012E0BA68C0239B008A
:10209C009A4200D0E2E0794B1A6880239B021A40E6
:1020AC0080239B029A4200D0D8E0754BFB60D5E0B0
:1020BC00D4E0724B1B6B03221340BB60BB68002B3C
:1020CC0004D105F0F9FE0300FB60C9E0BB68032BEB
:1020DC0008D16A4B1B6802221340022B02D1694BB8
:1020EC00FB60BDE0BB68012B04D105F05BFE030077
:1020FC00FB60B5E0BB68022B00D0B1E05F4B1B6A04
:10210C0002221340022B00D0AAE080231B02FB60AA
:10211C00A6E05A4B1A6BC0239B021340BB60BB68F2
:10212C00002B04D105F0C8FE0300FB609AE0BA68EE
:10213C00C0239B029A4208D1504B1B6802221340C9
:10214C00022B02D14F4BFB608CE0BA6880235B0200
:10215C009A4204D105F026FE0300FB6082E0BA68C7
:10216C0080239B029A4200D07CE0444B1B6A0222E3
:10217C001340022B00D075E080231B02FB6071E042
:10218C003E4B1A6BC0231B031340BB60BB68002B78
:10219C0004D105F091FE0300FB6065E0BA68C02332
:1021AC001B039A4208D1354B1B6802221340022BA9
:1021BC0002D1344BFB6057E0BA688023DB029A42B1
:1021CC0004D105F0EFFD0300FB604DE0BA688023FD
:1021DC001B039A4248D1294B1B6A02221340022B43
:1021EC0042D180231B02FB603EE0244B1B6B102270
:1021FC001340BB60BB68002B08D1204B1B6802222C
:10220C001340022B02D11F4BFB602FE0BB68102B3D
:10221C002CD105F0C7FD0300FB6027E0174B1B6BAF
:10222C0040221340BB60BB68002B08D1134B1B68CA
:10223C0002221340022B02D1124BFB6018E0BB6848
:10224C00402B15D10D4B1B6A02221340022B0FD1D0
:10225C0080231B02FB600BE0C0460AE0C04608E08E
:10226C00C04606E0C04604E0C04602E0C04600E0BE
:10227C00C046FB681800BD4604B080BD001002408B
:10228C0090D0030000127A0080B584B000AF786063
:10229C000023FB601C4B1A691B4B802109050A4368
:1022AC001A61194B1A69184B18490A401A617B6854
:1022BC001A687B685B681A437B689B681343FB60F6
:1022CC007B68DB68FA681343FB607B681B691B0443
:1022DC00FA681343FB600E4BFA685A600C4B1B6890
:1022EC000C4A134019007B685B691A02084B0A43BD
:1022FC001A60074B1A68064B60210A431A60C046E5
:10230C00BD4604B080BDC04600100240FFFFFFF781
:10231C00006C0040FFC0FFFF80B500AF044B1A6893
:10232C00034B80210A431A60C046BD4680BDC0469F
:10233C00006C004080B582B000AF78600F4B5B68DA
:10234C001B041A0C7B681A600C4B1B681B0A3F227F
:10235C001A407B685A60094B9B681B0C1B041A0CB7
:10236C007B689A60054B9A6880231B021A407B6835
:10237C00DA60C046BD4602B080BDC046006C00406D
:10238C0080B584B000AF78600023FB600023BB6095
:10239C00FFF774F80300BB607B6801330CD07B68DB
:1023AC00002B07D0FFF76AF80200BB68D31A7A68D3
:1023BC009A4201D20123FB602D4B9B6801221340F2
:1023CC00012B06D1FB6802221343FB60284B012230
:1023DC00DA60274B9B6802221340022B06D1FB6864
:1023EC0004221343FB60224B0222DA60204B9A68D2
:1023FC008023DB001A408023DB009A4206D1FB6865
:10240C0020221343FB601A4B0422DA60184B9A68A3
:10241C0080235B001A4080235B009A4206D1FB6844
:10242C0008221343FB60124B0422DA60104B9A68AB
:10243C0080239B001A4080239B009A4206D1FB68A4
:10244C0010221343FB600A4B0422DA60084B9B6892
:10245C0008221340082B02D1054B0822DA60FB68D6
:10246C00002B99D0FB681800BD4604B080BDC04657
:10247C00006C004080B584B000AF0023FB602F4B94
:10248C009B68BB602D4B1B687B60BB6801221340B3
:10249C0009D07B680122134005D0284B0122DA6059
:1024AC0000F04EF846E0BB680222134009D07B686E
:1024BC000222134005D0214B0222DA6000F045F8CD
:1024CC0038E0BB680822134009D07B68082213400F
:1024DC0005D01A4B0822DA6000F03CF82AE0BB6801
:1024EC000422134026D07B680422134022D0BA6801
:1024FC0080235B00134003D0FB6808221343FB606E
:10250C00BA6880239B00134003D0FB68102213434E
:10251C00FB60BA688023DB00134003D0FB682022E9
:10252C001343FB60054B0422DA60FB68180000F0D3
:10253C0016F8FFE7C046BD4604B080BD006C0040F5
:10254C0080B500AFC046BD4680BD80B500AFC0466B
:10255C00BD4680BD80B500AFC046BD4680BD80B5D0
:10256C0082B000AF7860C046BD4602B080BD0000AE
:10257C0080B582B000AF78607B68002B01D101235D
:10258C0044E07B689B6F002B07D17B687422002191
:10259C0099547B681800FEF7BDF97B6824229A6772
:1025AC007B681B681A687B681B6801218A431A6068
:1025BC007B68180001F0AEFC0300012B01D1012354
:1025CC0024E07B685B6A002B03D07B68180001F069
:1025DC0089FE7B681B685A687B681B680D490A403A
:1025EC005A607B681B689A687B681B682A218A433F
:1025FC009A607B681B681A687B681B6801210A4318
:10260C001A607B68180001F021FF03001800BD461A
:10261C0002B080BDFFB7FFFF80B582B000AF78601D
:10262C007B68002B01D101234CE07B689B6F002B56
:10263C0007D17B687422002199547B681800FEF73F
:10264C0069F97B6824229A677B681B681A687B6827
:10265C001B6801218A431A607B68180001F05AFC40
:10266C000300012B01D101232CE07B685B6A002B5A
:10267C0003D07B68180001F035FE7B681B685A6834
:10268C007B681B6811490A405A607B681B689A6812
:10269C007B681B6822218A439A607B681B689A6856
:1026AC007B681B6808210A439A607B681B681A6860
:1026BC007B681B6801210A431A607B68180001F0D3
:1026CC00C5FE03001800BD4602B080BDFFB7FFFF7A
:1026DC0080B582B000AF786039607B68002B01D187
:1026EC00012366E07B68DA6980231B029A4201D1E0
:1026FC0001235EE07B689B68002B01D0012358E02E
:10270C007B689B6F002B07D17B6874220021995446
:10271C007B681800FEF7FEF87B6824229A677B68BA
:10272C001B681A687B681B6801218A431A607B68E6
:10273C00180001F0EFFB0300012B01D1012338E05D
:10274C007B685B6A002B03D07B68180001F0CAFD24
:10275C007B681B685A687B681B6818490A405A607A
:10276C007B681B689A687B681B682A218A439A607D
:10277C007B681B685A687B681B688021C9010A4307
:10278C005A607B681B685B682022934319007B6846
:10279C001B683A680A435A607B681B681A687B6836
:1027AC001B6801210A431A607B68180001F04EFE79
:1027BC0003001800BD4602B080BDC046FFB7FFFF46
:1027CC0080B584B000AFF8607A600B23FB180A1C4C
:1027DC001A70FB68002B01D1012361E0FB689B6F31
:1027EC00002B07D1FB68742200219954FB68180058
:1027FC00FEF790F8FB6824229A67FB681B681A683E
:10280C00FB681B6801218A431A60FB68180001F001
:10281C0081FB0300012B01D1012341E0FB685B6AC2
:10282C00002B03D0FB68180001F05CFDFB681B68F3
:10283C005A68FB681B681C490A405A60FB681B6895
:10284C009A68FB681B682A218A439A607A688023FD
:10285C001B019A420CD1FB681B685B681B02190AAE
:10286C000B23FB181B781A06FB681B680A435A607B
:10287C00FB681B681B680D4A13401900FB681B683A
:10288C007A680A431A60FB681B681A68FB681B6845
:10289C0001210A431A60FB68180001F0D7FD030000
:1028AC001800BD4604B080BDFFB7FFFFFFF7FFFF68
:1028BC0080B582B000AF78607B68002B01D101231A
:1028CC002CE07B6824229A677B681B681A687B68FB
:1028DC001B6801218A431A607B681B6800221A60FE
:1028EC007B681B6800225A607B681B6800229A6018
:1028FC007B681800FEF772F87B68802200219950E3
:10290C007B6800229A677B680022DA677B6800226A
:10291C001A667B6874220021995400231800BD4666
:10292C0002B080BD80B582B000AF7860C046BD46B5
:10293C0002B080BD80B582B000AF7860C046BD46A5
:10294C0002B080BD80B58AB002AFF860B9603B6060
:10295C00BB1D1A80FB689B6F202B00D096E0BB68D8
:10296C00002B03D0BB1D1B88002B01D101238EE053
:10297C00FB689A6880235B019A4209D1FB681B694A
:10298C00002B05D1BB680122134001D001237EE04E
:10299C00FB6874229B5C012B01D1022377E0FB685E
:1029AC00742201219954FB68802200219950FB6804
:1029BC0021229A67FEF762FD03007B61FB68BA1D5A
:1029CC00502112885A52FB68BA1D522112885A5251
:1029DC00FB689A6880235B019A4208D1FB681B69EB
:1029EC00002B04D10023FB61BB68BB6103E0BB6817
:1029FC00FB610023BB61FB687422002199542DE01C
:102A0C007A69F8683B68009313000022802101F07A
:102A1C0065FD031E01D0032339E0FB69002B0BD1AC
:102A2C00BB691A88FB681B68D205D20D92B21A8555
:102A3C00BB690233BB6108E0FB691A78FB681B6851
:102A4C0092B21A85FB690133FB61FB6852229B5AD7
:102A5C009BB2013B99B2FB6852229952FB685222FD
:102A6C009B5A9BB2002BCBD17A69F8683B680093D8
:102A7C0013000022402101F031FD031E01D003237D
:102A8C0005E0FB6820229A67002300E0022318006F
:102A9C00BD4608B080BD000080B58AB002AFF860BA
:102AAC00B9603B60BB1D1A80FB68DB6F202B00D02C
:102ABC00DAE0BB68002B03D0BB1D1B88002B01D1B7
:102ACC000123D2E0FB689A6880235B019A4209D10A
:102ADC00FB681B69002B05D1BB680122134001D098
:102AEC000123C2E0FB6874229B5C012B01D1022301
:102AFC00BBE0FB68742201219954FB688022002101
:102B0C009950FB682222DA67FB6800221A66FEF7EE
:102B1C00B5FC03007B61FB68BA1D582112885A5220
:102B2C00FB68BA1D5A2112885A52FB689A68802396
:102B3C005B019A420DD1FB681B69002B04D1FB6829
:102B4C005C224C4999522EE0FB685C22FF21995281
:102B5C0029E0FB689B68002B0DD1FB681B69002BDF
:102B6C0004D1FB685C22FF2199521CE0FB685C22BB
:102B7C007F21995217E0FB689A6880235B059A4283
:102B8C000DD1FB681B69002B04D1FB685C227F21F3
:102B9C00995208E0FB685C223F21995203E0FB68E4
:102BAC005C22002199521223FB18FA685C21525ABC
:102BBC001A80FB689A6880235B019A4208D1FB68F3
:102BCC001B69002B04D10023FB61BB68BB6103E0D4
:102BDC00BB68FB610023BB61FB6874220021995424
:102BEC0037E07A69F8683B680093130000222021D3
:102BFC0001F074FC031E01D0032336E0FB69002BAB
:102C0C000ED1FB681B689B8C9BB21222BA181288DF
:102C1C0013409AB2BB691A80BB690233BB610FE0E7
:102C2C00FB681B689B8C9BB2DBB21222BA18128811
:102C3C00D2B21340DAB2FB691A70FB690133FB6143
:102C4C00FB685A229B5A9BB2013B99B2FB685A22F1
:102C5C009952FB685A229B5A9BB2002BC1D1FB683C
:102C6C002022DA67002300E002231800BD4608B0DA
:102C7C0080BDC046FF01000080B584B000AFF86095
:102C8C00B960BB1D1A80FB689B6F202B59D1BB68A8
:102C9C00002B03D0BB1D1B88002B01D1012351E05D
:102CAC00FB689A6880235B019A4209D1FB681B6917
:102CBC00002B05D1BB680122134001D0012341E058
:102CCC00FB6874229B5C012B01D102233AE0FB6868
:102CDC00742201219954FB68BA68DA64FB68BA1D46
:102CEC00502112885A52FB68BA1D522112885A522E
:102CFC00FB6800229A66FB68802200219950FB68D1
:102D0C0021229A67FB689A6880235B019A4207D15B
:102D1C00FB681B69002B03D1FB680C4A9A6602E026
:102D2C00FB680B4A9A66FB68742200219954FB6875
:102D3C001B681A68FB681B6880210A431A60002311
:102D4C0000E002231800BD4604B080BD2B4C0008E7
:102D5C00BB4B000880B584B000AFF860B960BB1DF8
:102D6C001A80FB68DB6F202B3FD1BB68002B03D094
:102D7C00BB1D1B88002B01D1012337E0FB689A682F
:102D8C0080235B019A4209D1FB681B69002B05D19A
:102D9C00BB680122134001D0012327E0FB68742299
:102DAC009B5C012B01D1022320E0FB6874220121E2
:102DBC009954FB6800221A66FB681B685A688023CA
:102DCC001B04134008D0FB681B681A68FB681B685F
:102DDC008021C9040A431A60BB1D1A88B968FB68B4
:102DEC00180001F0F9FB030000E002231800BD46B7
:102DFC0004B080BD80B584B000AFF860B960BB1D75
:102E0C001A80FB689B6F202B00D079E0BB68002BED
:102E1C0003D0BB1D1B88002B01D1012371E0FB6883
:102E2C009A6880235B019A4209D1FB681B69002BCD
:102E3C0005D1BB680122134001D0012361E0FB687E
:102E4C0074229B5C012B01D102235AE0FB68742293
:102E5C0001219954FB68BA68DA64FB68BA1D5021E9
:102E6C0012885A52FB68BA1D522112885A52FB68BA
:102E7C00802200219950FB6821229A67FB68DB6E47
:102E8C00002B2BD0FB68DB6E204A9A62FB68DB6E52
:102E9C001F4ADA62FB68DB6E1E4A1A63FB68DB6E44
:102EAC0000225A63FB68D86EFB68DB6C1900FB6868
:102EBC001B6828331A00BB1D1B8802F0E1FD031EA2
:102ECC000CD0FB68802210219950FB6874220021E1
:102EDC009954FB6820229A67012312E0FB681B6857
:102EEC0040221A62FB68742200219954FB681B680B
:102EFC009A68FB681B6880210A439A60002300E0F3
:102F0C0002231800BD4604B080BDC04665480008C9
:102F1C00B5480008AD49000880B584B000AFF86032
:102F2C00B960BB1D1A80FB68DB6F202B3FD1BB68DF
:102F3C00002B03D0BB1D1B88002B01D1012337E0D4
:102F4C00FB689A6880235B019A4209D1FB681B6974
:102F5C00002B05D1BB680122134001D0012327E0CF
:102F6C00FB6874229B5C012B01D1022320E0FB68DF
:102F7C00742201219954FB6800221A66FB681B68B5
:102F8C005A6880231B04134008D0FB681B681A681E
:102F9C00FB681B688021C9040A431A60BB1D1A8890
:102FAC00B968FB68180001F0A5FB030000E00223E0
:102FBC001800BD4604B080BD80B584B000AF786009
:102FCC007B689B6FFB607B68DB6FBB607B687422EC
:102FDC009B5C012B01D102233CE07B687422012114
:102FEC0099547B681B689B6880221340802B0AD104
:102FFC00FB68212B07D17B681B689A687B681B6870
:10300C0080218A439A607B681B689B68402213402E
:10301C00402B1AD1BB68222B17D17B681B681A680E
:10302C007B681B680D490A401A607B681B689A68AC
:10303C007B681B6801218A439A607B681B689A68CD
:10304C007B681B6840218A439A607B68742200214C
:10305C00995400231800BD4604B080BDFFFEFFFF4D
:10306C0080B582B000AF78607B6874229B5C012BCA
:10307C0001D1022335E07B687422012199547B68CD
:10308C009B6F212B07D17B681B689A687B681B6838
:10309C0080210A439A607B68DB6F222B1CD17B68F2
:1030AC001B6808221A627B681B681A687B681B689D
:1030BC00802149000A431A607B681B689A687B6808
:1030CC001B6801210A439A607B681B689A687B68BD
:1030DC001B6840210A439A607B6874220021995432
:1030EC0000231800BD4602B080BD80B584B000AF8F
:1030FC0078607B689B6FFB607B68DB6FBB607B6879
:10310C001B689B6880221340802B27D1FB68212BE6
:10311C0024D17B681B689A687B681B6880218A4372
:10312C009A607B68DB6E002B14D07B68DB6E18001A
:10313C0002F00CFD031E0DD07B68DB6E180002F054
:10314C0071FF0300202B05D17B6880221021995040
:10315C00032333E07B68180001F03AFB7B681B68A3
:10316C009B6840221340402B27D1BB68222B24D1D3
:10317C007B681B689A687B681B6840218A439A604D
:10318C007B681B6F002B14D07B681B6F180002F040
:10319C00DDFC031E0DD07B681B6F180002F042FF94
:1031AC000300202B05D17B6880221021995003232A
:1031BC0004E07B68180001F01FFB00231800BD46DB
:1031CC0004B080BD80B582B000AF78607B681B68AE
:1031DC001A687B681B684A490A401A607B681B683E
:1031EC009A687B681B6801218A439A607B681B6E16
:1031FC00012B07D17B681B681A687B681B68102140
:10320C008A431A607B681B689B6880221340802B62
:10321C0024D17B681B689A687B681B6880218A4371
:10322C009A607B68DB6E002B18D07B68DB6E00220B
:10323C005A637B68DB6E180002F088FC031E0DD00D
:10324C007B68DB6E180002F0EDFE0300202B05D12D
:10325C007B6880221021995003234DE07B681B680A
:10326C009B6840221340402B24D17B681B689A68D2
:10327C007B681B6840218A439A607B681B6F002B1C
:10328C0018D07B681B6F00225A637B681B6F180079
:10329C0002F05CFC031E0DD07B681B6F180002F063
:1032AC00C1FE0300202B05D17B6880221021995090
:1032BC00032321E07B685222002199527B685A2219
:1032CC00002199527B681B680F221A627B681B686D
:1032DC009A697B681B6808210A439A617B682022E3
:1032EC009A677B682022DA677B6800221A667B6803
:1032FC0080220021995000231800BD4602B080BDE9
:10330C001FFEFFFF80B582B000AF78607B681B6842
:10331C001A687B681B68C0218A431A607B681B682B
:10332C009B6880221340802B24D17B681B689A6891
:10333C007B681B6880218A439A607B68DB6E002B5C
:10334C0018D07B68DB6E00225A637B68DB6E18003A
:10335C0002F0FCFB031E0DD07B68DB6E180002F044
:10336C0061FE0300202B05D17B688022102199502F
:10337C00032307E07B685222002199527B682022AC
:10338C009A6700231800BD4602B080BD80B582B09C
:10339C0000AF78607B681B681A687B681B682F49D4
:1033AC000A401A607B681B689A687B681B6801215D
:1033BC008A439A607B681B6E012B07D17B681B6864
:1033CC001A687B681B6810218A431A607B681B682B
:1033DC009B6840221340402B24D17B681B689A6861
:1033EC007B681B6840218A439A607B681B6F002BAB
:1033FC0018D07B681B6F00225A637B681B6F180008
:10340C0002F0A4FB031E0DD07B681B6F180002F0AA
:10341C0009FE0300202B05D17B68802210219950D6
:10342C00032316E07B685A22002199527B681B68A3
:10343C000F221A627B681B689A697B681B680821DB
:10344C000A439A617B682022DA677B6800221A663D
:10345C0000231800BD4602B080BDC046DFFEFFFF52
:10346C0080B584B000AF78600123FB607B681B687B
:10347C001A687B681B685B490A401A607B681B688A
:10348C009A687B681B6801218A439A607B681B6E73
:10349C00012B07D17B681B681A687B681B6810219D
:1034AC008A431A607B68DB6E002B0FD07B681B682D
:1034BC009B6880221340802B04D17B68DB6E4A4AC8
:1034CC005A6303E07B68DB6E00225A637B681B6FD8
:1034DC00002B0FD07B681B689B6840221340402B4D
:1034EC0004D17B681B6F414A5A6303E07B681B6FF6
:1034FC0000225A637B681B689B6880221340802BD8
:10350C0019D17B681B689A687B681B6880218A4389
:10351C009A607B68DB6E002B0DD07B68DB6E18002D
:10352C0002F04CFB031E04D07B68DB6E00225A6356
:10353C0001E00023FB607B681B689B684022134002
:10354C00402B1BD17B681B689A687B681B684021E9
:10355C008A439A607B681B6F002B0FD07B681B6FB4
:10356C00180002F02BFB031E06D07B681B6F002299
:10357C005A630123FB6001E00023FB60FB68012B15
:10358C002AD17B685222002199527B685A22002151
:10359C0099527B6800225A667B6800229A667B6887
:1035AC008022002199507B681B680F221A627B686D
:1035BC001B689A697B681B6808210A439A617B68BF
:1035CC0020229A677B682022DA677B6800221A66C1
:1035DC007B68180000F00EFB00231800BD4604B0F9
:1035EC0080BDC0461FFEFFFF5D4A0008C94A0008A7
:1035FC0080B582B000AF78607B681B681A687B6806
:10360C001B68C0218A431A607B681B689B688022F8
:10361C001340802B2DD17B681B689A687B681B68D4
:10362C0080218A439A607B68DB6E002B12D07B680A
:10363C00DB6E194A5A637B68DB6E180002F0BEFA27
:10364C00031E24D07B68DB6E5A6B7B68DB6E180024
:10365C0090471CE07B685222002199527B68002223
:10366C009A667B6820229A677B68180000F0CAFA79
:10367C000DE07B685222002199527B6800229A66E9
:10368C007B6820229A677B68180000F0BBFA002345
:10369C001800BD4602B080BD454B000880B582B015
:1036AC0000AF78607B681B681A687B681B683A49B6
:1036BC000A401A607B681B689A687B681B6801214A
:1036CC008A439A607B681B6E012B07D17B681B6851
:1036DC001A687B681B6810218A431A607B681B6818
:1036EC009B6840221340402B3CD17B681B689A6836
:1036FC007B681B6840218A439A607B681B6F002B98
:10370C0012D07B681B6F254A5A637B681B6F1800AD
:10371C0002F054FA031E3AD07B681B6F5A6B7B681D
:10372C001B6F1800904732E07B685A220021995297
:10373C007B6800225A657B681B680F221A627B68C3
:10374C001B689A697B681B6808210A439A617B682D
:10375C002022DA677B6800221A667B68180000F06A
:10376C0059FA14E07B685A22002199527B68002296
:10377C005A657B681B680F221A627B682022DA6705
:10378C007B6800221A667B68180000F043FA00235D
:10379C001800BD4602B080BDDFFEFFFF714B000874
:1037AC0080B588B000AF78607B681B68DB69FB6113
:1037BC007B681B681B68BB617B681B689B687B61B3
:1037CC00FB69B44A13403B613B69002B12D1FB6986
:1037DC00202213400ED0BB69202213400AD07B68F4
:1037EC005B6E002B00D1CFE17B685B6E7A681000BA
:1037FC009847C9E13B69002B00D1D9E07B690122D4
:10380C00134004D1BB69A44A134000D1D0E0FB693A
:10381C000122134010D0BA6980235B0013400BD0F7
:10382C007B681B6801221A627B6880229B580122EC
:10383C001A437B6880215A50FB69022213400FD037
:10384C007B69012213400BD07B681B6802221A6231
:10385C007B6880229B5804221A437B6880215A5033
:10386C00FB69042213400FD07B69012213400BD05B
:10387C007B681B6804221A627B6880229B58022298
:10388C001A437B6880215A50FB690822134013D0DD
:10389C00BB692022134003D17B69012213400BD05A
:1038AC007B681B6808221A627B6880229B5808225E
:1038BC001A437B6880215A50FA6980231B011340FC
:1038CC0011D0BA698023DB0413400CD07B681B68D1
:1038DC00802212011A627B6880229B5820221A4394
:1038EC007B6880215A507B6880229B58002B00D12A
:1038FC004CE1FB69202213400CD0BB692022134001
:10390C0008D07B685B6E002B04D07B685B6E7A689A
:10391C00100098477B6880229B58FB607B681B6873
:10392C009B6840221340402B03D0FB682822134095
:10393C0033D07B68180000F05FFF7B681B689B68C6
:10394C0040221340402B23D17B681B689A687B680C
:10395C001B6840218A439A607B681B6F002B12D036
:10396C007B681B6F4D4A5A637B681B6F180002F013
:10397C0025F9031E1AD07B681B6F5A6B7B681B6F73
:10398C001800904712E07B681800FCF7EFFD0DE083
:10399C007B681800FCF7EAFD08E07B681800FCF770
:1039AC00E5FD7B68802200219950EFE0C046EDE0F8
:1039BC007B681B6E012B00D0B3E0FB691022134017
:1039CC0000D1AEE0BB691022134000D1A9E07B68A6
:1039DC001B6810221A627B681B689B68402213408C
:1039EC00402B5FD17B681B6F1B685A6808217B18C2
:1039FC001A807B181B88002B00D1C9E07B685822E9
:103A0C009B5A7A1812889A4200D3C1E07B687A18C4
:103A1C005A2112885A527B681B6F9B69202B2AD023
:103A2C007B681B681A687B681B681D490A401A6012
:103A3C007B681B689A687B681B6801218A439A60C3
:103A4C007B681B689A687B681B6840218A439A6074
:103A5C007B682022DA677B6800221A667B681B6809
:103A6C001A687B681B6810218A431A607B681B6F7D
:103A7C00180002F06BF87B6858229A5A7B685A211E
:103A8C005B5A9BB2D31A9AB27B681100180000F0F3
:103A9C00C9F87DE00F080000200100042F4A00083F
:103AAC00FFFEFFFF7B685822995A7B685A229B5A6B
:103ABC009AB20A203B188A1A1A807B685A229B5A9F
:103ACC009BB2002B00D165E03B181B88002B61D00A
:103ADC007B681B681A687B681B6831490A401A604E
:103AEC007B681B689A687B681B6801218A439A6013
:103AFC007B682022DA677B6800221A667B680022CA
:103B0C005A667B681B681A687B681B6810218A439D
:103B1C001A603B181A887B681100180000F082F8B4
:103B2C0038E0FA6980235B0313400ED07A69802356
:103B3C00DB03134009D07B681B68802252031A6296
:103B4C007B681800FCF774FF27E0FB6980221340A8
:103B5C000DD0BB698022134009D07B689B6E002B73
:103B6C001AD07B689B6E7A681000984714E0FB694A
:103B7C004022134011D0BB69402213400DD07B680A
:103B8C00180001F088F808E0C04606E0C04604E0E2
:103B9C00C04602E0C04600E0C046BD4608B080BD4D
:103BAC00DFFEFFFF80B582B000AF7860C046BD4637
:103BBC0002B080BD80B582B000AF7860C046BD4613
:103BCC0002B080BD80B582B000AF7860C046BD4603
:103BDC0002B080BD80B582B000AF7860C046BD46F3
:103BEC0002B080BD80B582B000AF7860C046BD46E3
:103BFC0002B080BD80B582B000AF7860C046BD46D3
:103C0C0002B080BD80B582B000AF7860C046BD46C2
:103C1C0002B080BD80B582B000AF7860C046BD46B2
:103C2C0002B080BD80B582B000AF78600A00BB1CCA
:103C3C001A80C046BD4602B080BD80B582B000AFD0
:103C4C00786039607B681B685B691B0E19067B68A2
:103C5C001B683A680A435A61C046BD4602B080BD33
:103C6C0080B582B000AF78607B689B6F202B1FD132
:103C7C007B6874229B5C012B01D1022319E07B68C9
:103C8C007422012199547B6824229A677B681B68F3
:103C9C005A687B681B68802109040A435A607B6858
:103CAC0020229A677B68742200219954002300E03B
:103CBC0002231800BD4602B080BD000080B582B062
:103CCC0000AF78607B689B6F202B1ED17B687422C1
:103CDC009B5C012B01D1022318E07B68742201212B
:103CEC0099547B6824229A677B681B685A687B68A6
:103CFC001B6808490A405A607B6820229A677B68D7
:103D0C00742200219954002300E002231800BD46C0
:103D1C0002B080BDFFFF7FFF80B582B000AF78603E
:103D2C007B6874229B5C012B01D1022317E07B681A
:103D3C007422012199547B6824229A677B681B6842
:103D4C001A687B681B68802189010A431A607B68AA
:103D5C0020229A677B68180000F078FB030018009B
:103D6C00BD4602B080BD000080B582B000AF786067
:103D7C007B6874229B5C012B01D1022316E07B68CB
:103D8C007422012199547B6824229A677B681B68F2
:103D9C001A687B681B6807490A401A607B682022F6
:103DAC009A677B68180000F051FB03001800BD46B1
:103DBC0002B080BDFFDFFFFF80B582B000AF78603E
:103DCC007B681B689A697B681B6804210A439A61AB
:103DDC00C046BD4602B080BD80B582B000AF7860F1
:103DEC007B6874229B5C012B01D102231EE07B6853
:103DFC007422012199547B6824229A677B681B6882
:103E0C001A687B681B680C218A431A607B681B68E4
:103E1C001A687B681B6808210A431A607B68202299
:103E2C009A677B6874220021995400231800BD46C0
:103E3C0002B080BD80B582B000AF78607B68742220
:103E4C009B5C012B01D102231EE07B6874220121B3
:103E5C0099547B6824229A677B681B681A687B6874
:103E6C001B680C218A431A607B681B681A687B6884
:103E7C001B6804210A431A607B6820229A677B68BE
:103E8C0074220021995400231800BD4602B080BD55
:103E9C0080B582B000AF78607B6874229B5C012B8C
:103EAC0001D1022316E07B687422012199547B68AE
:103EBC0024229A677B681B689A697B681B680221BD
:103ECC000A439A617B6820229A677B6874220021DE
:103EDC00995400231800BD4602B080BD80B584B053
:103EEC0000AF78607B689B6FFB607B68DB6FBB60AF
:103EFC00FA68BB6813431800BD4604B080BD80B59A
:103F0C0082B000AF78607B6880229B581800BD4659
:103F1C0002B080BD80B588B000AF78601E23FB185E
:103F2C0000221A707B689A687B681B691A437B684D
:103F3C005B691A437B68DB6913437B617B681B6895
:103F4C001B68BE4A134019007B681B687A690A43D8
:103F5C001A607B681B685B68B94A134019007B6860
:103F6C00DA687B681B680A435A607B689B697B61D3
:103F7C007B681B6A7A6913437B617B681B689B684F
:103F8C00B04A134019007B681B687A690A439A602F
:103F9C007B681B68AC4A934227D1AC4B1B6B03224A
:103FAC001340032B0DD01BD8022B14D018D8002B88
:103FBC0002D0012B0AD013E01F23FB1800221A7029
:103FCC00BDE01F23FB1802221A70B8E01F23FB1858
:103FDC0004221A70B3E01F23FB1808221A70AEE0FB
:103FEC001F23FB1810221A70A9E07B681B68984AE3
:103FFC00934234D1954B1A6BC0239B021340C022C1
:10400C009202934217D0C0229202934222D880226D
:10401C009202934219D08022920293421AD8002B1A
:10402C0004D08022520293420AD013E01F23FB18C3
:10403C0000221A7083E01F23FB1802221A707EE004
:10404C001F23FB1804221A7079E01F23FB18082287
:10405C001A7074E01F23FB1810221A706FE07B6833
:10406C001B687C4A934234D1784B1A6BC0231B03D8
:10407C001340C0221203934217D0C0221203934262
:10408C0022D880221203934219D080221203934229
:10409C001AD8002B04D08022D20293420AD013E00B
:1040AC001F23FB1800221A7049E01F23FB18022261
:1040BC001A7044E01F23FB1804221A703FE01F23E0
:1040CC00FB1808221A703AE01F23FB1810221A70F2
:1040DC0035E07B681B68604A934204D11F23FB18B0
:1040EC0000221A702BE07B681B685C4A934204D157
:1040FC001F23FB1800221A7021E07B681B68584AAA
:10410C00934204D11F23FB1800221A7017E07B681E
:10411C001B68544A934204D11F23FB1800221A70C7
:10412C000DE07B681B68504A934204D11F23FB1897
:10413C0000221A7003E01F23FB1810221A707B68F0
:10414C00DA6980231B029A425DD11F23FB181B786E
:10415C00082B15D018DC042B0DD015DC002B02D04D
:10416C00022B05D010E003F0A7FE0300BB6112E0A8
:10417C003E4BBB610FE003F015FE0300BB610AE090
:10418C0080231B02BB6106E00023BB611E23FB18CE
:10419C0001221A70C046BB69002B00D195E0BB69A7
:1041AC005A007B685B685B08D2187B685B681900F7
:1041BC001000FBF7EBFF03009BB23B613B690F2B3D
:1041CC001CD93A6980235B029A4217D23B699AB296
:1041DC000E203B180F218A431A803B695B089BB267
:1041EC000722134099B23B183A1812880A431A80D6
:1041FC007B681B683A181288DA6066E01E23FB188D
:10420C0001221A7061E01F23FB181B78082B2FD09A
:10421C0032DC042B0DD02FDC002B02D0022B05D06E
:10422C002AE003F049FE0300BB612CE00F4BBB619D
:10423C0029E003F0B7FD0300BB6124E0F369FFEF55
:10424C00FFCFFFFFFFF4FFFF0038014000100240DA
:10425C000044004000480040004C0040005000402A
:10426C000014014000180140001C014000127A00AB
:10427C0080231B02BB6106E00023BB611E23FB18DD
:10428C0001221A70C046BB69002B1ED07B685B688C
:10429C005A08BB69D2187B685B6819001000FBF7E1
:1042AC0075FF03009BB23B613B690F2B09D93A693F
:1042BC0080235B029A4204D27B681B683A69DA60FD
:1042CC0003E01E23FB1801221A707B6800225A6639
:1042DC007B6800229A661E23FB181B781800BD46CB
:1042EC0008B080BD80B582B000AF78607B685B6A37
:1042FC00012213400BD07B681B685B684A4A134051
:10430C0019007B689A6A7B681B680A435A607B6851
:10431C005B6A022213400BD07B681B685B68434AC4
:10432C00134019007B68DA6A7B681B680A435A6081
:10433C007B685B6A042213400BD07B681B685B684C
:10434C003B4A134019007B681A6B7B681B680A4355
:10435C005A607B685B6A082213400BD07B681B6831
:10436C005B68344A134019007B685A6B7B681B6886
:10437C000A435A607B685B6A102213400BD07B683F
:10438C001B689B682C4A134019007B689A6B7B68EE
:10439C001B680A439A607B685B6A202213400BD02F
:1043AC007B681B689B68254A134019007B68DA6B95
:1043BC007B681B680A439A607B685B6A40221340E7
:1043CC001DD07B681B685B681D4A134019007B6815
:1043DC001A6C7B681B680A435A607B681A6C8023D2
:1043EC005B039A420BD17B681B685B68154A1340D0
:1043FC0019007B685A6C7B681B680A435A607B689F
:10440C005B6A802213400BD07B681B685B680E4A8A
:10441C00134019007B689A6C7B681B680A435A60CE
:10442C00C046BD4602B080BDFFFFFDFFFFFFFEFF93
:10443C00FFFFFBFFFF7FFFFFFFEFFFFFFFDFFFFF34
:10444C00FFFFEFFFFFFF9FFFFFFFF7FF80B586B079
:10445C0002AF78607B68802200219950FDF70EF83E
:10446C000300FB607B681B681B6808221340082B49
:10447C000CD1FB68802291037868174A00920022C5
:10448C0000F02CF8031E01D0032321E07B681B688D
:10449C001B6804221340042B0CD1FB688022D1032F
:1044AC0078680D4A0092002200F018F8031E01D023
:1044BC0003230DE07B6820229A677B682022DA6751
:1044CC007B6800221A667B687422002199540023B1
:1044DC001800BD4604B080BDFFFFFF0180B584B05D
:1044EC0000AFF860B9603B60FB1D1A705EE0BB6901
:1044FC0001335BD0FCF7C2FF02003B68D31ABA69E8
:10450C009A4202D3BB69002B1BD1FB681B681A684B
:10451C00FB681B682F490A401A60FB681B689A6885
:10452C00FB681B6801218A439A60FB6820229A670A
:10453C00FB682022DA67FB6874220021995403235C
:10454C0044E0FB681B681B68042213402ED0FB68F8
:10455C001B68DA6980231B011A4080231B019A42D5
:10456C0024D1FB681B68802212011A62FB681B684D
:10457C001A68FB681B6817490A401A60FB681B68BD
:10458C009A68FB681B6801218A439A60FB682022A9
:10459C009A67FB682022DA67FB68802220219950F9
:1045AC00FB6874220021995403230FE0FB681B68FD
:1045BC00DB69BA681340BA68D31A5A425341DBB26A
:1045CC001A00FB1D1B789A4291D000231800BD469F
:1045DC0004B080BD5FFEFFFF80B584B000AFF86013
:1045EC00B960BB1D1A80FB68BA685A65FB68BA1DB6
:1045FC00582112885A52FB68BA1D5A2112885A52F5
:10460C00FB6800225A66FB689A6880235B019A4219
:10461C000DD1FB681B69002B04D1FB685C2232496D
:10462C0099522EE0FB685C22FF21995229E0FB682D
:10463C009B68002B0DD1FB681B69002B04D1FB6818
:10464C005C22FF2199521CE0FB685C227F2199526D
:10465C0017E0FB689A6880235B059A420DD1FB68D2
:10466C001B69002B04D1FB685C227F21995208E066
:10467C00FB685C223F21995203E0FB685C2200211D
:10468C009952FB68802200219950FB682222DA673C
:10469C00FB681B689A68FB681B6801210A439A60D7
:1046AC00FB689A6880235B019A4207D1FB681B69FF
:1046BC00002B03D1FB680D4A5A6602E0FB680C4ADA
:1046CC005A66FB68742200219954FB681B681A68AF
:1046DC00FB681B68902149000A431A6000231800EC
:1046EC00BD4604B080BDC046FF010000C14D0008AE
:1046FC00D94C000880B584B000AFF860B960BB1D20
:10470C001A80FB68BA685A65FB68BA1D5821128872
:10471C005A52FB68802200219950FB682222DA67EA
:10472C00FB681B6F002B2BD0FB681B6F254A9A6212
:10473C00FB681B6F244ADA62FB681B6F234A1A63FF
:10474C00FB681B6F00225A63FB68186FFB681B68C1
:10475C0024331900FB685B6D1A00BB1D1B8801F02C
:10476C008FF9031E0CD0FB68802210219950FB6836
:10477C00742200219954FB6820229A6701231DE0C2
:10478C00FB68742200219954FB681B681A68FB684B
:10479C001B68802149000A431A60FB681B689A68F1
:1047AC00FB681B6801210A439A60FB681B689A68C6
:1047BC00FB681B6840210A439A6000231800BD4621
:1047CC0004B080BDD548000871490008AD49000807
:1047DC0080B582B000AF78607B681B681A687B6814
:1047EC001B68C0218A431A607B6820229A67C046E6
:1047FC00BD4602B080BD000080B582B000AF7860CD
:10480C007B681B681A687B681B6812490A401A602F
:10481C007B681B689A687B681B6801218A439A60D5
:10482C007B681B6E012B07D17B681B681A687B6841
:10483C001B6810218A431A607B682022DA677B6828
:10484C0000221A667B6800225A66C046BD4602B03A
:10485C0080BDC046DFFEFFFF80B584B000AF78603E
:10486C007B685B6AFB607B689B69202B14D0FB68C0
:10487C00522200219952FB681B689A68FB681B68DE
:10488C0080218A439A60FB681B681A68FB681B6866
:10489C0040210A431A6003E0FB681800FFF782F915
:1048AC00C046BD4604B080BD80B584B000AF786012
:1048BC007B685B6AFB60FB681800FFF77BF9C046FE
:1048CC00BD4604B080BD000080B584B000AF7860F8
:1048DC007B685B6AFB607B689B69202B2AD0FB683A
:1048EC005A2200219952FB681B681A68FB681B68E6
:1048FC001B490A401A60FB681B689A68FB681B68B6
:10490C0001218A439A60FB681B689A68FB681B68E4
:10491C0040218A439A60FB682022DA67FB681B6E91
:10492C00012B07D1FB681B681A68FB681B681021F8
:10493C008A431A60FB681B6E012B08D1FB68582256
:10494C009A5AFB6811001800FFF76CF903E0FB683A
:10495C001800FFF737F9C046BD4604B080BDC0460D
:10496C00FFFEFFFF80B584B000AF78607B685B6AA8
:10497C00FB60FB681B6E012B0AD1FB6858229B5A0B
:10498C005B089AB2FB6811001800FFF74BF903E0C3
:10499C00FB681800FFF71EF9C046BD4604B080BD89
:1049AC0080B586B000AF78607B685B6A7B617B69A1
:1049BC009B6F3B617B69DB6FFB607B691B689B6852
:1049CC0080221340802B0AD13B69212B07D17B69B4
:1049DC005222002199527B691800FFF7F9FE7B697E
:1049EC001B689B6840221340402B0AD1FB68222B8A
:1049FC0007D17B695A22002199527B691800FFF775
:104A0C00FBFE7B6980229B5810221A437B69802114
:104A1C005A507B691800FBF7A9FDC046BD4606B08D
:104A2C0080BD80B584B000AF78607B685B6AFB604A
:104A3C00FB685A2200219952FB685222002199529C
:104A4C00FB681800FBF792FDC046BD4604B080BD64
:104A5C0080B584B000AF78607B685B6AFB60FB68F4
:104A6C00DB6E00225A63FB681B6F002B04D0FB68C3
:104A7C001B6F5B6B002B1DD1FB68522200219952DE
:104A8C00FB685A2200219952FB6880220021995020
:104A9C00FB681B680F221A62FB6820229A67FB686E
:104AAC002022DA67FB6800221A66FB681800FFF701
:104ABC00A1F800E0C046BD4604B080BD80B584B00E
:104ACC0000AF78607B685B6AFB60FB681B6F002241
:104ADC005A63FB68DB6E002B04D0FB68DB6E5B6BF0
:104AEC00002B25D1FB68522200219952FB685A22D7
:104AFC0000219952FB68802200219950FB681B68A9
:104B0C000F221A62FB681B689A69FB681B680821F4
:104B1C000A439A61FB6820229A67FB682022DA67B5
:104B2C00FB6800221A66FB681800FFF763F800E0C8
:104B3C00C046BD4604B080BD80B584B000AF78607F
:104B4C007B685B6AFB60FB68522200219952FB6810
:104B5C0020229A67FB681800FFF754F8C046BD4640
:104B6C0004B080BD80B584B000AF78607B685B6AB0
:104B7C00FB60FB685A2200219952FB681B680F22CC
:104B8C001A62FB681B689A69FB681B6808210A4358
:104B9C009A61FB682022DA67FB6800221A66FB68C0
:104BAC001800FFF737F8C046BD4604B080BD80B58D
:104BBC0082B000AF78607B689B6F212B2BD17B6818
:104BCC0052229B5A9BB2002B10D17B681B681A682F
:104BDC007B681B6880218A431A607B681B681A6893
:104BEC007B681B6840210A431A6014E07B68DB6C0D
:104BFC001A787B681B6892B21A857B68DB6C5A1C2E
:104C0C007B68DA647B6852229B5A9BB2013B99B257
:104C1C007B6852229952C046BD4602B080BD80B519
:104C2C0084B000AF78607B689B6F212B2FD17B68A1
:104C3C0052229B5A9BB2002B10D17B681B681A68BE
:104C4C007B681B6880218A431A607B681B681A6822
:104C5C007B681B6840210A431A6018E07B68DB6C98
:104C6C00FB60FB681A887B681B68D205D20D92B278
:104C7C001A857B68DB6C9A1C7B68DA647B68522231
:104C8C009B5A9BB2013B99B27B6852229952C04607
:104C9C00BD4604B080BD80B582B000AF78607B6843
:104CAC001B681A687B681B6840218A431A607B6802
:104CBC0020229A677B6800229A667B681800FEF7B0
:104CCC0071FFC046BD4602B080BD000080B584B007
:104CDC0000AF78600E203B187A685C21525A1A801B
:104CEC007B68DB6F222B57D17B681A680C217B18F1
:104CFC00928C1A807B181B88DAB23B181B88D9B2AD
:104D0C007B685B6D0A40D2B21A707B685B6D5A1C73
:104D1C007B685A657B685A229B5A9BB2013B99B2BD
:104D2C007B685A2299527B685A229B5A9BB2002B61
:104D3C003AD17B681B681A687B681B681C490A405F
:104D4C001A607B681B689A687B681B6801218A4320
:104D5C009A607B682022DA677B6800225A667B683F
:104D6C001B6E012B10D17B681B681A687B681B6853
:104D7C0010218A431A607B6858229A5A7B6811006A
:104D8C001800FEF74FFF03E07B681800FEF71AFFD0
:104D9C007B6800221A6607E07B681B689A697B684F
:104DAC001B6808210A439A61C046BD4604B080BD09
:104DBC00DFFEFFFF80B584B000AF78600E203B189B
:104DCC007A685C21525A1A807B68DB6F222B57D190
:104DDC007B681A680C217B18928C1A807B685B6D3F
:104DEC00BB607B183A181B88128813409AB2BB68B8
:104DFC001A807B685B6D9A1C7B685A657B685A22AB
:104E0C009B5A9BB2013B99B27B685A2299527B68A0
:104E1C005A229B5A9BB2002B3AD17B681B681A68AA
:104E2C007B681B681C490A401A607B681B689A687F
:104E3C007B681B6801218A439A607B682022DA67B1
:104E4C007B6800225A667B681B6E012B10D17B6835
:104E5C001B681A687B681B6810218A431A607B6880
:104E6C0058229A5A7B6811001800FEF7DBFE03E00B
:104E7C007B681800FEF7A6FE7B6800221A6607E026
:104E8C007B681B689A697B681B6808210A439A61D6
:104E9C00C046BD4604B080BDDFFEFFFF80B586B0C6
:104EAC0000AF7860396000237B6155E13B681B687B
:104EBC0001217A6991400A001340FB60FB68002BCA
:104ECC0000D146E13B685B68012B0BD03B685B680B
:104EDC00022B07D03B685B68112B03D03B685B68E7
:104EEC00122B30D17B689B683B617B695B00032292
:104EFC009A401300DA433B6913403B613B68DA6824
:104F0C007B695B009A4013003A6913433B617B68F1
:104F1C003A699A607B685B683B6101227B699A40C5
:104F2C001300DA433B6913403B613B685B681B0928
:104F3C0001221A407B699A4013003A6913433B6182
:104F4C007B683A695A607B68DB683B617B695B0014
:104F5C0003229A401300DA433B6913403B613B68E0
:104F6C009A687B695B009A4013003A6913433B6172
:104F7C007B683A69DA603B685B68022B03D03B685C
:104F8C005B68122B23D17B69DA087B6808329200AC
:104F9C00D3583B617B69072213409B000F229A4038
:104FAC001300DA433B6913403B613B681A697B6928
:104FBC0007210B409B009A4013003A6913433B6155
:104FCC007B69DA087B68083292003969D1507B68BA
:104FDC001B683B617B695B0003229A401300DA4338
:104FEC003B6913403B613B685B6803221A407B6959
:104FFC005B009A4013003A6913433B617B683A6942
:10500C001A603B685A6880235B05134000D1A0E00E
:10501C00574B9A69564B01210A439A61544B9B6931
:10502C0001221340BB60BB68524A7B699B08023368
:10503C009B009B583B617B69032213409B000F2212
:10504C009A401300DA433B6913403B617A68902322
:10505C00DB059A4219D07B68474A934213D07B6890
:10506C00464A93420DD07B68454A934207D07B68F1
:10507C00444A934201D1042308E0052306E00323AC
:10508C0004E0022302E0012300E000237A690321FB
:10509C000A40920093403A6913433B6135497B695E
:1050AC009B0802339B003A695A50374B1B683B6193
:1050BC00FB68DA433B6913403B613B685A688023C9
:1050CC005B02134003D03A69FB6813433B612E4BE0
:1050DC003A691A602C4B5B683B61FB68DA433B69AD
:1050EC0013403B613B685A6880239B02134003D0FA
:1050FC003A69FB6813433B61234B3A695A60224B74
:10510C009B683B61FB68DA433B6913403B613B683E
:10511C005A6880235B03134003D03A69FB6813433E
:10512C003B61194B3A699A60174BDB683B61FB6832
:10513C00DA433B6913403B613B685A6880239B030D
:10514C00134003D03A69FB6813433B610E4B3A6939
:10515C00DA607B6901337B613B681A687B69DA40F2
:10516C00131E00D0A2E6C046C046BD4606B080BDA8
:10517C0000100240000001400004004800080048F4
:10518C00000C0048001000480004014080B586B0B7
:10519C0000AF7860396000237B61B7E001227B6946
:1051AC009A403B6813403B613B69002B00D1AAE05D
:1051BC005C4A7B699B0802339B009B58FB607B69B4
:1051CC00032213409B000F229A40FB681340FB60A4
:1051DC007A689023DB059A4219D07B68524A934235
:1051EC0013D07B68514A93420DD07B68504A93424E
:1051FC0007D07B684F4A934201D1042308E0052372
:10520C0006E0032304E0022302E0012300E0002374
:10521C007A6903210A4092009340FA689A4232D18B
:10522C00454B1A683B69D943434B0A401A60424BC1
:10523C005A683B69D943404B0A405A603E4B9A68C6
:10524C003B69D9433C4B0A409A603B4BDA683B695B
:10525C00D943394B0A40DA607B69032213409B0027
:10526C000F229A401300FB602E4A7B699B08023385
:10527C009B009A58FB68D9432A487B699B080A40D3
:10528C0002339B001A507B681B687A695200032119
:10529C0091400A00D2431A407B681A607B69DA0895
:1052AC007B6808329200D3587A6907210A40920031
:1052BC000F2191400A00D1437A69D20819407B68CA
:1052CC0008329200D1507B68DB687A695200032166
:1052DC0091400A00D2431A407B68DA607B685B68B5
:1052EC0001217A6991400A00D2431A407B685A60C6
:1052FC007B689B687A695200032191400A00D24373
:10530C001A407B689A607B6901337B613A687B69E0
:10531C00DA40131E00D041E7C046C046BD4606B079
:10532C0080BDC04600000140000400480008004851
:10533C00000C0048001000480004014080B584B007
:10534C0000AF78600A00BB1C1A807B681B69BA1C12
:10535C001288134004D00F23FB1801221A7003E0AB
:10536C000F23FB1800221A700F23FB181B78180050
:10537C00BD4604B080BD80B582B000AF7860080037
:10538C001100BB1C021C1A807B1C0A1C1A707B1C93
:10539C001B78002B04D0BB1C1A887B689A6103E035
:1053AC00BB1C1A887B689A62C046BD4602B080BDA1
:1053BC0080B584B000AF78600A00BB1C1A807B6893
:1053CC005B69FB60BB1C1B88FA6813401A04FB6802
:1053DC00DB43B91C09880B401A437B689A61C046B1
:1053EC00BD4604B080BD80B584B000AF78600A00C3
:1053FC00BB1C1A8080235B02FB60BB1C1A88FB68F9
:10540C001343FB60FA687B68DA61BB1C1A887B6803
:10541C00DA61FA687B68DA617B68DB69FB607B6860
:10542C00DA6980235B02134001D0002300E00123E2
:10543C001800BD4604B080BD80B582B000AF02003C
:10544C00BB1D1A80094B5B69BA1D1288134008D02A
:10545C00064BBA1D12885A61BB1D1B881800FBF73E
:10546C008FF8C046BD4602B080BDC0460004014066
:10547C0080B582B000AF0200BB1D1A80C046BD468D
:10548C0002B080BD80B586B000AF786039607B68B3
:10549C00002B02D03B68002B01D101238DE03B682F
:1054AC001A687B681A603B681B681F2213407B617B
:1054BC0001227B699A4013003B613B681A68802388
:1054CC009B04134052D03B689B680122134006D0CA
:1054DC003C4B99683B4B3A690A439A6006E0394B5E
:1054EC009A683B69D943374B0A409A603B689B6882
:1054FC000222134006D0334BD968324B3A690A4327
:10550C00DA6006E02F4BDA683B69D9432D4B0A4031
:10551C00DA603B681A68C023DB041A40C023DB0442
:10552C009A4223D1284A7B699B0802339B009B58E3
:10553C00FB607B69032213409B000F229A401300EF
:10554C00DA43FB681340FB603B68DA687B69032134
:10555C000B409B009A401300FA681343FB601A49F6
:10556C007B699B0802339B00FA685A503B685B6866
:10557C000122134006D0134B1968124B3A690A43A7
:10558C001A6006E00F4B1A683B69D9430D4B0A4071
:10559C001A603B685B680222134006D0094B5968BD
:1055AC00084B3A690A435A6006E0064B5A683B6955
:1055BC00D943044B0A405A6000231800BD4606B07C
:1055CC0080BDC046000401400000014080B586B09B
:1055DC0000AF786039607B68002B02D03B68002BF1
:1055EC0001D1012368E07B681A683B681A603B684C
:1055FC001B681F2213407B6101227B699A401300B8
:10560C003B612F4B1B683A69134003D03B68012266
:10561C005A6002E03B6800225A60294B5B683A6989
:10562C00134005D03B685B6802221A433B685A6002
:10563C003B681A6880239B04134036D0204B9B6830
:10564C003A69134003D03B6801229A6002E03B6840
:10565C0000229A601A4BDB683A69134005D03B680C
:10566C009B6802221A433B689A603B681A68C02305
:10567C00DB041A40C023DB049A4212D1114A7B6925
:10568C009B0802339B009B58FB607B69DB43032226
:10569C0013409B00FA689A4013001A0E3B68DA60BC
:1056AC0009E03B680022DA6005E03B6800229A6062
:1056BC003B680022DA6000231800BD4606B080BDAE
:1056CC00000401400000014080B586B000AF786056
:1056DC007B68002B01D101234EE07B681B681F22E5
:1056EC0013407B6101227B699A4013003B61244B80
:1056FC001A683B69D943224B0A401A60204B5A68FE
:10570C003B69D9431E4B0A405A607B681A68802358
:10571C009B0413402FD01A4B9A683B69D943184B02
:10572C000A409A60164BDA683B69D943144B0A401D
:10573C00DA607B681A68C023DB041A40C023DB04E0
:10574C009A4218D10F4A7B699B0802339B009B58E5
:10575C00FB607B69032213409B000F229A401300CD
:10576C00DA43FB681340FB6006497B699B080233F4
:10577C009B00FA685A5000231800BD4606B080BD45
:10578C00000401400000014080B586B000AFF86015
:10579C007A600B203B180A1C1A701723FB18002286
:1057AC001A703B181B78002B03D1FB687A685A607F
:1057BC0004E01723FB1801221A70C0461723FB18AC
:1057CC001B781800BD4606B080BD80B582B000AF16
:1057DC00786039607B68002B01D1012303E07B6882
:1057EC003A681A6000231800BD4602B080BD000064
:1057FC0080B584B000AF78607B681B681F221340B3
:10580C0001229A401300FB600A4B5A69FB68134053
:10581C00BB60BB68002B09D0064BFA685A617B68E9
:10582C005B68002B02D07B685B689847C046BD461E
:10583C0004B080BD0004014080B586B000AF786034
:10584C0039607B681B681F2213407B6101227B69D6
:10585C009A4013003B61064B5B693A691A407B69BD
:10586C00DA401300FB60FB681800BD4606B080BD33
:10587C000004014080B584B000AF786039607B686B
:10588C001B681F22134001229A401300FB60034B3C
:10589C00FA685A61C046BD4604B080BD00040140A0
:1058AC0080B584B000AF78607B681B681F22134002
:1058BC0001229A401300FB60034BFA681A61C04640
:1058CC00BD4604B080BDC0460004014080B584B024
:1058DC0000AF78600023FB607B68002B01D10123B3
:1058EC0036E07B682122022199547B681B681B6877
:1058FC00FB60FB68184A1340FB607B685A687B6846
:10590C009B681A437B68DB681A437B681B691A43E4
:10591C007B685B691A437B689B691A437B68DB690C
:10592C001343FA681343FB607B681B68FA681A60C0
:10593C007B68180000F0ACFB7B6800229A637B68E4
:10594C002122012199547B682022002199540023A3
:10595C001800BD4604B080BD0FC0FFFF80B582B0FB
:10596C0000AF78607B68002B01D101233BE07B68A2
:10597C001B681A687B681B6801218A431A607B6864
:10598C001B6800221A607B681B6800225A607B68C7
:10599C001B6800229A607B681B680022DA607B68B7
:1059AC00180000F075FB7B681A6C7B68DB6B0121BF
:1059BC0091400A005A607B6800229A627B68002240
:1059CC00DA627B6800221A637B6800225A637B6868
:1059DC0000229A637B682122002199547B68202243
:1059EC000021995400231800BD4602B080BD80B53B
:1059FC0086B000AFF860B9607A603B601723FB1883
:105A0C0000221A70FB6820229B5C012B01D102231F
:105A1C0032E0FB68202201219954FB6821229B5C17
:105A2C00DBB2012B1DD1FB68212202219954FB68AA
:105A3C0000229A63FB681B681A68FB681B680121CB
:105A4C008A431A603B687A68B968F86800F0F4FA1F
:105A5C00FB681B681A68FB681B6801210A431A6003
:105A6C0007E0FB682022002199541723FB1802221F
:105A7C001A701723FB181B781800BD4606B080BDA2
:105A8C0080B586B000AFF860B9607A603B601723D0
:105A9C00FB1800221A70FB6820229B5C012B01D1A1
:105AAC0002234FE0FB68202201219954FB6821223C
:105ABC009B5CDBB2012B3AD1FB6821220221995469
:105ACC00FB6800229A63FB681B681A68FB681B68FA
